:400000000080002011000000290200002902000080B500AF024A034B1B68136000F008F9BC760040FA46004010B5054C237833B9044B13B10448AFF300800123237010BDC0
:400040004081FF1F000000002C2E0000084B10B51BB108480849AFF300800848036803B910BD074B002BFBD0BDE81040184700BF000000002C2E00004481FF1F0881FF1F1D
:400080000000000080B582B000AF3A4B1B78002B2CD11923FB800FE0FB88DBB2184602F017FDFB88DBB2184602F010FE1E2002F08DFBFB880133FB80FB88632BECD964231B
:4000C000FB800FE0FB88DBB2184602F001FDFB88DBB2184602F0FAFD1E2002F077FBFB88013BFB80FB88192BECD82BE06423FB800FE0FB88DBB2184602F0EAFCFB88DBB228
:40010000184602F0E3FD1E2002F060FBFB88013BFB80FB88192BECD81923FB800FE0FB88DBB2184602F0D4FCFB88DBB2184602F0CDFD1E2002F04AFBFB880133FB80FB8815
:40014000632BECD90B4B1B78002B0CBF01230023DBB21A46074B1A70064B1B78184602F0D7FC044B1B78184602F0F0FC0837BD4680BD00BF6F81FF1F80B500AF62B602F0DE
:4001800005FC02F001FD0020012100F03FFB002002F0BCFDFFF776FF00F02EF8054B1B78012B05D1044800F009F8024B00221A70F0E700BF6C81FF1FE481FF1F80B582B0F0
:4001C00000AF786000BF00F0B7FE0346002BFAD07B683F3300221A707B683E3321221A70786802F01AFE03469BB27868194600F06DFE0837BD4680BD80B500AF084B1B7851
:40020000002B0CD100F0A2FC0346002B07D000F009FE034B01221A700248FFF7CFFF80BD7681FF1F682E000080B400AFFEE700BF80B586B000AF224B7B61224B3B61204B97
:400240007B6135E03B691B68FB603B695B68BB603B699B683B6000237B600CE0FB681A68BB681A60BB680433BB60FB680433FB607B6804337B607A683B689A42EED13B69B8
:40028000DB683B6000237B6008E0BB6800221A60BB680433BB607B6804337B607A683B689A42F2D13B6910333B617B69013B7B617B69002BC6D102F077FDFFF75DFFFEE76B
:4002C000010000008030000080B582B000AF184B184A1A60184A184B1B6843F40073136000237B600FE07B68032B04D8134A7B6852F8233000E0124B12497A6841F82230D7
:400300007B6801337B607B682F2BECD90E4B1B78DAB20E4B1A700E4B0A4A1A6000F088F902F01AFA0B4B00221A600837BD4680BD0CED00E00004FA0514ED00E000000000A2
:40034000290200000080FF1FBC7600400481FF1F08ED00E00081FF1F80B582B000AF78603960786800213A6802F04FFD0837BD4680BD00BF80B584B000AFF860B9607A6022
:40038000F868B9687A6802F035FD1037BD4680BD80B483B000AF0346FB71FEE780B487B000AF7860396000233B6100237B6127E07B699B007A6813441B68BB60BB68FB7348
:4003C000BB6823F0FF03BB6014E03B695B003A6813441B781A46BB68134419463B695B003A6813445B780B703B6901333B61FB7B013BFB73FB7B002BE7D17B6901337B61CB
:400400007B692B2BD4D91C37BD465DF8047B704780B582B000AF3C4B04221A803B4B18221A703B4B3A221A803A4B18221A703A4B3B221A80394B18221A70394B81221A8003
:40044000384B18221A70384B00221A80374B1B221A70374B06221A70364B52221A70364B364A1278D2B21A70354B40F619121A80344B41F251221A800023FB7019237B6082
:4004800014E0FB785B00DAB22F4B1B78DBB203F00103DBB21343DBB203F00303FB704FF4F07002F049F97B68013B7B607B68002B02D0FB78032BE4D17B68002B02D103207E
:4004C000FFF766FF214B4FF480721A801F4B07221A701F4B00221A701E4B48221A701B4B00221A701C4B00221A701C4B02221A701B4A1B4B1B78DBB243F01F03DBB213704C
:400500000837BD4680BD00BF80400040824000408440004086400040884000408A4000408C4000408E40004090400040924000400043004000420040A14600400F0100499E
:400540002242004020420040254200400440004006400040084000400940004001400040A243004080B582B000AF234B1B78FB71224B1B78BB71224B1B787B71214AFB7953
:4005800003F00703DBB213701F4AFB791B09DBB213701A4ABB7943F00303DBB21370184A7B7943F00303DBB21370184BE0221A70174BF4221A70174B40221A70164B40229B
:4005C0001A70164BE0221A70154B4F221A70154B20221A70144B40221A700A2002F018F9074A7B791370054ABB7913700F4B44221A700837BD4680BDCF010049F846004057
:40060000F94600406E5800406F5800400D5100401D510040095900400B590040005B0040285B00402B5B0040585B00407658004080B586B000AF72B6584B61221A70FFF78F
:40064000E7FE564B01221A70554A554B1B78DBB243F00403DBB213700023FB7513E0FA7D13465B0013445B004E4A13443B613B691A683B699B889BB210461946FFF76CFE61
:40068000FB7D0133FB75FB7D062BE8D90023FB751CE0FA7D13469B0013445B00424A1344FB60FB681B68BB60FB685B687B60FB681A7A5B7A1B0213437B807B88B86879688A
:4006C0001A46FFF757FEFB7D0133FB75FB7D002BDFD04FF090403549FFF760FE34480421FFF73AFE334834490422FFF743FE334A324B1B78DBB243F00203DBB21370304A00
:400700002F4B1B78DBB243F00203DBB213702D4A2C4B1B78DBB243F04003DBB213702A4A294B1B78DBB243F01003DBB21370274827490822FFF71EFE264827490822FFF7CC
:4007400019FE264826490A22FFF714FE254826490822FFF70FFE254825490A22FFF70AFE244825490822FFF705FE244B44221A70234B84221A70234A224B1B78DBB243F01C
:400780000803DBB21370FFF7EDFE1F480D490E22FFF7F0FD1837BD4680BD00BF00480040E8460040742E0000A02E0000B0000048007600400876004004100048035001405D
:4007C00013500140A0430040C243004002510040CC0F0048C2510040D40F0048F0510040DC0F004812510040E80F004820510040F00F004832510040FC0F00485B04014075
:40080000DB14014022430040B043004080B582B000AF03460A46FB711346BB71084B1B78002B04D100F00EF8054B01221A70FA79BB791046194600F0D5F80837BD4680BD9F
:400840007A81FF1F80B582B000AF01F07DFF0346FB71534A524B1B78DBB243F00103DBB21370504A4F4B1B78DBB243F00103DBB213704D4B01221A704C4B02221A704C4ACB
:400880004B4B1B78DBB203F07F03DBB21370002001F0BEFF474A474B1B78DBB223F00603DBB21370444A444B1B78DBB223F02003DBB213703F4A3F4B1B78DBB243F00103D3
:4008C000DBB21370012001F0A3FF282001F0A0FF3A4A3A4B1B78DBB203F07F03DBB21370364A364B1B78DBB223F04003DBB21370304A304B1B78DBB243F00203DBB21370CA
:40090000022001F085FF2B4A2A4B1B78DBB243F00403DBB213702A4B00221A70294B00221A70FB79184601F013FF1720072101F0A9FF1720244901F07DFF1820072101F05C
:40094000A1FF1820214901F075FF1520072101F099FF15201E4901F06DFF0120072101F091FF01201B4901F065FF0220072101F089FF0220184901F05DFF0320072101F07E
:4009800081FF0320154901F055FF0C20072101F079FF0C20124901F04DFF0837BD4680BDA5430040B54300409D60004009600040106000409443004012600040F8510040A9
:4009C000846000408560004021170000F10F0000151700001116000065160000B91600002D17000080B582B000AF03460A46FB711346BB712E4AFB7913702E4B00221A7061
:400A00002D4B00221A702D4B00221A702C4B00221A702C4B00221A702B4B00221A702B4B00221A702A4B4FF400021A60284B4FF080721A60264B4FF400121A60244B0222BF
:400A40001A60234B04221A60214B08221A60BB79002B02D0012B09D011E01E4A1D4B1B78DBB223F00103DBB2137011E0194A194B1B78DBB243F00103DBB2137008E0154A3A
:400A8000144B1B78DBB243F00103DBB2137000BF114B03221A70114B80221A70012001F04BFE0F4B04221A700837BD4680BD00BF8182FF1F8482FF1FA082FF1FA382FF1FB3
:400AC0009882FF1FA282FF1FA582FF1F8082FF1F00E100E00960004028600040086000401260004080B400AF0F4B00221A700F4B00221A700E4B00221A700E4B00221A7092
:400B00000D4B00221A700D4B00221A700C4B00221A700C4B03221A700B4B80221A70BD465DF8047B704700BF8482FF1FA082FF1FA382FF1F9882FF1FA282FF1FA582FF1F6F
:400B40008082FF1F286000400860004080B400AF034B1B78DBB21846BD465DF8047B7047A382FF1F80B483B000AF0346FB71FA79064913465B0013449B000B445B78DBB283
:400B800018460C37BD465DF8047B7047A882FF1FB0B485B000AF03463960FB711346BB80FB79002B66D0FB79082B63D8B988FA79324813465B0013449B000344DB889BB212
:400BC000C3F5007399420BD9FA792C4913465B0013449B000B44DB889BB2C3F50073BB80274CF979BB881B0A9BB2D8B2FA79234D13465B0013449B002B44DB78DBB20343D6
:400C0000DAB20B0123441A701D4AFB79B988C9B21B0113440A465A703B68002B13D00023FB810CE01748FB79FA8939680A4412781B01034408331A70FB890133FB81FA891D
:400C4000BB889A42EED3FA790C4913465B0013449B000B4400225A700948F979FA79074C13465B0013449B0023445B79DAB20B0103449A701437BD46B0BC7047A882FF1FDF
:400C8000FC5F00407060004090B482B000AF0346FB71FB79002B19D0FB79082B16D8FA790C4913465B0013449B000B4400225A700948F979FA79074C13465B0013449B00BA
:400CC00023445B79DAB20B0103449A700837BD4690BC7047A882FF1FFC5F004080B582B000AF0023FB71324B1B79DBB2184600F069F80346BB712E4B1B78DBB2DBB25BB20E
:400D0000002B16DA2A4B5B78DBB2212B00D00FE0284B07221A80BA791346DB009B1A264A1344244A536000F0DDFA0346FB7100BF38E01F4B5B78DBB2202B02D0222B1AD00D
:400D400030E01C4B07221A80BA791346DB009B1A194A1344174A5360BB79BA7917498A5CD2B242F00102D1B2144AD15400F03AFB0346FB7116E0BB790D4A9278D2B291B2B7
:400D80000F4A22F81310BB79BA790C498A5CD2B242F00202D1B2094AD15400F0BFFB0346FB7100BFFB7918460837BD4680BD00BF006000408C82FF1F0C81FF1F6882FF1F99
:400DC0007C82FF1F80B485B000AF0346FB710023FB73FF23BB7317E0FB7B104AD35C7B737A7B0F4913465B0013449B000B4408339B78DBB2FA799A4203D1FB7BBB7302233C
:400E0000FB73FB7B0133FB73FB7B012BE4D9BB7B18461437BD465DF8047B70477082FF1FA882FF1F80B582B000AF0023BB71224B00221A70214B00221A70204B00225A701B
:400E40000023FB7110E0FB791D4AD35C7B717B79002B06D07B79082B03D87B791846FFF713FFFB790133FB71FB79012BEBD9154B1B78DBB2002B18D0114B1B78DBB2002BFA
:400E800013D0114B1B78DBB2002B0ED00D4B1B78DBB2082B09D80A4B1B78DBB2082B04D8094B1B78DBB2082B01D90123BB71BB7918460837BD4680BD7B81FF1F6882FF1FB6
:400EC0007482FF1F6C82FF1F7082FF1F80B584B000AF78600B467B80144B1B781A46144B9B5CFB73FA7B134913465B0013449B000B4408331B889BB27A889A420CD9FA7B47
:400F00000C4913465B0013449B000B4408331B887B80002001F04EFCFA7B7B88104679681A46FFF735FE1037BD4680BD7B81FF1F6C82FF1FA882FF1F80B500AF054B1B783F
:400F40001A46054B9B5CDBB21846FFF70BFE0346184680BD7B81FF1F6C82FF1F80B485B000AF78600B46FB701346BB707B68DB7803F00303FB737B689B78DBB25BB2002B4E
:400F80001ADAFB7B032B0AD0BB7803F001031549FA78CA54BB7843F00103BB701BE0BB789B08DBB203F001030F49FA78CA54BB7843F00403BB700EE0FB7B032B0BD0BB789D
:400FC0005B08DBB203F001030849FA78CA54BB7843F00203BB70BB7818461437BD465DF8047B70476C82FF1F7082FF1F7482FF1F80B582B000AF374B1B78BB71BB7903F07B
:401000001003002B63D00123FB71BB795BB2002B13DABB7903F00F03012B02D00023FB711DE000F061F82C4B1B78DBB2DBB25BB2002B14DA0023FB7111E0BB7903F0400316
:40104000002B02D000F094F809E0BB7903F02003002B02D000F0B2F801E00023FB71FB79002B34D01B4B1B78BB71BB795BB2002B2DDB1A4B1B78DAB2194B1B78DBB2134323
:40108000BB71184ABB791370164B1B78DBB2BA799A421CD1104B1B78FB710E4B1B78DBB223F07F03BB71BB79002B0AD1094B0A4A1278D2B21A70074B1B78DBB203F00F03E9
:4010C000FB71054B1B78DBB2FA799A42E2D10837BD4680BD28600040A182FF1F1683FF1FA482FF1F2960004080B582B000AF1D4B1B78FB711B4AFB7913701A4B1B78FB7189
:40110000FB795BB2002B03DA174AFB79137025E0022000F043FA154B1B78DBB203F06003202B08D0402B0BD0002B0ED100F004FB0346FB710CE001F0F9FD0346FB7107E01E
:4011400001F0C0FA0346FB7102E00023FB7100BFFB79002B02D1044B03221A700837BD4680BD00BF28600040A182FF1F0060004080B500AF104B1B78DBB2062B19D801A264
:4011800052F823F0B3110000B3110000A1110000B3110000A7110000B3110000AD11000000F0FAF806E000F0A9F903E000F0D2F900E000BF80BD00BF8482FF1F80B500AFFF
:4011C000124B1B78DBB2062B1DD801A252F823F00712000007120000ED11000007120000F311000007120000F911000000F0DAF80AE000F029F907E0032000F0CFF9044B0D
:4012000003221A7000E000BF80BD00BF8482FF1FA182FF1F80B483B000AF0023FB71294B1B78DBB29AB2284B1B889BB213449AB2254B1A8015E02549FB79254A52681278E0
:40124000D2B2CA54224B5B680133214A5360FB790133FB711E4B1B889BB2013B9AB21C4B1A801B4B1B889BB2002B02D0FB79072BE1D9144B1B78DBB2082B02D0FB79002B7E
:401280000FD0144B1B78DBB283F07F03DB43DAB2104B1A70104B0F221A70104B02221A7005E00D4B02221A700C4B02221A700C4AFB791370034AFB7913700C37BD465DF811
:4012C000047B70478082FF1F8282FF1F006000408C82FF1F1683FF1FA182FF1F8482FF1FA482FF1F80B582B000AF164B1B889BB2002B02D100F02EF81EE0134B02221A70C5
:40130000124B00221A7000F069F9114BDB79DBB29BB21B029AB20E4B9B79DBB29BB21343FB80084B1B889BB2FA889A4202D2054AFB881380FFF76EFF012318460837BD4646
:4013400080BD00BF8C82FF1F8482FF1F1683FF1F0060004080B400AF0A4B02221A700A4B80221A70094B0F221A70094B00221A70084B00221A7001231846BD465DF8047BFC
:40138000704700BF8482FF1F1683FF1FA182FF1F8082FF1FA482FF1F80B500AFFFF73AFF80BD00BF80B500AF0A4B1B78DBB29AB2094B1B889BB213449AB2074B1A80074B5E
:4013C00000221A70012000F0E9F8054B03221A7080BD00BF8082FF1F8282FF1F8482FF1FA182FF1F80B582B000AF124B04221A70114B80221A7000F0F1F8104BDB79DBB2ED
:401400009BB21B029AB20D4B9B79DBB29BB21343FB800B4B1B889BB2FA889A4202D2084AFB881380074B0B221A70012318460837BD4680BD8482FF1F1683FF1F006000407A
:401440008C82FF1FA182FF1F80B483B000AF0023BB71234B1B78DBB203F00F03DBB2023BFB71FB799AB21F4B1B889BB213449AB21C4B1A8018E01C4B5B681C49BA798A5C73
:40148000D2B21A70184B5B680133174A5360BB790133BB71FB79013BFB71134B1B889BB2013B9AB2104B1A800F4B1B889BB2002B02D0FB79002BDED10D4AFB7913700D4BFA
:4014C0001B78DBB283F07F03DB43DAB2094B1A70094B0B221A700C37BD465DF8047B7047296000408282FF1F8C82FF1F00600040A482FF1F1683FF1FA182FF1F80B500AF9C
:40150000044B00221A70012000F048F8024B03221A7080BD8482FF1FA182FF1F80B400AF084B06221A70084B06221A70074B80221A70074B00221A7001231846BD465DF87E
:40154000047B70478482FF1FA182FF1F1683FF1FA482FF1F80B500AF0C4B1B78DBB2002B0AD00B4A094B1B78DBB263F07F03DBB21370064B00221A70064B00221A700120AC
:4015800000F00CF8044B03221A7080BDA282FF1F086000408482FF1FA182FF1F80B483B000AF0346FB710B4B9B68002B0CD0094B9B68FA791A70074B9B68074A128892B2AA
:4015C0005A80044B00229A600C37BD465DF8047B704700BF8C82FF1F8282FF1F80B400AF094B00221A80094B9B68002B07D0074B9B6800221A70054B9B6800225A80BD4629
:401600005DF8047B704700BF8282FF1F8C82FF1F80B400AF104A104B1B78DBB223F00103DBB213700D4B9B7C0D4B1B7BDBB203F00303012B08D00A4BDB7BDBB283F07F031F
:40164000DB43DAB2064BDA73054B01225A73BD465DF8047B704700BF0B600040FC5F0040A882FF1F80B400AF104A104B1B78DBB223F00203DBB213700D4B93F822300D4B9A
:401680001B7EDBB203F00303012B08D0094BDB7EDBB283F07F03DB43DAB2064BDA76054B01225A76BD465DF8047B70470B600040FC5F0040A882FF1F80B400AF124A124B92
:4016C0001B78DBB223F00403DBB213700F4B93F832300F4B93F82430DBB203F00303012B0AD00B4B93F82730DBB283F07F03DB43DAB2074B83F82720054B012283F82520E9
:40170000BD465DF8047B70470B600040FC5F0040A882FF1F80B400AFBD465DF8047B704780B500AFFFF7DEF980BD00BF80B500AF00F0F2FF80BD00BF80B586B000AF002371
:40174000FB759D4B1B78FB7100233B619B4B00221A80FB795BB2002B80F20481964B5B78DBB20A2B00F2FC8001A252F823F000BFB91800006119000061190000611900002C
:4017800061190000611900009D170000611900002B1900006119000041190000864BDB78DBB2012B0ED100F017FEB860BB685B68824A5360814B12221A80FFF793FD034648
:4017C000FB7578E07C4BDB78DBB2022B24D17A4B9B78DBB2184600F0D5FDB860BB68002B69D0BB685B68754A5360744B5B6803331B78DBB29BB21B029AB2704B5B6802339B
:401800001B78DBB29BB213439AB26C4B1A80FFF769FD0346FB75A4E0674BDB78DBB2032B44D10023FB73664B3B6109E03B691B78BB71BB793A6913443B61FB7B0133FB73CE
:401840005D4B9B78DBB2FA7B9A4204D23B691B78DBB2002BEAD1584B9B78DBB2EE2B01D1584B3B61544B9B78DBB2002B0BD0524B9B78DAB2544B1B7C9A4204D1534800F0EF
:40188000A1F9524B3B613B691B78DBB2002B12D03B691B78DBB29AB2484B1A80474A3B695360FFF71FFD0346FB755AE001F03EFA0346FB7555E054E0FB7903F00303002B77
:4018C0001FD0022B00D02FE03C4B02221A803A4B1B79DBB203F07F023D4913465B0013449B000B449B78DAB23A4B1A70394B00225A70324B374A5A60FFF7F4FC0346FB759E
:4019000012E02E4B02221A80334B1B78DAB2314B1A70304B00225A70284B2E4A5A60FFF7E1FC0346FB7500BF1BE0244B01221A80224B2A4A5A60FFF7D5FC0346FB7510E052
:401940001E4B01221A801C4B1B79DBB21A46244B13441A4A5360FFF7C5FC0346FB7500E000BF19E1144B5B78DBB2013B0A2B00F2128101A252F823F0831A0000971B00006F
:401980000D1B0000971B0000A5190000971B0000971B0000971B0000E9190000971B00003F1A0000044B9B78DAB20E4B1A70FFF7B5FD0346FB75EFE0006000408C82FF1F9F
:4019C000182F000020300000C02E00001C83FF1FA882FF1F7C81FF1FA582FF1FA382FF1F1483FF1FA282FF1F6E4B9B787B717B79002B06D07B79013BDBB2184600F0C2FC4D
:401A0000B8607B79002B02D0BB68002B02D17B79002B13D1644B1B78DBB27A799A4208D0614A7B791370614B01221A70012000F0C1F9FFF773FD0346FB75ADE0ACE000F095
:401A400009FE0346002B1BD0564B1B793B71554B1B79DAB2564B1A703B79564AD35CDAB23B795549CB5CDBB29A4204D04F4B01221A7000F069FBFFF751FD0346FB758BE06C
:401A80008AE0FB7903F00303012B22D0012B0DD3022B00D039E0434B9B78DBB2002B04D100F040FD0346FB752FE02EE03D4B9B78DBB2012B0CD1414B1B78DBB223F00203E9
:401AC000DAB23E4B1A70FFF729FD0346FB751CE01BE0344B1B79DBB2012B15D8314B9B78DBB2DB43DBB22F4A1279D2B211461046334A125CD2B21340DAB2314B5A54FFF758
:401B00000DFD0346FB75FFE700BF45E0FB7903F00303012B22D0012B0DD3022B00D039E0204B9B78DBB2002B04D100F08DFC0346FB752FE02EE01B4B9B78DBB2012B0CD102
:401B40001E4B1B78DBB243F00203DAB21B4B1A70FFF7E4FC0346FB751CE01BE0114B1B79DBB2012B15D80F4B9B78DBB2DB43DBB20C4A1279D2B211461046114A125CD2B208
:401B80001340DAB20E4B5A54FFF7C8FC0346FB75FFE700BF00E000BFFB7D18461837BD4680BD00BF00600040A382FF1FA082FF1F9882FF1F8882FF1F1483FF1FA582FF1FE7
:401BC0001883FF1FB0B58AB000AF7860314B07F114041D460FCD0FC42B682370002387F826307B68002B52D07B6822221A707B68013303221A7007F10C03184600F064FEEC
:401C0000022387F827303EE097F827307A68134497F8262007F128010A4412F81C2C1209D2B207F128010A4412F8142C1A7097F8273001337A68134400221A7097F827300F
:401C400002337A68134497F8262007F128010A4412F81C2C02F00F0207F128010A4412F8142C1A7097F8273003337A68134400221A7097F82630013387F8263097F8273045
:401C8000043387F8273097F82730212BBCD92837BD46B0BDAC2E000090B482B000AF0123FB7174E03F4AFB791B0113440C221A70FA793D4913465B0013449B000B445B79B4
:401CC000DBB2002B1AD0FA79374913465B0013449B000B441B79DBB2DBB25BB2002B06DA324AFB791B0113440C229A700CE02F4AFB791B01134408229A7005E02B4AFB79AB
:401D00001B01134480229A702648F979FA79264C13465B0013449B002344DB889BB2DAB20B0103449A711F48F979FA791E4C13465B0013449B002344DB889BB21B0A9BB233
:401D4000DAB20B010344DA711648F979FA79164C13465B0013449B002344DB889BB2DAB20B0103441A710F48F979FA790E4C13465B0013449B002344DB889BB21B0A9BB2A8
:401D8000DAB20B0103445A71FB790133FB71FB79082B87D9064BFF221A700837BD4690BC704700BF70600040A882FF1FFC5F00400A60004080B58AB000AF0346FB710023CB
:401DC0007B84002387F827304CE097F82720C44913465B0013449B000B4400221A7097F82720BF4913465B0013449B000B4400229A7097F82720BA4913465B0013449B00BD
:401E00000B440022DA7097F82720B54913465B0013449B000B44083300221A8097F82720AF4913465B0013449B000B44083300229A7097F82720AA4913465B0013449B008E
:401E40000B4400225A7097F82720A54913465B0013449B000B4400225A7197F82730013387F8273097F82730082BAED9FB79002B16D0002387F825300EE097F82530994AC0
:401E80000021D15497F82530974A0021D15497F82530013387F8253097F82530012BECD9924B1B78DBB2002B00F049810023FB768E4B1B78DBB2013BDBB2184600F062FA2E
:401EC00078617B695B683B613B6907331B7803F04003002B08D0864B1B78DBB243F00103DAB2834B1A7007E0814B1B78DBB223F00103DAB27E4B1A707B6908337B617B6968
:401F00001B7887F82730012387F82530B3E07B695B68FB61002387F82630A0E097F82520FB699B7803F07F039A4240F0908097F825206B4913465B0013449B000B4408339E
:401F40001B889AB2FB699B889A420CD297F82520FB699888624913465B0013449B000B44083302461A80FB691B781A465D4B9B5CDAB2FB695B789A4269D197F82520FB6915
:401F80009878574913465B0013449B000B4402461A7197F82520FB69D878514913465B0013449B000B4402461A70FB69DB7803F00303FB73FB699B78DBB25BB2002B1ADA72
:401FC00097F82520FB7B012B01D1072000E00D20434913465B0013449B000B4402465A7197F825203E4913465B0013449B000B4401225A7019E097F82520FB7B012B01D153
:40200000052000E00920364913465B0013449B000B4402465A7197F82520314913465B0013449B000B4400225A70FB699B790A2B03D0FB699B79022B09D197F82520FB7E70
:40204000F86911461A46FEF789FF0346FB76FB690833FB6197F82630013387F8263097F8262097F827309A42FFF458AF97F82530013387F8253097F82530082B7FF647AF29
:402080007B695B68FB61002387F8253016E0FB699B7803F07F02FB691878114913465B0013449B000B44083302469A70FB690833FB6197F82530013387F8253097F82520BA
:4020C00097F827309A42E2D300F098F90246094B1A6000237B84012387F8273029E000BFA882FF1F1483FF1F8882FF1FA382FF1FA582FF1F9C82FF1F97F82720114913467C
:402100005B0013449B000B447A8CDA8097F827200C4913465B0013449B000B4408331B889AB27B8C13447B8497F82730013387F8273097F82730082BDED9FFF7ADFD28373D
:40214000BD4680BDA882FF1F90B585B000AF874B1B78DBB2002B00F00681844B1B78DBB2013BDBB2184600F00DF978607B6808337B607B681B78FB707B685B68BB607C4BD4
:402180001B78BB700023FB73E8E0BB681B78BA789A4240F0DD80BB78764AD35CDAB2BB685B789A4240F0D480BB689B7803F07F037B70BB68DB7803F003033B707A786E495A
:4021C00013465B0013449B000B440022DA707A78BB689878684913465B0013449B000B4402461A717A78BB68D878634913465B0013449B000B4402461A707A78BB689888D3
:402200005D4913465B0013449B000B44083302461A80BB689B78DBB25BB2002B18DA7A783B78012B01D1072000E00D20524913465B0013449B000B4402465A717A784E49F6
:4022400013465B0013449B000B4401225A7017E07A783B78012B01D1052000E00920464913465B0013449B000B4402465A717A78414913465B0013449B000B4400225A70C0
:402280003E4A7B781B01134401229A703B4879787A78394C13465B0013449B00234408331B889BB21B0A9BB2DAB20B0103441A70324879787A78304C13465B0013449B0086
:4022C000234408331B889BB2DAB20B0103445A702B4879787A78284C13465B0013449B002344DB889BB2DAB20B0103449A71244879787A78204C13465B0013449B0023446A
:40230000DB889BB21B0A9BB2DAB20B010344DA711B4879787A78184C13465B0013449B002344DB889BB2DAB20B0103441A71144879787A78104C13465B0013449B002344D8
:40234000DB889BB21B0A9BB2DAB20B0103445A71BB680833BB60FB7B0133FB73FA7BFB789A42FFF412AF1437BD4690BDA382FF1F9882FF1F1483FF1FA882FF1FFC5F0040DA
:402380007060004080B485B000AF0346FB71104B1B78DBB20F4ADB0013445B68FB60FB681033FB60FB681B78FA799A4202D30023FB6005E0FB79DB00FA6813445B68FB6078
:4023C000FB6818461437BD465DF8047B704700BF8182FF1F1830000080B400AF054B1B78DBB2054ADB0013445B681846BD465DF8047B70478182FF1F1830000080B584B0C6
:4024000000AF104B1B78DBB2013BDBB21846FFF7B9FFB860BB68002B0DD0BB685B681B79FB71FB790233DB00BA681344BB60BB685B68FB6001E00023FB60FB6818461037B4
:40244000BD4680BDA382FF1F80B582B000AF0023FB71314B1B79DBB203F07F03BB71BB79002B53D0BB79082B50D8BA79B9792B480B465B000B449B0003449B78DBB243F05D
:402480000103D8B2254913465B0013449B000B4402469A70BA79214913465B0013449B000B440022DA70BA79B9791C480B465B000B449B0003445B78DBB243F00203D8B213
:4024C000164913465B0013449B000B4402465A70BA79124913465B0013449B000B441B79DBB2DBB25BB2002B06DA0D4ABB791B0113448D229A7005E0094ABB791B01134497
:4025000089229A70FFF70AF80346FB71FB7918460837BD4680BD00BF00600040A882FF1FFC5F004080B582B000AF0023FB71464B1B79DBB203F07F03BB71BB79002B7DD002
:40254000BB79082B7AD8BA79B97940480B465B000B449B0003449B78DBB223F00103D8B23A4913465B0013449B000B4402469A70BA79364913465B0013449B000B44002204
:40258000DA70334ABB791B0113447F221A70BA79B9792E480B465B000B449B0003445B78DBB223F00203D8B2284913465B0013449B000B4402465A70BA79244913465B00FC
:4025C00013449B000B441B79DBB2DBB25BB2002B18DABA791D4913465B0013449B000B445B78DBB2012B06D1194ABB791B0113440C229A701EE0164ABB791B0113440D225B
:402600009A7017E0BA79114913465B0013449B000B445B78DBB2012B06D10D4ABB791B01134408229A7005E0094ABB791B01134409229A70FEF772FF0346FB71FB79184681
:402640000837BD4680BD00BF00600040A882FF1FFC5F004080B584B000AF0023FB73154B1B79BB73144B1B78DBB2013BDBB21846FFF788FEB860BB685B681B79FB71BA7B79
:40268000FB799A4202D9BB7B022B0ED8BB7BBA7B0A498A5CD1B20A4AD154BB7B054A9278D1B2064AD1540123FB73FB7B18461037BD4680BD00600040A382FF1F1483FF1FFA
:4026C0008882FF1F80B582B000AF0023FB710F4B1B78DBB2DBB25BB2002B12DA0B4B5B78DBB2012B00D00CE0094B0A4A5A60094B1B789AB2064B1A80FEF7F4FD0346FB7129
:4027000000BFFB7918460837BD4680BD006000408C82FF1F3430000080B400AF054B1B78DBB203F040039B09DBB21846BD465DF8047B70478F4500400230800803D000BF53
:4027400001380046FCD17047EFF3108072B6704780F31088704700BF80B483B000AF134B7F221A70124B80221A707F23FB710CE0FB79DB0003F1804303F5F043FA79013A83
:40278000D2B21A70FB79013BFB71FB79002BEFD1FB79DB0003F1804303F5F04300221A700C37BD465DF8047B704700BF2981FF1F2881FF1F80B483B000AF0346FB7101BE0A
:4027C0000C37BD465DF8047B704700BF80B582B000AF786008E00C4B1B681846FFF7ACFF7B68A3F500437B607B68B3F5004FF2D8064B1B687A6802FB03F31846FFF79CFFC5
:402800000837BD4680BD00BF3C81FF1F3481FF1F80B582B000AF0346FB80FB88044A127802FB03F31846FFF787FF0837BD4680BD3881FF1F80B584B000AF03463960FB71EE
:402840000F4B1B68FB60FB791F2B02D90020FFF7B1FFFB7903F01F0310339B00FA6813441B68BB60FB7903F01F0310339B00FA6813443A681A60BB6818461037BD4680BDBF
:4028800008ED00E080B582B000AF03460A46FB711346BB71BB79072B02D90020FFF78AFFFB791F2B02D90020FFF784FFFB7903F01F0303F1604303F56443BA795201D2B2C8
:4028C0001A700837BD4680BD80B483B000AF7860264B1B78DBB21A467B681A60244B1B78DBB21B027A6812681A437B681A60214B1B78DBB21B047A6812681A437B681A6010
:402900001D4B1B78DBB21B067A6812681A437B681A607B680433194A1278D2B21A60184B1B78DBB21A027B6804337968043109680A431A60134B1B78DBB21A047B68043316
:402940007968043109680A431A600F4B1B78DBB21A067B6804337968043109680A431A600C37BD465DF8047B704700BF0301004904010049EC4600400201004901010049D3
:4029800000010049050100490601004980B500AF054B1B78002B04D100F008F8024B01221A7000F061F880BD8081FF1F80B582B000AF284A274B1B78DBB243F00203DBB2F9
:4029C0001370254B1B78DBB223F07003FB71224AFB7943F01003DBB21370204A1F4B1B78DBB223F03003DBB213701C4A1B4B1B78DBB243F03003DBB21370184A174B1B7899
:402A0000DBB223F00F03DBB21370144A134B1B78DBB243F00F03DBB21370642000F048F8322000F055F8002000F062F80C4A0C4B1B78DBB243F00103DBB21370094A094B3B
:402A40001B78DBB243F00103DBB213700837BD4680BD00BF004F0040024F00400B4F0040A3430040014F004080B400AF0D4A0D4B1B78DBB243F00103DBB213700A4A0A4B9F
:402A80001B78DBB243F00103DBB21370074A074B1B78DBB243F00103DBB21370BD465DF8047B7047A3430040B3430040004F004080B483B000AF0346FB71044BFA7992B25B
:402AC0001A800C37BD465DF8047B7047044F004080B483B000AF0346FB71044BFA7992B21A800C37BD465DF8047B7047064F004080B483B000AF0346FB71044AFB791370F7
:402B00000C37BD465DF8047B704700BF034F004080B485B000AF0346FB710B4B1B78DBB223F01003FB730849FB791B01DBB203F01003DAB2FB7B1343DBB20B701437BD467A
:402B40005DF8047B704700BF3051004080B485B000AF0346FB710B4B1B78DBB223F00803FB730849FB79DB00DBB203F00803DAB2FB7B1343DBB20B701437BD465DF8047BCE
:402B8000704700BFC051004080B500AF054B1B78002B04D100F008F8024B01221A7000F061F880BD8181FF1F80B582B000AF284A274B1B78DBB243F00203DBB21370254B25
:402BC0001B78DBB223F07003FB71224AFB7943F01003DBB21370204A1F4B1B78DBB223F03003DBB213701C4A1B4B1B78DBB243F03003DBB21370184A174B1B78DBB223F0EA
:402C00000F03DBB21370144A134B1B78DBB243F00F03DBB21370642000F048F8322000F055F8002000F062F80C4A0C4B1B78DBB243F00203DBB21370094A094B1B78DBB2B8
:402C400043F00103DBB213700837BD4680BD00BF0C4F00400E4F0040174F0040A34300400D4F004080B400AF0D4A0D4B1B78DBB243F00203DBB213700A4A0A4B1B78DBB26C
:402C800043F00203DBB21370074A074B1B78DBB243F00103DBB21370BD465DF8047B7047A3430040B34300400C4F004080B483B000AF0346FB71044BFA7992B21A800C378F
:402CC000BD465DF8047B7047104F004080B483B000AF0346FB71044BFA7992B21A800C37BD465DF8047B7047124F004080B483B000AF0346FB71044AFB7913700C37BD4674
:402D00005DF8047B704700BF0F4F004080B483B000AF0346FB71044AFB7913700C37BD465DF8047B704700BF7865004080B582B000AF1A4B1B78DBB203F00303012B02D05C
:402D4000022B04D012E0154B1B79BB7111E0134B1B79DBB203F07F02114913465B0013449B000B4408339B78BB7102E00023BB7100BF0C4B1A68BB7913441B78022B04D1AA
:402D8000FDF7ACFF0346FB7102E00023FB7100BFFB7918460837BD4680BD00BF00600040A882FF1F9C82FF1F0E4B70B51E460E4C0025E41AA410A54204D056F8253098470B
:402DC0000135F8E700F04AF9084B094C1E46E41AA4100025A54204D056F8253098470135F8E770BD6830000068300000683000007030000010B5431E0A44914204D011F89D
:402E0000014B03F8014FF8E710BD03460244934202D003F8011BFAE77047034613F8012B002AFBD1181A013870470000000000007175616420636F756E7420312069733A57
:402E40002025640A0D0000007175616420636F756E7420322069733A2025640A0D00000025640A0D00000000537461727465640A00000000004F0040240040510040300021
:402E800000000140001000140140000800400140000A004C01400002105001401000000000500140BC0F004810000000303132333435363738394142434445460000000043
:402EC0001201000202000008B40432F2010001028001000009024300020101C032090400000102020103052400100104240202052406000105240100010705810308000A95
:402F000009040100020A000004070582024000000705030240000000040309042C0343007900700072006500730073002000530065006D00690063006F006E00640075005F
:402F4000630074006F007200100355005300420055004100520054003803430044004300200043006F006D006D0075006E00690063006100740069006F006E00200049007C
:402F80006E007400650072006600610063006500260343004400430020004400610074006100200049006E0074006500720066006100630065000000020300000000810302
:402FC000080002000100820240000A000100030240000A00020A000001000000D42E000003000000BC2F00000000000000000000000000000000000000000000D42F0000A8
:4030000001000000C02E0000000000000000000001000000D82F0000010000000030000012034D005300460054003100300030000100000028000000000104000100000059
:4030400000000000000143595553420000003030303031000000000000000000F8B500BFF8BC08BC9E4670474D000000C9020000F8B500BFF8BC08BC9E4670472900000099
:40308000903000000881FF1F38000000000200000000000000C2010000000800C201000000080000A12000000000020000000000807F0000030000000087930360EA0000AD
:4030C0003C000000000030750000000000000000000000000000000000000000000000000000000000000000000000000000000000000000000000000000000000000000EF
:40310000000000000000000000000000000000000000000000000000000000000000000000000000000000000000000000000000000000000000000000000000000000008F
:40314000000000000000000000000000000000000000000000000000000000000000000000000000000000000000000000000000000000000000000000000000000000004F
:40318000000000000000000000000000000000000000000000000000000000000000000000000000000000000000000000000000000000000000000000000000000000000F
:4031C00000000000000000000000000000000000000000000000000000000000000000000000000000000000000000000000000000000000000000000000000000000000CF
:020000040003F7
:0200000480007A
:4000000001450040064F004009520040015B0040056400400465004041000140310101404E02014041030140440401403D050140670601404E070140500801404D09014091
:400040003B0A01404E0B0140330C01404A0D0140270E0140350F01405E1401404A150140441601404D1701404C18014057190140471A01404E1B01400F40014019410140ED
:4000800010420140124301400944014010450140094601400E4701401648014011490140194C0140024D014005500140045101407E0201200A360D20161B1940223600C081
:4000C000016008A409C418081928601061047C402F84830F846F87388A0D8C72856F860F87078B0F01CC0302070F09AB0B040F10156719CC1B0129082B01310F33E03710B9
:4001000039085608580459045B045C015D905F0180048208831084018508870189078A018C048E088F40910C92109301950C9610970298099A049E029F20A001A401A70FC6
:40014000A810A90BAB04AC04AE08B003B110B210B340B40CB50FB720BA20BE04D280D804D904DB04DF0100A001080630074A080409010C080E4A0F80112013401410150214
:40018000160217141D141E481F102101220A2311275629142A042E202F10301032083602374439023A503B043E423F155840624076808810C0F7C2FCC4F3CA64CCD6CEFFA9
:4001C000D608D808E008E62000FE0201053007C909731201130F147F15941760180E1AF01DFD1F0220C5223A24A3265C289629CF2A682B302D9E2F6033FF36FF3E403F04CF
:40020000580459045F01810A82028305850C8620870389078A108D108E418F20910F94109540984199259B1A9C1C9F40A004A208A404A503A608A70CA81CA910AB20AC40D9
:40024000AD10AE1DAF20B03CB10FB240B402B530B601B740BB20BE44BF40D40FD804D904DB04DF010240039607800A2A0C100E080F90101412091302152616A0170619A285
:400280001A101E0221102251238C271029262A432EA03295350636043780388039063B103F14580459805A1288088B409102931097449A049B049C409E109F08A101A20C8D
:4002C000A340A450A510A601A909AC08AE80B004C01FC277C47FCA3ECCDFCE6FD60FE209E604E820EE2508050B080D020E0210051208140817031F042801300431013208D3
:400300003304340135083602370238223E143F40540F580459045B045F058010822083018407880B8A048D028F0C910293049410950496609702982099029A1F9B149C0CB4
:400340009E02A00CA201A410A6A0A808AA01B040B108B280B306B430B501B60FB710BA20BB08D608D804D904DB04DD90DF0101A00308049405810A200B800E251208172517
:40038000180819081BA21D011E2520402224230225402606272432803308362638403A103D803F0159285A805B025C805F106124661067017A089280948096089740980A0A
:4003C0009A06A111A208A450A680A782AC42AE10AF80B510C073C2ECC472CCEACE9CD63FD836DE04E240EE0201CF0330059406080760083109FD0AC20B020D9E0F6014F782
:40040000170F19301A071BC91CC01E3420A122522477257328542AA032F033FF340F3B203F044026410149FF4AFF4BFF4DA04F0150185608580459045A045B045C305D90C2
:400440005F016040628064406540668068406A806C406D206E8085028D019104920295089B089E019F04A310A701AF02B001B11FB202B902BF01C062C101C54EC6C3C702ED
:40048000C81FC9FFCAFFCBFFCDAFCE07CF01D018D418D604D804D904DA04DB04DC10DD30DF01E040E280E440E540E680E840EA80EC40ED20EE80012002040608071009100D
:4004C0000B890E291504172118801A201C101E2820802718280429492D042F10309132043604372039213B483C103D803E0D42024320460649244A804C04512053485B0213
:400500005E40608A67017C047F10834084C085108880900892459494962097D0980A9A069B209D049F01A111A320A450A520A680A708A880B640C060C2E9C470CA4FCC6FB2
:40054000CEFFD03CD224D611D81DE002E204EC40EE020104076109020D080F101201130814021561170619671D21210622012361250628022B102D072F603146320233208C
:40058000340135073601371838083B223E44405449FF4AFF4BFF4F01501852035302580A59045A0A5B045C395D195F016040624064406540668068806A806C806E80C05436
:4005C000C5ECC720C823C9FFCAFFCBFFCD83CE03CF01D018D804D904DA0ADC11DD09DF01E040E240E440E540E680E880EA80EC80EE8002010BA00C0A1080121A15121D5043
:400600001F0424112601270428042B042C402D6830A132083308340237543A013BA23C203D803E023F08412143104502480249054C02510358405A406D106F027808794066
:400640007A017E2083028401861089048C018F04924C940395099782980899089A029C079D779E109F45A09AA110A222A309A420A520A601A702C001C23CC45FCAF0CCFF27
:40068000CEFDD081D218DE42E480EE025401580459045B0A5C115D905F01820C843088088C20907C9282964398CF9A309C3C9EC1A004A208A410A8FFAC04B03FB280B47016
:4006C000B808BA02C035C102C206C401C60CC70EC814C9FFCAFFCBFFCC62CDA0CEF0CF41D00CD401D804D904DA04DB0CDC13DD13DF01E640E702E910EA30EB10ED10EE10EC
:40070000EF12010402020401052806020B800C140E421080111012111402160817091C101E482C202D102F493080328233083401368039043A113B823D04441045204608A8
:4007400047444A0C4C014E085508564059455D8078087F028D109104920C9410950996409782980899889A029B089D029E509F04A09AA110A222A309A508A605A702A80849
:40078000AF10B602C0F5C2F8C4FFCAF0CC9BCE4FD070D230D61BDE12E240EA01EE10021006020A0810011608170319011A101C012001240128022E043001320633013410CB
:4007C000350236083E51560257105804590C5B045C195D305F018101840185018B018C018D019001910195019E019F01A001A601A801B401B701D280D804D904DB0BDC114C
:40080000DD90DF01000802020410050406400B820D080E4A1084121014011501172419101C021D041E801F1021802504261827203084320233083504361039043A183B8274
:400840005E806D606E0470027410750876027708780279407B017F0281108580860888058A088D84920895089782980B9D029E18A080A222A308AB09B080B120B341B41029
:40088000C075C2F9C4FECC6BCE0FD610DE11E020E281E402E820EEA0030305030B030C030F03100211031201140315031D011F022203260328032C012E0232013301340267
:4008C00035025608580459045B045C115D905F0193019601B101B201D608D804D904DB04DC11DD90DF01014002020490064009080B800D04110112151501161918201A08AD
:400900001C101D0C1F0820082208248026022F4130803108320235063A5D3B923D413E083F10588059205D80600A622064016D106F0184048580888089118E08C0D1C22C2E
:40094000C4FFCA90CCCBCEFFD61CD81CE482E62002010304070C08010B030E011001140115041D0128012C01310132013308350437023F114023410649FF4AFF4BFF4DA0DA
:400980004F0150185280580459045A045B045C015F016040628064406540668068406A806C406D206E808002810385018C0C98089A049D089E03A103A20CA30CB001B10401
:4009C000B208B301B404B508B602B702B988BE54BF14C032C106C52CC640C73EC83BC9FFCAFFCBFFCDAFCE07CF01D018D40FD804D904DA04DB04DF05E040E280E440E54059
:400A0000E680E840EA80EC40ED20EE8000A001010501070209010A200E080F0211201202170119081C081D011E2221182240234A241427612E02310832403740380A3A1065
:400A40003D083F024010411047284A044B104F16561A5C045D105E025F406608670470017D08850889108B01900891019220A050A115A206A404A610AA40ACA6B101B204E9
:400A8000B340C09BC2CCC413CA80CC1ACEC7D066D224D6F0D860DE40E642E808EC20EE0801D103040601071D08FE09AD0A010B100CC50E3A11D11308147F157C180E1AF00C
:400AC0001CA31E5C23022501270428962A6833E0350336FF371D39083E40540F580459045B045F0180408280840187018A088B048E019204941096209A029C02A004A40890
:400B0000A820AA10AB02AC80AE40B0FFB102B301B504B980BE01BF40D602D731D804D904DB0FDC10DD10DF0100200109021204180701080509910A200D080E051092111448
:400B40001608172019011F802020225623402408254C27012A102E042F803408370139143C103E0958205C885E226302661067046882691471C073047B407C087D087F1094
:400B8000801082018D108E10901092059501960897609B209C159D499F01A040A111A204A341A490A540AF11B140B308B702C0EFC2EFC44FCAC4CCC0CEE6D6F4D808DE016F
:400BC000EE0A0110050F090F0D450F8A1104134115101B201D031FCC22012310271029082B822F1031E035103601370F3F114003470449FF4A074BFF4C404D204EF04F0538
:400C000050085608580459045A045B045C315D935F01604061A86240632083538531874E8A028C068DAC8E098F4390089203953197C699309B409E06A38CA708A808AA05E7
:400C4000AC10AE01B018B3F0B407B70FB802BA20BB88D804D904DC33DF01014002040704084009010D010E121002120814291640180819011E021F40214422082404264037
:400C80002740284029012A042C102D402E0A2F04301032083402350236483720380839C03A023DA23E04421043084508540256065C805F106402652067086D806F03808007
:400CC00084048A048B108C288F059110920C940297A298019C029D209F41A110A309A420A540AF04B123B410C043C2B9C4F3CAF3CCF6CEFBD040D630D830E040E412E60130
:400D0000E880EA10EC80EE0208011001140118011C0124012E013601580459045C115F0180098110821084CC861189138B088D208E4090209203970C98149F03A301A4D0F4
:400D4000A513A60CA704A810AB02AC9CAD01AE02AF02B01FB2C0B30FB420B520B710B808BB08BE14BF10C031C106C50BC60EC70CC815C9FFCAFFCBFFCEF0CF44D00CD40122
:400D8000D604D804D904DA04DB04DC33DD33DF01E6C0EA40EB02030804180501060A08200BA20D020F081021158916A419801C081D0A24022604272828202D022E042F0605
:400DC0003021330836443BA23D203E803F0246224C044F0856885C105D015E405F0867408004824087408D80900C9188920493AA9402982199039A069E089F20A020A1104E
:400E0000A240A30BA404A508AD10AE40B020B101B350B404B501C0B2C25FC4E5CAF2CC57CEBDD050D220D6F0D880E640E8A0EC20EE80130816803120320234013640390413
:400E40003B403E8087088801C430CCF0CE70E0100380062032203302340837805E0863806502820685208702950497409D20A102A520A642B122C030CCF0D680D8C0E2905E
:400E8000E620138053088C08950497409A209C089D229F80A102A660A740AF80C440D420EC101B041F086504874097409D229F40A102A660A748AB40AD04B620C630D88008
:400EC000E640EC80EE407401841088018A048C02DE04E001E402E60400100B802202522081028702900496049810A002B404C002C208C802D404EC0290149380960498106F
:400F00009B02A002A502A620AA020A040B400D0290149380960498109B02A002A404A502A620AC04C20E002007402080292065046F089D269F40A102A304A410A620A740A7
:400F4000AC10AE40C060C840CA10D880DA80E810EE4055026308850286208F409D02A102A304A620A740A904AB08B040D620D840E650EE801C08340154025B025C046020AB
:400F800064108010862088208B409014938098109B02A002A404A620AF40C601CC01D607D803E001E601B001EC04100B11011A031C0A1D0100AB01FF0203100A0B01000000
:400FC0000000000003010B010A010A010300000000E0E000001C1C00140000004000060000000000C00000000000000000F4F4000800140A0A00080000000000007B7B00A0
:401000002800000000010000000000000000000000000000000000000000000000000000000000000000000000000000000000000000000000000000000000000000000087
:401040000000000000000000000000000000000000000000000000000000000000000000000000000000000000000000000000000000000000000000000000000000000070
:401080000000000000000000000000000000000000000000000000000000000000000000000000000000000000000000000000000000000000000000000000000000000030
:4010C00000000000000000000000000000000000000000000000000000000000000000000000000000000000000000000000000000000000000000000000000000000000F0
:4011000000000000000000000000000000000000000000000000000000000000000000000000000000000000000000000000000000000000000000000000000000000000AF
:0200000490006A
:0400000000004005B7
:0200000490105A
:04000000BC90ACAF55
:0200000490303A
:020000000A668E
:0200000490402A
:4000000000000000000000000000000000000000000000000000000000000000000000000000000000000000000000000000000000000000000000000000000000000000C0
:400040000000000000000000000000000000000000000000000000000000000000000000000000000000000000000000000000000000000000000000000000000000000080
:400080000000000000000000000000000000000000000000000000000000000000000000000000000000000000000000000000000000000000000000000000000000000040
:4000C0000000000000000000000000000000000000000000000000000000000000000000000000000000000000000000000000000000000000000000000000000000000000
:0200000490501A
:0C00000000012E16106900012E2D1ACFF1
:00000001FF