:400000000080002011000000E10C0000E10C000080B500AF024A034B1B68136000F08CFEBC760040FA46004010B5054C237833B9044B13B10448AFF300800123237010BDB3
:40004000F081FF1F0000000080580000084B10B51BB108480849AFF300800848036803B910BD074B002BFBD0BDE81040184700BF0000000080580000F481FF1F0881FF1FC1
:400080000000000080B582B000AF0346FB71FB79184603F0A3F90837BD4680BD80B582B000AF0346FB71FB79184603F079F90837BD4680BD80B584B000AF114B1B78002BE2
:4000C0000CBF01230023DBB21A460D4B1A700C4B1B781846FFF7D6FF094B1B781846FFF7DDFF074B1B781A463B461846054904F0BDFF3B46184603F0EFFD1037BD4680BD8E
:400100002082FF1F8458000080B58EB000AFC7E90201C7E90023D7E902014FF000024FF0000304F0F3FE0346002B23D0464B1B78002B0CBF01230023DBB21A4607F124037C
:400140001846424904F092FF07F12403184603F0C3FD3D4B1B78002B0CBF01230023DBB21846FFF79BFFBB68BB60FB6883F00043FB6004E0344B1B781846FFF78FFFD7E9C4
:4001800000014FF000024FF0000304F0BFFE0346002B23D02C4B1B78002B0CBF01230023DBB21A4607F114031846294904F05EFF07F11403184603F08FFD234B1B78002B27
:4001C0000CBF01230023DBB21846FFF75BFF3B683B607B6883F000437B6004E01A4B1B781846FFF74FFFD7E9000115A3D3E9002304F01AFC02460B461046194604F0D6FE0A
:40020000034687F83730D7E902010DA3D3E9002304F00AFC02460B461046194604F0C6FE034687F8363097F836309AB2094B1A8097F837309AB2084B1A803837BD4680BD02
:40024000969526A5A0DBEF3F2082FF1F90580000A05800003482FF1F3682FF1FAFF3008080B500AF002003F07BF8024B00221A8080BD00BF3082FF1F80B500AF002003F03D
:400280006DF9024B00221A8080BD00BF3282FF1F80B500AF4FF000004FF000014FF000024FF00003FFF730FFFFF7DAFFFFF7E4FF80BD00BF80B500AF4FF0000003494FF0A4
:4002C0000002024BFFF720FF80BD00BF0000344080B500AF4FF000004FF000014FF00002014BFFF711FF80BD0000344080B500AF4FF0000003494FF000024FF00003FFF79B
:4003000003FF80BD0000344080B500AF03F090FE084B1A78084B1A70064B01221A70FFF79FFF03F0FBF903461A46044B1A8003F06FFE80BD5181FF1F5081FF1F2E82FF1F8E
:4003400080B500AF03F074FE084B1A78084B1A70064B02221A70FFF78FFF03F059F903461A46044B1A8003F053FE80BD5181FF1F5081FF1F2E82FF1F80B500AFFFF788FF89
:40038000014B00221A7080BD5181FF1F80B400AF034B03221A70BD465DF8047B704700BF5181FF1F80B400AF034B04221A70BD465DF8047B704700BF5181FF1F80B400AFFA
:4003C000034B05221A70BD465DF8047B704700BF5181FF1F80B400AF034B06221A70BD465DF8047B704700BF5181FF1F80B582B000AF03F035FC0346FB71FB79613B192B5E
:4004000066D801A252F823F071040000D1040000D104000095040000D1040000A1040000D1040000D1040000D1040000D1040000D1040000D1040000D1040000D1040000A4
:40044000D1040000D1040000D1040000D104000089040000AD040000B9040000D10400007D040000D1040000D1040000C5040000FFF74AFF184B00221A7029E0FFF77CFF9C
:40048000154B00221A7023E0FFF714FE124B00221A701DE0FFF754FF0F4B00221A7017E0FFF774FF0C4B00221A7011E00A4B01221A70FFF777FF0BE0FFF780FF064B022239
:4004C0001A7005E0044B03221A70FFF76BFF00BF0837BD4680BD00BF3882FF1F80B500AF244B1A88244B1A80244B1A88244B1A8003F08EF803461A461E4B1A8003F00EF923
:4005000003461A461D4B1A801A4B1B889AB21A4B1B889BB2D31A9BB29AB21A4B1A80174B1B889AB2164B1B889BB2D31A9BB29AB2154B1A800F4B1B881BB240F6B832934201
:4005400013DD124B1B78012B0FD0104B1B78022B0BD0002003F06EF8002003F0F1F8054B00221A80054B00221A80094B01221A7080BD00BF2282FF1F2682FF1F2482FF1FC4
:400580002882FF1F2A82FF1F2C82FF1F5181FF1F2182FF1F80B500AF194B1B78012B15D103F0BCF803461A46164B1B881BB2D31A002BB8BF5B42CF2B21DDFFF769FE124B40
:4005C0001A780F4B1A7003F033FD18E00C4B1B78022B14D103F01CF803461A46094B1B881BB2D31A002BB8BF5B42CF2B07DDFFF74FFE054B1A78024B1A7003F019FD80BDAE
:400600005181FF1F2E82FF1F5081FF1F80B500AF034803F061FB034B00221A7080BD00BFB05800005181FF1FB0B588B000AF814B1B78002B00D1FAE07E4B00221A707E4BE2
:400640001B88FB817D4B1B88BB814FF000027C4BC7E906234FF00002794BC7E90423B7F90E30002B0DD1B7F90C30002B09D14FF00002744BC7E906234FF00002714BC7E989
:400680000423714B1B881AB2B7F90E30002BB8BF5B42D31ABB60BB6883EAE372A2EBE372BB6892FBF3F3184604F058F904460D46BB68002BB8BF5B42184604F04FF90246D2
:4006C0000B461046194603F0ADFE02460B462046294604F0A9F902460B461046194604F03DFC03467B60594B1B881BB2184604F035F904460D46786804F030F902460B46EC
:4007000010461946D7E9062304F08EF902460B462046294603F0D6FF02460B461046194604F01CFC03469AB2484B1A80484B1B881AB2B7F90C30002BB8BF5B42D31ABB6019
:40074000BB6883EAE372A2EBE372BB6892FBF3F3184604F003F904460D46BB68002BB8BF5B42184604F0FAF802460B461046194603F058FE02460B462046294604F054F945
:4007800002460B461046194604F0E8FB03467B60304B1B881BB2184604F0E0F804460D46786804F0DBF802460B4610461946D7E9042304F039F902460B462046294603F0DB
:4007C00081FF02460B461046194604F0C7FB03469AB2204B1A801F4B1B881BB2002B02DA1C4B00221A80194B1B881BB2002B02DA164B00221A80174B1B881BB2642B02DD9F
:40080000144B64221A80114B1B881BB2642B02DD0E4B64221A800D4B1B88DBB2184602F09FFD0C4B1B88DBB2184602F097FE2037BD46B0BD2182FF1F2A82FF1F2C82FF1F88
:400840000000F03F000020403482FF1F3082FF1F3682FF1F3282FF1F80B582B000AF03F07FFD0346FB7103F087FD0346BB7103F06BFD03467B71FB79002B0ED0BB79002B0B
:400880000BD17B79002B08D14FF0000029494FF00002294BFFF738FC48E0FB79002B0FD07B79002B0CD0BB79002B09D14FF000004FF000014FF000021F4BFFF725FC35E0A4
:4008C000BB79002B0FD07B79002B0CD0FB79002B09D14FF0000018494FF000024FF00003FFF712FC22E0BB79002B0ED07B79002B0BD1FB79002B08D14FF000000E494FF098
:4009000000020C4BFFF700FC10E07B79002B0DD0BB79002B0AD1FB79002B07D14FF0000006494FF00002054BFFF7EEFB0837BD4680BD00BF000024C000002E4000002440DD
:4009400080B582B000AF03F00BFD0346FB7103F013FD0346BB7103F0F7FC03467B71FB79002B0ED0BB79002B0BD17B79002B08D14FF0000029494FF00002294BFFF7C4FB53
:4009800048E0FB79002B0FD07B79002B0CD0BB79002B09D14FF000004FF000014FF000021F4BFFF7B1FB35E0BB79002B0FD07B79002B0CD0FB79002B09D14FF0000018492A
:4009C0004FF000024FF00003FFF79EFB22E0BB79002B0ED07B79002B0BD1FB79002B08D14FF000000E494FF000020C4BFFF78CFB10E07B79002B0DD0BB79002B0AD1FB79EE
:400A0000002B07D14FF0000006494FF00002054BFFF77AFB0837BD4680BD00BF00002EC000002E400000244080B582B000AF03F097FC0346FB7103F07BFC0346BB7103F008
:400A40009BFC03467B7103F0A3FC03463B7103F07BFC0346FB70BB79002B06D0FB78002B03D03B79002B00D078E0BB79002B0BD0FB78002B08D04FF000003A494FF00002A5
:400A8000384BFFF741FB69E03B79002B0BD0FB78002B08D04FF0000032494FF00002314BFFF732FB5AE0FB79002B0ED07B79002B0BD1FB78002B08D14FF000002A494FF054
:400AC0000002284BFFF720FB48E0FB79002B0FD0FB78002B0CD07B79002B09D14FF000004FF000014FF000021E4BFFF70DFB35E07B79002B0FD0FB78002B0CD0FB79002B04
:400B000009D14FF0000017494FF000024FF00003FFF7FAFA22E07B79002B0ED0FB78002B0BD1FB79002B08D14FF000000D494FF000020D4BFFF7E8FA10E0FB78002B0DD06D
:400B40007B79002B0AD1FB79002B07D14FF0000006494FF00002054BFFF7D6FA0837BD4680BD00BF00002E40000024C00000244090B583B000AF786003F0DAFB03461A46BB
:400B80007B681A707B685C1C03F0EAFB034623707B689C1C03F0D8FB034623707B68DC1C03F0EAFB034623707B681C1D03F0F0FB034623700C37BD4690BD00BF80B582B05E
:400BC00000AF62B602F02AFB02F026FC02F00AFD02F08EFD3C4803F0AFF83C4803F08EFA03F02EF93A4803F091F90020012100F07FFB00F01DFD0346002B01D000F0F2FD7D
:400C00004FF44370012103F0C7FA324802F07EFF02F0CAFF012003F07FF8FFF705FD3B461846FFF7A5FF2C4B1B78032B20D801A252F823F0710C0000710C0000710C0000A1
:400C4000450C00003B78012B05D1BB78012B02D1FFF75AFB0BE03B79012B05D1BB78012B02D1FFF76DFB02E0FFF7B4FBFFE700BF1A4B1B78062BD0D801A252F823F000BF04
:400C80009D0C0000A30C0000A90C0000AF0C0000B50C0000BB0C0000C10C0000FFF70AFB10E0FFF715FB0DE0FFF720FB0AE0FFF7EFFA07E0FFF7D0FD04E0FFF7B5FE01E047
:400CC000FFF73EFEA9E700BFDD040000950500000D060000ED0300003882FF1F5181FF1F80B400AFFEE700BF80B584B000AF78600F4B1A687B6813441A460E4BD31A802B4F
:400D000009DC0B4B1B68FB60094B1A687B681344074A136007E004F069F902460C2313604FF0FF33FB60FB6818461037BD4680BD5481FF1F3083FF1F80B586B000AF224B40
:400D40007B61224B3B61204B7B6135E03B691B68FB603B695B68BB603B699B683B6000237B600CE0FB681A68BB681A60BB680433BB60FB680433FB607B6804337B607A683F
:400D80003B689A42EED13B69DB683B6000237B6008E0BB6800221A60BB680433BB607B6804337B607A683B689A42F2D13B6910333B617B69013B7B617B69002BC6D104F027
:400DC0001BF9FFF7FBFEFEE7010000005C5B000080B582B000AF174B174A1A60174A174B1B6843F40073136000237B600FE07B68032B04D8124A7B6852F8233000E0114BAB
:400E000011497A6841F822307B6801337B607B682F2BECD90D4B1B78DAB20D4B1A700D4B094A1A6000F090F90B4B00221A600837BD4680BD0CED00E00004FA0514ED00E0D2
:400E400000000000E10C00000080FF1FBC7600400481FF1F08ED00E00081FF1F80B582B000AF78603960786800213A6804F0F5F80837BD4680BD00BF80B584B000AFF860A5
:400E8000B9607A60F868B9687A6804F0DBF81037BD4680BD80B483B000AF0346FB71FEE780B487B000AF7860396000233B6100237B6127E07B699B007A6813441B68BB6038
:400EC000BB68FB73BB6823F0FF03BB6014E03B695B003A6813441B781A46BB68134419463B695B003A6813445B780B703B6901333B61FB7B013BFB73FB7B002BE7D17B693F
:400F000001337B617B69292BD4D91C37BD465DF8047B704780B582B000AF424B0F221A80414B1B221A70414B81221A80404B18221A70404B04221A803F4B18221A703F4BDF
:400F40003B221A803E4B18221A703E4B3B221A803D4B18221A703D4B00221A803C4B1B221A703C4B40F2E7321A803B4B1B221A703A4B06221A703A4B52221A70394B3A4A54
:400F80001278D2B21A70394B40F619121A80384B41F251221A800023FB7019237B6014E0FB785B00DAB2334B1B78DBB203F00103DBB21343DBB203F00303FB704FF4F07058
:400FC00002F052F87B68013B7B607B68002B02D0FB78032BE4D17B68002B02D10320FFF759FF254B4FF480721A80234B07221A70224B00221A70224B48221A701E4B0022CE
:401000001A70204B00221A701F4B02221A701F4A1E4B1B78DBB243F07F03DBB213700837BD4680BD80400040824000408440004086400040884000408A4000408C40004097
:401040008E40004090400040924000409440004096400040984000409A4000400043004000420040A14600400F010049224200402042004025420040044000400640004068
:40108000084000400940004001400040A243004080B582B000AF204B1B78FB711F4B1B78BB711F4B1B787B711E4AFB7903F00703DBB213701C4AFB791B09DBB21370174A8F
:4010C000BB7943F00303DBB21370154A7B7943F00303DBB21370154B08221A70144B40221A70144B40221A70134B80221A70134B20221A70124B80221A700A2001F0D0FF06
:40110000074A7B791370054ABB7913700D4B44221A700837BD4680BDCF010049F8460040F94600406E5800406F5800400D510040095900400B590040285B00402B5B00408A
:40114000585B00407658004080B586B000AF72B64F4B61221A70FFF7DDFE4D4B01221A700023FB7513E0FA7D13465B0013445B00484A13443B613B691A683B699B889BB24D
:4011800010461946FFF76AFEFB7D0133FB75FB7D062BE8D90023FB751CE0FA7D13469B0013445B003C4A1344FB60FB681B68BB60FB685B687B60FB681A7A5B7A1B02134371
:4011C0007B807B88B86879681A46FFF755FEFB7D0133FB75FB7D002BDFD04FF090402F49FFF75EFE2E4A2E4B1B78DBB243F00203DBB213702B4A2B4B1B78DBB243F0020364
:40120000DBB21370284A284B1B78DBB243F04003DBB21370254A254B1B78DBB243F01003DBB21370224823490822FFF725FE224822490A22FFF720FE214822490A22FFF79A
:401240001BFE214821490822FFF716FE204821490822FFF711FE204820490822FFF70CFE1F4BC4221A701F4B44221A701E4A1E4B1B78DBB243F00803DBB21370FFF708FFE2
:401280001A4809490E22FFF7F7FD1837BD4680BD00480040105900003C590000A80000480350014013500140A0430040C243004002510040EC0E0048C0510040F40E00484B
:4012C000F0510040000F0048125100400C0F004822510040140F0048325100401C0F0048DB040140DB0A014022430040B043004080B582B000AF03460A46FB711346BB71FE
:40130000084B1B78002B04D100F00EF8054B01221A70FA79BB791046194600F0D5F80837BD4680BD3A82FF1F80B582B000AF01F0A3FE0346FB71534A524B1B78DBB243F078
:401340000103DBB21370504A4F4B1B78DBB243F00103DBB213704D4B01221A704C4B02221A704C4A4B4B1B78DBB203F07F03DBB21370002001F094FE474A474B1B78DBB27D
:4013800023F00603DBB21370444A444B1B78DBB223F02003DBB213703F4A3F4B1B78DBB243F00103DBB21370012001F079FE282001F076FE3A4A3A4B1B78DBB203F07F0330
:4013C000DBB21370364A364B1B78DBB223F04003DBB21370304A304B1B78DBB243F00203DBB21370022001F05BFE2B4A2A4B1B78DBB243F00403DBB213702A4B00221A7018
:40140000294B00221A70FB79184601F039FE1720072101F07FFE1720244901F053FE1820072101F077FE1820214901F04BFE1520072101F06FFE15201E4901F043FE012093
:40144000072101F067FE01201B4901F03BFE0220072101F05FFE0220184901F033FE0320072101F057FE0320154901F02BFE0C20072101F04FFE0C20124901F023FE08376C
:40148000BD4680BDA5430040B54300409D60004009600040106000409443004012600040F85100408460004085600040512000002119000045200000411F0000951F000037
:4014C000E91F00005D20000080B582B000AF03460A46FB711346BB712E4AFB7913702E4B00221A702D4B00221A702D4B00221A702C4B00221A702C4B00221A702B4B00220D
:401500001A702B4B00221A702A4B4FF400021A60284B4FF080721A60264B4FF400121A60244B02221A60234B04221A60214B08221A60BB79002B02D0012B09D011E01E4AB3
:401540001D4B1B78DBB223F00103DBB2137011E0194A194B1B78DBB243F00103DBB2137008E0154A144B1B78DBB243F00103DBB2137000BF114B03221A70114B80221A703E
:40158000012001F071FD0F4B04221A700837BD4680BD00BF6D82FF1F7082FF1F8C82FF1F8F82FF1F8482FF1F8E82FF1F9182FF1F6C82FF1F00E100E009600040286000402A
:4015C000086000401260004080B400AF0F4B00221A700F4B00221A700E4B00221A700E4B00221A700D4B00221A700D4B00221A700C4B00221A700C4B03221A700B4B80228F
:401600001A70BD465DF8047B704700BF7082FF1F8C82FF1F8F82FF1F8482FF1F8E82FF1F9182FF1F6C82FF1F286000400860004080B400AF034B1B78DBB21846BD465DF862
:40164000047B70478F82FF1F90B482B000AF0346FB71FB79002B19D0FB79082B16D8FA790C4913465B0013449B000B4400225A700948F979FA79074C13465B0013449B0036
:4016800023445B79DAB20B0103449A700837BD4690BC70479482FF1FFC5F004080B582B000AF0023FB71324B1B79DBB2184600F069F80346BB712E4B1B78DBB2DBB25BB258
:4016C000002B16DA2A4B5B78DBB2212B00D00FE0284B07221A80BA791346DB009B1A264A1344244A536000F095FA0346FB7100BF38E01F4B5B78DBB2202B02D0222B1AD08C
:4017000030E01C4B07221A80BA791346DB009B1A194A1344174A5360BB79BA7917498A5CD2B242F00102D1B2144AD15400F0F2FA0346FB7116E0BB790D4A9278D2B291B236
:401740000F4A22F81310BB79BA790C498A5CD2B242F00202D1B2094AD15400F077FB0346FB7100BFFB7918460837BD4680BD00BF006000407882FF1F5881FF1F5482FF1FF3
:401780006882FF1F80B485B000AF0346FB710023FB73FF23BB7317E0FB7B104AD35C7B737A7B0F4913465B0013449B000B4408339B78DBB2FA799A4203D1FB7BBB73022386
:4017C000FB73FB7B0133FB73FB7B012BE4D9BB7B18461437BD465DF8047B70475C82FF1F9482FF1F80B582B000AF0023BB71224B00221A70214B00221A70204B00225A707A
:401800000023FB7110E0FB791D4AD35C7B717B79002B06D07B79082B03D87B791846FFF713FFFB790133FB71FB79012BEBD9154B1B78DBB2002B18D0114B1B78DBB2002B30
:4018400013D0114B1B78DBB2002B0ED00D4B1B78DBB2082B09D80A4B1B78DBB2082B04D8094B1B78DBB2082B01D90123BB71BB7918460837BD4680BD3B82FF1F5482FF1F3F
:401880006082FF1F5882FF1F5C82FF1F80B485B000AF78600B46FB701346BB707B68DB7803F00303FB737B689B78DBB25BB2002B1ADAFB7B032B0AD0BB7803F001031549B2
:4018C000FA78CA54BB7843F00103BB701BE0BB789B08DBB203F001030F49FA78CA54BB7843F00403BB700EE0FB7B032B0BD0BB785B08DBB203F001030849FA78CA54BB7853
:4019000043F00203BB70BB7818461437BD465DF8047B70475882FF1F5C82FF1F6082FF1F80B582B000AF374B1B78BB71BB7903F01003002B63D00123FB71BB795BB2002BFB
:4019400013DABB7903F00F03012B02D00023FB711DE000F061F82C4B1B78DBB2DBB25BB2002B14DA0023FB7111E0BB7903F04003002B02D000F094F809E0BB7903F020038E
:40198000002B02D000F0B2F801E00023FB71FB79002B34D01B4B1B78BB71BB795BB2002B2DDB1A4B1B78DAB2194B1B78DBB21343BB71184ABB791370164B1B78DBB2BA798D
:4019C0009A421CD1104B1B78FB710E4B1B78DBB223F07F03BB71BB79002B0AD1094B0A4A1278D2B21A70074B1B78DBB203F00F03FB71054B1B78DBB2FA799A42E2D108377C
:401A0000BD4680BD286000408D82FF1F0283FF1F9082FF1F2960004080B582B000AF1D4B1B78FB711B4AFB7913701A4B1B78FB71FB795BB2002B03DA174AFB79137025E0B2
:401A4000022000F043FA154B1B78DBB203F06003202B08D0402B0BD0002B0ED100F004FB0346FB710CE002F09FFC0346FB7107E001F0C0FA0346FB7102E00023FB7100BF85
:401A8000FB79002B02D1044B03221A700837BD4680BD00BF286000408D82FF1F0060004080B500AF104B1B78DBB2062B19D801A252F823F0E31A0000E31A0000D11A00007D
:401AC000E31A0000D71A0000E31A0000DD1A000000F0FAF806E000F0A9F903E000F0D2F900E000BF80BD00BF7082FF1F80B500AF124B1B78DBB2062B1DD801A252F823F0DA
:401B0000371B0000371B00001D1B0000371B0000231B0000371B0000291B000000F0DAF80AE000F029F907E0032000F0CFF9044B03221A7000E000BF80BD00BF7082FF1F7A
:401B40008D82FF1F80B483B000AF0023FB71294B1B78DBB29AB2284B1B889BB213449AB2254B1A8015E02549FB79254A52681278D2B2CA54224B5B680133214A5360FB7981
:401B80000133FB711E4B1B889BB2013B9AB21C4B1A801B4B1B889BB2002B02D0FB79072BE1D9144B1B78DBB2082B02D0FB79002B0FD0144B1B78DBB283F07F03DB43DAB2D0
:401BC000104B1A70104B0F221A70104B02221A7005E00D4B02221A700C4B02221A700C4AFB791370034AFB7913700C37BD465DF8047B70476C82FF1F6E82FF1F00600040D5
:401C00007882FF1F0283FF1F8D82FF1F7082FF1F9082FF1F80B582B000AF164B1B889BB2002B02D100F02EF81EE0134B02221A70124B00221A7000F069F9114BDB79DBB25F
:401C40009BB21B029AB20E4B9B79DBB29BB21343FB80084B1B889BB2FA889A4202D2054AFB881380FFF76EFF012318460837BD4680BD00BF7882FF1F7082FF1F0283FF1FCE
:401C80000060004080B400AF0A4B02221A700A4B80221A70094B0F221A70094B00221A70084B00221A7001231846BD465DF8047B704700BF7082FF1F0283FF1F8D82FF1F60
:401CC0006C82FF1F9082FF1F80B500AFFFF73AFF80BD00BF80B500AF0A4B1B78DBB29AB2094B1B889BB213449AB2074B1A80074B00221A70012000F0E9F8054B03221A7032
:401D000080BD00BF6C82FF1F6E82FF1F7082FF1F8D82FF1F80B582B000AF124B04221A70114B80221A7000F0F1F8104BDB79DBB29BB21B029AB20D4B9B79DBB29BB213433E
:401D4000FB800B4B1B889BB2FA889A4202D2084AFB881380074B0B221A70012318460837BD4680BD7082FF1F0283FF1F006000407882FF1F8D82FF1F80B483B000AF00232D
:401D8000BB71234B1B78DBB203F00F03DBB2023BFB71FB799AB21F4B1B889BB213449AB21C4B1A8018E01C4B5B681C49BA798A5CD2B21A70184B5B680133174A5360BB7920
:401DC0000133BB71FB79013BFB71134B1B889BB2013B9AB2104B1A800F4B1B889BB2002B02D0FB79002BDED10D4AFB7913700D4B1B78DBB283F07F03DB43DAB2094B1A70C4
:401E0000094B0B221A700C37BD465DF8047B7047296000406E82FF1F7882FF1F006000409082FF1F0283FF1F8D82FF1F80B500AF044B00221A70012000F048F8024B032295
:401E40001A7080BD7082FF1F8D82FF1F80B400AF084B06221A70084B06221A70074B80221A70074B00221A7001231846BD465DF8047B70477082FF1F8D82FF1F0283FF1F05
:401E80009082FF1F80B500AF0C4B1B78DBB2002B0AD00B4A094B1B78DBB263F07F03DBB21370064B00221A70064B00221A70012000F00CF8044B03221A7080BD8E82FF1F6C
:401EC000086000407082FF1F8D82FF1F80B483B000AF0346FB710B4B9B68002B0CD0094B9B68FA791A70074B9B68074A128892B25A80044B00229A600C37BD465DF8047B9B
:401F0000704700BF7882FF1F6E82FF1F80B400AF094B00221A80094B9B68002B07D0074B9B6800221A70054B9B6800225A80BD465DF8047B704700BF6E82FF1F7882FF1FF6
:401F400080B400AF104A104B1B78DBB223F00103DBB213700D4B9B7C0D4B1B7BDBB203F00303012B08D00A4BDB7BDBB283F07F03DB43DAB2064BDA73054B01225A73BD46E3
:401F80005DF8047B704700BF0B600040FC5F00409482FF1F80B400AF104A104B1B78DBB223F00203DBB213700D4B93F822300D4B1B7EDBB203F00303012B08D0094BDB7E20
:401FC000DBB283F07F03DB43DAB2064BDA76054B01225A76BD465DF8047B70470B600040FC5F00409482FF1F80B400AF124A124B1B78DBB223F00403DBB213700F4B93F8FE
:4020000032300F4B93F82430DBB203F00303012B0AD00B4B93F82730DBB283F07F03DB43DAB2074B83F82720054B012283F82520BD465DF8047B70470B600040FC5F0040FA
:402040009482FF1F80B400AFBD465DF8047B704780B500AFFFF7B8FA80BD00BF80B500AF00F0F2FF80BD00BF80B586B000AF0023FB759D4B1B78FB7100233B619B4B002217
:402080001A80FB795BB2002B80F20481964B5B78DBB20A2B00F2FC8001A252F823F000BFE92100009122000091220000912200009122000091220000CD2000009122000017
:4020C0005B2200009122000071220000864BDB78DBB2012B0ED100F017FEB860BB685B68824A5360814B12221A80FFF793FD0346FB7578E07C4BDB78DBB2022B24D17A4B20
:402100009B78DBB2184600F0D5FDB860BB68002B69D0BB685B68754A5360744B5B6803331B78DBB29BB21B029AB2704B5B6802331B78DBB29BB213439AB26C4B1A80FFF751
:4021400069FD0346FB75A4E0674BDB78DBB2032B44D10023FB73664B3B6109E03B691B78BB71BB793A6913443B61FB7B0133FB735D4B9B78DBB2FA7B9A4204D23B691B7835
:40218000DBB2002BEAD1584B9B78DBB2EE2B01D1584B3B61544B9B78DBB2002B0BD0524B9B78DAB2544B1B7C9A4204D1534800F0A1F9524B3B613B691B78DBB2002B12D0A8
:4021C0003B691B78DBB29AB2484B1A80474A3B695360FFF71FFD0346FB755AE002F0E4F80346FB7555E054E0FB7903F00303002B1FD0022B00D02FE03C4B02221A803A4B68
:402200001B79DBB203F07F023D4913465B0013449B000B449B78DAB23A4B1A70394B00225A70324B374A5A60FFF7F4FC0346FB7512E02E4B02221A80334B1B78DAB2314BD7
:402240001A70304B00225A70284B2E4A5A60FFF7E1FC0346FB7500BF1BE0244B01221A80224B2A4A5A60FFF7D5FC0346FB7510E01E4B01221A801C4B1B79DBB21A46244BCE
:4022800013441A4A5360FFF7C5FC0346FB7500E000BF19E1144B5B78DBB2013B0A2B00F2128101A252F823F0B3230000C72400003D240000C7240000D5220000C724000003
:4022C000C7240000C724000019230000C72400006F230000044B9B78DAB20E4B1A70FFF7B5FD0346FB75EFE0006000407882FF1FB4590000BC5A00005C5900000883FF1F15
:402300009482FF1F3C82FF1F9182FF1F8F82FF1F0083FF1F8E82FF1F6E4B9B787B717B79002B06D07B79013BDBB2184600F0C2FCB8607B79002B02D0BB68002B02D17B79CA
:40234000002B13D1644B1B78DBB27A799A4208D0614A7B791370614B01221A70012000F0C1F9FFF773FD0346FB75ADE0ACE000F009FE0346002B1BD0564B1B793B71554B83
:402380001B79DAB2564B1A703B79564AD35CDAB23B795549CB5CDBB29A4204D04F4B01221A7000F069FBFFF751FD0346FB758BE08AE0FB7903F00303012B22D0012B0DD309
:4023C000022B00D039E0434B9B78DBB2002B04D100F040FD0346FB752FE02EE03D4B9B78DBB2012B0CD1414B1B78DBB223F00203DAB23E4B1A70FFF729FD0346FB751CE031
:402400001BE0344B1B79DBB2012B15D8314B9B78DBB2DB43DBB22F4A1279D2B211461046334A125CD2B21340DAB2314B5A54FFF70DFD0346FB75FFE700BF45E0FB7903F08A
:402440000303012B22D0012B0DD3022B00D039E0204B9B78DBB2002B04D100F08DFC0346FB752FE02EE01B4B9B78DBB2012B0CD11E4B1B78DBB243F00203DAB21B4B1A7070
:40248000FFF7E4FC0346FB751CE01BE0114B1B79DBB2012B15D80F4B9B78DBB2DB43DBB20C4A1279D2B211461046114A125CD2B21340DAB20E4B5A54FFF7C8FC0346FB75A3
:4024C000FFE700BF00E000BFFB7D18461837BD4680BD00BF006000408F82FF1F8C82FF1F8482FF1F7482FF1F0083FF1F9182FF1F0483FF1FB0B58AB000AF7860314B07F130
:4025000014041D460FCD0FC42B682370002387F826307B68002B52D07B6822221A707B68013303221A7007F10C03184600F014FE022387F827303EE097F827307A6813440D
:4025400097F8262007F128010A4412F81C2C1209D2B207F128010A4412F8142C1A7097F8273001337A68134400221A7097F8273002337A68134497F8262007F128010A444C
:4025800012F81C2C02F00F0207F128010A4412F8142C1A7097F8273003337A68134400221A7097F82630013387F8263097F82730043387F8273097F82730212BBCD928377B
:4025C000BD46B0BD4859000090B482B000AF0123FB7174E03F4AFB791B0113440C221A70FA793D4913465B0013449B000B445B79DBB2002B1AD0FA79374913465B00134437
:402600009B000B441B79DBB2DBB25BB2002B06DA324AFB791B0113440C229A700CE02F4AFB791B01134408229A7005E02B4AFB791B01134480229A702648F979FA79264C1D
:4026400013465B0013449B002344DB889BB2DAB20B0103449A711F48F979FA791E4C13465B0013449B002344DB889BB21B0A9BB2DAB20B010344DA711648F979FA79164CFF
:4026800013465B0013449B002344DB889BB2DAB20B0103441A710F48F979FA790E4C13465B0013449B002344DB889BB21B0A9BB2DAB20B0103445A71FB790133FB71FB79FC
:4026C000082B87D9064BFF221A700837BD4690BC704700BF706000409482FF1FFC5F00400A60004080B58AB000AF0346FB7100237B84002387F827304CE097F82720C449C1
:4027000013465B0013449B000B4400221A7097F82720BF4913465B0013449B000B4400229A7097F82720BA4913465B0013449B000B440022DA7097F82720B54913465B0037
:4027400013449B000B44083300221A8097F82720AF4913465B0013449B000B44083300229A7097F82720AA4913465B0013449B000B4400225A7097F82720A54913465B00D5
:4027800013449B000B4400225A7197F82730013387F8273097F82730082BAED9FB79002B16D0002387F825300EE097F82530994A0021D15497F82530974A0021D15497F84A
:4027C0002530013387F8253097F82530012BECD9924B1B78DBB2002B00F049810023FB768E4B1B78DBB2013BDBB2184600F062FA78617B695B683B613B6907331B7803F045
:402800004003002B08D0864B1B78DBB243F00103DAB2834B1A7007E0814B1B78DBB223F00103DAB27E4B1A707B6908337B617B691B7887F82730012387F82530B3E07B69C6
:402840005B68FB61002387F82630A0E097F82520FB699B7803F07F039A4240F0908097F825206B4913465B0013449B000B4408331B889AB2FB699B889A420CD297F8252029
:40288000FB699888624913465B0013449B000B44083302461A80FB691B781A465D4B9B5CDAB2FB695B789A4269D197F82520FB699878574913465B0013449B000B440246E3
:4028C0001A7197F82520FB69D878514913465B0013449B000B4402461A70FB69DB7803F00303FB73FB699B78DBB25BB2002B1ADA97F82520FB7B012B01D1072000E00D209A
:40290000434913465B0013449B000B4402465A7197F825203E4913465B0013449B000B4401225A7019E097F82520FB7B012B01D1052000E00920364913465B0013449B0032
:402940000B4402465A7197F82520314913465B0013449B000B4400225A70FB699B790A2B03D0FB699B79022B09D197F82520FB7EF86911461A46FEF789FF0346FB76FB69C7
:402980000833FB6197F82630013387F8263097F8262097F827309A42FFF458AF97F82530013387F8253097F82530082B7FF647AF7B695B68FB61002387F8253016E0FB693F
:4029C0009B7803F07F02FB691878114913465B0013449B000B44083302469A70FB690833FB6197F82530013387F8253097F8252097F827309A42E2D300F098F90246094B31
:402A00001A6000237B84012387F8273029E000BF9482FF1F0083FF1F7482FF1F8F82FF1F9182FF1F8882FF1F97F82720114913465B0013449B000B447A8CDA8097F827206C
:402A40000C4913465B0013449B000B4408331B889AB27B8C13447B8497F82730013387F8273097F82730082BDED9FFF7ADFD2837BD4680BD9482FF1F90B585B000AF874B57
:402A80001B78DBB2002B00F00681844B1B78DBB2013BDBB2184600F00DF978607B6808337B607B681B78FB707B685B68BB607C4B1B78BB700023FB73E8E0BB681B78BA780F
:402AC0009A4240F0DD80BB78764AD35CDAB2BB685B789A4240F0D480BB689B7803F07F037B70BB68DB7803F003033B707A786E4913465B0013449B000B440022DA707A78BD
:402B0000BB689878684913465B0013449B000B4402461A717A78BB68D878634913465B0013449B000B4402461A707A78BB6898885D4913465B0013449B000B4408330246BE
:402B40001A80BB689B78DBB25BB2002B18DA7A783B78012B01D1072000E00D20524913465B0013449B000B4402465A717A784E4913465B0013449B000B4401225A7017E0F2
:402B80007A783B78012B01D1052000E00920464913465B0013449B000B4402465A717A78414913465B0013449B000B4400225A703E4A7B781B01134401229A703B487978C1
:402BC0007A78394C13465B0013449B00234408331B889BB21B0A9BB2DAB20B0103441A70324879787A78304C13465B0013449B00234408331B889BB2DAB20B0103445A7091
:402C00002B4879787A78284C13465B0013449B002344DB889BB2DAB20B0103449A71244879787A78204C13465B0013449B002344DB889BB21B0A9BB2DAB20B010344DA710F
:402C40001B4879787A78184C13465B0013449B002344DB889BB2DAB20B0103441A71144879787A78104C13465B0013449B002344DB889BB21B0A9BB2DAB20B0103445A710F
:402C8000BB680833BB60FB7B0133FB73FA7BFB789A42FFF412AF1437BD4690BD8F82FF1F8482FF1F0083FF1F9482FF1FFC5F00407060004080B485B000AF0346FB71104B75
:402CC0001B78DBB20F4ADB0013445B68FB60FB681033FB60FB681B78FA799A4202D30023FB6005E0FB79DB00FA6813445B68FB60FB6818461437BD465DF8047B704700BF0E
:402D00006D82FF1FB45A000080B400AF054B1B78DBB2054ADB0013445B681846BD465DF8047B70476D82FF1FB45A000080B584B000AF104B1B78DBB2013BDBB21846FFF72A
:402D4000B9FFB860BB68002B0DD0BB685B681B79FB71FB790233DB00BA681344BB60BB685B68FB6001E00023FB60FB6818461037BD4680BD8F82FF1F80B582B000AF00230A
:402D8000FB71314B1B79DBB203F07F03BB71BB79002B53D0BB79082B50D8BA79B9792B480B465B000B449B0003449B78DBB243F00103D8B2254913465B0013449B000B44DF
:402DC00002469A70BA79214913465B0013449B000B440022DA70BA79B9791C480B465B000B449B0003445B78DBB243F00203D8B2164913465B0013449B000B4402465A7055
:402E0000BA79124913465B0013449B000B441B79DBB2DBB25BB2002B06DA0D4ABB791B0113448D229A7005E0094ABB791B01134489229A70FFF70AF80346FB71FB7918467F
:402E40000837BD4680BD00BF006000409482FF1FFC5F004080B582B000AF0023FB71464B1B79DBB203F07F03BB71BB79002B7DD0BB79082B7AD8BA79B97940480B465B00AF
:402E80000B449B0003449B78DBB223F00103D8B23A4913465B0013449B000B4402469A70BA79364913465B0013449B000B440022DA70334ABB791B0113447F221A70BA7941
:402EC000B9792E480B465B000B449B0003445B78DBB223F00203D8B2284913465B0013449B000B4402465A70BA79244913465B0013449B000B441B79DBB2DBB25BB2002B58
:402F000018DABA791D4913465B0013449B000B445B78DBB2012B06D1194ABB791B0113440C229A701EE0164ABB791B0113440D229A7017E0BA79114913465B0013449B0004
:402F40000B445B78DBB2012B06D10D4ABB791B01134408229A7005E0094ABB791B01134409229A70FEF772FF0346FB71FB7918460837BD4680BD00BF006000409482FF1F5A
:402F8000FC5F004080B584B000AF0023FB73154B1B79BB73144B1B78DBB2013BDBB21846FFF788FEB860BB685B681B79FB71BA7BFB799A4202D9BB7B022B0ED8BB7BBA7B77
:402FC0000A498A5CD1B20A4AD154BB7B054A9278D1B2064AD1540123FB73FB7B18461037BD4680BD006000408F82FF1F0083FF1F7482FF1F80B582B000AF0023FB710F4BA5
:403000001B78DBB2DBB25BB2002B12DA0B4B5B78DBB2012B00D00CE0094B0A4A5A60094B1B789AB2064B1A80FEF7F4FD0346FB7100BFFB7918460837BD4680BD0060004056
:403040007882FF1FD05A000080B400AF054B1B78DBB203F040039B09DBB21846BD465DF8047B70478F4500400230800803D000BF01380046FCD17047EFF3108072B67047B4
:4030800080F31088704700BF80B483B000AF0346FB7101BE0C37BD465DF8047B704700BF80B582B000AF0346FB80FB88044A127802FB03F31846FFF7D7FF0837BD4680BDA4
:4030C0007C81FF1F80B584B000AF03463960FB710F4B1B68FB60FB791F2B02D90020FFF7D3FFFB7903F01F0310339B00FA6813441B68BB60FB7903F01F0310339B00FA680F
:4031000013443A681A60BB6818461037BD4680BD08ED00E080B582B000AF03460A46FB711346BB71BB79072B02D90020FFF7ACFFFB791F2B02D90020FFF7A6FFFB7903F0E2
:403140001F0303F1604303F56443BA795201D2B21A700837BD4680BD80B483B000AF7860264B1B78DBB21A467B681A60244B1B78DBB21B027A6812681A437B681A60214B7A
:403180001B78DBB21B047A6812681A437B681A601D4B1B78DBB21B067A6812681A437B681A607B680433194A1278D2B21A60184B1B78DBB21A027B680433796804310968B6
:4031C0000A431A60134B1B78DBB21A047B6804337968043109680A431A600F4B1B78DBB21A067B6804337968043109680A431A600C37BD465DF8047B704700BF0301004925
:4032000004010049EC460040020100490101004900010049050100490601004980B500AF054B1B78002B04D100F008F8024B01221A7000F061F880BD4082FF1F80B582B0D0
:4032400000AF284A274B1B78DBB243F00203DBB21370254B1B78DBB223F07003FB71224AFB7943F01003DBB21370204A1F4B1B78DBB223F03003DBB213701C4A1B4B1B78F2
:40328000DBB243F03003DBB21370184A174B1B78DBB223F00F03DBB21370144A134B1B78DBB243F00F03DBB21370642000F048F8002000F055F8002000F062F80C4A0C4B99
:4032C0001B78DBB243F00103DBB21370094A094B1B78DBB243F00103DBB213700837BD4680BD00BF004F0040024F00400B4F0040A3430040014F004080B400AF0D4A0D4B19
:403300001B78DBB243F00103DBB213700A4A0A4B1B78DBB243F00103DBB21370074A074B1B78DBB243F00103DBB21370BD465DF8047B7047A3430040B3430040004F004093
:4033400080B483B000AF0346FB71044BFA7992B21A800C37BD465DF8047B7047044F004080B483B000AF0346FB71044BFA7992B21A800C37BD465DF8047B7047064F0040AD
:4033800080B483B000AF0346FB71044AFB7913700C37BD465DF8047B704700BF034F004080B485B000AF0346FB710B4B1B78DBB223F02003FB730849FB795B01DBB203F053
:4033C0002003DAB2FB7B1343DBB20B701437BD465DF8047B704700BFF051004080B485B000AF0346FB710B4B1B78DBB223F00203FB730849FB795B00DBB203F00203DAB237
:40340000FB7B1343DBB20B701437BD465DF8047B704700BF1051004080B500AF054B1B78002B04D100F008F8024B01221A7000F061F880BD4182FF1F80B582B000AF284ADF
:40344000274B1B78DBB243F00203DBB21370254B1B78DBB223F07003FB71224AFB7943F01003DBB21370204A1F4B1B78DBB223F03003DBB213701C4A1B4B1B78DBB243F051
:403480003003DBB21370184A174B1B78DBB223F00F03DBB21370144A134B1B78DBB243F00F03DBB21370642000F048F8002000F055F8002000F062F80C4A0C4B1B78DBB237
:4034C00043F00203DBB21370094A094B1B78DBB243F00103DBB213700837BD4680BD00BF0C4F00400E4F0040174F0040A34300400D4F004080B400AF0D4A0D4B1B78DBB2E6
:4035000043F00203DBB213700A4A0A4B1B78DBB243F00203DBB21370074A074B1B78DBB243F00103DBB21370BD465DF8047B7047A3430040B34300400C4F004080B483B03C
:4035400000AF0346FB71044BFA7992B21A800C37BD465DF8047B7047104F004080B483B000AF0346FB71044BFA7992B21A800C37BD465DF8047B7047124F004080B483B093
:4035800000AF0346FB71044AFB7913700C37BD465DF8047B704700BF0F4F004080B400AFBD465DF8047B704780B582B000AF0F2000F06AF800F058F8FFF75EFD0346FB71E6
:4035C000074A074B1B78DBB243F01003DBB21370FB791846FFF754FD0837BD4680BD00BF9264004080B500AF00F034F94FF4004000F05CF9054B1B78002B04D1FFF7CEFFB6
:40360000024B01221A70FFF7CFFF80BD4282FF1F80B582B000AF00F059F90346FB80FB88A3F500439BB2BB80BB881BB218460837BD4680BD80B584B000AF0346FB80B7F932
:403640000630002B04DBFB88A3F50043FB8103E0FB88A3F50043FB81FB89184600F026F91037BD4680BD00BF80B400AF054B1B78DBB203F00F03DBB21846BD465DF8047B22
:40368000704700BF6264004080B483B000AF0346FB71044AFB7913700C37BD465DF8047B704700BF8264004080B400AFBD465DF8047B704780B582B000AF0F2000F06AF8C0
:4036C00000F058F8FFF7D8FC0346FB71074A074B1B78DBB243F01003DBB21370FB791846FFF7CEFC0837BD4680BD00BF9C64004080B500AF00F084F94FF4004000F0ACF979
:40370000054B1B78002B04D1FFF7CEFF024B01221A70FFF7CFFF80BD4382FF1F80B582B000AF00F0A9F90346FB80FB88A3F500439BB2BB80BB881BB218460837BD4680BDC6
:4037400080B584B000AF0346FB80B7F90630002B04DBFB88A3F50043FB8103E0FB88A3F50043FB81FB89184600F076F91037BD4680BD00BF80B400AF054B1B78DBB203F019
:403780000F03DBB21846BD465DF8047B704700BF6C64004080B483B000AF0346FB71044AFB7913700C37BD465DF8047B704700BF8C64004080B582B000AF1C4B1B78DBB242
:4037C00023F00703FB71194AFB791370174B1B78DBB223F00303FB71144AFB79137000F0B1F84FF4004000F08DF84FF4004000F05DF8002000F03EF800F04CF84FF4004034
:4038000000F090F8FFF738FC0346BB71084A084B1B78DBB243F01003DBB21370BB791846FFF72EFC0837BD4680BD00BF746400409564004080B400AF054A054B1B78DBB273
:4038400063F07F03DBB21370BD465DF8047B70477464004080B500AF054B1B78002B04D1FFF7A8FF024B01221A70FFF7E3FF80BD4482FF1F80B483B000AF0346FB71044A4D
:40388000FB7913700C37BD465DF8047B704700BF8564004080B400AF034B1B78DBB21846BD465DF8047B70476564004080B483B000AF0346FB80044AFB8813800C37BD468E
:4038C0005DF8047B704700BF086A004080B400AF044B1B78044B1B889BB21846BD465DF8047B704704650040886A004080B400AF034B1B889BB21846BD465DF8047B7047F4
:40390000886A004080B483B000AF0346FB80044AFB8813800C37BD465DF8047B704700BF486A004080B483B000AF0346FB80044AFB8813800C37BD465DF8047B704700BFC7
:40394000686A004080B500AF01E0FFF7CFFFFFF7A1FF034603F04003002BF6D180BD00BF80B582B000AF1C4B1B78DBB223F00703FB71194AFB791370174B1B78DBB223F094
:403980000303FB71144AFB79137000F0B1F84FF4004000F08DF84FF4004000F05DF8002000F03EF800F04CF84FF4004000F090F8FFF762FB0346BB71084A084B1B78DBB2E5
:4039C00043F01003DBB21370BB791846FFF758FB0837BD4680BD00BF7B6400409B64004080B400AF054A054B1B78DBB263F07F03DBB21370BD465DF8047B70477B640040C6
:403A000080B500AF054B1B78002B04D1FFF7A8FF024B01221A70FFF7E3FF80BD4582FF1F80B483B000AF0346FB71044AFB7913700C37BD465DF8047B704700BF8B6400405F
:403A400080B400AF034B1B78DBB21846BD465DF8047B70476B64004080B483B000AF0346FB80044AFB8813800C37BD465DF8047B704700BF0668004080B400AF044B1B78B9
:403A8000044B1B889BB21846BD465DF8047B7047036400408668004080B400AF034B1B889BB21846BD465DF8047B70478668004080B483B000AF0346FB80044AFB8813808D
:403AC0000C37BD465DF8047B704700BF4668004080B483B000AF0346FB80044AFB8813800C37BD465DF8047B704700BF6668004080B500AF01E0FFF7CFFFFFF7A1FF034604
:403B000003F04003002BF6D180BD00BF80B582B000AF786000F03CF8786800F009F8072000F018F800F028F80837BD4680BD00BF80B485B000AF7860054B1B68FB60FB6888
:403B400050337A681A601437BD465DF8047B704708ED00E080B483B000AF0346FB71054AFB795B01DBB213700C37BD465DF8047B704700BF04E400E080B400AF034B102203
:403B80001A60BD465DF8047B704700BF00E100E080B400AF034B10221A60BD465DF8047B704700BF80E100E080B500AF054B1B78002B04D100F008F8024B01221A7000F071
:403BC00023F880BD4682FF1F80B400AF094B72221A70094B20221A70084B06221A70084B47221A70074B02221A70BD465DF8047B704700BF886500408D6400402864004050
:403C0000386400408565004080B582B000AFFFF733FA0346FB710F4A0E4B1B78DBB243F02003DBB213700C4A0B4B1B78DBB243F01003DBB21370094A084B1B78DBB243F03D
:403C40001003DBB21370FB791846FFF719FA0837BD4680BD986500409D6400409565004080B483B000AF0023FB710C4B1B78BB71BB7903F02003002B09D0094B1B78FB71B3
:403C8000BB7903F01E03002B01D00023FB71FB7918460C37BD465DF8047B70476D6400404A65004080B483B000AF0346FB7100BF074B1B78DBB203F00403002BF8D1054A55
:403CC000FB7913700C37BD465DF8047B704700BF656500404865004080B584B000AF78600023FB810B4B1B78002B10D009E0FB897A6813441B781846FFF7D4FFFB890133AB
:403D0000FB81FB897A6813441B78002BEFD11037BD4680BD4682FF1F80B483B000AF0346FB71044AFB7913700C37BD465DF8047B704700BF7B65004080B582B000AF7860B1
:403D400000F03CF8786800F009F8072000F018F800F028F80837BD4680BD00BF80B485B000AF7860054B1B68FB60FB6868337A681A601437BD465DF8047B704708ED00E0B3
:403D800080B483B000AF0346FB71054AFB795B01DBB213700C37BD465DF8047B704700BF0AE400E080B400AF034B4FF480621A60BD465DF8047B704700E100E080B400AFA9
:403DC000034B4FF480621A60BD465DF8047B704780E100E080B582B000AF42F2273000F05BF842F2273000F073F8FFF745F90346FB710A4A094B1B78DBB243F01003DBB2B9
:403E00001370FB791846FFF73BF900F071F8002000F026F80837BD4680BD00BF9664004080B400AF054A054B1B78DBB263F07F03DBB21370BD465DF8047B704774650040D6
:403E400080B500AF054B1B78002B04D1FFF7C2FF024B01221A70FFF7E3FF80BD4882FF1F80B483B000AF0346FB71044AFB7913700C37BD465DF8047B704700BF8664004003
:403E800080B400AF034B1B78DBB21846BD465DF8047B70476664004080B483B000AF0346FB80044AFB8813800C37BD465DF8047B704700BF4C68004080B400AF034B1B8825
:403EC0009BB21846BD465DF8047B70478C68004080B483B000AF0346FB80044AFB8813800C37BD465DF8047B704700BF0C68004080B500AF01E0FFF7DFFFFFF7C1FF03463B
:403F000003F00803002BF6D180BD00BF80B582B000AF786000F03CF8786800F009F8072000F018F800F028F80837BD4680BD00BF80B485B000AF7860054B1B68FB60FB68BC
:403F400060337A681A601437BD465DF8047B704708ED00E080B483B000AF0346FB71054AFB795B01DBB213700C37BD465DF8047B704700BF08E400E080B400AF034B4FF4DA
:403F800080721A60BD465DF8047B704700E100E080B400AF034B4FF480721A60BD465DF8047B704780E100E080B582B000AFC72000F06AF8C72000F083F8FFF75DF8034662
:403FC000FB710A4A094B1B78DBB243F01003DBB21370FB791846FFF753F800F081F8002000F036F80837BD4680BD00BF9964004080B400AF054A054B1B78DBB263F07F038B
:40400000DBB21370BD465DF8047B70477864004080B500AF054B1B78002B04D1FFF7C4FF024B01221A70FFF7E3FF80BD4982FF1F80B400AF054A054B1B78DBB203F07F0337
:40404000DBB21370BD465DF8047B70477864004080B483B000AF0346FB71044AFB7913700C37BD465DF8047B704700BF8964004080B400AF034B1B78DBB21846BD465DF8B2
:40408000047B70476964004080B483B000AF0346FB71044AFB7913700C37BD465DF8047B704700BF2964004080B400AF034B1B78DBB21846BD465DF8047B70474964004026
:4040C00080B483B000AF0346FB71044AFB7913700C37BD465DF8047B704700BF0964004080B500AF01E0FFF7DFFFFFF7C1FF034603F00803002BF6D180BD00BF80B582B088
:4041000000AF786000F03CF8786800F009F8072000F018F800F028F80837BD4680BD00BF80B485B000AF7860054B1B68FB60FB686C337A681A601437BD465DF8047B704739
:4041400008ED00E080B483B000AF0346FB71054AFB795B01DBB213700C37BD465DF8047B704700BF0BE400E080B400AF034B4FF400621A60BD465DF8047B704700E100E072
:4041800080B400AF034B4FF400621A60BD465DF8047B704780E100E080B584B000AF03460A46FB8013467B7100F0B2F80346FB7300F0A2F80346BB81FA88BB899A4200F07D
:4041C0008780454B1B78DBB203F00203FB72FB7B002B20D1BB89002B02D0FB88002B1AD1BB89002B0BD13D4AFB8813803C4A3C4B1B78DBB223F04003DBB2137068E0384AF2
:40420000374B1B78DBB243F04003DBB21370334AFB8813805CE0FB7A002B33D0314B00221A70314B02221A70304B00221A70304A2F4B1B78DBB203F07F03DBB21370284B5F
:404240001B78DBB203F00803002B02D0FB88002B18D1284ABB891380224B07221A7000BF204B1B78DBB203F00103002BF8D11A4A194B1B78DBB223F00203DBB21370194B7A
:4042800000221A70144B1B78DBB203F00203002B13D0184AFB881380124A7B79002B01D0032300E00123137000BF0E4B1B78DBB203F00103002BF8D10AE0084AFB881380E7
:4042C0000549054B1B78DAB2FB7A1343DBB20B701037BD4680BD00BFA24300408440004086400040014000401040004014400040084000400240004080B400AF034B1B8836
:404300009BB21846BD465DF8047B70478440004080B400AF054B1B78DBB203F00703DBB21846BD465DF8047B704700BF8640004080B400AF034B1B78DBB21846BD465DF8AB
:40434000047B70476864004080B400AF034B1B78DBB21846BD465DF8047B70476965004080B400AF034B1B78DBB21846BD465DF8047B70476364004080B400AF034B1B78A8
:40438000DBB21846BD465DF8047B70476464004080B400AF034B1B78DBB21846BD465DF8047B70476465004080B582B000AF1A4B1B78DBB203F00303012B02D0022B04D0A3
:4043C00012E0154B1B79BB7111E0134B1B79DBB203F07F02114913465B0013449B000B4408339B78BB7102E00023BB7100BF0C4B1A68BB7913441B78022B04D1FDF74EF9DA
:404400000346FB7102E00023FB7100BFFB7918460837BD4680BD00BF006000409482FF1F8882FF1F2DE9F0478AB006460F4600F04FF8DFF898A004469AF900300D46013389
:404440000FD03046394600F009F950B14FF000084FF000093046394642464B4600F056FD20B9204629460AB0BDE8F08716499AF8004001220023CDE90467CDE902670191C8
:404480000092089364B9CDE90689684600F012F980B1089B9BB9DDE906010AB0BDE8F0874046494642464B4600F0E8FB022CCDE90601EAD100F09AFD21230360E9E700F064
:4044C00095FD089B0360E6E7F85A00008481FF1F2DE9F041604E0C46B6460E40764505460B4600F098800029024676DD5FEA215E00F08180AEF2FF3EC3F313031EF0010FAE
:4045000043F480135ED100273C46D10F01EB43034FEA6E0E520016204FF4001165189D424FEAD2764FEA420202DC5B1B6C180F44013806EB43034FEA5101EFD184462026E6
:404540004FF000410AE0A34220D0D50F013E4FEA510105EB43034FEA420220D09C420CEB0105F0DA002D05EB010C09DBA0461B1B954288BF03F1FF334446521B0844E4E78A
:40458000BCF1000FF2DB04F10108F0E7954217D8002D05EB010C48DB98460023ECE7134315D140087B1003F17F5303F50013FA0703EB0E57394648BF40F00040BDE8F08176
:4045C0001C46C2E7D10F01EB430352009BE7411C31D000F001031844E3E721F000460643ECD079BB8E46D30AAEF1150E5205002BF9D0DC0222D400215B00D80201F10101E6
:40460000FAD5C1F10100C1F1200422FA04F4234386448A406EE702460B4600F005FA2A46234600F04FF8BDE8F081BCF1000FAADAA0460023A0E701373046B3E72024012094
:404640000021E2E702460B4600F03AF802460B4600F014FBB2E700BF0000F07F10B431F0004408D0114BA1F580129A4208D804205DF8044B704718B902205DF8044B704728
:4046800001F1FF41094B01F5E0019942EFD9B4F5801F01D20320EBE7054B9C4201D00020E6E7B0FA80F04009E2E700BFFFFFDF7F0000F07F0020704781F0004102E000BF1E
:4046C00083F0004330B54FEA41044FEA430594EA050F08BF90EA020F1FBF54EA000C55EA020C7FEA645C7FEA655C00F0E2804FEA5454D4EB5555B8BF6D420CDD2C4480EAEF
:40470000020281EA030382EA000083EA010180EA020281EA0303362D88BF30BD11F0004F4FEA01314FF4801C4CEA113102D0404261EB410113F0004F4FEA03334CEA133382
:4047400002D0524263EB430394EA050F00F0A780A4F10104D5F1200E0DDB02FA0EFC22FA05F2801841F1000103FA0EF2801843FA05F359410EE0A5F120050EF1200E012AD7
:4047800003FA0EFC28BF4CF0020C43FA05F3C01851EBE37101F0004507D54FF0000EDCF1000C7EEB00006EEB0101B1F5801F1BD3B1F5001F0CD349085FEA30004FEA3C0C06
:4047C00004F101044FEA445212F5800F80F09A80BCF1004F08BF5FEA500C50F1000041EB045141EA050130BD5FEA4C0C404141EB010111F4801FA4F10104E9D191F0000FB0
:4048000004BF01460020B1FA81F308BF2033A3F10B03B3F120020CDA0C3208DD02F1140CC2F10C0201FA0CF021FA02F10CE002F11402D8BFC2F1200C01FA02F120FA0CFC50
:40484000DCBF41EA0C019040E41AA2BF01EB0451294330BD6FEA04041F3C1CDA0C340EDC04F11404C4F1200220FA04F001FA02F340EA030021FA04F345EA030130BDC4F1CA
:404880000C04C4F1200220FA02F001FA04F340EA0300294630BD21FA04F0294630BD94F0000F83F4801306BF81F480110134013D4EE77FEA645C18BF7FEA655C29D094EA6E
:4048C000050F08BF90EA020F05D054EA000C04BF1946104630BD91EA030F1EBF0021002030BD5FEA545C05D14000494128BF41F0004130BD14F580043CBF01F5801130BD5B
:4049000001F0004545F0FE4141F470014FF0000030BD7FEA645C1ABF194610467FEA655C1CBF0B46024650EA013406BF52EA033591EA030F41F4002130BD00BF90F0000FE0
:4049400004BF0021704730B54FF4806404F132044FF000054FF0000150E700BF90F0000F04BF0021704730B54FF4806404F1320410F0004548BF40424FF000013EE700BF98
:4049800042004FEAE2014FEA31014FEA02701FBF12F07F4393F07F4F81F06051704792F0000F14BF93F07F4F704730B54FF4607401F0004521F0004120E700BF50EA0102C4
:4049C00008BF704730B54FF000050AE050EA010208BF704730B511F0004502D5404261EB41014FF4806404F132045FEA915C3FF4DCAE4FF003025FEADC0C18BF03325FEA4A
:404A0000DC0C18BF033202EBDC02C2F1200300FA03FC20FA02F001FA03FE40EA0E0021FA02F11444C1E600BF70B54FF0FF0C4CF4E06C1CEA11541DBF1CEA135594EA0C0F93
:404A400095EA0C0F00F0DEF82C4481EA030621EA4C5123EA4C5350EA013518BF52EA033541F4801143F4801338D0A0FB02CE4FF00005E1FB02E506F00042E0FB03E54FF09F
:404A80000006E1FB03569CF0000F18BF4EF0010EA4F1FF04B6F5007F64F5407404D25FEA4E0E6D4146EB060642EAC62141EA55514FEAC52040EA5E504FEACE2EB4F1FD0C0A
:404AC00088BFBCF5E06F1ED8BEF1004F08BF5FEA500E50F1000041EB045170BD06F0004646EA010140EA020081EA0301B4EB5C04C2BFD4EB0C0541EA045170BD41F4801152
:404B00004FF0000E013C00F3AB8014F1360FDEBF002001F0004170BDC4F10004203C35DA0C341BDC04F11404C4F1200500FA05F320FA04F001FA05F240EA020001F00042D4
:404B400021F0004110EBD37021FA04F642EB06015EEA430E08BF20EAD37070BDC4F10C04C4F1200500FA04F320FA05F001FA04F240EA020001F0004110EBD37041F1000123
:404B80005EEA430E08BF20EAD37070BDC4F1200500FA05F24EEA020E20FA04F301FA05F243EA020321FA04F001F0004121FA04F220EA020000EBD3705EEA430E08BF20EADD
:404BC000D37070BD94F0000F0FD101F00046400041EB010111F4801F08BF013CF7D041EA060195F0000F18BF704703F00046520043EB030313F4801F08BF013DF7D043EA0C
:404C00000603704794EA0C0F0CEA135518BF95EA0C0F0CD050EA410618BF52EA4306D1D181EA030101F000414FF0000070BD50EA410606BF1046194652EA430619D094EAFD
:404C40000C0F02D150EA013613D195EA0C0F05D152EA03361CBF104619460AD181EA030101F0004141F0FE4141F470014FF0000070BD41F0FE4141F4780170BD70B54FF0CF
:404C8000FF0C4CF4E06C1CEA11541DBF1CEA135594EA0C0F95EA0C0F00F0A7F8A4EB050481EA030E52EA03354FEA013100F088804FEA03334FF0805545EA131343EA126381
:404CC0004FEA022245EA111545EA10654FEA00260EF000419D4208BF964244F1FD0404F5407402D25B084FEA3202B61A65EB03055B084FEA32024FF480104FF4002CB6EBE0
:404D0000020E75EB030E22BFB61A754640EA0C005B084FEA3202B6EB020E75EB030E22BFB61A754640EA5C005B084FEA3202B6EB020E75EB030E22BFB61A754640EA9C0048
:404D40005B084FEA3202B6EB020E75EB030E22BFB61A754640EADC0055EA060E18D04FEA051545EA16754FEA06164FEAC30343EA52734FEAC2025FEA1C1CC0D111F4801F8E
:404D80000BD141EA00014FF000004FF0004CB6E711F4801F04BF01430020B4F1FD0C88BFBCF5E06F3FF6AFAEB5EB030C04BFB6EB020C5FEA500C50F1000041EB045170BD7D
:404DC0000EF0004E4EEA113114EB5C04C2BFD4EB0C0541EA045170BD41F480114FF0000E013C90E645EA060E8DE60CEA135594EA0C0F08BF95EA0C0F3FF43BAF94EA0C0F06
:404E00000AD150EA01347FF434AF95EA0C0F7FF425AF104619462CE795EA0C0F06D152EA03353FF4FDAE1046194622E750EA410618BF52EA43067FF4C5AE50EA41047FF4F3
:404E40000DAF52EA43057FF4EBAE12E74FF0FF3C06E000BF4FF0010C02E000BF4FF0010C4DF804CD4FEA410C7FEA6C5C4FEA430C18BF7FEA6C5C1BD001B050EA410C0CBF4A
:404E800052EA430C91EA030F02BF90EA020F0020704710F1000F91EA030F58BF994208BF90422CBFD8176FEAE37040F0010070474FEA410C7FEA6C5C02D150EA013C07D148
:404EC0004FEA430C7FEA6C5CD6D152EA033CD3D05DF8040B704700BF8446104662468C461946634600E000BF01B5FFF7B7FF002848BF10F1000F01BD4DF808EDFFF7F4FF97
:404F00000CBF012000205DF808FB00BF4DF808EDFFF7EAFF34BF012000205DF808FB00BF4DF808EDFFF7E0FF94BF012000205DF808FB00BF4DF808EDFFF7CEFF94BF0120BF
:404F400000205DF808FB00BF4DF808EDFFF7C4FF34BF012000205DF808FB00BF4FEA410212F5001215D211D56FF47873B3EB625212D94FEAC12343F0004343EA505311F06B
:404F8000004F23FA02F018BF404270474FF00000704750EA013005D111F0004008BF6FF0004070474FF00000704700BF4A0011D212F5001211D20DD56FF47873B3EB62528E
:404FC0000ED44FEAC12343F0004343EA505323FA02F070474FF00000704750EA013002D14FF0FF3070474FF000007047014B1868704700BFE881FF1F0E4B70B51E460E4C52
:405000000025E41AA410A54204D056F8253098470135F8E700F090FD084B094C1E46E41AA4100025A54204D056F8253098470135F8E770BD445B0000445B0000445B00008B
:405040004C5B000010B5431E0A44914204D011F8014B03F8014FF8E710BD03460244934202D003F8011BFAE7704700000EB400B54FF402719CB0ADF814106FF000410491C6
:4050800007914FF6FF711DABADF81610084953F8042B02900690086802A9019300F064F8029B00221A701CB05DF804EB03B07047E881FF1F2DE9F0478E688246B3420C4686
:4050C0009046994640D38A8912F4906F3AD02568096902236F1A656905EB450595FBF3F57B1C4B449D4238BF1D4653050FD5294600F030FB064698B121693A46FFF7A2FF3E
:40510000A38923F4906343F08003A38113E02A4600F076FB064670B95046216900F0D6FA0C23CAF80030A3894FF0FF3043F04003A381BDE8F08726613E4426604E466561EC
:40514000ED1BA560B14500D24E4632462068414600F0A0FAA36800209B1BA36023681E442660BDE8F08700002DE9F0439DB003938B8906461C060D4690460CD50B6953B90A
:40518000402100F0E7FA2860286110B90C233360CCE040236B610023099320238DF8293030238DF82A3043461C4613F8012B1AB9B4EB08090FD002E0252AF5D1F8E7304664
:4051C000294642464B46FFF775FF013000F0A980099B4B4409932378002B00F0A28000234FF0FF3204930793059206938DF853301A9304F101084446DFF8489121784846C4
:40520000052200F039FA08F10108049B30B1C9EB00000122824013430493ECE7D80644BF20228DF85320190744BF2B228DF8532022782A2A02D0079923460EE0039A01343D
:40524000111D12680391002ABBBF524243F0020307920792B8BF04930AE01C4622780133303A092A03D80A2000FB0121F5E7079123782E2B1AD163782A2B0AD1039B023437
:405280001A1D1B680392002BB8BF4FF0FF3305930CE0611C00220C4623780131303B092B03D80A2000FB0232F5E70592DFF8988021784046032200F0DFF938B1049AC8EBCF
:4052C00000004023834013430493013421781A48062204F101088DF8281000F0CDF988B1164B33B9039B073323F007030833039313E003AB0093304604A92A46104BAFF3C2
:40530000008007E003AB0093304604A92A460C4B00F092F8421C074603D0099B3B44099341E7AB895B0601D4099801E04FF0FF301DB0BDE8F08300BF0C5B00000000000097
:40534000B5500000025B0000085B00002DE9F84391461F468A680B6906469342B8BF1346C9F8003091F843200C46DDF8208012B10133C9F800302368990642BFD9F80030CC
:405380000233C9F80030256815F006051CD094F843302268003318BF012392061FD5E118302081F843005A1C94F845102244023382F8431013E03046394604F1190201231B
:4053C000C047013007D00135E368D9F800209B1A9D42F0DBDBE74FF0FF30BDE8F8833046394604F14302C0470130F4D02268D9F80050E36802F00602042A08BF5D1B22696A
:40540000A3680CBF25EAE57500259342C4BF9B1AED184FF00009A9450ADA3046394604F11A020123C0470130D5D009F10109F2E70020BDE8F88300002DE9FF410C461746B3
:40544000227E98466E2A06460A9B01F1430100F0B08012D8632A23D00AD8002A00F0BD80582A40F0CC8084F84520DFF804E257E0642A1ED0692A1CD0C1E0732A00F0B180FF
:4054800009D86F2A2ED0702A40F0B980226842F0200222603FE0752A24D0782A3BD0AEE01A6804F14205111D1960136884F84230A9E020681A6810F0800F02D0101D1860BD
:4054C00008E010F0400F02F10400186002D0B2F9003000E01368002B3EDA2D225B4284F8432039E020681A6810F0800F02D0101D186007E010F0400F02F10400186001D051
:40550000138800E01368227EDFF864E16F2A0CBF08220A221CE07822DFF858E184F845202268186812F0800F00F104051D6003D1550601D5038800E00368D00744BF42F07F
:40554000200222601BB9226822F0200222601022002084F8430002E0DFF814E10A226568002DA8BF2068A560A4BF20F00400206003B965B10D46B3FBF2F002FB10331EF898
:40558000033005F8013D03460028F4D100E00D46082A0BD12368DA0708D5236962689A42DEBF302305F8013C05F1FF35491B21612EE025681A6815F0800F606903D0151DD2
:4055C0001D60136808E015F0400F02F104051D60136801D0188000E01860002323610D4616E01A68111D1960156800212846626800F042F808B1401B6060636804E004F131
:40560000420584F8422001232361002384F84330CDF800803046214603AA3B46FFF796FE013002D14FF0FF301FE0304639462A462369C0470130F5D023689B0705D4E06804
:40564000039B9842B8BF18460FE00025E368039A9B1A9D42F3DA3046394604F119020123C0470130DED00135F0E704B0BDE8F081135B0000245B000010B5C9B20244904255
:40568000034605D01C7801308C42F8D1184610BD002010BD814210B501EB020301D3421E0BE09842FBD28118D21AD34204D013F8014D01F8014DF8E710BD994204D011F8A7
:4056C000014B02F8014FF8E710BD000030B500293CD051F8042C0B1F1D49002AB8BF9B180A680C4612B95A600B6030BD93420DD219685818904201BF5A5852181A604268D9
:4057000023605A6030BD994203D80A4651680029F9D1146815199D420AD11B682344D0188842136012D10868034413604B680CE002D90C23036030BD1C681819884201BFD5
:4057400008684968001918605960536030BD00BF5082FF1F70B5CC1C24F0030408340C2C38BF0C24002C064603DA0C233360002070BD8C42F9D3204A136810461946A1B1C2
:405780000A68121B0ED40B2A03D90A608B188C501FE08B420BBF5A684A6802605A6018BF0B4616E00B464968E9E7144D2B681BB9304600F04BF828603046214600F046F854
:4057C000421C0346D1D0C51C25F0030585420AD11C6003F10B001A1D20F00700821A0AD05142995070BD3046E91A00F02FF80130BBD02B46ECE770BD5082FF1F4C82FF1F40
:40580000F8B5074615460E4621B91146BDE8F840FFF7A0BF1AB9FFF759FF2846F8BD00F025F8A8420ED238462946FFF793FF044650B131462A46FFF705FC38463146FFF7B8
:4058400045FF01E03046F8BD2046F8BD38B5064C0023054608462360FBF746FA431C02D1236803B12B6038BD2C83FF1F51F8040C0028BEBF091851F8043CC01804387047DC
:40588000000000006469723A2025640D0A0000007269676874206469723A2025640D0A006C656674206469723A2025640D0A00005374617274696E6720726F626F74210D74
:4058C0000A0000004261747465727920566F6C746167653A2025646D760A0D00525353493A00000025640D0A00000000726F626F745F783A00000000726F626F745F793A6A
:4059000000000000726F626F745F6469723A0000004F0040240040510040300000000140001000140140000800400140000A004C01400002105001401000000000500140AB
:40594000DC0E00481000000030313233343536373839414243444546000000001201000202000008B40432F2010001028001000009024300020101C032090400000102026D
:405980000103052400100104240202052406000105240100010705810308000A09040100020A000004070582024000000705030240000000040309042C03430079007000D2
:4059C00072006500730073002000530065006D00690063006F006E0064007500630074006F00720010035500530042005500410052005400380343004400430020004300CA
:405A00006F006D006D0075006E00690063006100740069006F006E00200049006E0074006500720066006100630065002603430044004300200044006100740061002000F5
:405A400049006E00740065007200660061006300650000000203000000008103080002000100820240000A000100030240000A00020A00000100000070590000030000000A
:405A8000585A00000000000000000000000000000000000000000000705A0000010000005C590000000000000000000001000000745A0000010000009C5A000012034D008C
:405AC00053004600540031003000300001000000280000000001040001000000000000000001435955534200000030303030310000000000000000007371727400000000B7
:405B00004300232D302B2000686C4C006566674546470030313233343536373839414243444546003031323334353637383961626364656600000000F8B500BFF8BC08BC4B
:405B40009E4670474D000000D10D0000F8B500BFF8BC08BC9E46704729000000705B00000881FF1FE80000004001000000000000000000000A010000435333303120323065
:405B800031360A0000000000000000000000000000000000000000000000000000000000000000000000000000000000000000000000000000000000030300003083FF1F9D
:405BC00000C2010000000800C201000000080000A120000000000200000000000087930360EA00003C00000000003075010000000000000000000000000000000000000003
:405C000000000000000000000000000000000000005B0000000000000000000000000000000000000000000000000000000000000000000000000000000000000000000009
:405C4000000000000000000000000000000000008881FF1F0000000000000000000000000000000000000000000000000000000000000000000000000000000000000000FD
:405C800000000000000000000000000000000000000000000000000000000000000000000000000000000000000000000000000000000000000000000000000000000000E4
:405CC00000000000000000000000000000000000000000000000000000000000000000000000000000000000000000000000000000000000000000000000000000000000A4
:405D00000000000000000000000000000000000000000000000000000000000000000000000000000000000000000000000000000000000000000000000000000000000063
:405D40000000000000000000000000000000000000000000000000000000000000000000000000000000000000000000000000000000000000000000000000000000000023
:020000040003F7
:0200000480007A
:4000000001450040064F00400A520040015B004007640040026500404A00014038010140560201404D0301404D040140510501405506014054070140580801405009014050
:400040004B0A01404F0B0140470C01403C0D0140010F014064140140531501401C1701404D18014051190140551A0140521B01400940014015410140174201401343014009
:40008000014401400C450140094601400C470140104801400D490140154C0140104D014006500140035101407E0201400A4B0D40164B1950224B0001010108120910100286
:4000C00060806180781079107C402F84820F856F860D890D8B6F8C0F8D38850F887200380101030205300601070C093C0A020C400D160E080F291060112812081314145837
:40010000150C1620173019011B0221012302246026102A782B402D1C2E04300131033204333C3478354036023B025608580459045B045C225D905F0185CF86048730880162
:4001400089FD8A028B028D308E078FC99004919E936094079D73A007A30FA994AA08AB60AC01AE02B3FFB60FBF04D804D904DC02DF010080024403500404056008010B10CA
:400180000F50100811081201140116401720180419011A221D401E021F402088220823502720280829012A402C082D202F40300832123310340136023740380439023A0117
:4001C0003B503C843D083F1058A05B0860086284C0EFC23CC4D7CAADCC97CE7FD60ED80EE2080002010C0518080809140C020D011102120414041E041F02240125182902CE
:400200002C022D013008311C32023401350236043701380839823E443F10540F580459045B045C265D205F01807F84A3850C865C8701880E890B8AF08B048C968E68910C1C
:40024000930296019D07A30FA8FEA908AA01AB01ACC5AE3AB10FB4FFB802BE11C023C105C9FFCAFFCBFFCDA0CF01D018D804D904DA04DB04DC20DD02DF01E040E280E440F9
:40028000E540E680E840EA80EC40ED20EE80008401200211034004C005020604074009080E92120A1548160218081B011D401E401F282102220225012650274029202A0125
:4002C0002D402E1831023340364138043A083B103C403D023F14411043044B4058405D815E2865C069106B01830885048701881089108B408D028E04900491049390950292
:400300009CA09D209F48A044A289A602B104B201C0DFC2B4C4A3CA75CC99CEF6D006D208D6F8E204E602EE0206010704081009020A080E04100811021210150218081A1097
:400340001B011C022302240229022C082E102F08300231013204330634183508360138023A2040234105452E4634470C481F49FF4AFF4BFF4DAF4E074F015018528058049B
:4003800059045A045B045C225D225F016040628064406540668068406A806C406D206E80830184018E0193029501B302B501B601BE40BF10D40FD804D904DB04DC20DD2036
:4003C000DF05000801A004800712080109200B021020120219A21A211E02212C22022718280129602A01312232083604370238083A103E02411043044A204B42503851403B
:4004000052405A405E825F286608670471017D028305870188098C1090089124924093C094809502961098109A119C809D209E029F04A004A103A288A309A508AC40AD018B
:40044000AE0AAF24B110B420B604C0A7C20BC405CA0DCCC7CE86D006D208D6F8D860DE80E281E4040F011301190226012E0231013201340235023F11404549FF4AFF4BFF70
:400480004F0150185401580459045A0B5B0B5C025D995F016040624064406540668068806A806C806E8082088401860287028E108F0193019401960298029A019C019E0259
:4004C000A302A902AA04B008B204B403B502B610B701BA20BF10C054C5ECC720C823C9FFCAFFCBFFCD83CE03CF01D018D608D804D90BDA0BDB04DC92DD99DF01E040E240C8
:40050000E440E540E680E880EA80EC80EE80000802410A251204162219401A041B061E18200221102440270829012B043202362239083A043B403F404101450249084B4120
:400540004E0251015202588559205C405D085F0160086108620163027A807E808420870188018A018B038D08910C92219380948096189704981099039A409C809D409E0A5B
:40058000A004A280A308A401A644A840AB20AD01B224B540C00DC207C4A2CA05CCA1CE1AD081D218D6DFD80FDE81E001E206E422E609E810EE02030808040C0314041508B8
:4005C00019011A011C031D0228022C042D0430043102330135043603370838803E403F404001474049FF4A074BFF4C404D204EF04F0550085280580459045A045B0B5C6162
:400600005D915F01604061A8624063208201840285028604870194049602970499019B02AA01AB04B103B201B406B504B601BE50BF11C056C5ECC702C813C9FFCAFFCBFF6B
:40064000CF01D018D401D80BD904DA0BDB0BDC09DD99DF01E040E240E440E540E680E880EA80EC80EE80000202200420060208080D600E100F041008154016081810198040
:400680001B101D82208424402650271029102F01302032083520368037083A043F014580480949064F045008570159865C40740178027F80803082408310862087058880F0
:4006C0008B888E048F10930194049602980A99209C809D409F40A508A642A708AF08B104B211B310B520B610B701C0CCC2E4C4C2CA14CC76CE82D010D20CD61BDE81E0A47C
:40070000E490E8B0EC10010B03040430051006C9089E090C0A600B010E0F0F1014941507166019081B0120FD220224CF250C2630270228732B0F30FF3310350F3E013F04B1
:400740005608580459045B045C205D905F0182048514872889288B148C018D028E028F01913C951E980299309A019B0C9C019E02A502A801A90CAA02AB30AD01B004B102DD
:40078000B403B501B73CB902BA20BF11D280D40FD804D904DB04DC22DD20DF05009805010601080409080A100E0A1010122B1302160819021C081D101E081F02211422201A
:4007C00024022502270A28142D082E102F023110320836283702381239403B043C183E405A205B405C205E815F08600A6610672074017E088020814A8A108D018E4090107B
:4008000093049406956096029A089C809D429F02A040A209A401A508A616B140B520B640B702C097C2C4C44ECA76CCE6CE7FD6FCD86CDE20E460EA40EE3000FE02010308D4
:40084000050808C509010A3A0D0112011310140E16F01701189619011A68247F270228A329012A5C2F0C3110330434FF350337083E103F40540F580459045B045C205D209D
:400880005F018307840C856086018704880C89618A028B028F8094089537960199049A0FA00BA204A308A807A901AB02AD57B10FB20FB370B580B908D418D604D804D904BD
:4008C000DB04DC22DD10DF010010031004120680081009080C140D080E581208130215281604171818101F20208021052208230425642601280429022A802E102F22301018
:40090000320836063710381039423A043C123D083E805A025C805E205F0A600461406340874089019A08B208C056C276C46ACA7DCCE6CEFFD6F1D80DE080E224E820EE02E8
:40094000E2080201041406080B4C0D210E0A0F4610011323154C172319101C061E081F0120062208231026012704280629212A182B4A2D102E1031013310341E35663601E7
:40098000370E3A203BA03E403F054023410549FF4AFF4BFF4DA04F0150185280580459045A045B0A5C115D925F016040628064406540668068406A806C406D206E808901D4
:4009C000A601AB01B401B701BF40C023C105C52CC640C73EC83BC9FFCAFFCBFFCDAFCE07CF01D018D401D604D804D904DA04DB04DC02DD12DF01E040E280E440E540E68029
:400A0000E840EA80EC40ED20EE800102022003010801098010161301150419101A021E0420402140222423012640282529122B022E20309031843301382039803E1041101B
:400A4000431C47144A024B804C404E024F04562A58405C425F186480710273407808830188808B108D048E2090209124921093809480960E9744987A99029B099C809D1092
:400A80009E2AA082A30AA502A640A812B004B480B510C00DC209C42FCA2FCC0FCE2CD066D218D6F8D880DE02E081E420EA24EE088402862088808A04912492109380948083
:400AC000960A9744987899029B099C049E2AA30AA502A660AC40B080B120B204B480E001E2A0E602E8E0EE0A0004011004FC051C0602072208BC09400A410E0C1243130344
:400B0000143018081CFF1D2C1F11200421302208230C24CF2514263028102C202D092F10311F32803360343F367039083A203E0440124104450B46C0470E481949FF4AFFB5
:400B40004BFF4EF04F44500C56025711580459045A045B045C115D115F0166C06A406B02830186018D029801A001A601B101B401B502B820BA80BF10D804D904DB04DC0161
:400B8000DF01000404040690070A08100C480D020E010F0410401308141015081605170119101A011C041E201F4021112480260127102C202E022F023480360138803B0165
:400BC0003D203E083F024480453046024C20540456205A405E206C106D546E107488760578807980830184448A029240942095C096129D509E0AA040A122A301A60AA70885
:400C0000AE10B108B280B741C0F4C2F2C4FCCAD0CC90CEE9D0B0D628E002E280E420E8D0EC20EE02050209190B0612021319150619091A011D04211F2507260227182906CF
:400C40002B19310832013307351636023B283E404034410142054406450C470E481149FF4AFF4BFF4C624DA04EF04F41500C580459045A045C125D015F0166406702691075
:400C80006A306B106D106E106F12831184088642880389038A6C8B088C258E4A91119322961097039B0CA004A221A40FA503A704A80FAB22B20FB470B50FB730BB20BE102A
:400CC000D608D804D904DB04DC11DD90DF0104100620070508100B800E2010201514168019401B081C101D102104220123182610270229042A122D042E203088311236105E
:400D000037053A043B103D103F0141064203482049104B80520859045B085C205D805E04641066A067056F01814089808A048C208E089114920193809588960297049A143B
:400D40009D409E889F0BA088A102A608A708AB12B111B622C0E0C22AC474CA67CCEFCEA6D00BD20CD670D870E090E420E840EA20EEC830023320340236403B408402CCF092
:400D8000CE10E21004080F1230103208371239105F8087D09740A640A720AC02C020C2A0CCF0CE10D620E010E240E640EE4005021208304037406020614065408420854053
:400DC0008840900895109C109F12A301A648A720C020C440CC30D6C0D840E6101B081D088108835087088A80951099029C109F52A301A640A720B404C630E080E220E44015
:400E0000E680840404800A200C025740800288409C84AC80C001C20CD402E001050298409C84A740B440B610C004EA02EE0808800B400C0483408F4098409C84A740B50244
:400E4000C20EE008EA02280283018810891095109C129E809F02A720AE40B002B301B502CA10E080EE40068007010F011B808B8197019E80AF20B302C0A0C280C640EE107E
:400E8000064009201C021F8035025020644077408420880198409B40AF40C004C202C601CC01D404D801DE04E20112807D8089228E809D02A160AF80B140B240C408DE04FB
:400EC000E001E202E601EC04EE01100711011A061B011C071D0100AB01FF02FF46010000000000004401040146010600A201010001000C008000488282008000000000003A
:400F00004000003030001000C0000000401616001400000038020200020000008AC141000000000000000000000000000000000000000000000000000000000000000000F7
:400F40000000000000000000000000000000000000000000000000000000000000000000000000000000000000000000000000000000000000000000000000000000000071
:400F80000000000000000000000000000000000000000000000000000000000000000000000000000000000000000000000000000000000000000000000000000000000031
:400FC00000000000000000000000000000000000000000000000000000000000000000000000000000000000000000000000000000000000000000000000000000000000F1
:4010000000000000000000000000000000000000000000000000000000000000000000000000000000000000000000000000000000000000000000000000000000000000B0
:0200000490006A
:0400000000004007B5
:0200000490105A
:04000000BC90ACAF55
:0200000490303A
:02000000DB2FF4
:0200000490402A
:4000000000000000000000000000000000000000000000000000000000000000000000000000000000000000000000000000000000000000000000000000000000000000C0
:400040000000000000000000000000000000000000000000000000000000000000000000000000000000000000000000000000000000000000000000000000000000000080
:400080000000000000000000000000000000000000000000000000000000000000000000000000000000000000000000000000000000000000000000000000000000000040
:4000C0000000000000000000000000000000000000000000000000000000000000000000000000000000000000000000000000000000000000000000000000000000000000
:0200000490501A
:0C00000000012E16106900012E3DEB9847
:00000001FF