:400000000080002011000000B9360000B936000080B500AF024A034B1B68136003F078FBBC760040FA46004010B5054C237833B9044B13B10448AFF300800123237010BDC3
:400040004083FF1F0000000020980000084B10B51BB108480849AFF300800848036803B910BD074B002BFBD0BDE81040184700BF00000000209800004483FF1F0881FF1F5D
:4000800000000000B0B586B000AF684B1A88684B1A80684B1A88684B1A8006F0B7F803461A46624B1A8006F037F903461A46614B1A805E4B1B889AB25D4B1B889BB2D31AEB
:4000C0009BB29AB25D4B1A805A4B1B889AB25A4B1B889BB2D31A9BB29AB2594B1A80534B1B881BB2002BB8BF5B4240F6B83293421BDD544B1B78012B17D0524B1B78022B5C
:4001000013D0514B1B78042B0FD04E4B1B78072B0BD0002006F08CF8002006F00FF9434B00221A80434B00221A80484B01221A70454B1B78042B2AD1454B1B889AB23F4B84
:400140001B889BB213449BB29AB2414B1A80404B1B881BB23A4610463E491A4608F0C0FA3B46184606F0ECFB394B1B881BB283EAE372A2EBE372384B1B881BB29A4205DB0C
:4001800000F0D0FC304B00221A704CE04BE02E4B1B78052B47D1314B5B881AB2304B1B881BB2D31A184607F097FC02460B46104619464FF000022B4B07F01EFE02460B4615
:4001C00014461D46254B9B881AB2274B1B881BB2D31A184607F080FC02460B46104619464FF000021F4B07F007FE02460B462046294607F045F8C7E904011C4B1B881BB220
:40020000184607F069FC02460B4610461946D7E9042307F043FF0346002B04D000F082FC094B00221A701837BD46B0BD7483FF1F7883FF1F7683FF1F7A83FF1F7C83FF1FA4
:400240007E83FF1F5D81FF1F9683FF1F7283FF1F8C83FF1F249800008E83FF1F8090FF1F9283FF1F000010409483FF1F1281FF1F80B500AF264B1B78012B15D106F04CF836
:4002800003461A46234B1B881BB2D31A002BB8BF5B42CF2B3BDD00F07BFB1F4B1A781C4B1A7006F0F9FC32E0194B1B78022B15D105F0ACFF03461A46164B1B881BB2D31A18
:4002C000002BB8BF5B42CF2B21DD00F061FB124B1A780F4B1A7006F0DFFC18E00C4B1B78072B14D105F092FF03461A46094B1B881BB2D31A002BB8BF5B42CF2B07DD00F0F1
:4003000047FB054B1A78024B1A7006F0C5FC80BD5D81FF1F8283FF1F5C81FF1F80B500AF054B1B78002B02D0044806F009FB044B00221A7080BD00BF1181FF1F309800003B
:400340005D81FF1F80B500AF054B00221A70054B00221A7006F0F0FE034806F0F1FA80BDBA86FF1F8083FF1F4498000080B582B000AF62B605F022FD05F01EFE05F030FF86
:4003800005F0B4FFAB4806F00BFBAB4806F0EAFC06F08AFBA94806F0EDFBA94806F038FE0020012103F098FC03F036FE0346002B01D003F09DFFA34B1B78002B01D000F03F
:4003C0001BFDA14B1B78002B01D000F035FD0023FB8000F051FD9B4B1B78012B03D100F04FF900F0EFFE3B46184600F047FF974B1B78072B00F2ED8001A252F823F000BF04
:40040000D3050000D3050000D305000021040000D30500005D04000083040000830400008B4B1B78012B18D0894B1B78022B14D03B78012B05D1BB78012B02D100F014FBED
:400440000BE03B79012B05D1BB78012B02D100F027FB02E000F08AFBBBE0BAE07D4B1B78012B0DD17C4B5A887C4B1A807A4B9A887B4B1A80774B02221A7000F049FBA8E029
:40048000A7E0734B1B78012B00F0A280704B1B78022B00F09D806E4B1B78072B00F09880704B1B881A46704B9B5C7B713B78012B02D1BB78012B05D03B79012B4BD1BB78A7
:4004C000012B48D1694B1B78002B43D1FB880133FB80FB88B3F57A7F3CD3644B01221A70634806F02DFA634806F02AFA624B01221A7006F011FE7B794C3B092B22D801A238
:4005000052F823F0330500004505000045050000450500004505000045050000390500002D050000450500003F05000000F012FB09E000F099FA06E000F0B2FA03E000F0F8
:40054000CBFA00E000BF474B1B8801339AB2454B1A803DE03CE03B78002B34D17B78002B31D1BB78002B2ED1FB78002B2BD13B79002B28D17B79552B25D13C4B1B78002B7E
:4005800020D1FB880133FB80FB8842F6DF62934218D93A4806F0D4F9364806F0D1F9364B01221A7006F0B8FD0023FB802F4B01221A7000F091FA2B4B1B8801339AB2294BAD
:4005C0001A8005E004E000F0D1FA0023FB80FFE700BF1F4B1B78072B3FF6FBAE01A252F823F000BF050600000B060000110600001D06000023060000290600002F060000EB
:400600001706000000F0D6F913E000F0F5F910E000F0DEF90DE000F005FA0AE000F0B8F907E000F03FFD04E000F0C6FD01E000F03FFDCEE685000000710200001D0300006C
:40064000450300007183FF1F1181FF1F9683FF1F5D81FF1F9083FF1F8090FF1F9283FF1F9483FF1FB886FF1F9883FF1FBA86FF1F54980000749800008083FF1F889800004A
:4006800080B489B000AF524B1B78012B40F09A804F4B00221A704F4B5B781B029AB24D4B1B789BB213439BB2FB834B4B1B78043B1E2B00F2878001A252F823F039070000D9
:4006C000C50700004D070000C507000055070000C50700005D070000C507000065070000C50700006D070000C507000075070000C50700007D070000C5070000850700001A
:40070000C50700008D070000C507000095070000C50700009D070000C5070000A5070000C5070000AD070000C5070000B5070000C5070000BD070000264B1B78DAB2274B6F
:400740001A70244B5A78254B5A703BE0FA8B234B5A8037E0FA8B214B9A8033E0FA8B1F4BDA802FE0FA8B1D4B1A812BE0FA8B1B4B5A8127E0FA8B194B9A8123E0FA8B174BB1
:40078000DA811FE0FA8B154B1A821BE0FA8B134B5A8217E0FA8B114B9A8213E0FA8B0F4BDA820FE0FA8B0D4B1A830BE0FA8B0B4B5A8307E0FA8B094B9A8303E0FA8B074BDF
:4007C000DA8300BF2437BD465DF8047B704700BF6A83FF1F7C90FF1F9783FF1F2891FF1F80B582B000AF0346FB71FB79184605F0C5FB0837BD4680BD80B582B000AF0346C1
:40080000FB71FB79184605F09BFB0837BD4680BD80B584B000AF114B1B78002B0CBF01230023DBB21A460D4B1A700C4B1B781846FFF7D6FF094B1B781846FFF7DDFF074BE1
:400840001B781A463B461846054907F049FF3B46184606F075F81037BD4680BD7083FF1FA49800000000000080B586B000AFC7E90201C7E90023D7E900014FF000024FF022
:40088000000307F001FC0346002B10D0304B1B78002B0CBF01230023DBB21846FFF7ACFF3B683B607B6883F000437B6004E0284B1B781846FFF7A0FFD7E902014FF0000283
:4008C0004FF0000307F0E0FB0346002B10D0204B1B78002B0CBF01230023DBB21846FFF77FFFBB68BB60FB6883F00043FB6004E0174B1B781846FFF773FFD7E9020112A32D
:40090000D3E9002307F078FA02460B461046194607F0E2FB0346FB82D7E900010AA3D3E9002307F069FA02460B461046194607F0D3FB0346BB82074ABB8A1380064AFB8A49
:4009400013801837BD4680BD969526A5A0DBEF3F7083FF1F8883FF1F8A83FF1FAFF3008080B500AF002005F0CBFA024B00221A8080BD00BF8483FF1F80B500AF002005F04E
:40098000BDFB024B00221A8080BD00BF8683FF1F80B500AF4FF000004FF000014FF000024FF00003FFF760FFFFF7DAFFFFF7E4FF80BD00BF80B500AF044BD3E90001034B36
:4009C000D3E90023FFF750FF80BD00BF6081FF1F80B500AF074BD3E900231046194606F02FFF02460B464FF000004FF00001FFF73BFF80BD6081FF1F80B500AF084BD3E973
:400A000000231046194606F01BFF02460B46104619464FF000024FF00003FFF725FF80BD6081FF1FB0B500AF0E4BD3E90023144683F000452046294622462B4606F000FFA6
:400A400002460B4614461D46064BD3E900231046194606F0F5FE02460B4620462946FFF703FFB0BD6081FF1F80B500AF06F014F9084B1A78084B1A70064B01221A70FFF7E3
:400A80006FFF05F049FC03461A46044B1A8006F0F3F880BD5D81FF1F5C81FF1F8283FF1F80B500AF06F0F8F8084B1A78084B1A70064B02221A70FFF75FFF05F0A7FB034605
:400AC0001A46044B1A8006F0D7F880BD5D81FF1F5C81FF1F8283FF1F80B500AF06F0DCF8084B1A78084B1A70064B07221A70FFF74FFF05F08BFB03461A46044B1A8006F0D6
:400B0000BBF880BD5D81FF1F5C81FF1F8283FF1F80B500AFFFF73CFF014B00221A7080BD5D81FF1F80B400AF034B03221A70BD465DF8047B704700BF5D81FF1F80B400AF59
:400B4000034B04221A70BD465DF8047B704700BF5D81FF1F80B400AF034B05221A70BD465DF8047B704700BF5D81FF1F80B400AF034B06221A70BD465DF8047B704700BFD3
:400B80005D81FF1FB0B582B000AF05F09DFE0346FB71FB79AA2B2BD1224B1B78222B20D1214B224A156854689068D1681D605C609860D960156954699069D1691D615C61D6
:400BC0009861D9611A4B1B78002B0AD105F0D4FA0346DB43DBB2184605F0B0FA144B01221A70104B02221A70124B00221A7016E00C4B1B7803F001030F49FA79CA54094BDE
:400C00001B7803F00103DBB2002B02D0094B01221A70044B1B780133DAB2024B1A700837BD46B0BD9783FF1F8090FF1F2891FF1F9083FF1F6A83FF1F7C90FF1F80B5A6B049
:400C400000AF05F041FE034687F8973097F89730613B192B00F2B68001A252F823F000BFC90C0000C50D0000C50D0000ED0C0000C50D0000F90C0000C50D0000C50D0000F8
:400C8000C50D0000C50D0000C50D0000C50D0000C50D0000C50D0000C50D0000C50D0000290D0000830D0000E10C0000050D0000110D0000C50D0000D50C0000990D000068
:400CC000C50D00001D0D0000FFF7CEFE3F4B00221A7077E0FFF71CFF3C4B00221A7071E0FFF796FD394B00221A706BE0FFF7D8FE364B00221A7065E0FFF714FF334B002229
:400D00001A705FE0314B01221A70FFF717FF59E0FFF720FF2D4B02221A7053E02B4B03221A70FFF723FF4DE0284B04221A70284B00221A80274B1B881BB2184607F0AEFA73
:400D40000246254B1B681046194607F0FBFA0346184607F047FC03469AB2204B1A801F4B1B881BB207F1840210461D491A4607F0B7FC07F18403184605F0E2FDFFF7C8FE91
:400D800020E0124B05221A7000F036F8154B00221A70FFF7C7FE15E00C4B06221A70124B1A78124B1A7001F0B9FD3B1D18461049104A07F095FC3B1D184605F0C1FDFFF775
:400DC000D5FE00BF9837BD4680BD00BF9683FF1F8C83FF1F1281FF1F1481FF1F8E83FF1FB09800009083FF1F6881FF1F2691FF1FC49800009883FF1F80B500AF0B4B002256
:400E00001A7005F093FC05F033FD094B01221A708120012105F0F4FF064805F075FC05F0CBFC002005F0ACFD80BD00BF1181FF1F7183FF1F850B000080B500AF0B4B0022FB
:400E40001A7005F073FC05F013FD094B01221A704FF44370012105F0D3FF064805F054FC05F0AAFC012005F08BFD80BD7183FF1F1181FF1F3D0C0000B0B588B000AF814B73
:400E80001B78002B00D1FAE07E4B00221A707E4B1B88FB817D4B1B88BB814FF000027C4BC7E906234FF00002794BC7E90423B7F90E30002B0DD1B7F90C30002B09D14FF0E1
:400EC0000002734BC7E906234FF00002704BC7E90423704B1B881AB2B7F90E30002BB8BF5B42D31ABB60BB6883EAE372A2EBE372BB6892FBF3F3184606F0EEFD04460D46EE
:400F0000BB68002BB8BF5B42184606F0E5FD02460B461046194606F00BFA02460B462046294606F03FFE02460B461046194607F0D3F803467B60584B1B881BB2184606F094
:400F4000CBFD04460D46786806F0C6FD02460B4610461946D7E9062306F024FE02460B462046294606F06CFC02460B461046194607F0B2F803469AB2474B1A80474B1B8873
:400F80001AB2B7F90C30002BB8BF5B42D31ABB60BB6883EAE372A2EBE372BB6892FBF3F3184606F099FD04460D46BB68002BB8BF5B42184606F090FD02460B4610461946BD
:400FC00006F0B6F902460B462046294606F0EAFD02460B461046194607F07EF803467B602F4B1B881BB2184606F076FD04460D46786806F071FD02460B4610461946D7E982
:40100000042306F0CFFD02460B462046294606F017FC02460B461046194607F05DF803469AB21F4B1A801E4B1B881BB2002B02DA1B4B00221A80184B1B881BB2002B02DA41
:40104000154B00221A80164B1B881BB2642B02DD134B64221A80104B1B881BB2642B02DD0D4B64221A800C4B1B88DBB2184604F047FF0B4B1B88DBB2184605F03FF8203760
:40108000BD46B0BD7283FF1F7C83FF1F7E83FF1F0000F03F8883FF1F8483FF1F8A83FF1F8683FF1F80B400AFBD465DF8047B70472DE9B04382B000AF05F086FF0346FB7118
:4010C00005F08EFF0346BB7105F072FF03467B71FB79002B27D0BB79002B24D17B79002B21D1334BD3E90023104619462EA3D3E9002306F081FE02460B4614461D462C4B5F
:40110000D3E90023904683F000494046494626A3D3E9002306F070FE02460B4620462946FFF7A2FB3BE0BB79002B27D07B79002B24D1FB79002B21D11D4BD3E90023144665
:4011400083F000452046294617A3D3E9002306F053FE02460B4614461D46154BD3E900231046194610A3D3E9002306F045FE02460B4620462946FFF777FB10E07B79002B08
:401180000DD0BB79002B0AD1FB79002B07D1084BD3E90001064BD3E90023FFF765FB0837BD46BDE8B08300BF9A9999999999F93F6081FF1FAFF3008080B400AFBD465DF807
:4011C000047B704780B584B000AF254B1B78012B42D1234B00221A70224800F075F8224B1B785BB23A46104620491A4607F078FA3B46184600F068F81D4800F065F81A4B23
:401200005B881BB23A46104618491A4607F068FA3B46184600F058F8164800F055F8124B9B881BB23A46104610491A4607F058FA3B46184600F048F80F4800F045F80A4B47
:40124000DB881BB23A46104608491A4607F048FA3B46184600F038F81037BD4680BD00BF6E83FF1FE49800008090FF1FEC980000F4980000009900000C99000090B583B0BA
:4012800000AF786005F088FE03461A467B681A707B685C1C05F098FE034623707B689C1C05F086FE034623707B68DC1C05F098FE034623707B681C1D05F09EFE0346237099
:4012C0000C37BD4690BD00BF80B584B000AF7860154B1B78002B23D00023FB600AE0FB680133FB60FB68114A934203D10E4B00221A7015E003F086F80346002BEFD07B6859
:401300003F3300221A707B683E3321221A70786807F00AFA03469BB27868194603F03CF81037BD4680BD00BF1881FF1FC0C62D00B0B5ADF5C25D82B000AF07F128041C3C64
:40134000206007F10800016007F1080104390A6007F10802083A1360002307F5C25202F107021370FDE0002307F5C25202F106021370E3E007F5C25303F10703197807F58E
:40138000C25303F10603187807F5C25303F107031A781346DB0013445B001A4407F128031C3B1B681A4407F5C25303F106031B78D45C07F5CD62083A0B46DB000B445B0037
:4013C0000B4403441B01134422461A7007F5C25303F10703197807F5C25303F10603187807F5CD62083A0B46DB000B445B000B4403441B01134400225A7007F5C25303F177
:401400000703197807F5C25303F10603187807F5CD62083A0B46DB000B445B000B4403441B0113440A225A8007F5C25303F10703197807F5C25303F10603187807F5CD62B8
:40144000083A0B46DB000B445B000B4403441B01134407F5C25202F1070212785A7107F5C25303F10703197807F5C25303F10603187807F5CD62083A0B46DB000B445B0069
:401480000B4403441B01134407F5C25202F1060212781A7107F5C25303F10703197807F5C25303F10603187807F5CD62083A0B46DB000B445B000B4403441B01134408333E
:4014C00000221A6007F5C25303F10703197807F5C25303F10603187807F5CD62083A0B46DB000B445B000B4403441B01134408334FF6FF729A8007F5C25303F1070319781B
:4015000007F5C25303F10603187807F5CD62083A0B46DB000B445B000B4403441B011344083300229A7107F5C25303F106031B78013307F5C25202F10602137007F5C253E5
:4015400003F106031B78122B7FF614AF07F5C25303F107031B78013307F5C25202F10702137007F5C25303F107031B780E2B7FF6FAAE07F10803083B1B681A7807F5CD6382
:401580000C3B1A7007F10803083B1B685A7807F5CD630C3B5A70002307F5C25202F10502137007F128030C3B1A464FF4C863104600211A4607F073F807F12803103B0022D1
:4015C0001A80002307F5C15202F113021370002307F5C25202F104021370002307F5C25202F103021370002307F5C15202F11002138007F12803143B00221A7007F128032C
:40160000143B00225A70002307F5C25202F10202137007F12803183B00221A80002307F5C2521380012307F5C15202F11F02137007F5CD630C3B1B78194607F5CD630C3B28
:401640005B78184607F5CD62083A0B46DB000B445B000B4403441B011344083300229A8007F5CD630C3B1B78194607F5CD630C3B5B781C4607F5CD630C3B1B78184607F509
:40168000CD630C3B5B781D4607F5CD62083A0346DB0003445B0003442B441B01D01807F5CD62083A0B46DB000B445B000B4423441B0113440833186007F5CD630C3B1B786B
:4016C000194607F5CD630C3B5B781C46414B187807F5CD62083A0B46DB000B445B000B4423441B011344083302469A71C2E2012307F5C25202F10302137007F5CD630C3B07
:401700001B78194607F5CD630C3B5B78184607F5CD62083A0B46DB000B445B000B4403441B01134401225A7097E1002307F5C25202F10402137007F5C25303F103031B7815
:40174000012B12D107F5CD630C3B1B78013BDAB207F12803103B1A7007F5CD630C3B5A7807F12803103B5A704FE007F5C25303F103031B78022B12D107F5CD630C3B1A7835
:4017800007F12803103B1A7007F5CD630C3B5B780133DAB207F12803103B5A7035E007F5C25303F103031B78032B15D107F5CD630C3B1B780133DAB207F12803103B1A706E
:4017C00007F5CD630C3B5A7807F12803103B5A701BE000BF6881FF1F07F5C25303F103031B78042B11D107F5CD630C3B1A7807F12803103B1A7007F5CD630C3B5B78013B7D
:40180000DAB207F12803103B5A70A14B1B7807F5C25202F1030212789A4205D0002307F5C25202F10402137007F12803103B1B780F2B00F2078107F12803103B5B78132B3F
:4018400000F2008107F12803103B1B78194607F12803103B5B78184607F5CD62083A0B46DB000B445B000B4403441B0113441B78002B40F0E78007F5CD630C3B1B781946F0
:4018800007F5CD630C3B5B78184607F5CD62083A0B46DB000B445B000B4403441B0113440833988807F12803103B1B78194607F12803103B5B781C4607F5CD62083A0B461C
:4018C000DB000B445B000B4423441B0113445B8803449AB207F5C25303F104031B789BB2134407F5C15202F11002138007F12803103B1B78194607F12803103B5B781846DB
:4019000007F5CD62083A0B46DB000B445B000B4403441B01134408339B8807F5C15202F1100212889A4280F08D8007F12803103B1B78194607F12803103B5B78184607F5FB
:40194000CD62083A0B46DB000B445B000B4403441B011344083307F5C15202F1100212889A8007F12803103B1B78194607F12803103B5B781C4607F5CD630C3B1B781846AD
:4019800007F5CD630C3B5B781D4607F5CD62083A0346DB0003445B0003442B441B01D01807F5CD62083A0B46DB000B445B000B4423441B0113440833186007F5C25303F16D
:4019C00005031A7807F12803103B197807F128030C3B03F8121007F5C25303F10503197807F12803103B587807F128020C3A4B00134402465A7007F12803103B1B7819466F
:401A000007F12803103B5B78184607F5CD62083A0B46DB000B445B000B4403441B011344083307F5C25202F1030212789A7107F5C25303F105031B78013307F5C25202F10C
:401A40000502137007F5C25303F103031B78013307F5C25202F10302137007F5C25303F103031B78042B7FF660AE4FF6FF7307F5C2521380002307F5C15202F11F0213700C
:401A8000002307F5C15202F118021360AFE000BF6881FF1F07F128030C3B07F5C15202F11802126813F8122007F12803183B1A7007F128020C3A07F5C15303F118031B68D8
:401AC0005B0013445A7807F12803183B5A7007F128030C3B07F5C15202F11802126813F81230194607F128020C3A07F5C15303F118031B685B0013445B78184607F5CD625E
:401B0000083A0B46DB000B445B000B4403441B01134408339B8807F5C25212889A425BD907F128030C3B07F5C15202F11802126813F81230194607F128020C3A07F5C15348
:401B400003F118031B685B0013445B78184607F5CD62083A0B46DB000B445B000B4403441B0113445B78002B36D107F128030C3B07F5C15202F11802126813F812301946F3
:401B800007F128020C3A07F5C15303F118031B685B0013445B78184607F5CD62083A0B46DB000B445B000B4403441B01134408339B8807F5C252138007F5C15303F11803CC
:401BC0001B6807F5C25202F102021370012307F5C15202F11F02137007F5C15303F118031B68013307F5C15202F11802136007F5C25303F105031A7807F5C15303F11803EB
:401C00001B689A423FF746AF07F5C25303F102031A7807F128030C3B13F8122007F5CD630C3B1A7007F5C25303F102031B7807F128020C3A5B0013445A7807F5CD630C3BDE
:401C40005A7007F5CD630C3B1B78194607F5CD630C3B5B78184607F5CD62083A0B46DB000B445B000B4403441B01134408339A79A04B1A7007F5CD630C3B1A7807F5C2536C
:401C800003F118031B681B789A420CD107F5CD630C3B5A7807F5C25303F118031B6801331B789A4207D007F5C15303F11F031B78012B3FF41CAD002307F5C25202F10302D8
:401CC000137007F5CD630C3B1A7807F5C25303F118031B681B789A4240F0048107F5CD630C3B5A7807F5C25303F118031B6801331B789A4240F0F68007F5CD630C3B1B785E
:401D0000194607F5CD630C3B5B78184607F5CD62083A0B46DB000B445B000B4403441B01134407F5C15202F11402136066E007F5C25303F103031A7813465B001A4407F1DC
:401D40000803043B1B68134407F5C15202F11402126852791A7007F5C25303F103031A7813465B001A4407F10803043B1B68134407F5C15202F11402126812795A7007F5AA
:401D8000C25303F103031A7813465B001A4407F10803043B1B68981807F5C15303F114031B685B79194607F5C15303F114031B681B791C4607F5CD62083A0B46DB000B44AE
:401DC0005B000B4423441B01134408339B79837007F5C15303F114031B689B6807F5C15202F11402136007F5C25303F103031B78013307F5C25202F10302137007F5C15384
:401E000003F114031B685A7907F10803083B1B681B789A428BD107F5C15303F114031B681A7907F10803083B1B6801331B789A427FF47DAF07F5C25303F103031A7813467B
:401E40005B001A4407F10803043B1B68134407F5C15202F11402126852791A7007F5C25303F103031A7813465B001A4407F10803043B1B68134407F5C15202F11402126849
:401E800012795A7007F5C25303F103031A7813465B001A4407F10803043B1B68981807F5C15303F114031B685B79194607F5C15303F114031B681B791C4607F5CD62083AD7
:401EC0000B46DB000B445B000B4423441B01134408339B79837007F5C25303F103031B789BB200E00023184607F5C2570837BD46B0BD00BF6881FF1FB0B5ADF5C25D82B073
:401F000000AF07F128041C3C206007F10800016007F1080104390A6007F10802083A1360002307F5C25202F107021370FCE0002307F5C25202F106021370E2E007F5C25324
:401F400003F10703197807F5C25303F10603187807F5C25303F107031A781346DB0013445B001A4407F128031C3B1B681A4407F5C25303F106031B78D45C07F5CD62043ABA
:401F80000B46DB000B445B000B4403441B01134422461A7007F5C25303F10703197807F5C25303F10603187807F5CD62043A0B46DB000B445B000B4403441B0113440022A8
:401FC0005A7007F5C25303F10703197807F5C25303F10603187807F5CD62043A0B46DB000B445B000B4403441B0113440A225A8007F5C25303F10703197807F5C25303F1E6
:402000000603187807F5CD62043A0B46DB000B445B000B4403441B01134407F5C25202F1070212785A7107F5C25303F10703197807F5C25303F10603187807F5CD62043AB7
:402040000B46DB000B445B000B4403441B01134407F5C25202F1060212781A7107F5C25303F10703197807F5C25303F10603187807F5CD62043A0B46DB000B445B000B4495
:4020800003441B011344083300221A6007F5C25303F10703197807F5C25303F10603187807F5CD62043A0B46DB000B445B000B4403441B011344083300229A8007F5C25381
:4020C00003F10703197807F5C25303F10603187807F5CD62043A0B46DB000B445B000B4403441B011344083300229A7107F5C25303F106031B78013307F5C25202F1060223
:40210000137007F5C25303F106031B78122B7FF615AF07F5C25303F107031B78013307F5C25202F10702137007F5C25303F107031B780E2B7FF6FBAE07F10803083B1B68DE
:402140001A7807F5CD63083B1A7007F10803083B1B685A7807F5CD63083B5A70002307F5C25202F10502137007F12803083B1A464FF4C863104600211A4606F090FA07F1CD
:4021800028030C3B00221A80002307F5C15202F117021370002307F5C25202F104021370002307F5C25202F103021370002307F5C15202F11402138007F12803103B002275
:4021C0001A7007F12803103B00225A70002307F5C25202F10202137007F12803143B00221A80002307F5C25202F101021370012307F5C252137007F5CD63083B1B7819465C
:4022000007F5CD63083B5B78184607F5CD62043A0B46DB000B445B000B4403441B011344083300229A8007F5CD63083B1B78194607F5CD63083B5B781C4607F5CD63083BCB
:402240001B78184607F5CD63083B5B781D4607F5CD62043A0346DB0003445B0003442B441B01D01807F5CD62043A0B46DB000B445B000B4423441B0113440833186007F5C8
:40228000CD63083B1B78194607F5CD63083B5B78184607F5CD62043A0B46DB000B445B000B4403441B011344083307F5C25202F11C0212789A71002307F5C15202F11C029D
:4022C000136018E3012307F5C25202F10302137007F5CD63083B1B78194607F5CD63083B5B78184607F5CD62043A0B46DB000B445B000B4403441B01134401225A7097E113
:40230000002307F5C25202F10402137007F5C25303F103031B78012B12D107F5CD63083B1B78013BDAB207F128030C3B1A7007F5CD63083B5A7807F128030C3B5A704CE0E2
:4023400007F5C25303F103031B78022B12D107F5CD63083B1A7807F128030C3B1A7007F5CD63083B5B780133DAB207F128030C3B5A7032E007F5C25303F103031B78032BA6
:4023800012D107F5CD63083B1B780133DAB207F128030C3B1A7007F5CD63083B5A7807F128030C3B5A7018E007F5C25303F103031B78042B11D107F5CD63083B1A7807F16F
:4023C00028030C3B1A7007F5CD63083B5B78013BDAB207F128030C3B5A7007F5C25303F103031A7807F5C25303F11C031B789A4205D0002307F5C25202F10402137007F1F7
:4024000028030C3B1B780F2B00F2078107F128030C3B5B78132B00F2008107F128030C3B1B78194607F128030C3B5B78184607F5CD62043A0B46DB000B445B000B44034429
:402440001B0113441B78002B40F0E78007F5CD63083B1B78194607F5CD63083B5B78184607F5CD62043A0B46DB000B445B000B4403441B0113440833988807F128030C3B86
:402480001B78194607F128030C3B5B781C4607F5CD62043A0B46DB000B445B000B4423441B0113445B8803449AB207F5C25303F104031B789BB2134407F5C15202F1140252
:4024C000138007F128030C3B1B78194607F128030C3B5B78184607F5CD62043A0B46DB000B445B000B4403441B01134408339B8807F5C15202F1140212889A4240F28D80DF
:4025000007F128030C3B1B78194607F128030C3B5B78184607F5CD62043A0B46DB000B445B000B4403441B011344083307F5C15202F1140212889A8007F128030C3B1B7858
:40254000194607F128030C3B5B781C4607F5CD63083B1B78184607F5CD63083B5B781D4607F5CD62043A0346DB0003445B0003442B441B01D01807F5CD62043A0B46DB00DA
:402580000B445B000B4423441B0113440833186007F5C25303F105031A7807F128030C3B197807F12803083B03F8121007F5C25303F10503197807F128030C3B587807F1A8
:4025C0002802083A4B00134402465A7007F128030C3B1B78194607F128030C3B5B78184607F5CD62043A0B46DB000B445B000B4403441B011344083307F5C25202F1030239
:4026000012789A7107F5C25303F105031B78013307F5C25202F10502137007F5C25303F103031B78013307F5C25202F10302137007F5C25303F103031B78042B7FF660AEF7
:40264000002307F5C25202F101021370002307F5C2521370002307F5C15202F118021360AFE007F12803083B07F5C15202F11802126813F8122007F12803143B1A7007F18A
:402680002802083A07F5C15303F118031B685B0013445A7807F12803143B5A7007F12803083B07F5C15202F11802126813F81230194607F12802083A07F5C15303F1180321
:4026C0001B685B0013445B78184607F5CD62043A0B46DB000B445B000B4403441B01134408339A8807F5C25303F101031B789BB29A425BD907F12803083B07F5C15202F16E
:402700001802126813F81230194607F12802083A07F5C15303F118031B685B0013445B78184607F5CD62043A0B46DB000B445B000B4403441B0113445B78002B36D107F12B
:402740002803083B07F5C15202F11802126813F81230194607F12802083A07F5C15303F118031B685B0013445B78184607F5CD62043A0B46DB000B445B000B4403441B01CF
:40278000134408339B8807F5C25202F10102137007F5C15303F118031B6807F5C25202F102021370012307F5C252137007F5C15303F118031B68013307F5C15202F1180206
:4027C000136007F5C25303F105031A7807F5C15303F118031B689A423FF743AF07F5C25303F102031A7807F12803083B13F8122007F5CD63083B1A7007F5C25303F10203DF
:402800001B7807F12802083A5B0013445A7807F5CD63083B5A7007F5CD63083B1B78194607F5CD63083B5B78184607F5CD62043A0B46DB000B445B000B4403441B0113449B
:4028400008339B7907F5C25202F11C02137007F5C15303F11C031A6813465B001A4407F10803043B1B681A4407F5CD63083B1B78137007F5C15303F11C031A6813465B00AD
:402880001A4407F10803043B1B681A4407F5CD63083B5B78537007F5C15303F11C031A6813465B001A4407F10803043B1B68981807F5CD63083B1B78194607F5CD63083B96
:4028C0005B781C4607F5CD62043A0B46DB000B445B000B4423441B01134408339B79837007F5C15303F11C031B68013307F5C15202F11C02136007F5C2531B78012B3FF489
:40290000E1AC07F5C15303F11C031B689BB2184607F5C2570837BD46B0BD00BF90B5ADF68C1D02AF964B1B78964A0092019396489649974A974BFFF7DFFA0346C7F870397A
:402940000023A7F87E390023C7F8783900F09CBE8F49D7F8782913465B0013440B441B785C1C8B49D7F8782913465B0013440B4401331B780133884821461A4605F098FE99
:40298000D7F878395A1C824913465B0013440B441B7818467E49D7F8782913465B0013440B441B780133984215D1D7F878395A1C774913465B0013440B4401331978744862
:4029C000D7F8782913465B001344034401331B78994200F0AF83D7F878395A1C6C4913465B0013440B441B7818466949D7F8782913465B0013440B441B78013B984215D150
:402A0000D7F878395A1C624913465B0013440B44013319785E48D7F8782913465B001344034401331B78994200F08483D7F878395A1C574913465B0013440B4401331B781E
:402A400018465349D7F8782913465B0013440B4401331B78013B984213D1D7F878395A1C4B4913465B0013440B4419784848D7F8782913465B00134403441B78994200F0AC
:402A80005983D7F878395A1C414913465B0013440B4401331B7818463D49D7F8782913465B0013440B4401331B780133984213D1D7F878395A1C364913465B0013440B4463
:402AC00019783348D7F8782913465B00134403441B78994200F02E833B1D1A464FF41663104600211A4605F0DAFD2949D7F8782913465B0013440B441B7887F86839244986
:402B0000D7F8782913465B0013440B4401331B7887F86939D7F878395A1C1D4913465B0013440B441B7887F86439D7F878395A1C174913465B0013440B4401331B7887F888
:402B400065391349D7F8782913465B0013440B4402331A780A4B1A703A1D07F6681407F664130093084809492346FEF7E1FB0346C7F86C39D7F86C39C7F87439D5E200BF35
:402B80006881FF1F7081FF1F7481FF1F9482FF1FBC86FF1F6C81FF1F18990000391DD7F8742913465B0013440B441B785C1C391DD7F8742913465B0013440B4401331B7892
:402BC0000133B04821461A4605F072FD391DD7F8742913465B0013440B4402331B78012B0BD0391DD7F8742913465B0013440B4402331B78032B40F04B81391DD7F87429C3
:402C000013465B0013440B441B781A46381DD7F874190B465B000B44034401331B78591E99481346DB0013445B0013440B4403441B78002B1ED0391DD7F8742913465B0040
:402C400013440B441B781A46381DD7F874190B465B000B44034401331B78591C8A481346DB0013445B0013440B4403441B78002B40F0CE80391DD7F8742913465B001344DE
:402C80000B4402331978D7F874395A1E381D13465B001344034402331B78994200F0AC80391DD7F8742913465B0013440B4402331B78012B0BD1D7F874395A1E391D134616
:402CC0005B0013440B4402331B78042B16D0391DD7F8742913465B0013440B4402331B78032B16D1D7F874395A1E391D13465B0013440B4402331B78022B0AD1B7F87E3923
:402D0000624A4C21D154B7F87E390133A7F87E3971E0391DD7F8742913465B0013440B4402331B78012B0BD1D7F874395A1E391D13465B0013440B4402331B78022B16D0A9
:402D4000391DD7F8742913465B0013440B4402331B78032B16D1D7F874395A1E391D13465B0013440B4402331B78042B0AD1B7F87E39464A5221D154B7F87E390133A7F81D
:402D80007E3938E0391DD7F8742913465B0013440B4402331B78012B0BD1D7F874395A1E391D13465B0013440B4402331B78032B16D0391DD7F8742913465B0013440B44BC
:402DC00002331B78032B22D1D7F874395A1E391D13465B0013440B4402331B78012B16D1B7F87E39294A5521D154B7F87E390133A7F87E390BE00AE0B7F87E39234A5321EB
:402E0000D154B7F87E390133A7F87E3939E038E0391DD7F8742913465B0013440B4402331B78012B0BD1D7F874395A1E391D13465B0013440B4402331B78032B16D0391D8A
:402E4000D7F8742913465B0013440B4402331B78032B16D1D7F874395A1E391D13465B0013440B4402331B78012B0AD1B7F87E39064A5521D154B7F87E390133A7F87E39FB
:402E80004EE14DE1189900007481FF1F9883FF1F391DD7F8742913465B0013440B441B785A1E381DD7F874190B465B000B44034401331B7818467C491346DB0013445B00CE
:402EC000134403440B441B78002B1ED0391DD7F8742913465B0013440B441B785A1C381DD7F874190B465B000B44034401331B7818466D491346DB0013445B0013440344C2
:402F00000B441B78002B40F0D380391DD7F8742913465B0013440B4402331978D7F874395A1E381D13465B001344034402331B78994200F0AC80391DD7F8742913465B004F
:402F400013440B4402331B78042B0BD1D7F874395A1E391D13465B0013440B4402331B78032B16D0391DD7F8742913465B0013440B4402331B78022B16D1D7F874395A1E6C
:402F8000391D13465B0013440B4402331B78012B0AD1B7F87E39454A4C21D154B7F87E390133A7F87E3971E0391DD7F8742913465B0013440B4402331B78042B0BD1D7F80C
:402FC00074395A1E391D13465B0013440B4402331B78012B16D0391DD7F8742913465B0013440B4402331B78022B16D1D7F874395A1E391D13465B0013440B4402331B78BE
:40300000032B0AD1B7F87E39284A5221D154B7F87E390133A7F87E3938E0391DD7F8742913465B0013440B4402331B78042B0BD1D7F874395A1E391D13465B0013440B447C
:4030400002331B78022B16D0391DD7F8742913465B0013440B4402331B78022B22D1D7F874395A1E391D13465B0013440B4402331B78042B16D1B7F87E390C4A5521D15498
:40308000B7F87E390133A7F87E390BE00AE0B7F87E39064A5321D154B7F87E390133A7F87E393DE03CE000BF7481FF1F9883FF1F391DD7F8742913465B0013440B44023377
:4030C0001B78042B0BD1D7F874395A1E391D13465B0013440B4402331B78022B16D0391DD7F8742913465B0013440B4402331B78022B15D1D7F874395A1E391D13465B00BE
:4031000013440B4402331B78042B09D1B7F87E39B64A5521D154B7F87E390133A7F87E39D7F87439013BC7F87439D7F87439002B3FF734ADAE49D7F8782913465B001344D3
:403140000B4402331B78012B0BD0A949D7F8782913465B0013440B4402331B78032B40F04B81A349D7F8782913465B0013440B441B781A469E48D7F878190B465B000B4499
:40318000034401331B78591E9A481346DB0013445B0013440B4403441B78002B1ED09449D7F8782913465B0013440B441B781A468F48D7F878190B465B000B4403440133E2
:4031C0001B78591C8B481346DB0013445B0013440B4403441B78002B40F0CE808449D7F8782913465B0013440B4402331978D7F878395A1C7E4813465B0013440344023345
:403200001B78994200F0AC807949D7F8782913465B0013440B4402331B78012B0BD1D7F878395A1C724913465B0013440B4402331B78042B16D06E49D7F8782913465B00E5
:4032400013440B4402331B78032B16D1D7F878395A1C674913465B0013440B4402331B78022B0AD1B7F87E39604A4C21D154B7F87E390133A7F87E3971E05D49D7F8782902
:4032800013465B0013440B4402331B78012B0BD1D7F878395A1C564913465B0013440B4402331B78022B16D05149D7F8782913465B0013440B4402331B78032B16D1D7F80A
:4032C00078395A1C4A4913465B0013440B4402331B78042B0AD1B7F87E39444A5221D154B7F87E390133A7F87E3938E04049D7F8782913465B0013440B4402331B78012B0D
:403300000BD1D7F878395A1C394913465B0013440B4402331B78032B16D03549D7F8782913465B0013440B4402331B78032B22D1D7F878395A1C2E4913465B0013440B440B
:4033400002331B78012B16D1B7F87E39274A5521D154B7F87E390133A7F87E390BE00AE0B7F87E39214A5321D154B7F87E390133A7F87E3939E038E01D49D7F87829134681
:403380005B0013440B4402331B78012B0BD1D7F878395A1C164913465B0013440B4402331B78032B16D01249D7F8782913465B0013440B4402331B78032B16D1D7F878392F
:4033C0005A1C0B4913465B0013440B4402331B78012B0AD1B7F87E39044A5521D154B7F87E390133A7F87E3949E148E19883FF1FBC86FF1F7481FF1FAC49D7F878291346DE
:403400005B0013440B441B785A1EA848D7F878190B465B000B44034401331B781846A4491346DB0013445B00134403440B441B78002B1ED09D49D7F8782913465B001344FC
:403440000B441B785A1C9948D7F878190B465B000B44034401331B78184695491346DB0013445B00134403440B441B78002B40F0CE808E49D7F8782913465B0013440B44BE
:4034800002331978D7F878395A1C884813465B001344034402331B78994200F0AC808349D7F8782913465B0013440B4402331B78042B0BD1D7F878395A1C7C4913465B0097
:4034C00013440B4402331B78032B16D07749D7F8782913465B0013440B4402331B78022B16D1D7F878395A1C704913465B0013440B4402331B78012B0AD1B7F87E396D4AEF
:403500004C21D154B7F87E390133A7F87E3971E06649D7F8782913465B0013440B4402331B78042B0BD1D7F878395A1C5F4913465B0013440B4402331B78012B16D05B49F6
:40354000D7F8782913465B0013440B4402331B78022B16D1D7F878395A1C544913465B0013440B4402331B78032B0AD1B7F87E39504A5221D154B7F87E390133A7F87E395F
:4035800038E04A49D7F8782913465B0013440B4402331B78042B0BD1D7F878395A1C434913465B0013440B4402331B78022B16D03E49D7F8782913465B0013440B44023386
:4035C0001B78022B22D1D7F878395A1C374913465B0013440B4402331B78042B16D1B7F87E39344A5521D154B7F87E390133A7F87E390BE00AE0B7F87E392E4A5321D154AF
:40360000B7F87E390133A7F87E3938E037E02749D7F8782913465B0013440B4402331B78042B0BD1D7F878395A1C204913465B0013440B4402331B78022B16D01B49D7F897
:40364000782913465B0013440B4402331B78022B15D1D7F878395A1C144913465B0013440B4402331B78042B09D1B7F87E39114A5521D154B7F87E390133A7F87E39D7F8DB
:4036800078390133C7F87839D7F87829D7F870399A42FFF65DA9B7F87E39064A0021D1540023184607F68417BD4690BDBC86FF1F7481FF1F9883FF1F80B400AFFEE700BF5E
:4036C00080B584B000AF78600F4B1A687B6813441A460E4BD31A802B09DC0B4B1B68FB60094B1A687B681344074A136007E004F09FFF02460C2313604FF0FF33FB60FB68F4
:4037000018461037BD4680BDA882FF1F2892FF1F80B586B000AF224B7B61224B3B61204B7B6135E03B691B68FB603B695B68BB603B699B683B6000237B600CE0FB681A68A7
:40374000BB681A60BB680433BB60FB680433FB607B6804337B607A683B689A42EED13B69DB683B6000237B6008E0BB6800221A60BB680433BB607B6804337B607A683B6817
:403780009A42F2D13B6910333B617B69013B7B617B69002BC6D104F051FFFCF7E7FDFEE7010000001C9C000080B582B000AF174B174A1A60174A174B1B6843F400731360D6
:4037C00000237B600FE07B68032B04D8124A7B6852F8233000E0114B11497A6841F822307B6801337B607B682F2BECD90D4B1B78DAB20D4B1A700D4B094A1A6000F098F91D
:403800000B4B00221A600837BD4680BD0CED00E00004FA0514ED00E000000000B93600000080FF1FBC7600400481FF1F08ED00E00081FF1F80B582B000AF786039607868DD
:4038400000213A6804F02BFF0837BD4680BD00BF80B584B000AFF860B9607A60F868B9687A6804F011FF1037BD4680BD80B483B000AF0346FB71FEE780B487B000AF786036
:40388000396000233B6100237B6127E07B699B007A6813441B68BB60BB68FB73BB6823F0FF03BB6014E03B695B003A6813441B781A46BB68134419463B695B003A681344C0
:4038C0005B780B703B6901333B61FB7B013BFB73FB7B002BE7D17B6901337B617B69292BD4D91C37BD465DF8047B704780B582B000AF444B0F221A80434B1B221A70434B80
:4039000081221A80424B18221A70424B04221A80414B18221A70414B3B221A80404B18221A70404B3B221A803F4B18221A703F4B00221A803E4B1B221A703E4B01221A80DE
:403940003D4B1B221A703D4B40F69F721A803C4B1B221A703B4B06221A703B4B52221A703A4B3B4A1278D2B21A703A4B40F619121A80394B41F251221A800023FB701923D5
:403980007B6014E0FB785B00DAB2344B1B78DBB203F00103DBB21343DBB203F00303FB704FF4F07002F030F97B68013B7B607B68002B02D0FB78032BE4D17B68002B02D1A5
:4039C0000320FFF753FF264B4FF480721A80244B07221A70234B00221A70234B48221A701F4B00221A70214B00221A70204B02221A70204B1B781F4BFF221A700837BD46E2
:403A000080BD00BF80400040824000408440004086400040884000408A4000408C4000408E40004090400040924000409440004096400040984000409A4000409C400040B8
:403A40009E4000400043004000420040A14600400F0100492242004020420040254200400440004006400040084000400940004001400040A243004080B582B000AF204B74
:403A80001B78FB711F4B1B78BB711F4B1B787B711E4AFB7903F00703DBB213701C4AFB791B09DBB21370174ABB7943F00303DBB21370154A7B7943F00303DBB21370154B24
:403AC00008221A70144B40221A70144B40221A70134B80221A70134B20221A70124B80221A700A2002F0ACF8074A7B791370054ABB7913700D4B44221A700837BD4680BDEA
:403B0000CF010049F8460040F94600406E5800406F5800400D510040095900400B590040285B00402B5B0040585B00407658004080B586B000AF72B64F4B61221A70FFF715
:403B4000D5FE4D4B01221A700023FB7513E0FA7D13465B0013445B00484A13443B613B691A683B699B889BB210461946FFF762FEFB7D0133FB75FB7D072BE8D90023FB75E6
:403B80001CE0FA7D13469B0013445B003C4A1344FB60FB681B68BB60FB685B687B60FB681A7A5B7A1B0213437B807B88B86879681A46FFF74DFEFB7D0133FB75FB7D022B12
:403BC000DFD94FF090402F49FFF756FE2E4A2E4B1B78DBB243F00203DBB213702B4A2B4B1B78DBB243F00203DBB21370284A284B1B78DBB243F04003DBB21370254A254B26
:403C00001B78DBB243F01003DBB21370224823490822FFF71DFE224822490A22FFF718FE214822490A22FFF713FE214821490822FFF70EFE204821490822FFF709FE204889
:403C400020490822FFF704FE1F4B44221A701F4B84221A701E4A1E4B1B78DBB243F00803DBB21370FFF708FF1A4809490E22FFF7EFFD1837BD4680BD004800404C990000C7
:403C80007C990000A80000480350014013500140A0430040C24300400251004010100048C051004018100048F0510040241000481251004030100048225100403810004838
:403CC0003251004040100048DB000140DB16014022430040B043004080B582B000AF03460A46FB711346BB71084B1B78002B04D100F00EF8054B01221A70FA79BB791046CD
:403D0000194600F0D5F80837BD4680BD2090FF1F80B582B000AF01F07FFF0346FB71534A524B1B78DBB243F00103DBB21370504A4F4B1B78DBB243F00103DBB213704D4B0C
:403D400001221A704C4B02221A704C4A4B4B1B78DBB203F07F03DBB21370002001F070FF474A474B1B78DBB223F00603DBB21370444A444B1B78DBB223F02003DBB213700E
:403D80003F4A3F4B1B78DBB243F00103DBB21370012001F055FF282001F052FF3A4A3A4B1B78DBB203F07F03DBB21370364A364B1B78DBB223F04003DBB21370304A304B6F
:403DC0001B78DBB243F00203DBB21370022001F037FF2B4A2A4B1B78DBB243F00403DBB213702A4B00221A70294B00221A70FB79184601F015FF1720072101F05BFF1720C5
:403E0000244901F02FFF1820072101F053FF1820214901F027FF1520072101F04BFF15201E4901F01FFF0120072101F043FF01201B4901F017FF0220072101F03BFF0220B8
:403E4000184901F00FFF0320072101F033FF0320154901F007FF0C20072101F02BFF0C20124901F0FFFE0837BD4680BDA5430040B54300409D6000400960004010600040A3
:403E80009443004012600040F85100408460004085600040ED4B0000BD440000E14B0000DD4A0000314B0000854B0000F94B000080B582B000AF03460A46FB711346BB71AB
:403EC0002E4AFB7913702E4B00221A702D4B00221A702D4B00221A702C4B00221A702C4B00221A702B4B00221A702B4B00221A702A4B4FF400021A60284B4FF080721A600A
:403F0000264B4FF400121A60244B02221A60234B04221A60214B08221A60BB79002B02D0012B09D011E01E4A1D4B1B78DBB223F00103DBB2137011E0194A194B1B78DBB200
:403F400043F00103DBB2137008E0154A144B1B78DBB243F00103DBB2137000BF114B03221A70114B80221A70012001F04DFE0F4B04221A700837BD4680BD00BF6591FF1FE2
:403F80006891FF1F8491FF1F8791FF1F7C91FF1F8691FF1F8991FF1F6491FF1F00E100E00960004028600040086000401260004080B400AF0F4B00221A700F4B00221A705B
:403FC0000E4B00221A700E4B00221A700D4B00221A700D4B00221A700C4B00221A700C4B03221A700B4B80221A70BD465DF8047B704700BF6891FF1F8491FF1F8791FF1F57
:404000007C91FF1F8691FF1F8991FF1F6491FF1F286000400860004080B400AF034B1B78DBB21846BD465DF8047B70478791FF1F80B483B000AF0346FB71FA79064913460C
:404040005B0013449B000B445B78DBB218460C37BD465DF8047B70478C91FF1FB0B485B000AF03463960FB711346BB80FB79002B66D0FB79082B63D8B988FA793248134672
:404080005B0013449B000344DB889BB2C3F5007399420BD9FA792C4913465B0013449B000B44DB889BB2C3F50073BB80274CF979BB881B0A9BB2D8B2FA79234D13465B0024
:4040C00013449B002B44DB78DBB20343DAB20B0123441A701D4AFB79B988C9B21B0113440A465A703B68002B13D00023FB810CE01748FB79FA8939680A4412781B0103441E
:4041000008331A70FB890133FB81FA89BB889A42EED3FA790C4913465B0013449B000B4400225A700948F979FA79074C13465B0013449B0023445B79DAB20B0103449A7027
:404140001437BD46B0BC70478C91FF1FFC5F00407060004090B482B000AF0346FB71FB79002B19D0FB79082B16D8FA790C4913465B0013449B000B4400225A700948F97985
:40418000FA79074C13465B0013449B0023445B79DAB20B0103449A700837BD4690BC70478C91FF1FFC5F004080B582B000AF0023FB71324B1B79DBB2184600F069F8034619
:4041C000BB712E4B1B78DBB2DBB25BB2002B16DA2A4B5B78DBB2212B00D00FE0284B07221A80BA791346DB009B1A264A1344244A536000F0DDFA0346FB7100BF38E01F4B6E
:404200005B78DBB2202B02D0222B1AD030E01C4B07221A80BA791346DB009B1A194A1344174A5360BB79BA7917498A5CD2B242F00102D1B2144AD15400F03AFB0346FB7160
:4042400016E0BB790D4A9278D2B291B20F4A22F81310BB79BA790C498A5CD2B242F00202D1B2094AD15400F0BFFB0346FB7100BFFB7918460837BD4680BD00BF0060004031
:404280007091FF1FAC82FF1F4C91FF1F6091FF1F80B485B000AF0346FB710023FB73FF23BB7317E0FB7B104AD35C7B737A7B0F4913465B0013449B000B4408339B78DBB2DA
:4042C000FA799A4203D1FB7BBB730223FB73FB7B0133FB73FB7B012BE4D9BB7B18461437BD465DF8047B70475491FF1F8C91FF1F80B582B000AF0023BB71224B00221A70C4
:40430000214B00221A70204B00225A700023FB7110E0FB791D4AD35C7B717B79002B06D07B79082B03D87B791846FFF713FFFB790133FB71FB79012BEBD9154B1B78DBB250
:40434000002B18D0114B1B78DBB2002B13D0114B1B78DBB2002B0ED00D4B1B78DBB2082B09D80A4B1B78DBB2082B04D8094B1B78DBB2082B01D90123BB71BB791846083769
:40438000BD4680BD2190FF1F4C91FF1F5891FF1F5091FF1F5491FF1F80B584B000AF78600B467B80144B1B781A46144B9B5CFB73FA7B134913465B0013449B000B44083397
:4043C0001B889BB27A889A420CD9FA7B0C4913465B0013449B000B4408331B887B80002001F022FCFA7B7B88104679681A46FFF735FE1037BD4680BD2190FF1F5091FF1FB6
:404400008C91FF1F80B500AF054B1B781A46054B9B5CDBB21846FFF70BFE0346184680BD2190FF1F5091FF1F80B485B000AF78600B46FB701346BB707B68DB7803F00303D8
:40444000FB737B689B78DBB25BB2002B1ADAFB7B032B0AD0BB7803F001031549FA78CA54BB7843F00103BB701BE0BB789B08DBB203F001030F49FA78CA54BB7843F004034A
:40448000BB700EE0FB7B032B0BD0BB785B08DBB203F001030849FA78CA54BB7843F00203BB70BB7818461437BD465DF8047B70475091FF1F5491FF1F5891FF1F80B582B0F9
:4044C00000AF374B1B78BB71BB7903F01003002B63D00123FB71BB795BB2002B13DABB7903F00F03012B02D00023FB711DE000F061F82C4B1B78DBB2DBB25BB2002B14DAF5
:404500000023FB7111E0BB7903F04003002B02D000F094F809E0BB7903F02003002B02D000F0B2F801E00023FB71FB79002B34D01B4B1B78BB71BB795BB2002B2DDB1A4B3D
:404540001B78DAB2194B1B78DBB21343BB71184ABB791370164B1B78DBB2BA799A421CD1104B1B78FB710E4B1B78DBB223F07F03BB71BB79002B0AD1094B0A4A1278D2B2FC
:404580001A70074B1B78DBB203F00F03FB71054B1B78DBB2FA799A42E2D10837BD4680BD286000408591FF1FFA91FF1F8891FF1F2960004080B582B000AF1D4B1B78FB717B
:4045C0001B4AFB7913701A4B1B78FB71FB795BB2002B03DA174AFB79137025E0022000F043FA154B1B78DBB203F06003202B08D0402B0BD0002B0ED100F004FB0346FB71D9
:404600000CE002F0FFFD0346FB7107E001F0C0FA0346FB7102E00023FB7100BFFB79002B02D1044B03221A700837BD4680BD00BF286000408591FF1F0060004080B500AF46
:40464000104B1B78DBB2062B19D801A252F823F07F4600007F4600006D4600007F460000734600007F4600007946000000F0FAF806E000F0A9F903E000F0D2F900E000BFC7
:4046800080BD00BF6891FF1F80B500AF124B1B78DBB2062B1DD801A252F823F0D3460000D3460000B9460000D3460000BF460000D3460000C546000000F0DAF80AE000F051
:4046C00029F907E0032000F0CFF9044B03221A7000E000BF80BD00BF6891FF1F8591FF1F80B483B000AF0023FB71294B1B78DBB29AB2284B1B889BB213449AB2254B1A805D
:4047000015E02549FB79254A52681278D2B2CA54224B5B680133214A5360FB790133FB711E4B1B889BB2013B9AB21C4B1A801B4B1B889BB2002B02D0FB79072BE1D9144BC3
:404740001B78DBB2082B02D0FB79002B0FD0144B1B78DBB283F07F03DB43DAB2104B1A70104B0F221A70104B02221A7005E00D4B02221A700C4B02221A700C4AFB79137037
:40478000034AFB7913700C37BD465DF8047B70476491FF1F6691FF1F006000407091FF1FFA91FF1F8591FF1F6891FF1F8891FF1F80B582B000AF164B1B889BB2002B02D16D
:4047C00000F02EF81EE0134B02221A70124B00221A7000F069F9114BDB79DBB29BB21B029AB20E4B9B79DBB29BB21343FB80084B1B889BB2FA889A4202D2054AFB88138059
:40480000FFF76EFF012318460837BD4680BD00BF7091FF1F6891FF1FFA91FF1F0060004080B400AF0A4B02221A700A4B80221A70094B0F221A70094B00221A70084B0022EB
:404840001A7001231846BD465DF8047B704700BF6891FF1FFA91FF1F8591FF1F6491FF1F8891FF1F80B500AFFFF73AFF80BD00BF80B500AF0A4B1B78DBB29AB2094B1B88F6
:404880009BB213449AB2074B1A80074B00221A70012000F0E9F8054B03221A7080BD00BF6491FF1F6691FF1F6891FF1F8591FF1F80B582B000AF124B04221A70114B80229D
:4048C0001A7000F0F1F8104BDB79DBB29BB21B029AB20D4B9B79DBB29BB21343FB800B4B1B889BB2FA889A4202D2084AFB881380074B0B221A70012318460837BD4680BD62
:404900006891FF1FFA91FF1F006000407091FF1F8591FF1F80B483B000AF0023BB71234B1B78DBB203F00F03DBB2023BFB71FB799AB21F4B1B889BB213449AB21C4B1A80D8
:4049400018E01C4B5B681C49BA798A5CD2B21A70184B5B680133174A5360BB790133BB71FB79013BFB71134B1B889BB2013B9AB2104B1A800F4B1B889BB2002B02D0FB79E5
:40498000002BDED10D4AFB7913700D4B1B78DBB283F07F03DB43DAB2094B1A70094B0B221A700C37BD465DF8047B7047296000406691FF1F7091FF1F006000408891FF1F2A
:4049C000FA91FF1F8591FF1F80B500AF044B00221A70012000F048F8024B03221A7080BD6891FF1F8591FF1F80B400AF084B06221A70084B06221A70074B80221A70074B69
:404A000000221A7001231846BD465DF8047B70476891FF1F8591FF1FFA91FF1F8891FF1F80B500AF0C4B1B78DBB2002B0AD00B4A094B1B78DBB263F07F03DBB21370064B30
:404A400000221A70064B00221A70012000F00CF8044B03221A7080BD8691FF1F086000406891FF1F8591FF1F80B483B000AF0346FB710B4B9B68002B0CD0094B9B68FA7920
:404A80001A70074B9B68074A128892B25A80044B00229A600C37BD465DF8047B704700BF7091FF1F6691FF1F80B400AF094B00221A80094B9B68002B07D0074B9B6800221C
:404AC0001A70054B9B6800225A80BD465DF8047B704700BF6691FF1F7091FF1F80B400AF104A104B1B78DBB223F00103DBB213700D4B9B7C0D4B1B7BDBB203F00303012B6E
:404B000008D00A4BDB7BDBB283F07F03DB43DAB2064BDA73054B01225A73BD465DF8047B704700BF0B600040FC5F00408C91FF1F80B400AF104A104B1B78DBB223F002034A
:404B4000DBB213700D4B93F822300D4B1B7EDBB203F00303012B08D0094BDB7EDBB283F07F03DB43DAB2064BDA76054B01225A76BD465DF8047B70470B600040FC5F0040E4
:404B80008C91FF1F80B400AF124A124B1B78DBB223F00403DBB213700F4B93F832300F4B93F82430DBB203F00303012B0AD00B4B93F82730DBB283F07F03DB43DAB2074B12
:404BC00083F82720054B012283F82520BD465DF8047B70470B600040FC5F00408C91FF1F80B400AFBD465DF8047B704780B500AFFFF7DEF980BD00BF80B500AF00F0F2FFCE
:404C000080BD00BF80B586B000AF0023FB759D4B1B78FB7100233B619B4B00221A80FB795BB2002B80F20481964B5B78DBB20A2B00F2FC8001A252F823F000BF854D00006B
:404C40002D4E00002D4E00002D4E00002D4E00002D4E0000694C00002D4E0000F74D00002D4E00000D4E0000864BDB78DBB2012B0ED100F017FEB860BB685B68824A536045
:404C8000814B12221A80FFF793FD0346FB7578E07C4BDB78DBB2022B24D17A4B9B78DBB2184600F0D5FDB860BB68002B69D0BB685B68754A5360744B5B6803331B78DBB2A6
:404CC0009BB21B029AB2704B5B6802331B78DBB29BB213439AB26C4B1A80FFF769FD0346FB75A4E0674BDB78DBB2032B44D10023FB73664B3B6109E03B691B78BB71BB791F
:404D00003A6913443B61FB7B0133FB735D4B9B78DBB2FA7B9A4204D23B691B78DBB2002BEAD1584B9B78DBB2EE2B01D1584B3B61544B9B78DBB2002B0BD0524B9B78DAB2BE
:404D4000544B1B7C9A4204D1534800F0A1F9524B3B613B691B78DBB2002B12D03B691B78DBB29AB2484B1A80474A3B695360FFF71FFD0346FB755AE002F044FA0346FB750A
:404D800055E054E0FB7903F00303002B1FD0022B00D02FE03C4B02221A803A4B1B79DBB203F07F023D4913465B0013449B000B449B78DAB23A4B1A70394B00225A70324B82
:404DC000374A5A60FFF7F4FC0346FB7512E02E4B02221A80334B1B78DAB2314B1A70304B00225A70284B2E4A5A60FFF7E1FC0346FB7500BF1BE0244B01221A80224B2A4AAE
:404E00005A60FFF7D5FC0346FB7510E01E4B01221A801C4B1B79DBB21A46244B13441A4A5360FFF7C5FC0346FB7500E000BF19E1144B5B78DBB2013B0A2B00F2128101A2FC
:404E400052F823F04F4F000063500000D94F000063500000714E0000635000006350000063500000B54E0000635000000B4F0000044B9B78DAB20E4B1A70FFF7B5FD0346FF
:404E8000FB75EFE0006000407091FF1F089A0000109B0000B09900000092FF1F8C91FF1F2490FF1F8991FF1F8791FF1FF891FF1F8691FF1F6E4B9B787B717B79002B06D0AA
:404EC0007B79013BDBB2184600F0C2FCB8607B79002B02D0BB68002B02D17B79002B13D1644B1B78DBB27A799A4208D0614A7B791370614B01221A70012000F0C1F9FFF70A
:404F000073FD0346FB75ADE0ACE000F009FE0346002B1BD0564B1B793B71554B1B79DAB2564B1A703B79564AD35CDAB23B795549CB5CDBB29A4204D04F4B01221A7000F011
:404F400069FBFFF751FD0346FB758BE08AE0FB7903F00303012B22D0012B0DD3022B00D039E0434B9B78DBB2002B04D100F040FD0346FB752FE02EE03D4B9B78DBB2012BC9
:404F80000CD1414B1B78DBB223F00203DAB23E4B1A70FFF729FD0346FB751CE01BE0344B1B79DBB2012B15D8314B9B78DBB2DB43DBB22F4A1279D2B211461046334A125C45
:404FC000D2B21340DAB2314B5A54FFF70DFD0346FB75FFE700BF45E0FB7903F00303012B22D0012B0DD3022B00D039E0204B9B78DBB2002B04D100F08DFC0346FB752FE0A8
:405000002EE01B4B9B78DBB2012B0CD11E4B1B78DBB243F00203DAB21B4B1A70FFF7E4FC0346FB751CE01BE0114B1B79DBB2012B15D80F4B9B78DBB2DB43DBB20C4A127974
:40504000D2B211461046114A125CD2B21340DAB20E4B5A54FFF7C8FC0346FB75FFE700BF00E000BFFB7D18461837BD4680BD00BF006000408791FF1F8491FF1F7C91FF1FBD
:405080006C91FF1FF891FF1F8991FF1FFC91FF1FB0B58AB000AF7860314B07F114041D460FCD0FC42B682370002387F826307B68002B52D07B6822221A707B68013303224C
:4050C0001A7007F10C03184600F016FE022387F827303EE097F827307A68134497F8262007F128010A4412F81C2C1209D2B207F128010A4412F8142C1A7097F827300133F3
:405100007A68134400221A7097F8273002337A68134497F8262007F128010A4412F81C2C02F00F0207F128010A4412F8142C1A7097F8273003337A68134400221A7097F8CA
:405140002630013387F8263097F82730043387F8273097F82730212BBCD92837BD46B0BD9C99000090B482B000AF0123FB7174E03F4AFB791B0113440C221A70FA793D49E8
:4051800013465B0013449B000B445B79DBB2002B1AD0FA79374913465B0013449B000B441B79DBB2DBB25BB2002B06DA324AFB791B0113440C229A700CE02F4AFB791B0146
:4051C000134408229A7005E02B4AFB791B01134480229A702648F979FA79264C13465B0013449B002344DB889BB2DAB20B0103449A711F48F979FA791E4C13465B0013440A
:405200009B002344DB889BB21B0A9BB2DAB20B010344DA711648F979FA79164C13465B0013449B002344DB889BB2DAB20B0103441A710F48F979FA790E4C13465B001344B3
:405240009B002344DB889BB21B0A9BB2DAB20B0103445A71FB790133FB71FB79082B87D9064BFF221A700837BD4690BC704700BF706000408C91FF1FFC5F00400A600040B5
:4052800080B58AB000AF0346FB7100237B84002387F827304CE097F82720C44913465B0013449B000B4400221A7097F82720BF4913465B0013449B000B4400229A7097F8C2
:4052C0002720BA4913465B0013449B000B440022DA7097F82720B54913465B0013449B000B44083300221A8097F82720AF4913465B0013449B000B44083300229A7097F88A
:405300002720AA4913465B0013449B000B4400225A7097F82720A54913465B0013449B000B4400225A7197F82730013387F8273097F82730082BAED9FB79002B16D0002374
:4053400087F825300EE097F82530994A0021D15497F82530974A0021D15497F82530013387F8253097F82530012BECD9924B1B78DBB2002B00F049810023FB768E4B1B78B0
:40538000DBB2013BDBB2184600F062FA78617B695B683B613B6907331B7803F04003002B08D0864B1B78DBB243F00103DAB2834B1A7007E0814B1B78DBB223F00103DAB2A5
:4053C0007E4B1A707B6908337B617B691B7887F82730012387F82530B3E07B695B68FB61002387F82630A0E097F82520FB699B7803F07F039A4240F0908097F825206B49A8
:4054000013465B0013449B000B4408331B889AB2FB699B889A420CD297F82520FB699888624913465B0013449B000B44083302461A80FB691B781A465D4B9B5CDAB2FB6911
:405440005B789A4269D197F82520FB699878574913465B0013449B000B4402461A7197F82520FB69D878514913465B0013449B000B4402461A70FB69DB7803F00303FB738C
:40548000FB699B78DBB25BB2002B1ADA97F82520FB7B012B01D1072000E00D20434913465B0013449B000B4402465A7197F825203E4913465B0013449B000B4401225A706F
:4054C00019E097F82520FB7B012B01D1052000E00920364913465B0013449B000B4402465A7197F82520314913465B0013449B000B4400225A70FB699B790A2B03D0FB69A3
:405500009B79022B09D197F82520FB7EF86911461A46FEF789FF0346FB76FB690833FB6197F82630013387F8263097F8262097F827309A42FFF458AF97F82530013387F8A3
:40554000253097F82530082B7FF647AF7B695B68FB61002387F8253016E0FB699B7803F07F02FB691878114913465B0013449B000B44083302469A70FB690833FB6197F81F
:405580002530013387F8253097F8252097F827309A42E2D300F098F90246094B1A6000237B84012387F8273029E000BF8C91FF1FF891FF1F6C91FF1F8791FF1F8991FF1F5D
:4055C0008091FF1F97F82720114913465B0013449B000B447A8CDA8097F827200C4913465B0013449B000B4408331B889AB27B8C13447B8497F82730013387F8273097F8D1
:405600002730082BDED9FFF7ADFD2837BD4680BD8C91FF1F90B585B000AF874B1B78DBB2002B00F00681844B1B78DBB2013BDBB2184600F00DF978607B6808337B607B6832
:405640001B78FB707B685B68BB607C4B1B78BB700023FB73E8E0BB681B78BA789A4240F0DD80BB78764AD35CDAB2BB685B789A4240F0D480BB689B7803F07F037B70BB687F
:40568000DB7803F003033B707A786E4913465B0013449B000B440022DA707A78BB689878684913465B0013449B000B4402461A717A78BB68D878634913465B0013449B0094
:4056C0000B4402461A707A78BB6898885D4913465B0013449B000B44083302461A80BB689B78DBB25BB2002B18DA7A783B78012B01D1072000E00D20524913465B00134432
:405700009B000B4402465A717A784E4913465B0013449B000B4401225A7017E07A783B78012B01D1052000E00920464913465B0013449B000B4402465A717A7841491346CD
:405740005B0013449B000B4400225A703E4A7B781B01134401229A703B4879787A78394C13465B0013449B00234408331B889BB21B0A9BB2DAB20B0103441A70324879781D
:405780007A78304C13465B0013449B00234408331B889BB2DAB20B0103445A702B4879787A78284C13465B0013449B002344DB889BB2DAB20B0103449A71244879787A78DA
:4057C000204C13465B0013449B002344DB889BB21B0A9BB2DAB20B010344DA711B4879787A78184C13465B0013449B002344DB889BB2DAB20B0103441A71144879787A78D4
:40580000104C13465B0013449B002344DB889BB21B0A9BB2DAB20B0103445A71BB680833BB60FB7B0133FB73FA7BFB789A42FFF412AF1437BD4690BD8791FF1F7C91FF1F2E
:40584000F891FF1F8C91FF1FFC5F00407060004080B485B000AF0346FB71104B1B78DBB20F4ADB0013445B68FB60FB681033FB60FB681B78FA799A4202D30023FB6005E02C
:40588000FB79DB00FA6813445B68FB60FB6818461437BD465DF8047B704700BF6591FF1F089B000080B400AF054B1B78DBB2054ADB0013445B681846BD465DF8047B70472F
:4058C0006591FF1F089B000080B584B000AF104B1B78DBB2013BDBB21846FFF7B9FFB860BB68002B0DD0BB685B681B79FB71FB790233DB00BA681344BB60BB685B68FB6007
:4059000001E00023FB60FB6818461037BD4680BD8791FF1F80B582B000AF0023FB71314B1B79DBB203F07F03BB71BB79002B53D0BB79082B50D8BA79B9792B480B465B0012
:405940000B449B0003449B78DBB243F00103D8B2254913465B0013449B000B4402469A70BA79214913465B0013449B000B440022DA70BA79B9791C480B465B000B449B0083
:4059800003445B78DBB243F00203D8B2164913465B0013449B000B4402465A70BA79124913465B0013449B000B441B79DBB2DBB25BB2002B06DA0D4ABB791B0113448D2222
:4059C0009A7005E0094ABB791B01134489229A70FFF70AF80346FB71FB7918460837BD4680BD00BF006000408C91FF1FFC5F004080B582B000AF0023FB71464B1B79DBB27F
:405A000003F07F03BB71BB79002B7DD0BB79082B7AD8BA79B97940480B465B000B449B0003449B78DBB223F00103D8B23A4913465B0013449B000B4402469A70BA793649D9
:405A400013465B0013449B000B440022DA70334ABB791B0113447F221A70BA79B9792E480B465B000B449B0003445B78DBB223F00203D8B2284913465B0013449B000B4456
:405A800002465A70BA79244913465B0013449B000B441B79DBB2DBB25BB2002B18DABA791D4913465B0013449B000B445B78DBB2012B06D1194ABB791B0113440C229A7034
:405AC0001EE0164ABB791B0113440D229A7017E0BA79114913465B0013449B000B445B78DBB2012B06D10D4ABB791B01134408229A7005E0094ABB791B01134409229A7046
:405B0000FEF772FF0346FB71FB7918460837BD4680BD00BF006000408C91FF1FFC5F004080B584B000AF0023FB73154B1B79BB73144B1B78DBB2013BDBB21846FFF788FED7
:405B4000B860BB685B681B79FB71BA7BFB799A4202D9BB7B022B0ED8BB7BBA7B0A498A5CD1B20A4AD154BB7B054A9278D1B2064AD1540123FB73FB7B18461037BD4680BD6A
:405B8000006000408791FF1FF891FF1F6C91FF1F80B582B000AF0023FB710F4B1B78DBB2DBB25BB2002B12DA0B4B5B78DBB2012B00D00CE0094B0A4A5A60094B1B789AB24A
:405BC000064B1A80FEF7F4FD0346FB7100BFFB7918460837BD4680BD006000407091FF1F249B000080B400AF054B1B78DBB203F040039B09DBB21846BD465DF8047B7047EB
:405C00008F450040000000000230800803D000BF01380046FCD17047EFF3108072B6704780F31088704700BF80B483B000AF0346FB7101BE0C37BD465DF8047B704700BF15
:405C400080B582B000AF0346FB80FB88044A127802FB03F31846FFF7D7FF0837BD4680BDD082FF1F80B584B000AF03463960FB710F4B1B68FB60FB791F2B02D90020FFF796
:405C8000D3FFFB7903F01F0310339B00FA6813441B68BB60FB7903F01F0310339B00FA6813443A681A60BB6818461037BD4680BD08ED00E080B582B000AF03460A46FB7120
:405CC0001346BB71BB79072B02D90020FFF7ACFFFB791F2B02D90020FFF7A6FFFB7903F01F0303F1604303F56443BA795201D2B21A700837BD4680BD80B483B000AF786009
:405D0000264B1B78DBB21A467B681A60244B1B78DBB21B027A6812681A437B681A60214B1B78DBB21B047A6812681A437B681A601D4B1B78DBB21B067A6812681A437B684D
:405D40001A607B680433194A1278D2B21A60184B1B78DBB21A027B6804337968043109680A431A60134B1B78DBB21A047B6804337968043109680A431A600F4B1B78DBB21F
:405D80001A067B6804337968043109680A431A600C37BD465DF8047B704700BF0301004904010049EC460040020100490101004900010049050100490601004980B500AF5A
:405DC000054B1B78002B04D100F008F8024B01221A7000F061F880BD2890FF1F80B582B000AF284A274B1B78DBB243F00203DBB21370254B1B78DBB223F07003FB71224A2A
:405E0000FB7943F01003DBB21370204A1F4B1B78DBB223F03003DBB213701C4A1B4B1B78DBB243F03003DBB21370184A174B1B78DBB223F00F03DBB21370144A134B1B7884
:405E4000DBB243F00F03DBB21370642000F048F8002000F055F8002000F062F80C4A0C4B1B78DBB243F00103DBB21370094A094B1B78DBB243F00103DBB213700837BD4661
:405E800080BD00BF004F0040024F00400B4F0040A3430040014F004080B400AF0D4A0D4B1B78DBB243F00103DBB213700A4A0A4B1B78DBB243F00103DBB21370074A074BCA
:405EC0001B78DBB243F00103DBB21370BD465DF8047B7047A3430040B3430040004F004080B483B000AF0346FB71044BFA7992B21A800C37BD465DF8047B7047044F0040F3
:405F000080B483B000AF0346FB71044BFA7992B21A800C37BD465DF8047B7047064F004080B483B000AF0346FB71044AFB7913700C37BD465DF8047B704700BF034F00405E
:405F400080B485B000AF0346FB710B4B1B78DBB223F02003FB730849FB795B01DBB203F02003DAB2FB7B1343DBB20B701437BD465DF8047B704700BFF051004080B485B094
:405F800000AF0346FB710B4B1B78DBB223F00203FB730849FB795B00DBB203F00203DAB2FB7B1343DBB20B701437BD465DF8047B704700BF1051004080B500AF054B1B787C
:405FC000002B04D100F008F8024B01221A7000F061F880BD2990FF1F80B582B000AF284A274B1B78DBB243F00203DBB21370254B1B78DBB223F07003FB71224AFB7943F063
:406000001003DBB21370204A1F4B1B78DBB223F03003DBB213701C4A1B4B1B78DBB243F03003DBB21370184A174B1B78DBB223F00F03DBB21370144A134B1B78DBB243F069
:406040000F03DBB21370642000F048F8002000F055F8002000F062F80C4A0C4B1B78DBB243F00203DBB21370094A094B1B78DBB243F00103DBB213700837BD4680BD00BF22
:406080000C4F00400E4F0040174F0040A34300400D4F004080B400AF0D4A0D4B1B78DBB243F00203DBB213700A4A0A4B1B78DBB243F00203DBB21370074A074B1B78DBB272
:4060C00043F00103DBB21370BD465DF8047B7047A3430040B34300400C4F004080B483B000AF0346FB71044BFA7992B21A800C37BD465DF8047B7047104F004080B483B092
:4061000000AF0346FB71044BFA7992B21A800C37BD465DF8047B7047124F004080B483B000AF0346FB71044AFB7913700C37BD465DF8047B704700BF0F4F004080B485B042
:4061400000AF0346FB710B4B1B78DBB223F00203FB730849FB795B00DBB203F00203DAB2FB7B1343DBB20B701437BD465DF8047B704700BF2051004080B400AF054B1B78AB
:40618000DBB203F002035B08DBB21846BD465DF8047B70472151004080B400AFBD465DF8047B704780B582B000AF0F2000F06AF800F058F8FFF730FD0346FB71074A074B09
:4061C0001B78DBB243F01003DBB21370FB791846FFF726FD0837BD4680BD00BF9764004080B500AF00F034F94FF4004000F05CF9054B1B78002B04D1FFF7CEFF024B0122E6
:406200001A70FFF7CFFF80BD2A90FF1F80B582B000AF00F059F90346FB80FB88A3F500439BB2BB80BB881BB218460837BD4680BD80B584B000AF0346FB80B7F90630002B1F
:4062400004DBFB88A3F50043FB8103E0FB88A3F50043FB81FB89184600F026F91037BD4680BD00BF80B400AF054B1B78DBB203F00F03DBB21846BD465DF8047B704700BFE1
:406280006764004080B483B000AF0346FB71044AFB7913700C37BD465DF8047B704700BF8764004080B400AFBD465DF8047B704780B582B000AF0F2000F06AF800F058F8C0
:4062C000FFF7AAFC0346FB71074A074B1B78DBB243F01003DBB21370FB791846FFF7A0FC0837BD4680BD00BF9064004080B500AF00F084F94FF4004000F0ACF9054B1B7812
:40630000002B04D1FFF7CEFF024B01221A70FFF7CFFF80BD2B90FF1F80B582B000AF00F0A9F90346FB80FB88A3F500439BB2BB80BB881BB218460837BD4680BD80B584B01E
:4063400000AF0346FB80B7F90630002B04DBFB88A3F50043FB8103E0FB88A3F50043FB81FB89184600F076F91037BD4680BD00BF80B400AF054B1B78DBB203F00F03DBB2B7
:406380001846BD465DF8047B704700BF6064004080B483B000AF0346FB71044AFB7913700C37BD465DF8047B704700BF8064004080B582B000AF1C4B1B78DBB223F00703B0
:4063C000FB71194AFB791370174B1B78DBB223F00303FB71144AFB79137000F0B1F84FF4004000F08DF84FF4004000F05DF8002000F03EF800F04CF84FF4004000F090F8AD
:40640000FFF70AFC0346BB71084A084B1B78DBB243F01003DBB21370BB791846FFF700FC0837BD4680BD00BF756400409765004080B400AF054A054B1B78DBB263F07F0342
:40644000DBB21370BD465DF8047B70477564004080B500AF054B1B78002B04D1FFF7A8FF024B01221A70FFF7E3FF80BD2C90FF1F80B483B000AF0346FB71044AFB79137008
:406480000C37BD465DF8047B704700BF8765004080B400AF034B1B78DBB21846BD465DF8047B70476765004080B483B000AF0346FB80044AFB8813800C37BD465DF8047B7F
:4064C000704700BF0C6A004080B400AF044B1B78044B1B889BB21846BD465DF8047B7047066500408C6A004080B400AF034B1B889BB21846BD465DF8047B70478C6A00405C
:4065000080B483B000AF0346FB80044AFB8813800C37BD465DF8047B704700BF4C6A004080B483B000AF0346FB80044AFB8813800C37BD465DF8047B704700BF6C6A0040B3
:4065400080B500AF01E0FFF7CFFFFFF7A1FF034603F04003002BF6D180BD00BF80B582B000AF1C4B1B78DBB223F00703FB71194AFB791370174B1B78DBB223F00303FB7108
:40658000144AFB79137000F0B1F84FF4004000F08DF84FF4004000F05DF8002000F03EF800F04CF84FF4004000F090F8FFF734FB0346BB71084A084B1B78DBB243F0100313
:4065C000DBB21370BB791846FFF72AFB0837BD4680BD00BF776400409164004080B400AF054A054B1B78DBB263F07F03DBB21370BD465DF8047B70477764004080B500AF3C
:40660000054B1B78002B04D1FFF7A8FF024B01221A70FFF7E3FF80BD2D90FF1F80B483B000AF0346FB71044AFB7913700C37BD465DF8047B704700BF8164004080B400AF48
:40664000034B1B78DBB21846BD465DF8047B70476164004080B483B000AF0346FB80044AFB8813800C37BD465DF8047B704700BF0068004080B400AF044B1B78044B1B888E
:406680009BB21846BD465DF8047B7047006400408068004080B400AF034B1B889BB21846BD465DF8047B70478068004080B483B000AF0346FB80044AFB8813800C37BD461C
:4066C0005DF8047B704700BF4068004080B483B000AF0346FB80044AFB8813800C37BD465DF8047B704700BF6068004080B500AF01E0FFF7CFFFFFF7A1FF034603F04003F4
:40670000002BF6D180BD00BF80B582B000AF786000F046F8786800F013F8072000F022F800F032F80837BD4680BD00BF80B500AF00F036F8014800F003F880BDB936000089
:4067400080B485B000AF7860054B1B68FB60FB6850337A681A601437BD465DF8047B704708ED00E080B483B000AF0346FB71054AFB795B01DBB213700C37BD465DF8047BF7
:40678000704700BF04E400E080B400AF034B10221A60BD465DF8047B704700BF00E100E080B400AF034B10221A60BD465DF8047B704700BF80E100E080B500AF054B1B787E
:4067C000002B04D100F008F8024B01221A7000F023F880BD2E90FF1F80B400AF094B72221A70094B20221A70084B06221A70084B47221A70074B02221A70BD465DF8047BF4
:40680000704700BF8E6400408B6400402C6400403C6400408A64004080B582B000AFFFF7FBF90346FB710F4A0E4B1B78DBB243F02003DBB213700C4A0B4B1B78DBB243F0B7
:406840001003DBB21370094A084B1B78DBB243F01003DBB21370FB791846FFF7E1F90837BD4680BD9E6400409B6400409A64004080B582B000AFFFF7CFF90346FB710F4A17
:406880000E4B1B78DBB223F02003DBB213700C4A0B4B1B78DBB223F01003DBB21370094A084B1B78DBB223F01003DBB21370FB791846FFF7B5F90837BD4680BD9E640040E4
:4068C0009B6400409A64004080B483B000AF0023FB710C4B1B78BB71BB7903F02003002B09D0094B1B78FB71BB7903F01E03002B01D00023FB71FB7918460C37BD465DF87F
:40690000047B70476B6400404A64004080B483B000AF0346FB7100BF074B1B78DBB203F00403002BF8D1054AFB7913700C37BD465DF8047B704700BF6A6400404965004068
:4069400080B584B000AF78600023FB810B4B1B78002B10D009E0FB897A6813441B781846FFF7D4FFFB890133FB81FB897A6813441B78002BEFD11037BD4680BD2E90FF1F62
:4069800080B483B000AF0346FB71044AFB7913700C37BD465DF8047B704700BF7D64004080B582B000AF786000F03CF8786800F009F8072000F018F800F028F80837BD46BA
:4069C00080BD00BF80B485B000AF7860054B1B68FB60FB686C337A681A601437BD465DF8047B704708ED00E080B483B000AF0346FB71054AFB795B01DBB213700C37BD4631
:406A00005DF8047B704700BF0BE400E080B400AF034B4FF400621A60BD465DF8047B704700E100E080B400AF034B4FF400621A60BD465DF8047B704780E100E080B582B018
:406A400000AF42F2273000F05BF842F2273000F073F8FFF7E1F80346FB710A4A094B1B78DBB243F01003DBB21370FB791846FFF7D7F800F071F8002000F026F80837BD46B1
:406A800080BD00BF9865004080B400AF054A054B1B78DBB263F07F03DBB21370BD465DF8047B70477965004080B500AF054B1B78002B04D1FFF7C2FF024B01221A70FFF7FC
:406AC000E3FF80BD3090FF1F80B483B000AF0346FB71044AFB7913700C37BD465DF8047B704700BF8865004080B400AF034B1B78DBB21846BD465DF8047B70476865004082
:406B000080B483B000AF0346FB80044AFB8813800C37BD465DF8047B704700BF546A004080B400AF034B1B889BB21846BD465DF8047B7047946A004080B483B000AF0346DF
:406B4000FB80044AFB8813800C37BD465DF8047B704700BF146A004080B500AF01E0FFF7DFFFFFF7C1FF034603F00803002BF6D180BD00BF80B582B000AF786000F03CF852
:406B8000786800F009F8072000F018F800F028F80837BD4680BD00BF80B485B000AF7860054B1B68FB60FB6864337A681A601437BD465DF8047B704708ED00E080B483B006
:406BC00000AF0346FB71054AFB795B01DBB213700C37BD465DF8047B704700BF09E400E080B400AF034B4FF400721A60BD465DF8047B704700E100E080B400AF034B4FF482
:406C000000721A60BD465DF8047B704780E100E080B582B000AFC72000F06AF8C72000F083F8FEF7F9FF0346FB710A4A094B1B78DBB243F01003DBB21370FB791846FEF771
:406C4000EFFF00F081F8002000F036F80837BD4680BD00BF9D64004080B400AF054A054B1B78DBB263F07F03DBB21370BD465DF8047B70477A65004080B500AF054B1B7805
:406C8000002B04D1FFF7C4FF024B01221A70FFF7E3FF80BD3190FF1F80B400AF054A054B1B78DBB203F07F03DBB21370BD465DF8047B70477A65004080B483B000AF0346FA
:406CC000FB71044AFB7913700C37BD465DF8047B704700BF8D64004080B400AF034B1B78DBB21846BD465DF8047B70476D64004080B483B000AF0346FB71044AFB791370C4
:406D00000C37BD465DF8047B704700BF2D64004080B400AF034B1B78DBB21846BD465DF8047B70474D64004080B483B000AF0346FB71044AFB7913700C37BD465DF8047B9A
:406D4000704700BF0D64004080B500AF01E0FFF7DFFFFFF7C1FF034603F00803002BF6D180BD00BF80B582B000AF786000F03CF8786800F009F8072000F018F800F028F84E
:406D80000837BD4680BD00BF80B485B000AF7860054B1B68FB60FB6874337A681A601437BD465DF8047B704708ED00E080B483B000AF0346FB71054AFB795B01DBB2137069
:406DC0000C37BD465DF8047B704700BF0DE400E080B400AF034B4FF400521A60BD465DF8047B704700E100E080B400AF034B4FF400521A60BD465DF8047B704780E100E094
:406E000080B584B000AF03460A46FB8013467B7100F0B2F80346FB7300F0A2F80346BB81FA88BB899A4200F08780454B1B78DBB203F00203FB72FB7B002B20D1BB89002BD2
:406E400002D0FB88002B1AD1BB89002B0BD13D4AFB8813803C4A3C4B1B78DBB223F04003DBB2137068E0384A374B1B78DBB243F04003DBB21370334AFB8813805CE0FB7AF6
:406E8000002B33D0314B00221A70314B02221A70304B00221A70304A2F4B1B78DBB203F07F03DBB21370284B1B78DBB203F00803002B02D0FB88002B18D1284ABB89138024
:406EC000224B07221A7000BF204B1B78DBB203F00103002BF8D11A4A194B1B78DBB223F00203DBB21370194B00221A70144B1B78DBB203F00203002B13D0184AFB88138020
:406F0000124A7B79002B01D0032300E00123137000BF0E4B1B78DBB203F00103002BF8D10AE0084AFB8813800549054B1B78DAB2FB7A1343DBB20B701037BD4680BD00BF0D
:406F4000A24300408440004086400040014000401040004014400040084000400240004080B400AF034B1B889BB21846BD465DF8047B70478440004080B400AF054B1B785C
:406F8000DBB203F00703DBB21846BD465DF8047B704700BF8640004080B400AF034B1B78DBB21846BD465DF8047B70476464004080B400AF034B1B78DBB21846BD465DF8BD
:406FC000047B70476665004080B400AF034B1B78DBB21846BD465DF8047B70476564004080B400AF034B1B78DBB21846BD465DF8047B70476664004080B400AF034B1B78FF
:40700000DBB21846BD465DF8047B70476965004080B582B000AF786000F03CF8786800F009F8072000F018F800F028F80837BD4680BD00BF80B485B000AF7860054B1B68AE
:40704000FB60FB6860337A681A601437BD465DF8047B704708ED00E080B483B000AF0346FB71054AFB795B01DBB213700C37BD465DF8047B704700BF08E400E080B400AF7C
:40708000034B4FF480721A60BD465DF8047B704700E100E080B400AF034B4FF480721A60BD465DF8047B704780E100E080B582B000AF42F20F7000F06BF842F20F7000F016
:4070C00083F8FEF7A9FD0346FB710A4A094B1B78DBB243F01003DBB21370FB791846FEF79FFD00F081F8002000F036F80837BD4680BD00BF9565004080B400AF054A054BA3
:407100001B78DBB263F07F03DBB21370BD465DF8047B70477565004080B500AF054B1B78002B04D1FFF7C2FF024B01221A70FFF7E3FF80BD3290FF1F80B400AF054A054BB3
:407140001B78DBB203F07F03DBB21370BD465DF8047B70477565004080B483B000AF0346FB71044AFB7913700C37BD465DF8047B704700BF8565004080B400AF034B1B7834
:40718000DBB21846BD465DF8047B70476565004080B483B000AF0346FB80044AFB8813800C37BD465DF8047B704700BF486A004080B400AF034B1B889BB21846BD465DF8B5
:4071C000047B7047886A004080B483B000AF0346FB80044AFB8813800C37BD465DF8047B704700BF086A004080B500AF01E0FFF7DFFFFFF7C1FF034603F00803002BF6D11F
:4072000080BD00BF80B582B000AF1A4B1B78DBB203F00303012B02D0022B04D012E0154B1B79BB7111E0134B1B79DBB203F07F02114913465B0013449B000B4408339B782C
