:400000000080002011000000710600007106000080B500AF024A034B1B68136000F054FBBC760040FA46004010B5054C237833B9044B13B10448AFF300800123237010BDDA
:40004000F081FF1F00000000DC510000084B10B51BB108480849AFF300800848036803B910BD074B002BFBD0BDE81040184700BF00000000DC510000F481FF1F0881FF1F17
:400080000000000080B483B000AF786039607B689AB2054B1A803B689AB2044B1A800C37BD465DF8047B70473482FF1F3682FF1F80B500AF002002F00FFE024B00221A8041
:4000C00080BD00BF3082FF1F80B500AF002002F001FF024B00221A8080BD00BF3282FF1F80B500AF00200021FFF7CCFFFFF7E0FFFFF7EAFF80BD00BF80B500AF1420142184
:40010000FFF7C0FF80BD00BF80B500AF00201421FFF7B8FF80BD00BF80B500AF14200021FFF7B0FF80BD00BF80B500AF03F08AFC064B01221A70FFF7BBFF02F0ABFF034662
:400140001A46034B1A8003F06DFC80BD5081FF1F2E82FF1F80B500AF03F074FC064B02221A70FFF7B1FF02F00FFF03461A46034B1A8003F057FC80BD5081FF1F2E82FF1F24
:4001800080B500AFFFF7ACFF014B00221A7080BD5081FF1F80B400AF034B03221A70BD465DF8047B704700BF5081FF1F80B500AF0A4B1B78002B0CBF01230023DBB21A4684
:4001C000064B1A70054B1B78184602F0A5FD034B1B78184602F0BEFD80BD00BF2082FF1F80B582B000AF03F0F7F90346FB71FB79613B162B3FD801A252F823F05902000036
:4002000077020000770200006B0200007702000071020000770200007702000077020000770200007702000077020000770200007702000077020000770200007702000040
:4002400077020000650200007702000077020000770200005F020000FFF766FF0BE0FFF78FFF08E0FFF7A2FF05E0FFF773FF02E0FFF790FF00BF0837BD4680BD80B500AFB3
:40028000244B1A88244B1A80244B1A88244B1A8002F07AFE03461A461E4B1A8002F0FAFE03461A461D4B1A801A4B1B889AB21A4B1B889BB2D31A9BB29AB21A4B1A80174BCF
:4002C0001B889AB2164B1B889BB2D31A9BB29AB2154B1A800F4B1B881BB240F6B832934213DD124B1B78012B0FD0104B1B78022B0BD0002002F05AFE002002F0DDFE054BF7
:4003000000221A80054B00221A80094B01221A7080BD00BF2282FF1F2682FF1F2482FF1F2882FF1F2A82FF1F2C82FF1F5081FF1F2182FF1F80B500AF184B1B78012B14D1B3
:4003400002F0A8FE03461A46154B1B881BB2D31A002BB8BF5B42CF2B1FDDFFF7C1FE0F4B00221A7003F06EFB17E00C4B1B78022B13D102F009FE03461A46094B1B881BB2DB
:40038000D31A002BB8BF5B42CF2B06DDFFF7A8FE024B00221A7003F055FB80BD5081FF1F2E82FF1F80B400AF054B03221A70044B1B78002B00D000BFBD465DF8047B704756
:4003C0005081FF1F80B500AF034803F041F9034B00221A7080BD00BFE05100005081FF1FB0B5A4B000AF6B4B1B78002B00F0CE80684B00221A70684B1B881BB207F14402C2
:40040000104666491A4604F0DFFA654B1B881BB23A1D104663491A4604F0D6FA5E4B1B88A7F88E305E4B1B88A7F88C305E4B1B881AB2B7F98E30002BB8BF5B42D31AC7F82C
:400440008830D7F8883083EAE372A2EBE372D7F8883092FBF3F3184603F04EFF04460D46D7F88830002BB8BF5B42184603F044FF02460B461046194603F0A2FC02460B4692
:400480002046294603F09EFF02460B461046194604F032FA0346C7F88430D7F884309AB2424B1B889BB213449BB29AB23F4B1A803F4B1B881AB2B7F98C30002BB8BF5B42A9
:4004C000D31AC7F88830D7F8883083EAE372A2EBE372D7F8883092FBF3F3184603F00CFF04460D46D7F88830002BB8BF5B42184603F002FF02460B461046194603F060FCC5
:4005000002460B462046294603F05CFF02460B461046194604F0F0F90346C7F88430D7F884309AB2234B1B889BB213449BB29AB2204B1A801F4B1B881BB2002B02DA1D4BAD
:4005400000221A80194B1B881BB2002B02DA174B00221A80174B1B881BB2642B02DD154B64221A80114B1B881BB2642B02DD0F4B64221A800D4B1B88DBB2184602F0ACFBD3
:400580000C4B1B88DBB2184602F0A4FC9037BD46B0BD00BF2182FF1F2A82FF1FF45100002C82FF1F0C5200003482FF1F3082FF1F3682FF1F3282FF1F80B500AF62B602F09A
:4005C000E9FA02F0E5FB02F0C9FC02F04DFD224803F06EF8214803F09BFA03F0EDF8204803F050F91F4803F09BF90020012100F039FB00F0D7FC0346002B01D000F0ACFD2E
:400600004FF44370012103F0D1FA174802F03AFF02F086FF012003F03BF8FFF7E1FE134B1B78032BF9D801A252F823F03D06000043060000490600004F060000FFF75CFD58
:4006400008E0FFF761FD05E0FFF766FD02E0FFF747FD00BFE1E700BF7D02000035030000A5030000C5030000E10100005081FF1F80B400AFFEE700BF80B584B000AF78602F
:400680000F4B1A687B6813441A460E4BD31A802B09DC0B4B1B68FB60094B1A687B681344074A136007E004F04FF902460C2313604FF0FF33FB60FB6818461037BD4680BDC5
:4006C0005481FF1F3083FF1F80B586B000AF224B7B61224B3B61204B7B6135E03B691B68FB603B695B68BB603B699B683B6000237B600CE0FB681A68BB681A60BB68043362
:40070000BB60FB680433FB607B6804337B607A683B689A42EED13B69DB683B6000237B6008E0BB6800221A60BB680433BB607B6804337B607A683B689A42F2D13B691033F8
:400740003B617B69013B7B617B69002BC6D104F001F9FFF731FFFEE701000000BC54000080B582B000AF174B174A1A60174A174B1B6843F40073136000237B600FE07B68AB
:40078000032B04D8124A7B6852F8233000E0114B11497A6841F822307B6801337B607B682F2BECD90D4B1B78DAB20D4B1A700D4B094A1A6000F086F90B4B00221A6008373E
:4007C000BD4680BD0CED00E00004FA0514ED00E000000000710600000080FF1FBC7600400481FF1F08ED00E00081FF1F80B582B000AF78603960786800213A6804F0DBF86D
:400800000837BD4680BD00BF80B584B000AFF860B9607A60F868B9687A6804F0C1F81037BD4680BD80B483B000AF0346FB71FEE780B487B000AF7860396000233B61002363
:400840007B6127E07B699B007A6813441B68BB60BB68FB73BB6823F0FF03BB6014E03B695B003A6813441B781A46BB68134419463B695B003A6813445B780B703B69013385
:400880003B61FB7B013BFB73FB7B002BE7D17B6901337B617B69252BD4D91C37BD465DF8047B704780B582B000AF3F4B0F221A803E4B1B221A703E4B81221A803D4B18222A
:4008C0001A703D4B04221A803C4B18221A703C4B3B221A803B4B18221A703B4B3B221A803A4B18221A703A4B00221A80394B1B221A70394B06221A70384B52221A70384B87
:40090000384A1278D2B21A70374B40F619121A80364B41F251221A800023FB7019237B6014E0FB785B00DAB2314B1B78DBB203F00103DBB21343DBB203F00303FB704FF4C2
:40094000F07002F04DF87B68013B7B607B68002B02D0FB78032BE4D17B68002B02D10320FFF760FF234B4FF480721A80214B07221A70214B00221A70204B48221A701D4B1C
:4009800000221A701E4B00221A701E4B02221A701D4A1D4B1B78DBB243F03F03DBB213700837BD4680BD00BF80400040824000408440004086400040884000408A4000408F
:4009C0008C4000408E400040904000409240004094400040964000400043004000420040A14600400F0100492242004020420040254200400440004006400040084000408D
:400A00000940004001400040A243004080B582B000AF204B1B78FB711F4B1B78BB711F4B1B787B711E4AFB7903F00703DBB213701C4AFB791B09DBB21370174ABB7943F036
:400A40000303DBB21370154A7B7943F00303DBB21370154B20221A70144B40221A70144B40221A70134B20221A70134B20221A70124B20221A700A2001F0CEFF074A7B7958
:400A80001370054ABB7913700D4B44221A700837BD4680BDCF010049F8460040F94600406E5800406F5800400D510040095900400B590040285B00402B5B0040585B004063
:400AC0007658004080B586B000AF72B64E4B61221A70FFF7E7FE4C4B01221A700023FB7513E0FA7D13465B0013445B00474A13443B613B691A683B699B889BB2104619460B
:400B0000FFF774FEFB7D0133FB75FB7D062BE8D90023FB751CE0FA7D13469B0013445B003B4A1344FB60FB681B68BB60FB685B687B60FB681A7A5B7A1B0213437B807B88A5
:400B4000B86879681A46FFF75FFEFB7D0133FB75FB7D002BDFD04FF090402E49FFF768FE2D4A2D4B1B78DBB243F00203DBB213702A4A2A4B1B78DBB243F00203DBB21370C9
:400B8000274A274B1B78DBB243F04003DBB21370244A244B1B78DBB243F01003DBB21370214822490822FFF72FFE214821490A22FFF72AFE204821490A22FFF725FE20489C
:400BC00020490822FFF720FE1F4820490822FFF71BFE1F481F490822FFF716FE1E4B84221A701E4A1D4B1B78DBB243F00803DBB21370FFF70BFF1A4809490E22FFF704FE8F
:400C00001837BD4680BD00BF00480040705200009C520000980000480350014013500140A0430040C2430040025100403C0D0048C0510040440D0048F0510040500D00487A
:400C4000125100405C0D004822510040640D0048325100406C0D0048DB14014022430040B043004080B582B000AF03460A46FB711346BB71084B1B78002B04D100F00EF8AC
:400C8000054B01221A70FA79BB791046194600F0D5F80837BD4680BD3A82FF1F80B582B000AF01F0A5FE0346FB71534A524B1B78DBB243F00103DBB21370504A4F4B1B78FE
:400CC000DBB243F00103DBB213704D4B01221A704C4B02221A704C4A4B4B1B78DBB203F07F03DBB21370002001F096FE474A474B1B78DBB223F00603DBB21370444A444B94
:400D00001B78DBB223F02003DBB213703F4A3F4B1B78DBB243F00103DBB21370012001F07BFE282001F078FE3A4A3A4B1B78DBB203F07F03DBB21370364A364B1B78DBB2CA
:400D400023F04003DBB21370304A304B1B78DBB243F00203DBB21370022001F05DFE2B4A2A4B1B78DBB243F00403DBB213702A4B00221A70294B00221A70FB79184601F0EA
:400D80003BFE1720072101F081FE1720244901F055FE1820072101F079FE1820214901F04DFE1520072101F071FE15201E4901F045FE0120072101F069FE01201B4901F0F9
:400DC0003DFE0220072101F061FE0220184901F035FE0320072101F059FE0320154901F02DFE0C20072101F051FE0C20124901F025FE0837BD4680BDA5430040B543004039
:400E00009D60004009600040106000409443004012600040F85100408460004085600040C519000095120000B9190000B5180000091900005D190000D119000080B582B074
:400E400000AF03460A46FB711346BB712E4AFB7913702E4B00221A702D4B00221A702D4B00221A702C4B00221A702C4B00221A702B4B00221A702B4B00221A702A4B4FF41B
:400E800000021A60284B4FF080721A60264B4FF400121A60244B02221A60234B04221A60214B08221A60BB79002B02D0012B09D011E01E4A1D4B1B78DBB223F00103DBB272
:400EC000137011E0194A194B1B78DBB243F00103DBB2137008E0154A144B1B78DBB243F00103DBB2137000BF114B03221A70114B80221A70012001F073FD0F4B04221A7065
:400F00000837BD4680BD00BF6D82FF1F7082FF1F8C82FF1F8F82FF1F8482FF1F8E82FF1F9182FF1F6C82FF1F00E100E00960004028600040086000401260004080B400AFFD
:400F40000F4B00221A700F4B00221A700E4B00221A700E4B00221A700D4B00221A700D4B00221A700C4B00221A700C4B03221A700B4B80221A70BD465DF8047B704700BF7B
:400F80007082FF1F8C82FF1F8F82FF1F8482FF1F8E82FF1F9182FF1F6C82FF1F286000400860004080B400AF034B1B78DBB21846BD465DF8047B70478F82FF1F90B482B0E5
:400FC00000AF0346FB71FB79002B19D0FB79082B16D8FA790C4913465B0013449B000B4400225A700948F979FA79074C13465B0013449B0023445B79DAB20B0103449A7074
:401000000837BD4690BC70479482FF1FFC5F004080B582B000AF0023FB71324B1B79DBB2184600F069F80346BB712E4B1B78DBB2DBB25BB2002B16DA2A4B5B78DBB2212BC6
:4010400000D00FE0284B07221A80BA791346DB009B1A264A1344244A536000F095FA0346FB7100BF38E01F4B5B78DBB2202B02D0222B1AD030E01C4B07221A80BA79134688
:40108000DB009B1A194A1344174A5360BB79BA7917498A5CD2B242F00102D1B2144AD15400F0F2FA0346FB7116E0BB790D4A9278D2B291B20F4A22F81310BB79BA790C4931
:4010C0008A5CD2B242F00202D1B2094AD15400F077FB0346FB7100BFFB7918460837BD4680BD00BF006000407882FF1F5881FF1F5482FF1F6882FF1F80B485B000AF034663
:40110000FB710023FB73FF23BB7317E0FB7B104AD35C7B737A7B0F4913465B0013449B000B4408339B78DBB2FA799A4203D1FB7BBB730223FB73FB7B0133FB73FB7B012B4D
:40114000E4D9BB7B18461437BD465DF8047B70475C82FF1F9482FF1F80B582B000AF0023BB71224B00221A70214B00221A70204B00225A700023FB7110E0FB791D4AD35C9F
:401180007B717B79002B06D07B79082B03D87B791846FFF713FFFB790133FB71FB79012BEBD9154B1B78DBB2002B18D0114B1B78DBB2002B13D0114B1B78DBB2002B0ED0D8
:4011C0000D4B1B78DBB2082B09D80A4B1B78DBB2082B04D8094B1B78DBB2082B01D90123BB71BB7918460837BD4680BD3B82FF1F5482FF1F6082FF1F5882FF1F5C82FF1F3A
:4012000080B485B000AF78600B46FB701346BB707B68DB7803F00303FB737B689B78DBB25BB2002B1ADAFB7B032B0AD0BB7803F001031549FA78CA54BB7843F00103BB7007
:401240001BE0BB789B08DBB203F001030F49FA78CA54BB7843F00403BB700EE0FB7B032B0BD0BB785B08DBB203F001030849FA78CA54BB7843F00203BB70BB7818461437BF
:40128000BD465DF8047B70475882FF1F5C82FF1F6082FF1F80B582B000AF374B1B78BB71BB7903F01003002B63D00123FB71BB795BB2002B13DABB7903F00F03012B02D09D
:4012C0000023FB711DE000F061F82C4B1B78DBB2DBB25BB2002B14DA0023FB7111E0BB7903F04003002B02D000F094F809E0BB7903F02003002B02D000F0B2F801E000239E
:40130000FB71FB79002B34D01B4B1B78BB71BB795BB2002B2DDB1A4B1B78DAB2194B1B78DBB21343BB71184ABB791370164B1B78DBB2BA799A421CD1104B1B78FB710E4B32
:401340001B78DBB223F07F03BB71BB79002B0AD1094B0A4A1278D2B21A70074B1B78DBB203F00F03FB71054B1B78DBB2FA799A42E2D10837BD4680BD286000408D82FF1F49
:401380000283FF1F9082FF1F2960004080B582B000AF1D4B1B78FB711B4AFB7913701A4B1B78FB71FB795BB2002B03DA174AFB79137025E0022000F043FA154B1B78DBB29F
:4013C00003F06003202B08D0402B0BD0002B0ED100F004FB0346FB710CE002F0B3FC0346FB7107E001F0C0FA0346FB7102E00023FB7100BFFB79002B02D1044B03221A7057
:401400000837BD4680BD00BF286000408D82FF1F0060004080B500AF104B1B78DBB2062B19D801A252F823F0571400005714000045140000571400004B14000057140000F4
:401440005114000000F0FAF806E000F0A9F903E000F0D2F900E000BF80BD00BF7082FF1F80B500AF124B1B78DBB2062B1DD801A252F823F0AB140000AB14000091140000BA
:40148000AB14000097140000AB1400009D14000000F0DAF80AE000F029F907E0032000F0CFF9044B03221A7000E000BF80BD00BF7082FF1F8D82FF1F80B483B000AF0023C3
:4014C000FB71294B1B78DBB29AB2284B1B889BB213449AB2254B1A8015E02549FB79254A52681278D2B2CA54224B5B680133214A5360FB790133FB711E4B1B889BB2013B39
:401500009AB21C4B1A801B4B1B889BB2002B02D0FB79072BE1D9144B1B78DBB2082B02D0FB79002B0FD0144B1B78DBB283F07F03DB43DAB2104B1A70104B0F221A70104B35
:4015400002221A7005E00D4B02221A700C4B02221A700C4AFB791370034AFB7913700C37BD465DF8047B70476C82FF1F6E82FF1F006000407882FF1F0283FF1F8D82FF1FC9
:401580007082FF1F9082FF1F80B582B000AF164B1B889BB2002B02D100F02EF81EE0134B02221A70124B00221A7000F069F9114BDB79DBB29BB21B029AB20E4B9B79DBB21E
:4015C0009BB21343FB80084B1B889BB2FA889A4202D2054AFB881380FFF76EFF012318460837BD4680BD00BF7882FF1F7082FF1F0283FF1F0060004080B400AF0A4B022209
:401600001A700A4B80221A70094B0F221A70094B00221A70084B00221A7001231846BD465DF8047B704700BF7082FF1F0283FF1F8D82FF1F6C82FF1F9082FF1F80B500AFC2
:40164000FFF73AFF80BD00BF80B500AF0A4B1B78DBB29AB2094B1B889BB213449AB2074B1A80074B00221A70012000F0E9F8054B03221A7080BD00BF6C82FF1F6E82FF1FC2
:401680007082FF1F8D82FF1F80B582B000AF124B04221A70114B80221A7000F0F1F8104BDB79DBB29BB21B029AB20D4B9B79DBB29BB21343FB800B4B1B889BB2FA889A42BC
:4016C00002D2084AFB881380074B0B221A70012318460837BD4680BD7082FF1F0283FF1F006000407882FF1F8D82FF1F80B483B000AF0023BB71234B1B78DBB203F00F0314
:40170000DBB2023BFB71FB799AB21F4B1B889BB213449AB21C4B1A8018E01C4B5B681C49BA798A5CD2B21A70184B5B680133174A5360BB790133BB71FB79013BFB71134B8B
:401740001B889BB2013B9AB2104B1A800F4B1B889BB2002B02D0FB79002BDED10D4AFB7913700D4B1B78DBB283F07F03DB43DAB2094B1A70094B0B221A700C37BD465DF87E
:40178000047B7047296000406E82FF1F7882FF1F006000409082FF1F0283FF1F8D82FF1F80B500AF044B00221A70012000F048F8024B03221A7080BD7082FF1F8D82FF1FBE
:4017C00080B400AF084B06221A70084B06221A70074B80221A70074B00221A7001231846BD465DF8047B70477082FF1F8D82FF1F0283FF1F9082FF1F80B500AF0C4B1B7892
:40180000DBB2002B0AD00B4A094B1B78DBB263F07F03DBB21370064B00221A70064B00221A70012000F00CF8044B03221A7080BD8E82FF1F086000407082FF1F8D82FF1F0B
:4018400080B483B000AF0346FB710B4B9B68002B0CD0094B9B68FA791A70074B9B68074A128892B25A80044B00229A600C37BD465DF8047B704700BF7882FF1F6E82FF1F6A
:4018800080B400AF094B00221A80094B9B68002B07D0074B9B6800221A70054B9B6800225A80BD465DF8047B704700BF6E82FF1F7882FF1F80B400AF104A104B1B78DBB261
:4018C00023F00103DBB213700D4B9B7C0D4B1B7BDBB203F00303012B08D00A4BDB7BDBB283F07F03DB43DAB2064BDA73054B01225A73BD465DF8047B704700BF0B6000402D
:40190000FC5F00409482FF1F80B400AF104A104B1B78DBB223F00203DBB213700D4B93F822300D4B1B7EDBB203F00303012B08D0094BDB7EDBB283F07F03DB43DAB2064B1E
:40194000DA76054B01225A76BD465DF8047B70470B600040FC5F00409482FF1F80B400AF124A124B1B78DBB223F00403DBB213700F4B93F832300F4B93F82430DBB203F0E6
:401980000303012B0AD00B4B93F82730DBB283F07F03DB43DAB2074B83F82720054B012283F82520BD465DF8047B70470B600040FC5F00409482FF1F80B400AFBD465DF82D
:4019C000047B704780B500AFFFF7B8FA80BD00BF80B500AF00F0F2FF80BD00BF80B586B000AF0023FB759D4B1B78FB7100233B619B4B00221A80FB795BB2002B80F20481D0
:401A0000964B5B78DBB20A2B00F2FC8001A252F823F000BF5D1B0000051C0000051C0000051C0000051C0000051C0000411A0000051C0000CF1B0000051C0000E51B00005F
:401A4000864BDB78DBB2012B0ED100F017FEB860BB685B68824A5360814B12221A80FFF793FD0346FB7578E07C4BDB78DBB2022B24D17A4B9B78DBB2184600F0D5FDB86091
:401A8000BB68002B69D0BB685B68754A5360744B5B6803331B78DBB29BB21B029AB2704B5B6802331B78DBB29BB213439AB26C4B1A80FFF769FD0346FB75A4E0674BDB7808
:401AC000DBB2032B44D10023FB73664B3B6109E03B691B78BB71BB793A6913443B61FB7B0133FB735D4B9B78DBB2FA7B9A4204D23B691B78DBB2002BEAD1584B9B78DBB2AE
:401B0000EE2B01D1584B3B61544B9B78DBB2002B0BD0524B9B78DAB2544B1B7C9A4204D1534800F0A1F9524B3B613B691B78DBB2002B12D03B691B78DBB29AB2484B1A80A7
:401B4000474A3B695360FFF71FFD0346FB755AE002F0F8F80346FB7555E054E0FB7903F00303002B1FD0022B00D02FE03C4B02221A803A4B1B79DBB203F07F023D491346A3
:401B80005B0013449B000B449B78DAB23A4B1A70394B00225A70324B374A5A60FFF7F4FC0346FB7512E02E4B02221A80334B1B78DAB2314B1A70304B00225A70284B2E4AF6
:401BC0005A60FFF7E1FC0346FB7500BF1BE0244B01221A80224B2A4A5A60FFF7D5FC0346FB7510E01E4B01221A801C4B1B79DBB21A46244B13441A4A5360FFF7C5FC0346C3
:401C0000FB7500E000BF19E1144B5B78DBB2013B0A2B00F2128101A252F823F0271D00003B1E0000B11D00003B1E0000491C00003B1E00003B1E00003B1E00008D1C000009
:401C40003B1E0000E31C0000044B9B78DAB20E4B1A70FFF7B5FD0346FB75EFE0006000407882FF1F145300001C540000BC5200000883FF1F9482FF1F3C82FF1F9182FF1F84
:401C80008F82FF1F0083FF1F8E82FF1F6E4B9B787B717B79002B06D07B79013BDBB2184600F0C2FCB8607B79002B02D0BB68002B02D17B79002B13D1644B1B78DBB27A79C1
:401CC0009A4208D0614A7B791370614B01221A70012000F0C1F9FFF773FD0346FB75ADE0ACE000F009FE0346002B1BD0564B1B793B71554B1B79DAB2564B1A703B79564A3C
:401D0000D35CDAB23B795549CB5CDBB29A4204D04F4B01221A7000F069FBFFF751FD0346FB758BE08AE0FB7903F00303012B22D0012B0DD3022B00D039E0434B9B78DBB2EA
:401D4000002B04D100F040FD0346FB752FE02EE03D4B9B78DBB2012B0CD1414B1B78DBB223F00203DAB23E4B1A70FFF729FD0346FB751CE01BE0344B1B79DBB2012B15D847
:401D8000314B9B78DBB2DB43DBB22F4A1279D2B211461046334A125CD2B21340DAB2314B5A54FFF70DFD0346FB75FFE700BF45E0FB7903F00303012B22D0012B0DD3022B68
:401DC00000D039E0204B9B78DBB2002B04D100F08DFC0346FB752FE02EE01B4B9B78DBB2012B0CD11E4B1B78DBB243F00203DAB21B4B1A70FFF7E4FC0346FB751CE01BE0CE
:401E0000114B1B79DBB2012B15D80F4B9B78DBB2DB43DBB20C4A1279D2B211461046114A125CD2B21340DAB20E4B5A54FFF7C8FC0346FB75FFE700BF00E000BFFB7D184695
:401E40001837BD4680BD00BF006000408F82FF1F8C82FF1F8482FF1F7482FF1F0083FF1F9182FF1F0483FF1FB0B58AB000AF7860314B07F114041D460FCD0FC42B68237080
:401E8000002387F826307B68002B52D07B6822221A707B68013303221A7007F10C03184600F016FE022387F827303EE097F827307A68134497F8262007F128010A4412F894
:401EC0001C2C1209D2B207F128010A4412F8142C1A7097F8273001337A68134400221A7097F8273002337A68134497F8262007F128010A4412F81C2C02F00F0207F12801AB
:401F00000A4412F8142C1A7097F8273003337A68134400221A7097F82630013387F8263097F82730043387F8273097F82730212BBCD92837BD46B0BDA852000090B482B097
:401F400000AF0123FB7174E03F4AFB791B0113440C221A70FA793D4913465B0013449B000B445B79DBB2002B1AD0FA79374913465B0013449B000B441B79DBB2DBB25BB29F
:401F8000002B06DA324AFB791B0113440C229A700CE02F4AFB791B01134408229A7005E02B4AFB791B01134480229A702648F979FA79264C13465B0013449B002344DB88D9
:401FC0009BB2DAB20B0103449A711F48F979FA791E4C13465B0013449B002344DB889BB21B0A9BB2DAB20B010344DA711648F979FA79164C13465B0013449B002344DB8886
:402000009BB2DAB20B0103441A710F48F979FA790E4C13465B0013449B002344DB889BB21B0A9BB2DAB20B0103445A71FB790133FB71FB79082B87D9064BFF221A70083724
:40204000BD4690BC704700BF706000409482FF1FFC5F00400A60004080B58AB000AF0346FB7100237B84002387F827304CE097F82720C44913465B0013449B000B440022FE
:402080001A7097F82720BF4913465B0013449B000B4400229A7097F82720BA4913465B0013449B000B440022DA7097F82720B54913465B0013449B000B44083300221A809D
:4020C00097F82720AF4913465B0013449B000B44083300229A7097F82720AA4913465B0013449B000B4400225A7097F82720A54913465B0013449B000B4400225A7197F8D7
:402100002730013387F8273097F82730082BAED9FB79002B16D0002387F825300EE097F82530994A0021D15497F82530974A0021D15497F82530013387F8253097F825304C
:40214000012BECD9924B1B78DBB2002B00F049810023FB768E4B1B78DBB2013BDBB2184600F062FA78617B695B683B613B6907331B7803F04003002B08D0864B1B78DBB2D5
:4021800043F00103DAB2834B1A7007E0814B1B78DBB223F00103DAB27E4B1A707B6908337B617B691B7887F82730012387F82530B3E07B695B68FB61002387F82630A0E0ED
:4021C00097F82520FB699B7803F07F039A4240F0908097F825206B4913465B0013449B000B4408331B889AB2FB699B889A420CD297F82520FB699888624913465B0013440D
:402200009B000B44083302461A80FB691B781A465D4B9B5CDAB2FB695B789A4269D197F82520FB699878574913465B0013449B000B4402461A7197F82520FB69D8785149F6
:4022400013465B0013449B000B4402461A70FB69DB7803F00303FB73FB699B78DBB25BB2002B1ADA97F82520FB7B012B01D1072000E00D20434913465B0013449B000B444C
:4022800002465A7197F825203E4913465B0013449B000B4401225A7019E097F82520FB7B012B01D1052000E00920364913465B0013449B000B4402465A7197F8252031498A
:4022C00013465B0013449B000B4400225A70FB699B790A2B03D0FB699B79022B09D197F82520FB7EF86911461A46FEF789FF0346FB76FB690833FB6197F82630013387F8CF
:40230000263097F8262097F827309A42FFF458AF97F82530013387F8253097F82530082B7FF647AF7B695B68FB61002387F8253016E0FB699B7803F07F02FB69187811491F
:4023400013465B0013449B000B44083302469A70FB690833FB6197F82530013387F8253097F8252097F827309A42E2D300F098F90246094B1A6000237B84012387F82730F6
:4023800029E000BF9482FF1F0083FF1F7482FF1F8F82FF1F9182FF1F8882FF1F97F82720114913465B0013449B000B447A8CDA8097F827200C4913465B0013449B000B443F
:4023C00008331B889AB27B8C13447B8497F82730013387F8273097F82730082BDED9FFF7ADFD2837BD4680BD9482FF1F90B585B000AF874B1B78DBB2002B00F00681844B97
:402400001B78DBB2013BDBB2184600F00DF978607B6808337B607B681B78FB707B685B68BB607C4B1B78BB700023FB73E8E0BB681B78BA789A4240F0DD80BB78764AD35C9B
:40244000DAB2BB685B789A4240F0D480BB689B7803F07F037B70BB68DB7803F003033B707A786E4913465B0013449B000B440022DA707A78BB689878684913465B001344DF
:402480009B000B4402461A717A78BB68D878634913465B0013449B000B4402461A707A78BB6898885D4913465B0013449B000B44083302461A80BB689B78DBB25BB2002B9F
:4024C00018DA7A783B78012B01D1072000E00D20524913465B0013449B000B4402465A717A784E4913465B0013449B000B4401225A7017E07A783B78012B01D1052000E066
:402500000920464913465B0013449B000B4402465A717A78414913465B0013449B000B4400225A703E4A7B781B01134401229A703B4879787A78394C13465B0013449B00D2
:40254000234408331B889BB21B0A9BB2DAB20B0103441A70324879787A78304C13465B0013449B00234408331B889BB2DAB20B0103445A702B4879787A78284C13465B00B6
:4025800013449B002344DB889BB2DAB20B0103449A71244879787A78204C13465B0013449B002344DB889BB21B0A9BB2DAB20B010344DA711B4879787A78184C13465B00B6
:4025C00013449B002344DB889BB2DAB20B0103441A71144879787A78104C13465B0013449B002344DB889BB21B0A9BB2DAB20B0103445A71BB680833BB60FB7B0133FB7363
:40260000FA7BFB789A42FFF412AF1437BD4690BD8F82FF1F8482FF1F0083FF1F9482FF1FFC5F00407060004080B485B000AF0346FB71104B1B78DBB20F4ADB0013445B681E
:40264000FB60FB681033FB60FB681B78FA799A4202D30023FB6005E0FB79DB00FA6813445B68FB60FB6818461437BD465DF8047B704700BF6D82FF1F1454000080B400AFAA
:40268000054B1B78DBB2054ADB0013445B681846BD465DF8047B70476D82FF1F1454000080B584B000AF104B1B78DBB2013BDBB21846FFF7B9FFB860BB68002B0DD0BB6837
:4026C0005B681B79FB71FB790233DB00BA681344BB60BB685B68FB6001E00023FB60FB6818461037BD4680BD8F82FF1F80B582B000AF0023FB71314B1B79DBB203F07F0331
:40270000BB71BB79002B53D0BB79082B50D8BA79B9792B480B465B000B449B0003449B78DBB243F00103D8B2254913465B0013449B000B4402469A70BA79214913465B0040
:4027400013449B000B440022DA70BA79B9791C480B465B000B449B0003445B78DBB243F00203D8B2164913465B0013449B000B4402465A70BA79124913465B0013449B004A
:402780000B441B79DBB2DBB25BB2002B06DA0D4ABB791B0113448D229A7005E0094ABB791B01134489229A70FFF70AF80346FB71FB7918460837BD4680BD00BF006000405C
:4027C0009482FF1FFC5F004080B582B000AF0023FB71464B1B79DBB203F07F03BB71BB79002B7DD0BB79082B7AD8BA79B97940480B465B000B449B0003449B78DBB223F030
:402800000103D8B23A4913465B0013449B000B4402469A70BA79364913465B0013449B000B440022DA70334ABB791B0113447F221A70BA79B9792E480B465B000B449B006D
:4028400003445B78DBB223F00203D8B2284913465B0013449B000B4402465A70BA79244913465B0013449B000B441B79DBB2DBB25BB2002B18DABA791D4913465B00134486
:402880009B000B445B78DBB2012B06D1194ABB791B0113440C229A701EE0164ABB791B0113440D229A7017E0BA79114913465B0013449B000B445B78DBB2012B06D10D4A18
:4028C000BB791B01134408229A7005E0094ABB791B01134409229A70FEF772FF0346FB71FB7918460837BD4680BD00BF006000409482FF1FFC5F004080B584B000AF002314
:40290000FB73154B1B79BB73144B1B78DBB2013BDBB21846FFF788FEB860BB685B681B79FB71BA7BFB799A4202D9BB7B022B0ED8BB7BBA7B0A498A5CD1B20A4AD154BB7B68
:40294000054A9278D1B2064AD1540123FB73FB7B18461037BD4680BD006000408F82FF1F0083FF1F7482FF1F80B582B000AF0023FB710F4B1B78DBB2DBB25BB2002B12DAC5
:402980000B4B5B78DBB2012B00D00CE0094B0A4A5A60094B1B789AB2064B1A80FEF7F4FD0346FB7100BFFB7918460837BD4680BD006000407882FF1F3054000080B400AF2F
:4029C000054B1B78DBB203F040039B09DBB21846BD465DF8047B70478F450040000000000230800803D000BF01380046FCD17047EFF3108072B6704780F31088704700BFDF
:402A000080B483B000AF0346FB7101BE0C37BD465DF8047B704700BF80B582B000AF0346FB80FB88044A127802FB03F31846FFF7D7FF0837BD4680BD7C81FF1F80B584B027
:402A400000AF03463960FB710F4B1B68FB60FB791F2B02D90020FFF7D3FFFB7903F01F0310339B00FA6813441B68BB60FB7903F01F0310339B00FA6813443A681A60BB6883
:402A800018461037BD4680BD08ED00E080B582B000AF03460A46FB711346BB71BB79072B02D90020FFF7ACFFFB791F2B02D90020FFF7A6FFFB7903F01F0303F1604303F54E
:402AC0006443BA795201D2B21A700837BD4680BD80B483B000AF7860264B1B78DBB21A467B681A60244B1B78DBB21B027A6812681A437B681A60214B1B78DBB21B047A6891
:402B000012681A437B681A601D4B1B78DBB21B067A6812681A437B681A607B680433194A1278D2B21A60184B1B78DBB21A027B6804337968043109680A431A60134B1B78A5
:402B4000DBB21A047B6804337968043109680A431A600F4B1B78DBB21A067B6804337968043109680A431A600C37BD465DF8047B704700BF0301004904010049EC460040A3
:402B8000020100490101004900010049050100490601004980B500AF054B1B78002B04D100F008F8024B01221A7000F061F880BD4082FF1F80B582B000AF284A274B1B78F1
:402BC000DBB243F00203DBB21370254B1B78DBB223F07003FB71224AFB7943F01003DBB21370204A1F4B1B78DBB223F03003DBB213701C4A1B4B1B78DBB243F03003DBB21F
:402C00001370184A174B1B78DBB223F00F03DBB21370144A134B1B78DBB243F00F03DBB21370642000F048F8002000F055F8002000F062F80C4A0C4B1B78DBB243F0010348
:402C4000DBB21370094A094B1B78DBB243F00103DBB213700837BD4680BD00BF004F0040024F00400B4F0040A3430040014F004080B400AF0D4A0D4B1B78DBB243F001039F
:402C8000DBB213700A4A0A4B1B78DBB243F00103DBB21370074A074B1B78DBB243F00103DBB21370BD465DF8047B7047A3430040B3430040004F004080B483B000AF034612
:402CC000FB71044BFA7992B21A800C37BD465DF8047B7047044F004080B483B000AF0346FB71044BFA7992B21A800C37BD465DF8047B7047064F004080B483B000AF034634
:402D0000FB71044AFB7913700C37BD465DF8047B704700BF034F004080B485B000AF0346FB710B4B1B78DBB223F02003FB730849FB795B01DBB203F02003DAB2FB7B1343BD
:402D4000DBB20B701437BD465DF8047B704700BFF051004080B485B000AF0346FB710B4B1B78DBB223F00203FB730849FB795B00DBB203F00203DAB2FB7B1343DBB20B7064
:402D80001437BD465DF8047B704700BF1051004080B500AF054B1B78002B04D100F008F8024B01221A7000F061F880BD4182FF1F80B582B000AF284A274B1B78DBB243F075
:402DC0000203DBB21370254B1B78DBB223F07003FB71224AFB7943F01003DBB21370204A1F4B1B78DBB223F03003DBB213701C4A1B4B1B78DBB243F03003DBB21370184AF8
:402E0000174B1B78DBB223F00F03DBB21370144A134B1B78DBB243F00F03DBB21370642000F048F8002000F055F8002000F062F80C4A0C4B1B78DBB243F00203DBB213701A
:402E4000094A094B1B78DBB243F00103DBB213700837BD4680BD00BF0C4F00400E4F0040174F0040A34300400D4F004080B400AF0D4A0D4B1B78DBB243F00203DBB213706C
:402E80000A4A0A4B1B78DBB243F00203DBB21370074A074B1B78DBB243F00103DBB21370BD465DF8047B7047A3430040B34300400C4F004080B483B000AF0346FB71044B58
:402EC000FA7992B21A800C37BD465DF8047B7047104F004080B483B000AF0346FB71044BFA7992B21A800C37BD465DF8047B7047124F004080B483B000AF0346FB71044A1B
:402F0000FB7913700C37BD465DF8047B704700BF0F4F004080B400AFBD465DF8047B704780B582B000AF0F2000F06AF800F058F8FFF75EFD0346FB71074A074B1B78DBB25B
:402F400043F01003DBB21370FB791846FFF754FD0837BD4680BD00BF9465004080B500AF00F034F94FF4004000F05CF9054B1B78002B04D1FFF7CEFF024B01221A70FFF70C
:402F8000CFFF80BD4282FF1F80B582B000AF00F059F90346FB80FB88A3F500439BB2BB80BB881BB218460837BD4680BD80B584B000AF0346FB80B7F90630002B04DBFB88E6
:402FC000A3F50043FB8103E0FB88A3F50043FB81FB89184600F026F91037BD4680BD00BF80B400AF054B1B78DBB203F00F03DBB21846BD465DF8047B704700BF64650040ED
:4030000080B483B000AF0346FB71044AFB7913700C37BD465DF8047B704700BF8465004080B400AFBD465DF8047B704780B582B000AF0F2000F06AF800F058F8FFF7D8FCB5
:403040000346FB71074A074B1B78DBB243F01003DBB21370FB791846FFF7CEFC0837BD4680BD00BF9464004080B500AF00F084F94FF4004000F0ACF9054B1B78002B04D12E
:40308000FFF7CEFF024B01221A70FFF7CFFF80BD4382FF1F80B582B000AF00F0A9F90346FB80FB88A3F500439BB2BB80BB881BB218460837BD4680BD80B584B000AF0346CF
:4030C000FB80B7F90630002B04DBFB88A3F50043FB8103E0FB88A3F50043FB81FB89184600F076F91037BD4680BD00BF80B400AF054B1B78DBB203F00F03DBB21846BD4601
:403100005DF8047B704700BF6464004080B483B000AF0346FB71044AFB7913700C37BD465DF8047B704700BF8464004080B582B000AF1C4B1B78DBB223F00703FB71194AEC
:40314000FB791370174B1B78DBB223F00303FB71144AFB79137000F0B1F84FF4004000F08DF84FF4004000F05DF8002000F03EF800F04CF84FF4004000F090F8FFF738FC04
:403180000346BB71084A084B1B78DBB243F01003DBB21370BB791846FFF72EFC0837BD4680BD00BF746500409565004080B400AF054A054B1B78DBB263F07F03DBB21370B5
:4031C000BD465DF8047B70477465004080B500AF054B1B78002B04D1FFF7A8FF024B01221A70FFF7E3FF80BD4482FF1F80B483B000AF0346FB71044AFB7913700C37BD467B
:403200005DF8047B704700BF8565004080B400AF034B1B78DBB21846BD465DF8047B70476565004080B483B000AF0346FB80044AFB8813800C37BD465DF8047B704700BF05
:403240000C6A004080B400AF044B1B78044B1B889BB21846BD465DF8047B7047066500408C6A004080B400AF034B1B889BB21846BD465DF8047B70478C6A004080B483B01D
:4032800000AF0346FB80044AFB8813800C37BD465DF8047B704700BF4C6A004080B483B000AF0346FB80044AFB8813800C37BD465DF8047B704700BF6C6A004080B500AFE9
:4032C00001E0FFF7CFFFFFF7A1FF034603F04003002BF6D180BD00BF80B582B000AF1C4B1B78DBB223F00703FB71194AFB791370174B1B78DBB223F00303FB71144AFB79CD
:40330000137000F0B1F84FF4004000F08DF84FF4004000F05DF8002000F03EF800F04CF84FF4004000F090F8FFF762FB0346BB71084A084B1B78DBB243F01003DBB2137059
:40334000BB791846FFF758FB0837BD4680BD00BF756500409664004080B400AF054A054B1B78DBB263F07F03DBB21370BD465DF8047B70477565004080B500AF054B1B78EA
:40338000002B04D1FFF7A8FF024B01221A70FFF7E3FF80BD4582FF1F80B483B000AF0346FB71044AFB7913700C37BD465DF8047B704700BF8664004080B400AF034B1B78EE
:4033C000DBB21846BD465DF8047B70476664004080B483B000AF0346FB80044AFB8813800C37BD465DF8047B704700BF0868004080B400AF044B1B78044B1B889BB218466A
:40340000BD465DF8047B7047046400408868004080B400AF034B1B889BB21846BD465DF8047B70478868004080B483B000AF0346FB80044AFB8813800C37BD465DF8047B91
:40344000704700BF4868004080B483B000AF0346FB80044AFB8813800C37BD465DF8047B704700BF6868004080B500AF01E0FFF7CFFFFFF7A1FF034603F04003002BF6D178
:4034800080BD00BF80B582B000AF786000F03CF8786800F009F8072000F018F800F028F80837BD4680BD00BF80B485B000AF7860054B1B68FB60FB6850337A681A6014370D
:4034C000BD465DF8047B704708ED00E080B483B000AF0346FB71054AFB795B01DBB213700C37BD465DF8047B704700BF04E400E080B400AF034B10221A60BD465DF8047B63
:40350000704700BF00E100E080B400AF034B10221A60BD465DF8047B704700BF80E100E080B500AF054B1B78002B04D100F008F8024B01221A7000F023F880BD4682FF1F0A
:4035400080B400AF094B72221A70094B20221A70084B06221A70084B47221A70074B02221A70BD465DF8047B704700BF8A650040876400402865004038650040886500400D
:4035800080B582B000AFFFF733FA0346FB710F4A0E4B1B78DBB243F02003DBB213700C4A0B4B1B78DBB243F01003DBB21370094A084B1B78DBB243F01003DBB21370FB7933
:4035C0001846FFF719FA0837BD4680BD9A650040976400409865004080B483B000AF0023FB710C4B1B78BB71BB7903F02003002B09D0094B1B78FB71BB7903F01E03002B5F
:4036000001D00023FB71FB7918460C37BD465DF8047B7047676400404964004080B483B000AF0346FB7100BF074B1B78DBB203F00403002BF8D1054AFB7913700C37BD4619
:403640005DF8047B704700BF686500404965004080B584B000AF78600023FB810B4B1B78002B10D009E0FB897A6813441B781846FFF7D4FFFB890133FB81FB897A68134431
:403680001B78002BEFD11037BD4680BD4682FF1F80B483B000AF0346FB71044AFB7913700C37BD465DF8047B704700BF7965004080B582B000AF786000F03CF8786800F07F
:4036C00009F8072000F018F800F028F80837BD4680BD00BF80B485B000AF7860054B1B68FB60FB6868337A681A601437BD465DF8047B704708ED00E080B483B000AF0346CF
:40370000FB71054AFB795B01DBB213700C37BD465DF8047B704700BF0AE400E080B400AF034B4FF480621A60BD465DF8047B704700E100E080B400AF034B4FF480621A60A1
:40374000BD465DF8047B704780E100E080B582B000AF42F2273000F05BF842F2273000F073F8FFF745F90346FB710A4A094B1B78DBB243F01003DBB21370FB791846FFF7E1
:403780003BF900F071F8002000F026F80837BD4680BD00BF9364004080B400AF054A054B1B78DBB263F07F03DBB21370BD465DF8047B70477564004080B500AF054B1B78E4
:4037C000002B04D1FFF7C2FF024B01221A70FFF7E3FF80BD4882FF1F80B483B000AF0346FB71044AFB7913700C37BD465DF8047B704700BF8364004080B400AF034B1B7890
:40380000DBB21846BD465DF8047B70476364004080B483B000AF0346FB80044AFB8813800C37BD465DF8047B704700BF4468004080B400AF034B1B889BB21846BD465DF877
:40384000047B70478468004080B483B000AF0346FB80044AFB8813800C37BD465DF8047B704700BF0468004080B500AF01E0FFF7DFFFFFF7C1FF034603F00803002BF6D1E4
:4038800080BD00BF80B582B000AF786000F03CF8786800F009F8072000F018F800F028F80837BD4680BD00BF80B485B000AF7860054B1B68FB60FB6858337A681A60143701
:4038C000BD465DF8047B704708ED00E080B483B000AF0346FB71054AFB795B01DBB213700C37BD465DF8047B704700BF06E400E080B400AF034B40221A60BD465DF8047B2D
:40390000704700BF00E100E080B400AF034B40221A60BD465DF8047B704700BF80E100E080B582B000AF786000F03CF8786800F009F8072000F018F800F028F80837BD4659
:4039400080BD00BF80B485B000AF7860054B1B68FB60FB6860337A681A601437BD465DF8047B704708ED00E080B483B000AF0346FB71054AFB795B01DBB213700C37BD46ED
:403980005DF8047B704700BF08E400E080B400AF034B4FF480721A60BD465DF8047B704700E100E080B400AF034B4FF480721A60BD465DF8047B704780E100E080B582B0AC
:4039C00000AFC72000F06AF8C72000F083F8FFF70FF80346FB710A4A094B1B78DBB243F01003DBB21370FB791846FFF705F800F081F8002000F036F80837BD4680BD00BF13
:403A00009B64004080B400AF054A054B1B78DBB263F07F03DBB21370BD465DF8047B70477864004080B500AF054B1B78002B04D1FFF7C4FF024B01221A70FFF7E3FF80BD87
:403A40004982FF1F80B400AF054A054B1B78DBB203F07F03DBB21370BD465DF8047B70477864004080B483B000AF0346FB71044AFB7913700C37BD465DF8047B704700BFEC
:403A80008B64004080B400AF034B1B78DBB21846BD465DF8047B70476B64004080B483B000AF0346FB71044AFB7913700C37BD465DF8047B704700BF2B64004080B400AF39
:403AC000034B1B78DBB21846BD465DF8047B70474B64004080B483B000AF0346FB71044AFB7913700C37BD465DF8047B704700BF0B64004080B500AF01E0FFF7DFFFFFF79F
:403B0000C1FF034603F00803002BF6D180BD00BF80B582B000AF786000F03CF8786800F009F8072000F018F800F028F80837BD4680BD00BF80B485B000AF7860054B1B6875
:403B4000FB60FB686C337A681A601437BD465DF8047B704708ED00E080B483B000AF0346FB71054AFB795B01DBB213700C37BD465DF8047B704700BF0BE400E080B400AFA2
:403B8000034B4FF400621A60BD465DF8047B704700E100E080B400AF034B4FF400621A60BD465DF8047B704780E100E080B584B000AF03460A46FB8013467B7100F0B2F81F
:403BC0000346FB7300F0A2F80346BB81FA88BB899A4200F08780454B1B78DBB203F00203FB72FB7B002B20D1BB89002B02D0FB88002B1AD1BB89002B0BD13D4AFB881380FD
:403C00003C4A3C4B1B78DBB223F04003DBB2137068E0384A374B1B78DBB243F04003DBB21370334AFB8813805CE0FB7A002B33D0314B00221A70314B02221A70304B00229E
:403C40001A70304A2F4B1B78DBB203F07F03DBB21370284B1B78DBB203F00803002B02D0FB88002B18D1284ABB891380224B07221A7000BF204B1B78DBB203F00103002B27
:403C8000F8D11A4A194B1B78DBB223F00203DBB21370194B00221A70144B1B78DBB203F00203002B13D0184AFB881380124A7B79002B01D0032300E00123137000BF0E4B0D
:403CC0001B78DBB203F00103002BF8D10AE0084AFB8813800549054B1B78DAB2FB7A1343DBB20B701037BD4680BD00BFA24300408440004086400040014000401040004051
:403D000014400040084000400240004080B400AF034B1B889BB21846BD465DF8047B70478440004080B400AF054B1B78DBB203F00703DBB21846BD465DF8047B704700BF4C
:403D40008640004080B582B000AF1A4B1B78DBB203F00303012B02D0022B04D012E0154B1B79BB7111E0134B1B79DBB203F07F02114913465B0013449B000B4408339B7817
:403D8000BB7102E00023BB7100BF0C4B1A68BB7913441B78022B04D1FDF73AF90346FB7102E00023FB7100BFFB7918460837BD4680BD00BF006000409482FF1F8882FF1FD6
:403DC0002DE9F0478AB006460F4600F04FF8DFF898A004469AF900300D4601330FD03046394600F009F950B14FF000084FF000093046394642464B4600F056FD20B92046DB
:403E000029460AB0BDE8F08716499AF8004001220023CDE90467CDE9026701910092089364B9CDE90689684600F012F980B1089B9BB9DDE906010AB0BDE8F08740464946DC
:403E400042464B4600F0E8FB022CCDE90601EAD100F07AFD21230360E9E700F075FD089B0360E6E7585400008481FF1F2DE9F041604E0C46B6460E40764505460B4600F0F6
:403E800098800029024676DD5FEA215E00F08180AEF2FF3EC3F313031EF0010F43F480135ED100273C46D10F01EB43034FEA6E0E520016204FF4001165189D424FEAD27684
:403EC0004FEA420202DC5B1B6C180F44013806EB43034FEA5101EFD1844620264FF000410AE0A34220D0D50F013E4FEA510105EB43034FEA420220D09C420CEB0105F0DA1A
:403F0000002D05EB010C09DBA0461B1B954288BF03F1FF334446521B0844E4E7BCF1000FF2DB04F10108F0E7954217D8002D05EB010C48DB98460023ECE7134315D140083C
:403F40007B1003F17F5303F50013FA0703EB0E57394648BF40F00040BDE8F0811C46C2E7D10F01EB430352009BE7411C31D000F001031844E3E721F000460643ECD079BB8C
:403F80008E46D30AAEF1150E5205002BF9D0DC0222D400215B00D80201F10101FAD5C1F10100C1F1200422FA04F4234386448A406EE702460B4600F005FA2A46234600F019
:403FC0004FF8BDE8F081BCF1000FAADAA0460023A0E701373046B3E7202401200021E2E702460B4600F03AF802460B4600F014FBB2E700BF0000F07F10B431F0004408D0E2
:40400000114BA1F580129A4208D804205DF8044B704718B902205DF8044B704701F1FF41094B01F5E0019942EFD9B4F5801F01D20320EBE7054B9C4201D00020E6E7B0FACD
:4040400080F04009E2E700BFFFFFDF7F0000F07F0020704781F0004102E000BF83F0004330B54FEA41044FEA430594EA050F08BF90EA020F1FBF54EA000C55EA020C7FEAAE
:40408000645C7FEA655C00F0E2804FEA5454D4EB5555B8BF6D420CDD2C4480EA020281EA030382EA000083EA010180EA020281EA0303362D88BF30BD11F0004F4FEA013110
:4040C0004FF4801C4CEA113102D0404261EB410113F0004F4FEA03334CEA133302D0524263EB430394EA050F00F0A780A4F10104D5F1200E0DDB02FA0EFC22FA05F2801880
:4041000041F1000103FA0EF2801843FA05F359410EE0A5F120050EF1200E012A03FA0EFC28BF4CF0020C43FA05F3C01851EBE37101F0004507D54FF0000EDCF1000C7EEB71
:4041400000006EEB0101B1F5801F1BD3B1F5001F0CD349085FEA30004FEA3C0C04F101044FEA445212F5800F80F09A80BCF1004F08BF5FEA500C50F1000041EB045141EA84
:40418000050130BD5FEA4C0C404141EB010111F4801FA4F10104E9D191F0000F04BF01460020B1FA81F308BF2033A3F10B03B3F120020CDA0C3208DD02F1140CC2F10C028C
:4041C00001FA0CF021FA02F10CE002F11402D8BFC2F1200C01FA02F120FA0CFCDCBF41EA0C019040E41AA2BF01EB0451294330BD6FEA04041F3C1CDA0C340EDC04F11404BA
:40420000C4F1200220FA04F001FA02F340EA030021FA04F345EA030130BDC4F10C04C4F1200220FA02F001FA04F340EA0300294630BD21FA04F0294630BD94F0000F83F4B2
:40424000801306BF81F480110134013D4EE77FEA645C18BF7FEA655C29D094EA050F08BF90EA020F05D054EA000C04BF1946104630BD91EA030F1EBF0021002030BD5FEACC
:40428000545C05D14000494128BF41F0004130BD14F580043CBF01F5801130BD01F0004545F0FE4141F470014FF0000030BD7FEA645C1ABF194610467FEA655C1CBF0B46E3
:4042C000024650EA013406BF52EA033591EA030F41F4002130BD00BF90F0000F04BF0021704730B54FF4806404F132044FF000054FF0000150E700BF90F0000F04BF0021F1
:40430000704730B54FF4806404F1320410F0004548BF40424FF000013EE700BF42004FEAE2014FEA31014FEA02701FBF12F07F4393F07F4F81F06051704792F0000F14BFF9
:4043400093F07F4F704730B54FF4607401F0004521F0004120E700BF50EA010208BF704730B54FF000050AE050EA010208BF704730B511F0004502D5404261EB41014FF40D
:40438000806404F132045FEA915C3FF4DCAE4FF003025FEADC0C18BF03325FEADC0C18BF033202EBDC02C2F1200300FA03FC20FA02F001FA03FE40EA0E0021FA02F11444FD
:4043C000C1E600BF70B54FF0FF0C4CF4E06C1CEA11541DBF1CEA135594EA0C0F95EA0C0F00F0DEF82C4481EA030621EA4C5123EA4C5350EA013518BF52EA033541F48011F5
:4044000043F4801338D0A0FB02CE4FF00005E1FB02E506F00042E0FB03E54FF00006E1FB03569CF0000F18BF4EF0010EA4F1FF04B6F5007F64F5407404D25FEA4E0E6D410C
:4044400046EB060642EAC62141EA55514FEAC52040EA5E504FEACE2EB4F1FD0C88BFBCF5E06F1ED8BEF1004F08BF5FEA500E50F1000041EB045170BD06F0004646EA01013C
:4044800040EA020081EA0301B4EB5C04C2BFD4EB0C0541EA045170BD41F480114FF0000E013C00F3AB8014F1360FDEBF002001F0004170BDC4F10004203C35DA0C341BDC35
:4044C00004F11404C4F1200500FA05F320FA04F001FA05F240EA020001F0004221F0004110EBD37021FA04F642EB06015EEA430E08BF20EAD37070BDC4F10C04C4F1200532
:4045000000FA04F320FA05F001FA04F240EA020001F0004110EBD37041F100015EEA430E08BF20EAD37070BDC4F1200500FA05F24EEA020E20FA04F301FA05F243EA020399
:4045400021FA04F001F0004121FA04F220EA020000EBD3705EEA430E08BF20EAD37070BD94F0000F0FD101F00046400041EB010111F4801F08BF013CF7D041EA060195F097
:40458000000F18BF704703F00046520043EB030313F4801F08BF013DF7D043EA0603704794EA0C0F0CEA135518BF95EA0C0F0CD050EA410618BF52EA4306D1D181EA03010E
:4045C00001F000414FF0000070BD50EA410606BF1046194652EA430619D094EA0C0F02D150EA013613D195EA0C0F05D152EA03361CBF104619460AD181EA030101F0004102
:4046000041F0FE4141F470014FF0000070BD41F0FE4141F4780170BD70B54FF0FF0C4CF4E06C1CEA11541DBF1CEA135594EA0C0F95EA0C0F00F0A7F8A4EB050481EA030E27
:4046400052EA03354FEA013100F088804FEA03334FF0805545EA131343EA12634FEA022245EA111545EA10654FEA00260EF000419D4208BF964244F1FD0404F5407402D2C0
:404680005B084FEA3202B61A65EB03055B084FEA32024FF480104FF4002CB6EB020E75EB030E22BFB61A754640EA0C005B084FEA3202B6EB020E75EB030E22BFB61A7546CE
:4046C00040EA5C005B084FEA3202B6EB020E75EB030E22BFB61A754640EA9C005B084FEA3202B6EB020E75EB030E22BFB61A754640EADC0055EA060E18D04FEA051545EAEF
:4047000016754FEA06164FEAC30343EA52734FEAC2025FEA1C1CC0D111F4801F0BD141EA00014FF000004FF0004CB6E711F4801F04BF01430020B4F1FD0C88BFBCF5E06FC6
:404740003FF6AFAEB5EB030C04BFB6EB020C5FEA500C50F1000041EB045170BD0EF0004E4EEA113114EB5C04C2BFD4EB0C0541EA045170BD41F480114FF0000E013C90E609
:4047800045EA060E8DE60CEA135594EA0C0F08BF95EA0C0F3FF43BAF94EA0C0F0AD150EA01347FF434AF95EA0C0F7FF425AF104619462CE795EA0C0F06D152EA03353FF4D4
:4047C000FDAE1046194622E750EA410618BF52EA43067FF4C5AE50EA41047FF40DAF52EA43057FF4EBAE12E74FF0FF3C06E000BF4FF0010C02E000BF4FF0010C4DF804CDE8
:404800004FEA410C7FEA6C5C4FEA430C18BF7FEA6C5C1BD001B050EA410C0CBF52EA430C91EA030F02BF90EA020F0020704710F1000F91EA030F58BF994208BF90422CBFF5
:40484000D8176FEAE37040F0010070474FEA410C7FEA6C5C02D150EA013C07D14FEA430C7FEA6C5CD6D152EA033CD3D05DF8040B704700BF8446104662468C4619466346E2
:4048800000E000BF01B5FFF7B7FF002848BF10F1000F01BD4DF808EDFFF7F4FF0CBF012000205DF808FB00BF4DF808EDFFF7EAFF34BF012000205DF808FB00BF4DF808ED16
:4048C000FFF7E0FF94BF012000205DF808FB00BF4DF808EDFFF7CEFF94BF012000205DF808FB00BF4DF808EDFFF7C4FF34BF012000205DF808FB00BF4FEA410212F50012BD
:4049000015D211D56FF47873B3EB625212D94FEAC12343F0004343EA505311F0004F23FA02F018BF404270474FF00000704750EA013005D111F0004008BF6FF000407047B8
:404940004FF00000704700BF014B1868704700BFE881FF1F0E4B70B51E460E4C0025E41AA410A54204D056F8253098470135F8E700F092FD084B094C1E46E41AA4100025F2
:40498000A54204D056F8253098470135F8E770BDA4540000A4540000A4540000AC54000010B5431E0A44914204D011F8014B03F8014FF8E710BD03460244934202D003F8F8
:4049C000011BFAE7704700000EB400B54FF402719CB0ADF814106FF00041049107914FF6FF711DABADF81610084953F8042B02900690086802A9019300F064F8029B0022FF
:404A00001A701CB05DF804EB03B07047E881FF1F2DE9F0478E688246B3420C469046994640D38A8912F4906F3AD02568096902236F1A656905EB450595FBF3F57B1C4B445C
:404A40009D4238BF1D4653050FD5294600F030FB064698B121693A46FFF7A2FFA38923F4906343F08003A38113E02A4600F076FB064670B95046216900F0D6FA0C23CAF8E7
:404A80000030A3894FF0FF3043F04003A381BDE8F08726613E4426604E466561ED1BA560B14500D24E4632462068414600F0A0FAA36800209B1BA36023681E442660BDE817
:404AC000F08700002DE9F0439DB003938B8906461C060D4690460CD50B6953B9402100F0E7FA2860286110B90C233360CCE040236B610023099320238DF8293030238DF8A6
:404B00002A3043461C4613F8012B1AB9B4EB08090FD002E0252AF5D1F8E73046294642464B46FFF775FF013000F0A980099B4B4409932378002B00F0A28000234FF0FF32D5
:404B400004930793059206938DF853301A9304F101084446DFF8489121784846052200F039FA08F10108049B30B1C9EB00000122824013430493ECE7D80644BF20228DF8F3
:404B80005320190744BF2B228DF8532022782A2A02D0079923460EE0039A0134111D12680391002ABBBF524243F0020307920792B8BF04930AE01C4622780133303A092AEE
:404BC00003D80A2000FB0121F5E7079123782E2B1AD163782A2B0AD1039B02341A1D1B680392002BB8BF4FF0FF3305930CE0611C00220C4623780131303B092B03D80A2019
:404C000000FB0232F5E70592DFF8988021784046032200F0DFF938B1049AC8EB00004023834013430493013421781A48062204F101088DF8281000F0CDF988B1164B33B93B
:404C4000039B073323F007030833039313E003AB0093304604A92A46104BAFF3008007E003AB0093304604A92A460C4B00F092F8421C074603D0099B3B44099341E7AB8905
:404C80005B0601D4099801E04FF0FF301DB0BDE8F08300BF6C54000000000000114A000062540000685400002DE9F84391461F468A680B6906469342B8BF1346C9F80030C8
:404CC00091F843200C46DDF8208012B10133C9F800302368990642BFD9F800300233C9F80030256815F006051CD094F843302268003318BF012392061FD5E118302081F839
:404D000043005A1C94F845102244023382F8431013E03046394604F119020123C047013007D00135E368D9F800209B1A9D42F0DBDBE74FF0FF30BDE8F8833046394604F13B
:404D40004302C0470130F4D02268D9F80050E36802F00602042A08BF5D1B2269A3680CBF25EAE57500259342C4BF9B1AED184FF00009A9450ADA3046394604F11A02012350
:404D8000C0470130D5D009F10109F2E70020BDE8F88300002DE9FF410C461746227E98466E2A06460A9B01F1430100F0B08012D8632A23D00AD8002A00F0BD80582A40F042
:404DC000CC8084F84520DFF804E257E0642A1ED0692A1CD0C1E0732A00F0B18009D86F2A2ED0702A40F0B980226842F0200222603FE0752A24D0782A3BD0AEE01A6804F1F9
:404E00004205111D1960136884F84230A9E020681A6810F0800F02D0101D186008E010F0400F02F10400186002D0B2F9003000E01368002B3EDA2D225B4284F8432039E0AD
:404E400020681A6810F0800F02D0101D186007E010F0400F02F10400186001D0138800E01368227EDFF864E16F2A0CBF08220A221CE07822DFF858E184F8452022681868AF
:404E800012F0800F00F104051D6003D1550601D5038800E00368D00744BF42F0200222601BB9226822F0200222601022002084F8430002E0DFF814E10A226568002DA8BFFF
:404EC0002068A560A4BF20F00400206003B965B10D46B3FBF2F002FB10331EF8033005F8013D03460028F4D100E00D46082A0BD12368DA0708D5236962689A42DEBF3023D3
:404F000005F8013C05F1FF35491B21612EE025681A6815F0800F606903D0151D1D60136808E015F0400F02F104051D60136801D0188000E01860002323610D4616E01A684D
:404F4000111D1960156800212846626800F042F808B1401B6060636804E004F1420584F8422001232361002384F84330CDF800803046214603AA3B46FFF796FE013002D155
:404F80004FF0FF301FE0304639462A462369C0470130F5D023689B0705D4E068039B9842B8BF18460FE00025E368039A9B1A9D42F3DA3046394604F119020123C04701303D
:404FC000DED00135F0E704B0BDE8F081735400008454000010B5C9B202449042034605D01C7801308C42F8D1184610BD002010BD814210B501EB020301D3421E0BE0984231
:40500000FBD28118D21AD34204D013F8014D01F8014DF8E710BD994204D011F8014B02F8014FF8E710BD000030B500293CD051F8042C0B1F1D49002AB8BF9B180A680C46B4
:4050400012B95A600B6030BD93420DD219685818904201BF5A5852181A60426823605A6030BD994203D80A4651680029F9D1146815199D420AD11B682344D018884213608D
:4050800012D10868034413604B680CE002D90C23036030BD1C681819884201BF08684968001918605960536030BD00BF5082FF1F70B5CC1C24F0030408340C2C38BF0C242E
:4050C000002C064603DA0C233360002070BD8C42F9D3204A136810461946A1B10A68121B0ED40B2A03D90A608B188C501FE08B420BBF5A684A6802605A6018BF0B4616E007
:405100000B464968E9E7144D2B681BB9304600F04BF828603046214600F046F8421C0346D1D0C51C25F0030585420AD11C6003F10B001A1D20F00700821A0AD051429950F6
:4051400070BD3046E91A00F02FF80130BBD02B46ECE770BD5082FF1F4C82FF1FF8B5074615460E4621B91146BDE8F840FFF7A0BF1AB9FFF759FF2846F8BD00F025F8A84222
:405180000ED238462946FFF793FF044650B131462A46FFF705FC38463146FFF745FF01E03046F8BD2046F8BD38B5064C0023054608462360FBF760FA431C02D1236803B1E0
:4051C0002B6038BD2C83FF1F51F8040C0028BEBF091851F8043CC01804387047000000005374617274696E6720726F626F74210D0A0000007175616420636F756E742031E0
:405200002069733A2025640A0D0000007175616420636F756E7420322069733A2025640A0D0000004261747465727920566F6C746167653A2025646D760A0D005253534951
:405240003A00000025640D0A00000000726F626F745F783A00000000726F626F745F793A00000000726F626F745F6469723A0000004F0040240040510040300000000140F2
:40528000001000140140000800400140000A004C014000021050014010000000005001402C0D004810000000303132333435363738394142434445460000000012010002DD
:4052C00002000008B40432F2010001028001000009024300020101C032090400000102020103052400100104240202052406000105240100010705810308000A0904010078
:40530000020A000004070582024000000705030240000000040309042C0343007900700072006500730073002000530065006D00690063006F006E00640075006300740072
:405340006F007200100355005300420055004100520054003803430044004300200043006F006D006D0075006E00690063006100740069006F006E00200049006E0074004D
:40538000650072006600610063006500260343004400430020004400610074006100200049006E0074006500720066006100630065000000020300000000810308000200B6
:4053C0000100820240000A000100030240000A00020A000001000000D052000003000000B85300000000000000000000000000000000000000000000D0530000010000002D
:40540000BC520000000000000000000001000000D453000001000000FC53000012034D005300460054003100300030000100000028000000000104000100000000000000D7
:4054400000014359555342000000303030303100000000000000000073717274000000004300232D302B2000686C4C006566674546470030313233343536373839414243E5
:40548000444546003031323334353637383961626364656600000000F8B500BFF8BC08BC9E4670474D00000061070000F8B500BFF8BC08BC9E46704729000000D0540000BB
:4054C0000881FF1FE80000004001000000000000000000000A010000435333303120323031360A0000000000000000000000000000000000000000000000000000000000B4
:40550000000000000000000000000000000000000000000000000000030000003083FF1F00C2010000000800C201000000080000A120000000000200000000000087930321
:4055400060EA00003C00000000003075010000000000000000000000000000000000000000000000000000000000000000000000605400000000000000000000000000004B
:405580000000000000000000000000000000000000000000000000000000000000000000000000000000000000000000000000008881FF1F000000000000000000000000C4
:4055C00000000000000000000000000000000000000000000000000000000000000000000000000000000000000000000000000000000000000000000000000000000000AB
:40560000000000000000000000000000000000000000000000000000000000000000000000000000000000000000000000000000000000000000000000000000000000006A
:40564000000000000000000000000000000000000000000000000000000000000000000000000000000000000000000000000000000000000000000000000000000000002A
:4056800000000000000000000000000000000000000000000000000000000000000000000000000000000000000000000000000000000000000000000000000000000000EA
:020000040003F7
:0200000480007A
:4000000001450040064F004005520040015B0040056400400465004058020140370301406E0401404305014046060140550701406308014044090140530A0140400B014040
:40004000040D0140451401404C15014062160140521701405E1801404E190140431A01404C1B014007400140134101401242014010430140084501400E4601400A470140EF
:4000800007480140104901400F4C01400F4D014006500140035101407E0201400A1B0D40161B1950222701010802618078107C402F84830D840F866F87388B0D840F856FC1
:4000C000880F8A72012607080B200D0313101B40212022012525280129263108331034013560370739803E10401549FF4AFF4BFF4F0150185608580459045A0A5B045C208F
:400100005D995F016040624064406540668068806A806C806E80800C8202900C92019301960F98109C079F01A008A201A40BA604B00FB210B501B701BE04BF40C014C5EC10
:40014000C720C823C9FFCAFFCBFFCD83CE03CF01D018D401D804D90ADA0ADB0ADC92DD99DF01E040E240E440E540E680E880EA80EC80EE80010209410A14101011011640C8
:40018000172119021B081E0822602482255027202C102D112F103202334037113D823E1841014340474049054E025101520259055A805C205D445E406408660867027808BC
:4001C0007C0889128B088E20C008C20FC45CCAE0CCA9CEF0D019D210D67BD870DE42E230E60A0102030404CF063008FD090E0A020C9E0D020E600F04109412601473170E4C
:40020000190E1A0F1C301D081EC9230127082B10310132FF331E3E044063410249FF4AFF4BFF4DA04F015018540F580459045A045B045C205D225F0160406280644065402D
:40024000668068406A806C406D206E8081A3835C88028A048B018C028D7F8E0C91C5933A940296059C049E02A10EA3F0A5FEA701A996AB68B208B3FFB401B606BA80BF04B7
:40028000C063C102C52CC643C70EC81FC9FFCAFFCBFFCDAFCE07CF01D018D280D804D904DA04DB08DC02DD92DF01E040E280E440E540E680E840EA80EC40ED20EE80009843
:4002C00002010480051008400A290B800E211B081D101E212206271029012B282C082D012E102F9030403214350238103A013B803DA23E8040084108440845084A084E08C9
:400300004F0656645A845B2277407F019082930295059650972099029E409F50A150A204A501B204B420B540C0C7C2AFCAE7CC8ECEBDD066D224D60FDE10E080E220E61431
:40034000EA02EC200004010C03020D071001110C13011C041E032004230F250B270429082B013002310F3204360138083E44540F580459045B045C225D205F05814384A364
:400380008520865C870488FE8A018B408CC58E3A8F3C900E92F0947F952C9710991C9C969E689F03A530A708A902AA01AB01AD30AF04B140B302B4FFB53CB701BE10BF4557
:4003C000D418D604D804D904DB04DC20DD10DF01009801800324040208400A210B800D400E800F0213101640170118041D081E822008224023602501280829802B202C08A9
:400400002F90329033043502390A3A203B803D8258015E1A5F406040622063016604670469607D8081408301850486018C409002920993249410950496E09780980899021B
:400440009A649D019F20A008A150A206A381A444A509A608A720A808AB80AE84AF12B408C017C29DC412CAEECC8ECE9FD6F1D86DDE10E241E608EA01EE060414081009FD7C
:400480000A400B020CDC0E220F0F1530160317C9180C19941A711B601C091DCF1ED01F30257326202810299E2AAC2B6031FF321F34E03A203F015280580459045B0A5C0192
:4004C0005D905F0181038304851387048A018B808F409140920195409B809F08A10AA314A520A705A913AA02AB0CAF40B001B140B380B50FB602B730B820B982BB20BE114B
:40050000BF04C045C106C202C403C6C0C70EC818C9FFCAFFCBFFCC62CDA0CEF0CF41D00CD608D804D904DA04DB04DC12DD91DF01E640E702E910EA30EB10ED10EE10EF121D
:4005400003080408060807010B400C800E241204142415201A881B801C041E242118228023482602282429412F2430883280331234403510374438A439013DA0410443123C
:400580004809501053085880600276807F108108860488809308978299909A049B049C409E82A150A602A7A0A950AB04AE20B481C0E2C2E8C462CA6FCC7FCE3FD007D20CFC
:4005C000D608D808DE40EA40000802300C080D040E100F02100812101502170C181019021A081B041C041E022601280229022A042B0530063201330134183508362037069C
:400600003A203B803E015608580459045B045C225D905F0181A182018352853187C28F079308955497A099F7A1C0A201A334A577B001B201B5F0B70FBE01C045C5ECC602C8
:40064000C807C9FFCAFFCBFFCF01D018D401D808D904DA08DB08DC29DD99DF01E040E240E440E540E680E880EA80EC80EE8001800380068009800A040B8011101210164004
:4006800019921A041B041E9021682402255026202B042C402F2031283622370439803C023D803E0446804D054F8056405740589059045D055E80618062147F0182028910E1
:4006C0008D028E10930898109904A001B010B504C019C20BC416CAC4CCE6CED8D080D210D6DED80EDE10E080E220E610EA0288018B04E0A0E60A040C06030780080F095DCA
:400700000B200C0A0E0510031166120C13101407193B1F7820052140220A230825662630270828202A102C3030103178320F33C03420350739203E115280540F5804590486
:400740005B045C225D205F018C018E0A930294019606980199049A029C029E01AB05AD02B208B301B404B502B603B704BA80BF50D280D40FD804D904DB04DC22DD20DF0520
:4007800000900320054008080A200B800E2A1040115012021304181019101A401E2A1FC0208822112310240827122BA02D402E102F0430403211350137103814580A591033
:4007C0005A405C805E105F0A65046610700175027E108084818088018C1290049110930C941296209790984099459A109B089C019D82A202A320A444A880A920AA01AD106D
:40080000B006C087C2ECC40FCA33CCADCE06D6FFD860DE40E482E802010402020B0311041606180219012201230132023301340435023601370439803E043F04403541066F
:4008400049FF4AFF4BFF4DA04F0150185608580459045A045B045C225D925F016040628064406540668068406A806C406D206E808402850287018D04950898029D089F0448
:40088000A002A101A201A302AB10B001B110B304B508B602B703B880B920BE40BF44C031C106C54EC6C3C702C81FC9FFCAFFCBFFCDAFCE07CF01D018D608D804D904DA04AA
:4008C000DB04DC22DD92DF01E040E280E440E540E680E840EA80EC40ED20EE80000804020B080E080F10108015081640170818801A031D481E082145230426982A212D02E5
:40090000308033083610370138803A043D203F02410842014508480849054C084D104E0550805210530C588459205A405D806002620463086640814085048F0490049120E7
:400940009208941095069660979098409A209B019C019D01A110A202A321A440A688A940AA30B401B501C014C262C418CA85CCAACEAAD04AD234D61ED81EE001E210EE01E2
:40098000058B077009040E02116213981401158B17301B991F602380274030013180330335043602377839083B803E013F154002470449FF4A074BFF4C404D204EF04F05FA
:4009C000500854015604580459045A045B045C125D115F01604061A86240632083098C518D098EA28F129080922294F3960898309AC3A040A211A304A4F3A604AB18AE0C9A
:400A0000AF12B00FB31CB4F0B503BA02BF04C063C102C50EC60CC70BC815C9FFCAFFCBFFCEF0CF44D00CD608D804D904DA04DB04DC11DD91DF01E6C0EA40EB020140058038
:400A400008020A180E2010201201130119221A081C801F4020082104240427A1280229222A012C802D012E083420350136A4370939403B013C203E04402042044720481024
:400A80004A044E20508456085A805C045E015F90630166026940841086018E018F0192049488950997A2980299809B089C209D419E0A9F11A290A409A702AA40B760C08176
:400AC000C22EC40DCACDCCF0CE69D026D204D6F8D888E041E210E850010402030511060C083F09060C040D270E080F10100811311306140F15371630183C19081A021C048C
:400B00001D082020231124102502283029082C3C2D262E012F11311033203507363F37083A803B203F0456025712580459045B045C115D105F018104850289068D068E0162
:400B40008F099309950F9D0E9F01AD09AF06B107B30EB601BB22D804D904DC10DF01000A01400304058008220A200B0110801364180219401E0220862214230224802714A4
:400B8000280429402A082B802C042E102F02302831013240330435403706388039083A223B403E223F445A0868206A907080722A7324800481018302884189808B808C2170
:400BC000914893019480961098029D409F10A004A429A601A702AC80AF10B040B310B640C08FC20FC40FCA1FCCDFCEFFD602E482E620E822EE803040330834023720394092
:400C0000CCF0CE100780321835203601391053018442851089208E4095409C429F20A708C020CCF0CE10D480E65012083240378082108B098F809280954096209702A609CC
:400C4000A708AF20B380C440CC30E620EA401B011D01600864087840830184488D4095409702A601A701C630D8C0DC80E63009010D01522084818A20C20CD404E004050427
:400C8000570489018F049C81A401AC01B101B501C004D402E002E204EA0C08810D01890495029C81A401B504C20EE204EA08280287028E019901A601CA10E44007120E0106
:400CC0001A02831086018A019F02A802A901C0A0C280C640E020E440E820EC80064009801C02370250205B0180209504A401C004C202C601CC01D404D6021104710887024B
:400D000095049F02A108AF01B108B240B580C408DC01EA08EC04EE01100711011A041B011C071D0100AB01FF02FF0000060100000000000004010601060100000201010058
:400D4000010024008000408282008000000000004000003030001000C0000000401616001400000030020200020000008AC141000000000000000000000000000000000058
:400D80000000000000000000000000000000000000000000000000000000000000000000000000000000000000000000000000000000000000000000000000000000000033
:400DC00000000000000000000000000000000000000000000000000000000000000000000000000000000000000000000000000000000000000000000000000000000000F3
:400E000000000000000000000000000000000000000000000000000000000000000000000000000000000000000000000000000000000000000000000000000000000000B2
:400E40000000000000000000000000000000000000000000000000000000000000000000000000000000000000000000000000000000000000000000000000000000000072
:0200000490006A
:0400000000004007B5
:0200000490105A
:04000000BC90ACAF55
:0200000490303A
:02000000F56B9E
:0200000490402A
:4000000000000000000000000000000000000000000000000000000000000000000000000000000000000000000000000000000000000000000000000000000000000000C0
:400040000000000000000000000000000000000000000000000000000000000000000000000000000000000000000000000000000000000000000000000000000000000080
:400080000000000000000000000000000000000000000000000000000000000000000000000000000000000000000000000000000000000000000000000000000000000040
:4000C0000000000000000000000000000000000000000000000000000000000000000000000000000000000000000000000000000000000000000000000000000000000000
:0200000490501A
:0C00000000012E16106900012E3B05D4F3
:00000001FF