:4000000000800020110000009D1300009D13000080B500AF024A034B1B68136001F0EAF9BC760040FA46004010B5054C237833B9044B13B10448AFF300800123237010BDD3
:400040000082FF1F00000000B0690000084B10B51BB108480849AFF300800848036803B910BD074B002BFBD0BDE81040184700BF00000000B06900000482FF1F0881FF1F1D
:400080000000000080B489B000AF524B1B78012B40F09A804F4B00221A704F4B5B781B029AB24D4B1B789BB213439BB2FB834B4B1B78043B1E2B00F2878001A252F823F01F
:4000C0003D010000C901000051010000C901000059010000C901000061010000C901000069010000C901000071010000C901000079010000C901000081010000C90100008C
:4001000089010000C901000091010000C901000099010000C9010000A1010000C9010000A9010000C9010000B1010000C9010000B9010000C9010000C1010000264B1B7805
:40014000DAB2274B1A70244B5A78254B5A703BE0FA8B234B5A8037E0FA8B214B9A8033E0FA8B1F4BDA802FE0FA8B1D4B1A812BE0FA8B1B4B5A8127E0FA8B194B9A8123E0A0
:40018000FA8B174BDA811FE0FA8B154B1A821BE0FA8B134B5A8217E0FA8B114B9A8213E0FA8B0F4BDA820FE0FA8B0D4B1A830BE0FA8B0B4B5A8307E0FA8B094B9A8303E0D5
:4001C000FA8B074BDA8300BF2437BD465DF8047B704700BF2A82FF1FB082FF1F5582FF1F5C83FF1F80B582B000AF0346FB71FB79184603F02BFD0837BD4680BD80B582B0BA
:4002000000AF0346FB71FB79184603F001FD0837BD4680BD80B584B000AF114B1B78002B0CBF01230023DBB21A460D4B1A700C4B1B781846FFF7D6FF094B1B781846FFF7B7
:40024000DDFF074B1B781A463B461846054905F09DFF3B46184604F0DBF91037BD4680BD3082FF1FB469000080B586B000AFC7E90201C7E90023D7E900014FF000024FF0A3
:40028000000305F06FFC0346002B10D0304B1B78002B0CBF01230023DBB21846FFF7AEFF3B683B607B6883F000437B6004E0284B1B781846FFF7A2FFD7E902014FF0000219
:4002C0004FF0000305F04EFC0346002B10D0204B1B78002B0CBF01230023DBB21846FFF781FFBB68BB60FB6883F00043FB6004E0174B1B781846FFF775FFD7E9020112A3C2
:40030000D3E9002305F0BCF902460B461046194605F050FC0346FB82D7E900010AA3D3E9002305F0ADF902460B461046194605F041FC0346BB82074ABB8A1380064AFB8AF3
:4003400013801837BD4680BD969526A5A0DBEF3F3082FF1F4682FF1F4882FF1FAFF3008080B500AF002003F033FC024B00221A8080BD00BF4282FF1F80B500AF002003F0F8
:4003800025FD024B00221A8080BD00BF4482FF1F80B500AF4FF000004FF000014FF000024FF00003FFF760FFFFF7DAFFFFF7E4FF80BD00BF80B500AF044BD3E90001034B15
:4003C000D3E90023FFF750FF80BD00BF6081FF1F80B500AF074BD3E900231046194604F09DFF02460B464FF000004FF00001FFF73BFF80BD6081FF1F80B500AF084BD3E90D
:4004000000231046194604F089FF02460B46104619464FF000024FF00003FFF725FF80BD6081FF1F80B500AF04F09EFA084B1A78084B1A70064B01221A70FFF791FF03F098
:40044000D3FD03461A46044B1A8004F07DFA80BD5D81FF1F5C81FF1F4082FF1F80B500AF04F082FA084B1A78084B1A70064B02221A70FFF781FF03F031FD03461A46044BF7
:400480001A8004F061FA80BD5D81FF1F5C81FF1F4082FF1F80B500AFFFF77AFF014B00221A7080BD5D81FF1F80B400AF034B03221A70BD465DF8047B704700BF5D81FF1F92
:4004C00080B400AF034B04221A70BD465DF8047B704700BF5D81FF1F80B400AF034B05221A70BD465DF8047B704700BF5D81FF1F80B400AF034B06221A70BD465DF8047BED
:40050000704700BF5D81FF1FB0B582B000AF04F043F80346FB71FB79AA2B2BD1224B1B78222B20D1214B224A156854689068D1681D605C609860D960156954699069D16982
:400540001D615C619861D9611A4B1B78002B0AD103F07AFC0346DB43DBB2184603F056FC144B01221A70104B02221A70124B00221A7016E00C4B1B7803F001030F49FA794F
:40058000CA54094B1B7803F00103DBB2002B02D0094B01221A70044B1B780133DAB2024B1A700837BD46B0BD5582FF1FB482FF1F5C83FF1F4E82FF1F2A82FF1FB082FF1F3E
:4005C00080B586B000AF03F0E7FF0346FB75FB7D613B192B00F29E8001A252F823F000BF4906000015070000150700006D060000150700007906000015070000150700005B
:400600001507000015070000150700001507000015070000150700001507000015070000A9060000FF0600006106000085060000910600001507000055060000150700000A
:40064000150700009D060000FFF7ECFE334B00221A705FE0FFF71EFF304B00221A7059E0FFF7D8FD2D4B00221A7053E0FFF7F6FE2A4B00221A704DE0FFF716FF274B002206
:400680001A7047E0254B01221A70FFF719FF41E0FFF722FF214B02221A703BE01F4B03221A70FFF70DFF35E01C4B04221A701C4B00221A801B4B1B881BB2184605F05CFB07
:4006C0000246194B1B681046194605F0A9FB0346184605F0F5FC03469AB2144B1A80134B1B881BB23A1D104611491A4605F04EFD3B1D184603F08CFFFFF7CCFE0AE0074BBD
:4007000005221A7000F05AF90A4B00221A70FFF7CBFE00BF1837BD4680BD00BF5482FF1F4A82FF1F1281FF1F1481FF1F4C82FF1FC06900004E82FF1FB0B586B000AF664BB8
:400740001A88664B1A80664B1A88664B1A8003F0C5FB03461A46604B1A8003F045FC03461A465F4B1A805C4B1B889AB25B4B1B889BB2D31A9BB29AB25B4B1A80584B1B88F4
:400780009AB2584B1B889BB2D31A9BB29AB2574B1A80514B1B881BB2002BB8BF5B4240F6B832934217DD524B1B78012B13D0504B1B78022B0FD04F4B1B78042B0BD0002094
:4007C00003F09EFB002003F021FC434B00221A80434B00221A80484B01221A70454B1B78042B2AD1454B1B889AB23F4B1B889BB213449BB29AB2414B1A80404B1B881BB212
:400800003A4610463E491A4605F0C0FC3B46184603F0FEFE394B1B881BB283EAE372A2EBE372384B1B881BB29A4205DBFFF73CFE304B00221A704CE04BE02E4B1B78052B4B
:4008400047D1314B5B881AB2304B1B881BB2D31A184604F0AFFE02460B46104619464FF000022B4B05F036F802460B4614461D46254B9B881AB2274B1B881BB2D31A184654
:4008800004F098FE02460B46104619464FF000021F4B05F01FF802460B462046294604F05DFAC7E904011C4B1B881BB2184604F081FE02460B4610461946D7E9042305F069
:4008C0005BF90346002B04D0FFF7EEFD094B00221A701837BD46B0BD3482FF1F3882FF1F3682FF1F3A82FF1F3C82FF1F3E82FF1F5D81FF1F5482FF1F3282FF1F4A82FF1FFA
:40090000D46900004C82FF1FB482FF1F5082FF1F000010405282FF1F1281FF1F80B500AF194B1B78012B15D103F05EFB03461A46164B1B881BB2D31A002BB8BF5B42CF2B7E
:4009400021DDFFF725FD124B1A780F4B1A7004F00BF818E00C4B1B78022B14D103F0BEFA03461A46094B1B881BB2D31A002BB8BF5B42CF2B07DDFFF70BFD054B1A78024B54
:400980001A7003F0F1FF80BD5D81FF1F4082FF1F5C81FF1F80B500AF054B1B78002B02D0044803F035FE044B00221A7080BD00BF1181FF1FE06900005D81FF1F80B500AFB0
:4009C0000B4B00221A7003F019FD03F0B9FD094B01221A708120012104F07AF8064803F0FBFC03F051FD002003F032FE80BD00BF1181FF1F3182FF1F0905000080B500AFEE
:400A00000B4B00221A7003F0F9FC03F099FD094B01221A704FF44370012104F059F8064803F0DAFC03F030FD012003F011FE80BD3182FF1F1181FF1FC1050000B0B588B06A
:400A400000AF814B1B78002B00D1FAE07E4B00221A707E4B1B88FB817D4B1B88BB814FF000027C4BC7E906234FF00002794BC7E90423B7F90E30002B0DD1B7F90C30002BC3
:400A800009D14FF00002744BC7E906234FF00002714BC7E90423714B1B881AB2B7F90E30002BB8BF5B42D31ABB60BB6883EAE372A2EBE372BB6892FBF3F3184604F07AFD29
:400AC00004460D46BB68002BB8BF5B42184604F071FD02460B461046194604F097F902460B462046294604F0CBFD02460B461046194605F05FF803467B60594B1B881BB269
:400B0000184604F057FD04460D46786804F052FD02460B4610461946D7E9062304F0B0FD02460B462046294604F0F8FB02460B461046194605F03EF803469AB2484B1A80E7
:400B4000484B1B881AB2B7F90C30002BB8BF5B42D31ABB60BB6883EAE372A2EBE372BB6892FBF3F3184604F025FD04460D46BB68002BB8BF5B42184604F01CFD02460B466C
:400B80001046194604F042F902460B462046294604F076FD02460B461046194605F00AF803467B60304B1B881BB2184604F002FD04460D46786804F0FDFC02460B4610467E
:400BC0001946D7E9042304F05BFD02460B462046294604F0A3FB02460B461046194604F0E9FF03469AB2204B1A801F4B1B881BB2002B02DA1C4B00221A80194B1B881BB2C7
:400C0000002B02DA164B00221A80174B1B881BB2642B02DD144B64221A80114B1B881BB2642B02DD0E4B64221A800D4B1B88DBB2184602F0CDFF0C4B1B88DBB2184603F0A2
:400C4000C5F82037BD46B0BD3282FF1F3C82FF1F3E82FF1F0000F03F000020404682FF1F4282FF1F4882FF1F4482FF1F2DE9B04382B000AF04F010F80346FB7104F018F8A2
:400C80000346BB7103F0FCFF03467B71FB79002B27D0BB79002B24D17B79002B21D1454BD3E90023104619464FF00002424B04F011FE02460B4614461D463E4BD3E90023EE
:400CC000904683F00049404649464FF000023A4B04F000FE02460B4620462946FFF7C4FA63E0FB79002B11D07B79002B0ED0BB79002B0BD12F4BD3E90023104619464FF02B
:400D000000024FF00003FFF7AFFA4EE0BB79002B0FD07B79002B0CD0FB79002B09D1254BD3E900234FF000004FF00001FFF79CFA3BE0BB79002B27D07B79002B24D1FB799D
:400D4000002B21D11B4BD3E90023144683F00045204629464FF00002174B04F0BBFD02460B4614461D46134BD3E90023104619464FF00002104B04F0ADFD02460B4620465A
:400D80002946FFF771FA10E07B79002B0DD0BB79002B0AD1FB79002B07D1064BD3E90001044BD3E90023FFF75FFA0837BD46BDE8B08300BF6081FF1F0000F83F2DE9B04323
:400DC00082B000AF03F068FF0346FB7103F070FF0346BB7103F054FF03467B71FB79002B27D0BB79002B24D17B79002B21D1454BD3E90023104619464FF00002424B04F0D0
:400E000069FD02460B4614461D463E4BD3E90023904683F00049404649464FF000023A4B04F058FD02460B4620462946FFF71CFA63E0FB79002B11D07B79002B0ED0BB796A
:400E4000002B0BD12F4BD3E90023104619464FF000024FF00003FFF707FA4EE0BB79002B0FD07B79002B0CD0FB79002B09D1254BD3E900234FF000004FF00001FFF7F4F952
:400E80003BE0BB79002B27D07B79002B24D1FB79002B21D11B4BD3E90023144683F00045204629464FF00002174B04F013FD02460B4614461D46134BD3E900231046194601
:400EC0004FF00002104B04F005FD02460B4620462946FFF7C9F910E07B79002B0DD0BB79002B0AD1FB79002B07D1064BD3E90001044BD3E90023FFF7B7F90837BD46BDE8D4
:400F0000B08300BF6081FF1F0000F83F2DE9B04382B000AF03F0C0FE0346FB7103F0A4FE0346BB7103F0C4FE03467B7103F0CCFE03463B7103F0A4FE0346FB70BB79002BEB
:400F400006D0FB78002B03D03B79002B00D0ACE0BB79002B0BD0FB78002B08D0554BD3E90001544BD3E90023FFF77EF99DE03B79002B0BD0FB78002B08D04E4BD3E90001F4
:400F80004C4BD3E90023FFF76FF98EE0FB79002B27D07B79002B24D1FB78002B21D1454BD3E90023104619464FF00002424B04F091FC02460B4614461D463E4BD3E9002384
:400FC000904683F00049404649464FF000023A4B04F080FC02460B4620462946FFF744F963E0FB79002B11D0FB78002B0ED07B79002B0BD12F4BD3E90023104619464FF0EC
:4010000000024FF00003FFF72FF94EE07B79002B0FD0FB78002B0CD0FB79002B09D1254BD3E900234FF000004FF00001FFF71CF93BE07B79002B27D0FB78002B24D1FB791E
:40104000002B21D11B4BD3E90023144683F00045204629464FF00002174B04F03BFC02460B4614461D46134BD3E90023104619464FF00002104B04F02DFC02460B46204659
:401080002946FFF7F1F810E0FB78002B0DD07B79002B0AD1FB79002B07D1064BD3E90001044BD3E90023FFF7DFF80837BD46BDE8B08300BF6081FF1F0000F83F80B584B085
:4010C00000AF254B1B78012B42D1234B00221A70224800F02FF9224B1B785BB23A46104620491A4605F052F83B46184600F022F91D4800F01FF91A4B5B881BB23A46104636
:4011000018491A4605F042F83B46184600F012F9164800F00FF9124B9B881BB23A46104610491A4605F032F83B46184600F002F90F4800F0FFF80A4BDB881BB23A46104631
:4011400008491A4605F022F83B46184600F0F2F81037BD4680BD00BF2E82FF1F0C6A0000B482FF1F146A00001C6A0000286A0000346A000090B583B000AF786003F074FD81
:4011800003461A467B681A707B685C1C03F084FD034623707B689C1C03F072FD034623707B68DC1C03F084FD034623707B681C1D03F08AFD034623700C37BD4690BD00BFA6
:4011C00080B582B000AF62B602F060FC02F05CFD02F06EFE02F0F2FE4B4803F049FA4B4803F028FC03F0C8FA494803F02BFB0020012100F0DBFB00F079FD0346002B01D063
:4012000000F0E0FE434B1B78002B01D0FFF7D6FB414B1B78002B01D0FFF7F0FBFFF70EFC3C4B1B78012B03D1FEF72CFFFFF746FF3B461846FFF79EFF384B1B78052B38D8C3
:4012400001A252F823F000BFB3120000B3120000B312000061120000B31200008D1200003B78012B05D1BB78012B02D1FFF7DAF80BE03B79012B05D1BB78012B02D1FFF711
:40128000EDF802E0FFF734F913E012E0244B1B78012B0DD1234B5A88234B1A80214B9A88224B1A801E4B02221A70FFF7F3F8FFE700BF1F4B1B78062BB0D801A252F823F013
:4012C000DD120000E3120000E9120000EF120000F5120000FB12000001130000FFF76AF810E0FFF789F80DE0FFF772F80AE0FFF74FF807E0FFF7BAFC04E0FFF707FE01E060
:40130000FFF75CFD8AE700BF390700001D090000950900003182FF1F1181FF1F5482FF1F4E82FF1FB482FF1F5082FF1F5282FF1F5D81FF1F80B584B000AF7860154B1B78B2
:40134000002B23D00023FB600AE0FB680133FB60FB68114A934203D10E4B00221A7015E000F0BAFE0346002BEFD07B683F3300221A707B683E3321221A70786804F02AFF9A
:4013800003469BB27868194600F070FE1037BD4680BD00BF1881FF1FC0C62D0080B400AFFEE700BF80B584B000AF78600F4B1A687B6813441A460E4BD31A802B09DC0B4B31
:4013C0001B68FB60094B1A687B681344074A136007E004F09BFE02460C2313604FF0FF33FB60FB6818461037BD4680BD6881FF1F6084FF1F80B586B000AF224B7B61224BF0
:401400003B61204B7B6135E03B691B68FB603B695B68BB603B699B683B6000237B600CE0FB681A68BB681A60BB680433BB60FB680433FB607B6804337B607A683B689A4242
:40144000EED13B69DB683B6000237B6008E0BB6800221A60BB680433BB607B6804337B607A683B689A42F2D13B6910333B617B69013B7B617B69002BC6D104F04DFEFFF79E
:401480009FFEFEE701000000946C000080B582B000AF174B174A1A60174A174B1B6843F40073136000237B600FE07B68032B04D8124A7B6852F8233000E0114B11497A68C5
:4014C00041F822307B6801337B607B682F2BECD90D4B1B78DAB20D4B1A700D4B094A1A6000F090F90B4B00221A600837BD4680BD0CED00E00004FA0514ED00E00000000048
:401500009D1300000080FF1FBC7600400481FF1F08ED00E00081FF1F80B582B000AF78603960786800213A6804F027FE0837BD4680BD00BF80B584B000AFF860B9607A60F0
:40154000F868B9687A6804F00DFE1037BD4680BD80B483B000AF0346FB71FEE780B487B000AF7860396000233B6100237B6127E07B699B007A6813441B68BB60BB68FB739B
:40158000BB6823F0FF03BB6014E03B695B003A6813441B781A46BB68134419463B695B003A6813445B780B703B6901333B61FB7B013BFB73FB7B002BE7D17B6901337B61F9
:4015C0007B69292BD4D91C37BD465DF8047B704780B582B000AF424B0F221A80414B1B221A70414B81221A80404B18221A70404B04221A803F4B18221A703F4B3B221A8032
:401600003E4B18221A703E4B3B221A803D4B18221A703D4B00221A803C4B1B221A703C4B40F2E7321A803B4B1B221A703A4B06221A703A4B52221A70394B3A4A1278D2B276
:401640001A70394B40F619121A80384B41F251221A800023FB7019237B6014E0FB785B00DAB2334B1B78DBB203F00103DBB21343DBB203F00303FB704FF4F07002F02CF988
:401680007B68013B7B607B68002B02D0FB78032BE4D17B68002B02D10320FFF759FF254B4FF480721A80234B07221A70224B00221A70224B48221A701E4B00221A70204B4E
:4016C00000221A701F4B02221A701F4A1E4B1B78DBB243F07F03DBB213700837BD4680BD80400040824000408440004086400040884000408A4000408C4000408E400040B8
:4017000090400040924000409440004096400040984000409A4000400043004000420040A14600400F01004922420040204200402542004004400040064000400840004027
:401740000940004001400040A243004080B582B000AF204B1B78FB711F4B1B78BB711F4B1B787B711E4AFB7903F00703DBB213701C4AFB791B09DBB21370174ABB7943F0E9
:401780000303DBB21370154A7B7943F00303DBB21370154B08221A70144B40221A70144B40221A70134B80221A70134B20221A70124B80221A700A2002F0AAF8074A7B798D
:4017C0001370054ABB7913700D4B44221A700837BD4680BDCF010049F8460040F94600406E5800406F5800400D510040095900400B590040285B00402B5B0040585B004016
:401800007658004080B586B000AF72B64F4B61221A70FFF7DDFE4D4B01221A700023FB7513E0FA7D13465B0013445B00484A13443B613B691A683B699B889BB210461946C4
:40184000FFF76AFEFB7D0133FB75FB7D062BE8D90023FB751CE0FA7D13469B0013445B003C4A1344FB60FB681B68BB60FB685B687B60FB681A7A5B7A1B0213437B807B8861
:40188000B86879681A46FFF755FEFB7D0133FB75FB7D002BDFD04FF090402F49FFF75EFE2E4A2E4B1B78DBB243F00203DBB213702B4A2B4B1B78DBB243F00203DBB213708B
:4018C000284A284B1B78DBB243F04003DBB21370254A254B1B78DBB243F01003DBB21370224823490822FFF725FE224822490A22FFF720FE214822490A22FFF71BFE214862
:4019000021490822FFF716FE204821490822FFF711FE204820490822FFF70CFE1F4B44221A701F4BC4221A701E4A1E4B1B78DBB243F00803DBB21370FFF708FF1A480949E9
:401940000E22FFF7F7FD1837BD4680BD00480040406A00006C6A0000A80000480350014013500140A0430040C2430040025100407C0E0048C0510040840E0048F051004015
:40198000900E0048125100409C0E004822510040A40E004832510040AC0E00485B0C0140DB14014022430040B043004080B582B000AF03460A46FB711346BB71084B1B7804
:4019C000002B04D100F00EF8054B01221A70FA79BB791046194600F0D5F80837BD4680BD5682FF1F80B582B000AF01F07DFF0346FB71534A524B1B78DBB243F00103DBB210
:401A00001370504A4F4B1B78DBB243F00103DBB213704D4B01221A704C4B02221A704C4A4B4B1B78DBB203F07F03DBB21370002001F06EFF474A474B1B78DBB223F0060350
:401A4000DBB21370444A444B1B78DBB223F02003DBB213703F4A3F4B1B78DBB243F00103DBB21370012001F053FF282001F050FF3A4A3A4B1B78DBB203F07F03DBB21370BF
:401A8000364A364B1B78DBB223F04003DBB21370304A304B1B78DBB243F00203DBB21370022001F035FF2B4A2A4B1B78DBB243F00403DBB213702A4B00221A70294B0022F0
:401AC0001A70FB79184601F013FF1720072101F059FF1720244901F02DFF1820072101F051FF1820214901F025FF1520072101F049FF15201E4901F01DFF0120072101F04D
:401B000041FF01201B4901F015FF0220072101F039FF0220184901F00DFF0320072101F031FF0320154901F005FF0C20072101F029FF0C20124901F0FDFE0837BD4680BDA7
:401B4000A5430040B54300409D60004009600040106000409443004012600040F85100408460004085600040C128000091210000B5280000B12700000528000059280000D6
:401B8000CD28000080B582B000AF03460A46FB711346BB712E4AFB7913702E4B00221A702D4B00221A702D4B00221A702C4B00221A702C4B00221A702B4B00221A702B4BD6
:401BC00000221A702A4B4FF400021A60284B4FF080721A60264B4FF400121A60244B02221A60234B04221A60214B08221A60BB79002B02D0012B09D011E01E4A1D4B1B78F2
:401C0000DBB223F00103DBB2137011E0194A194B1B78DBB243F00103DBB2137008E0154A144B1B78DBB243F00103DBB2137000BF114B03221A70114B80221A70012001F060
:401C40004BFE0F4B04221A700837BD4680BD00BF9983FF1F9C83FF1FB883FF1FBB83FF1FB083FF1FBA83FF1FBD83FF1F9883FF1F00E100E00960004028600040086000408A
:401C80001260004080B400AF0F4B00221A700F4B00221A700E4B00221A700E4B00221A700D4B00221A700D4B00221A700C4B00221A700C4B03221A700B4B80221A70BD46E3
:401CC0005DF8047B704700BF9C83FF1FB883FF1FBB83FF1FB083FF1FBA83FF1FBD83FF1F9883FF1F286000400860004080B400AF034B1B78DBB21846BD465DF8047B7047B8
:401D0000BB83FF1F80B483B000AF0346FB71FA79064913465B0013449B000B445B78DBB218460C37BD465DF8047B7047C083FF1FB0B485B000AF03463960FB711346BB80AB
:401D4000FB79002B66D0FB79082B63D8B988FA79324813465B0013449B000344DB889BB2C3F5007399420BD9FA792C4913465B0013449B000B44DB889BB2C3F50073BB8004
:401D8000274CF979BB881B0A9BB2D8B2FA79234D13465B0013449B002B44DB78DBB20343DAB20B0123441A701D4AFB79B988C9B21B0113440A465A703B68002B13D0002360
:401DC000FB810CE01748FB79FA8939680A4412781B01034408331A70FB890133FB81FA89BB889A42EED3FA790C4913465B0013449B000B4400225A700948F979FA79074CBB
:401E000013465B0013449B0023445B79DAB20B0103449A701437BD46B0BC7047C083FF1FFC5F00407060004090B482B000AF0346FB71FB79002B19D0FB79082B16D8FA79F1
:401E40000C4913465B0013449B000B4400225A700948F979FA79074C13465B0013449B0023445B79DAB20B0103449A700837BD4690BC7047C083FF1FFC5F004080B582B031
:401E800000AF0023FB71324B1B79DBB2184600F069F80346BB712E4B1B78DBB2DBB25BB2002B16DA2A4B5B78DBB2212B00D00FE0284B07221A80BA791346DB009B1A264A32
:401EC0001344244A536000F0DDFA0346FB7100BF38E01F4B5B78DBB2202B02D0222B1AD030E01C4B07221A80BA791346DB009B1A194A1344174A5360BB79BA7917498A5C28
:401F0000D2B242F00102D1B2144AD15400F03AFB0346FB7116E0BB790D4A9278D2B291B20F4A22F81310BB79BA790C498A5CD2B242F00202D1B2094AD15400F0BFFB0346D6
:401F4000FB7100BFFB7918460837BD4680BD00BF00600040A483FF1F6C81FF1F8083FF1F9483FF1F80B485B000AF0346FB710023FB73FF23BB7317E0FB7B104AD35C7B734E
:401F80007A7B0F4913465B0013449B000B4408339B78DBB2FA799A4203D1FB7BBB730223FB73FB7B0133FB73FB7B012BE4D9BB7B18461437BD465DF8047B70478883FF1F9D
:401FC000C083FF1F80B582B000AF0023BB71224B00221A70214B00221A70204B00225A700023FB7110E0FB791D4AD35C7B717B79002B06D07B79082B03D87B791846FFF7DF
:4020000013FFFB790133FB71FB79012BEBD9154B1B78DBB2002B18D0114B1B78DBB2002B13D0114B1B78DBB2002B0ED00D4B1B78DBB2082B09D80A4B1B78DBB2082B04D864
:40204000094B1B78DBB2082B01D90123BB71BB7918460837BD4680BD5782FF1F8083FF1F8C83FF1F8483FF1F8883FF1F80B584B000AF78600B467B80144B1B781A46144BFE
:402080009B5CFB73FA7B134913465B0013449B000B4408331B889BB27A889A420CD9FA7B0C4913465B0013449B000B4408331B887B80002001F020FCFA7B7B881046796893
:4020C0001A46FFF735FE1037BD4680BD5782FF1F8483FF1FC083FF1F80B500AF054B1B781A46054B9B5CDBB21846FFF70BFE0346184680BD5782FF1F8483FF1F80B485B092
:4021000000AF78600B46FB701346BB707B68DB7803F00303FB737B689B78DBB25BB2002B1ADAFB7B032B0AD0BB7803F001031549FA78CA54BB7843F00103BB701BE0BB7833
:402140009B08DBB203F001030F49FA78CA54BB7843F00403BB700EE0FB7B032B0BD0BB785B08DBB203F001030849FA78CA54BB7843F00203BB70BB7818461437BD465DF886
:40218000047B70478483FF1F8883FF1F8C83FF1F80B582B000AF374B1B78BB71BB7903F01003002B63D00123FB71BB795BB2002B13DABB7903F00F03012B02D00023FB71D0
:4021C0001DE000F061F82C4B1B78DBB2DBB25BB2002B14DA0023FB7111E0BB7903F04003002B02D000F094F809E0BB7903F02003002B02D000F0B2F801E00023FB71FB793E
:40220000002B34D01B4B1B78BB71BB795BB2002B2DDB1A4B1B78DAB2194B1B78DBB21343BB71184ABB791370164B1B78DBB2BA799A421CD1104B1B78FB710E4B1B78DBB2E3
:4022400023F07F03BB71BB79002B0AD1094B0A4A1278D2B21A70074B1B78DBB203F00F03FB71054B1B78DBB2FA799A42E2D10837BD4680BD28600040B983FF1F2E84FF1F5D
:40228000BC83FF1F2960004080B582B000AF1D4B1B78FB711B4AFB7913701A4B1B78FB71FB795BB2002B03DA174AFB79137025E0022000F043FA154B1B78DBB203F06003B0
:4022C000202B08D0402B0BD0002B0ED100F004FB0346FB710CE002F003FD0346FB7107E001F0C0FA0346FB7102E00023FB7100BFFB79002B02D1044B03221A700837BD460B
:4023000080BD00BF28600040B983FF1F0060004080B500AF104B1B78DBB2062B19D801A252F823F05323000053230000412300005323000047230000532300004D23000048
:4023400000F0FAF806E000F0A9F903E000F0D2F900E000BF80BD00BF9C83FF1F80B500AF124B1B78DBB2062B1DD801A252F823F0A7230000A72300008D230000A7230000F8
:4023800093230000A72300009923000000F0DAF80AE000F029F907E0032000F0CFF9044B03221A7000E000BF80BD00BF9C83FF1FB983FF1F80B483B000AF0023FB71294B18
:4023C0001B78DBB29AB2284B1B889BB213449AB2254B1A8015E02549FB79254A52681278D2B2CA54224B5B680133214A5360FB790133FB711E4B1B889BB2013B9AB21C4B57
:402400001A801B4B1B889BB2002B02D0FB79072BE1D9144B1B78DBB2082B02D0FB79002B0FD0144B1B78DBB283F07F03DB43DAB2104B1A70104B0F221A70104B02221A702B
:4024400005E00D4B02221A700C4B02221A700C4AFB791370034AFB7913700C37BD465DF8047B70479883FF1F9A83FF1F00600040A483FF1F2E84FF1FB983FF1F9C83FF1F4A
:40248000BC83FF1F80B582B000AF164B1B889BB2002B02D100F02EF81EE0134B02221A70124B00221A7000F069F9114BDB79DBB29BB21B029AB20E4B9B79DBB29BB213434F
:4024C000FB80084B1B889BB2FA889A4202D2054AFB881380FFF76EFF012318460837BD4680BD00BFA483FF1F9C83FF1F2E84FF1F0060004080B400AF0A4B02221A700A4B37
:4025000080221A70094B0F221A70094B00221A70084B00221A7001231846BD465DF8047B704700BF9C83FF1F2E84FF1FB983FF1F9883FF1FBC83FF1F80B500AFFFF73AFF82
:4025400080BD00BF80B500AF0A4B1B78DBB29AB2094B1B889BB213449AB2074B1A80074B00221A70012000F0E9F8054B03221A7080BD00BF9883FF1F9A83FF1F9C83FF1F4B
:40258000B983FF1F80B582B000AF124B04221A70114B80221A7000F0F1F8104BDB79DBB29BB21B029AB20D4B9B79DBB29BB21343FB800B4B1B889BB2FA889A4202D2084A6A
:4025C000FB881380074B0B221A70012318460837BD4680BD9C83FF1F2E84FF1F00600040A483FF1FB983FF1F80B483B000AF0023BB71234B1B78DBB203F00F03DBB2023BAD
:40260000FB71FB799AB21F4B1B889BB213449AB21C4B1A8018E01C4B5B681C49BA798A5CD2B21A70184B5B680133174A5360BB790133BB71FB79013BFB71134B1B889BB256
:40264000013B9AB2104B1A800F4B1B889BB2002B02D0FB79002BDED10D4AFB7913700D4B1B78DBB283F07F03DB43DAB2094B1A70094B0B221A700C37BD465DF8047B704729
:40268000296000409A83FF1FA483FF1F00600040BC83FF1F2E84FF1FB983FF1F80B500AF044B00221A70012000F048F8024B03221A7080BD9C83FF1FB983FF1F80B400AFC7
:4026C000084B06221A70084B06221A70074B80221A70074B00221A7001231846BD465DF8047B70479C83FF1FB983FF1F2E84FF1FBC83FF1F80B500AF0C4B1B78DBB2002BFA
:402700000AD00B4A094B1B78DBB263F07F03DBB21370064B00221A70064B00221A70012000F00CF8044B03221A7080BDBA83FF1F086000409C83FF1FB983FF1F80B483B0C6
:4027400000AF0346FB710B4B9B68002B0CD0094B9B68FA791A70074B9B68074A128892B25A80044B00229A600C37BD465DF8047B704700BFA483FF1F9A83FF1F80B400AF85
:40278000094B00221A80094B9B68002B07D0074B9B6800221A70054B9B6800225A80BD465DF8047B704700BF9A83FF1FA483FF1F80B400AF104A104B1B78DBB223F00103C4
:4027C000DBB213700D4B9B7C0D4B1B7BDBB203F00303012B08D00A4BDB7BDBB283F07F03DB43DAB2064BDA73054B01225A73BD465DF8047B704700BF0B600040FC5F00409A
:40280000C083FF1F80B400AF104A104B1B78DBB223F00203DBB213700D4B93F822300D4B1B7EDBB203F00303012B08D0094BDB7EDBB283F07F03DB43DAB2064BDA76054BDD
:4028400001225A76BD465DF8047B70470B600040FC5F0040C083FF1F80B400AF124A124B1B78DBB223F00403DBB213700F4B93F832300F4B93F82430DBB203F00303012B18
:402880000AD00B4B93F82730DBB283F07F03DB43DAB2074B83F82720054B012283F82520BD465DF8047B70470B600040FC5F0040C083FF1F80B400AFBD465DF8047B7047ED
:4028C00080B500AFFFF7DEF980BD00BF80B500AF00F0F2FF80BD00BF80B586B000AF0023FB759D4B1B78FB7100233B619B4B00221A80FB795BB2002B80F20481964B5B781E
:40290000DBB20A2B00F2FC8001A252F823F000BF592A0000012B0000012B0000012B0000012B0000012B00003D290000012B0000CB2A0000012B0000E12A0000864BDB7867
:40294000DBB2012B0ED100F017FEB860BB685B68824A5360814B12221A80FFF793FD0346FB7578E07C4BDB78DBB2022B24D17A4B9B78DBB2184600F0D5FDB860BB68002B58
:4029800069D0BB685B68754A5360744B5B6803331B78DBB29BB21B029AB2704B5B6802331B78DBB29BB213439AB26C4B1A80FFF769FD0346FB75A4E0674BDB78DBB2032B8C
:4029C00044D10023FB73664B3B6109E03B691B78BB71BB793A6913443B61FB7B0133FB735D4B9B78DBB2FA7B9A4204D23B691B78DBB2002BEAD1584B9B78DBB2EE2B01D16F
:402A0000584B3B61544B9B78DBB2002B0BD0524B9B78DAB2544B1B7C9A4204D1534800F0A1F9524B3B613B691B78DBB2002B12D03B691B78DBB29AB2484B1A80474A3B694E
:402A40005360FFF71FFD0346FB755AE002F048F90346FB7555E054E0FB7903F00303002B1FD0022B00D02FE03C4B02221A803A4B1B79DBB203F07F023D4913465B001344C6
:402A80009B000B449B78DAB23A4B1A70394B00225A70324B374A5A60FFF7F4FC0346FB7512E02E4B02221A80334B1B78DAB2314B1A70304B00225A70284B2E4A5A60FFF7E9
:402AC000E1FC0346FB7500BF1BE0244B01221A80224B2A4A5A60FFF7D5FC0346FB7510E01E4B01221A801C4B1B79DBB21A46244B13441A4A5360FFF7C5FC0346FB7500E014
:402B000000BF19E1144B5B78DBB2013B0A2B00F2128101A252F823F0232C0000372D0000AD2C0000372D0000452B0000372D0000372D0000372D0000892B0000372D000083
:402B4000DF2B0000044B9B78DAB20E4B1A70FFF7B5FD0346FB75EFE000600040A483FF1FE46A0000EC6B00008C6A00003484FF1FC083FF1F5882FF1FBD83FF1FBB83FF1FE1
:402B80002C84FF1FBA83FF1F6E4B9B787B717B79002B06D07B79013BDBB2184600F0C2FCB8607B79002B02D0BB68002B02D17B79002B13D1644B1B78DBB27A799A4208D0D3
:402BC000614A7B791370614B01221A70012000F0C1F9FFF773FD0346FB75ADE0ACE000F009FE0346002B1BD0564B1B793B71554B1B79DAB2564B1A703B79564AD35CDAB226
:402C00003B795549CB5CDBB29A4204D04F4B01221A7000F069FBFFF751FD0346FB758BE08AE0FB7903F00303012B22D0012B0DD3022B00D039E0434B9B78DBB2002B04D196
:402C400000F040FD0346FB752FE02EE03D4B9B78DBB2012B0CD1414B1B78DBB223F00203DAB23E4B1A70FFF729FD0346FB751CE01BE0344B1B79DBB2012B15D8314B9B78A9
:402C8000DBB2DB43DBB22F4A1279D2B211461046334A125CD2B21340DAB2314B5A54FFF70DFD0346FB75FFE700BF45E0FB7903F00303012B22D0012B0DD3022B00D039E0FF
:402CC000204B9B78DBB2002B04D100F08DFC0346FB752FE02EE01B4B9B78DBB2012B0CD11E4B1B78DBB243F00203DAB21B4B1A70FFF7E4FC0346FB751CE01BE0114B1B79B8
:402D0000DBB2012B15D80F4B9B78DBB2DB43DBB20C4A1279D2B211461046114A125CD2B21340DAB20E4B5A54FFF7C8FC0346FB75FFE700BF00E000BFFB7D18461837BD4624
:402D400080BD00BF00600040BB83FF1FB883FF1FB083FF1FA083FF1F2C84FF1FBD83FF1F3084FF1FB0B58AB000AF7860314B07F114041D460FCD0FC42B682370002387F8E6
:402D800026307B68002B52D07B6822221A707B68013303221A7007F10C03184600F014FE022387F827303EE097F827307A68134497F8262007F128010A4412F81C2C1209C6
:402DC000D2B207F128010A4412F8142C1A7097F8273001337A68134400221A7097F8273002337A68134497F8262007F128010A4412F81C2C02F00F0207F128010A4412F8A7
:402E0000142C1A7097F8273003337A68134400221A7097F82630013387F8263097F82730043387F8273097F82730212BBCD92837BD46B0BD786A000090B482B000AF012325
:402E4000FB7174E03F4AFB791B0113440C221A70FA793D4913465B0013449B000B445B79DBB2002B1AD0FA79374913465B0013449B000B441B79DBB2DBB25BB2002B06DA58
:402E8000324AFB791B0113440C229A700CE02F4AFB791B01134408229A7005E02B4AFB791B01134480229A702648F979FA79264C13465B0013449B002344DB889BB2DAB2FC
:402EC0000B0103449A711F48F979FA791E4C13465B0013449B002344DB889BB21B0A9BB2DAB20B010344DA711648F979FA79164C13465B0013449B002344DB889BB2DAB277
:402F00000B0103441A710F48F979FA790E4C13465B0013449B002344DB889BB21B0A9BB2DAB20B0103445A71FB790133FB71FB79082B87D9064BFF221A700837BD4690BC9F
:402F4000704700BF70600040C083FF1FFC5F00400A60004080B58AB000AF0346FB7100237B84002387F827304CE097F82720C44913465B0013449B000B4400221A7097F8F8
:402F80002720BF4913465B0013449B000B4400229A7097F82720BA4913465B0013449B000B440022DA7097F82720B54913465B0013449B000B44083300221A8097F82720D1
:402FC000AF4913465B0013449B000B44083300229A7097F82720AA4913465B0013449B000B4400225A7097F82720A54913465B0013449B000B4400225A7197F82730013313
:4030000087F8273097F82730082BAED9FB79002B16D0002387F825300EE097F82530994A0021D15497F82530974A0021D15497F82530013387F8253097F82530012BECD9D7
:40304000924B1B78DBB2002B00F049810023FB768E4B1B78DBB2013BDBB2184600F062FA78617B695B683B613B6907331B7803F04003002B08D0864B1B78DBB243F0010380
:40308000DAB2834B1A7007E0814B1B78DBB223F00103DAB27E4B1A707B6908337B617B691B7887F82730012387F82530B3E07B695B68FB61002387F82630A0E097F8252041
:4030C000FB699B7803F07F039A4240F0908097F825206B4913465B0013449B000B4408331B889AB2FB699B889A420CD297F82520FB699888624913465B0013449B000B44E8
:40310000083302461A80FB691B781A465D4B9B5CDAB2FB695B789A4269D197F82520FB699878574913465B0013449B000B4402461A7197F82520FB69D878514913465B001D
:4031400013449B000B4402461A70FB69DB7803F00303FB73FB699B78DBB25BB2002B1ADA97F82520FB7B012B01D1072000E00D20434913465B0013449B000B4402465A71DE
:4031800097F825203E4913465B0013449B000B4401225A7019E097F82520FB7B012B01D1052000E00920364913465B0013449B000B4402465A7197F82520314913465B00DA
:4031C00013449B000B4400225A70FB699B790A2B03D0FB699B79022B09D197F82520FB7EF86911461A46FEF789FF0346FB76FB690833FB6197F82630013387F8263097F88F
:40320000262097F827309A42FFF458AF97F82530013387F8253097F82530082B7FF647AF7B695B68FB61002387F8253016E0FB699B7803F07F02FB691878114913465B0041
:4032400013449B000B44083302469A70FB690833FB6197F82530013387F8253097F8252097F827309A42E2D300F098F90246094B1A6000237B84012387F8273029E000BFD3
:40328000C083FF1F2C84FF1FA083FF1FBB83FF1FBD83FF1FB483FF1F97F82720114913465B0013449B000B447A8CDA8097F827200C4913465B0013449B000B4408331B880C
:4032C0009AB27B8C13447B8497F82730013387F8273097F82730082BDED9FFF7ADFD2837BD4680BDC083FF1F90B585B000AF874B1B78DBB2002B00F00681844B1B78DBB219
:40330000013BDBB2184600F00DF978607B6808337B607B681B78FB707B685B68BB607C4B1B78BB700023FB73E8E0BB681B78BA789A4240F0DD80BB78764AD35CDAB2BB68FD
:403340005B789A4240F0D480BB689B7803F07F037B70BB68DB7803F003033B707A786E4913465B0013449B000B440022DA707A78BB689878684913465B0013449B000B4495
:4033800002461A717A78BB68D878634913465B0013449B000B4402461A707A78BB6898885D4913465B0013449B000B44083302461A80BB689B78DBB25BB2002B18DA7A7896
:4033C0003B78012B01D1072000E00D20524913465B0013449B000B4402465A717A784E4913465B0013449B000B4401225A7017E07A783B78012B01D1052000E00920464983
:4034000013465B0013449B000B4402465A717A78414913465B0013449B000B4400225A703E4A7B781B01134401229A703B4879787A78394C13465B0013449B0023440833D9
:403440001B889BB21B0A9BB2DAB20B0103441A70324879787A78304C13465B0013449B00234408331B889BB2DAB20B0103445A702B4879787A78284C13465B0013449B0057
:403480002344DB889BB2DAB20B0103449A71244879787A78204C13465B0013449B002344DB889BB21B0A9BB2DAB20B010344DA711B4879787A78184C13465B0013449B00A7
:4034C0002344DB889BB2DAB20B0103441A71144879787A78104C13465B0013449B002344DB889BB21B0A9BB2DAB20B0103445A71BB680833BB60FB7B0133FB73FA7BFB785E
:403500009A42FFF412AF1437BD4690BDBB83FF1FB083FF1F2C84FF1FC083FF1FFC5F00407060004080B485B000AF0346FB71104B1B78DBB20F4ADB0013445B68FB60FB6885
:403540001033FB60FB681B78FA799A4202D30023FB6005E0FB79DB00FA6813445B68FB60FB6818461437BD465DF8047B704700BF9983FF1FE46B000080B400AF054B1B7862
:40358000DBB2054ADB0013445B681846BD465DF8047B70479983FF1FE46B000080B584B000AF104B1B78DBB2013BDBB21846FFF7B9FFB860BB68002B0DD0BB685B681B79A0
:4035C000FB71FB790233DB00BA681344BB60BB685B68FB6001E00023FB60FB6818461037BD4680BDBB83FF1F80B582B000AF0023FB71314B1B79DBB203F07F03BB71BB79EC
:40360000002B53D0BB79082B50D8BA79B9792B480B465B000B449B0003449B78DBB243F00103D8B2254913465B0013449B000B4402469A70BA79214913465B0013449B009F
:403640000B440022DA70BA79B9791C480B465B000B449B0003445B78DBB243F00203D8B2164913465B0013449B000B4402465A70BA79124913465B0013449B000B441B794A
:40368000DBB2DBB25BB2002B06DA0D4ABB791B0113448D229A7005E0094ABB791B01134489229A70FFF70AF80346FB71FB7918460837BD4680BD00BF00600040C083FF1FCF
:4036C000FC5F004080B582B000AF0023FB71464B1B79DBB203F07F03BB71BB79002B7DD0BB79082B7AD8BA79B97940480B465B000B449B0003449B78DBB223F00103D8B2C7
:403700003A4913465B0013449B000B4402469A70BA79364913465B0013449B000B440022DA70334ABB791B0113447F221A70BA79B9792E480B465B000B449B0003445B78D2
:40374000DBB223F00203D8B2284913465B0013449B000B4402465A70BA79244913465B0013449B000B441B79DBB2DBB25BB2002B18DABA791D4913465B0013449B000B44A7
:403780005B78DBB2012B06D1194ABB791B0113440C229A701EE0164ABB791B0113440D229A7017E0BA79114913465B0013449B000B445B78DBB2012B06D10D4ABB791B01A3
:4037C000134408229A7005E0094ABB791B01134409229A70FEF772FF0346FB71FB7918460837BD4680BD00BF00600040C083FF1FFC5F004080B584B000AF0023FB73154B5A
:403800001B79BB73144B1B78DBB2013BDBB21846FFF788FEB860BB685B681B79FB71BA7BFB799A4202D9BB7B022B0ED8BB7BBA7B0A498A5CD1B20A4AD154BB7B054A9278CE
:40384000D1B2064AD1540123FB73FB7B18461037BD4680BD00600040BB83FF1F2C84FF1FA083FF1F80B582B000AF0023FB710F4B1B78DBB2DBB25BB2002B12DA0B4B5B785F
:40388000DBB2012B00D00CE0094B0A4A5A60094B1B789AB2064B1A80FEF7F4FD0346FB7100BFFB7918460837BD4680BD00600040A483FF1F006C000080B400AF054B1B7851
:4038C000DBB203F040039B09DBB21846BD465DF8047B70478F4500400230800803D000BF01380046FCD17047EFF3108072B6704780F31088704700BF80B483B000AF034654
:40390000FB7101BE0C37BD465DF8047B704700BF80B582B000AF0346FB80FB88044A127802FB03F31846FFF7D7FF0837BD4680BD9081FF1F80B584B000AF03463960FB7166
:403940000F4B1B68FB60FB791F2B02D90020FFF7D3FFFB7903F01F0310339B00FA6813441B68BB60FB7903F01F0310339B00FA6813443A681A60BB6818461037BD4680BD8C
:4039800008ED00E080B582B000AF03460A46FB711346BB71BB79072B02D90020FFF7ACFFFB791F2B02D90020FFF7A6FFFB7903F01F0303F1604303F56443BA795201D2B273
:4039C0001A700837BD4680BD80B483B000AF7860264B1B78DBB21A467B681A60244B1B78DBB21B027A6812681A437B681A60214B1B78DBB21B047A6812681A437B681A60FF
:403A00001D4B1B78DBB21B067A6812681A437B681A607B680433194A1278D2B21A60184B1B78DBB21A027B6804337968043109680A431A60134B1B78DBB21A047B68043305
:403A40007968043109680A431A600F4B1B78DBB21A067B6804337968043109680A431A600C37BD465DF8047B704700BF0301004904010049EC4600400201004901010049C2
:403A800000010049050100490601004980B500AF054B1B78002B04D100F008F8024B01221A7000F061F880BD5C82FF1F80B582B000AF284A274B1B78DBB243F00203DBB20B
:403AC0001370254B1B78DBB223F07003FB71224AFB7943F01003DBB21370204A1F4B1B78DBB223F03003DBB213701C4A1B4B1B78DBB243F03003DBB21370184A174B1B7888
:403B0000DBB223F00F03DBB21370144A134B1B78DBB243F00F03DBB21370642000F048F8002000F055F8002000F062F80C4A0C4B1B78DBB243F00103DBB21370094A094B5C
:403B40001B78DBB243F00103DBB213700837BD4680BD00BF004F0040024F00400B4F0040A3430040014F004080B400AF0D4A0D4B1B78DBB243F00103DBB213700A4A0A4B8E
:403B80001B78DBB243F00103DBB21370074A074B1B78DBB243F00103DBB21370BD465DF8047B7047A3430040B3430040004F004080B483B000AF0346FB71044BFA7992B24A
:403BC0001A800C37BD465DF8047B7047044F004080B483B000AF0346FB71044BFA7992B21A800C37BD465DF8047B7047064F004080B483B000AF0346FB71044AFB791370E6
:403C00000C37BD465DF8047B704700BF034F004080B485B000AF0346FB710B4B1B78DBB223F02003FB730849FB795B01DBB203F02003DAB2FB7B1343DBB20B701437BD4609
:403C40005DF8047B704700BFF051004080B485B000AF0346FB710B4B1B78DBB223F00203FB730849FB795B00DBB203F00203DAB2FB7B1343DBB20B701437BD465DF8047B89
:403C8000704700BF1051004080B500AF054B1B78002B04D100F008F8024B01221A7000F061F880BD5D82FF1F80B582B000AF284A274B1B78DBB243F00203DBB21370254BE7
:403CC0001B78DBB223F07003FB71224AFB7943F01003DBB21370204A1F4B1B78DBB223F03003DBB213701C4A1B4B1B78DBB243F03003DBB21370184A174B1B78DBB223F0D9
:403D00000F03DBB21370144A134B1B78DBB243F00F03DBB21370642000F048F8002000F055F8002000F062F80C4A0C4B1B78DBB243F00203DBB21370094A094B1B78DBB2D9
:403D400043F00103DBB213700837BD4680BD00BF0C4F00400E4F0040174F0040A34300400D4F004080B400AF0D4A0D4B1B78DBB243F00203DBB213700A4A0A4B1B78DBB25B
:403D800043F00203DBB21370074A074B1B78DBB243F00103DBB21370BD465DF8047B7047A3430040B34300400C4F004080B483B000AF0346FB71044BFA7992B21A800C377E
:403DC000BD465DF8047B7047104F004080B483B000AF0346FB71044BFA7992B21A800C37BD465DF8047B7047124F004080B483B000AF0346FB71044AFB7913700C37BD4663
:403E00005DF8047B704700BF0F4F004080B485B000AF0346FB710B4B1B78DBB223F00203FB730849FB795B00DBB203F00203DAB2FB7B1343DBB20B701437BD465DF8047BAA
:403E4000704700BF2051004080B400AF054B1B78DBB203F002035B08DBB21846BD465DF8047B70472151004080B400AFBD465DF8047B704780B582B000AF0F2000F06AF83A
:403E800000F058F8FFF730FD0346FB71074A074B1B78DBB243F01003DBB21370FB791846FFF726FD0837BD4680BD00BF9464004080B500AF00F034F94FF4004000F05CF9A7
:403EC000054B1B78002B04D1FFF7CEFF024B01221A70FFF7CFFF80BD5E82FF1F80B582B000AF00F059F90346FB80FB88A3F500439BB2BB80BB881BB218460837BD4680BD34
:403F000080B584B000AF0346FB80B7F90630002B04DBFB88A3F50043FB8103E0FB88A3F50043FB81FB89184600F026F91037BD4680BD00BF80B400AF054B1B78DBB203F0A1
:403F40000F03DBB21846BD465DF8047B704700BF6464004080B483B000AF0346FB71044AFB7913700C37BD465DF8047B704700BF8464004080B400AFBD465DF8047B7047B6
:403F800080B582B000AF0F2000F06AF800F058F8FFF7AAFC0346FB71074A074B1B78DBB243F01003DBB21370FB791846FFF7A0FC0837BD4680BD00BF9D64004080B500AFF9
:403FC00000F084F94FF4004000F0ACF9054B1B78002B04D1FFF7CEFF024B01221A70FFF7CFFF80BD5F82FF1F80B582B000AF00F0A9F90346FB80FB88A3F500439BB2BB804A
:40400000BB881BB218460837BD4680BD80B584B000AF0346FB80B7F90630002B04DBFB88A3F50043FB8103E0FB88A3F50043FB81FB89184600F076F91037BD4680BD00BFA9
:4040400080B400AF054B1B78DBB203F00F03DBB21846BD465DF8047B704700BF6D64004080B483B000AF0346FB71044AFB7913700C37BD465DF8047B704700BF8D640040CE
:4040800080B582B000AF1C4B1B78DBB223F00703FB71194AFB791370174B1B78DBB223F00303FB71144AFB79137000F0B1F84FF4004000F08DF84FF4004000F05DF80020AB
:4040C00000F03EF800F04CF84FF4004000F090F8FFF70AFC0346BB71084A084B1B78DBB243F01003DBB21370BB791846FFF700FC0837BD4680BD00BF7465004095650040CA
:4041000080B400AF054A054B1B78DBB263F07F03DBB21370BD465DF8047B70477465004080B500AF054B1B78002B04D1FFF7A8FF024B01221A70FFF7E3FF80BD6082FF1FDE
:4041400080B483B000AF0346FB71044AFB7913700C37BD465DF8047B704700BF8565004080B400AF034B1B78DBB21846BD465DF8047B70476565004080B483B000AF0346CF
:40418000FB80044AFB8813800C37BD465DF8047B704700BF086A004080B400AF044B1B78044B1B889BB21846BD465DF8047B704704650040886A004080B400AF034B1B883F
:4041C0009BB21846BD465DF8047B7047886A004080B483B000AF0346FB80044AFB8813800C37BD465DF8047B704700BF486A004080B483B000AF0346FB80044AFB88138056
:404200000C37BD465DF8047B704700BF686A004080B500AF01E0FFF7CFFFFFF7A1FF034603F04003002BF6D180BD00BF80B582B000AF1C4B1B78DBB223F00703FB71194AC7
:40424000FB791370174B1B78DBB223F00303FB71144AFB79137000F0B1F84FF4004000F08DF84FF4004000F05DF8002000F03EF800F04CF84FF4004000F090F8FFF734FBF8
:404280000346BB71084A084B1B78DBB243F01003DBB21370BB791846FFF72AFB0837BD4680BD00BF7C6400409C64004080B400AF054A054B1B78DBB263F07F03DBB213709C
:4042C000BD465DF8047B70477C64004080B500AF054B1B78002B04D1FFF7A8FF024B01221A70FFF7E3FF80BD6182FF1F80B483B000AF0346FB71044AFB7913700C37BD4646
:404300005DF8047B704700BF8C64004080B400AF034B1B78DBB21846BD465DF8047B70476C64004080B483B000AF0346FB80044AFB8813800C37BD465DF8047B704700BFE8
:404340001468004080B400AF044B1B78044B1B889BB21846BD465DF8047B70470A6400409468004080B400AF034B1B889BB21846BD465DF8047B70479468004080B483B0F7
:4043800000AF0346FB80044AFB8813800C37BD465DF8047B704700BF5468004080B483B000AF0346FB80044AFB8813800C37BD465DF8047B704700BF7468004080B500AFCC
:4043C00001E0FFF7CFFFFFF7A1FF034603F04003002BF6D180BD00BF80B582B000AF786000F046F8786800F013F8072000F022F800F032F80837BD4680BD00BF80B500AFB1
:4044000000F036F8014800F003F880BD9D13000080B485B000AF7860054B1B68FB60FB6850337A681A601437BD465DF8047B704708ED00E080B483B000AF0346FB71054A15
:40444000FB795B01DBB213700C37BD465DF8047B704700BF04E400E080B400AF034B10221A60BD465DF8047B704700BF00E100E080B400AF034B10221A60BD465DF8047B65
:40448000704700BF80E100E080B500AF054B1B78002B04D100F008F8024B01221A7000F023F880BD6282FF1F80B400AF094B72221A70094B20221A70084B06221A70084B7D
:4044C00047221A70074B02221A70BD465DF8047B704700BF886500408B6400402A6500403A6500408965004080B582B000AFFFF7FBF90346FB710F4A0E4B1B78DBB243F08A
:404500002003DBB213700C4A0B4B1B78DBB243F01003DBB21370094A084B1B78DBB243F01003DBB21370FB791846FFF7E1F90837BD4680BD986500409B640040996500402F
:4045400080B582B000AFFFF7CFF90346FB710F4A0E4B1B78DBB223F02003DBB213700C4A0B4B1B78DBB223F01003DBB21370094A084B1B78DBB223F01003DBB21370FB7928
:404580001846FFF7B5F90837BD4680BD986500409B6400409965004080B483B000AF0023FB710C4B1B78BB71BB7903F02003002B09D0094B1B78FB71BB7903F01E03002BF1
:4045C00001D00023FB71FB7918460C37BD465DF8047B70476B6400404864004080B483B000AF0346FB7100BF074B1B78DBB203F00403002BF8D1054AFB7913700C37BD4647
:404600005DF8047B704700BF696500404965004080B584B000AF78600023FB810B4B1B78002B10D009E0FB897A6813441B781846FFF7D4FFFB890133FB81FB897A68134460
:404640001B78002BEFD11037BD4680BD6282FF1F80B483B000AF0346FB71044AFB7913700C37BD465DF8047B704700BF7B65004080B582B000AF786000F03CF8786800F091
:4046800009F8072000F018F800F028F80837BD4680BD00BF80B485B000AF7860054B1B68FB60FB6868337A681A601437BD465DF8047B704708ED00E080B483B000AF0346FF
:4046C000FB71054AFB795B01DBB213700C37BD465DF8047B704700BF0AE400E080B400AF034B4FF480621A60BD465DF8047B704700E100E080B400AF034B4FF480621A60D2
:40470000BD465DF8047B704780E100E080B582B000AF42F2273000F05BF842F2273000F073F8FFF7E1F80346FB710A4A094B1B78DBB243F01003DBB21370FB791846FFF776
:40474000D7F800F071F8002000F026F80837BD4680BD00BF9164004080B400AF054A054B1B78DBB263F07F03DBB21370BD465DF8047B70477264004080B500AF054B1B787E
:40478000002B04D1FFF7C2FF024B01221A70FFF7E3FF80BD6482FF1F80B483B000AF0346FB71044AFB7913700C37BD465DF8047B704700BF8164004080B400AF034B1B78A6
:4047C000DBB21846BD465DF8047B70476164004080B483B000AF0346FB80044AFB8813800C37BD465DF8047B704700BF4068004080B400AF034B1B889BB21846BD465DF8AE
:40480000047B70478068004080B483B000AF0346FB80044AFB8813800C37BD465DF8047B704700BF0068004080B500AF01E0FFF7DFFFFFF7C1FF034603F00803002BF6D11C
:4048400080BD00BF80B582B000AF786000F03CF8786800F009F8072000F018F800F028F80837BD4680BD00BF80B485B000AF7860054B1B68FB60FB6860337A681A60143729
:40488000BD465DF8047B704708ED00E080B483B000AF0346FB71054AFB795B01DBB213700C37BD465DF8047B704700BF08E400E080B400AF034B4FF480721A60BD465DF807
:4048C000047B704700E100E080B400AF034B4FF480721A60BD465DF8047B704780E100E080B582B000AFC72000F06AF8C72000F083F8FEF7F9FF0346FB710A4A094B1B7894
:40490000DBB243F01003DBB21370FB791846FEF7EFFF00F081F8002000F036F80837BD4680BD00BF9964004080B400AF054A054B1B78DBB263F07F03DBB21370BD465DF8DE
:40494000047B70477864004080B500AF054B1B78002B04D1FFF7C4FF024B01221A70FFF7E3FF80BD6582FF1F80B400AF054A054B1B78DBB203F07F03DBB21370BD465DF8D2
:40498000047B70477864004080B483B000AF0346FB71044AFB7913700C37BD465DF8047B704700BF8964004080B400AF034B1B78DBB21846BD465DF8047B7047696400408E
:4049C00080B483B000AF0346FB71044AFB7913700C37BD465DF8047B704700BF2964004080B400AF034B1B78DBB21846BD465DF8047B70474964004080B483B000AF0346C1
:404A0000FB71044AFB7913700C37BD465DF8047B704700BF0964004080B500AF01E0FFF7DFFFFFF7C1FF034603F00803002BF6D180BD00BF80B582B000AF786000F03CF8F2
:404A4000786800F009F8072000F018F800F028F80837BD4680BD00BF80B485B000AF7860054B1B68FB60FB686C337A681A601437BD465DF8047B704708ED00E080B483B05F
:404A800000AF0346FB71054AFB795B01DBB213700C37BD465DF8047B704700BF0BE400E080B400AF034B4FF400621A60BD465DF8047B704700E100E080B400AF034B4FF4F1
:404AC00000621A60BD465DF8047B704780E100E080B584B000AF03460A46FB8013467B7100F0B2F80346FB7300F0A2F80346BB81FA88BB899A4200F08780454B1B78DBB2F1
:404B000003F00203FB72FB7B002B20D1BB89002B02D0FB88002B1AD1BB89002B0BD13D4AFB8813803C4A3C4B1B78DBB223F04003DBB2137068E0384A374B1B78DBB243F08A
:404B40004003DBB21370334AFB8813805CE0FB7A002B33D0314B00221A70314B02221A70304B00221A70304A2F4B1B78DBB203F07F03DBB21370284B1B78DBB203F00803CD
:404B8000002B02D0FB88002B18D1284ABB891380224B07221A7000BF204B1B78DBB203F00103002BF8D11A4A194B1B78DBB223F00203DBB21370194B00221A70144B1B78B1
:404BC000DBB203F00203002B13D0184AFB881380124A7B79002B01D0032300E00123137000BF0E4B1B78DBB203F00103002BF8D10AE0084AFB8813800549054B1B78DAB27F
:404C0000FB7A1343DBB20B701037BD4680BD00BFA24300408440004086400040014000401040004014400040084000400240004080B400AF034B1B889BB21846BD465DF8A6
:404C4000047B70478440004080B400AF054B1B78DBB203F00703DBB21846BD465DF8047B704700BF8640004080B400AF034B1B78DBB21846BD465DF8047B70476564004026
:404C800080B400AF034B1B78DBB21846BD465DF8047B70476465004080B400AF034B1B78DBB21846BD465DF8047B70476A64004080B400AF034B1B78DBB21846BD465DF85C
:404CC000047B70476864004080B400AF034B1B78DBB21846BD465DF8047B70476264004080B582B000AF1A4B1B78DBB203F00303012B02D0022B04D012E0154B1B79BB718A
:404D000011E0134B1B79DBB203F07F02114913465B0013449B000B4408339B78BB7102E00023BB7100BF0C4B1A68BB7913441B78022B04D1FDF7A2F80346FB7102E0002395
:404D4000FB7100BFFB7918460837BD4680BD00BF00600040C083FF1FB483FF1F2DE9F04F8BB0994606460F46904600F0A5F8DFF898A004469AF900300D46013303D000F0C9
:404D800093FA834620B1204629460BB0BDE8F08F3046394600F088FA0028F4D04046494600F082FA0028EED014499AF800300322CDF820B0CDE90267CDE9048901910092FF
:404DC0008BB90F4B4FF06042CDE90623684600F09DFA70B1089B1BB101F098F9089B0360DDE90601D1E707490020022BCDE90601ECD101F08BF922230360EBE7286C0000E9
:404E0000FFFFEF470000F07F9881FF1F2DE9F0478AB006460F4600F081F9DFF898A004469AF900300D4601330FD03046394600F041FA50B14FF000084FF0000930463946DF
:404E400042464B4600F08EFE20B9204629460AB0BDE8F08716499AF8004001220023CDE90467CDE9026701910092089364B9CDE90689684600F04AFA80B1089B9BB9DDE971
:404E800006010AB0BDE8F0874046494642464B4600F020FD022CCDE90601EAD101F036F921230360E9E701F031F9089B0360E6E7306C00009881FF1F2DE9F04F21F000492D
:404EC00023F00048C14589B005DB46461446C8460246B1462046C9EB0804B4F1707F9246C34606464F4600F39A80884B98457ADC00230193864B99451EDCB9F5801F80F257
:404F0000F480334659EA030300F0FA80814D00242246304639462B4600F0B2FB2246019C06460F46504659462B46A4F2FE34019400F0A6FB82468B4632463B465046594673
:404F400000F0EAF905460C4602460B463046394600F008FE00286BD00024434641462246204600F08DFB3246CDE902013B46304607F1004100F084FB434606460F462246FE
:404F80005046594600F0CAF945468946804622462B465046594600F0BFF902460B464046494600F06DFB02460B463046394600F0B3F902460B46DDE9020100F0ADF900F01B
:404FC000ADF80B460199024600297ED0090501F17F55002405F540152046294600F050FB09B0BDE8F08F4C4B984573DD1346C8F3130858EA030307D01046594632464B461E
:4050000000F08CF982468B46334689F0FF4989F4E00959EA030373D130463946E0E71046414632464B4600F079F909B0BDE8F08F08F580134946994600200B46CDE902012C
:4050400002464946804600F01BFB2A46CDE904012346284604F1004100F012FBDDE90223CDE906013046394600F056F902460B464046494600F004FB524604460D465B4609
:405080005046594600F04AF942464B4600F044F932463B4600F0F4FA02460B462046294600F03CF902460B46DDE9060100F034F902460B46DDE9040100F02EF900F02EF8C4
:4050C0000B4601990246002980D11046194609B0BDE8F08FA8F11658A9F116594FF416734F469246C346019304E7019B08F1165809F11659A3F516734F46C34601931BE7DF
:405100005046594609B0BDE8F08F00BF0000305FFFFFAF200000D07FFFFFEF7F2DE9F041604E0C46B6460E40764505460B4600F098800029024676DD5FEA215E00F081801A
:40514000AEF2FF3EC3F313031EF0010F43F480135ED100273C46D10F01EB43034FEA6E0E520016204FF4001165189D424FEAD2764FEA420202DC5B1B6C180F44013806EB74
:4051800043034FEA5101EFD1844620264FF000410AE0A34220D0D50F013E4FEA510105EB43034FEA420220D09C420CEB0105F0DA002D05EB010C09DBA0461B1B954288BFD1
:4051C00003F1FF334446521B0844E4E7BCF1000FF2DB04F10108F0E7954217D8002D05EB010C48DB98460023ECE7134315D140087B1003F17F5303F50013FA0703EB0E5702
:40520000394648BF40F00040BDE8F0811C46C2E7D10F01EB430352009BE7411C31D000F001031844E3E721F000460643ECD079BB8E46D30AAEF1150E5205002BF9D0DC02CD
:4052400022D400215B00D80201F10101FAD5C1F10100C1F1200422FA04F4234386448A406EE702460B4600F00BFA2A46234600F055F8BDE8F081BCF1000FAADAA046002330
:40528000A0E701373046B3E7202401200021E2E702460B4600F040F802460B4600F01AFBB2E700BF0000F07F41F0004101F58010C00F704710B431F0004408D0114BA1F539
:4052C00080129A4208D804205DF8044B704718B902205DF8044B704701F1FF41094B01F5E0019942EFD9B4F5801F01D20320EBE7054B9C4201D00020E6E7B0FA80F0400934
:40530000E2E700BFFFFFDF7F0000F07F0020704781F0004102E000BF83F0004330B54FEA41044FEA430594EA050F08BF90EA020F1FBF54EA000C55EA020C7FEA645C7FEA6B
:40534000655C00F0E2804FEA5454D4EB5555B8BF6D420CDD2C4480EA020281EA030382EA000083EA010180EA020281EA0303362D88BF30BD11F0004F4FEA01314FF4801C87
:405380004CEA113102D0404261EB410113F0004F4FEA03334CEA133302D0524263EB430394EA050F00F0A780A4F10104D5F1200E0DDB02FA0EFC22FA05F2801841F1000159
:4053C00003FA0EF2801843FA05F359410EE0A5F120050EF1200E012A03FA0EFC28BF4CF0020C43FA05F3C01851EBE37101F0004507D54FF0000EDCF1000C7EEB00006EEB79
:405400000101B1F5801F1BD3B1F5001F0CD349085FEA30004FEA3C0C04F101044FEA445212F5800F80F09A80BCF1004F08BF5FEA500C50F1000041EB045141EA050130BD17
:405440005FEA4C0C404141EB010111F4801FA4F10104E9D191F0000F04BF01460020B1FA81F308BF2033A3F10B03B3F120020CDA0C3208DD02F1140CC2F10C0201FA0CF0B5
:4054800021FA02F10CE002F11402D8BFC2F1200C01FA02F120FA0CFCDCBF41EA0C019040E41AA2BF01EB0451294330BD6FEA04041F3C1CDA0C340EDC04F11404C4F1200207
:4054C00020FA04F001FA02F340EA030021FA04F345EA030130BDC4F10C04C4F1200220FA02F001FA04F340EA0300294630BD21FA04F0294630BD94F0000F83F4801306BF5F
:4055000081F480110134013D4EE77FEA645C18BF7FEA655C29D094EA050F08BF90EA020F05D054EA000C04BF1946104630BD91EA030F1EBF0021002030BD5FEA545C05D1CB
:405540004000494128BF41F0004130BD14F580043CBF01F5801130BD01F0004545F0FE4141F470014FF0000030BD7FEA645C1ABF194610467FEA655C1CBF0B46024650EA14
:40558000013406BF52EA033591EA030F41F4002130BD00BF90F0000F04BF0021704730B54FF4806404F132044FF000054FF0000150E700BF90F0000F04BF0021704730B504
:4055C0004FF4806404F1320410F0004548BF40424FF000013EE700BF42004FEAE2014FEA31014FEA02701FBF12F07F4393F07F4F81F06051704792F0000F14BF93F07F4F72
:40560000704730B54FF4607401F0004521F0004120E700BF50EA010208BF704730B54FF000050AE050EA010208BF704730B511F0004502D5404261EB41014FF4806404F1B2
:4056400032045FEA915C3FF4DCAE4FF003025FEADC0C18BF03325FEADC0C18BF033202EBDC02C2F1200300FA03FC20FA02F001FA03FE40EA0E0021FA02F11444C1E600BF9D
:4056800070B54FF0FF0C4CF4E06C1CEA11541DBF1CEA135594EA0C0F95EA0C0F00F0DEF82C4481EA030621EA4C5123EA4C5350EA013518BF52EA033541F4801143F48013BE
:4056C00038D0A0FB02CE4FF00005E1FB02E506F00042E0FB03E54FF00006E1FB03569CF0000F18BF4EF0010EA4F1FF04B6F5007F64F5407404D25FEA4E0E6D4146EB0606C7
:4057000042EAC62141EA55514FEAC52040EA5E504FEACE2EB4F1FD0C88BFBCF5E06F1ED8BEF1004F08BF5FEA500E50F1000041EB045170BD06F0004646EA010140EA02007A
:4057400081EA0301B4EB5C04C2BFD4EB0C0541EA045170BD41F480114FF0000E013C00F3AB8014F1360FDEBF002001F0004170BDC4F10004203C35DA0C341BDC04F1140481
:40578000C4F1200500FA05F320FA04F001FA05F240EA020001F0004221F0004110EBD37021FA04F642EB06015EEA430E08BF20EAD37070BDC4F10C04C4F1200500FA04F37B
:4057C00020FA05F001FA04F240EA020001F0004110EBD37041F100015EEA430E08BF20EAD37070BDC4F1200500FA05F24EEA020E20FA04F301FA05F243EA020321FA04F0A9
:4058000001F0004121FA04F220EA020000EBD3705EEA430E08BF20EAD37070BD94F0000F0FD101F00046400041EB010111F4801F08BF013CF7D041EA060195F0000F18BFED
:40584000704703F00046520043EB030313F4801F08BF013DF7D043EA0603704794EA0C0F0CEA135518BF95EA0C0F0CD050EA410618BF52EA4306D1D181EA030101F00041EF
:405880004FF0000070BD50EA410606BF1046194652EA430619D094EA0C0F02D150EA013613D195EA0C0F05D152EA03361CBF104619460AD181EA030101F0004141F0FE41F1
:4058C00041F470014FF0000070BD41F0FE4141F4780170BD70B54FF0FF0C4CF4E06C1CEA11541DBF1CEA135594EA0C0F95EA0C0F00F0A7F8A4EB050481EA030E52EA033551
:405900004FEA013100F088804FEA03334FF0805545EA131343EA12634FEA022245EA111545EA10654FEA00260EF000419D4208BF964244F1FD0404F5407402D25B084FEAC5
:405940003202B61A65EB03055B084FEA32024FF480104FF4002CB6EB020E75EB030E22BFB61A754640EA0C005B084FEA3202B6EB020E75EB030E22BFB61A754640EA5C0011
:405980005B084FEA3202B6EB020E75EB030E22BFB61A754640EA9C005B084FEA3202B6EB020E75EB030E22BFB61A754640EADC0055EA060E18D04FEA051545EA16754FEADE
:4059C00006164FEAC30343EA52734FEAC2025FEA1C1CC0D111F4801F0BD141EA00014FF000004FF0004CB6E711F4801F04BF01430020B4F1FD0C88BFBCF5E06F3FF6AFAE26
:405A0000B5EB030C04BFB6EB020C5FEA500C50F1000041EB045170BD0EF0004E4EEA113114EB5C04C2BFD4EB0C0541EA045170BD41F480114FF0000E013C90E645EA060E85
:405A40008DE60CEA135594EA0C0F08BF95EA0C0F3FF43BAF94EA0C0F0AD150EA01347FF434AF95EA0C0F7FF425AF104619462CE795EA0C0F06D152EA03353FF4FDAE104643
:405A8000194622E750EA410618BF52EA43067FF4C5AE50EA41047FF40DAF52EA43057FF4EBAE12E74FF0FF3C06E000BF4FF0010C02E000BF4FF0010C4DF804CD4FEA410C90
:405AC0007FEA6C5C4FEA430C18BF7FEA6C5C1BD001B050EA410C0CBF52EA430C91EA030F02BF90EA020F0020704710F1000F91EA030F58BF994208BF90422CBFD8176FEA61
:405B0000E37040F0010070474FEA410C7FEA6C5C02D150EA013C07D14FEA430C7FEA6C5CD6D152EA033CD3D05DF8040B704700BF8446104662468C461946634600E000BFB8
:405B400001B5FFF7B7FF002848BF10F1000F01BD4DF808EDFFF7F4FF0CBF012000205DF808FB00BF4DF808EDFFF7EAFF34BF012000205DF808FB00BF4DF808EDFFF7E0FF0D
:405B800094BF012000205DF808FB00BF4DF808EDFFF7CEFF94BF012000205DF808FB00BF4DF808EDFFF7C4FF34BF012000205DF808FB00BF4FEA410212F5001215D211D5F2
:405BC0006FF47873B3EB625212D94FEAC12343F0004343EA505311F0004F23FA02F018BF404270474FF00000704750EA013005D111F0004008BF6FF0004070474FF0000074
:405C0000704700BF80F0004002E000BF81F0004142001FBF5FEA410392EA030F7FEA226C7FEA236C6AD04FEA1262D2EB1363C1BFD218414048404140B8BF5B42192B88BF14
:405C4000704710F0004F40F4000020F07F4018BF404211F0004F41F4000121F07F4118BF494292EA030F3FD0A2F1010241FA03FC10EB0C00C3F1200301FA03F100F000439C
:405C800002D5494260EB4000B0F5000F13D3B0F1807F06D340084FEA310102F10102FE2A51D2B1F1004F40EBC25008BF20F0010040EA03007047490040EB000010F4000F7F
:405CC000A2F10102EDD1B0FA80FCACF1080CB2EB0C0200FA0CF0AABF00EBC25052421843BCBFD0401843704792F0000F81F4000106BF80F400000132013BB5E74FEA41031E
:405D00007FEA226C18BF7FEA236C21D092EA030F04D092F0000F08BF0846704790EA010F1CBF0020704712F07F4F04D1400028BF40F00040704712F100723CBF00F5000059
:405D4000704700F0004343F0FE4040F4000070477FEA226216BF08467FEA23630146420206BF5FEA412390EA010F40F4800070474FF0000304E000BF10F0004348BF40423B
:405D80005FEA000C08BF704743F0964301464FF000001CE050EA010208BF70474FF000030AE000BF50EA010208BF704711F0004302D5404261EB41015FEA010C02BF844615
:405DC0000146002043F0B64308BFA3F18053A3F50003BCFA8CF2083AA3EBC25310DB01FA02FC634400FA02FCC2F12002BCF1004F20FA02F243EB020008BF20F0010070470D
:405E000002F1200201FA02FCC2F1200250EA4C0021FA02F243EB020008BF20EADC7070474FF0FF0C1CEAD0521EBF1CEAD15392EA0C0F93EA0C0F6FD01A4480EA010C4002E8
:405E400018BF5FEA41211ED04FF0006343EA501043EA5111A0FB01310CF00040B1F5000F3EBF490041EAD3715B0040EA010062F17F02FD2A1DD8B3F1004F40EBC25008BF14
:405E800020F00100704790F0000F0CF0004C08BF49024CEA502040EA51207F3AC2BFD2F1FF0340EAC250704740F400004FF00003013A5DDC12F1190FDCBF00F00040704767
:405EC000C2F10002410021FA02F1C2F1200200FA02FC5FEA310040F1000053EA4C0308BF20EADC70704792F0000F00F0004C02BF400010F4000F013AF9D040EA0C0093F028
:405F0000000F01F0004C02BF490011F4000F013BF9D041EA0C018FE70CEAD15392EA0C0F18BF93EA0C0F0AD030F0004C18BF31F0004CD8D180EA010000F00040704790F01F
:405F4000000F17BF90F0004F084691F0000F91F0004F14D092EA0C0F01D142020FD193EA0C0F03D14B0218BF084608D180EA010000F0004040F0FE4040F40000704740F073
:405F8000FE4040F4400070474FF0FF0C1CEAD0521EBF1CEAD15392EA0C0F93EA0C0F69D0A2EB030280EA010C49024FEA402037D04FF0805343EA111143EA10130CF00040B6
:405FC0008B4238BF5B0042F17D024FF4000C8B4224BF5B1A40EA0C00B3EB510F24BFA3EB510340EA5C00B3EB910F24BFA3EB910340EA9C00B3EBD10F24BFA3EBD10340EAE7
:40600000DC001B0118BF5FEA1C1CE0D1FD2A3FF650AF8B4240EBC25008BF20F0010070470CF0004C4CEA50207F32C2BFD2F1FF0340EAC250704740F400004FF00003013AE2
:4060400037E792F0000F00F0004C02BF400010F4000F013AF9D040EA0C0093F0000F01F0004C02BF490011F4000F013BF9D041EA0C0195E70CEAD15392EA0C0F08D1420273
:406080007FF47DAF93EA0C0F7FF470AF084676E793EA0C0F04D14B023FF44CAF08466EE730F0004C18BF31F0004CCAD130F000427FF45CAF31F000437FF43CAF5FE700BFEF
:4060C0004FEA4002B2F1FE4F0FD34FF09E03B3EB12620DD94FEA002343F0004310F0004F23FA02F018BF404270474FF00000704712F1610F01D1420205D110F0004008BFDF
:406100006FF0004070474FF000007047014B1868704700BFFC81FF1F0E4B70B51E460E4C0025E41AA410A54204D056F8253098470135F8E700F09CFD084B094C1E46E41A3E
:40614000A4100025A54204D056F8253098470135F8E770BD7C6C00007C6C00007C6C0000846C000010B5431E0A44914204D011F8014B03F8014FF8E710BD03460244934254
:4061800002D003F8011BFAE7704700000EB400B54FF402719CB0ADF814106FF00041049107914FF6FF711DABADF81610084953F8042B02900690086802A9019300F06CF811
:4061C000029B00221A701CB05DF804EB03B07047FC81FF1F034613F8012B002AFBD1181A013870472DE9F0478E688246B3420C469046994640D38A8912F4906F3AD02568E0
:40620000096902236F1A656905EB450595FBF3F57B1C4B449D4238BF1D4653050FD5294600F030FB064698B121693A46FFF79AFFA38923F4906343F08003A38113E02A46F8
:4062400000F076FB064670B95046216900F0D6FA0C23CAF80030A3894FF0FF3043F04003A381BDE8F08726613E4426604E466561ED1BA560B14500D24E463246206841461E
:4062800000F0A0FAA36800209B1BA36023681E442660BDE8F08700002DE9F0439DB003938B8906461C060D4690460CD50B6953B9402100F0E7FA2860286110B90C233360DB
:4062C000CCE040236B610023099320238DF8293030238DF82A3043461C4613F8012B1AB9B4EB08090FD002E0252AF5D1F8E73046294642464B46FFF775FF013000F0A980A5
:40630000099B4B4409932378002B00F0A28000234FF0FF3204930793059206938DF853301A9304F101084446DFF8489121784846052200F039FA08F10108049B30B1C9EB2E
:4063400000000122824013430493ECE7D80644BF20228DF85320190744BF2B228DF8532022782A2A02D0079923460EE0039A0134111D12680391002ABBBF524243F00203C0
:4063800007920792B8BF04930AE01C4622780133303A092A03D80A2000FB0121F5E7079123782E2B1AD163782A2B0AD1039B02341A1D1B680392002BB8BF4FF0FF33059398
:4063C0000CE0611C00220C4623780131303B092B03D80A2000FB0232F5E70592DFF8988021784046032200F0DFF938B1049AC8EB00004023834013430493013421781A4835
:40640000062204F101088DF8281000F0CDF988B1164B33B9039B073323F007030833039313E003AB0093304604A92A46104BAFF3008007E003AB0093304604A92A460C4B21
:4064400000F092F8421C074603D0099B3B44099341E7AB895B0601D4099801E04FF0FF301DB0BDE8F08300BF446C000000000000E56100003A6C0000406C00002DE9F843A6
:4064800091461F468A680B6906469342B8BF1346C9F8003091F843200C46DDF8208012B10133C9F800302368990642BFD9F800300233C9F80030256815F006051CD094F856
:4064C00043302268003318BF012392061FD5E118302081F843005A1C94F845102244023382F8431013E03046394604F119020123C047013007D00135E368D9F800209B1ACF
:406500009D42F0DBDBE74FF0FF30BDE8F8833046394604F14302C0470130F4D02268D9F80050E36802F00602042A08BF5D1B2269A3680CBF25EAE57500259342C4BF9B1ADD
:40654000ED184FF00009A9450ADA3046394604F11A020123C0470130D5D009F10109F2E70020BDE8F88300002DE9FF410C461746227E98466E2A06460A9B01F1430100F0A6
:40658000B08012D8632A23D00AD8002A00F0BD80582A40F0CC8084F84520DFF804E257E0642A1ED0692A1CD0C1E0732A00F0B18009D86F2A2ED0702A40F0B980226842F0A4
:4065C000200222603FE0752A24D0782A3BD0AEE01A6804F14205111D1960136884F84230A9E020681A6810F0800F02D0101D186008E010F0400F02F10400186002D0B2F980
:40660000003000E01368002B3EDA2D225B4284F8432039E020681A6810F0800F02D0101D186007E010F0400F02F10400186001D0138800E01368227EDFF864E16F2A0CBF0C
:4066400008220A221CE07822DFF858E184F845202268186812F0800F00F104051D6003D1550601D5038800E00368D00744BF42F0200222601BB9226822F02002226010225A
:40668000002084F8430002E0DFF814E10A226568002DA8BF2068A560A4BF20F00400206003B965B10D46B3FBF2F002FB10331EF8033005F8013D03460028F4D100E00D465A
:4066C000082A0BD12368DA0708D5236962689A42DEBF302305F8013C05F1FF35491B21612EE025681A6815F0800F606903D0151D1D60136808E015F0400F02F104051D60AB
:40670000136801D0188000E01860002323610D4616E01A68111D1960156800212846626800F042F808B1401B6060636804E004F1420584F8422001232361002384F84330AD
:40674000CDF800803046214603AA3B46FFF796FE013002D14FF0FF301FE0304639462A462369C0470130F5D023689B0705D4E068039B9842B8BF18460FE00025E368039A49
:406780009B1A9D42F3DA3046394604F119020123C0470130DED00135F0E704B0BDE8F0814B6C00005C6C000010B5C9B202449042034605D01C7801308C42F8D1184610BD16
:4067C000002010BD814210B501EB020301D3421E0BE09842FBD28118D21AD34204D013F8014D01F8014DF8E710BD994204D011F8014B02F8014FF8E710BD000030B50029AB
:406800003CD051F8042C0B1F1D49002AB8BF9B180A680C4612B95A600B6030BD93420DD219685818904201BF5A5852181A60426823605A6030BD994203D80A4651680029C5
:40684000F9D1146815199D420AD11B682344D0188842136012D10868034413604B680CE002D90C23036030BD1C681819884201BF08684968001918605960536030BD00BFCC
:406880006C82FF1F70B5CC1C24F0030408340C2C38BF0C24002C064603DA0C233360002070BD8C42F9D3204A136810461946A1B10A68121B0ED40B2A03D90A608B188C50A4
:4068C0001FE08B420BBF5A684A6802605A6018BF0B4616E00B464968E9E7144D2B681BB9304600F04BF828603046214600F046F8421C0346D1D0C51C25F0030585420AD196
:406900001C6003F10B001A1D20F00700821A0AD05142995070BD3046E91A00F02FF80130BBD02B46ECE770BD6C82FF1F6882FF1FF8B5074615460E4621B91146BDE8F840E7
:40694000FFF7A0BF1AB9FFF759FF2846F8BD00F025F8A8420ED238462946FFF793FF044650B131462A46FFF7FDFB38463146FFF745FF01E03046F8BD2046F8BD38B5064C7D
:406980000023054608462360FAF70CFD431C02D1236803B12B6038BD5884FF1F51F8040C0028BEBF091851F8043CC01804387047000000006469723A2025640D0A00000007
:4069C00074617267657420717561643A2025640D0A000000646973743A2025640D0A00005374617274696E6720726F626F74210D0A0000004261747465727920566F6C7433
:406A00006167653A2025646D760A0D00525353493A00000025640D0A00000000726F626F745F783A00000000726F626F745F793A00000000726F626F745F6469723A0000C4
:406A4000004F0040240040510040300000000140001000140140000800400140000A004C014000021050014010000000005001406C0E0048100000003031323334353637EA
:406A80003839414243444546000000001201000202000008B40432F2010001028001000009024300020101C032090400000102020103052400100104240202052406000160
:406AC00005240100010705810308000A09040100020A000004070582024000000705030240000000040309042C0343007900700072006500730073002000530065006D0019
:406B0000690063006F006E0064007500630074006F007200100355005300420055004100520054003803430044004300200043006F006D006D0075006E0069006300610021
:406B4000740069006F006E00200049006E007400650072006600610063006500260343004400430020004400610074006100200049006E00740065007200660061006300D1
:406B8000650000000203000000008103080002000100820240000A000100030240000A00020A000001000000A06A000003000000886B0000000000000000000000000000B1
:406BC0000000000000000000A06B0000010000008C6A0000000000000000000001000000A46B000001000000CC6B000012034D00530046005400310030003000010000006A
:406C0000280000000001040001000000000000000001435955534200000030303030310000000000000000006879706F7400000073717274000000004300232D302B2000A2
:406C4000686C4C006566674546470030313233343536373839414243444546003031323334353637383961626364656600000000F8B500BFF8BC08BC9E4670474D00000020
:406C80008D140000F8B500BFF8BC08BC9E46704729000000A86C00000881FF1FF8000000600200000000000000000000000000000A016400F0A73241010000004353333003
:406CC0003120323031360A0000000000000000000000000000000000000000000000000000000000000000000000000000000000000000000000000000000000030300006A
:406D000000000000000030406084FF1F00C2010000000800C201000000080000A120000000000200000000000087930360EA00003C0000000000307501000000000000003F
:406D400000000000000000000000000000000000000000000000000000000000386C000000000000000000000000000000000000000000000000000000000000000000006F
:406D8000000000000000000000000000000000000000000000000000000000009C81FF1F000000000000000000000000000000000000000000000000000000000000000098
:406DC0000000000000000000000000000000000000000000000000000000000000000000000000000000000000000000000000000000000000000000000000000000000093
:406E00000000000000000000000000000000000000000000000000000000000000000000000000000000000000000000000000000000000000000000000000000000000052
:406E40000000000000000000000000000000000000000000000000000000000000000000000000000000000000000000000000000000000000000000000000000000000012
:406E800000000000000000000000000000000000000000000000000000000000000000000000000000000000000000000000000000000000000000000000000000000000D2
:020000040003F7
:0200000480007A
:4000000001450040064F004008520040015B004006640040036500405500014030010140460201404403014043040140470501404D0601404F0701405E0801404A09014089
:40004000710A0140500B0140390C01403A0D0140020F0140621401405015014004160140171701404B1801404A190140511A0140501B0140084001401B4101401342014045
:400080000F4301400A4501400A4601400D4701401048014015490140154C01400B4D014005500140035101407E0201400A360D4016361950223600010101081409146080E2
:4000C000618079107C402F84810D840F890D8B388C6F8D0F856F8872890F010F0503070C110A13051505170A1D0C1F03220125072E013001370F405449FF4AFF4BFF4F01F8
:4001000050185608580A59045A0A5B045C295D995F016040624064406540668068806A806C806E80840286018B018C018E0292049304940196029B029C019E02A204B0043B
:40014000B102B403B504B701BA20BE01C054C5ECC602C807C9FFCAFFCBFFCD83CE03CF01D018D401D804D904DA0ADB0ADC22DD99DF01E040E240E440E540E680E880EA800D
:40018000EC80EE80040407010C020E22108216801A801C041E4020012302261127012810300831423610370138053F204280468048024C024D0554805680588059285D055E
:4001C0005E40600862A0632078087E20C0A0C2B0C419CA02CCABCE23D081D218D6DED80EDE42E280010704940501066007020B070D010E0F0F02109E126013041430150722
:4002000016C918731CCF1E3020FD220223082904310F36FF3E405280580459045B0B5C205D905F0181168308861E872088168A088F209018911892029304971E980E990E0B
:400240009C189D189E049F02A120A510A601A702A810AA02AF01B001B11EB320B61EB701BF04D608D804D904DB04DC22DD90DF010004012004840504081009020A010C990C
:400280000D020E0B1008110415011680170219411A011F802080210A23012480280229052C082F80301831423605390D3B403C843D215A805E40600269106B0174027E803A
:4002C00080408110824083048701891090049B029C909D48A280A40AA502AA40AC80AD20B405C0A6C2FBC416CAABCCCFCEFBD618D808DE80E001E60B00300101030204607F
:40030000050708010A020B040C010E020F20100813171501170218601B101C021E012050210426082708280129072A062C082D103070310F320433203408360337103802A5
