:400000000080002011000000F14A0000F14A000080B500AF024A034B1B68136004F094FDBC760040FA46004010B5054C237833B9044B13B10448AFF300800123237010BD0C
:40004000C086FF1F00000000EC9F0000084B10B51BB108480849AFF300800848036803B910BD074B002BFBD0BDE81040184700BF00000000EC9F0000C486FF1F0881FF1FB1
:400080000000000000000000B0B500AF5A4B1A885A4B1A805A4B1A885A4B1A8007F0D2FA03461A46544B1A8007F052FB03461A46534B1A80504B1B889AB2504B1B889BB241
:4000C000D31A9BB29AB2504B1A804D4B1B889AB24C4B1B889BB2D31A9BB29AB24B4B1A80454B1B881BB2002BB8BF5B4240F6B832934217DD464B1B78012B13D0444B1B7804
:40010000022B0FD0424B1B78072B0BD0002007F0ABFA002007F02EFB374B00221A80384B00221A803B4B01221A703B4B1B78062B56D13A4B1B889AB2334B1B889BB2134430
:400140009BB29AB2354B1A80344B1B881BB2002BB8BF5B42184608F04BFD04460D46304B1B881BB2184608F043FD02460B46104619461DA3D3E9002308F0A0FD02460B46C7
:400180002046294609F020F80346002B02D0254B01221A70214B1B881BB2002BB8BF5B42184608F025FD04460D461D4B1B881BB2184608F01DFD02460B46104619460CA381
:4001C000D3E9002308F07AFD02460B462046294608F0FAFF0346002B02D0134B01221A70B0BD00BFAFF300809A9999999999E93F9A9999999999F13FF486FF1FF886FF1FF9
:40020000F686FF1FFA86FF1FFC86FF1FFE86FF1F5D81FF1FF286FF1F1887FF1F0C87FF1F0E87FF1F1087FF1F1187FF1FAFF3008080B500AF264B1B78012B15D107F088FA91
:4002400003461A46234B1B881BB2D31A002BB8BF5B42CF2B3BDD00F007FD1F4B1A781C4B1A7007F035FF32E0194B1B78022B15D107F0E8F903461A46164B1B881BB2D31A52
:40028000002BB8BF5B42CF2B21DD00F0EDFC124B1A780F4B1A7007F01BFF18E00C4B1B78072B14D107F0CEF903461A46094B1B881BB2D31A002BB8BF5B42CF2B07DD00F02C
:4002C000D3FC054B1A78024B1A7007F001FF80BD5D81FF1F0287FF1F5C81FF1F80B500AF054B1B78002B02D0044807F045FD044B00221A7080BD00BF1181FF1FF09F000025
:400300005D81FF1F80B500AF054B00221A60054B00221A7008F02CF9034807F02DFD80BD408AFF1F0087FF1F04A0000080B590B000AF62B606F05EFF07F05AF807F06CF9CA
:4003400007F0F0F9B24807F047FDB24807F026FF07F0C6FDB04807F029FEB04808F074F80020012104F0D4FE05F072F80346002B01D005F0D9F9AA4B1B78002B01D000F03F
:40038000C5FEA84B1B78002B01D000F0DFFE0023FB8700F0FBFEA24B1B78012B03D100F0DBFA01F0BFF807F13403184601F016F99D4B1B78072B00F2838201A252F823F07F
:4003C000C1080000C1080000C1080000E1030000C1080000250400004B0400004B040000924B1B78012B1CD0904B1B78022B18D097F83430012B06D197F83630012B02D139
:4004000000F09EFC0DE097F83830012B06D197F83630012B02D100F0AFFC02E000F012FD4EE24DE2824B1B78012B0DD1814B5A88814B1A807F4B9A88804B1A807C4B0222C2
:400440001A7000F0D1FC3BE23AE2784B1B78012B00F03582754B1B78022B00F03082734B1B78072B00F02B82754B1B881A46754B9B5C87F83D3097F83430012B03D197F8A9
:400480003630012B09D097F83830012B40F0F28097F83630012B40F0ED806B4B1B68002B40F0B580FB8F0133FB87FB8FB3F5487FC0F0AD80654B1B881BB207F124021046DB
:4004C00063491A4609F080F907F12403184607F053FC97F83D30442B0CD1594B1B8802339AB2574B1A80564B1B881A46554B9B5C87F83D30544B01221A60564807F03CFC3F
:40050000554807F039FC554B01221A7049F6404008F076F84D4B00221A80494B1B881A464F4B1B88053B9A4207DC454B1B880333444AD35C87F83C3002E0002387F83C3058
:4005400097F83C30013B9BB21A46920013441A46D200D31A9B009BB29AB2424B1A8097F83D304C3B092B33D801A252F823F000BFA7050000D1050000D1050000D105000085
:40058000D1050000D1050000BD05000099050000D1050000CB05000000F048FC42F2107008F02EF815E000F0CBFB2E4B1B889BB2D03B9BB29AB22B4B1A800AE000F0DCFB0A
:4005C000284B1A88274B1A8003E000F0F1FB00E000BF244B1B881BB207F12402104622491A4609F0F1F807F12403184607F0C4FB07F0AEFF1D4B00221A701D4B00221A707D
:400600000F4B1B8802339AB20D4B1A8057E156E18900000031020000DD02000005030000F186FF1F1181FF1F1887FF1F5D81FF1F1287FF1F28B0FF1F1487FF1F1687FF1F19
:400640003C8AFF1F1C87FF1F408AFF1F0C87FF1F14A0000028A0000048A000000087FF1F3E8AFF1F0E87FF1F5CA000001087FF1F1187FF1F97F83430002B77D197F83530D9
:40068000002B73D197F83630002B6FD197F83730002B6BD197F83830002B67D197F83D30552B63D19E4B1B68002B5ED1FB8F0133FB87FB8F40F6B732934256D9994B1B88CA
:4006C0001BB207F11402104697491A4609F07CF807F11403184607F04FFB924B00221A80924B1B881A46924B1B88053B9A4207DC8E4B1B8803338F4AD35C87F83B3002E0F0
:40070000002387F83B3097F83B30013B9BB21A46920013441A46D200D31A9B009BB29AB2854B1A80854807F027FB854807F024FB844B01221A7049F6404007F061FF07F0D1
:4007400007FF0023FB87764B01221A6000F030FB7D4B00221A707D4B00221A70734B1B8802339AB2714B1A80A9E0A8E0774B1B78012B40F09F8097F83D30442B40F09A809F
:400780006A4B1B8802339AB2684B1A80674B1B881A46684B9B5C87F83D30624B1B881BB23A1D104660491A4609F00EF83B1D184607F0E2FA5B4B00221A805C4B1B881A4661
:4007C0005B4B1B88053B9A4207DC584B1B880333584AD35C87F83A3002E0002387F83A3097F83A30013B9BB21A46920013441A46D200D31A9B009BB29AB24F4B1A8054489F
:4008000007F0BAFA4E4807F0B7FA4E4B01221A7049F6404007F0F4FE07F09AFE0023FB873F4B01221A6097F83D304C3B092B33D801A252F823F000BF6F08000099080000ED
:40084000990800009908000099080000990800008508000061080000990800009308000000F0E4FA42F2107007F0CAFE15E000F067FA314B1B889BB2D03B9BB29AB22E4BB2
:400880001A800AE000F078FA2B4B1A882A4B1A8003E000F08DFA00E000BF2B4B00221A702A4B00221A70214B1B8802339AB21F4B1A8004E000F0C6FA0023FB87FFE700BF7D
:4008C000244B1B78072B3FF664AD01A252F823F0F1080000F7080000FD080000090900000F090000150900001B0900000309000000F0CCF913E000F0EBF910E000F0D4F9E0
:400900000DE000F0FBF90AE000F0AEF907E000F055FD04E000F000FE01E000F055FD38E5408AFF1F0C87FF1F14A000003C8AFF1F3E8AFF1F1C87FF1F0E87FF1F70A000008F
:4009400048A000000087FF1F1087FF1F1187FF1F8CA000005D81FF1F80B489B000AF524B1B78012B40F09A804F4B00221A704F4B5B781B029AB24D4B1B789BB213439BB25E
:40098000FB834B4B1B78043B1E2B00F2878001A252F823F0110A00009D0A0000250A00009D0A00002D0A00009D0A0000350A00009D0A00003D0A00009D0A0000450A000076
:4009C0009D0A00004D0A00009D0A0000550A00009D0A00005D0A00009D0A0000650A00009D0A00006D0A00009D0A0000750A00009D0A00007D0A00009D0A0000850A000027
:400A00009D0A00008D0A00009D0A0000950A0000264B1B78DAB2274B1A70244B5A78254B5A703BE0FA8B234B5A8037E0FA8B214B9A8033E0FA8B1F4BDA802FE0FA8B1D4BC9
:400A40001A812BE0FA8B1B4B5A8127E0FA8B194B9A8123E0FA8B174BDA811FE0FA8B154B1A821BE0FA8B134B5A8217E0FA8B114B9A8213E0FA8B0F4BDA820FE0FA8B0D4B92
:400A80001A830BE0FA8B0B4B5A8307E0FA8B094B9A8303E0FA8B074BDA8300BF2437BD465DF8047B704700BFEA86FF1F24B0FF1F1987FF1FD8B0FF1F80B582B000AF034658
:400AC000FB71FB79184606F075FC0837BD4680BD80B582B000AF0346FB71FB79184606F04BFC0837BD4680BD80B584B000AF114B1B78002B0CBF01230023DBB21A460D4BF0
:400B00001A700C4B1B781846FFF7D6FF094B1B781846FFF7DDFF074B1B781A463B461846054908F051FE3B46184607F025F91037BD4680BDF086FF1FA8A0000000000000F1
:400B400080B586B000AFC7E90201C7E90023D7E900014FF000024FF0000308F021FB0346002B10D0304B1B78002B0CBF01230023DBB21846FFF7ACFF3B683B607B6883F0BE
:400B800000437B6004E0284B1B781846FFF7A0FFD7E902014FF000024FF0000308F000FB0346002B10D0204B1B78002B0CBF01230023DBB21846FFF77FFFBB68BB60FB6872
:400BC00083F00043FB6004E0174B1B781846FFF773FFD7E9020112A3D3E9002308F098F902460B461046194608F002FB0346FB82D7E900010AA3D3E9002308F089F902464D
:400C00000B461046194608F0F3FA0346BB82074ABB8A1380064AFB8A13801837BD4680BD969526A5A0DBEF3FF086FF1F0887FF1F0A87FF1FAFF3008080B500AF002006F078
:400C40007BFB024B00221A8080BD00BF0487FF1F80B500AF002006F06DFC024B00221A8080BD00BF0687FF1F80B500AF4FF000004FF000014FF000024FF00003FFF760FF02
:400C8000FFF7DAFFFFF7E4FF80BD00BF80B500AF044BD3E90001034BD3E90023FFF750FF80BD00BF6081FF1F80B500AF074BD3E900231046194607F04FFE02460B464FF04D
:400CC00000004FF00001FFF73BFF80BD6081FF1F80B500AF084BD3E900231046194607F03BFE02460B46104619464FF000024FF00003FFF725FF80BD6081FF1FB0B500AF12
:400D00000E4BD3E90023144683F000452046294622462B4607F020FE02460B4614461D46064BD3E900231046194607F015FE02460B4620462946FFF703FFB0BD6081FF1F8F
:400D400080B500AF07F0C4F9084B1A78084B1A70064B01221A70FFF76FFF06F0F9FC03461A46044B1A8007F0A3F980BD5D81FF1F5C81FF1F0287FF1F80B500AF07F0A8F950
:400D8000084B1A78084B1A70064B02221A70FFF75FFF06F057FC03461A46044B1A8007F087F980BD5D81FF1F5C81FF1F0287FF1F80B500AF07F08CF9084B1A78084B1A70CF
:400DC000064B07221A70FFF74FFF06F03BFC03461A46044B1A8007F06BF980BD5D81FF1F5C81FF1F0287FF1F80B500AFFFF73CFF014B00221A7080BD5D81FF1F80B400AF8D
:400E0000034B03221A70BD465DF8047B704700BF5D81FF1F80B400AF034B04221A70BD465DF8047B704700BF5D81FF1F80B400AF034B05221A70BD465DF8047B704700BF13
:400E40005D81FF1F80B400AF034B06221A70BD465DF8047B704700BF5D81FF1FB0B582B000AF06F04DFF0346FB71FB79AA2B2BD1224B1B78222B20D1214B224A1568546879
:400E80009068D1681D605C609860D960156954699069D1691D615C619861D9611A4B1B78002B0AD106F084FB0346DB43DBB2184606F060FB144B01221A70104B02221A7090
:400EC000124B00221A7016E00C4B1B7803F001030F49FA79CA54094B1B7803F00103DBB2002B02D0094B01221A70044B1B780133DAB2024B1A700837BD46B0BD1987FF1FDA
:400F000028B0FF1FD8B0FF1F1287FF1FEA86FF1F24B0FF1F80B586B000AF06F0F1FE0346FB74FB7C613B192B00F2D58001A252F823F000BF9D0F0000D7100000D710000050
:400F4000C10F0000D7100000CD0F0000D7100000D7100000D7100000D7100000D7100000D7100000D7100000D7100000D7100000D7100000FD0F000053100000B50F0000A5
:400F8000D90F0000E50F0000D7100000A90F000069100000D7100000F10F0000FFF7D0FE4E4B00221A7096E0FFF71EFF4B4B00221A7090E0FFF798FD484B00221A708AE0DE
:400FC000FFF7DAFE454B00221A7084E0FFF716FF424B00221A707EE0404B01221A70FFF719FF78E0FFF722FF3C4B02221A7072E03A4B03221A70FFF725FF6CE0374B042263
:401000001A70374B00221A80364B1B881BB2184608F0D0F90246344B1B681046194608F01DFA0346184608F069FB03469AB22F4B1A802E4B1B881BB23A4610462C491A468A
:4010400008F0C2FB3B46184606F096FEFFF7CCFE41E0224B05221A7000F058F8254B00221A70FFF7CBFE36E01C4B06221A70224B1B68224A136001F0C1FD03469AB2204B8B
:401080001A8000237B6100237B6118E07B6903F00103002B07D11B4A7B6913441B78184606F050FE08E0174A7B6913441B783033DBB2184606F046FE7B6901337B61104BFF
:4010C0001B881A467B699A42E0DC0F4806F054FEFFF7B8FE00BF1837BD4680BD1887FF1F0C87FF1F1281FF1F1481FF1F0E87FF1FB4A000001287FF1F6881FF1FD0B0FF1FA3
:401100003E8AFF1F1C87FF1FC8A0000080B500AF0B4B00221A7006F025FD06F0C5FD094B01221A708120012107F086F8064806F007FD06F05DFD002006F03EFE80BD00BFCB
:401140001181FF1FF186FF1F5D0E000080B500AF0B4B00221A7006F005FD06F0A5FD094B01221A704FF44370012107F065F8064806F0E6FC06F03CFD012006F01DFE80BD18
:40118000F186FF1F1181FF1F150F0000B0B588B000AF824B1B78002B00D1FCE07F4B00221A707F4B1B88FB817E4B1B88BB814FF000027D4BC7E906234FF000027A4BC7E9A3
:4011C0000423B7F90E30002B0FD1B7F90C30002B0BD14FF000024FF08043C7E906234FF000024FF08043C7E90423704B1B881AB2B7F90E30002BB8BF5B42D31ABB60BB6824
:4012000083EAE372A2EBE372BB6892FBF3F3184607F0EEFC04460D46BB68002BB8BF5B42184607F0E5FC02460B461046194607F043FA02460B462046294607F03FFD024695
:401240000B461046194607F0D3FF03467B60584B1B881BB2184607F0CBFC04460D46786807F0C6FC02460B4610461946D7E9062307F024FD02460B462046294607F06CFBFB
:4012800002460B461046194607F0B2FF03469AB2474B1A80474B1B881AB2B7F90C30002BB8BF5B42D31ABB60BB6883EAE372A2EBE372BB6892FBF3F3184607F099FC0446B2
:4012C0000D46BB68002BB8BF5B42184607F090FC02460B461046194607F0EEF902460B462046294607F0EAFC02460B461046194607F07EFF03467B602F4B1B881BB21846B3
:4013000007F076FC04460D46786807F071FC02460B4610461946D7E9042307F0CFFC02460B462046294607F017FB02460B461046194607F05DFF03469AB21F4B1A801E4B52
:401340001B881BB2002B02DA1B4B00221A80184B1B881BB2002B02DA154B00221A80164B1B881BB2642B02DD134B64221A80104B1B881BB2642B02DD0D4B64221A800C4B19
:401380001B88DBB2184605F0D7FF0B4B1B88DBB2184606F0CFF82037BD46B0BDF286FF1FFC86FF1FFE86FF1F0000F03F0887FF1F0487FF1F0A87FF1F0687FF1F80B400AFD2
:4013C000BD465DF8047B70472DE9B04382B000AF07F016F80346FB7107F01EF80346BB7107F002F803467B71FB79002B27D0BB79002B24D17B79002B21D1454BD3E90023A9
:401400001046194640A3D3E9002307F081FD02460B4614461D463E4BD3E90023904683F000494046494638A3D3E9002307F070FD02460B4620462946FFF782FB5FE0FB79A9
:40144000002B0ED07B79002B0BD0BB79002B08D12F4BD3E900012E4BD3E90023FFF770FB4DE0BB79002B0ED07B79002B0BD0FB79002B08D1264BD3E90001254BD3E90023E8
:40148000FFF75EFB3BE0BB79002B27D07B79002B24D1FB79002B21D11D4BD3E90023144683F000452046294617A3D3E9002307F02FFD02460B4614461D46154BD3E9002348
:4014C0001046194610A3D3E9002307F021FD02460B4620462946FFF733FB10E07B79002B0DD0BB79002B0AD1FB79002B07D1084BD3E90001064BD3E90023FFF721FB0837D0
:40150000BD46BDE8B08300BF9A9999999999F93F6081FF1FAFF3008080B400AFBD465DF8047B704780B584B000AF254B1B78012B42D1234B00221A70224800F075F8224B08
:401540001B785BB23A46104620491A4608F03CF93B46184600F068F81D4800F065F81A4B5B881BB23A46104618491A4608F02CF93B46184600F058F8164800F055F8124B3E
:401580009B881BB23A46104610491A4608F01CF93B46184600F048F80F4800F045F80A4BDB881BB23A46104608491A4608F00CF93B46184600F038F81037BD4680BD00BFBE
:4015C000EE86FF1FE4A0000028B0FF1FECA00000F4A0000000A100000CA1000090B583B000AF786006F0F4FE03461A467B681A707B685C1C06F004FF034623707B689C1CA9
:4016000006F0F2FE034623707B68DC1C06F004FF034623707B681C1D06F00AFF034623700C37BD4690BD00BF80B584B000AF7860154B1B78002B23D00023FB600AE0FB6823
:401640000133FB60FB68114A934203D10E4B00221A7015E004F0F2F80346002BEFD07B683F3300221A707B683E3321221A70786808F0CEF803469BB27868194604F0A8F840
:401680001037BD4680BD00BF1881FF1FC0C62D00B0B5ADF5745D00AF07F14004343C206007F140003838016007F140013C390A603A461360002307F5735202F13C0213602B
:4016C000FEE0002307F5735202F138021360E4E007F5735303F13C031B684C2202FB03F207F14003343B1B68134407F5735202F13802126853F8220007F5CA52103A07F535
:40170000735303F13C0319680B46DB000B445B000B4407F5735101F1380109680B445B011344186007F5CA52103A07F5735303F13C0319680B46DB000B445B000B4407F53B
:40174000735101F1380109680B445B01134400225A6007F5CA52103A07F5735303F13C0319680B46DB000B445B000B4407F5735101F1380109680B445B01134408330A2269
:401780001A8007F5CA52103A07F5735303F13C0319680B46DB000B445B000B4407F5735101F1380109680B445B011344103307F5735202F13C0212681A6007F5CA52103AA9
:4017C00007F5735303F13C0319680B46DB000B445B000B4407F5735101F1380109680B445B011344083307F5735202F1380212685A6007F5CA52103A07F5735303F13C033C
:4018000019680B46DB000B445B000B4407F5735101F1380109680B445B011344103300225A6007F5CA52103A07F5735303F13C0319680B46DB000B445B000B4407F57351C8
:4018400001F1380109680B445B01134418334FF6FF721A8007F5CA52103A07F5735303F13C0319680B46DB000B445B000B4407F5735101F1380109680B445B011344183389
:4018800000225A6007F5735303F138031B68013307F5735202F13802136007F5735303F138031B68122B7FF613AF07F5735303F13C031B68013307F5735202F13C0213604A
:4018C00007F5735303F13C031B680E2B7FF6F9AE3B461B681A6807F5CA53183B1A603B461B685A6807F5CA53183B5A60002307F5735202F13402136007F14003183B1A4655
:401900004FF4C853104600211A4607F054FF07F14003203B00221A6000225A60002307F5735202F114021360002307F5735202F130021360002307F5735202F12C021360C6
:40194000002307F5735202F11202138007F14003283B00221A6007F14003283B00225A60002307F5735202F12802136007F14003303B00221A6000225A60002307F57352BF
:4019800002F126021380012307F5735202F12002136007F5CA53183B196807F5CA53183B586807F5CA52103A0B46DB000B445B000B4403445B011344183300221A8007F56F
:4019C000CA53183B196807F5CA53183B5C6807F5CA53183B186807F5CA53183B5D6807F5CA52103A0346DB0003445B0003442B445B01D01807F5CA52103A0B46DB000B44AA
:401A00005B000B4423445B0113441033586007F5CA53183B196807F5CA53183B5C683E4B186807F5CA52103A0B46DB000B445B000B4423445B01134418335860A8E201236F
:401A400007F5735202F12C02136007F5CA53183B196807F5CA53183B586807F5CA52103A0B46DB000B445B000B4403445B01134401225A6082E1002307F5735202F130022E
:401A8000136007F5735303F12C031B68012B11D107F5CA53183B1B685A1E07F14003203B1A6007F5CA53183B5A6807F14003203B5A604BE007F5735303F12C031B68022B88
:401AC00011D107F5CA53183B1A6807F14003203B1A6007F5CA53183B5B685A1C07F14003203B5A6032E007F5735303F12C031B68032B13D107F5CA53183B1B685A1C07F128
:401B00004003203B1A6007F5CA53183B5A6807F14003203B5A6019E06881FF1F07F5735303F12C031B68042B10D107F5CA53183B1A6807F14003203B1A6007F5CA53183B2D
:401B40005B685A1E07F14003203B5A60994B1B6807F5735202F12C0212689A4205D0002307F5735202F13002136007F14003203B1B680F2B00F2F78007F14003203B5B68D5
:401B8000132B00F2F08007F14003203B196807F14003203B586807F5CA52103A0B46DB000B445B000B4403445B0113441B68002B40F0D98007F5CA53183B196807F5CA535A
:401BC000183B586807F5CA52103A0B46DB000B445B000B4403445B0113441833188807F14003203B196807F14003203B5C6807F5CA52103A0B46DB000B445B000B44234407
:401C00005B01134408331B8803449AB207F5735303F130031B689BB2134407F5735202F11202138007F14003203B196807F14003203B586807F5CA52103A0B46DB000B44CB
:401C40005B000B4403445B01134418331B8807F5735202F1120212889A4280F0848007F14003203B196807F14003203B586807F5CA52103A0B46DB000B445B000B440344E5
:401C80005B011344183307F5735202F1120212881A8007F14003203B196807F14003203B5C6807F5CA53183B186807F5CA53183B5D6807F5CA52103A0346DB0003445B0074
:401CC00003442B445B01D01807F5CA52103A0B46DB000B445B000B4423445B0113441033586007F14003203B196807F14003183B07F5735202F13402126843F8321007F1D0
:401D00004003203B596807F14002183A07F5735303F134031B68DB001344596007F14003203B196807F14003203B586807F5CA52103A0B46DB000B445B000B4403445B01C6
:401D40001344183307F5735202F12C0212685A6007F5735303F134031B68013307F5735202F13402136007F5735303F12C031B68013307F5735202F12C02136007F57353F7
:401D800003F12C031B68042B7FF675AE4FF6FF7307F5735202F126021380002307F5735202F120021360002307F5735202F11C021360ACE06881FF1F07F14003183B07F59F
:401DC000735202F11C02126853F8322007F14003303B1A6007F14002183A07F5735303F11C031B68DB0013445A6807F14003303B5A6007F14003183B07F5735202F11C023E
:401E0000126853F8321007F14002183A07F5735303F11C031B68DB001344586807F5CA52103A0B46DB000B445B000B4403445B01134418331B8807F5735202F126021288E0
:401E40009A4259D907F14003183B07F5735202F11C02126853F8321007F14002183A07F5735303F11C031B68DB001344586807F5CA52103A0B46DB000B445B000B44034449
:401E80005B0113445B68002B36D107F14003183B07F5735202F11C02126853F8321007F14002183A07F5735303F11C031B68DB001344586807F5CA52103A0B46DB000B4460
:401EC0005B000B4403445B01134418331B8807F5735202F12602138007F5735303F11C031B6807F5735202F128021360012307F5735202F12002136007F5735303F11C03F6
:401F00001B68013307F5735202F11C02136007F5735303F11C031A6807F5735303F134031B689A42FFF448AF07F14003183B07F5735202F12802126853F8322007F5CA537C
:401F4000183B1A6007F14002183A07F5735303F128031B68DB0013445A6807F5CA53183B5A6007F5CA53183B196807F5CA53183B586807F5CA52103A0B46DB000B445B0039
:401F80000B4403445B01134418335B68A04A136007F5CA53183B1A6807F5745303F110031B681B689A420CD107F5CA53183B5A6807F5745303F110031B6804331B689A42E5
:401FC00007D007F5735303F120031B68012B3FF436AD002307F5735202F12C02136007F5CA53183B1A6807F5745303F110031B681B689A4240F0058107F5CA53183B5A6876
:4020000007F5745303F110031B6804331B689A4240F0F78007F5CA53183B196807F5CA53183B586807F5CA52103A0B46DB000B445B000B4403445B01134407F5735202F1C8
:40204000180213606AE007F5735303F12C031A6813465B0013449B001A4607F140033C3B1B68134407F5735202F11802126812691A6007F5735303F12C031A6813465B0038
:4020800013449B001A4607F140033C3B1B68134407F5735202F118021268D2685A6007F5735303F12C031A6813465B0013449B001A4607F140033C3B1B68981807F57353F2
:4020C00003F118031B68196907F5735303F118031B68DC6807F5CA52103A0B46DB000B445B000B4423445B01134418335B68836007F5735303F118031B685B6907F57352C9
:4021000002F11802136007F5735303F12C031B68013307F5735202F12C02136007F5735303F118031B681A693B461B681B689A4289D107F5735303F118031B68DA683B4683
:402140001B6804331B689A427FF47DAF07F5735303F12C031A6813465B0013449B001A4607F140033C3B1B68134407F5735202F11802126812691A6007F5735303F12C038C
:402180001A6813465B0013449B001A4607F140033C3B1B68134407F5735202F118021268D2685A6007F5735303F12C031A6813465B0013449B001A4607F140033C3B1B682D
:4021C000981807F5735303F118031B68196907F5735303F118031B68DC6807F5CA52103A0B46DB000B445B000B4423445B01134418335B68836007F5735303F12C031B68C7
:4022000000E00023184607F57457BD46B0BD00BF6881FF1FB0B5ADF5745D00AF07F14004343C206007F140003838016007F140013C390A603A461360002307F5735202F1A2
:402240003C021360FDE0002307F5735202F138021360E3E007F5735303F13C031B684C2202FB03F207F14003343B1B68134407F5735202F13802126853F8220007F5CA5240
:40228000103A07F5735303F13C0319680B46DB000B445B000B4407F5735101F1380109680B445B011344186007F5CA52103A07F5735303F13C0319680B46DB000B445B00B5
:4022C0000B4407F5735101F1380109680B445B01134400225A6007F5CA52103A07F5735303F13C0319680B46DB000B445B000B4407F5735101F1380109680B445B011344FA
:4023000008330A221A8007F5CA52103A07F5735303F13C0319680B46DB000B445B000B4407F5735101F1380109680B445B011344103307F5735202F13C0212681A6007F51C
:40234000CA52103A07F5735303F13C0319680B46DB000B445B000B4407F5735101F1380109680B445B011344083307F5735202F1380212685A6007F5CA52103A07F573537D
:4023800003F13C0319680B46DB000B445B000B4407F5735101F1380109680B445B011344103300225A6007F5CA52103A07F5735303F13C0319680B46DB000B445B000B44CA
:4023C00007F5735101F1380109680B445B011344183300221A8007F5CA52103A07F5735303F13C0319680B46DB000B445B000B4407F5735101F1380109680B445B0113441D
:40240000183300225A6007F5735303F138031B68013307F5735202F13802136007F5735303F138031B68122B7FF614AF07F5735303F13C031B68013307F5735202F13C02E5
:40244000136007F5735303F13C031B680E2B7FF6FAAE3B461B681A6807F5CA53183B1A603B461B685A6807F5CA53183B5A60002307F5735202F13402136007F14003183BB5
:402480001A464FF4C853104600211A4607F093F907F14003203B00221A6000225A60002307F5735202F114021360002307F5735202F130021360002307F5735202F12C0215
:4024C0001360002307F5735202F11202138007F14003283B00221A6007F14003283B00225A60002307F5735202F12802136007F14003303B00221A6000225A60002307F586
:40250000735202F124021360012307F5735202F12002136007F5CA53183B196807F5CA53183B586807F5CA52103A0B46DB000B445B000B4403445B011344183300221A803C
:4025400007F5CA53183B196807F5CA53183B5C6807F5CA53183B186807F5CA53183B5D6807F5CA52103A0346DB0003445B0003442B445B01D01807F5CA52103A0B46DB0071
:402580000B445B000B4423445B0113441033586007F5CA53183B196807F5CA53183B586807F5CA52103A0B46DB000B445B000B4403445B011344183307F5745202F114025D
:4025C00012685A60002307F5735202F11C02136002E3012307F5735202F12C02136007F5CA53183B196807F5CA53183B586807F5CA52103A0B46DB000B445B000B440344FA
:402600005B01134401225A6083E1002307F5735202F13002136007F5735303F12C031B68012B11D107F5CA53183B1B685A1E07F14003203B1A6007F5CA53183B5A6807F117
:402640004003203B5A6049E007F5735303F12C031B68022B11D107F5CA53183B1A6807F14003203B1A6007F5CA53183B5B685A1C07F14003203B5A6030E007F5735303F1A9
:402680002C031B68032B11D107F5CA53183B1B685A1C07F14003203B1A6007F5CA53183B5A6807F14003203B5A6017E007F5735303F12C031B68042B10D107F5CA53183B8A
:4026C0001A6807F14003203B1A6007F5CA53183B5B685A1E07F14003203B5A6007F5735303F12C031A6807F5745303F114031B689A4205D0002307F5735202F1300213606C
:4027000007F14003203B1B680F2B00F2F78007F14003203B5B68132B00F2F08007F14003203B196807F14003203B586807F5CA52103A0B46DB000B445B000B4403445B014D
:4027400013441B68002B40F0D98007F5CA53183B196807F5CA53183B586807F5CA52103A0B46DB000B445B000B4403445B0113441833188807F14003203B196807F14003F4
:40278000203B5C6807F5CA52103A0B46DB000B445B000B4423445B01134408331B8803449AB207F5735303F130031B689BB2134407F5735202F11202138007F14003203BE7
:4027C000196807F14003203B586807F5CA52103A0B46DB000B445B000B4403445B01134418331B8807F5735202F1120212889A4240F2848007F14003203B196807F14003CD
:40280000203B586807F5CA52103A0B46DB000B445B000B4403445B011344183307F5735202F1120212881A8007F14003203B196807F14003203B5C6807F5CA53183B186858
:4028400007F5CA53183B5D6807F5CA52103A0346DB0003445B0003442B445B01D01807F5CA52103A0B46DB000B445B000B4423445B0113441033586007F14003203B196852
:4028800007F14003183B07F5735202F13402126843F8321007F14003203B596807F14002183A07F5735303F134031B68DB001344596007F14003203B196807F14003203BBE
:4028C000586807F5CA52103A0B46DB000B445B000B4403445B011344183307F5735202F12C0212685A6007F5735303F134031B68013307F5735202F13402136007F5735373
:4029000003F12C031B68013307F5735202F12C02136007F5735303F12C031B68042B7FF674AE002307F5735202F124021360002307F5735202F120021360002307F573527A
:4029400002F118021360ABE007F14003183B07F5735202F11802126853F8322007F14003303B1A6007F14002183A07F5735303F118031B68DB0013445A6807F14003303B3F
:402980005A6007F14003183B07F5735202F11802126853F8321007F14002183A07F5735303F118031B68DB001344586807F5CA52103A0B46DB000B445B000B4403445B01FE
:4029C000134418331B881A4607F5735303F124031B689A4259D907F14003183B07F5735202F11802126853F8321007F14002183A07F5735303F118031B68DB00134458688F
:402A000007F5CA52103A0B46DB000B445B000B4403445B0113445B68002B36D107F14003183B07F5735202F11802126853F8321007F14002183A07F5735303F118031B68DD
:402A4000DB001344586807F5CA52103A0B46DB000B445B000B4403445B01134418331B8807F5735202F12402136007F5735303F118031B6807F5735202F1280213600123DF
:402A800007F5735202F12002136007F5735303F118031B68013307F5735202F11802136007F5735303F118031A6807F5735303F134031B689A42FFF447AF07F14003183BEE
:402AC00007F5735202F12802126853F8322007F5CA53183B1A6007F14002183A07F5735303F128031B68DB0013445A6807F5CA53183B5A6007F5CA53183B196807F5CA53EB
:402B0000183B586807F5CA52103A0B46DB000B445B000B4403445B01134418335B6807F5745202F11402136007F5735303F11C031A6813465B0013449B001A4607F140031D
:402B40003C3B1B681A4407F5CA53183B1B68136007F5735303F11C031A6813465B0013449B001A4607F140033C3B1B681A4407F5CA53183B5B68536007F5735303F11C03F4
:402B80001A6813465B0013449B001A4607F140033C3B1B68981807F5CA53183B196807F5CA53183B5C6807F5CA52103A0B46DB000B445B000B4423445B01134418335B68DC
:402BC000836007F5735303F11C031B68013307F5735202F11C02136007F5735303F120031B68012B3FF4F5AC07F5735303F11C031B68184607F57457BD46B0BD90B5ADF5F1
:402C0000165D8FB002AF184B1B68184A0092019317481849184A194BFFF7FCFA034607F5165202F114021360002307F5165202F12C021360002307F5165202F12A021380D4
:402C4000002307F5165202F124021360002307F5165202F120021360002307F5165202F11C02136001F01FBF6881FF1F7481FF1F7C81FF1FF085FF1F448AFF1F6C81FF1F99
:402C800007F5165303F11C031B685A1CB44913465B0013449B000B441968B14807F5165303F11C031A6813465B0013449B0003441B68013399421DD107F5165303F11C0358
:402CC0001B685A1CA64913465B0013449B000B4404331968A24807F5165303F11C031A6813465B0013449B00034404331B68994201F0C48107F5165303F11C031B685A1C32
:402D0000974913465B0013449B000B441968944807F5165303F11C031A6813465B0013449B0003441B68013B99421DD107F5165303F11C031B685A1C894913465B001344A4
:402D40009B000B4404331968854807F5165303F11C031A6813465B0013449B00034404331B68994201F08A8107F5165303F11C031B685A1C7A4913465B0013449B000B4443
:402D800004331968764807F5165303F11C031A6813465B0013449B00034404331B68013B99421BD107F5165303F11C031B685A1C6B4913465B0013449B000B4419686848AE
:402DC00007F5165303F11C031A6813465B0013449B0003441B68994201F0508107F5165303F11C031B685A1C5D4913465B0013449B000B4404331968594807F5165303F10E
:402E00001C031A6813465B0013449B00034404331B68013399421BD107F5165303F11C031B685A1C4E4913465B0013449B000B4419684B4807F5165303F11C031A681346EB
:402E40005B0013449B0003441B68994201F01681002307F5165202F12002136007F13003303B1A464FF41653104600211A4606F0A2FC3B4907F5165303F11C031A681346E5
:402E80005B0013449B000B441B6807F5165202F108021360324907F5165303F11C031A6813465B0013449B000B4404331B6807F5165202F10C02136007F5165303F11C03AB
:402EC0001B685A1C264913465B0013449B000B441B6807F51652136007F5165303F11C031B685A1C1E4913465B0013449B000B4404331B6807F5165202F104021360184963
:402F000007F5165303F11C031A6813465B0013449B000B4408331B68124A136007F13003303B07F5165404F1080407F5165200920D480E491A462346FEF7AAFB034607F5CE
:402F4000165202F11002136007F5165303F110031B6807F5165202F11802136001F07BB8448AFF1F6881FF1F7C81FF1FF085FF1F07F13002303A07F5165303F11803196850
:402F80000B465B000B449B00134408331B68012B11D007F13002303A07F5165303F1180319680B465B000B449B00134408331B68032B40F0218407F13002303A07F5165329
:402FC00003F1180319680B465B000B449B001344196807F13002303A07F5165303F11803186803465B0003449B00134404331B685A1E95480B46DB000B445B000B441344E3
:4030000050F82330002B29D007F13002303A07F5165303F1180319680B465B000B449B001344196807F13002303A07F5165303F11803186803465B0003449B00134404333E
:403040001B685A1C80480B46DB000B445B000B44134450F82330002B40F0F28207F13002303A07F5165303F1180319680B465B000B449B0013440833186807F5165303F11F
:4030800018031B68591E07F13002303A0B465B000B449B00134408331B68984200F0868207F13002303A07F5165303F1180319680B465B000B449B00134408331B68012B8A
:4030C00011D107F5165303F118031B68591E07F13002303A0B465B000B449B00134408331B68042B6BD007F13002303A07F5165303F1180319680B465B000B449B00134461
:4031000008331B68032B11D107F5165303F118031B68591E07F13002303A0B465B000B449B00134408331B68022B48D007F13002303A07F5165303F1180319680B465B009A
:403140000B449B00134408331B68012B0FD107F5165303F11C031B685A1C3C4913465B0013449B000B4408331B68042B20D007F13002303A07F5165303F1180319680B46A2
:403180005B000B449B00134408331B68032B61D107F5165303F11C031B685A1C2B4913465B0013449B000B4408331B68022B51D107F5165303F118031B68012B4AD107F534
:4031C000165303F12A031B88214A4C21D15407F5165303F12A031B88013307F5165202F110021268D1B207F5165202F118021268D2B28A1AD1B207F5165202F12002126859
:40320000D2B28A1AD2B20132D1B2114AD15407F5165303F12A031B88023307F5165202F12A02138007F5165303F110031A6807F5165303F118031B68D31A013307F51652CE
:4032400002F120021360B0E17C81FF1F448AFF1F1C87FF1F07F13002303A07F5165303F1180319680B465B000B449B00134408331B68012B11D107F5165303F118031B6834
:40328000591E07F13002303A0B465B000B449B00134408331B68022B6BD007F13002303A07F5165303F1180319680B465B000B449B00134408331B68032B11D107F5165347
:4032C00003F118031B68591E07F13002303A0B465B000B449B00134408331B68042B48D007F13002303A07F5165303F1180319680B465B000B449B00134408331B68012BDF
:403300000FD107F5165303F11C031B685A1CCA4913465B0013449B000B4408331B68022B20D007F13002303A07F5165303F1180319680B465B000B449B00134408331B6825
:40334000032B5BD107F5165303F11C031B685A1CB94913465B0013449B000B4408331B68012B4BD107F5165303F118031B68042B44D107F5165303F12A031B88AF4A5221B5
:40338000D15407F5165303F12A031B88013307F5165202F110021268D1B207F5165202F118021268D2B28A1AD1B207F5165202F120021268D2B28A1AD2B20132D1B29F4A51
:4033C000D15407F5165303F12A031B88023307F5165202F12A02138007F5165303F110031A6807F5165303F118031B68D31A013307F5165202F120021360D6E007F1300262
:40340000303A07F5165303F1180319680B465B000B449B00134408331B68012B11D107F5165303F118031B68591E07F13002303A0B465B000B449B00134408331B68032B99
:403440006ED007F13002303A07F5165303F1180319680B465B000B449B00134408331B68032B11D107F5165303F118031B68591E07F13002303A0B465B000B449B001344DB
:4034800008331B68012B4BD007F13002303A07F5165303F1180319680B465B000B449B00134408331B68012B0FD107F5165303F11C031B685A1C604913465B0013449B0007
:4034C0000B4408331B68032B22D007F13002303A07F5165303F1180319680B465B000B449B00134408331B68032B40F0A48007F5165303F11C031B685A1C4F4913465B002C
:4035000013449B000B4408331B68012B40F0938007F5165303F118031B68012B40F08B8007F5165303F12A031B88444A5521D15407F5165303F12A031B88013307F51652AC
:4035400002F110021268D1B207F5165202F118021268D2B28A1AD1B207F5165202F120021268D2B28A1AD2B20132D1B2334AD15407F5165303F12A031B88023307F51652FA
:4035800002F12A02138007F5165303F110031A6807F5165303F118031B68D31A013307F5165202F12002136045E044E007F5165303F12A031B88214A5321D15407F516538C
:4035C00003F12A031B88013307F5165202F110021268D1B207F5165202F118021268D2B28A1AD1B207F5165202F120021268D2B28A1AD2B20132D1B2104AD15407F516539E
:4036000003F12A031B88023307F5165202F12A02138007F5165303F110031A6807F5165303F118031B68D31A013307F5165202F120021360D9E0D8E0448AFF1F1C87FF1F6B
:4036400007F13002303A07F5165303F1180319680B465B000B449B00134408331B68012B11D107F5165303F118031B68591E07F13002303A0B465B000B449B0013440833DE
:403680001B68032B6BD007F13002303A07F5165303F1180319680B465B000B449B00134408331B68032B11D107F5165303F118031B68591E07F13002303A0B465B000B44DD
:4036C0009B00134408331B68012B48D007F13002303A07F5165303F1180319680B465B000B449B00134408331B68012B0FD107F5165303F11C031B685A1C3D4913465B00EB
:4037000013449B000B4408331B68032B20D007F13002303A07F5165303F1180319680B465B000B449B00134408331B68032B5CD107F5165303F11C031B685A1C2C4913469E
:403740005B0013449B000B4408331B68012B4CD107F5165303F118031B68012B45D107F5165303F12A031B88224A5521D15407F5165303F12A031B88013307F5165202F189
:4037800010021268D1B207F5165202F118021268D2B28A1AD1B207F5165202F120021268D2B28A1AD2B20132D1B2124AD15407F5165303F12A031B88023307F5165202F1D9
:4037C0002A02138007F5165303F110031A6807F5165303F118031B68D31A013307F5165202F12002136000F020BC00F01EBC00BF448AFF1F1C87FF1F07F13002303A07F586
:40380000165303F1180319680B465B000B449B0013441B68591E07F13002303A07F5165303F11803186803465B0003449B00134404331A6895480B46DB000B445B000B4488
:40384000134450F82330002B29D007F13002303A07F5165303F1180319680B465B000B449B0013441B68591C07F13002303A07F5165303F11803186803465B0003449B00B6
:40388000134404331A6881480B46DB000B445B000B44134450F82330002B40F0F38207F13002303A07F5165303F1180319680B465B000B449B0013440833186807F51653B2
:4038C00003F118031B68591E07F13002303A0B465B000B449B00134408331B68984200F0878207F13002303A07F5165303F1180319680B465B000B449B00134408331B6879
:40390000042B11D107F5165303F118031B68591E07F13002303A0B465B000B449B00134408331B68032B6BD007F13002303A07F5165303F1180319680B465B000B449B0041
:40394000134408331B68022B11D107F5165303F118031B68591E07F13002303A0B465B000B449B00134408331B68012B48D007F13002303A07F5165303F1180319680B4658
:403980005B000B449B00134408331B68042B0FD107F5165303F11C031B685A1C3C4913465B0013449B000B4408331B68032B20D007F13002303A07F5165303F1180319684E
:4039C0000B465B000B449B00134408331B68022B62D107F5165303F11C031B685A1C2C4913465B0013449B000B4408331B68012B52D107F5165303F118031B68012B4BD195
:403A000007F5165303F12A031B88224A4C21D15407F5165303F12A031B88013307F5165202F110021268D1B207F5165202F118021268D2B28A1AD1B207F5165202F120028D
:403A40001268D2B28A1AD2B20132D1B2114AD15407F5165303F12A031B88023307F5165202F12A02138007F5165303F110031A6807F5165303F118031B68D31A013307F574
:403A8000165202F120021360B1E100BF7C81FF1F448AFF1F1C87FF1F07F13002303A07F5165303F1180319680B465B000B449B00134408331B68042B11D107F5165303F15F
:403AC00018031B68591E07F13002303A0B465B000B449B00134408331B68012B6BD007F13002303A07F5165303F1180319680B465B000B449B00134408331B68022B11D1C8
:403B000007F5165303F118031B68591E07F13002303A0B465B000B449B00134408331B68032B48D007F13002303A07F5165303F1180319680B465B000B449B0013440833E1
:403B40001B68042B0FD107F5165303F11C031B685A1CCA4913465B0013449B000B4408331B68012B20D007F13002303A07F5165303F1180319680B465B000B449B001344EA
:403B800008331B68022B5BD107F5165303F11C031B685A1CB94913465B0013449B000B4408331B68032B4BD107F5165303F118031B68012B44D107F5165303F12A031B881D
:403BC000AF4A5221D15407F5165303F12A031B88013307F5165202F110021268D1B207F5165202F118021268D2B28A1AD1B207F5165202F120021268D2B28A1AD2B2013209
:403C0000D1B29F4AD15407F5165303F12A031B88023307F5165202F12A02138007F5165303F110031A6807F5165303F118031B68D31A013307F5165202F120021360D6E0D7
:403C400007F13002303A07F5165303F1180319680B465B000B449B00134408331B68042B11D107F5165303F118031B68591E07F13002303A0B465B000B449B0013440833D5
:403C80001B68022B6ED007F13002303A07F5165303F1180319680B465B000B449B00134408331B68022B11D107F5165303F118031B68591E07F13002303A0B465B000B44D6
:403CC0009B00134408331B68042B4BD007F13002303A07F5165303F1180319680B465B000B449B00134408331B68042B0FD107F5165303F11C031B685A1C604913465B00B9
:403D000013449B000B4408331B68022B22D007F13002303A07F5165303F1180319680B465B000B449B00134408331B68022B40F0A48007F5165303F11C031B685A1C4F49A7
:403D400013465B0013449B000B4408331B68042B40F0938007F5165303F118031B68012B40F08B8007F5165303F12A031B88444A5521D15407F5165303F12A031B88013311
:403D800007F5165202F110021268D1B207F5165202F118021268D2B28A1AD1B207F5165202F120021268D2B28A1AD2B20132D1B2334AD15407F5165303F12A031B880233B2
:403DC00007F5165202F12A02138007F5165303F110031A6807F5165303F118031B68D31A013307F5165202F12002136045E044E007F5165303F12A031B88214A5321D15445
:403E000007F5165303F12A031B88013307F5165202F110021268D1B207F5165202F118021268D2B28A1AD1B207F5165202F120021268D2B28A1AD2B20132D1B2104AD15455
:403E400007F5165303F12A031B88023307F5165202F12A02138007F5165303F110031A6807F5165303F118031B68D31A013307F5165202F120021360D7E0D6E0448AFF1F83
:403E80001C87FF1F07F13002303A07F5165303F1180319680B465B000B449B00134408331B68042B11D107F5165303F118031B68591E07F13002303A0B465B000B449B0064
:403EC000134408331B68022B6BD007F13002303A07F5165303F1180319680B465B000B449B00134408331B68022B11D107F5165303F118031B68591E07F13002303A0B46AF
:403F00005B000B449B00134408331B68042B48D007F13002303A07F5165303F1180319680B465B000B449B00134408331B68042B0FD107F5165303F11C031B685A1CCC4917
:403F400013465B0013449B000B4408331B68022B20D007F13002303A07F5165303F1180319680B465B000B449B00134408331B68022B5AD107F5165303F11C031B685A1C74
:403F8000BB4913465B0013449B000B4408331B68042B4AD107F5165303F118031B68012B43D107F5165303F12A031B88B14A5521D15407F5165303F12A031B88013307F5B1
:403FC000165202F110021268D1B207F5165202F118021268D2B28A1AD1B207F5165202F120021268D2B28A1AD2B20132D1B2A14AD15407F5165303F12A031B88023307F502
:40400000165202F12A02138007F5165303F110031A6807F5165303F118031B68D31A013307F5165202F12002136007F5165303F124031B68013307F5165202F1240213604D
:4040400007F5165303F118031B68013B07F5165202F11802136007F5165303F118031B68002B3EF785AF07F5165303F11C031B68013307F5165202F11C0213607C4907F5C6
:40408000165303F11C031A6813465B0013449B000B4408331B68012B0FD0754907F5165303F11C031A6813465B0013449B000B4408331B68032B40F073826D4907F516536B
:4040C00003F11C031A6813465B0013449B000B441A68674807F5165303F11C0319680B465B000B449B00034404331B68591E62481346DB0013445B0013440B4450F823302D
:40410000002B25D05A4907F5165303F11C031A6813465B0013449B000B441A68544807F5165303F11C0319680B465B000B449B00034404331B68591C4F481346DB00134488
:404140005B0013440B4450F82330002B40F0B081474907F5165303F11C031A6813465B0013449B000B440833196807F5165303F11C031B685A1C3E4813465B0013449B003F
:40418000034408331B68994200F05D81384907F5165303F11C031A6813465B0013449B000B4408331B68012B0FD107F5165303F11C031B685A1C2E4913465B0013449B0089
:4041C0000B4408331B68042B1ED0294907F5165303F11C031A6813465B0013449B000B4408331B68032B49D107F5165303F11C031B685A1C1E4913465B0013449B000B4461
:4042000008331B68022B39D107F5165303F12A031B88184A4C21D15407F5165303F12A031B88013307F5165202F11C021268D1B207F5165202F12C021268D2B28A1AD1B2F3
:404240000C4AD15407F5165303F12A031B88023307F5165202F12A02138007F5165303F11C031B6807F5165202F12C021360E9E0448AFF1F1C87FF1F7C81FF1FC64907F5C0
:40428000165303F11C031A6813465B0013449B000B4408331B68012B0FD107F5165303F11C031B685A1CBC4913465B0013449B000B4408331B68022B1ED0B74907F5165398
:4042C00003F11C031A6813465B0013449B000B4408331B68032B43D107F5165303F11C031B685A1CAC4913465B0013449B000B4408331B68042B33D107F5165303F12A0362
:404300001B88A64A5221D15407F5165303F12A031B88013307F5165202F11C021268D1B207F5165202F12C021268D2B28A1AD1B29A4AD15407F5165303F12A031B88023372
:4043400007F5165202F12A02138007F5165303F11C031B6807F5165202F12C02136071E08D4907F5165303F11C031A6813465B0013449B000B4408331B68012B0FD107F558
:40438000165303F11C031B685A1C834913465B0013449B000B4408331B68032B1ED07E4907F5165303F11C031A6813465B0013449B000B4408331B68032B78D107F516539D
:4043C00003F11C031B685A1C734913465B0013449B000B4408331B68012B68D107F5165303F12A031B886D4A5521D15407F5165303F12A031B88013307F5165202F11C0290
:404400001268D1B207F5165202F12C021268D2B28A1AD1B2614AD15407F5165303F12A031B88023307F5165202F12A02138007F5165303F11C031B6807F5165202F12C0211
:40444000136034E033E007F5165303F12A031B88524A5321D15407F5165303F12A031B88013307F5165202F11C021268D1B207F5165202F12C021268D2B28A1AD1B2474A3A
:40448000D15407F5165303F12A031B88023307F5165202F12A02138007F5165303F11C031B6807F5165202F12C02136072E071E0394907F5165303F11C031A6813465B009D
:4044C00013449B000B4408331B68012B0FD107F5165303F11C031B685A1C2F4913465B0013449B000B4408331B68032B1ED02A4907F5165303F11C031A6813465B00134481
:404500009B000B4408331B68032B43D107F5165303F11C031B685A1C1F4913465B0013449B000B4408331B68012B33D107F5165303F12A031B88194A5521D15407F5165349
:4045400003F12A031B88013307F5165202F11C021268D1B207F5165202F12C021268D2B28A1AD1B20D4AD15407F5165303F12A031B88023307F5165202F12A02138007F53B
:40458000165303F11C031B6807F5165202F12C02136072E271E200BF448AFF1F1C87FF1FA64907F5165303F11C031A6813465B0013449B000B441B685A1EA04807F51653CB
:4045C00003F11C0319680B465B000B449B000344043319689A481346DB0013445B0013440B4450F82330002B25D0944907F5165303F11C031A6813465B0013449B000B449D
:404600001B685A1C8D4807F5165303F11C0319680B465B000B449B0003440433196888481346DB0013445B0013440B4450F82330002B40F0B181814907F5165303F11C0358
:404640001A6813465B0013449B000B440833196807F5165303F11C031B685A1C774813465B0013449B00034408331B68994200F05E81724907F5165303F11C031A68134674
:404680005B0013449B000B4408331B68042B0FD107F5165303F11C031B685A1C674913465B0013449B000B4408331B68032B1ED0624907F5165303F11C031A6813465B0048
:4046C00013449B000B4408331B68022B43D107F5165303F11C031B685A1C584913465B0013449B000B4408331B68012B33D107F5165303F12A031B88524A4C21D15407F532
:40470000165303F12A031B88013307F5165202F11C021268D1B207F5165202F12C021268D2B28A1AD1B2474AD15407F5165303F12A031B88023307F5165202F12A021380D2
:4047400007F5165303F11C031B6807F5165202F12C021360EAE0394907F5165303F11C031A6813465B0013449B000B4408331B68042B0FD107F5165303F11C031B685A1CCD
:404780002E4913465B0013449B000B4408331B68012B1ED0294907F5165303F11C031A6813465B0013449B000B4408331B68022B4AD107F5165303F11C031B685A1C1F4975
:4047C00013465B0013449B000B4408331B68032B3AD107F5165303F12A031B88194A5221D15407F5165303F12A031B88013307F5165202F11C021268D1B207F5165202F183
:404800002C021268D2B28A1AD1B20E4AD15407F5165303F12A031B88023307F5165202F12A02138007F5165303F11C031B6807F5165202F12C02136078E000BF448AFF1F3E
:404840007C81FF1F1C87FF1FA74907F5165303F11C031A6813465B0013449B000B4408331B68042B0FD107F5165303F11C031B685A1C9D4913465B0013449B000B44083329
:404880001B68022B1ED0984907F5165303F11C031A6813465B0013449B000B4408331B68022B78D107F5165303F11C031B685A1C8D4913465B0013449B000B4408331B685C
:4048C000042B68D107F5165303F12A031B88874A5521D15407F5165303F12A031B88013307F5165202F11C021268D1B207F5165202F12C021268D2B28A1AD1B27B4AD15458
:4049000007F5165303F12A031B88023307F5165202F12A02138007F5165303F11C031B6807F5165202F12C02136034E033E007F5165303F12A031B886C4A5321D15407F575
:40494000165303F12A031B88013307F5165202F11C021268D1B207F5165202F12C021268D2B28A1AD1B2614AD15407F5165303F12A031B88023307F5165202F12A02138076
:4049800007F5165303F11C031B6807F5165202F12C02136071E070E0534907F5165303F11C031A6813465B0013449B000B4408331B68042B0FD107F5165303F11C031B6810
:4049C0005A1C494913465B0013449B000B4408331B68022B1ED0444907F5165303F11C031A6813465B0013449B000B4408331B68022B42D107F5165303F11C031B685A1CF6
:404A0000394913465B0013449B000B4408331B68042B32D107F5165303F12A031B88334A5521D15407F5165303F12A031B88013307F5165202F11C021268D1B207F516529B
:404A400002F12C021268D2B28A1AD1B2274AD15407F5165303F12A031B88023307F5165202F12A02138007F5165303F11C031B6807F5165202F12C02136007F5165303F19A
:404A800024031B68013307F5165202F12402136007F5165303F11C031B68013307F5165202F11C02136007F5165303F11C031A6807F5165303F114031B689A42FEF6E0A8CC
:404AC00007F5165303F12A031B88084A0021D15407F5165303F12A031B88184607F516573437BD4690BD00BF448AFF1F1C87FF1F80B400AFFEE700BF80B584B000AF786067
:404B00000F4B1A687B6813441A460E4BD31A802B09DC0B4B1B68FB60094B1A687B681344074A136007E004F00FFE02460C2313604FF0FF33FB60FB6818461037BD4680BD3B
:404B40002886FF1FD8B1FF1F80B586B000AF224B7B61224B3B61204B7B6135E03B691B68FB603B695B68BB603B699B683B6000237B600CE0FB681A68BB681A60BB680433EE
:404B8000BB60FB680433FB607B6804337B607A683B689A42EED13B69DB683B6000237B6008E0BB6800221A60BB680433BB607B6804337B607A683B689A42F2D13B69103334
:404BC0003B617B69013B7B617B69002BC6D104F0C1FDFBF7ABFBFEE7010000007CA3000080B582B000AF174B174A1A60174A174B1B6843F40073136000237B600FE07B68A2
:404C0000032B04D8124A7B6852F8233000E0114B11497A6841F822307B6801337B607B682F2BECD90D4B1B78DAB20D4B1A700D4B094A1A6000F098F90B4B00221A60083767
:404C4000BD4680BD0CED00E00004FA0514ED00E000000000F14A00000080FF1FBC7600400481FF1F08ED00E00081FF1F80B582B000AF78603960786800213A6804F09BFD1F
:404C80000837BD4680BD00BF80B584B000AFF860B9607A60F868B9687A6804F081FD1037BD4680BD80B483B000AF0346FB71FEE780B487B000AF7860396000233B610023DA
:404CC0007B6127E07B699B007A6813441B68BB60BB68FB73BB6823F0FF03BB6014E03B695B003A6813441B781A46BB68134419463B695B003A6813445B780B703B690133C1
:404D00003B61FB7B013BFB73FB7B002BE7D17B6901337B617B69292BD4D91C37BD465DF8047B704780B582B000AF444B0F221A80434B1B221A70434B81221A80424B18224D
:404D40001A70424B04221A80414B18221A70414B3B221A80404B18221A70404B3B221A803F4B18221A703F4B00221A803E4B1B221A703E4B01221A803D4B1B221A703D4BB7
:404D800041F287321A803C4B1B221A703B4B06221A703B4B52221A703A4B3B4A1278D2B21A703A4B40F619121A80394B41F251221A800023FB7019237B6014E0FB785B0016
:404DC000DAB2344B1B78DBB203F00103DBB21343DBB203F00303FB704FF4F07002F030F97B68013B7B607B68002B02D0FB78032BE4D17B68002B02D10320FFF753FF264B12
:404E00004FF480721A80244B07221A70234B00221A70234B48221A701F4B00221A70214B00221A70204B02221A70204B1B781F4BFF221A700837BD4680BD00BF804000406D
:404E4000824000408440004086400040884000408A4000408C4000408E40004090400040924000409440004096400040984000409A4000409C4000409E40004000430040BF
:404E800000420040A14600400F0100492242004020420040254200400440004006400040084000400940004001400040A243004080B582B000AF204B1B78FB711F4B1B78C5
:404EC000BB711F4B1B787B711E4AFB7903F00703DBB213701C4AFB791B09DBB21370174ABB7943F00303DBB21370154A7B7943F00303DBB21370154B08221A70144B402257
:404F00001A70144B40221A70134B80221A70134B20221A70124B80221A700A2002F0ACF8074A7B791370054ABB7913700D4B44221A700837BD4680BDCF010049F846004073
:404F4000F94600406E5800406F5800400D510040095900400B590040285B00402B5B0040585B00407658004080B586B000AF72B64F4B61221A70FFF7D5FE4D4B01221A7040
:404F80000023FB7513E0FA7D13465B0013445B00484A13443B613B691A683B699B889BB210461946FFF762FEFB7D0133FB75FB7D072BE8D90023FB751CE0FA7D13469B0043
:404FC00013445B003C4A1344FB60FB681B68BB60FB685B687B60FB681A7A5B7A1B0213437B807B88B86879681A46FFF74DFEFB7D0133FB75FB7D022BDFD94FF090402F49E6
:40500000FFF756FE2E4A2E4B1B78DBB243F00203DBB213702B4A2B4B1B78DBB243F00203DBB21370284A284B1B78DBB243F04003DBB21370254A254B1B78DBB243F01003AA
:40504000DBB21370224823490822FFF71DFE224822490A22FFF718FE214822490A22FFF713FE214821490822FFF70EFE204821490822FFF709FE204820490822FFF704FE10
:405080001F4B44221A701F4B84221A701E4A1E4B1B78DBB243F00803DBB21370FFF708FF1A4809490E22FFF7EFFD1837BD4680BD0048004018A1000048A10000A800004851
:4050C0000350014013500140A0430040C24300400251004010100048C051004018100048F0510040241000481251004030100048225100403810004832510040401000488E
:40510000DB000140DB16014022430040B043004080B582B000AF03460A46FB711346BB71084B1B78002B04D100F00EF8054B01221A70FA79BB791046194600F0D5F8083778
:40514000BD4680BDC8AFFF1F80B582B000AF01F07FFF0346FB71534A524B1B78DBB243F00103DBB21370504A4F4B1B78DBB243F00103DBB213704D4B01221A704C4B0222E4
:405180001A704C4A4B4B1B78DBB203F07F03DBB21370002001F070FF474A474B1B78DBB223F00603DBB21370444A444B1B78DBB223F02003DBB213703F4A3F4B1B78DBB2EF
:4051C00043F00103DBB21370012001F055FF282001F052FF3A4A3A4B1B78DBB203F07F03DBB21370364A364B1B78DBB223F04003DBB21370304A304B1B78DBB243F00203F6
:40520000DBB21370022001F037FF2B4A2A4B1B78DBB243F00403DBB213702A4B00221A70294B00221A70FB79184601F015FF1720072101F05BFF1720244901F02FFF182004
:40524000072101F053FF1820214901F027FF1520072101F04BFF15201E4901F01FFF0120072101F043FF01201B4901F017FF0220072101F03BFF0220184901F00FFF0320A5
:40528000072101F033FF0320154901F007FF0C20072101F02BFF0C20124901F0FFFE0837BD4680BDA5430040B54300409D6000400960004010600040944300401260004009
:4052C000F8510040846000408560004025600000F558000019600000155F0000695F0000BD5F00003160000080B582B000AF03460A46FB711346BB712E4AFB7913702E4B20
:4053000000221A702D4B00221A702D4B00221A702C4B00221A702C4B00221A702B4B00221A702B4B00221A702A4B4FF400021A60284B4FF080721A60264B4FF400121A605D
:40534000244B02221A60234B04221A60214B08221A60BB79002B02D0012B09D011E01E4A1D4B1B78DBB223F00103DBB2137011E0194A194B1B78DBB243F00103DBB21370A5
:4053800008E0154A144B1B78DBB243F00103DBB2137000BF114B03221A70114B80221A70012001F04DFE0F4B04221A700837BD4680BD00BF15B1FF1F18B1FF1F34B1FF1F1B
:4053C00037B1FF1F2CB1FF1F36B1FF1F39B1FF1F14B1FF1F00E100E00960004028600040086000401260004080B400AF0F4B00221A700F4B00221A700E4B00221A700E4BE3
:4054000000221A700D4B00221A700D4B00221A700C4B00221A700C4B03221A700B4B80221A70BD465DF8047B704700BF18B1FF1F34B1FF1F37B1FF1F2CB1FF1F36B1FF1FF0
:4054400039B1FF1F14B1FF1F286000400860004080B400AF034B1B78DBB21846BD465DF8047B704737B1FF1F80B483B000AF0346FB71FA79064913465B0013449B000B440C
:405480005B78DBB218460C37BD465DF8047B70473CB1FF1FB0B485B000AF03463960FB711346BB80FB79002B66D0FB79082B63D8B988FA79324813465B0013449B00034456
:4054C000DB889BB2C3F5007399420BD9FA792C4913465B0013449B000B44DB889BB2C3F50073BB80274CF979BB881B0A9BB2D8B2FA79234D13465B0013449B002B44DB78B0
:40550000DBB20343DAB20B0123441A701D4AFB79B988C9B21B0113440A465A703B68002B13D00023FB810CE01748FB79FA8939680A4412781B01034408331A70FB89013300
:40554000FB81FA89BB889A42EED3FA790C4913465B0013449B000B4400225A700948F979FA79074C13465B0013449B0023445B79DAB20B0103449A701437BD46B0BC7047DF
:405580003CB1FF1FFC5F00407060004090B482B000AF0346FB71FB79002B19D0FB79082B16D8FA790C4913465B0013449B000B4400225A700948F979FA79074C13465B0058
:4055C00013449B0023445B79DAB20B0103449A700837BD4690BC70473CB1FF1FFC5F004080B582B000AF0023FB71324B1B79DBB2184600F069F80346BB712E4B1B78DBB2AA
:40560000DBB25BB2002B16DA2A4B5B78DBB2212B00D00FE0284B07221A80BA791346DB009B1A264A1344244A536000F0DDFA0346FB7100BF38E01F4B5B78DBB2202B02D061
:40564000222B1AD030E01C4B07221A80BA791346DB009B1A194A1344174A5360BB79BA7917498A5CD2B242F00102D1B2144AD15400F03AFB0346FB7116E0BB790D4A9278FE
:40568000D2B291B20F4A22F81310BB79BA790C498A5CD2B242F00202D1B2094AD15400F0BFFB0346FB7100BFFB7918460837BD4680BD00BF0060004020B1FF1F2C86FF1FA9
:4056C000FCB0FF1F10B1FF1F80B485B000AF0346FB710023FB73FF23BB7317E0FB7B104AD35C7B737A7B0F4913465B0013449B000B4408339B78DBB2FA799A4203D1FB7BB9
:40570000BB730223FB73FB7B0133FB73FB7B012BE4D9BB7B18461437BD465DF8047B704704B1FF1F3CB1FF1F80B582B000AF0023BB71224B00221A70214B00221A70204BE5
:4057400000225A700023FB7110E0FB791D4AD35C7B717B79002B06D07B79082B03D87B791846FFF713FFFB790133FB71FB79012BEBD9154B1B78DBB2002B18D0114B1B787D
:40578000DBB2002B13D0114B1B78DBB2002B0ED00D4B1B78DBB2082B09D80A4B1B78DBB2082B04D8094B1B78DBB2082B01D90123BB71BB7918460837BD4680BDC9AFFF1F41
:4057C000FCB0FF1F08B1FF1F00B1FF1F04B1FF1F80B584B000AF78600B467B80144B1B781A46144B9B5CFB73FA7B134913465B0013449B000B4408331B889BB27A889A4245
:405800000CD9FA7B0C4913465B0013449B000B4408331B887B80002001F022FCFA7B7B88104679681A46FFF735FE1037BD4680BDC9AFFF1F00B1FF1F3CB1FF1F80B500AFA9
:40584000054B1B781A46054B9B5CDBB21846FFF70BFE0346184680BDC9AFFF1F00B1FF1F80B485B000AF78600B46FB701346BB707B68DB7803F00303FB737B689B78DBB21B
:405880005BB2002B1ADAFB7B032B0AD0BB7803F001031549FA78CA54BB7843F00103BB701BE0BB789B08DBB203F001030F49FA78CA54BB7843F00403BB700EE0FB7B032B2A
:4058C0000BD0BB785B08DBB203F001030849FA78CA54BB7843F00203BB70BB7818461437BD465DF8047B704700B1FF1F04B1FF1F08B1FF1F80B582B000AF374B1B78BB7102
:40590000BB7903F01003002B63D00123FB71BB795BB2002B13DABB7903F00F03012B02D00023FB711DE000F061F82C4B1B78DBB2DBB25BB2002B14DA0023FB7111E0BB79DC
:4059400003F04003002B02D000F094F809E0BB7903F02003002B02D000F0B2F801E00023FB71FB79002B34D01B4B1B78BB71BB795BB2002B2DDB1A4B1B78DAB2194B1B7887
:40598000DBB21343BB71184ABB791370164B1B78DBB2BA799A421CD1104B1B78FB710E4B1B78DBB223F07F03BB71BB79002B0AD1094B0A4A1278D2B21A70074B1B78DBB2C2
:4059C00003F00F03FB71054B1B78DBB2FA799A42E2D10837BD4680BD2860004035B1FF1FAAB1FF1F38B1FF1F2960004080B582B000AF1D4B1B78FB711B4AFB7913701A4BF2
:405A00001B78FB71FB795BB2002B03DA174AFB79137025E0022000F043FA154B1B78DBB203F06003202B08D0402B0BD0002B0ED100F004FB0346FB710CE002F0FFFD034622
:405A4000FB7107E001F0C0FA0346FB7102E00023FB7100BFFB79002B02D1044B03221A700837BD4680BD00BF2860004035B1FF1F0060004080B500AF104B1B78DBB2062B99
:405A800019D801A252F823F0B75A0000B75A0000A55A0000B75A0000AB5A0000B75A0000B15A000000F0FAF806E000F0A9F903E000F0D2F900E000BF80BD00BF18B1FF1F28
:405AC00080B500AF124B1B78DBB2062B1DD801A252F823F00B5B00000B5B0000F15A00000B5B0000F75A00000B5B0000FD5A000000F0DAF80AE000F029F907E0032000F0DC
:405B0000CFF9044B03221A7000E000BF80BD00BF18B1FF1F35B1FF1F80B483B000AF0023FB71294B1B78DBB29AB2284B1B889BB213449AB2254B1A8015E02549FB79254A3E
:405B400052681278D2B2CA54224B5B680133214A5360FB790133FB711E4B1B889BB2013B9AB21C4B1A801B4B1B889BB2002B02D0FB79072BE1D9144B1B78DBB2082B02D090
:405B8000FB79002B0FD0144B1B78DBB283F07F03DB43DAB2104B1A70104B0F221A70104B02221A7005E00D4B02221A700C4B02221A700C4AFB791370034AFB7913700C3781
:405BC000BD465DF8047B704714B1FF1F16B1FF1F0060004020B1FF1FAAB1FF1F35B1FF1F18B1FF1F38B1FF1F80B582B000AF164B1B889BB2002B02D100F02EF81EE0134B7E
:405C000002221A70124B00221A7000F069F9114BDB79DBB29BB21B029AB20E4B9B79DBB29BB21343FB80084B1B889BB2FA889A4202D2054AFB881380FFF76EFF0123184691
:405C40000837BD4680BD00BF20B1FF1F18B1FF1FAAB1FF1F0060004080B400AF0A4B02221A700A4B80221A70094B0F221A70094B00221A70084B00221A7001231846BD46FD
:405C80005DF8047B704700BF18B1FF1FAAB1FF1F35B1FF1F14B1FF1F38B1FF1F80B500AFFFF73AFF80BD00BF80B500AF0A4B1B78DBB29AB2094B1B889BB213449AB2074B5F
:405CC0001A80074B00221A70012000F0E9F8054B03221A7080BD00BF14B1FF1F16B1FF1F18B1FF1F35B1FF1F80B582B000AF124B04221A70114B80221A7000F0F1F8104B8D
:405D0000DB79DBB29BB21B029AB20D4B9B79DBB29BB21343FB800B4B1B889BB2FA889A4202D2084AFB881380074B0B221A70012318460837BD4680BD18B1FF1FAAB1FF1F6B
:405D40000060004020B1FF1F35B1FF1F80B483B000AF0023BB71234B1B78DBB203F00F03DBB2023BFB71FB799AB21F4B1B889BB213449AB21C4B1A8018E01C4B5B681C491D
:405D8000BA798A5CD2B21A70184B5B680133174A5360BB790133BB71FB79013BFB71134B1B889BB2013B9AB2104B1A800F4B1B889BB2002B02D0FB79002BDED10D4AFB7973
:405DC00013700D4B1B78DBB283F07F03DB43DAB2094B1A70094B0B221A700C37BD465DF8047B70472960004016B1FF1F20B1FF1F0060004038B1FF1FAAB1FF1F35B1FF1F8E
:405E000080B500AF044B00221A70012000F048F8024B03221A7080BD18B1FF1F35B1FF1F80B400AF084B06221A70084B06221A70074B80221A70074B00221A700123184623
:405E4000BD465DF8047B704718B1FF1F35B1FF1FAAB1FF1F38B1FF1F80B500AF0C4B1B78DBB2002B0AD00B4A094B1B78DBB263F07F03DBB21370064B00221A70064B0022AB
:405E80001A70012000F00CF8044B03221A7080BD36B1FF1F0860004018B1FF1F35B1FF1F80B483B000AF0346FB710B4B9B68002B0CD0094B9B68FA791A70074B9B68074A4B
:405EC000128892B25A80044B00229A600C37BD465DF8047B704700BF20B1FF1F16B1FF1F80B400AF094B00221A80094B9B68002B07D0074B9B6800221A70054B9B68002259
:405F00005A80BD465DF8047B704700BF16B1FF1F20B1FF1F80B400AF104A104B1B78DBB223F00103DBB213700D4B9B7C0D4B1B7BDBB203F00303012B08D00A4BDB7BDBB268
:405F400083F07F03DB43DAB2064BDA73054B01225A73BD465DF8047B704700BF0B600040FC5F00403CB1FF1F80B400AF104A104B1B78DBB223F00203DBB213700D4B93F843
:405F800022300D4B1B7EDBB203F00303012B08D0094BDB7EDBB283F07F03DB43DAB2064BDA76054B01225A76BD465DF8047B70470B600040FC5F00403CB1FF1F80B400AF95
:405FC000124A124B1B78DBB223F00403DBB213700F4B93F832300F4B93F82430DBB203F00303012B0AD00B4B93F82730DBB283F07F03DB43DAB2074B83F82720054B0122A7
:4060000083F82520BD465DF8047B70470B600040FC5F00403CB1FF1F80B400AFBD465DF8047B704780B500AFFFF7DEF980BD00BF80B500AF00F0F2FF80BD00BF80B586B077
:4060400000AF0023FB759D4B1B78FB7100233B619B4B00221A80FB795BB2002B80F20481964B5B78DBB20A2B00F2FC8001A252F823F000BFBD6100006562000065620000A4
:40608000656200006562000065620000A1600000656200002F6200006562000045620000864BDB78DBB2012B0ED100F017FEB860BB685B68824A5360814B12221A80FFF7F6
:4060C00093FD0346FB7578E07C4BDB78DBB2022B24D17A4B9B78DBB2184600F0D5FDB860BB68002B69D0BB685B68754A5360744B5B6803331B78DBB29BB21B029AB2704B71
:406100005B6802331B78DBB29BB213439AB26C4B1A80FFF769FD0346FB75A4E0674BDB78DBB2032B44D10023FB73664B3B6109E03B691B78BB71BB793A6913443B61FB7B2F
:406140000133FB735D4B9B78DBB2FA7B9A4204D23B691B78DBB2002BEAD1584B9B78DBB2EE2B01D1584B3B61544B9B78DBB2002B0BD0524B9B78DAB2544B1B7C9A4204D18F
:40618000534800F0A1F9524B3B613B691B78DBB2002B12D03B691B78DBB29AB2484B1A80474A3B695360FFF71FFD0346FB755AE002F044FA0346FB7555E054E0FB7903F0CD
:4061C0000303002B1FD0022B00D02FE03C4B02221A803A4B1B79DBB203F07F023D4913465B0013449B000B449B78DAB23A4B1A70394B00225A70324B374A5A60FFF7F4FCDD
:406200000346FB7512E02E4B02221A80334B1B78DAB2314B1A70304B00225A70284B2E4A5A60FFF7E1FC0346FB7500BF1BE0244B01221A80224B2A4A5A60FFF7D5FC0346B0
:40624000FB7510E01E4B01221A801C4B1B79DBB21A46244B13441A4A5360FFF7C5FC0346FB7500E000BF19E1144B5B78DBB2013B0A2B00F2128101A252F823F0876300002B
:406280009B640000116400009B640000A96200009B6400009B6400009B640000ED6200009B64000043630000044B9B78DAB20E4B1A70FFF7B5FD0346FB75EFE000600040CE
:4062C00020B1FF1FD4A10000DCA200007CA10000B0B1FF1F3CB1FF1FCCAFFF1F39B1FF1F37B1FF1FA8B1FF1F36B1FF1F6E4B9B787B717B79002B06D07B79013BDBB218462A
:4063000000F0C2FCB8607B79002B02D0BB68002B02D17B79002B13D1644B1B78DBB27A799A4208D0614A7B791370614B01221A70012000F0C1F9FFF773FD0346FB75ADE01A
:40634000ACE000F009FE0346002B1BD0564B1B793B71554B1B79DAB2564B1A703B79564AD35CDAB23B795549CB5CDBB29A4204D04F4B01221A7000F069FBFFF751FD034682
:40638000FB758BE08AE0FB7903F00303012B22D0012B0DD3022B00D039E0434B9B78DBB2002B04D100F040FD0346FB752FE02EE03D4B9B78DBB2012B0CD1414B1B78DBB2DD
:4063C00023F00203DAB23E4B1A70FFF729FD0346FB751CE01BE0344B1B79DBB2012B15D8314B9B78DBB2DB43DBB22F4A1279D2B211461046334A125CD2B21340DAB2314B9B
:406400005A54FFF70DFD0346FB75FFE700BF45E0FB7903F00303012B22D0012B0DD3022B00D039E0204B9B78DBB2002B04D100F08DFC0346FB752FE02EE01B4B9B78DBB21E
:40644000012B0CD11E4B1B78DBB243F00203DAB21B4B1A70FFF7E4FC0346FB751CE01BE0114B1B79DBB2012B15D80F4B9B78DBB2DB43DBB20C4A1279D2B211461046114AA8
:40648000125CD2B21340DAB20E4B5A54FFF7C8FC0346FB75FFE700BF00E000BFFB7D18461837BD4680BD00BF0060004037B1FF1F34B1FF1F2CB1FF1F1CB1FF1FA8B1FF1F23
:4064C00039B1FF1FACB1FF1FB0B58AB000AF7860314B07F114041D460FCD0FC42B682370002387F826307B68002B52D07B6822221A707B68013303221A7007F10C0318462B
:4065000000F016FE022387F827303EE097F827307A68134497F8262007F128010A4412F81C2C1209D2B207F128010A4412F8142C1A7097F8273001337A68134400221A70A8
:4065400097F8273002337A68134497F8262007F128010A4412F81C2C02F00F0207F128010A4412F8142C1A7097F8273003337A68134400221A7097F82630013387F82630FC
:4065800097F82730043387F8273097F82730212BBCD92837BD46B0BD68A1000090B482B000AF0123FB7174E03F4AFB791B0113440C221A70FA793D4913465B0013449B0079
:4065C0000B445B79DBB2002B1AD0FA79374913465B0013449B000B441B79DBB2DBB25BB2002B06DA324AFB791B0113440C229A700CE02F4AFB791B01134408229A7005E028
:406600002B4AFB791B01134480229A702648F979FA79264C13465B0013449B002344DB889BB2DAB20B0103449A711F48F979FA791E4C13465B0013449B002344DB889BB273
:406640001B0A9BB2DAB20B010344DA711648F979FA79164C13465B0013449B002344DB889BB2DAB20B0103441A710F48F979FA790E4C13465B0013449B002344DB889BB25F
:406680001B0A9BB2DAB20B0103445A71FB790133FB71FB79082B87D9064BFF221A700837BD4690BC704700BF706000403CB1FF1FFC5F00400A60004080B58AB000AF0346DC
:4066C000FB7100237B84002387F827304CE097F82720C44913465B0013449B000B4400221A7097F82720BF4913465B0013449B000B4400229A7097F82720BA4913465B00D7
:4067000013449B000B440022DA7097F82720B54913465B0013449B000B44083300221A8097F82720AF4913465B0013449B000B44083300229A7097F82720AA4913465B0045
:4067400013449B000B4400225A7097F82720A54913465B0013449B000B4400225A7197F82730013387F8273097F82730082BAED9FB79002B16D0002387F825300EE097F8BD
:406780002530994A0021D15497F82530974A0021D15497F82530013387F8253097F82530012BECD9924B1B78DBB2002B00F049810023FB768E4B1B78DBB2013BDBB21846F9
:4067C00000F062FA78617B695B683B613B6907331B7803F04003002B08D0864B1B78DBB243F00103DAB2834B1A7007E0814B1B78DBB223F00103DAB27E4B1A707B69083393
:406800007B617B691B7887F82730012387F82530B3E07B695B68FB61002387F82630A0E097F82520FB699B7803F07F039A4240F0908097F825206B4913465B0013449B001F
:406840000B4408331B889AB2FB699B889A420CD297F82520FB699888624913465B0013449B000B44083302461A80FB691B781A465D4B9B5CDAB2FB695B789A4269D197F8EB
:406880002520FB699878574913465B0013449B000B4402461A7197F82520FB69D878514913465B0013449B000B4402461A70FB69DB7803F00303FB73FB699B78DBB25BB29F
:4068C000002B1ADA97F82520FB7B012B01D1072000E00D20434913465B0013449B000B4402465A7197F825203E4913465B0013449B000B4401225A7019E097F82520FB7BE9
:40690000012B01D1052000E00920364913465B0013449B000B4402465A7197F82520314913465B0013449B000B4400225A70FB699B790A2B03D0FB699B79022B09D197F8E7
:406940002520FB7EF86911461A46FEF789FF0346FB76FB690833FB6197F82630013387F8263097F8262097F827309A42FFF458AF97F82530013387F8253097F82530082B8D
:406980007FF647AF7B695B68FB61002387F8253016E0FB699B7803F07F02FB691878114913465B0013449B000B44083302469A70FB690833FB6197F82530013387F82530DA
:4069C00097F8252097F827309A42E2D300F098F90246094B1A6000237B84012387F8273029E000BF3CB1FF1FA8B1FF1F1CB1FF1F37B1FF1F39B1FF1F30B1FF1F97F8272081
:406A0000114913465B0013449B000B447A8CDA8097F827200C4913465B0013449B000B4408331B889AB27B8C13447B8497F82730013387F8273097F82730082BDED9FFF74A
:406A4000ADFD2837BD4680BD3CB1FF1F90B585B000AF874B1B78DBB2002B00F00681844B1B78DBB2013BDBB2184600F00DF978607B6808337B607B681B78FB707B685B68A1
:406A8000BB607C4B1B78BB700023FB73E8E0BB681B78BA789A4240F0DD80BB78764AD35CDAB2BB685B789A4240F0D480BB689B7803F07F037B70BB68DB7803F003033B70D8
:406AC0007A786E4913465B0013449B000B440022DA707A78BB689878684913465B0013449B000B4402461A717A78BB68D878634913465B0013449B000B4402461A707A7824
:406B0000BB6898885D4913465B0013449B000B44083302461A80BB689B78DBB25BB2002B18DA7A783B78012B01D1072000E00D20524913465B0013449B000B4402465A71F3
:406B40007A784E4913465B0013449B000B4401225A7017E07A783B78012B01D1052000E00920464913465B0013449B000B4402465A717A78414913465B0013449B000B44DA
:406B800000225A703E4A7B781B01134401229A703B4879787A78394C13465B0013449B00234408331B889BB21B0A9BB2DAB20B0103441A70324879787A78304C13465B0043
:406BC00013449B00234408331B889BB2DAB20B0103445A702B4879787A78284C13465B0013449B002344DB889BB2DAB20B0103449A71244879787A78204C13465B00134431
:406C00009B002344DB889BB21B0A9BB2DAB20B010344DA711B4879787A78184C13465B0013449B002344DB889BB2DAB20B0103441A71144879787A78104C13465B0013448F
:406C40009B002344DB889BB21B0A9BB2DAB20B0103445A71BB680833BB60FB7B0133FB73FA7BFB789A42FFF412AF1437BD4690BD37B1FF1F2CB1FF1FA8B1FF1F3CB1FF1F1F
:406C8000FC5F00407060004080B485B000AF0346FB71104B1B78DBB20F4ADB0013445B68FB60FB681033FB60FB681B78FA799A4202D30023FB6005E0FB79DB00FA681344B2
:406CC0005B68FB60FB6818461437BD465DF8047B704700BF15B1FF1FD4A2000080B400AF054B1B78DBB2054ADB0013445B681846BD465DF8047B704715B1FF1FD4A20000E6
:406D000080B584B000AF104B1B78DBB2013BDBB21846FFF7B9FFB860BB68002B0DD0BB685B681B79FB71FB790233DB00BA681344BB60BB685B68FB6001E00023FB60FB68A7
:406D400018461037BD4680BD37B1FF1F80B582B000AF0023FB71314B1B79DBB203F07F03BB71BB79002B53D0BB79082B50D8BA79B9792B480B465B000B449B0003449B786C
:406D8000DBB243F00103D8B2254913465B0013449B000B4402469A70BA79214913465B0013449B000B440022DA70BA79B9791C480B465B000B449B0003445B78DBB243F099
:406DC0000203D8B2164913465B0013449B000B4402465A70BA79124913465B0013449B000B441B79DBB2DBB25BB2002B06DA0D4ABB791B0113448D229A7005E0094ABB7932
:406E00001B01134489229A70FFF70AF80346FB71FB7918460837BD4680BD00BF006000403CB1FF1FFC5F004080B582B000AF0023FB71464B1B79DBB203F07F03BB71BB79FB
:406E4000002B7DD0BB79082B7AD8BA79B97940480B465B000B449B0003449B78DBB223F00103D8B23A4913465B0013449B000B4402469A70BA79364913465B0013449B00B4
:406E80000B440022DA70334ABB791B0113447F221A70BA79B9792E480B465B000B449B0003445B78DBB223F00203D8B2284913465B0013449B000B4402465A70BA792449F6
:406EC00013465B0013449B000B441B79DBB2DBB25BB2002B18DABA791D4913465B0013449B000B445B78DBB2012B06D1194ABB791B0113440C229A701EE0164ABB791B01E4
:406F000013440D229A7017E0BA79114913465B0013449B000B445B78DBB2012B06D10D4ABB791B01134408229A7005E0094ABB791B01134409229A70FEF772FF0346FB7184
:406F4000FB7918460837BD4680BD00BF006000403CB1FF1FFC5F004080B584B000AF0023FB73154B1B79BB73144B1B78DBB2013BDBB21846FFF788FEB860BB685B681B793C
:406F8000FB71BA7BFB799A4202D9BB7B022B0ED8BB7BBA7B0A498A5CD1B20A4AD154BB7B054A9278D1B2064AD1540123FB73FB7B18461037BD4680BD0060004037B1FF1F02
:406FC000A8B1FF1F1CB1FF1F80B582B000AF0023FB710F4B1B78DBB2DBB25BB2002B12DA0B4B5B78DBB2012B00D00CE0094B0A4A5A60094B1B789AB2064B1A80FEF7F4FD5B
:407000000346FB7100BFFB7918460837BD4680BD0060004020B1FF1FF0A2000080B400AF054B1B78DBB203F040039B09DBB21846BD465DF8047B70478F45004000000000B0
:407040000230800803D000BF01380046FCD17047EFF3108072B6704780F31088704700BF80B483B000AF0346FB7101BE0C37BD465DF8047B704700BF80B582B000AF034676
:40708000FB80FB88044A127802FB03F31846FFF7D7FF0837BD4680BD5086FF1F80B584B000AF03463960FB710F4B1B68FB60FB791F2B02D90020FFF7D3FFFB7903F01F03C2
:4070C00010339B00FA6813441B68BB60FB7903F01F0310339B00FA6813443A681A60BB6818461037BD4680BD08ED00E080B582B000AF03460A46FB711346BB71BB79072B3C
:4071000002D90020FFF7ACFFFB791F2B02D90020FFF7A6FFFB7903F01F0303F1604303F56443BA795201D2B21A700837BD4680BD80B483B000AF7860264B1B78DBB21A46AE
:407140007B681A60244B1B78DBB21B027A6812681A437B681A60214B1B78DBB21B047A6812681A437B681A601D4B1B78DBB21B067A6812681A437B681A607B680433194AF3
:407180001278D2B21A60184B1B78DBB21A027B6804337968043109680A431A60134B1B78DBB21A047B6804337968043109680A431A600F4B1B78DBB21A067B6804337968A7
:4071C000043109680A431A600C37BD465DF8047B704700BF0301004904010049EC460040020100490101004900010049050100490601004980B500AF054B1B78002B04D13E
:4072000000F008F8024B01221A7000F061F880BDD0AFFF1F80B582B000AF284A274B1B78DBB243F00203DBB21370254B1B78DBB223F07003FB71224AFB7943F01003DBB2AA
