:4000000000800020110000001D4100001D41000080B500AF024A034B1B68136004F0AAF8BC760040FA46004010B5054C237833B9044B13B10448AFF300800123237010BDB5
:40004000C086FF1F0000000034990000084B10B51BB108480849AFF300800848036803B910BD074B002BFBD0BDE81040184700BF0000000034990000C486FF1F0881FF1F2D
:4000800000000000B0B586B000AF684B1A88684B1A80684B1A88684B1A8006F0E7FD03461A46624B1A8006F067FE03461A46614B1A805E4B1B889AB25D4B1B889BB2D31A81
:4000C0009BB29AB25D4B1A805A4B1B889AB25A4B1B889BB2D31A9BB29AB2594B1A80534B1B881BB2002BB8BF5B4240F6B83293421BDD544B1B78012B17D0524B1B78022B5C
:4001000013D0514B1B78042B0FD04E4B1B78072B0BD0002006F0BCFD002006F03FFE434B00221A80434B00221A80484B01221A70454B1B78042B2AD1454B1B889AB23F4B1A
:400140001B889BB213449BB29AB2414B1A80404B1B881BB23A4610463E491A4608F0D8FF3B46184607F01CF9394B1B881BB283EAE372A2EBE372384B1B881BB29A4205DBC0
:4001800000F0E0FC304B00221A704CE04BE02E4B1B78052B47D1314B5B881AB2304B1B881BB2D31A184608F0C7F902460B46104619464FF000022B4B08F04EFB02460B46A9
:4001C00014461D46254B9B881AB2274B1B881BB2D31A184608F0B0F902460B46104619464FF000021F4B08F037FB02460B462046294607F075FDC7E904011C4B1B881BB28F
:40020000184608F099F902460B4610461946D7E9042308F073FC0346002B04D000F092FC094B00221A701837BD46B0BDF486FF1FF886FF1FF686FF1FFA86FF1FFC86FF1FA9
:40024000FE86FF1F5D81FF1F1687FF1FF286FF1F0C87FF1F389900000E87FF1F24B0FF1F1287FF1F000010401487FF1F1281FF1F80B500AF264B1B78012B15D106F07CFD8E
:4002800003461A46234B1B881BB2D31A002BB8BF5B42CF2B3BDD00F08BFB1F4B1A781C4B1A7007F029FA32E0194B1B78022B15D106F0DCFC03461A46164B1B881BB2D31AAB
:4002C000002BB8BF5B42CF2B21DD00F071FB124B1A780F4B1A7007F00FFA18E00C4B1B78072B14D106F0C2FC03461A46094B1B881BB2D31A002BB8BF5B42CF2B07DD00F084
:4003000057FB054B1A78024B1A7007F0F5F980BD5D81FF1F0287FF1F5C81FF1F80B500AF054B1B78002B02D0044807F039F8044B00221A7080BD00BF1181FF1F4499000036
:400340005D81FF1F80B500AF054B00221A60054B00221A7007F020FC034807F021F880BD3C8AFF1F0087FF1F5899000080B582B000AF62B606F052FA06F04EFB06F060FC8F
:4003800006F0E4FCB34807F03BF8B34807F01AFA07F0BAF8B14807F01DF9B14807F068FB0020012104F0CAF904F068FB0346002B01D004F0CFFCAB4B1B78002B01D000F071
:4003C0002BFDA94B1B78002B01D000F045FD0023FB8000F061FDA34B1B78012B03D100F05FF900F027FF3B46184600F07FFF9F4B1B78072B00F2FD8001A252F823F000BF2B
:40040000F3050000F3050000F305000021040000F30500005D0400008304000083040000934B1B78012B18D0914B1B78022B14D03B78012B05D1BB78012B02D100F024FB4D
:400440000BE03B79012B05D1BB78012B02D100F037FB02E000F09AFBCBE0CAE0854B1B78012B0DD1844B5A88844B1A80824B9A88834B1A807F4B02221A7000F059FBB8E099
:40048000B7E07B4B1B78012B00F0B280784B1B78022B00F0AD80764B1B78072B00F0A880784B1B881A46784B9B5C7B713B78012B02D1BB78012B05D03B79012B57D1BB7833
:4004C000012B54D1714B1B68002B4FD1FB880133FB80FB88B3F57A7F48D36C4B01221A606B4806F05DFF6B4806F05AFF6A4B01221A707B79532B04D142F2107007F094FB72
:4005000003E049F6404007F08FFB07F035FB7B794C3B092B22D801A252F823F04B0500005D0500005D0500005D0500005D0500005D05000051050000450500005D0500008C
:400540005705000000F016FB09E000F09DFA06E000F0B6FA03E000F0CFFA00E000BF494B1B8801339AB2474B1A8041E040E03B78002B38D17B78002B35D1BB78002B32D15D
:40058000FB78002B2FD13B79002B2CD17B79552B29D13E4B1B68002B24D1FB880133FB80FB8841F2873293421CD93C4806F0F8FE384806F0F5FE384B01221A7049F64040F4
:4005C00007F032FB07F0D8FA0023FB802F4B01221A6000F091FA2B4B1B8801339AB2294B1A8005E004E000F0D1FA0023FB80FFE700BF1F4B1B78072B3FF6EBAE01A252F886
:4006000023F000BF250600002B060000310600003D06000043060000490600004F0600003706000000F0D6F913E000F0F5F910E000F0DEF90DE000F005FA0AE000F0B8F93A
:4006400007E000F041FD04E000F0EEFD01E000F043FDBEE685000000710200001D03000045030000F186FF1F1181FF1F1687FF1F5D81FF1F1087FF1F24B0FF1F1287FF1F37
:400680001487FF1F388AFF1F1887FF1F3C8AFF1F68990000889900000087FF1F9C99000080B489B000AF524B1B78012B40F09A804F4B00221A704F4B5B781B029AB24D4B8E
:4006C0001B789BB213439BB2FB834B4B1B78043B1E2B00F2878001A252F823F059070000E50700006D070000E507000075070000E50700007D070000E5070000850700003F
:40070000E50700008D070000E507000095070000E50700009D070000E5070000A5070000E5070000AD070000E5070000B5070000E5070000BD070000E5070000C5070000D9
:40074000E5070000CD070000E5070000D5070000E5070000DD070000264B1B78DAB2274B1A70244B5A78254B5A703BE0FA8B234B5A8037E0FA8B214B9A8033E0FA8B1F4B0E
:40078000DA802FE0FA8B1D4B1A812BE0FA8B1B4B5A8127E0FA8B194B9A8123E0FA8B174BDA811FE0FA8B154B1A821BE0FA8B134B5A8217E0FA8B114B9A8213E0FA8B0F4B27
:4007C000DA820FE0FA8B0D4B1A830BE0FA8B0B4B5A8307E0FA8B094B9A8303E0FA8B074BDA8300BF2437BD465DF8047B704700BFEA86FF1F20B0FF1F1787FF1FD4B0FF1F5C
:4008000080B582B000AF0346FB71FB79184606F0E5F80837BD4680BD80B582B000AF0346FB71FB79184606F0BBF80837BD4680BD80B584B000AF114B1B78002B0CBF0123E3
:400840000023DBB21A460D4B1A700C4B1B781846FFF7D6FF094B1B781846FFF7DDFF074B1B781A463B461846054908F051FC3B46184606F095FD1037BD4680BDF086FF1F23
:40088000B89900000000000080B586B000AFC7E90201C7E90023D7E900014FF000024FF0000308F021F90346002B10D0304B1B78002B0CBF01230023DBB21846FFF7ACFFC6
:4008C0003B683B607B6883F000437B6004E0284B1B781846FFF7A0FFD7E902014FF000024FF0000308F000F90346002B10D0204B1B78002B0CBF01230023DBB21846FFF7C2
:400900007FFFBB68BB60FB6883F00043FB6004E0174B1B781846FFF773FFD7E9020112A3D3E9002307F098FF02460B461046194608F002F90346FB82D7E900010AA3D3E9D2
:40094000002307F089FF02460B461046194608F0F3F80346BB82074ABB8A1380064AFB8A13801837BD4680BD969526A5A0DBEF3FF086FF1F0887FF1F0A87FF1FAFF300804D
:4009800080B500AF002005F0EBFF024B00221A8080BD00BF0487FF1F80B500AF002006F0DDF8024B00221A8080BD00BF0687FF1F80B500AF4FF000004FF000014FF0000283
:4009C0004FF00003FFF760FFFFF7DAFFFFF7E4FF80BD00BF80B500AF044BD3E90001034BD3E90023FFF750FF80BD00BF6081FF1F80B500AF074BD3E900231046194607F09E
:400A00004FFC02460B464FF000004FF00001FFF73BFF80BD6081FF1F80B500AF084BD3E900231046194607F03BFC02460B46104619464FF000024FF00003FFF725FF80BDC6
:400A40006081FF1FB0B500AF0E4BD3E90023144683F000452046294622462B4607F020FC02460B4614461D46064BD3E900231046194607F015FC02460B4620462946FFF7B1
:400A800003FFB0BD6081FF1F80B500AF06F034FE084B1A78084B1A70064B01221A70FFF76FFF06F069F903461A46044B1A8006F013FE80BD5D81FF1F5C81FF1F0287FF1FCC
:400AC00080B500AF06F018FE084B1A78084B1A70064B02221A70FFF75FFF06F0C7F803461A46044B1A8006F0F7FD80BD5D81FF1F5C81FF1F0287FF1F80B500AF06F0FCFD12
:400B0000084B1A78084B1A70064B07221A70FFF74FFF06F0ABF803461A46044B1A8006F0DBFD80BD5D81FF1F5C81FF1F0287FF1F80B500AFFFF73CFF014B00221A7080BD8D
:400B40005D81FF1F80B400AF034B03221A70BD465DF8047B704700BF5D81FF1F80B400AF034B04221A70BD465DF8047B704700BF5D81FF1F80B400AF034B05221A70BD4641
:400B80005DF8047B704700BF5D81FF1F80B400AF034B06221A70BD465DF8047B704700BF5D81FF1FB0B582B000AF06F0BDFB0346FB71FB79AA2B2BD1224B1B78222B20D197
:400BC000214B224A156854689068D1681D605C609860D960156954699069D1691D615C619861D9611A4B1B78002B0AD105F0F4FF0346DB43DBB2184605F0D0FF144B0122EF
:400C00001A70104B02221A70124B00221A7016E00C4B1B7803F001030F49FA79CA54094B1B7803F00103DBB2002B02D0094B01221A70044B1B780133DAB2024B1A70083737
:400C4000BD46B0BD1787FF1F24B0FF1FD4B0FF1F1087FF1FEA86FF1F20B0FF1F80B5A6B000AF06F061FB034687F8973097F89730613B192B00F2B68001A252F823F000BF4B
:400C8000E90C0000E50D0000E50D00000D0D0000E50D0000190D0000E50D0000E50D0000E50D0000E50D0000E50D0000E50D0000E50D0000E50D0000E50D0000E50D0000B5
:400CC000490D0000A30D0000010D0000250D0000310D0000E50D0000F50C0000B90D0000E50D00003D0D0000FFF7CEFE3F4B00221A7077E0FFF71CFF3C4B00221A7071E097
:400D0000FFF796FD394B00221A706BE0FFF7D8FE364B00221A7065E0FFF714FF334B00221A705FE0314B01221A70FFF717FF59E0FFF720FF2D4B02221A7053E02B4B032288
:400D40001A70FFF723FF4DE0284B04221A70284B00221A80274B1B881BB2184607F0CEFF0246254B1B681046194608F01BF80346184608F067F903469AB2204B1A801F4B50
:400D80001B881BB207F1840210461D491A4608F0BFF907F18403184606F002FBFFF7C8FE20E0124B05221A7000F036F8154B00221A70FFF7C7FE15E00C4B06221A70124B9F
:400DC0001B68124A136001F0A1FD3B1D18461049104A08F09DF93B1D184606F0E1FAFFF7D5FE00BF9837BD4680BD00BF1687FF1F0C87FF1F1281FF1F1481FF1F0E87FF1FBB
:400E0000C49900001087FF1F6881FF1FCCB0FF1FD89900001887FF1F80B500AF0B4B00221A7006F0B3F906F053FA094B01221A708120012106F014FD064806F095F906F073
:400E4000EBF9002006F0CCFA80BD00BF1181FF1FF186FF1FA50B000080B500AF0B4B00221A7006F093F906F033FA094B01221A704FF44370012106F0F3FC064806F074F987
:400E800006F0CAF9012006F0ABFA80BDF186FF1F1181FF1F5D0C0000B0B588B000AF824B1B78002B00D1FCE07F4B00221A707F4B1B88FB817E4B1B88BB814FF000027D4B3E
:400EC000C7E906234FF000027A4BC7E90423B7F90E30002B0FD1B7F90C30002B0BD14FF000024FF08043C7E906234FF000024FF08043C7E90423704B1B881AB2B7F90E3002
:400F0000002BB8BF5B42D31ABB60BB6883EAE372A2EBE372BB6892FBF3F3184607F00CFB04460D46BB68002BB8BF5B42184607F003FB02460B461046194606F029FF0246AB
:400F40000B462046294607F05DFB02460B461046194607F0F1FD03467B60584B1B881BB2184607F0E9FA04460D46786807F0E4FA02460B4610461946D7E9062307F042FB9D
:400F800002460B462046294607F08AF902460B461046194607F0D0FD03469AB2474B1A80474B1B881AB2B7F90C30002BB8BF5B42D31ABB60BB6883EAE372A2EBE372BB6858
:400FC00092FBF3F3184607F0B7FA04460D46BB68002BB8BF5B42184607F0AEFA02460B461046194606F0D4FE02460B462046294607F008FB02460B461046194607F09CFD20
:4010000003467B602F4B1B881BB2184607F094FA04460D46786807F08FFA02460B4610461946D7E9042307F0EDFA02460B462046294607F035F902460B461046194607F0D7
:401040007BFD03469AB21F4B1A801E4B1B881BB2002B02DA1B4B00221A80184B1B881BB2002B02DA154B00221A80164B1B881BB2642B02DD134B64221A80104B1B881BB2DF
:40108000642B02DD0D4B64221A800C4B1B88DBB2184605F065FC0B4B1B88DBB2184605F05DFD2037BD46B0BDF286FF1FFC86FF1FFE86FF1F0000F03F0887FF1F0487FF1FB8
:4010C0000A87FF1F0687FF1F80B400AFBD465DF8047B7047000000002DE9B04382B000AF06F0A2FC0346FB7106F0AAFC0346BB7106F08EFC03467B71FB79002B27D0BB7962
:40110000002B24D17B79002B21D1454BD3E900231046194640A3D3E9002307F09DFB02460B4614461D463E4BD3E90023904683F000494046494638A3D3E9002307F08CFB6C
:4011400002460B4620462946FFF79EFB5FE0FB79002B0ED07B79002B0BD0BB79002B08D12F4BD3E900012E4BD3E90023FFF78CFB4DE0BB79002B0ED07B79002B0BD0FB79A0
:40118000002B08D1264BD3E90001254BD3E90023FFF77AFB3BE0BB79002B27D07B79002B24D1FB79002B21D11D4BD3E90023144683F000452046294617A3D3E9002307F06F
:4011C0004BFB02460B4614461D46154BD3E900231046194610A3D3E9002307F03DFB02460B4620462946FFF74FFB10E07B79002B0DD0BB79002B0AD1FB79002B07D1084B00
:40120000D3E90001064BD3E90023FFF73DFB0837BD46BDE8B08300BF9A9999999999F93F6081FF1FAFF3008080B400AFBD465DF8047B704780B584B000AF254B1B78012B12
:4012400042D1234B00221A70224800F075F8224B1B785BB23A46104620491A4607F058FF3B46184600F068F81D4800F065F81A4B5B881BB23A46104618491A4607F048FFB5
:401280003B46184600F058F8164800F055F8124B9B881BB23A46104610491A4607F038FF3B46184600F048F80F4800F045F80A4BDB881BB23A46104608491A4607F028FFAD
:4012C0003B46184600F038F81037BD4680BD00BFEE86FF1FF899000024B0FF1F009A0000089A0000149A0000209A000090B583B000AF786006F080FB03461A467B681A706A
:401300007B685C1C06F090FB034623707B689C1C06F07EFB034623707B68DC1C06F090FB034623707B681C1D06F096FB034623700C37BD4690BD00BF80B584B000AF786016
:40134000154B1B78002B23D00023FB600AE0FB680133FB60FB68114A934203D10E4B00221A7015E003F080FD0346002BEFD07B683F3300221A707B683E3321221A707868FC
:4013800007F0EAFE03469BB27868194603F036FD1037BD4680BD00BF1881FF1FC0C62D00B0B5ADF5745D00AF07F14004343C206007F140003838016007F140013C390A60CF
:4013C0003A461360002307F5735202F13C021360FEE0002307F5735202F138021360E4E007F5735303F13C031B684C2202FB03F207F14003343B1B68134407F5735202F13C
:401400003802126853F8220007F5CA52103A07F5735303F13C0319680B46DB000B445B000B4407F5735101F1380109680B445B011344186007F5CA52103A07F5735303F1A0
:401440003C0319680B46DB000B445B000B4407F5735101F1380109680B445B01134400225A6007F5CA52103A07F5735303F13C0319680B46DB000B445B000B4407F5735190
:4014800001F1380109680B445B01134408330A221A8007F5CA52103A07F5735303F13C0319680B46DB000B445B000B4407F5735101F1380109680B445B011344103307F5F3
:4014C000735202F13C0212681A6007F5CA52103A07F5735303F13C0319680B46DB000B445B000B4407F5735101F1380109680B445B011344083307F5735202F13802126804
:401500005A6007F5CA52103A07F5735303F13C0319680B46DB000B445B000B4407F5735101F1380109680B445B011344103300225A6007F5CA52103A07F5735303F13C0320
:4015400019680B46DB000B445B000B4407F5735101F1380109680B445B01134418334FF6FF721A8007F5CA52103A07F5735303F13C0319680B46DB000B445B000B4407F5D3
:40158000735101F1380109680B445B011344183300225A6007F5735303F138031B68013307F5735202F13802136007F5735303F138031B68122B7FF613AF07F5735303F1FB
:4015C0003C031B68013307F5735202F13C02136007F5735303F13C031B680E2B7FF6F9AE3B461B681A6807F5CA53183B1A603B461B685A6807F5CA53183B5A60002307F54C
:40160000735202F13402136007F14003183B1A464FF4C853104600211A4607F070FD07F14003203B00221A6000225A60002307F5735202F114021360002307F5735202F17D
:4016400030021360002307F5735202F12C021360002307F5735202F11202138007F14003283B00221A6007F14003283B00225A60002307F5735202F12802136007F140036C
:40168000303B00221A6000225A60002307F5735202F126021380012307F5735202F12002136007F5CA53183B196807F5CA53183B586807F5CA52103A0B46DB000B445B00F7
:4016C0000B4403445B011344183300221A8007F5CA53183B196807F5CA53183B5C6807F5CA53183B186807F5CA53183B5D6807F5CA52103A0346DB0003445B0003442B4482
:401700005B01D01807F5CA52103A0B46DB000B445B000B4423445B0113441033586007F5CA53183B196807F5CA53183B5C683E4B186807F5CA52103A0B46DB000B445B006B
:401740000B4423445B01134418335860A8E2012307F5735202F12C02136007F5CA53183B196807F5CA53183B586807F5CA52103A0B46DB000B445B000B4403445B01134460
:4017800001225A6082E1002307F5735202F13002136007F5735303F12C031B68012B11D107F5CA53183B1B685A1E07F14003203B1A6007F5CA53183B5A6807F14003203BBC
:4017C0005A604BE007F5735303F12C031B68022B11D107F5CA53183B1A6807F14003203B1A6007F5CA53183B5B685A1C07F14003203B5A6032E007F5735303F12C031B6820
:40180000032B13D107F5CA53183B1B685A1C07F14003203B1A6007F5CA53183B5A6807F14003203B5A6019E06881FF1F07F5735303F12C031B68042B10D107F5CA53183BBF
:401840001A6807F14003203B1A6007F5CA53183B5B685A1E07F14003203B5A60994B1B6807F5735202F12C0212689A4205D0002307F5735202F13002136007F14003203B59
:401880001B680F2B00F2F78007F14003203B5B68132B00F2F08007F14003203B196807F14003203B586807F5CA52103A0B46DB000B445B000B4403445B0113441B68002B6D
:4018C00040F0D98007F5CA53183B196807F5CA53183B586807F5CA52103A0B46DB000B445B000B4403445B0113441833188807F14003203B196807F14003203B5C6807F56D
:40190000CA52103A0B46DB000B445B000B4423445B01134408331B8803449AB207F5735303F130031B689BB2134407F5735202F11202138007F14003203B196807F14003D4
:40194000203B586807F5CA52103A0B46DB000B445B000B4403445B01134418331B8807F5735202F1120212889A4280F0848007F14003203B196807F14003203B586807F5C2
:40198000CA52103A0B46DB000B445B000B4403445B011344183307F5735202F1120212881A8007F14003203B196807F14003203B5C6807F5CA53183B186807F5CA53183B92
:4019C0005D6807F5CA52103A0346DB0003445B0003442B445B01D01807F5CA52103A0B46DB000B445B000B4423445B0113441033586007F14003203B196807F14003183BBF
:401A000007F5735202F13402126843F8321007F14003203B596807F14002183A07F5735303F134031B68DB001344596007F14003203B196807F14003203B586807F5CA5202
:401A4000103A0B46DB000B445B000B4403445B011344183307F5735202F12C0212685A6007F5735303F134031B68013307F5735202F13402136007F5735303F12C031B6833
:401A8000013307F5735202F12C02136007F5735303F12C031B68042B7FF675AE4FF6FF7307F5735202F126021380002307F5735202F120021360002307F5735202F11C02E7
:401AC0001360ACE06881FF1F07F14003183B07F5735202F11C02126853F8322007F14003303B1A6007F14002183A07F5735303F11C031B68DB0013445A6807F14003303BCB
:401B00005A6007F14003183B07F5735202F11C02126853F8321007F14002183A07F5735303F11C031B68DB001344586807F5CA52103A0B46DB000B445B000B4403445B0184
:401B4000134418331B8807F5735202F1260212889A4259D907F14003183B07F5735202F11C02126853F8321007F14002183A07F5735303F11C031B68DB001344586807F563
:401B8000CA52103A0B46DB000B445B000B4403445B0113445B68002B36D107F14003183B07F5735202F11C02126853F8321007F14002183A07F5735303F11C031B68DB0085
:401BC0001344586807F5CA52103A0B46DB000B445B000B4403445B01134418331B8807F5735202F12602138007F5735303F11C031B6807F5735202F128021360012307F527
:401C0000735202F12002136007F5735303F11C031B68013307F5735202F11C02136007F5735303F11C031A6807F5735303F134031B689A42FFF448AF07F14003183B07F56F
:401C4000735202F12802126853F8322007F5CA53183B1A6007F14002183A07F5735303F128031B68DB0013445A6807F5CA53183B5A6007F5CA53183B196807F5CA53183B22
:401C8000586807F5CA52103A0B46DB000B445B000B4403445B01134418335B68A04A136007F5CA53183B1A6807F5745303F110031B681B689A420CD107F5CA53183B5A68D3
:401CC00007F5745303F110031B6804331B689A4207D007F5735303F120031B68012B3FF436AD002307F5735202F12C02136007F5CA53183B1A6807F5745303F110031B68D9
:401D00001B689A4240F0058107F5CA53183B5A6807F5745303F110031B6804331B689A4240F0F78007F5CA53183B196807F5CA53183B586807F5CA52103A0B46DB000B44E0
:401D40005B000B4403445B01134407F5735202F1180213606AE007F5735303F12C031A6813465B0013449B001A4607F140033C3B1B68134407F5735202F118021268126978
:401D80001A6007F5735303F12C031A6813465B0013449B001A4607F140033C3B1B68134407F5735202F118021268D2685A6007F5735303F12C031A6813465B0013449B0067
:401DC0001A4607F140033C3B1B68981807F5735303F118031B68196907F5735303F118031B68DC6807F5CA52103A0B46DB000B445B000B4423445B01134418335B6883609E
:401E000007F5735303F118031B685B6907F5735202F11802136007F5735303F12C031B68013307F5735202F12C02136007F5735303F118031B681A693B461B681B689A421E
:401E400089D107F5735303F118031B68DA683B461B6804331B689A427FF47DAF07F5735303F12C031A6813465B0013449B001A4607F140033C3B1B68134407F5735202F18C
:401E80001802126812691A6007F5735303F12C031A6813465B0013449B001A4607F140033C3B1B68134407F5735202F118021268D2685A6007F5735303F12C031A681346A4
:401EC0005B0013449B001A4607F140033C3B1B68981807F5735303F118031B68196907F5735303F118031B68DC6807F5CA52103A0B46DB000B445B000B4423445B01134441
:401F000018335B68836007F5735303F12C031B6800E00023184607F57457BD46B0BD00BF6881FF1FB0B5ADF5745D00AF07F14004343C206007F140003838016007F14001F5
:401F40003C390A603A461360002307F5735202F13C021360FDE0002307F5735202F138021360E3E007F5735303F13C031B684C2202FB03F207F14003343B1B68134407F58B
:401F8000735202F13802126853F8220007F5CA52103A07F5735303F13C0319680B46DB000B445B000B4407F5735101F1380109680B445B011344186007F5CA52103A07F517
:401FC000735303F13C0319680B46DB000B445B000B4407F5735101F1380109680B445B01134400225A6007F5CA52103A07F5735303F13C0319680B46DB000B445B000B440B
:4020000007F5735101F1380109680B445B01134408330A221A8007F5CA52103A07F5735303F13C0319680B46DB000B445B000B4407F5735101F1380109680B445B011344E6
:40204000103307F5735202F13C0212681A6007F5CA52103A07F5735303F13C0319680B46DB000B445B000B4407F5735101F1380109680B445B011344083307F5735202F1ED
:40208000380212685A6007F5CA52103A07F5735303F13C0319680B46DB000B445B000B4407F5735101F1380109680B445B011344103300225A6007F5CA52103A07F5735314
:4020C00003F13C0319680B46DB000B445B000B4407F5735101F1380109680B445B011344183300221A8007F5CA52103A07F5735303F13C0319680B46DB000B445B000B44A5
:4021000007F5735101F1380109680B445B011344183300225A6007F5735303F138031B68013307F5735202F13802136007F5735303F138031B68122B7FF614AF07F5735366
:4021400003F13C031B68013307F5735202F13C02136007F5735303F13C031B680E2B7FF6FAAE3B461B681A6807F5CA53183B1A603B461B685A6807F5CA53183B5A600023C7
:4021800007F5735202F13402136007F14003183B1A464FF4C853104600211A4606F0AFFF07F14003203B00221A6000225A60002307F5735202F114021360002307F57352A9
:4021C00002F130021360002307F5735202F12C021360002307F5735202F11202138007F14003283B00221A6007F14003283B00225A60002307F5735202F12802136007F131
:402200004003303B00221A6000225A60002307F5735202F124021360012307F5735202F12002136007F5CA53183B196807F5CA53183B586807F5CA52103A0B46DB000B44A5
:402240005B000B4403445B011344183300221A8007F5CA53183B196807F5CA53183B5C6807F5CA53183B186807F5CA53183B5D6807F5CA52103A0346DB0003445B0003440A
:402280002B445B01D01807F5CA52103A0B46DB000B445B000B4423445B0113441033586007F5CA53183B196807F5CA53183B586807F5CA52103A0B46DB000B445B000B442F
:4022C00003445B011344183307F5745202F1140212685A60002307F5735202F11C02136002E3012307F5735202F12C02136007F5CA53183B196807F5CA53183B586807F5BF
:40230000CA52103A0B46DB000B445B000B4403445B01134401225A6083E1002307F5735202F13002136007F5735303F12C031B68012B11D107F5CA53183B1B685A1E07F186
:402340004003203B1A6007F5CA53183B5A6807F14003203B5A6049E007F5735303F12C031B68022B11D107F5CA53183B1A6807F14003203B1A6007F5CA53183B5B685A1C84
:4023800007F14003203B5A6030E007F5735303F12C031B68032B11D107F5CA53183B1B685A1C07F14003203B1A6007F5CA53183B5A6807F14003203B5A6017E007F5735399
:4023C00003F12C031B68042B10D107F5CA53183B1A6807F14003203B1A6007F5CA53183B5B685A1E07F14003203B5A6007F5735303F12C031A6807F5745303F114031B687A
:402400009A4205D0002307F5735202F13002136007F14003203B1B680F2B00F2F78007F14003203B5B68132B00F2F08007F14003203B196807F14003203B586807F5CA5235
:40244000103A0B46DB000B445B000B4403445B0113441B68002B40F0D98007F5CA53183B196807F5CA53183B586807F5CA52103A0B46DB000B445B000B4403445B01134422
:402480001833188807F14003203B196807F14003203B5C6807F5CA52103A0B46DB000B445B000B4423445B01134408331B8803449AB207F5735303F130031B689BB213449E
:4024C00007F5735202F11202138007F14003203B196807F14003203B586807F5CA52103A0B46DB000B445B000B4403445B01134418331B8807F5735202F1120212889A4267
:4025000040F2848007F14003203B196807F14003203B586807F5CA52103A0B46DB000B445B000B4403445B011344183307F5735202F1120212881A8007F14003203B196819
:4025400007F14003203B5C6807F5CA53183B186807F5CA53183B5D6807F5CA52103A0346DB0003445B0003442B445B01D01807F5CA52103A0B46DB000B445B000B442344D4
:402580005B0113441033586007F14003203B196807F14003183B07F5735202F13402126843F8321007F14003203B596807F14002183A07F5735303F134031B68DB00134462
:4025C000596007F14003203B196807F14003203B586807F5CA52103A0B46DB000B445B000B4403445B011344183307F5735202F12C0212685A6007F5735303F134031B6863
:40260000013307F5735202F13402136007F5735303F12C031B68013307F5735202F12C02136007F5735303F12C031B68042B7FF674AE002307F5735202F124021360002357
:4026400007F5735202F120021360002307F5735202F118021360ABE007F14003183B07F5735202F11802126853F8322007F14003303B1A6007F14002183A07F5735303F14D
:4026800018031B68DB0013445A6807F14003303B5A6007F14003183B07F5735202F11802126853F8321007F14002183A07F5735303F118031B68DB001344586807F5CA52DB
:4026C000103A0B46DB000B445B000B4403445B01134418331B881A4607F5735303F124031B689A4259D907F14003183B07F5735202F11802126853F8321007F14002183AC6
:4027000007F5735303F118031B68DB001344586807F5CA52103A0B46DB000B445B000B4403445B0113445B68002B36D107F14003183B07F5735202F11802126853F832107A
:4027400007F14002183A07F5735303F118031B68DB001344586807F5CA52103A0B46DB000B445B000B4403445B01134418331B8807F5735202F12402136007F5735303F115
:4027800018031B6807F5735202F128021360012307F5735202F12002136007F5735303F118031B68013307F5735202F11802136007F5735303F118031A6807F5735303F1EB
:4027C00034031B689A42FFF447AF07F14003183B07F5735202F12802126853F8322007F5CA53183B1A6007F14002183A07F5735303F128031B68DB0013445A6807F5CA53F4
:40280000183B5A6007F5CA53183B196807F5CA53183B586807F5CA52103A0B46DB000B445B000B4403445B01134418335B6807F5745202F11402136007F5735303F11C03D0
:402840001A6813465B0013449B001A4607F140033C3B1B681A4407F5CA53183B1B68136007F5735303F11C031A6813465B0013449B001A4607F140033C3B1B681A4407F5EF
:40288000CA53183B5B68536007F5735303F11C031A6813465B0013449B001A4607F140033C3B1B68981807F5CA53183B196807F5CA53183B5C6807F5CA52103A0B46DB0045
:4028C0000B445B000B4423445B01134418335B68836007F5735303F11C031B68013307F5735202F11C02136007F5735303F120031B68012B3FF4F5AC07F5735303F11C03D2
:402900001B68184607F57457BD46B0BD90B5ADF5165D8DB002AFC64B1B68C64A00920193C548C649C64AC74BFFF7FCFA034607F5165202F118021360002307F5165202F19C
:4029400026021380002307F5165202F12002136001F0C4BB07F5165303F120031B685A1CB74913465B0013449B000B441968B44807F5165303F120031A6813465B0013442D
:402980009B0003441B68013399421DD107F5165303F120031B685A1CA94913465B0013449B000B4404331968A54807F5165303F120031A6813465B0013449B000344043392
:4029C0001B68994200F0C68707F5165303F120031B685A1C9A4913465B0013449B000B441968974807F5165303F120031A6813465B0013449B0003441B68013B99421DD11C
:402A000007F5165303F120031B685A1C8C4913465B0013449B000B4404331968884807F5165303F120031A6813465B0013449B00034404331B68994200F08C8707F51653E7
:402A400003F120031B685A1C7D4913465B0013449B000B4404331968794807F5165303F120031A6813465B0013449B00034404331B68013B99421BD107F5165303F12003EE
:402A80001B685A1C6E4913465B0013449B000B4419686B4807F5165303F120031A6813465B0013449B0003441B68994200F0528707F5165303F120031B685A1C60491346B4
:402AC0005B0013449B000B44043319685C4807F5165303F120031A6813465B0013449B00034404331B68013399421BD107F5165303F120031B685A1C514913465B00134424
:402B00009B000B4419684E4807F5165303F120031A6813465B0013449B0003441B68994200F0188707F12803243B1A464FF41653104600211A4606F0E2FA414907F5165396
:402B400003F120031A6813465B0013449B000B441B6807F5165202F10C021360384907F5165303F120031A6813465B0013449B000B4404331B6807F5165202F11002136062
:402B800007F5165303F120031B685A1C2C4913465B0013449B000B441B6807F5165202F10402136007F5165303F120031B685A1C234913465B0013449B000B4404331B6853
:402BC00007F5165202F1080213601D4907F5165303F120031A6813465B0013449B000B4408331B68124A136007F12803243B07F5165404F10C0407F5165202F1040200923F
:402C00000D480E491A462346FEF7CAFB034607F5165202F11402136007F5165303F114031B6807F5165202F11C02136000F07FBE6881FF1F7481FF1F7C81FF1FF085FF1F6C
:402C4000408AFF1F6C81FF1F07F12802243A07F5165303F11C0319680B465B000B449B00134408331B68012B11D007F12802243A07F5165303F11C0319680B465B000B44BC
:402C80009B00134408331B68032B40F0238307F12802243A07F5165303F11C0319680B465B000B449B001344196807F12802243A07F5165303F11C03186803465B00034416
:402CC0009B00134404331B685A1ECE480B46DB000B445B000B44134450F82330002B29D007F12802243A07F5165303F11C0319680B465B000B449B001344196807F1280256
:402D0000243A07F5165303F11C03186803465B0003449B00134404331B685A1CB9480B46DB000B445B000B44134450F82330002B40F0278207F12802243A07F5165303F13B
:402D40001C0319680B465B000B449B0013440833186807F5165303F11C031B68591E07F12802243A0B465B000B449B00134408331B68984200F0F08107F12802243A07F5B7
:402D8000165303F11C0319680B465B000B449B00134408331B68012B11D107F5165303F11C031B68591E07F12802243A0B465B000B449B00134408331B68042B6BD007F15E
:402DC0002802243A07F5165303F11C0319680B465B000B449B00134408331B68032B11D107F5165303F11C031B68591E07F12802243A0B465B000B449B00134408331B68FA
:402E0000022B48D007F12802243A07F5165303F11C0319680B465B000B449B00134408331B68012B0FD107F5165303F120031B685A1C754913465B0013449B000B440833BA
:402E40001B68042B20D007F12802243A07F5165303F11C0319680B465B000B449B00134408331B68032B2AD107F5165303F120031B685A1C644913465B0013449B000B444C
:402E800008331B68022B1AD107F5165303F11C031B68012B13D107F5165303F126031B885A4A4C21D15407F5165303F126031B88013307F5165202F1260213804BE107F147
:402EC0002802243A07F5165303F11C0319680B465B000B449B00134408331B68012B11D107F5165303F11C031B68591E07F12802243A0B465B000B449B00134408331B68FB
:402F0000022B6BD007F12802243A07F5165303F11C0319680B465B000B449B00134408331B68032B11D107F5165303F11C031B68591E07F12802243A0B465B000B449B006D
:402F4000134408331B68042B48D007F12802243A07F5165303F11C0319680B465B000B449B00134408331B68012B0FD107F5165303F120031B685A1C234913465B001344D9
:402F80009B000B4408331B68022B20D007F12802243A07F5165303F11C0319680B465B000B449B00134408331B68032B30D107F5165303F120031B685A1C134913465B0074
:402FC00013449B000B4408331B68042B20D107F5165303F11C031B68012B19D107F5165303F126031B88094A5221D15407F5165303F126031B88013307F5165202F12602B9
:403000001380A8E07C81FF1F408AFF1F1887FF1F07F12802243A07F5165303F11C0319680B465B000B449B00134408331B68012B11D107F5165303F11C031B68591E07F119
:403040002802243A0B465B000B449B00134408331B68032B6BD007F12802243A07F5165303F11C0319680B465B000B449B00134408331B68032B11D107F5165303F11C0308
:403080001B68591E07F12802243A0B465B000B449B00134408331B68012B48D007F12802243A07F5165303F11C0319680B465B000B449B00134408331B68012B0FD107F57B
:4030C000165303F120031B685A1C804913465B0013449B000B4408331B68032B20D007F12802243A07F5165303F11C0319680B465B000B449B00134408331B68032B3FD15B
:4031000007F5165303F120031B685A1C6F4913465B0013449B000B4408331B68012B2FD107F5165303F11C031B68012B28D107F5165303F126031B88654A5521D15407F5F8
:40314000165303F126031B88013307F5165202F12602138014E013E007F5165303F126031B885B4A5321D15407F5165303F126031B88013307F5165202F126021380A3E0A8
:40318000A2E007F12802243A07F5165303F11C0319680B465B000B449B00134408331B68012B11D107F5165303F11C031B68591E07F12802243A0B465B000B449B0013447C
:4031C00008331B68032B6BD007F12802243A07F5165303F11C0319680B465B000B449B00134408331B68032B11D107F5165303F11C031B68591E07F12802243A0B465B00D6
:403200000B449B00134408331B68012B48D007F12802243A07F5165303F11C0319680B465B000B449B00134408331B68012B0FD107F5165303F120031B685A1C23491346E1
:403240005B0013449B000B4408331B68032B20D007F12802243A07F5165303F11C0319680B465B000B449B00134408331B68032B2AD107F5165303F120031B685A1C1349B8
:4032800013465B0013449B000B4408331B68012B1AD107F5165303F11C031B68012B13D107F5165303F126031B88094A5521D15407F5165303F126031B88013307F5165269
:4032C00002F12602138027E326E300BF408AFF1F1887FF1F07F12802243A07F5165303F11C0319680B465B000B449B0013441B68591E07F12802243A07F5165303F11C0351
:40330000186803465B0003449B00134404331A68CE480B46DB000B445B000B44134450F82330002B29D007F12802243A07F5165303F11C0319680B465B000B449B001344C0
:403340001B68591C07F12802243A07F5165303F11C03186803465B0003449B00134404331A68BA480B46DB000B445B000B44134450F82330002B40F02D8207F12802243AA4
:4033800007F5165303F11C0319680B465B000B449B0013440833186807F5165303F11C031B68591E07F12802243A0B465B000B449B00134408331B68984200F0F18107F19B
:4033C0002802243A07F5165303F11C0319680B465B000B449B00134408331B68042B11D107F5165303F11C031B68591E07F12802243A0B465B000B449B00134408331B68F3
:40340000032B6BD007F12802243A07F5165303F11C0319680B465B000B449B00134408331B68022B11D107F5165303F11C031B68591E07F12802243A0B465B000B449B0068
:40344000134408331B68012B48D007F12802243A07F5165303F11C0319680B465B000B449B00134408331B68042B0FD107F5165303F120031B685A1C754913465B00134482
:403480009B000B4408331B68032B20D007F12802243A07F5165303F11C0319680B465B000B449B00134408331B68022B2AD107F5165303F120031B685A1C654913465B0023
:4034C00013449B000B4408331B68012B1AD107F5165303F11C031B68012B13D107F5165303F126031B885B4A4C21D15407F5165303F126031B88013307F5165202F1260277
:4035000013804CE107F12802243A07F5165303F11C0319680B465B000B449B00134408331B68042B11D107F5165303F11C031B68591E07F12802243A0B465B000B449B000E
:40354000134408331B68012B6BD007F12802243A07F5165303F11C0319680B465B000B449B00134408331B68022B11D107F5165303F11C031B68591E07F12802243A0B4659
:403580005B000B449B00134408331B68032B48D007F12802243A07F5165303F11C0319680B465B000B449B00134408331B68042B0FD107F5165303F120031B685A1C244956
:4035C00013465B0013449B000B4408331B68012B20D007F12802243A07F5165303F11C0319680B465B000B449B00134408331B68022B31D107F5165303F120031B685A1C34
:40360000134913465B0013449B000B4408331B68032B21D107F5165303F11C031B68012B1AD107F5165303F126031B88094A5221D15407F5165303F126031B88013307F5E4
:40364000165202F126021380A9E000BF7C81FF1F408AFF1F1887FF1F07F12802243A07F5165303F11C0319680B465B000B449B00134408331B68042B11D107F5165303F19E
:403680001C031B68591E07F12802243A0B465B000B449B00134408331B68022B6BD007F12802243A07F5165303F11C0319680B465B000B449B00134408331B68022B11D12B
:4036C00007F5165303F11C031B68591E07F12802243A0B465B000B449B00134408331B68042B48D007F12802243A07F5165303F11C0319680B465B000B449B001344083345
:403700001B68042B0FD107F5165303F120031B685A1C2E4913465B0013449B000B4408331B68022B20D007F12802243A07F5165303F11C0319680B465B000B449B001344D5
:4037400008331B68022B3FD107F5165303F120031B685A1C1D4913465B0013449B000B4408331B68042B2FD107F5165303F11C031B68012B28D107F5165303F126031B884C
:40378000134A5521D15407F5165303F126031B88013307F5165202F12602138014E013E007F5165303F126031B88094A5321D15407F5165303F126031B88013307F51652F1
:4037C00002F126021380A7E0A6E000BF408AFF1F1887FF1F07F12802243A07F5165303F11C0319680B465B000B449B00134408331B68042B11D107F5165303F11C031B687A
:40380000591E07F12802243A0B465B000B449B00134408331B68022B6BD007F12802243A07F5165303F11C0319680B465B000B449B00134408331B68022B11D107F51653E6
:4038400003F11C031B68591E07F12802243A0B465B000B449B00134408331B68042B48D007F12802243A07F5165303F11C0319680B465B000B449B00134408331B68042B76
:403880000FD107F5165303F120031B685A1CC74913465B0013449B000B4408331B68022B20D007F12802243A07F5165303F11C0319680B465B000B449B00134408331B68AF
:4038C000022B29D107F5165303F120031B685A1CB64913465B0013449B000B4408331B68042B19D107F5165303F11C031B68012B12D107F5165303F126031B88AC4A5521C6
:40390000D15407F5165303F126031B88013307F5165202F12602138007F5165303F11C031B68013B07F5165202F11C02136007F5165303F11C031B68002B3FF785A907F552
:40394000165303F120031B68013307F5165202F120021360954907F5165303F120031A6813465B0013449B000B4408331B68012B0FD08E4907F5165303F120031A6813465C
:403980005B0013449B000B4408331B68032B40F0CE81864907F5165303F120031A6813465B0013449B000B441A68804807F5165303F1200319680B465B000B449B0003441A
:4039C00004331B68591E7B481346DB0013445B0013440B4450F82330002B25D0734907F5165303F120031A6813465B0013449B000B441A686D4807F5165303F120031968A9
:403A00000B465B000B449B00034404331B68591C68481346DB0013445B0013440B4450F82330002B40F03081604907F5165303F120031A6813465B0013449B000B440833C0
:403A4000196807F5165303F120031B685A1C574813465B0013449B00034408331B68994200F0FD80514907F5165303F120031A6813465B0013449B000B4408331B68012B47
:403A80000FD107F5165303F120031B685A1C474913465B0013449B000B4408331B68042B1ED0424907F5165303F120031A6813465B0013449B000B4408331B68032B23D1F3
:403AC00007F5165303F120031B685A1C374913465B0013449B000B4408331B68022B13D107F5165303F126031B88314A4C21D15407F5165303F126031B88013307F516521E
:403B000002F126021380A9E0284907F5165303F120031A6813465B0013449B000B4408331B68012B0FD107F5165303F120031B685A1C1E4913465B0013449B000B44083314
:403B40001B68022B1ED0194907F5165303F120031A6813465B0013449B000B4408331B68032B29D107F5165303F120031B685A1C0E4913465B0013449B000B4408331B68ED
:403B8000042B19D107F5165303F126031B88084A5221D15407F5165303F126031B88013307F5165202F12602138057E0408AFF1F1887FF1F7C81FF1FBA4907F5165303F11F
:403BC00020031A6813465B0013449B000B4408331B68012B0FD107F5165303F120031B685A1CB04913465B0013449B000B4408331B68032B1ED0AB4907F5165303F12003B4
:403C00001A6813465B0013449B000B4408331B68032B38D107F5165303F120031B685A1CA04913465B0013449B000B4408331B68012B28D107F5165303F126031B889A4AD9
:403C40005521D15407F5165303F126031B88013307F5165202F12602138014E013E007F5165303F126031B888F4A5321D15407F5165303F126031B88013307F5165202F110
:403C80002602138052E051E0864907F5165303F120031A6813465B0013449B000B4408331B68012B0FD107F5165303F120031B685A1C7C4913465B0013449B000B440833F0
:403CC0001B68032B1ED0774907F5165303F120031A6813465B0013449B000B4408331B68032B23D107F5165303F120031B685A1C6C4913465B0013449B000B4408331B68B5
:403D0000012B13D107F5165303F126031B88664A5521D15407F5165303F126031B88013307F5165202F126021380CCE1CBE15D4907F5165303F120031A6813465B00134490
:403D40009B000B441B685A1E564807F5165303F1200319680B465B000B449B0003440433196852481346DB0013445B0013440B4450F82330002B25D04A4907F5165303F161
:403D800020031A6813465B0013449B000B441B685A1C444807F5165303F1200319680B465B000B449B000344043319683F481346DB0013445B0013440B4450F82330002B79
:403DC00040F03081374907F5165303F120031A6813465B0013449B000B440833196807F5165303F120031B685A1C2E4813465B0013449B00034408331B68994200F0FD80D5
:403E0000284907F5165303F120031A6813465B0013449B000B4408331B68042B0FD107F5165303F120031B685A1C1E4913465B0013449B000B4408331B68032B1ED0194944
:403E400007F5165303F120031A6813465B0013449B000B4408331B68022B29D107F5165303F120031B685A1C0E4913465B0013449B000B4408331B68012B19D107F5165370
:403E800003F126031B88084A4C21D15407F5165303F126031B88013307F5165202F126021380A9E0408AFF1F1887FF1F7C81FF1F984907F5165303F120031A6813465B0017
:403EC00013449B000B4408331B68042B0FD107F5165303F120031B685A1C8E4913465B0013449B000B4408331B68012B1ED0894907F5165303F120031A6813465B001344C0
:403F00009B000B4408331B68022B23D107F5165303F120031B685A1C7E4913465B0013449B000B4408331B68032B13D107F5165303F126031B88784A5221D15407F51653D3
:403F400003F126031B88013307F5165202F12602138051E06F4907F5165303F120031A6813465B0013449B000B4408331B68042B0FD107F5165303F120031B685A1C65496F
:403F800013465B0013449B000B4408331B68022B1ED0604907F5165303F120031A6813465B0013449B000B4408331B68022B38D107F5165303F120031B685A1C5549134637
:403FC0005B0013449B000B4408331B68042B28D107F5165303F126031B884F4A5521D15407F5165303F126031B88013307F5165202F12602138014E013E007F5165303F13B
:4040000026031B88444A5321D15407F5165303F126031B88013307F5165202F12602138051E050E03B4907F5165303F120031A6813465B0013449B000B4408331B68042B5D
:404040000FD107F5165303F120031B685A1C314913465B0013449B000B4408331B68022B1ED02C4907F5165303F120031A6813465B0013449B000B4408331B68022B22D15D
:4040800007F5165303F120031B685A1C214913465B0013449B000B4408331B68042B12D107F5165303F126031B881B4A5521D15407F5165303F126031B88013307F516527A
:4040C00002F12602138007F5165303F120031B68013307F5165202F12002136007F5165303F120031A6807F5165303F118031B689A42FEF62FAC07F5165303F126031B882E
:40410000054A0021D1540023184607F516572C37BD4690BD408AFF1F1887FF1F80B400AFFEE700BF80B584B000AF78600F4B1A687B6813441A460E4BD31A802B09DC0B4B8F
:404140001B68FB60094B1A687B681344074A136007E004F09DFF02460C2313604FF0FF33FB60FB6818461037BD4680BD2886FF1FD8B1FF1F80B586B000AF224B7B61224BD5
:404180003B61204B7B6135E03B691B68FB603B695B68BB603B699B683B6000237B600CE0FB681A68BB681A60BB680433BB60FB680433FB607B6804337B607A683B689A4295
:4041C000EED13B69DB683B6000237B6008E0BB6800221A60BB680433BB607B6804337B607A683B689A42F2D13B6910333B617B69013B7B617B69002BC6D104F04FFFFCF7F1
:40420000B5F8FEE701000000989C000080B582B000AF174B174A1A60174A174B1B6843F40073136000237B600FE07B68032B04D8124A7B6852F8233000E0114B11497A68D3
:4042400041F822307B6801337B607B682F2BECD90D4B1B78DAB20D4B1A700D4B094A1A6000F098F90B4B00221A600837BD4680BD0CED00E00004FA0514ED00E00000000092
:404280001D4100000080FF1FBC7600400481FF1F08ED00E00081FF1F80B582B000AF78603960786800213A6804F029FF0837BD4680BD00BF80B584B000AFF860B9607A6092
:4042C000F868B9687A6804F00FFF1037BD4680BD80B483B000AF0346FB71FEE780B487B000AF7860396000233B6100237B6127E07B699B007A6813441B68BB60BB68FB73EB
:40430000BB6823F0FF03BB6014E03B695B003A6813441B781A46BB68134419463B695B003A6813445B780B703B6901333B61FB7B013BFB73FB7B002BE7D17B6901337B614B
:404340007B69292BD4D91C37BD465DF8047B704780B582B000AF444B0F221A80434B1B221A70434B81221A80424B18221A70424B04221A80414B18221A70414B3B221A8076
:40438000404B18221A70404B3B221A803F4B18221A703F4B00221A803E4B1B221A703E4B01221A803D4B1B221A703D4B41F287321A803C4B1B221A703B4B06221A703B4B99
:4043C00052221A703A4B3B4A1278D2B21A703A4B40F619121A80394B41F251221A800023FB7019237B6014E0FB785B00DAB2344B1B78DBB203F00103DBB21343DBB203F0ED
:404400000303FB704FF4F07002F02EF97B68013B7B607B68002B02D0FB78032BE4D17B68002B02D10320FFF753FF264B4FF480721A80244B07221A70234B00221A70234BE9
:4044400048221A701F4B00221A70214B00221A70204B02221A70204B1B781F4BFF221A700837BD4680BD00BF80400040824000408440004086400040884000408A40004092
:404480008C4000408E40004090400040924000409440004096400040984000409A4000409C4000409E4000400043004000420040A14600400F01004922420040204200405F
:4044C000254200400440004006400040084000400940004001400040A243004080B582B000AF204B1B78FB711F4B1B78BB711F4B1B787B711E4AFB7903F00703DBB21370D9
:404500001C4AFB791B09DBB21370174ABB7943F00303DBB21370154A7B7943F00303DBB21370154B08221A70144B40221A70144B40221A70134B80221A70134B20221A7095
:40454000124B80221A700A2002F0AAF8074A7B791370054ABB7913700D4B44221A700837BD4680BDCF010049F8460040F94600406E5800406F5800400D51004009590040FC
:404580000B590040285B00402B5B0040585B00407658004080B586B000AF72B64F4B61221A70FFF7D5FE4D4B01221A700023FB7513E0FA7D13465B0013445B00484A13448A
:4045C0003B613B691A683B699B889BB210461946FFF762FEFB7D0133FB75FB7D072BE8D90023FB751CE0FA7D13469B0013445B003C4A1344FB60FB681B68BB60FB685B6848
:404600007B60FB681A7A5B7A1B0213437B807B88B86879681A46FFF74DFEFB7D0133FB75FB7D022BDFD94FF090402F49FFF756FE2E4A2E4B1B78DBB243F00203DBB213701D
:404640002B4A2B4B1B78DBB243F00203DBB21370284A284B1B78DBB243F04003DBB21370254A254B1B78DBB243F01003DBB21370224823490822FFF71DFE224822490A22F5
:40468000FFF718FE214822490A22FFF713FE214821490822FFF70EFE204821490822FFF709FE204820490822FFF704FE1F4B44221A701F4B84221A701E4A1E4B1B78DBB217
:4046C00043F00803DBB21370FFF708FF1A4809490E22FFF7EFFD1837BD4680BD004800402C9A00005C9A0000A80000480350014013500140A0430040C243004002510040B3
:4047000010100048C051004018100048F051004024100048125100403010004822510040381000483251004040100048DB000140DB16014022430040B043004080B582B0FD
:4047400000AF03460A46FB711346BB71084B1B78002B04D100F00EF8054B01221A70FA79BB791046194600F0D5F80837BD4680BDC4AFFF1F80B582B000AF01F07DFF034632
:40478000FB71534A524B1B78DBB243F00103DBB21370504A4F4B1B78DBB243F00103DBB213704D4B01221A704C4B02221A704C4A4B4B1B78DBB203F07F03DBB213700020D6
:4047C00001F06EFF474A474B1B78DBB223F00603DBB21370444A444B1B78DBB223F02003DBB213703F4A3F4B1B78DBB243F00103DBB21370012001F053FF282001F050FF03
:404800003A4A3A4B1B78DBB203F07F03DBB21370364A364B1B78DBB223F04003DBB21370304A304B1B78DBB243F00203DBB21370022001F035FF2B4A2A4B1B78DBB243F062
:404840000403DBB213702A4B00221A70294B00221A70FB79184601F013FF1720072101F059FF1720244901F02DFF1820072101F051FF1820214901F025FF1520072101F0FC
:4048800049FF15201E4901F01DFF0120072101F041FF01201B4901F015FF0220072101F039FF0220184901F00DFF0320072101F031FF0320154901F005FF0C20072101F0E9
:4048C00029FF0C20124901F0FDFE0837BD4680BDA5430040B54300409D60004009600040106000409443004012600040F8510040846000408560004051560000214F0000F6
:40490000455600004155000095550000E95500005D56000080B582B000AF03460A46FB711346BB712E4AFB7913702E4B00221A702D4B00221A702D4B00221A702C4B002256
:404940001A702C4B00221A702B4B00221A702B4B00221A702A4B4FF400021A60284B4FF080721A60264B4FF400121A60244B02221A60234B04221A60214B08221A60BB7955
:40498000002B02D0012B09D011E01E4A1D4B1B78DBB223F00103DBB2137011E0194A194B1B78DBB243F00103DBB2137008E0154A144B1B78DBB243F00103DBB2137000BF02
:4049C000114B03221A70114B80221A70012001F04BFE0F4B04221A700837BD4680BD00BF11B1FF1F14B1FF1F30B1FF1F33B1FF1F28B1FF1F32B1FF1F35B1FF1F10B1FF1FE2
:404A000000E100E00960004028600040086000401260004080B400AF0F4B00221A700F4B00221A700E4B00221A700E4B00221A700D4B00221A700D4B00221A700C4B002270
:404A40001A700C4B03221A700B4B80221A70BD465DF8047B704700BF14B1FF1F30B1FF1F33B1FF1F28B1FF1F32B1FF1F35B1FF1F10B1FF1F286000400860004080B400AFC5
:404A8000034B1B78DBB21846BD465DF8047B704733B1FF1F80B483B000AF0346FB71FA79064913465B0013449B000B445B78DBB218460C37BD465DF8047B704738B1FF1F82
:404AC000B0B485B000AF03463960FB711346BB80FB79002B66D0FB79082B63D8B988FA79324813465B0013449B000344DB889BB2C3F5007399420BD9FA792C4913465B0084
:404B000013449B000B44DB889BB2C3F50073BB80274CF979BB881B0A9BB2D8B2FA79234D13465B0013449B002B44DB78DBB20343DAB20B0123441A701D4AFB79B988C9B2BC
:404B40001B0113440A465A703B68002B13D00023FB810CE01748FB79FA8939680A4412781B01034408331A70FB890133FB81FA89BB889A42EED3FA790C4913465B0013440B
:404B80009B000B4400225A700948F979FA79074C13465B0013449B0023445B79DAB20B0103449A701437BD46B0BC704738B1FF1FFC5F00407060004090B482B000AF03463B
:404BC000FB71FB79002B19D0FB79082B16D8FA790C4913465B0013449B000B4400225A700948F979FA79074C13465B0013449B0023445B79DAB20B0103449A700837BD46EE
:404C000090BC704738B1FF1FFC5F004080B582B000AF0023FB71324B1B79DBB2184600F069F80346BB712E4B1B78DBB2DBB25BB2002B16DA2A4B5B78DBB2212B00D00FE03A
:404C4000284B07221A80BA791346DB009B1A264A1344244A536000F0DDFA0346FB7100BF38E01F4B5B78DBB2202B02D0222B1AD030E01C4B07221A80BA791346DB009B1A33
:404C8000194A1344174A5360BB79BA7917498A5CD2B242F00102D1B2144AD15400F03AFB0346FB7116E0BB790D4A9278D2B291B20F4A22F81310BB79BA790C498A5CD2B2D2
:404CC00042F00202D1B2094AD15400F0BFFB0346FB7100BFFB7918460837BD4680BD00BF006000401CB1FF1F2C86FF1FF8B0FF1F0CB1FF1F80B485B000AF0346FB71002369
:404D0000FB73FF23BB7317E0FB7B104AD35C7B737A7B0F4913465B0013449B000B4408339B78DBB2FA799A4203D1FB7BBB730223FB73FB7B0133FB73FB7B012BE4D9BB7BAD
:404D400018461437BD465DF8047B704700B1FF1F38B1FF1F80B582B000AF0023BB71224B00221A70214B00221A70204B00225A700023FB7110E0FB791D4AD35C7B717B79D0
:404D8000002B06D07B79082B03D87B791846FFF713FFFB790133FB71FB79012BEBD9154B1B78DBB2002B18D0114B1B78DBB2002B13D0114B1B78DBB2002B0ED00D4B1B7891
:404DC000DBB2082B09D80A4B1B78DBB2082B04D8094B1B78DBB2082B01D90123BB71BB7918460837BD4680BDC5AFFF1FF8B0FF1F04B1FF1FFCB0FF1F00B1FF1F80B584B07F
:404E000000AF78600B467B80144B1B781A46144B9B5CFB73FA7B134913465B0013449B000B4408331B889BB27A889A420CD9FA7B0C4913465B0013449B000B4408331B8838
:404E40007B80002001F020FCFA7B7B88104679681A46FFF735FE1037BD4680BDC5AFFF1FFCB0FF1F38B1FF1F80B500AF054B1B781A46054B9B5CDBB21846FFF70BFE034647
:404E8000184680BDC5AFFF1FFCB0FF1F80B485B000AF78600B46FB701346BB707B68DB7803F00303FB737B689B78DBB25BB2002B1ADAFB7B032B0AD0BB7803F00103154979
:404EC000FA78CA54BB7843F00103BB701BE0BB789B08DBB203F001030F49FA78CA54BB7843F00403BB700EE0FB7B032B0BD0BB785B08DBB203F001030849FA78CA54BB781D
:404F000043F00203BB70BB7818461437BD465DF8047B7047FCB0FF1F00B1FF1F04B1FF1F80B582B000AF374B1B78BB71BB7903F01003002B63D00123FB71BB795BB2002B4D
:404F400013DABB7903F00F03012B02D00023FB711DE000F061F82C4B1B78DBB2DBB25BB2002B14DA0023FB7111E0BB7903F04003002B02D000F094F809E0BB7903F0200358
:404F8000002B02D000F0B2F801E00023FB71FB79002B34D01B4B1B78BB71BB795BB2002B2DDB1A4B1B78DAB2194B1B78DBB21343BB71184ABB791370164B1B78DBB2BA7957
:404FC0009A421CD1104B1B78FB710E4B1B78DBB223F07F03BB71BB79002B0AD1094B0A4A1278D2B21A70074B1B78DBB203F00F03FB71054B1B78DBB2FA799A42E2D1083746
:40500000BD4680BD2860004031B1FF1FA6B1FF1F34B1FF1F2960004080B582B000AF1D4B1B78FB711B4AFB7913701A4B1B78FB71FB795BB2002B03DA174AFB79137025E004
:40504000022000F043FA154B1B78DBB203F06003202B08D0402B0BD0002B0ED100F004FB0346FB710CE002F0FDFD0346FB7107E001F0C0FA0346FB7102E00023FB7100BFF0
:40508000FB79002B02D1044B03221A700837BD4680BD00BF2860004031B1FF1F0060004080B500AF104B1B78DBB2062B19D801A252F823F0E3500000E3500000D1500000D2
:4050C000E3500000D7500000E3500000DD50000000F0FAF806E000F0A9F903E000F0D2F900E000BF80BD00BF14B1FF1F80B500AF124B1B78DBB2062B1DD801A252F823F0F9
:4051000037510000375100001D5100003751000023510000375100002951000000F0DAF80AE000F029F907E0032000F0CFF9044B03221A7000E000BF80BD00BF14B1FF1FF7
:4051400031B1FF1F80B483B000AF0023FB71294B1B78DBB29AB2284B1B889BB213449AB2254B1A8015E02549FB79254A52681278D2B2CA54224B5B680133214A5360FB7978
:405180000133FB711E4B1B889BB2013B9AB21C4B1A801B4B1B889BB2002B02D0FB79072BE1D9144B1B78DBB2082B02D0FB79002B0FD0144B1B78DBB283F07F03DB43DAB29A
:4051C000104B1A70104B0F221A70104B02221A7005E00D4B02221A700C4B02221A700C4AFB791370034AFB7913700C37BD465DF8047B704710B1FF1F12B1FF1F00600040F9
:405200001CB1FF1FA6B1FF1F31B1FF1F14B1FF1F34B1FF1F80B582B000AF164B1B889BB2002B02D100F02EF81EE0134B02221A70124B00221A7000F069F9114BDB79DBB20B
:405240009BB21B029AB20E4B9B79DBB29BB21343FB80084B1B889BB2FA889A4202D2054AFB881380FFF76EFF012318460837BD4680BD00BF1CB1FF1F14B1FF1FA6B1FF1F20
:405280000060004080B400AF0A4B02221A700A4B80221A70094B0F221A70094B00221A70084B00221A7001231846BD465DF8047B704700BF14B1FF1FA6B1FF1F31B1FF1FB2
:4052C00010B1FF1F34B1FF1F80B500AFFFF73AFF80BD00BF80B500AF0A4B1B78DBB29AB2094B1B889BB213449AB2074B1A80074B00221A70012000F0E9F8054B03221A7056
:4053000080BD00BF10B1FF1F12B1FF1F14B1FF1F31B1FF1F80B582B000AF124B04221A70114B80221A7000F0F1F8104BDB79DBB29BB21B029AB20D4B9B79DBB29BB21343BC
:40534000FB800B4B1B889BB2FA889A4202D2084AFB881380074B0B221A70012318460837BD4680BD14B1FF1FA6B1FF1F006000401CB1FF1F31B1FF1F80B483B000AF0023AC
:40538000BB71234B1B78DBB203F00F03DBB2023BFB71FB799AB21F4B1B889BB213449AB21C4B1A8018E01C4B5B681C49BA798A5CD2B21A70184B5B680133174A5360BB79EA
:4053C0000133BB71FB79013BFB71134B1B889BB2013B9AB2104B1A800F4B1B889BB2002B02D0FB79002BDED10D4AFB7913700D4B1B78DBB283F07F03DB43DAB2094B1A708E
:40540000094B0B221A700C37BD465DF8047B70472960004012B1FF1F1CB1FF1F0060004034B1FF1FA6B1FF1F31B1FF1F80B500AF044B00221A70012000F048F8024B032241
:405440001A7080BD14B1FF1F31B1FF1F80B400AF084B06221A70084B06221A70074B80221A70074B00221A7001231846BD465DF8047B704714B1FF1F31B1FF1FA6B1FF1FB1
:4054800034B1FF1F80B500AF0C4B1B78DBB2002B0AD00B4A094B1B78DBB263F07F03DBB21370064B00221A70064B00221A70012000F00CF8044B03221A7080BD32B1FF1F90
:4054C0000860004014B1FF1F31B1FF1F80B483B000AF0346FB710B4B9B68002B0CD0094B9B68FA791A70074B9B68074A128892B25A80044B00229A600C37BD465DF8047BBF
:40550000704700BF1CB1FF1F12B1FF1F80B400AF094B00221A80094B9B68002B07D0074B9B6800221A70054B9B6800225A80BD465DF8047B704700BF12B1FF1F1CB1FF1F74
:4055400080B400AF104A104B1B78DBB223F00103DBB213700D4B9B7C0D4B1B7BDBB203F00303012B08D00A4BDB7BDBB283F07F03DB43DAB2064BDA73054B01225A73BD46AD
:405580005DF8047B704700BF0B600040FC5F004038B1FF1F80B400AF104A104B1B78DBB223F00203DBB213700D4B93F822300D4B1B7EDBB203F00303012B08D0094BDB7E17
:4055C000DBB283F07F03DB43DAB2064BDA76054B01225A76BD465DF8047B70470B600040FC5F004038B1FF1F80B400AF124A124B1B78DBB223F00403DBB213700F4B93F8F5
:4056000032300F4B93F82430DBB203F00303012B0AD00B4B93F82730DBB283F07F03DB43DAB2074B83F82720054B012283F82520BD465DF8047B70470B600040FC5F0040C4
:4056400038B1FF1F80B400AFBD465DF8047B704780B500AFFFF7DEF980BD00BF80B500AF00F0F2FF80BD00BF80B586B000AF0023FB759D4B1B78FB7100233B619B4B0022E9
:405680001A80FB795BB2002B80F20481964B5B78DBB20A2B00F2FC8001A252F823F000BFE95700009158000091580000915800009158000091580000CD5600009158000031
:4056C0005B5800009158000071580000864BDB78DBB2012B0ED100F017FEB860BB685B68824A5360814B12221A80FFF793FD0346FB7578E07C4BDB78DBB2022B24D17A4B48
:405700009B78DBB2184600F0D5FDB860BB68002B69D0BB685B68754A5360744B5B6803331B78DBB29BB21B029AB2704B5B6802331B78DBB29BB213439AB26C4B1A80FFF71B
:4057400069FD0346FB75A4E0674BDB78DBB2032B44D10023FB73664B3B6109E03B691B78BB71BB793A6913443B61FB7B0133FB735D4B9B78DBB2FA7B9A4204D23B691B78FF
:40578000DBB2002BEAD1584B9B78DBB2EE2B01D1584B3B61544B9B78DBB2002B0BD0524B9B78DAB2544B1B7C9A4204D1534800F0A1F9524B3B613B691B78DBB2002B12D072
:4057C0003B691B78DBB29AB2484B1A80474A3B695360FFF71FFD0346FB755AE002F042FA0346FB7555E054E0FB7903F00303002B1FD0022B00D02FE03C4B02221A803A4BD2
:405800001B79DBB203F07F023D4913465B0013449B000B449B78DAB23A4B1A70394B00225A70324B374A5A60FFF7F4FC0346FB7512E02E4B02221A80334B1B78DAB2314BA1
:405840001A70304B00225A70284B2E4A5A60FFF7E1FC0346FB7500BF1BE0244B01221A80224B2A4A5A60FFF7D5FC0346FB7510E01E4B01221A801C4B1B79DBB21A46244B98
:4058800013441A4A5360FFF7C5FC0346FB7500E000BF19E1144B5B78DBB2013B0A2B00F2128101A252F823F0B3590000C75A00003D5A0000C75A0000D5580000C75A000089
:4058C000C75A0000C75A000019590000C75A00006F590000044B9B78DAB20E4B1A70FFF7B5FD0346FB75EFE0006000401CB1FF1FE89A0000F09B0000909A0000ACB1FF1FCD
:4059000038B1FF1FC8AFFF1F35B1FF1F33B1FF1FA4B1FF1F32B1FF1F6E4B9B787B717B79002B06D07B79013BDBB2184600F0C2FCB8607B79002B02D0BB68002B02D17B79BD
:40594000002B13D1644B1B78DBB27A799A4208D0614A7B791370614B01221A70012000F0C1F9FFF773FD0346FB75ADE0ACE000F009FE0346002B1BD0564B1B793B71554B4D
:405980001B79DAB2564B1A703B79564AD35CDAB23B795549CB5CDBB29A4204D04F4B01221A7000F069FBFFF751FD0346FB758BE08AE0FB7903F00303012B22D0012B0DD3D3
:4059C000022B00D039E0434B9B78DBB2002B04D100F040FD0346FB752FE02EE03D4B9B78DBB2012B0CD1414B1B78DBB223F00203DAB23E4B1A70FFF729FD0346FB751CE0FB
:405A00001BE0344B1B79DBB2012B15D8314B9B78DBB2DB43DBB22F4A1279D2B211461046334A125CD2B21340DAB2314B5A54FFF70DFD0346FB75FFE700BF45E0FB7903F054
:405A40000303012B22D0012B0DD3022B00D039E0204B9B78DBB2002B04D100F08DFC0346FB752FE02EE01B4B9B78DBB2012B0CD11E4B1B78DBB243F00203DAB21B4B1A703A
:405A8000FFF7E4FC0346FB751CE01BE0114B1B79DBB2012B15D80F4B9B78DBB2DB43DBB20C4A1279D2B211461046114A125CD2B21340DAB20E4B5A54FFF7C8FC0346FB756D
:405AC000FFE700BF00E000BFFB7D18461837BD4680BD00BF0060004033B1FF1F30B1FF1F28B1FF1F18B1FF1FA4B1FF1F35B1FF1FA8B1FF1FB0B58AB000AF7860314B07F137
:405B000014041D460FCD0FC42B682370002387F826307B68002B52D07B6822221A707B68013303221A7007F10C03184600F014FE022387F827303EE097F827307A681344D7
:405B400097F8262007F128010A4412F81C2C1209D2B207F128010A4412F8142C1A7097F8273001337A68134400221A7097F8273002337A68134497F8262007F128010A4416
:405B800012F81C2C02F00F0207F128010A4412F8142C1A7097F8273003337A68134400221A7097F82630013387F8263097F82730043387F8273097F82730212BBCD9283745
:405BC000BD46B0BD7C9A000090B482B000AF0123FB7174E03F4AFB791B0113440C221A70FA793D4913465B0013449B000B445B79DBB2002B1AD0FA79374913465B0013448C
:405C00009B000B441B79DBB2DBB25BB2002B06DA324AFB791B0113440C229A700CE02F4AFB791B01134408229A7005E02B4AFB791B01134480229A702648F979FA79264CE7
:405C400013465B0013449B002344DB889BB2DAB20B0103449A711F48F979FA791E4C13465B0013449B002344DB889BB21B0A9BB2DAB20B010344DA711648F979FA79164CC9
:405C800013465B0013449B002344DB889BB2DAB20B0103441A710F48F979FA790E4C13465B0013449B002344DB889BB21B0A9BB2DAB20B0103445A71FB790133FB71FB79C6
:405CC000082B87D9064BFF221A700837BD4690BC704700BF7060004038B1FF1FFC5F00400A60004080B58AB000AF0346FB7100237B84002387F827304CE097F82720C449B8
:405D000013465B0013449B000B4400221A7097F82720BF4913465B0013449B000B4400229A7097F82720BA4913465B0013449B000B440022DA7097F82720B54913465B0001
:405D400013449B000B44083300221A8097F82720AF4913465B0013449B000B44083300229A7097F82720AA4913465B0013449B000B4400225A7097F82720A54913465B009F
:405D800013449B000B4400225A7197F82730013387F8273097F82730082BAED9FB79002B16D0002387F825300EE097F82530994A0021D15497F82530974A0021D15497F814
:405DC0002530013387F8253097F82530012BECD9924B1B78DBB2002B00F049810023FB768E4B1B78DBB2013BDBB2184600F062FA78617B695B683B613B6907331B7803F00F
:405E00004003002B08D0864B1B78DBB243F00103DAB2834B1A7007E0814B1B78DBB223F00103DAB27E4B1A707B6908337B617B691B7887F82730012387F82530B3E07B6990
:405E40005B68FB61002387F82630A0E097F82520FB699B7803F07F039A4240F0908097F825206B4913465B0013449B000B4408331B889AB2FB699B889A420CD297F82520F3
:405E8000FB699888624913465B0013449B000B44083302461A80FB691B781A465D4B9B5CDAB2FB695B789A4269D197F82520FB699878574913465B0013449B000B440246AD
:405EC0001A7197F82520FB69D878514913465B0013449B000B4402461A70FB69DB7803F00303FB73FB699B78DBB25BB2002B1ADA97F82520FB7B012B01D1072000E00D2064
:405F0000434913465B0013449B000B4402465A7197F825203E4913465B0013449B000B4401225A7019E097F82520FB7B012B01D1052000E00920364913465B0013449B00FC
:405F40000B4402465A7197F82520314913465B0013449B000B4400225A70FB699B790A2B03D0FB699B79022B09D197F82520FB7EF86911461A46FEF789FF0346FB76FB6991
:405F80000833FB6197F82630013387F8263097F8262097F827309A42FFF458AF97F82530013387F8253097F82530082B7FF647AF7B695B68FB61002387F8253016E0FB6909
:405FC0009B7803F07F02FB691878114913465B0013449B000B44083302469A70FB690833FB6197F82530013387F8253097F8252097F827309A42E2D300F098F90246094BFB
:406000001A6000237B84012387F8273029E000BF38B1FF1FA4B1FF1F18B1FF1F33B1FF1F35B1FF1F2CB1FF1F97F82720114913465B0013449B000B447A8CDA8097F8272045
:406040000C4913465B0013449B000B4408331B889AB27B8C13447B8497F82730013387F8273097F82730082BDED9FFF7ADFD2837BD4680BD38B1FF1F90B585B000AF874B4E
:406080001B78DBB2002B00F00681844B1B78DBB2013BDBB2184600F00DF978607B6808337B607B681B78FB707B685B68BB607C4B1B78BB700023FB73E8E0BB681B78BA78D9
:4060C0009A4240F0DD80BB78764AD35CDAB2BB685B789A4240F0D480BB689B7803F07F037B70BB68DB7803F003033B707A786E4913465B0013449B000B440022DA707A7887
:40610000BB689878684913465B0013449B000B4402461A717A78BB68D878634913465B0013449B000B4402461A707A78BB6898885D4913465B0013449B000B440833024688
:406140001A80BB689B78DBB25BB2002B18DA7A783B78012B01D1072000E00D20524913465B0013449B000B4402465A717A784E4913465B0013449B000B4401225A7017E0BC
:406180007A783B78012B01D1052000E00920464913465B0013449B000B4402465A717A78414913465B0013449B000B4400225A703E4A7B781B01134401229A703B4879788B
:4061C0007A78394C13465B0013449B00234408331B889BB21B0A9BB2DAB20B0103441A70324879787A78304C13465B0013449B00234408331B889BB2DAB20B0103445A705B
:406200002B4879787A78284C13465B0013449B002344DB889BB2DAB20B0103449A71244879787A78204C13465B0013449B002344DB889BB21B0A9BB2DAB20B010344DA71D9
:406240001B4879787A78184C13465B0013449B002344DB889BB2DAB20B0103441A71144879787A78104C13465B0013449B002344DB889BB21B0A9BB2DAB20B0103445A71D9
:40628000BB680833BB60FB7B0133FB73FA7BFB789A42FFF412AF1437BD4690BD33B1FF1F28B1FF1FA4B1FF1F38B1FF1FFC5F00407060004080B485B000AF0346FB71104BF4
:4062C0001B78DBB20F4ADB0013445B68FB60FB681033FB60FB681B78FA799A4202D30023FB6005E0FB79DB00FA6813445B68FB60FB6818461437BD465DF8047B704700BFD8
:4063000011B1FF1FE89B000080B400AF054B1B78DBB2054ADB0013445B681846BD465DF8047B704711B1FF1FE89B000080B584B000AF104B1B78DBB2013BDBB21846FFF764
:40634000B9FFB860BB68002B0DD0BB685B681B79FB71FB790233DB00BA681344BB60BB685B68FB6001E00023FB60FB6818461037BD4680BD33B1FF1F80B582B000AF002301
:40638000FB71314B1B79DBB203F07F03BB71BB79002B53D0BB79082B50D8BA79B9792B480B465B000B449B0003449B78DBB243F00103D8B2254913465B0013449B000B44A9
:4063C00002469A70BA79214913465B0013449B000B440022DA70BA79B9791C480B465B000B449B0003445B78DBB243F00203D8B2164913465B0013449B000B4402465A701F
:40640000BA79124913465B0013449B000B441B79DBB2DBB25BB2002B06DA0D4ABB791B0113448D229A7005E0094ABB791B01134489229A70FFF70AF80346FB71FB79184649
:406440000837BD4680BD00BF0060004038B1FF1FFC5F004080B582B000AF0023FB71464B1B79DBB203F07F03BB71BB79002B7DD0BB79082B7AD8BA79B97940480B465B00A6
:406480000B449B0003449B78DBB223F00103D8B23A4913465B0013449B000B4402469A70BA79364913465B0013449B000B440022DA70334ABB791B0113447F221A70BA790B
:4064C000B9792E480B465B000B449B0003445B78DBB223F00203D8B2284913465B0013449B000B4402465A70BA79244913465B0013449B000B441B79DBB2DBB25BB2002B22
:4065000018DABA791D4913465B0013449B000B445B78DBB2012B06D1194ABB791B0113440C229A701EE0164ABB791B0113440D229A7017E0BA79114913465B0013449B00CE
:406540000B445B78DBB2012B06D10D4ABB791B01134408229A7005E0094ABB791B01134409229A70FEF772FF0346FB71FB7918460837BD4680BD00BF0060004038B1FF1F51
:40658000FC5F004080B584B000AF0023FB73154B1B79BB73144B1B78DBB2013BDBB21846FFF788FEB860BB685B681B79FB71BA7BFB799A4202D9BB7B022B0ED8BB7BBA7B41
:4065C0000A498A5CD1B20A4AD154BB7B054A9278D1B2064AD1540123FB73FB7B18461037BD4680BD0060004033B1FF1FA4B1FF1F18B1FF1F80B582B000AF0023FB710F4BF7
:406600001B78DBB2DBB25BB2002B12DA0B4B5B78DBB2012B00D00CE0094B0A4A5A60094B1B789AB2064B1A80FEF7F4FD0346FB7100BFFB7918460837BD4680BD0060004020
:406640001CB1FF1F049C000080B400AF054B1B78DBB203F040039B09DBB21846BD465DF8047B70478F4500400230800803D000BF01380046FCD17047EFF3108072B6704735
:4066800080F31088704700BF80B483B000AF0346FB7101BE0C37BD465DF8047B704700BF80B582B000AF0346FB80FB88044A127802FB03F31846FFF7D7FF0837BD4680BD6E
:4066C0005086FF1F80B584B000AF03463960FB710F4B1B68FB60FB791F2B02D90020FFF7D3FFFB7903F01F0310339B00FA6813441B68BB60FB7903F01F0310339B00FA6800
:4067000013443A681A60BB6818461037BD4680BD08ED00E080B582B000AF03460A46FB711346BB71BB79072B02D90020FFF7ACFFFB791F2B02D90020FFF7A6FFFB7903F0AC
:406740001F0303F1604303F56443BA795201D2B21A700837BD4680BD80B483B000AF7860264B1B78DBB21A467B681A60244B1B78DBB21B027A6812681A437B681A60214B44
:406780001B78DBB21B047A6812681A437B681A601D4B1B78DBB21B067A6812681A437B681A607B680433194A1278D2B21A60184B1B78DBB21A027B68043379680431096880
:4067C0000A431A60134B1B78DBB21A047B6804337968043109680A431A600F4B1B78DBB21A067B6804337968043109680A431A600C37BD465DF8047B704700BF03010049EF
:4068000004010049EC460040020100490101004900010049050100490601004980B500AF054B1B78002B04D100F008F8024B01221A7000F061F880BDCCAFFF1F80B582B0E1
:4068400000AF284A274B1B78DBB243F00203DBB21370254B1B78DBB223F07003FB71224AFB7943F01003DBB21370204A1F4B1B78DBB223F03003DBB213701C4A1B4B1B78BC
:40688000DBB243F03003DBB21370184A174B1B78DBB223F00F03DBB21370144A134B1B78DBB243F00F03DBB21370642000F048F8002000F055F8002000F062F80C4A0C4B63
:4068C0001B78DBB243F00103DBB21370094A094B1B78DBB243F00103DBB213700837BD4680BD00BF004F0040024F00400B4F0040A3430040014F004080B400AF0D4A0D4BE3
:406900001B78DBB243F00103DBB213700A4A0A4B1B78DBB243F00103DBB21370074A074B1B78DBB243F00103DBB21370BD465DF8047B7047A3430040B3430040004F00405D
:4069400080B483B000AF0346FB71044BFA7992B21A800C37BD465DF8047B7047044F004080B483B000AF0346FB71044BFA7992B21A800C37BD465DF8047B7047064F004077
:4069800080B483B000AF0346FB71044AFB7913700C37BD465DF8047B704700BF034F004080B485B000AF0346FB710B4B1B78DBB223F02003FB730849FB795B01DBB203F01D
:4069C0002003DAB2FB7B1343DBB20B701437BD465DF8047B704700BFF051004080B485B000AF0346FB710B4B1B78DBB223F00203FB730849FB795B00DBB203F00203DAB201
:406A0000FB7B1343DBB20B701437BD465DF8047B704700BF1051004080B500AF054B1B78002B04D100F008F8024B01221A7000F061F880BDCDAFFF1F80B582B000AF284AF0
:406A4000274B1B78DBB243F00203DBB21370254B1B78DBB223F07003FB71224AFB7943F01003DBB21370204A1F4B1B78DBB223F03003DBB213701C4A1B4B1B78DBB243F01B
:406A80003003DBB21370184A174B1B78DBB223F00F03DBB21370144A134B1B78DBB243F00F03DBB21370642000F048F8002000F055F8002000F062F80C4A0C4B1B78DBB201
:406AC00043F00203DBB21370094A094B1B78DBB243F00103DBB213700837BD4680BD00BF0C4F00400E4F0040174F0040A34300400D4F004080B400AF0D4A0D4B1B78DBB2B0
:406B000043F00203DBB213700A4A0A4B1B78DBB243F00203DBB21370074A074B1B78DBB243F00103DBB21370BD465DF8047B7047A3430040B34300400C4F004080B483B006
:406B400000AF0346FB71044BFA7992B21A800C37BD465DF8047B7047104F004080B483B000AF0346FB71044BFA7992B21A800C37BD465DF8047B7047124F004080B483B05D
:406B800000AF0346FB71044AFB7913700C37BD465DF8047B704700BF0F4F004080B485B000AF0346FB710B4B1B78DBB223F00203FB730849FB795B00DBB203F00203DAB204
:406BC000FB7B1343DBB20B701437BD465DF8047B704700BF2051004080B400AF054B1B78DBB203F002035B08DBB21846BD465DF8047B70472151004080B400AFBD465DF864
:406C0000047B704780B582B000AF0F2000F06AF800F058F8FFF730FD0346FB71074A074B1B78DBB243F01003DBB21370FB791846FFF726FD0837BD4680BD00BF97640040F2
:406C400080B500AF00F034F94FF4004000F05CF9054B1B78002B04D1FFF7CEFF024B01221A70FFF7CFFF80BDCEAFFF1F80B582B000AF00F059F90346FB80FB88A3F5004395
:406C80009BB2BB80BB881BB218460837BD4680BD80B584B000AF0346FB80B7F90630002B04DBFB88A3F50043FB8103E0FB88A3F50043FB81FB89184600F026F91037BD46C1
:406CC00080BD00BF80B400AF054B1B78DBB203F00F03DBB21846BD465DF8047B704700BF6764004080B483B000AF0346FB71044AFB7913700C37BD465DF8047B704700BF5D
:406D00008764004080B400AFBD465DF8047B704780B582B000AF0F2000F06AF800F058F8FFF7AAFC0346FB71074A074B1B78DBB243F01003DBB21370FB791846FFF7A0FC12
:406D40000837BD4680BD00BF9064004080B500AF00F084F94FF4004000F0ACF9054B1B78002B04D1FFF7CEFF024B01221A70FFF7CFFF80BDCFAFFF1F80B582B000AF00F0F5
:406D8000A9F90346FB80FB88A3F500439BB2BB80BB881BB218460837BD4680BD80B584B000AF0346FB80B7F90630002B04DBFB88A3F50043FB8103E0FB88A3F50043FB8137
:406DC000FB89184600F076F91037BD4680BD00BF80B400AF054B1B78DBB203F00F03DBB21846BD465DF8047B704700BF6064004080B483B000AF0346FB71044AFB79137068
:406E00000C37BD465DF8047B704700BF8064004080B582B000AF1C4B1B78DBB223F00703FB71194AFB791370174B1B78DBB223F00303FB71144AFB79137000F0B1F84FF4E6
:406E4000004000F08DF84FF4004000F05DF8002000F03EF800F04CF84FF4004000F090F8FFF70AFC0346BB71084A084B1B78DBB243F01003DBB21370BB791846FFF700FC10
:406E80000837BD4680BD00BF756400409765004080B400AF054A054B1B78DBB263F07F03DBB21370BD465DF8047B70477564004080B500AF054B1B78002B04D1FFF7A8FFAD
:406EC000024B01221A70FFF7E3FF80BDD0AFFF1F80B483B000AF0346FB71044AFB7913700C37BD465DF8047B704700BF8765004080B400AF034B1B78DBB21846BD465DF813
:406F0000047B70476765004080B483B000AF0346FB80044AFB8813800C37BD465DF8047B704700BF0C6A004080B400AF044B1B78044B1B889BB21846BD465DF8047B70479B
:406F4000066500408C6A004080B400AF034B1B889BB21846BD465DF8047B70478C6A004080B483B000AF0346FB80044AFB8813800C37BD465DF8047B704700BF4C6A004029
:406F800080B483B000AF0346FB80044AFB8813800C37BD465DF8047B704700BF6C6A004080B500AF01E0FFF7CFFFFFF7A1FF034603F04003002BF6D180BD00BF80B582B0FA
:406FC00000AF1C4B1B78DBB223F00703FB71194AFB791370174B1B78DBB223F00303FB71144AFB79137000F0B1F84FF4004000F08DF84FF4004000F05DF8002000F03EF87D
:4070000000F04CF84FF4004000F090F8FFF734FB0346BB71084A084B1B78DBB243F01003DBB21370BB791846FFF72AFB0837BD4680BD00BF776400409164004080B400AF4E
:40704000054A054B1B78DBB263F07F03DBB21370BD465DF8047B70477764004080B500AF054B1B78002B04D1FFF7A8FF024B01221A70FFF7E3FF80BDD1AFFF1F80B483B04B
:4070800000AF0346FB71044AFB7913700C37BD465DF8047B704700BF8164004080B400AF034B1B78DBB21846BD465DF8047B70476164004080B483B000AF0346FB80044A08
:4070C000FB8813800C37BD465DF8047B704700BF0068004080B400AF044B1B78044B1B889BB21846BD465DF8047B7047006400408068004080B400AF034B1B889BB2184607
:40710000BD465DF8047B70478068004080B483B000AF0346FB80044AFB8813800C37BD465DF8047B704700BF4068004080B483B000AF0346FB80044AFB8813800C37BD465F
:407140005DF8047B704700BF6068004080B500AF01E0FFF7CFFFFFF7A1FF034603F04003002BF6D180BD00BF80B582B000AF786000F046F8786800F013F8072000F022F809
:4071800000F032F80837BD4680BD00BF80B500AF00F036F8014800F003F880BD1D41000080B485B000AF7860054B1B68FB60FB6850337A681A601437BD465DF8047B70476D
:4071C00008ED00E080B483B000AF0346FB71054AFB795B01DBB213700C37BD465DF8047B704700BF04E400E080B400AF034B10221A60BD465DF8047B704700BF00E100E07D
:4072000080B400AF034B10221A60BD465DF8047B704700BF80E100E080B500AF054B1B78002B04D100F008F8024B01221A7000F023F880BDD2AFFF1F80B400AF094B722280
