:400000000080002011000000515900005159000080B500AF024A034B1B68136005F0C4FCBC760040FA46004010B5054C237833B9044B13B10448AFF300800123237010BDFE
:40004000C086FF1F0000000078AE0000084B10B51BB108480849AFF300800848036803B910BD074B002BFBD0BDE81040184700BF0000000078AE0000C486FF1F0881FF1F7B
:4000800000000000B0B500AF564B1A88564B1A80564B1A88564B1A8008F000FA03461A46504B1A8008F080FA03461A464F4B1A804C4B1B889AB24C4B1B889BB2D31A9BB2CA
:4000C0009AB24C4B1A80494B1B889AB2484B1B889BB2D31A9BB29AB2474B1A80414B1B881BB2002BB8BF5B4240F6B832934217DD424B1B78012B13D0404B1B78022B0FD04E
:400100003E4B1B78072B0BD0002008F0D9F9002008F05CFA334B00221A80344B00221A80374B01221A70374B1B78062B58D1334B1B78062B54D1344B1B889AB22D4B1B883B
:400140009BB2D31A9BB29AB22F4B1A802E4B1B881BB2184609F092FC04460D462B4B1B881BB2184609F08AFC02460B46104619464FF00002264B09F033FB02460B46204644
:40018000294609F067FF0346002B02D0214B01221A701D4B1B881BB2184609F06FFC04460D461A4B1B881BB2184609F067FC02460B46104619464FF00002154B09F012FB57
:4001C00002460B462046294609F044FF0346002B03D10E4B1B88002B02D10F4B01221A70B0BD00BFF486FF1FF886FF1FF686FF1FFA86FF1FFC86FF1FFE86FF1F5D81FF1F36
:40020000F286FF1F1887FF1F0C87FF1F0E87FF1F000052401087FF1F1187FF1F80B582B000AF464B1B78012B33D108F0BDF903461A46434B1B881BB2D31A002BB8BF5B421F
:40024000404A82FB03121112DA178A1A4FF4507101FB02F29A1A1346FB80FB88B82B17D9FB88E02B14D8384B9B78012B07D0364B5B78012B03D0344BDB78012B08D100F0AB
:400280006FFD324B1A782D4B1A7008F04DFE51E050E02A4B1B78022B33D108F0FFF803461A46274B1B881BB2D31A002BB8BF5B42244A82FB03121112DA178A1A4FF4507182
:4002C00001FB02F29A1A1346BB80BB88B82B17D9BB88E02B14D81C4B9B78012B07D01A4B5B78012B03D0184BDB78012B08D100F037FD164B1A78114B1A7008F015FE19E006
:4003000018E00E4B1B78072B14D108F0C7F803461A460B4B1B881BB2D31A002BB8BF5B42CF2B07DD00F01CFD084B1A78034B1A7008F0FAFD0837BD4680BD00BF5D81FF1FA3
:400340000287FF1F4FECC44EDCB0FF1F5C81FF1F80B500AF054B1B78002B02D0044808F037FC044B00221A7080BD00BF1181FF1F7CAE00005D81FF1F80B500AF054B002286
:400380001A60054B00221A7009F01EF8034808F01FFC80BD408AFF1F0087FF1F90AE000080B58AB000AF62B607F050FE07F04CFF08F05EF808F0E2F8AA4808F039FCAA4864
:4003C00008F018FE08F0B8FCA84808F01BFDA84808F066FF0020012105F0C6FD05F064FF0346002B01D006F0CBF8A24B1B78002B01D001F0CBF8A04B1B78002B01D001F00B
:40040000E5F80023FB8401F001F99A4B1B78012B03D100F01DFB01F0C5FA984801F01EFB974B1B78072B00F2E08201A252F823F0EB090000EB090000EB090000510400000C
:40044000EB09000095040000BB040000BB0400008C4B1B78012B1CD08A4B1B78022B18D0864B1B78012B06D1844B9B78012B02D100F0F2FC0DE0814B1B79012B06D17F4B32
:400480009B78012B02D100F003FD02E000F066FDABE2AAE27C4B1B78012B0DD17B4B5A887B4B1A80794B9A887A4B1A80764B02221A7000F025FD98E297E2724B1B78012B4B
:4004C00000F092826F4B1B78022B00F08D826D4B1B78072B00F088826F4B1B881A466F4B9B5C87F82330654B1B78002B05D0634B9B78002B01D0012300E00023DAB2684B62
:400500001A705E4B1B79002B05D05C4B9B78002B01D0012300E00023DAB2624B1A70624B1B78012B40F05581604B1B881BB207F1100210465E491A460AF08CF807F11003D7
:40054000184608F045FB594B00221A80524B1B881A46584B1B88033B9A4207DC4E4B1B8803334E4AD35C87F8253002E0002387F8253097F825309BB21A46D20013441B01E6
:400580009BB29AB24C4B1A804C4808F021FB97F82330443B112B00F2E88001A252F823F0310600006B0700006B0700006B0700006B0700006B0700006B0700006B0700007D
:4005C0001B0700006B0700006B0700006B0700006B0700006B07000043070000D10600006B070000E9050000354808F035FF00F06BFC314B1B881BB2184609F03FFA02465A
:400600000B46104619464FF000022E4B09F0E8F802460B461046194609F030FD03469AB2254B1A8008F0C0FE274B01221A709CE0214B1B881BB2184609F020FA02460B46D7
:40064000104619464FF00002204B09F0C9F802460B461046194609F011FD03469AB2164B1A8082E0850000001D0200005103000079030000F186FF1F1181FF1FDCB0FF1FB5
:400680001887FF1F5D81FF1F1287FF1F28B0FF1F1487FF1F1687FF1F3C8AFF1F1C87FF1F06B1FF1F48B0FF1F1187FF1F0C87FF1FA0AE00003E8AFF1F0E87FF1FB4AE000020
:4006C000905F0100000048400087FF1F0000524000F044FC42F2107008F0BEFEB04B1B881BB2184609F0CAF902460B46104619464FF00002AB4B09F073F802460B46104656
:40070000194609F0BBFC03469AB2A54B1A8008F04BFEA54B01221A7027E000F09DFB4CF2503008F099FE9E4B1B889BB28A3B9BB29AB29B4B1A8008F037FE9B4B01221A705A
:4007400013E000F0A5FB964B1B889BB28A3B9BB29AB2934B1A804CF2503008F07DFE08F023FE914B01221A7000BF904B00221A708F4B00221A700023FB848E4B1B8802335D
:400780009AB28C4B1A80864B1B881BB2002B02DA834B00221A80824B1B881BB207F11002104685491A4609F055FF07F11003184608F00EFA7F4B1B881A4607F110031846F3
:4007C0007E4909F047FF07F11003184608F000FA0AE17B4B1B78002B03D097F82330522B09D1784B1B78002B00F0D58097F823304C2B00F0D080744B1B68002B40F0CA80D7
:40080000FB8C0133FB84FB8CB3F5C87FC0F0C2806E4B1B881BB23A4610466D491A4609F019FF3B46184608F0D3F9604B1B78012B40F0B080644B01221A60664808F0C8F9D0
:40084000654808F0C5F9584B01221A705F4B00221A80584B1B881A46604B1B88053B9A4207DC544B1B8803335D4AD35C87F8243002E0002387F8243097F824309BB21A46E3
:40088000D20013441B019BB29AB2454B1A8097F823304C3B092B4AD801A252F823F000BFD70800002F0900002F0900002F0900002F0900002F090000F5080000C9080000ED
:4008C0002F0900001309000000F048FB42F2107008F0C2FD2CE000F0BFFA4CF2503008F0BBFD2F4B1B889BB28A3B9BB29AB22C4B1A801DE000F0CCFA294B1B889BB28A3B2E
:400900009BB29AB2264B1A804CF2503008F0A4FD0EE000F0D9FA334808F09EFD204B1B889BB2783B9BB29AB21D4B1A8000E000BF1B4B1B881BB2002B02DA194B00221A80B8
:40094000174B1B881BB23A4610461B491A4609F081FE3B46184608F03BF908F025FD134B00221A700023FB84114B00221A70114B1B8802339AB20F4B1A800E4B1B881A46EA
:400980003B4618460D4909F065FE3B46184608F01FF929E028E000F0E1FA0023FB8423E00E87FF1F000052400087FF1F1087FF1F1187FF1F3C8AFF1FC4AE0000D8AE000005
:4009C00006B1FF1F48B0FF1F408AFF1F0C87FF1FA0AE0000ECAE000004AF00003E8AFF1F1C87FF1F905F010000BF184B1B78072B3FF609AD01A252F823F000BF1D0A000089
:400A0000230A0000290A0000350A00003B0A0000410A0000470A00002F0A000000F0B2F913E000F0D7F910E000F0BAF90DE000F0EDF90AE000F094F907E000F0FFFE04E03A
:400A400000F0AAFF01E000F0FFFEDCE45D81FF1F80B489B000AF524B1B78012B40F09A804F4B00221A704F4B5B781B029AB24D4B1B789BB213439BB2FB834B4B1B78043B74
:400A80001E2B00F2878001A252F823F0090B0000950B00001D0B0000950B0000250B0000950B00002D0B0000950B0000350B0000950B00003D0B0000950B0000450B0000B8
:400AC000950B00004D0B0000950B0000550B0000950B00005D0B0000950B0000650B0000950B00006D0B0000950B0000750B0000950B00007D0B0000950B0000850B000056
:400B0000950B00008D0B0000264B1B78DAB2274B1A70244B5A78254B5A703BE0FA8B234B5A8037E0FA8B214B9A8033E0FA8B1F4BDA802FE0FA8B1D4B1A812BE0FA8B1B4B83
:400B40005A8127E0FA8B194B9A8123E0FA8B174BDA811FE0FA8B154B1A821BE0FA8B134B5A8217E0FA8B114B9A8213E0FA8B0F4BDA820FE0FA8B0D4B1A830BE0FA8B0B4BBF
:400B80005A8307E0FA8B094B9A8303E0FA8B074BDA8300BF2437BD465DF8047B704700BFEA86FF1F24B0FF1F1987FF1FE4B0FF1F80B582B000AF0346FB71FB79184607F079
:400BC00025FB0837BD4680BD80B582B000AF0346FB71FB79184607F0FBFA0837BD4680BD80B584B000AF114B1B78002B0CBF01230023DBB21A460D4B1A700C4B1B781846F3
:400C0000FFF7D6FF094B1B781846FFF7DDFF074B1B781A463B461846054909F01BFD3B46184607F0D5FF1037BD4680BDF086FF1F18AF00000000000080B586B000AFC7E9F9
:400C40000201C7E90023D7E900014FF000024FF0000309F0EBF90346002B10D0304B1B78002B0CBF01230023DBB21846FFF7ACFF3B683B607B6883F000437B6004E0284B49
:400C80001B781846FFF7A0FFD7E902014FF000024FF0000309F0CAF90346002B10D0204B1B78002B0CBF01230023DBB21846FFF77FFFBB68BB60FB6883F00043FB6004E028
:400CC000174B1B781846FFF773FFD7E9020112A3D3E9002309F062F802460B461046194609F0CCF90346FB82D7E900010AA3D3E9002309F053F802460B461046194609F0E5
:400D0000BDF90346BB82074ABB8A1380064AFB8A13801837BD4680BD969526A5A0DBEF3FF086FF1F0887FF1F0A87FF1FAFF3008080B500AF002007F02BFA024B00221A807D
:400D400080BD00BF0487FF1F80B500AF002007F01DFB024B00221A8080BD00BF0687FF1F80B500AF4FF000004FF000014FF000024FF00003FFF760FFFFF7DAFFFFF7E4FF28
:400D800080BD00BF80B500AF044BD3E90001034BD3E90023FFF750FF80BD00BF6081FF1F80B500AF094BD3E90023104619464FF00002074B08F0C8FE02460B464FF00000E5
:400DC0004FF00001FFF738FF80BD00BF6081FF1F0000F83F80B500AF0A4BD3E90023104619464FF00002084B08F0AEFE02460B46104619464FF000024FF00003FFF71CFF6D
:400E000080BD00BF6081FF1F0000F83FB0B500AF0F4BD3E90023104683F000414FF000020C4B08F091FE02460B4614461D46084BD3E90023104619464FF00002054B08F044
:400E400083FE02460B4620462946FFF7F5FEB0BD6081FF1F0000F83F80B500AF08F064F8084B1A78084B1A70064B01221A70FFF75FFF07F099FB03461A46044B1A8008F096
:400E800043F880BD5D81FF1F5C81FF1F0287FF1F80B500AF08F048F8084B1A78084B1A70064B02221A70FFF74FFF07F0F7FA03461A46044B1A8008F027F880BD5D81FF1F31
:400EC0005C81FF1F0287FF1F80B500AF08F02CF8084B1A78084B1A70064B07221A70FFF73FFF07F0DBFA03461A46044B1A8008F00BF880BD5D81FF1F5C81FF1F0287FF1F22
:400F000080B500AFFFF72CFF014B00221A7080BD5D81FF1F80B400AF034B03221A70BD465DF8047B704700BF5D81FF1F80B400AF034B04221A70BD465DF8047B704700BF24
:400F40005D81FF1F80B400AF034B05221A70BD465DF8047B704700BF5D81FF1F80B400AF034B06221A70BD465DF8047B704700BF5D81FF1FB0B582B000AF07F0EDFD0346AE
:400F8000FB71FB79AA2B2BD1224B1B78222B20D1214B224A156854689068D1681D605C609860D960156954699069D1691D615C619861D9611A4B1B78002B0AD107F024FAA7
:400FC0000346DB43DBB2184607F000FA144B01221A70104B02221A70124B00221A7016E00C4B1B7803F001030F49FA79CA54094B1B7803F00103DBB2002B02D0094B0122F1
:401000001A70044B1B780133DAB2024B1A700837BD46B0BD1987FF1F28B0FF1FE4B0FF1F1287FF1FEA86FF1F24B0FF1F80B588B000AF07F091FD0346FB77FB7F313B492BAB
:4010400000F28D8201A252F823F000BF9D130000411200005F1500005F1500005F1500005F1500005F1500005F1500005F1500005F1500005F1500005F1500005F150000B1
:401080005F1500005F1500005F1500005F1500005F1500005F1500005F1500005F1500005F1500005F1500005F1500005F1500005F1500005F1500005F1500005F150000F0
:4010C0005F1500005F1500005F1500005F1500005F1500005F1500005F1500005F1500005F1500005F1500005F1500005F1500005F1500005F1500005F1500005F150000B0
:401100005F1500005F1500005F150000751100005F1500005F150000991100005F150000A51100005F1500005F1500005F1500005F1500005F1500005F1500005F150000E5
:401140005F1500005F1500005F150000D51100002B1200008D110000B1110000BD1100005F150000811100005F1500005F150000C9110000FFF770FE9C4B00221A70EEE134
:40118000FFF7BEFE994B00221A70E8E1FFF728FD964B00221A70E2E1FFF77AFE934B00221A70DCE1FFF7B6FE904B00221A70D6E18E4B01221A70FFF7B9FED0E1FFF7C2FE82
:4011C0008A4B02221A70CAE1884B03221A70FFF7C5FEC4E1854B04221A70854B00221A80844B1B881BB2184609F02AF80246824B1B681046194609F077F80346184609F0C8
:40120000C3F903469AB27D4B1A807C4B1B881BB23A4610467A491A4609F01CFA3B46184607F0D6FCFFF76CFE99E1704B05221A7000F0ACF9734B00221A70FFF76BFE8EE101
:401240006A4B06221A70704B1B68704A136003F0E9FE03469AB26E4B1A806E4B00221A806D4B00221A80002007F02AF9002007F0ADF96A4B00221A8007F0DAFB26E007F0C0
:401280006BFC0346FB77FB7F462B00D121E0FB7F2F2B1BD9FB7F392B18D8614807F098FCFB7F184607F07AFC5E4807F091FC5B4B1B881A46920013445B009AB2FB7F9BB216
:4012C00013449BB2303B9AB2544B1A80FB7F462BD5D1554807F060FB504B1B881A463B461846524909F0B6F93B46184607F070FC4A4B1B88BB6118E0BB6903F00103002B46
:4013000007D14B4ABB6913441B78184607F046FC08E0474ABB6913441B783033DBB2184607F03CFCBB690133BB61394B1B881A46BB699A42E0DC3B4807F04AFC374B1B88FB
:401340001A463B4B9B5CFB74344B1B880133384AD35C9BB21A46D20013441B019BB29AB2264B1A802D4B1B88002B07D1234B1B889BB2903B9BB29AB2204B1A801F4B1B8892
:401380001BB23A4610462B491A4609F063F93B46184607F01DFCFFF7E1FDE0E0134B06221A70194B1B68194A136001F067FE03469AB2174B1A80194B00221A80002007F0F3
:4013C0007FF8002007F002F9124B00221A80124B00221A8007F02CFB4DE007F0BDFB0346FB77FB7F462B27D148E000BF1887FF1F0C87FF1F1281FF1F1481FF1F0E87FF1F2E
:4014000024AF00001287FF1F6881FF1FD4B0FF1F3E8AFF1FF886FF1FFA86FF1F3C8AFF1F38AF000044AF00002D10000048AF00001C87FF1FC4AE0000FB7F2F2B1BD9FB7FF2
:40144000392B18D8474807F0C3FBFB7F184607F0A5FB454807F0BCFB444B1B881A46920013445B009AB2FB7F9BB213449BB2303B9AB23E4B1A80FB7F462BAED13C4807F0DE
:401480008BFA3C4B1B881A463B4618463A4909F0E1F83B46184607F09BFB344B1B881A463B461846354909F0D5F83B46184607F08FFB2E4B1B887B6118E07B6903F00103AD
:4014C000002B07D12E4A7B6913441B78184607F065FB08E02A4A7B6913441B783033DBB2184607F05BFB7B6901337B61214B1B881A467B699A42E0DC1B4807F069FB1B4B26
:401500001B881A461E4B9B5CFB74184B1B8801331B4AD35C9BB21A46D20013441B019BB29AB2184B1A80114B1B88002B07D1154B1B889BB290339BB29AB2124B1A80114B82
:401540001B881BB23A4610460F491A4609F082F83B46184607F03CFBFFF700FD00BF2037BD4680BD38AF000044AF00003C8AFF1F2D1000003E8AFF1F68AF000048AF0000B5
:401580001C87FF1F0E87FF1FC4AE000080B500AF0B4B00221A7007F011FA07F0B1FA094B01221A708120012107F072FD064807F0F3F907F049FA002007F02AFB80BD00BFEE
:4015C0001181FF1FF186FF1F750F000080B500AF0B4B00221A7007F0F1F907F091FA094B01221A704FF44370012107F051FD064807F0D2F907F028FA012007F009FB80BDF9
:40160000F186FF1F1181FF1F2D100000B0B588B000AF824B1B78002B00D1FCE07F4B00221A707F4B1B88FB817E4B1B88BB814FF000027D4BC7E906234FF000027A4BC7E905
:401640000423B7F90E30002B0FD1B7F90C30002B0BD14FF000024FF08043C7E906234FF000024FF08043C7E90423704B1B881AB2B7F90E30002BB8BF5B42D31ABB60BB689F
:4016800083EAE372A2EBE372BB6892FBF3F3184608F0F4F904460D46BB68002BB8BF5B42184608F0EBF902460B461046194607F049FF02460B462046294608F045FA0246FA
:4016C0000B461046194608F0D9FC03467B60584B1B881BB2184608F0D1F904460D46786808F0CCF902460B4610461946D7E9062308F02AFA02460B462046294608F072F863
:4017000002460B461046194608F0B8FC03469AB2474B1A80474B1B881AB2B7F90C30002BB8BF5B42D31ABB60BB6883EAE372A2EBE372BB6892FBF3F3184608F09FF9044625
:401740000D46BB68002BB8BF5B42184608F096F902460B461046194607F0F4FE02460B462046294608F0F0F902460B461046194608F084FC03467B602F4B1B881BB2184617
:4017800008F07CF904460D46786808F077F902460B4610461946D7E9042308F0D5F902460B462046294608F01DF802460B461046194608F063FC03469AB21F4B1A801E4BBA
:4017C0001B881BB2002B02DA1B4B00221A80184B1B881BB2002B02DA154B00221A80164B1B881BB2642B02DD134B64221A80104B1B881BB2642B02DD0D4B64221A800C4B95
:401800001B88DBB2184606F0C3FC0B4B1B88DBB2184606F0BBFD2037BD46B0BDF286FF1FFC86FF1FFE86FF1F0000F03F0887FF1F0487FF1F0A87FF1F0687FF1F80B400AF72
:40184000BD465DF8047B70472DE9B04382B000AF07F002FD0346FB7107F00AFD0346BB7107F0EEFC03467B71FB79002B27D0BB79002B24D17B79002B21D1454BD3E9002352
:401880001046194640A3D3E9002308F087FA02460B4614461D463E4BD3E90023904683F000494046494638A3D3E9002308F076FA02460B4620462946FFF7BEF95FE0FB79E3
:4018C000002B0ED07B79002B0BD0BB79002B08D12F4BD3E900012E4BD3E90023FFF7ACF94DE0BB79002B0ED07B79002B0BD0FB79002B08D1264BD3E90001254BD3E900232A
:40190000FFF79AF93BE0BB79002B27D07B79002B24D1FB79002B21D11D4BD3E90023144683F000452046294617A3D3E9002308F035FA02460B4614461D46154BD3E9002385
:401940001046194610A3D3E9002308F027FA02460B4620462946FFF76FF910E07B79002B0DD0BB79002B0AD1FB79002B07D1084BD3E90001064BD3E90023FFF75DF90837D3
:40198000BD46BDE8B08300BF9A9999999999F93F6081FF1FAFF3008080B400AFBD465DF8047B704780B584B000AF254B1B78012B42D1234B00221A70224800F075F8224B84
:4019C0001B785BB23A46104620491A4608F042FE3B46184600F068F81D4800F065F81A4B5B881BB23A46104618491A4608F032FE3B46184600F058F8164800F055F8124BA4
:401A00009B881BB23A46104610491A4608F022FE3B46184600F048F80F4800F045F80A4BDB881BB23A46104608491A4608F012FE3B46184600F038F81037BD4680BD00BF23
:401A4000EE86FF1F94AF000028B0FF1F9CAF0000A4AF0000B0AF0000BCAF000090B583B000AF786007F0E0FB03461A467B681A707B685C1C07F0F0FB034623707B689C1C98
:401A800007F0DEFB034623707B68DC1C07F0F0FB034623707B681C1D07F0F6FB034623700C37BD4690BD00BF80B584B000AF7860154B1B78002B23D00023FB600AE0FB68E3
:401AC0000133FB60FB68114A934203D10E4B00221A7015E004F0DEFD0346002BEFD07B683F3300221A707B683E3321221A70786808F0D4FD03469BB27868194604F094FDCF
:401B00001037BD4680BD00BF1881FF1FC0C62D00B0B5ADF5745D00AF07F14004343C206007F140003838016007F140013C390A603A461360002307F5735202F13C021360A6
:401B4000FEE0002307F5735202F138021360E4E007F5735303F13C031B684C2202FB03F207F14003343B1B68134407F5735202F13802126853F8220007F5CA52103A07F5B0
:401B8000735303F13C0319680B46DB000B445B000B4407F5735101F1380109680B445B011344186007F5CA52103A07F5735303F13C0319680B46DB000B445B000B4407F5B7
:401BC000735101F1380109680B445B01134400225A6007F5CA52103A07F5735303F13C0319680B46DB000B445B000B4407F5735101F1380109680B445B01134408330A22E5
:401C00001A8007F5CA52103A07F5735303F13C0319680B46DB000B445B000B4407F5735101F1380109680B445B011344103307F5735202F13C0212681A6007F5CA52103A24
:401C400007F5735303F13C0319680B46DB000B445B000B4407F5735101F1380109680B445B011344083307F5735202F1380212685A6007F5CA52103A07F5735303F13C03B7
:401C800019680B46DB000B445B000B4407F5735101F1380109680B445B011344103300225A6007F5CA52103A07F5735303F13C0319680B46DB000B445B000B4407F5735144
:401CC00001F1380109680B445B01134418334FF6FF721A8007F5CA52103A07F5735303F13C0319680B46DB000B445B000B4407F5735101F1380109680B445B011344183305
:401D000000225A6007F5735303F138031B68013307F5735202F13802136007F5735303F138031B68122B7FF613AF07F5735303F13C031B68013307F5735202F13C021360C5
:401D400007F5735303F13C031B680E2B7FF6F9AE3B461B681A6807F5CA53183B1A603B461B685A6807F5CA53183B5A60002307F5735202F13402136007F14003183B1A46D0
:401D80004FF4C853104600211A4608F05AFC07F14003203B00221A6000225A60002307F5735202F114021360002307F5735202F130021360002307F5735202F12C0213603E
:401DC000002307F5735202F11202138007F14003283B00221A6007F14003283B00225A60002307F5735202F12802136007F14003303B00221A6000225A60002307F573523B
:401E000002F126021380012307F5735202F12002136007F5CA53183B196807F5CA53183B586807F5CA52103A0B46DB000B445B000B4403445B011344183300221A8007F5EA
:401E4000CA53183B196807F5CA53183B5C6807F5CA53183B186807F5CA53183B5D6807F5CA52103A0346DB0003445B0003442B445B01D01807F5CA52103A0B46DB000B4425
:401E80005B000B4423445B0113441033586007F5CA53183B196807F5CA53183B5C683E4B186807F5CA52103A0B46DB000B445B000B4423445B01134418335860A8E20123EB
:401EC00007F5735202F12C02136007F5CA53183B196807F5CA53183B586807F5CA52103A0B46DB000B445B000B4403445B01134401225A6082E1002307F5735202F13002AA
:401F0000136007F5735303F12C031B68012B11D107F5CA53183B1B685A1E07F14003203B1A6007F5CA53183B5A6807F14003203B5A604BE007F5735303F12C031B68022B03
:401F400011D107F5CA53183B1A6807F14003203B1A6007F5CA53183B5B685A1C07F14003203B5A6032E007F5735303F12C031B68032B13D107F5CA53183B1B685A1C07F1A3
:401F80004003203B1A6007F5CA53183B5A6807F14003203B5A6019E06881FF1F07F5735303F12C031B68042B10D107F5CA53183B1A6807F14003203B1A6007F5CA53183BA9
:401FC0005B685A1E07F14003203B5A60994B1B6807F5735202F12C0212689A4205D0002307F5735202F13002136007F14003203B1B680F2B00F2F78007F14003203B5B6851
:40200000132B00F2F08007F14003203B196807F14003203B586807F5CA52103A0B46DB000B445B000B4403445B0113441B68002B40F0D98007F5CA53183B196807F5CA53D5
:40204000183B586807F5CA52103A0B46DB000B445B000B4403445B0113441833188807F14003203B196807F14003203B5C6807F5CA52103A0B46DB000B445B000B44234482
:402080005B01134408331B8803449AB207F5735303F130031B689BB2134407F5735202F11202138007F14003203B196807F14003203B586807F5CA52103A0B46DB000B4447
:4020C0005B000B4403445B01134418331B8807F5735202F1120212889A4280F0848007F14003203B196807F14003203B586807F5CA52103A0B46DB000B445B000B44034461
:402100005B011344183307F5735202F1120212881A8007F14003203B196807F14003203B5C6807F5CA53183B186807F5CA53183B5D6807F5CA52103A0346DB0003445B00EF
:4021400003442B445B01D01807F5CA52103A0B46DB000B445B000B4423445B0113441033586007F14003203B196807F14003183B07F5735202F13402126843F8321007F14B
:402180004003203B596807F14002183A07F5735303F134031B68DB001344596007F14003203B196807F14003203B586807F5CA52103A0B46DB000B445B000B4403445B0142
:4021C0001344183307F5735202F12C0212685A6007F5735303F134031B68013307F5735202F13402136007F5735303F12C031B68013307F5735202F12C02136007F5735373
:4022000003F12C031B68042B7FF675AE4FF6FF7307F5735202F126021380002307F5735202F120021360002307F5735202F11C021360ACE06881FF1F07F14003183B07F51A
:40224000735202F11C02126853F8322007F14003303B1A6007F14002183A07F5735303F11C031B68DB0013445A6807F14003303B5A6007F14003183B07F5735202F11C02B9
:40228000126853F8321007F14002183A07F5735303F11C031B68DB001344586807F5CA52103A0B46DB000B445B000B4403445B01134418331B8807F5735202F1260212885C
:4022C0009A4259D907F14003183B07F5735202F11C02126853F8321007F14002183A07F5735303F11C031B68DB001344586807F5CA52103A0B46DB000B445B000B440344C5
:402300005B0113445B68002B36D107F14003183B07F5735202F11C02126853F8321007F14002183A07F5735303F11C031B68DB001344586807F5CA52103A0B46DB000B44DB
:402340005B000B4403445B01134418331B8807F5735202F12602138007F5735303F11C031B6807F5735202F128021360012307F5735202F12002136007F5735303F11C0371
:402380001B68013307F5735202F11C02136007F5735303F11C031A6807F5735303F134031B689A42FFF448AF07F14003183B07F5735202F12802126853F8322007F5CA53F8
:4023C000183B1A6007F14002183A07F5735303F128031B68DB0013445A6807F5CA53183B5A6007F5CA53183B196807F5CA53183B586807F5CA52103A0B46DB000B445B00B5
:402400000B4403445B01134418335B68A04A136007F5CA53183B1A6807F5745303F110031B681B689A420CD107F5CA53183B5A6807F5745303F110031B6804331B689A4260
:4024400007D007F5735303F120031B68012B3FF436AD002307F5735202F12C02136007F5CA53183B1A6807F5745303F110031B681B689A4240F0058107F5CA53183B5A68F1
:4024800007F5745303F110031B6804331B689A4240F0F78007F5CA53183B196807F5CA53183B586807F5CA52103A0B46DB000B445B000B4403445B01134407F5735202F144
:4024C000180213606AE007F5735303F12C031A6813465B0013449B001A4607F140033C3B1B68134407F5735202F11802126812691A6007F5735303F12C031A6813465B00B4
:4025000013449B001A4607F140033C3B1B68134407F5735202F118021268D2685A6007F5735303F12C031A6813465B0013449B001A4607F140033C3B1B68981807F573536D
:4025400003F118031B68196907F5735303F118031B68DC6807F5CA52103A0B46DB000B445B000B4423445B01134418335B68836007F5735303F118031B685B6907F5735244
:4025800002F11802136007F5735303F12C031B68013307F5735202F12C02136007F5735303F118031B681A693B461B681B689A4289D107F5735303F118031B68DA683B46FF
:4025C0001B6804331B689A427FF47DAF07F5735303F12C031A6813465B0013449B001A4607F140033C3B1B68134407F5735202F11802126812691A6007F5735303F12C0308
:402600001A6813465B0013449B001A4607F140033C3B1B68134407F5735202F118021268D2685A6007F5735303F12C031A6813465B0013449B001A4607F140033C3B1B68A8
:40264000981807F5735303F118031B68196907F5735303F118031B68DC6807F5CA52103A0B46DB000B445B000B4423445B01134418335B68836007F5735303F12C031B6842
:4026800000E00023184607F57457BD46B0BD00BF6881FF1FB0B5ADF5745D00AF07F14004343C206007F140003838016007F140013C390A603A461360002307F5735202F11E
:4026C0003C021360FDE0002307F5735202F138021360E3E007F5735303F13C031B684C2202FB03F207F14003343B1B68134407F5735202F13802126853F8220007F5CA52BC
:40270000103A07F5735303F13C0319680B46DB000B445B000B4407F5735101F1380109680B445B011344186007F5CA52103A07F5735303F13C0319680B46DB000B445B0030
:402740000B4407F5735101F1380109680B445B01134400225A6007F5CA52103A07F5735303F13C0319680B46DB000B445B000B4407F5735101F1380109680B445B01134475
:4027800008330A221A8007F5CA52103A07F5735303F13C0319680B46DB000B445B000B4407F5735101F1380109680B445B011344103307F5735202F13C0212681A6007F598
:4027C000CA52103A07F5735303F13C0319680B46DB000B445B000B4407F5735101F1380109680B445B011344083307F5735202F1380212685A6007F5CA52103A07F57353F9
:4028000003F13C0319680B46DB000B445B000B4407F5735101F1380109680B445B011344103300225A6007F5CA52103A07F5735303F13C0319680B46DB000B445B000B4445
:4028400007F5735101F1380109680B445B011344183300221A8007F5CA52103A07F5735303F13C0319680B46DB000B445B000B4407F5735101F1380109680B445B01134498
:40288000183300225A6007F5735303F138031B68013307F5735202F13802136007F5735303F138031B68122B7FF614AF07F5735303F13C031B68013307F5735202F13C0261
:4028C000136007F5735303F13C031B680E2B7FF6FAAE3B461B681A6807F5CA53183B1A603B461B685A6807F5CA53183B5A60002307F5735202F13402136007F14003183B31
:402900001A464FF4C853104600211A4607F099FE07F14003203B00221A6000225A60002307F5735202F114021360002307F5735202F130021360002307F5735202F12C0285
:402940001360002307F5735202F11202138007F14003283B00221A6007F14003283B00225A60002307F5735202F12802136007F14003303B00221A6000225A60002307F501
:40298000735202F124021360012307F5735202F12002136007F5CA53183B196807F5CA53183B586807F5CA52103A0B46DB000B445B000B4403445B011344183300221A80B8
:4029C00007F5CA53183B196807F5CA53183B5C6807F5CA53183B186807F5CA53183B5D6807F5CA52103A0346DB0003445B0003442B445B01D01807F5CA52103A0B46DB00ED
:402A00000B445B000B4423445B0113441033586007F5CA53183B196807F5CA53183B586807F5CA52103A0B46DB000B445B000B4403445B011344183307F5745202F11402D8
:402A400012685A60002307F5735202F11C02136002E3012307F5735202F12C02136007F5CA53183B196807F5CA53183B586807F5CA52103A0B46DB000B445B000B44034475
:402A80005B01134401225A6083E1002307F5735202F13002136007F5735303F12C031B68012B11D107F5CA53183B1B685A1E07F14003203B1A6007F5CA53183B5A6807F193
:402AC0004003203B5A6049E007F5735303F12C031B68022B11D107F5CA53183B1A6807F14003203B1A6007F5CA53183B5B685A1C07F14003203B5A6030E007F5735303F125
:402B00002C031B68032B11D107F5CA53183B1B685A1C07F14003203B1A6007F5CA53183B5A6807F14003203B5A6017E007F5735303F12C031B68042B10D107F5CA53183B05
:402B40001A6807F14003203B1A6007F5CA53183B5B685A1E07F14003203B5A6007F5735303F12C031A6807F5745303F114031B689A4205D0002307F5735202F130021360E7
:402B800007F14003203B1B680F2B00F2F78007F14003203B5B68132B00F2F08007F14003203B196807F14003203B586807F5CA52103A0B46DB000B445B000B4403445B01C9
:402BC00013441B68002B40F0D98007F5CA53183B196807F5CA53183B586807F5CA52103A0B46DB000B445B000B4403445B0113441833188807F14003203B196807F1400370
:402C0000203B5C6807F5CA52103A0B46DB000B445B000B4423445B01134408331B8803449AB207F5735303F130031B689BB2134407F5735202F11202138007F14003203B62
:402C4000196807F14003203B586807F5CA52103A0B46DB000B445B000B4403445B01134418331B8807F5735202F1120212889A4240F2848007F14003203B196807F1400348
:402C8000203B586807F5CA52103A0B46DB000B445B000B4403445B011344183307F5735202F1120212881A8007F14003203B196807F14003203B5C6807F5CA53183B1868D4
:402CC00007F5CA53183B5D6807F5CA52103A0346DB0003445B0003442B445B01D01807F5CA52103A0B46DB000B445B000B4423445B0113441033586007F14003203B1968CE
:402D000007F14003183B07F5735202F13402126843F8321007F14003203B596807F14002183A07F5735303F134031B68DB001344596007F14003203B196807F14003203B39
:402D4000586807F5CA52103A0B46DB000B445B000B4403445B011344183307F5735202F12C0212685A6007F5735303F134031B68013307F5735202F13402136007F57353EE
:402D800003F12C031B68013307F5735202F12C02136007F5735303F12C031B68042B7FF674AE002307F5735202F124021360002307F5735202F120021360002307F57352F6
:402DC00002F118021360ABE007F14003183B07F5735202F11802126853F8322007F14003303B1A6007F14002183A07F5735303F118031B68DB0013445A6807F14003303BBB
:402E00005A6007F14003183B07F5735202F11802126853F8321007F14002183A07F5735303F118031B68DB001344586807F5CA52103A0B46DB000B445B000B4403445B0179
:402E4000134418331B881A4607F5735303F124031B689A4259D907F14003183B07F5735202F11802126853F8321007F14002183A07F5735303F118031B68DB00134458680A
:402E800007F5CA52103A0B46DB000B445B000B4403445B0113445B68002B36D107F14003183B07F5735202F11802126853F8321007F14002183A07F5735303F118031B6859
:402EC000DB001344586807F5CA52103A0B46DB000B445B000B4403445B01134418331B8807F5735202F12402136007F5735303F118031B6807F5735202F12802136001235B
:402F000007F5735202F12002136007F5735303F118031B68013307F5735202F11802136007F5735303F118031A6807F5735303F134031B689A42FFF447AF07F14003183B69
:402F400007F5735202F12802126853F8322007F5CA53183B1A6007F14002183A07F5735303F128031B68DB0013445A6807F5CA53183B5A6007F5CA53183B196807F5CA5366
:402F8000183B586807F5CA52103A0B46DB000B445B000B4403445B01134418335B6807F5745202F11402136007F5735303F11C031A6813465B0013449B001A4607F1400399
:402FC0003C3B1B681A4407F5CA53183B1B68136007F5735303F11C031A6813465B0013449B001A4607F140033C3B1B681A4407F5CA53183B5B68536007F5735303F11C0370
:403000001A6813465B0013449B001A4607F140033C3B1B68981807F5CA53183B196807F5CA53183B5C6807F5CA52103A0B46DB000B445B000B4423445B01134418335B6857
:40304000836007F5735303F11C031B68013307F5735202F11C02136007F5735303F120031B68012B3FF4F5AC07F5735303F11C031B68184607F57457BD46B0BD90B5ADF56C
:40308000175D81B002AF1B4B1B681B4A009201931A481B491B4A1C4BFFF7FCFA034607F5165202F118021360002307F5165202F134021360002307F5165202F13202138037
:4030C000002307F5165202F12C021360002307F5165202F128021360002307F5165202F124021360002307F5165202F12002136001F073BF6881FF1F7481FF1F7C81FF1F24
:40310000F085FF1F448AFF1F6C81FF1F002307F5165202F12402136007F5165303F120031B685A1CCF4913465B0013449B000B441968CC4807F5165303F120031A68134684
:403140005B0013449B0003441B68013399421DD107F5165303F120031B685A1CC14913465B0013449B000B4404331968BD4807F5165303F120031A6813465B0013449B0066
:40318000034404331B68994201F0098207F5165303F120031B685A1CB24913465B0013449B000B441968AF4807F5165303F120031A6813465B0013449B0003441B68013B30
:4031C00099421DD107F5165303F120031B685A1CA44913465B0013449B000B4404331968A04807F5165303F120031A6813465B0013449B00034404331B68994201F0CF814E
:4032000007F5165303F120031B685A1C954913465B0013449B000B4404331968914807F5165303F120031A6813465B0013449B00034404331B68013B99421BD107F51653A8
:4032400003F120031B685A1C864913465B0013449B000B441968834807F5165303F120031A6813465B0013449B0003441B68994201F0958107F5165303F120031B685A1C69
:40328000784913465B0013449B000B4404331968744807F5165303F120031A6813465B0013449B00034404331B68013399421BD107F5165303F120031B685A1C69491346C4
:4032C0005B0013449B000B441968664807F5165303F120031A6813465B0013449B0003441B68994201F05B8107F5165303F120031A6807F5165303F134031B68D31A013BB3
:40330000002B2ADD07F5165303F132031B88564A4421D15407F5165303F132031B88013307F5165202F120021268D1B207F5165202F134021268D2B28A1AD2B2013AD1B2B4
:40334000494AD15407F5165303F132031B88023307F5165202F132021380002307F5165202F12802136007F13803343B1A464FF41653104600211A4607F063F9394907F5A4
:40338000165303F120031A6813465B0013449B000B441B6807F5165202F10C021360314907F5165303F120031A6813465B0013449B000B4404331B6807F5165202F110022B
:4033C000136007F5165303F120031B685A1C254913465B0013449B000B441B6807F5165202F10402136007F5165303F120031B685A1C1C4913465B0013449B000B44043329
:403400001B6807F5165202F108021360154907F5165303F120031A6813465B0013449B000B4408331B68114A136007F13803343B07F5165404F10C0407F5165202F10402EE
:4034400000920B480B491A462346FEF761FB034607F5165202F11402136007F5165303F1140309E0448AFF1F1C87FF1F6881FF1F7C81FF1FF085FF1F1B6807F5165202F13B
:403480001C02136001F073B807F13802343A07F5165303F11C0319680B465B000B449B00134408331B68012B11D007F13802343A07F5165303F11C0319680B465B000B447A
:4034C0009B00134408331B68032B40F0218407F13802343A07F5165303F11C0319680B465B000B449B001344196807F13802343A07F5165303F11C03186803465B0003448F
:403500009B00134404331B685A1E95480B46DB000B445B000B44134450F82330002B29D007F13802343A07F5165303F11C0319680B465B000B449B001344196807F1380216
:40354000343A07F5165303F11C03186803465B0003449B00134404331B685A1C80480B46DB000B445B000B44134450F82330002B40F0F28207F13802343A07F5165303F131
:403580001C0319680B465B000B449B0013440833186807F5165303F11C031B68591E07F13802343A0B465B000B449B00134408331B68984200F0868207F13802343A07F598
:4035C000165303F11C0319680B465B000B449B00134408331B68012B11D107F5165303F11C031B68591E07F13802343A0B465B000B449B00134408331B68042B6BD007F1F6
:403600003802343A07F5165303F11C0319680B465B000B449B00134408331B68032B11D107F5165303F11C031B68591E07F13802343A0B465B000B449B00134408331B6871
:40364000022B48D007F13802343A07F5165303F11C0319680B465B000B449B00134408331B68012B0FD107F5165303F120031B685A1C3C4913465B0013449B000B4408338B
:403680001B68042B20D007F13802343A07F5165303F11C0319680B465B000B449B00134408331B68032B61D107F5165303F120031B685A1C2B4913465B0013449B000B44E6
:4036C00008331B68022B51D107F5165303F11C031B68012B4AD107F5165303F132031B88214A4C21D15407F5165303F132031B88013307F5165202F114021268D1B207F582
:40370000165202F11C021268D2B28A1AD1B207F5165202F128021268D2B28A1AD2B20132D1B2114AD15407F5165303F132031B88023307F5165202F13202138007F5165325
:4037400003F114031A6807F5165303F11C031B68D31A013307F5165202F128021360B0E17C81FF1F448AFF1F1C87FF1F07F13802343A07F5165303F11C0319680B465B000E
:403780000B449B00134408331B68012B11D107F5165303F11C031B68591E07F13802343A0B465B000B449B00134408331B68022B6BD007F13802343A07F5165303F11C03BF
:4037C00019680B465B000B449B00134408331B68032B11D107F5165303F11C031B68591E07F13802343A0B465B000B449B00134408331B68042B48D007F13802343A07F5ED
:40380000165303F11C0319680B465B000B449B00134408331B68012B0FD107F5165303F120031B685A1CCA4913465B0013449B000B4408331B68022B20D007F13802343ADC
:4038400007F5165303F11C0319680B465B000B449B00134408331B68032B5BD107F5165303F120031B685A1CB94913465B0013449B000B4408331B68012B4BD107F5165373
:4038800003F11C031B68042B44D107F5165303F132031B88AF4A5221D15407F5165303F132031B88013307F5165202F114021268D1B207F5165202F11C021268D2B28A1A86
:4038C000D1B207F5165202F128021268D2B28A1AD2B20132D1B29F4AD15407F5165303F132031B88023307F5165202F13202138007F5165303F114031A6807F5165303F10B
:403900001C031B68D31A013307F5165202F128021360D6E007F13802343A07F5165303F11C0319680B465B000B449B00134408331B68012B11D107F5165303F11C031B68CD
:40394000591E07F13802343A0B465B000B449B00134408331B68032B6ED007F13802343A07F5165303F11C0319680B465B000B449B00134408331B68032B11D107F5165360
:4039800003F11C031B68591E07F13802343A0B465B000B449B00134408331B68012B4BD007F13802343A07F5165303F11C0319680B465B000B449B00134408331B68012BF8
:4039C0000FD107F5165303F120031B685A1C604913465B0013449B000B4408331B68032B22D007F13802343A07F5165303F11C0319680B465B000B449B00134408331B68B2
:403A0000032B40F0A48007F5165303F120031B685A1C4F4913465B0013449B000B4408331B68012B40F0938007F5165303F11C031B68012B40F08B8007F5165303F13203E5
:403A40001B88444A5521D15407F5165303F132031B88013307F5165202F114021268D1B207F5165202F11C021268D2B28A1AD1B207F5165202F128021268D2B28A1AD2B26A
:403A80000132D1B2334AD15407F5165303F132031B88023307F5165202F13202138007F5165303F114031A6807F5165303F11C031B68D31A013307F5165202F12802136028
:403AC00045E044E007F5165303F132031B88214A5321D15407F5165303F132031B88013307F5165202F114021268D1B207F5165202F11C021268D2B28A1AD1B207F516527B
:403B000002F128021268D2B28A1AD2B20132D1B2104AD15407F5165303F132031B88023307F5165202F13202138007F5165303F114031A6807F5165303F11C031B68D31AAF
:403B4000013307F5165202F128021360D9E0D8E0448AFF1F1C87FF1F07F13802343A07F5165303F11C0319680B465B000B449B00134408331B68012B11D107F5165303F154
:403B80001C031B68591E07F13802343A0B465B000B449B00134408331B68032B6BD007F13802343A07F5165303F11C0319680B465B000B449B00134408331B68032B11D1E4
:403BC00007F5165303F11C031B68591E07F13802343A0B465B000B449B00134408331B68012B48D007F13802343A07F5165303F11C0319680B465B000B449B001344083303
:403C00001B68012B0FD107F5165303F120031B685A1C3D4913465B0013449B000B4408331B68032B20D007F13802343A07F5165303F11C0319680B465B000B449B001344A3
:403C400008331B68032B5CD107F5165303F120031B685A1C2C4913465B0013449B000B4408331B68012B4CD107F5165303F11C031B68012B45D107F5165303F132031B88D7
:403C8000224A5521D15407F5165303F132031B88013307F5165202F114021268D1B207F5165202F11C021268D2B28A1AD1B207F5165202F128021268D2B28A1AD2B20132BA
:403CC000D1B2124AD15407F5165303F132031B88023307F5165202F13202138007F5165303F114031A6807F5165303F11C031B68D31A013307F5165202F12802136000F04A
:403D000020BC00F01EBC00BF448AFF1F1C87FF1F07F13802343A07F5165303F11C0319680B465B000B449B0013441B68591E07F13802343A07F5165303F11C031868034610
:403D40005B0003449B00134404331A6895480B46DB000B445B000B44134450F82330002B29D007F13802343A07F5165303F11C0319680B465B000B449B0013441B68591C60
:403D800007F13802343A07F5165303F11C03186803465B0003449B00134404331A6881480B46DB000B445B000B44134450F82330002B40F0F38207F13802343A07F5165320
:403DC00003F11C0319680B465B000B449B0013440833186807F5165303F11C031B68591E07F13802343A0B465B000B449B00134408331B68984200F0878207F13802343A57
:403E000007F5165303F11C0319680B465B000B449B00134408331B68042B11D107F5165303F11C031B68591E07F13802343A0B465B000B449B00134408331B68032B6BD0A7
:403E400007F13802343A07F5165303F11C0319680B465B000B449B00134408331B68022B11D107F5165303F11C031B68591E07F13802343A0B465B000B449B0013440833B5
:403E80001B68012B48D007F13802343A07F5165303F11C0319680B465B000B449B00134408331B68042B0FD107F5165303F120031B685A1C3C4913465B0013449B000B44F9
:403EC00008331B68032B20D007F13802343A07F5165303F11C0319680B465B000B449B00134408331B68022B62D107F5165303F120031B685A1C2C4913465B0013449B00B2
:403F00000B4408331B68012B52D107F5165303F11C031B68012B4BD107F5165303F132031B88224A4C21D15407F5165303F132031B88013307F5165202F114021268D1B2E4
:403F400007F5165202F11C021268D2B28A1AD1B207F5165202F128021268D2B28A1AD2B20132D1B2114AD15407F5165303F132031B88023307F5165202F13202138007F54A
:403F8000165303F114031A6807F5165303F11C031B68D31A013307F5165202F128021360B1E100BF7C81FF1F448AFF1F1C87FF1F07F13802343A07F5165303F11C03196849
:403FC0000B465B000B449B00134408331B68042B11D107F5165303F11C031B68591E07F13802343A0B465B000B449B00134408331B68012B6BD007F13802343A07F51653DC
:4040000003F11C0319680B465B000B449B00134408331B68022B11D107F5165303F11C031B68591E07F13802343A0B465B000B449B00134408331B68032B48D007F13802FD
:40404000343A07F5165303F11C0319680B465B000B449B00134408331B68042B0FD107F5165303F120031B685A1CCA4913465B0013449B000B4408331B68012B20D007F1D0
:404080003802343A07F5165303F11C0319680B465B000B449B00134408331B68022B5BD107F5165303F120031B685A1CB94913465B0013449B000B4408331B68032B4BD1E7
:4040C00007F5165303F11C031B68012B44D107F5165303F132031B88AF4A5221D15407F5165303F132031B88013307F5165202F114021268D1B207F5165202F11C02126804
:40410000D2B28A1AD1B207F5165202F128021268D2B28A1AD2B20132D1B29F4AD15407F5165303F132031B88023307F5165202F13202138007F5165303F114031A6807F5F7
:40414000165303F11C031B68D31A013307F5165202F128021360D6E007F13802343A07F5165303F11C0319680B465B000B449B00134408331B68042B11D107F5165303F1C7
:404180001C031B68591E07F13802343A0B465B000B449B00134408331B68022B6ED007F13802343A07F5165303F11C0319680B465B000B449B00134408331B68022B11D1DD
:4041C00007F5165303F11C031B68591E07F13802343A0B465B000B449B00134408331B68042B4BD007F13802343A07F5165303F11C0319680B465B000B449B0013440833F7
:404200001B68042B0FD107F5165303F120031B685A1C604913465B0013449B000B4408331B68022B22D007F13802343A07F5165303F11C0319680B465B000B449B00134476
:4042400008331B68022B40F0A48007F5165303F120031B685A1C4F4913465B0013449B000B4408331B68042B40F0938007F5165303F11C031B68012B40F08B8007F5165306
:4042800003F132031B88444A5521D15407F5165303F132031B88013307F5165202F114021268D1B207F5165202F11C021268D2B28A1AD1B207F5165202F128021268D2B221
:4042C0008A1AD2B20132D1B2334AD15407F5165303F132031B88023307F5165202F13202138007F5165303F114031A6807F5165303F11C031B68D31A013307F5165202F155
:404300002802136045E044E007F5165303F132031B88214A5321D15407F5165303F132031B88013307F5165202F114021268D1B207F5165202F11C021268D2B28A1AD1B2F9
:4043400007F5165202F128021268D2B28A1AD2B20132D1B2104AD15407F5165303F132031B88023307F5165202F13202138007F5165303F114031A6807F5165303F11C0373
:404380001B68D31A013307F5165202F128021360D7E0D6E0448AFF1F1C87FF1F07F13802343A07F5165303F11C0319680B465B000B449B00134408331B68042B11D107F5FA
:4043C000165303F11C031B68591E07F13802343A0B465B000B449B00134408331B68022B6BD007F13802343A07F5165303F11C0319680B465B000B449B00134408331B6850
:40440000022B11D107F5165303F11C031B68591E07F13802343A0B465B000B449B00134408331B68042B48D007F13802343A07F5165303F11C0319680B465B000B449B003A
:40444000134408331B68042B0FD107F5165303F120031B685A1CCF4913465B0013449B000B4408331B68022B20D007F13802343A07F5165303F11C0319680B465B000B4427
:404480009B00134408331B68022B5AD107F5165303F120031B685A1CBE4913465B0013449B000B4408331B68042B4AD107F5165303F11C031B68012B43D107F5165303F1E7
:4044C00032031B88B44A5521D15407F5165303F132031B88013307F5165202F114021268D1B207F5165202F11C021268D2B28A1AD1B207F5165202F128021268D2B28A1ABF
:40450000D2B20132D1B2A44AD15407F5165303F132031B88023307F5165202F13202138007F5165303F114031A6807F5165303F11C031B68D31A013307F5165202F128021B
:40454000136007F5165303F12C031B68013307F5165202F12C02136007F5165303F11C031B68013B07F5165202F11C02136007F5165303F11C031B68002B3EF785AF07F5E7
:40458000165303F120031B6807F5165202F134021360012307F5165202F12402136007F5165303F124031B68002B40F00085794907F5165303F120031A6813465B00134436
:4045C0009B000B4408331B68012B0FD0714907F5165303F120031A6813465B0013449B000B4408331B68032B40F07482694907F5165303F120031A6813465B0013449B00F3
:404600000B441A68634807F5165303F1200319680B465B000B449B00034404331B68591E5E481346DB0013445B0013440B4450F82330002B25D0574907F5165303F12003EA
:404640001A6813465B0013449B000B441A68514807F5165303F1200319680B465B000B449B00034404331B68591C4C481346DB0013445B0013440B4450F82330002B40F089
:40468000B281444907F5165303F120031A6813465B0013449B000B440833196807F5165303F120031B685A1C3A4813465B0013449B00034408331B68994200F05F813549C0
:4046C00007F5165303F120031A6813465B0013449B000B4408331B68012B0FD107F5165303F120031B685A1C2A4913465B0013449B000B4408331B68042B1ED0254907F5DB
:40470000165303F120031A6813465B0013449B000B4408331B68032B4BD107F5165303F120031B685A1C1B4913465B0013449B000B4408331B68022B3BD107F5165303F15C
:4047400032031B88144A4C21D15407F5165303F132031B88013307F5165202F120021268D1B207F5165202F134021268D2B28A1AD1B2094AD15407F5165303F132031B883B
:40478000023307F5165202F13202138007F5165306E000BF448AFF1F1C87FF1F7C81FF1F03F120031B6807F5165202F134021360E3E0C64907F5165303F120031A68134611
:4047C0005B0013449B000B4408331B68012B0FD107F5165303F120031B685A1CBB4913465B0013449B000B4408331B68022B1ED0B64907F5165303F120031A6813465B005B
:4048000013449B000B4408331B68032B43D107F5165303F120031B685A1CAC4913465B0013449B000B4408331B68042B33D107F5165303F132031B88A54A5221D15407F533
:40484000165303F132031B88013307F5165202F120021268D1B207F5165202F134021268D2B28A1AD1B29A4AD15407F5165303F132031B88023307F5165202F1320213801A
:4048800007F5165303F120031B6807F5165202F13402136071E08D4907F5165303F120031A6813465B0013449B000B4408331B68012B0FD107F5165303F120031B685A1CA0
:4048C000824913465B0013449B000B4408331B68032B1ED07D4907F5165303F120031A6813465B0013449B000B4408331B68032B78D107F5165303F120031B685A1C7349FF
:4049000013465B0013449B000B4408331B68012B68D107F5165303F132031B886C4A5521D15407F5165303F132031B88013307F5165202F120021268D1B207F5165202F1AB
:4049400034021268D2B28A1AD1B2614AD15407F5165303F132031B88023307F5165202F13202138007F5165303F120031B6807F5165202F13402136034E033E007F51653FD
:4049800003F132031B88524A5321D15407F5165303F132031B88013307F5165202F120021268D1B207F5165202F134021268D2B28A1AD1B2464AD15407F5165303F1320326
:4049C0001B88023307F5165202F13202138007F5165303F120031B6807F5165202F13402136072E071E0394907F5165303F120031A6813465B0013449B000B4408331B68EC
:404A0000012B0FD107F5165303F120031B685A1C2E4913465B0013449B000B4408331B68032B1ED0294907F5165303F120031A6813465B0013449B000B4408331B68032B5E
:404A400043D107F5165303F120031B685A1C1F4913465B0013449B000B4408331B68012B33D107F5165303F132031B88184A5521D15407F5165303F132031B88013307F5D3
:404A8000165202F120021268D1B207F5165202F134021268D2B28A1AD1B20D4AD15407F5165303F132031B88023307F5165202F13202138007F5165303F120031B6807F5CF
:404AC000165202F13402136071E270E2448AFF1F1C87FF1FA64907F5165303F120031A6813465B0013449B000B441B685A1EA04807F5165303F1200319680B465B000B44A3
:404B00009B000344043319689A481346DB0013445B0013440B4450F82330002B25D0944907F5165303F120031A6813465B0013449B000B441B685A1C8D4807F5165303F1BB
:404B4000200319680B465B000B449B0003440433196888481346DB0013445B0013440B4450F82330002B40F0B181814907F5165303F120031A6813465B0013449B000B44BB
:404B80000833196807F5165303F120031B685A1C774813465B0013449B00034408331B68994200F05E81724907F5165303F120031A6813465B0013449B000B4408331B6844
:404BC000042B0FD107F5165303F120031B685A1C674913465B0013449B000B4408331B68032B1ED0624907F5165303F120031A6813465B0013449B000B4408331B68022B29
:404C000043D107F5165303F120031B685A1C584913465B0013449B000B4408331B68012B33D107F5165303F132031B88524A4C21D15407F5165303F132031B88013307F5A7
:404C4000165202F120021268D1B207F5165202F134021268D2B28A1AD1B2474AD15407F5165303F132031B88023307F5165202F13202138007F5165303F120031B6807F5D3
:404C8000165202F134021360EAE0394907F5165303F120031A6813465B0013449B000B4408331B68042B0FD107F5165303F120031B685A1C2E4913465B0013449B000B4403
:404CC00008331B68012B1ED0294907F5165303F120031A6813465B0013449B000B4408331B68022B4AD107F5165303F120031B685A1C1F4913465B0013449B000B44083364
:404D00001B68032B3AD107F5165303F132031B88194A5221D15407F5165303F132031B88013307F5165202F120021268D1B207F5165202F134021268D2B28A1AD1B20E4AA6
:404D4000D15407F5165303F132031B88023307F5165202F13202138007F5165303F120031B6807F5165202F13402136078E000BF448AFF1F7C81FF1F1C87FF1FA74907F5C0
:404D8000165303F120031A6813465B0013449B000B4408331B68042B0FD107F5165303F120031B685A1C9D4913465B0013449B000B4408331B68022B1ED0984907F51653C0
:404DC00003F120031A6813465B0013449B000B4408331B68022B78D107F5165303F120031B685A1C8D4913465B0013449B000B4408331B68042B68D107F5165303F13203FD
:404E00001B88874A5521D15407F5165303F132031B88013307F5165202F120021268D1B207F5165202F134021268D2B28A1AD1B27B4AD15407F5165303F132031B88023386
:404E400007F5165202F13202138007F5165303F120031B6807F5165202F13402136034E033E007F5165303F132031B886C4A5321D15407F5165303F132031B88013307F50D
:404E8000165202F120021268D1B207F5165202F134021268D2B28A1AD1B2614AD15407F5165303F132031B88023307F5165202F13202138007F5165303F120031B6807F577
:404EC000165202F13402136071E070E0534907F5165303F120031A6813465B0013449B000B4408331B68042B0FD107F5165303F120031B685A1C494913465B0013449B0004
:404F00000B4408331B68022B1ED0444907F5165303F120031A6813465B0013449B000B4408331B68022B42D107F5165303F120031B685A1C394913465B0013449B000B44DF
:404F400008331B68042B32D107F5165303F132031B88334A5521D15407F5165303F132031B88013307F5165202F120021268D1B207F5165202F134021268D2B28A1AD1B26B
:404F8000274AD15407F5165303F132031B88023307F5165202F13202138007F5165303F120031B6807F5165202F13402136007F5165303F12C031B68013307F5165202F142
:404FC0002C02136007F5165303F120031B68013307F5165202F12002136007F5165303F120031A6807F5165303F118031B689A42FEF68CA807F5165303F132031B88084A75
:405000000021D15407F5165303F132031B88184607F516573C37BD4690BD00BF448AFF1F1C87FF1FB0B5AAB004AF0023C7F894300023C7F890300023C7F88C3000F074BC8B
:405040000023C7F89030D7F89430002B07D0B14B1B68B14A1360AF4B5B68AF4A5360AF4AD7F88C3052F83330AA4A1360AB4AD7F88C30DB0013445B68A64A5360A64B1D687D
:40508000A54B5C68A34B1968A24B5A68A44B1B68381D009101920293A2492A46234605F0D9FA3B1D184603F093FD9A4B00939E489A499E4A984BFCF72BFD0346C7F88430F6
:4050C000D7F88430C7F8883000F006BC9749D7F8882013465B0013449B000B4408331B68012B0CD09149D7F8882013465B0013449B000B4408331B68032B40F0FA818B4941
:40510000D7F8882013465B0013449B000B441A688648D7F888100B465B000B449B00034404331B68591E80481346DB0013445B0013440B4450F82330002B1FD07B49D7F8A2
:40514000882013465B0013449B000B441A687748D7F888100B465B000B449B00034404331B68591C70481346DB0013445B0013440B4450F82330002B40F060816B49D7F840
:40518000882013465B0013449B000B4408331968D7F888305A1E654813465B0013449B00034408331B68994200F01F815F49D7F8882013465B0013449B000B4408331B6802
:4051C000012B0CD1D7F888305A1E584913465B0013449B000B4408331B68042B18D05349D7F8882013465B0013449B000B4408331B68032B34D1D7F888305A1E4B49134657
:405200005B0013449B000B4408331B68022B27D1474AD7F8943013444C221A70D7F894300133D7F88420D1B2D7F88820D2B28A1AD1B2D7F89020D2B28A1AD2B20132D1B2BC
:405240003B4AD154D7F894300233C7F89430D7F88420D7F88830D31A0133C7F89030C3E03249D7F8882013465B0013449B000B4408331B68012B0CD1D7F888305A1E2B49DB
:4052800013465B0013449B000B4408331B68022B18D02649D7F8882013465B0013449B000B4408331B68032B44D1D7F888305A1E1E4913465B0013449B000B4408331B6831
:4052C000042B37D11A4AD7F89430134452221A70D7F894300133D7F88420D1B2D7F88820D2B28A1AD1B2D7F89020D2B28A1AD2B20132D1B20E4AD154D7F894300233C7F867
:405300009430D7F88420D7F88830D31A0133C7F8903069E07481FF1F6C81FF1FF085FF1F6881FF1FC8AF00007C81FF1F448AFF1F1C87FF1FC749D7F8882013465B0013443D
:405340009B000B4408331B68012B0CD1D7F888305A1EC04913465B0013449B000B4408331B68032B18D0BB49D7F8882013465B0013449B000B4408331B68032B5DD1D7F852
:4053800088305A1EB34913465B0013449B000B4408331B68012B50D1AF4AD7F89430134455221A70D7F894300133D7F88420D1B2D7F88820D2B28A1AD1B2D7F89020D2B2FB
:4053C0008A1AD2B20132D1B2A34AD154D7F894300233C7F89430D7F88420D7F88830D31A0133C7F8903028E027E09B4AD7F89430134453221A70D7F894300133D7F88420C1
:40540000D1B2D7F88820D2B28A1AD1B2D7F89020D2B28A1AD2B20132D1B28F4AD154D7F894300233C7F89430D7F88420D7F88830D31A0133C7F890305AE059E08549D7F8F3
:40544000882013465B0013449B000B4408331B68012B0CD1D7F888305A1E7E4913465B0013449B000B4408331B68032B18D07949D7F8882013465B0013449B000B440833D0
:405480001B68032B34D1D7F888305A1E714913465B0013449B000B4408331B68012B27D16D4AD7F89430134455221A70D7F894300133D7F88420D1B2D7F88820D2B28A1AA8
:4054C000D1B2D7F89020D2B28A1AD2B20132D1B2614AD154D7F894300233C7F89430D7F88420D7F88830D31A0133C7F89030EEE1EDE15849D7F8882013465B0013449B0038
:405500000B441B685A1E5348D7F888100B465B000B449B0003440433196850481346DB0013445B0013440B4450F82330002B1FD04849D7F8882013465B0013449B000B44B4
:405540001B685A1C4348D7F888100B465B000B449B0003440433196840481346DB0013445B0013440B4450F82330002B40F056813849D7F8882013465B0013449B000B44DD
:4055800008331968D7F888305A1E324813465B0013449B00034408331B68994200F015812C49D7F8882013465B0013449B000B4408331B68042B0CD1D7F888305A1E254992
:4055C00013465B0013449B000B4408331B68032B18D02049D7F8882013465B0013449B000B4408331B68022B3AD1D7F888305A1E184913465B0013449B000B4408331B6804
:40560000012B2DD1144AD7F8943013444C221A70D7F894300133D7F88420D1B2D7F88820D2B28A1AD1B2D7F89020D2B28A1AD2B20132D1B2084AD154D7F894300233C7F842
:405640009430D7F88420D7F88830D31A0133C7F89030B9E0448AFF1F1C87FF1F7C81FF1FB849D7F8882013465B0013449B000B4408331B68042B0CD1D7F888305A1EB1493B
:4056800013465B0013449B000B4408331B68012B18D0AC49D7F8882013465B0013449B000B4408331B68022B34D1D7F888305A1EA44913465B0013449B000B4408331B6833
:4056C000032B27D1A04AD7F89430134452221A70D7F894300133D7F88420D1B2D7F88820D2B28A1AD1B2D7F89020D2B28A1AD2B20132D1B2944AD154D7F894300233C7F868
:405700009430D7F88420D7F88830D31A0133C7F8903059E08B49D7F8882013465B0013449B000B4408331B68042B0CD1D7F888305A1E844913465B0013449B000B440833CC
:405740001B68022B18D07F49D7F8882013465B0013449B000B4408331B68022B5DD1D7F888305A1E774913465B0013449B000B4408331B68042B50D1734AD7F894301344DB
:4057800055221A70D7F894300133D7F88420D1B2D7F88820D2B28A1AD1B2D7F89020D2B28A1AD2B20132D1B2674AD154D7F894300233C7F89430D7F88420D7F88830D31A20
:4057C0000133C7F8903028E027E05F4AD7F89430134453221A70D7F894300133D7F88420D1B2D7F88820D2B28A1AD1B2D7F89020D2B28A1AD2B20132D1B2534AD154D7F804
:4058000094300233C7F89430D7F88420D7F88830D31A0133C7F8903059E058E04949D7F8882013465B0013449B000B4408331B68042B0CD1D7F888305A1E424913465B00DB
:4058400013449B000B4408331B68022B18D03D49D7F8882013465B0013449B000B4408331B68022B33D1D7F888305A1E354913465B0013449B000B4408331B68042B26D1DD
:40588000314AD7F89430134455221A70D7F894300133D7F88420D1B2D7F88820D2B28A1AD1B2D7F89020D2B28A1AD2B20132D1B2254AD154D7F894300233C7F89430D7F814
:4058C0008420D7F88830D31A0133C7F89030D7F88830013BC7F88830D7F88830002B3FF7F5ABD7F88420D7F890309A4217D0164AD7F89430134444221A70D7F89430013355
:40590000D7F88420D1B2D7F89020D2B28A1AD1B20D4AD154D7F894300233C7F89430D7F88C300133C7F88C30D7F88C20074B1B689A42FFF485ABD7F8943018469837BD4634
:40594000B0BD00BF448AFF1F1C87FF1F2086FF1F80B400AFFEE700BF80B584B000AF78600F4B1A687B6813441A460E4BD31A802B09DC0B4B1B68FB60094B1A687B68134483
:40598000074A136007E004F025FE02460C2313604FF0FF33FB60FB6818461037BD4680BD2886FF1FE8B1FF1F80B586B000AF224B7B61224B3B61204B7B6135E03B691B68B5
:4059C000FB603B695B68BB603B699B683B6000237B600CE0FB681A68BB681A60BB680433BB60FB680433FB607B6804337B607A683B689A42EED13B69DB683B6000237B601D
:405A000008E0BB6800221A60BB680433BB607B6804337B607A683B689A42F2D13B6910333B617B69013B7B617B69002BC6D104F0D7FDFAF7B5FCFEE70100000048B20000C2
:405A400080B582B000AF174B174A1A60174A174B1B6843F40073136000237B600FE07B68032B04D8124A7B6852F8233000E0114B11497A6841F822307B6801337B607B68E2
:405A80002F2BECD90D4B1B78DAB20D4B1A700D4B094A1A6000F098F90B4B00221A600837BD4680BD0CED00E00004FA0514ED00E000000000515900000080FF1FBC760040E0
:405AC0000481FF1F08ED00E00081FF1F80B582B000AF78603960786800213A6804F0B1FD0837BD4680BD00BF80B584B000AFF860B9607A60F868B9687A6804F097FD1037F0
:405B0000BD4680BD80B483B000AF0346FB71FEE780B487B000AF7860396000233B6100237B6127E07B699B007A6813441B68BB60BB68FB73BB6823F0FF03BB6014E03B6953
:405B40005B003A6813441B781A46BB68134419463B695B003A6813445B780B703B6901333B61FB7B013BFB73FB7B002BE7D17B6901337B617B69292BD4D91C37BD465DF84E
:405B8000047B704780B582B000AF444B0F221A80434B1B221A70434B81221A80424B18221A70424B04221A80414B18221A70414B3B221A80404B18221A70404B3B221A80DD
:405BC0003F4B18221A703F4B00221A803E4B1B221A703E4B01221A803D4B1B221A703D4B41F287321A803C4B1B221A703B4B06221A703B4B52221A703A4B3B4A1278D2B2FC
:405C00001A703A4B40F619121A80394B41F251221A800023FB7019237B6014E0FB785B00DAB2344B1B78DBB203F00103DBB21343DBB203F00303FB704FF4F07002F02CF97F
:405C40007B68013B7B607B68002B02D0FB78032BE4D17B68002B02D10320FFF753FF264B4FF480721A80244B07221A70234B00221A70234B48221A701F4B00221A70214B48
:405C800000221A70204B02221A70204B1B781F4BFF221A700837BD4680BD00BF80400040824000408440004086400040884000408A4000408C4000408E4000409040004086
:405CC000924000409440004096400040984000409A4000409C4000409E4000400043004000420040A14600400F010049224200402042004025420040044000400640004080
:405D0000084000400940004001400040A243004080B582B000AF204B1B78FB711F4B1B78BB711F4B1B787B711E4AFB7903F00703DBB213701C4AFB791B09DBB21370174AC2
:405D4000BB7943F00303DBB21370154A7B7943F00303DBB21370154B08221A70144B40221A70144B40221A70134B80221A70134B20221A70124B80221A700A2002F0A8F867
:405D8000074A7B791370054ABB7913700D4B44221A700837BD4680BDCF010049F8460040F94600406E5800406F5800400D510040095900400B590040285B00402B5B0040BE
:405DC000585B00407658004080B586B000AF72B64E4B61221A70FFF7D5FE4C4B01221A700023FB7513E0FA7D13465B0013445B00474A13443B613B691A683B699B889BB28C
:405E000010461946FFF762FEFB7D0133FB75FB7D062BE8D90023FB751CE0FA7D13469B0013445B003B4A1344FB60FB681B68BB60FB685B687B60FB681A7A5B7A1B021343AD
:405E40007B807B88B86879681A46FFF74DFEFB7D0133FB75FB7D012BDFD94FF090402E49FFF756FE2D4A2D4B1B78DBB243F00203DBB213702A4A2A4B1B78DBB243F00203A2
:405E8000DBB21370274A274B1B78DBB243F04003DBB21370244A244B1B78DBB243F01003DBB21370214822490822FFF71DFE214821490A22FFF718FE204821490A22FFF7E8
:405EC00013FE204820490822FFF70EFE1F4820490822FFF709FE1F481F490822FFF704FE1E4B44221A701E4A1D4B1B78DBB243F00803DBB21370FFF70BFF1A4809490E2231
:405F0000FFF7F2FD1837BD4680BD00BF00480040F4AF000020B00000A80000480350014013500140A0430040C243004002510040C80F0048C0510040D00F0048F0510040F8
:405F4000DC0F004812510040E80F004822510040F00F004832510040F80F00485B02014022430040B043004080B582B000AF03460A46FB711346BB71084B1B78002B04D104
:405F800000F00EF8054B01221A70FA79BB791046194600F0D5F80837BD4680BDC8AFFF1F80B582B000AF01F07FFF0346FB71534A524B1B78DBB243F00103DBB21370504A4C
:405FC0004F4B1B78DBB243F00103DBB213704D4B01221A704C4B02221A704C4A4B4B1B78DBB203F07F03DBB21370002001F070FF474A474B1B78DBB223F00603DBB2137056
:40600000444A444B1B78DBB223F02003DBB213703F4A3F4B1B78DBB243F00103DBB21370012001F055FF282001F052FF3A4A3A4B1B78DBB203F07F03DBB21370364A364BC4
:406040001B78DBB223F04003DBB21370304A304B1B78DBB243F00203DBB21370022001F037FF2B4A2A4B1B78DBB243F00403DBB213702A4B00221A70294B00221A70FB79EB
:40608000184601F015FF1720072101F05BFF1720244901F02FFF1820072101F053FF1820214901F027FF1520072101F04BFF15201E4901F01FFF0120072101F043FF0120D4
:4060C0001B4901F017FF0220072101F03BFF0220184901F00FFF0320072101F033FF0320154901F007FF0C20072101F02BFF0C20124901F0FFFE0837BD4680BDA5430040CD
:40610000B54300409D60004009600040106000409443004012600040F851004084600040856000407D6E00004D670000716E00006D6D0000C16D0000156E0000896E0000F6
:4061400080B582B000AF03460A46FB711346BB712E4AFB7913702E4B00221A702D4B00221A702D4B00221A702C4B00221A702C4B00221A702B4B00221A702B4B00221A7019
:406180002A4B4FF400021A60284B4FF080721A60264B4FF400121A60244B02221A60234B04221A60214B08221A60BB79002B02D0012B09D011E01E4A1D4B1B78DBB223F0F8
:4061C0000103DBB2137011E0194A194B1B78DBB243F00103DBB2137008E0154A144B1B78DBB243F00103DBB2137000BF114B03221A70114B80221A70012001F04DFE0F4B56
:4062000004221A700837BD4680BD00BF21B1FF1F24B1FF1F40B1FF1F43B1FF1F38B1FF1F42B1FF1F45B1FF1F20B1FF1F00E100E009600040286000400860004012600040C5
:4062400080B400AF0F4B00221A700F4B00221A700E4B00221A700E4B00221A700D4B00221A700D4B00221A700C4B00221A700C4B03221A700B4B80221A70BD465DF8047BBB
:40628000704700BF24B1FF1F40B1FF1F43B1FF1F38B1FF1F42B1FF1F45B1FF1F20B1FF1F286000400860004080B400AF034B1B78DBB21846BD465DF8047B704743B1FF1F7A
:4062C00080B483B000AF0346FB71FA79064913465B0013449B000B445B78DBB218460C37BD465DF8047B704748B1FF1FB0B485B000AF03463960FB711346BB80FB79002BAD
:4063000066D0FB79082B63D8B988FA79324813465B0013449B000344DB889BB2C3F5007399420BD9FA792C4913465B0013449B000B44DB889BB2C3F50073BB80274CF979B8
:40634000BB881B0A9BB2D8B2FA79234D13465B0013449B002B44DB78DBB20343DAB20B0123441A701D4AFB79B988C9B21B0113440A465A703B68002B13D00023FB810CE0D7
:406380001748FB79FA8939680A4412781B01034408331A70FB890133FB81FA89BB889A42EED3FA790C4913465B0013449B000B4400225A700948F979FA79074C13465B0069
:4063C00013449B0023445B79DAB20B0103449A701437BD46B0BC704748B1FF1FFC5F00407060004090B482B000AF0346FB71FB79002B19D0FB79082B16D8FA790C4913463C
:406400005B0013449B000B4400225A700948F979FA79074C13465B0013449B0023445B79DAB20B0103449A700837BD4690BC704748B1FF1FFC5F004080B582B000AF002351
:40644000FB71324B1B79DBB2184600F069F80346BB712E4B1B78DBB2DBB25BB2002B16DA2A4B5B78DBB2212B00D00FE0284B07221A80BA791346DB009B1A264A1344244A39
:40648000536000F0DDFA0346FB7100BF38E01F4B5B78DBB2202B02D0222B1AD030E01C4B07221A80BA791346DB009B1A194A1344174A5360BB79BA7917498A5CD2B242F031
:4064C0000102D1B2144AD15400F03AFB0346FB7116E0BB790D4A9278D2B291B20F4A22F81310BB79BA790C498A5CD2B242F00202D1B2094AD15400F0BFFB0346FB7100BF5C
:40650000FB7918460837BD4680BD00BF006000402CB1FF1F2C86FF1F08B1FF1F1CB1FF1F80B485B000AF0346FB710023FB73FF23BB7317E0FB7B104AD35C7B737A7B0F493F
:4065400013465B0013449B000B4408339B78DBB2FA799A4203D1FB7BBB730223FB73FB7B0133FB73FB7B012BE4D9BB7B18461437BD465DF8047B704710B1FF1F48B1FF1F17
:4065800080B582B000AF0023BB71224B00221A70214B00221A70204B00225A700023FB7110E0FB791D4AD35C7B717B79002B06D07B79082B03D87B791846FFF713FFFB79B4
:4065C0000133FB71FB79012BEBD9154B1B78DBB2002B18D0114B1B78DBB2002B13D0114B1B78DBB2002B0ED00D4B1B78DBB2082B09D80A4B1B78DBB2082B04D8094B1B78FE
:40660000DBB2082B01D90123BB71BB7918460837BD4680BDC9AFFF1F08B1FF1F14B1FF1F0CB1FF1F10B1FF1F80B584B000AF78600B467B80144B1B781A46144B9B5CFB7303
:40664000FA7B134913465B0013449B000B4408331B889BB27A889A420CD9FA7B0C4913465B0013449B000B4408331B887B80002001F022FCFA7B7B88104679681A46FFF79A
:4066800035FE1037BD4680BDC9AFFF1F0CB1FF1F48B1FF1F80B500AF054B1B781A46054B9B5CDBB21846FFF70BFE0346184680BDC9AFFF1F0CB1FF1F80B485B000AF7860FB
:4066C0000B46FB701346BB707B68DB7803F00303FB737B689B78DBB25BB2002B1ADAFB7B032B0AD0BB7803F001031549FA78CA54BB7843F00103BB701BE0BB789B08DBB285
:4067000003F001030F49FA78CA54BB7843F00403BB700EE0FB7B032B0BD0BB785B08DBB203F001030849FA78CA54BB7843F00203BB70BB7818461437BD465DF8047B70477A
:406740000CB1FF1F10B1FF1F14B1FF1F80B582B000AF374B1B78BB71BB7903F01003002B63D00123FB71BB795BB2002B13DABB7903F00F03012B02D00023FB711DE000F0F1
:4067800061F82C4B1B78DBB2DBB25BB2002B14DA0023FB7111E0BB7903F04003002B02D000F094F809E0BB7903F02003002B02D000F0B2F801E00023FB71FB79002B34D0F6
:4067C0001B4B1B78BB71BB795BB2002B2DDB1A4B1B78DAB2194B1B78DBB21343BB71184ABB791370164B1B78DBB2BA799A421CD1104B1B78FB710E4B1B78DBB223F07F0378
:40680000BB71BB79002B0AD1094B0A4A1278D2B21A70074B1B78DBB203F00F03FB71054B1B78DBB2FA799A42E2D10837BD4680BD2860004041B1FF1FB6B1FF1F44B1FF1F6E
:406840002960004080B582B000AF1D4B1B78FB711B4AFB7913701A4B1B78FB71FB795BB2002B03DA174AFB79137025E0022000F043FA154B1B78DBB203F06003202B08D0E4
:40688000402B0BD0002B0ED100F004FB0346FB710CE002F0FDFD0346FB7107E001F0C0FA0346FB7102E00023FB7100BFFB79002B02D1044B03221A700837BD4680BD00BF32
:4068C0002860004041B1FF1F0060004080B500AF104B1B78DBB2062B19D801A252F823F00F6900000F690000FD6800000F690000036900000F6900000969000000F0FAF89A
:4069000006E000F0A9F903E000F0D2F900E000BF80BD00BF24B1FF1F80B500AF124B1B78DBB2062B1DD801A252F823F0636900006369000049690000636900004F6900005E
:40694000636900005569000000F0DAF80AE000F029F907E0032000F0CFF9044B03221A7000E000BF80BD00BF24B1FF1F41B1FF1F80B483B000AF0023FB71294B1B78DBB238
:406980009AB2284B1B889BB213449AB2254B1A8015E02549FB79254A52681278D2B2CA54224B5B680133214A5360FB790133FB711E4B1B889BB2013B9AB21C4B1A801B4B71
:4069C0001B889BB2002B02D0FB79072BE1D9144B1B78DBB2082B02D0FB79002B0FD0144B1B78DBB283F07F03DB43DAB2104B1A70104B0F221A70104B02221A7005E00D4BE9
:406A000002221A700C4B02221A700C4AFB791370034AFB7913700C37BD465DF8047B704720B1FF1F22B1FF1F006000402CB1FF1FB6B1FF1F41B1FF1F24B1FF1F44B1FF1F2B
:406A400080B582B000AF164B1B889BB2002B02D100F02EF81EE0134B02221A70124B00221A7000F069F9114BDB79DBB29BB21B029AB20E4B9B79DBB29BB21343FB80084BD8
:406A80001B889BB2FA889A4202D2054AFB881380FFF76EFF012318460837BD4680BD00BF2CB1FF1F24B1FF1FB6B1FF1F0060004080B400AF0A4B02221A700A4B80221A70B2
:406AC000094B0F221A70094B00221A70084B00221A7001231846BD465DF8047B704700BF24B1FF1FB6B1FF1F41B1FF1F20B1FF1F44B1FF1F80B500AFFFF73AFF80BD00BF20
:406B000080B500AF0A4B1B78DBB29AB2094B1B889BB213449AB2074B1A80074B00221A70012000F0E9F8054B03221A7080BD00BF20B1FF1F22B1FF1F24B1FF1F41B1FF1F0F
:406B400080B582B000AF124B04221A70114B80221A7000F0F1F8104BDB79DBB29BB21B029AB20D4B9B79DBB29BB21343FB800B4B1B889BB2FA889A4202D2084AFB881380A8
:406B8000074B0B221A70012318460837BD4680BD24B1FF1FB6B1FF1F006000402CB1FF1F41B1FF1F80B483B000AF0023BB71234B1B78DBB203F00F03DBB2023BFB71FB7906
:406BC0009AB21F4B1B889BB213449AB21C4B1A8018E01C4B5B681C49BA798A5CD2B21A70184B5B680133174A5360BB790133BB71FB79013BFB71134B1B889BB2013B9AB2A9
:406C0000104B1A800F4B1B889BB2002B02D0FB79002BDED10D4AFB7913700D4B1B78DBB283F07F03DB43DAB2094B1A70094B0B221A700C37BD465DF8047B704729600040E2
:406C400022B1FF1F2CB1FF1F0060004044B1FF1FB6B1FF1F41B1FF1F80B500AF044B00221A70012000F048F8024B03221A7080BD24B1FF1F41B1FF1F80B400AF084B062216
:406C80001A70084B06221A70074B80221A70074B00221A7001231846BD465DF8047B704724B1FF1F41B1FF1FB6B1FF1F44B1FF1F80B500AF0C4B1B78DBB2002B0AD00B4A69
:406CC000094B1B78DBB263F07F03DBB21370064B00221A70064B00221A70012000F00CF8044B03221A7080BD42B1FF1F0860004024B1FF1F41B1FF1F80B483B000AF0346D6
:406D0000FB710B4B9B68002B0CD0094B9B68FA791A70074B9B68074A128892B25A80044B00229A600C37BD465DF8047B704700BF2CB1FF1F22B1FF1F80B400AF094B002295
:406D40001A80094B9B68002B07D0074B9B6800221A70054B9B6800225A80BD465DF8047B704700BF22B1FF1F2CB1FF1F80B400AF104A104B1B78DBB223F00103DBB21370B8
:406D80000D4B9B7C0D4B1B7BDBB203F00303012B08D00A4BDB7BDBB283F07F03DB43DAB2064BDA73054B01225A73BD465DF8047B704700BF0B600040FC5F004048B1FF1F8D
:406DC00080B400AF104A104B1B78DBB223F00203DBB213700D4B93F822300D4B1B7EDBB203F00303012B08D0094BDB7EDBB283F07F03DB43DAB2064BDA76054B01225A7646
:406E0000BD465DF8047B70470B600040FC5F004048B1FF1F80B400AF124A124B1B78DBB223F00403DBB213700F4B93F832300F4B93F82430DBB203F00303012B0AD00B4B1F
:406E400093F82730DBB283F07F03DB43DAB2074B83F82720054B012283F82520BD465DF8047B70470B600040FC5F004048B1FF1F80B400AFBD465DF8047B704780B500AF7D
:406E8000FFF7DEF980BD00BF80B500AF00F0F2FF80BD00BF80B586B000AF0023FB759D4B1B78FB7100233B619B4B00221A80FB795BB2002B80F20481964B5B78DBB20A2B3A
:406EC00000F2FC8001A252F823F000BF15700000BD700000BD700000BD700000BD700000BD700000F96E0000BD70000087700000BD7000009D700000864BDB78DBB2012B5D
:406F00000ED100F017FEB860BB685B68824A5360814B12221A80FFF793FD0346FB7578E07C4BDB78DBB2022B24D17A4B9B78DBB2184600F0D5FDB860BB68002B69D0BB68AF
:406F40005B68754A5360744B5B6803331B78DBB29BB21B029AB2704B5B6802331B78DBB29BB213439AB26C4B1A80FFF769FD0346FB75A4E0674BDB78DBB2032B44D10023AA
:406F8000FB73664B3B6109E03B691B78BB71BB793A6913443B61FB7B0133FB735D4B9B78DBB2FA7B9A4204D23B691B78DBB2002BEAD1584B9B78DBB2EE2B01D1584B3B6162
:406FC000544B9B78DBB2002B0BD0524B9B78DAB2544B1B7C9A4204D1534800F0A1F9524B3B613B691B78DBB2002B12D03B691B78DBB29AB2484B1A80474A3B695360FFF7DF
:407000001FFD0346FB755AE002F042FA0346FB7555E054E0FB7903F00303002B1FD0022B00D02FE03C4B02221A803A4B1B79DBB203F07F023D4913465B0013449B000B4484
:407040009B78DAB23A4B1A70394B00225A70324B374A5A60FFF7F4FC0346FB7512E02E4B02221A80334B1B78DAB2314B1A70304B00225A70284B2E4A5A60FFF7E1FC0346A7
:40708000FB7500BF1BE0244B01221A80224B2A4A5A60FFF7D5FC0346FB7510E01E4B01221A801C4B1B79DBB21A46244B13441A4A5360FFF7C5FC0346FB7500E000BF19E17B
:4070C000144B5B78DBB2013B0A2B00F2128101A252F823F0DF710000F372000069720000F372000001710000F3720000F3720000F372000045710000F37200009B7100001E
:40710000044B9B78DAB20E4B1A70FFF7B5FD0346FB75EFE0006000402CB1FF1FA0B00000A8B1000048B00000BCB1FF1F48B1FF1FCCAFFF1F45B1FF1F43B1FF1FB4B1FF1F2E
:4071400042B1FF1F6E4B9B787B717B79002B06D07B79013BDBB2184600F0C2FCB8607B79002B02D0BB68002B02D17B79002B13D1644B1B78DBB27A799A4208D0614A7B7946
:407180001370614B01221A70012000F0C1F9FFF773FD0346FB75ADE0ACE000F009FE0346002B1BD0564B1B793B71554B1B79DAB2564B1A703B79564AD35CDAB23B7955496D
:4071C000CB5CDBB29A4204D04F4B01221A7000F069FBFFF751FD0346FB758BE08AE0FB7903F00303012B22D0012B0DD3022B00D039E0434B9B78DBB2002B04D100F040FDB6
:407200000346FB752FE02EE03D4B9B78DBB2012B0CD1414B1B78DBB223F00203DAB23E4B1A70FFF729FD0346FB751CE01BE0344B1B79DBB2012B15D8314B9B78DBB2DB4325
