:400000000080002011000000255A0000255A000080B500AF024A034B1B68136005F02EFDBC760040FA46004010B5054C237833B9044B13B10448AFF300800123237010BDE9
:40004000C086FF1F0000000048AF0000084B10B51BB108480849AFF300800848036803B910BD074B002BFBD0BDE81040184700BF0000000048AF0000C486FF1F0881FF1FD9
:4000800000000000B0B500AF594B1A88594B1A80594B1A88594B1A8008F068FA03461A46534B1A8008F0E8FA03461A46524B1A804F4B1B889AB24F4B1B889BB2D31A9BB2E2
:4000C0009AB24F4B1A804C4B1B889AB24B4B1B889BB2D31A9BB29AB24A4B1A80444B1B881BB2002BB8BF5B4240F6B832934217DD454B1B78012B13D0434B1B78022B0FD039
:40010000414B1B78072B0BD0002008F041FA002008F0C4FA364B00221A80374B00221A803A4B01221A703A4B1B78062B5ED1364B1B78062B5AD1374B1B889AB2304B1B8846
:400140009BB213449BB29AB2324B1A80314B1B881BB2002BB8BF5B42184609F0F7FC04460D462D4B1B881BB2184609F0EFFC02460B46104619464FF00002284B09F098FB61
:4001800002460B462046294609F0CCFF0346002B02D0234B01221A701E4B1B881BB2002BB8BF5B42184609F0D1FC04460D461A4B1B881BB2184609F0C9FC02460B461046F3
:4001C00019464FF00002154B09F074FB02460B462046294609F0A6FF0346002B03D10E4B1B88002B02D10F4B01221A70B0BD00BFF486FF1FF886FF1FF686FF1FFA86FF1FAA
:40020000FC86FF1FFE86FF1F5D81FF1FF286FF1F1887FF1F0C87FF1F0E87FF1F000052401087FF1F1187FF1F80B582B000AF464B1B78012B33D108F01FFA03461A46434B1A
:400240001B881BB2D31A002BB8BF5B42404A82FB03121112DA178A1A4FF4507101FB02F29A1A1346FB80FB88B82B17D9FB88E02B14D8384B9B78012B07D0364B5B78012BA9
:4002800003D0344BDB78012B08D100F0E1FD324B1A782D4B1A7008F0AFFE51E050E02A4B1B78022B33D108F061F903461A46274B1B881BB2D31A002BB8BF5B42244A82FB82
:4002C00003121112DA178A1A4FF4507101FB02F29A1A1346BB80BB88B82B17D9BB88E02B14D81C4B9B78012B07D01A4B5B78012B03D0184BDB78012B08D100F0A9FD164B3F
:400300001A78114B1A7008F077FE19E018E00E4B1B78072B14D108F029F903461A460B4B1B881BB2D31A002BB8BF5B42CF2B07DD00F08EFD084B1A78034B1A7008F05CFEC7
:400340000837BD4680BD00BF5D81FF1F0287FF1F4FECC44EDCB0FF1F5C81FF1F80B500AF054B1B78002B02D0044808F099FC044B00221A7080BD00BF1181FF1F4CAF00006B
:400380005D81FF1F80B500AF054B00221A60054B00221A7009F080F8034808F081FC80BD408AFF1F0087FF1F60AF000080B58EB000AF62B607F0B2FE07F0AEFF08F0C0F836
:4003C00008F044F9B14808F09BFCB14808F07AFE08F01AFDAF4808F07DFDAF4808F0C8FF0020012105F02AFE05F0C8FF0346002B01D006F02FF9A94B1B78002B01D001F0B7
:400400002FF9A74B1B78002B01D001F049F90023FB8601F065F9A14B1B78012B03D100F091FB01F02BFB9F4801F084FB9E4B1B78072B00F2448301A252F823F0BF0A000054
:40044000BF0A0000BF0A00005D040000BF0A0000A1040000C7040000C7040000934B1B78012B1CD0914B1B78022B18D08D4B1B78012B06D18B4B9B78012B02D100F064FDD1
:400480000DE0884B1B79012B06D1864B9B78012B02D100F075FD02E000F0D8FD0FE30EE3834B1B78012B0DD1824B5A88824B1A80804B9A88814B1A807D4B02221A7000F0DC
:4004C00097FDFCE2FBE2794B1B78012B00F0F682764B1B78022B00F0F182744B1B78072B00F0EC82764B1B881A46764B9B5C87F835306C4B1B78002B05D06A4B9B78002B5F
:4005000001D0012300E00023DAB26F4B1A70654B1B79002B05D0634B9B78002B01D0012300E00023DAB2694B1A70674B1B78002B03D097F83530522B09D1644B1B78002B06
:4005400000F0108197F835304C2B00F00B81604B1B68002B40F00581FB8E0133FB86FB8EB3F5C87FC0F0FD805A4B1B881BB207F12002104658491A460AF0D4F807F12003BA
:40058000184608F08DFB554B1B78012B40F0E9804F4B01221A60524808F082FB514808F07FFB514B01221A704A4B00221A80444B1B881A464D4B1B88053B9A4207DC404B23
:4005C0001B8803333F4AD35C87F8343002E0002387F8343097F834309BB21A46D20013441B019BB29AB2424B1A8097F835304C3B092B00F2818001A252F823F0330600001F
:40060000F9060000F9060000F9060000F9060000F90600005106000025060000F90600006F06000000F012FD42F2107008F07CFF63E000F089FC4CF2503008F075FF2C4B4A
:400640001B889BB28A3B9BB29AB2294B1A8054E000F096FC264B1B889BB28A3B9BB29AB2234B1A804CF2503008F05EFF45E000F0A3FC204808F058FF1D4B1B889BB2783B18
:400680009BB29AB21A4B1A8037E000BF85000000290200005D03000085030000F186FF1F1181FF1FDCB0FF1F1887FF1F5D81FF1F1287FF1F28B0FF1F1487FF1F1687FF1F6B
:4006C0003C8AFF1F1C87FF1F06B1FF1F48B0FF1F408AFF1F0C87FF1F70AF00001087FF1F84AF00009CAF00000087FF1F3E8AFF1F0E87FF1F905F010000BFB34B1B881BB224
:40070000002B02DAB04B00221A80AF4B1B881BB207F120021046AD491A460AF003F807F12003184608F0BCFA08F0A6FEA84B00221A70A84B00221A70A74B1B8802339AB2BF
:40074000A54B1A80A44B1B881A4607F120031846A24909F0E7FF07F12003184608F0A0FAACE1ABE19E4B1B78002B40F0CF809C4B5B78002B40F0CA80994B9B78002B40F0BF
:40078000C580974BDB78002B40F0C080944B1B79002B40F0BB8097F83530552B04D097F83530442B40F0B2808E4B1B68002B40F0AC8097F83530442B17D1874B1B88023336
:4007C000894AD35C87F8313097F83130552B0CD1814B1B8802339AB27F4B1A807E4B1B881A46814B9B5C87F8353097F83530552B40F08B80FB8E0133FB86FB8EB3F5166F60
:40080000C0F08380724B1B78012B7ED1774B1B881BB207F11002104675491A4609F082FF07F11003184608F03BFA704B00221A80694B1B881A466F4B1B88053B9A4207DCF0
:40084000654B1B880333684AD35C87F8333002E0002387F8333097F833309BB21A46D20013441B019BB29AB2574B1A80564B1B889BB2783B9BB29AB2534B1A805E4808F0D9
:400880000FFA5E4808F00CFA5D4B01221A705D4808F04AFE4C4B1B881BB2002B02DA4A4B00221A8008F0E8FD0023FB864D4B01221A6000F081FB464B00221A70454B0022E1
:4008C0001A70454B1B8802339AB2434B1A803E4B1B881BB207F1100210463C491A4609F021FF07F11003184608F0DAF93A4B1B881A4607F110031846384909F013FF07F192
:400900001003184608F0CCF9D8E0D7E0314B1B78012B40F0CE8097F83530442B08D097F83530552B04D097F83530532B40F0C1802E4B1B881BB23A4610462D491A4609F06D
:40094000F1FE3B46184608F0ABF9284B00221A80214B1B881A46274B1B88053B9A4207DC1D4B1B880333204AD35C87F8323002E0002387F8323097F832309BB21A46D2004A
:4009800013441B019BB29AB20F4B1A801E4808F087F997F83530532B38D0552B01D0442B59E0184808F0C0FD00F006FB064B1B889BB2783B9BB29AB2034B1A8008F05CFD1A
:4009C0000F4B01221A7046E00E87FF1FB0AF00001087FF1F1187FF1F3C8AFF1FC4AF0000DCB0FF1F408AFF1F1C87FF1F0C87FF1F70AF00003E8AFF1FD8AF00009CAF00001B
:400A00000087FF1F905F0100F0AF000000F01EFB42F2107008F088FD414B1B881BB2184609F094F802460B46104619464FF000023C4B08F03DFF02460B461046194609F0D8
:400A400085FB03469AB2364B1A8008F015FD364B01221A7000BF354B00221A70344B00221A70344B1B8802339AB2324B1A802C4B1B881BB2002B02DA294B00221A80284BAD
:400A80001B881BB23A4610462B491A4609F04AFE3B46184608F004F9264B1B881A463B461846264909F03EFE3B46184608F0F8F804E000F0CBFA0023FB86FFE700BF204BFC
:400AC0001B78072B3FF6A5AC01A252F823F000BFF10A0000F70A0000FD0A0000090B00000F0B0000150B00001B0B0000030B000000F0C0F913E000F0E5F910E000F0C8F95C
:400B00000DE000F0FBF90AE000F0A2F907E000F0FFFE04E000F0ACFF01E000F001FF78E40E87FF1F000052400087FF1F1087FF1F1187FF1F3C8AFF1FB0AF0000C4AF0000E4
:400B40005D81FF1F80B489B000AF524B1B78012B40F09A804F4B00221A704F4B5B781B029AB24D4B1B789BB213439BB2FB834B4B1B78043B1E2B00F2878001A252F823F058
:400B8000FD0B0000890C0000110C0000890C0000190C0000890C0000210C0000890C0000290C0000890C0000310C0000890C0000390C0000890C0000410C0000890C000012
:400BC000490C0000890C0000510C0000890C0000590C0000890C0000610C0000890C0000690C0000890C0000710C0000890C0000790C0000890C0000810C0000264B1B7856
:400C0000DAB2274B1A70244B5A78254B5A703BE0FA8B234B5A8037E0FA8B214B9A8033E0FA8B1F4BDA802FE0FA8B1D4B1A812BE0FA8B1B4B5A8127E0FA8B194B9A8123E0D5
:400C4000FA8B174BDA811FE0FA8B154B1A821BE0FA8B134B5A8217E0FA8B114B9A8213E0FA8B0F4BDA820FE0FA8B0D4B1A830BE0FA8B0B4B5A8307E0FA8B094B9A8303E00A
:400C8000FA8B074BDA8300BF2437BD465DF8047B704700BFEA86FF1F24B0FF1F1987FF1FE4B0FF1F80B582B000AF0346FB71FB79184607F013FB0837BD4680BD80B582B021
:400CC00000AF0346FB71FB79184607F0E9FA0837BD4680BD80B584B000AF114B1B78002B0CBF01230023DBB21A460D4B1A700C4B1B781846FFF7D6FF094B1B781846FFF704
:400D0000DDFF074B1B781A463B461846054909F009FD3B46184607F0C3FF1037BD4680BDF086FF1F00B0000080B586B000AFC7E90201C7E90023D7E900014FF000024FF022
:400D4000000309F0DBF90346002B10D0304B1B78002B0CBF01230023DBB21846FFF7AEFF3B683B607B6883F000437B6004E0284B1B781846FFF7A2FFD7E902014FF00002E1
:400D80004FF0000309F0BAF90346002B10D0204B1B78002B0CBF01230023DBB21846FFF781FFBB68BB60FB6883F00043FB6004E0174B1B781846FFF775FFD7E9020112A38A
:400DC000D3E9002309F052F802460B461046194609F0BCF90346FB82D7E900010AA3D3E9002309F043F802460B461046194609F0ADF90346BB82074ABB8A1380064AFB8A1D
:400E000013801837BD4680BD969526A5A0DBEF3FF086FF1F0887FF1F0A87FF1FAFF3008080B500AF002007F01BFA024B00221A8080BD00BF0487FF1F80B500AF002007F026
:400E40000DFB024B00221A8080BD00BF0687FF1F80B500AF4FF000004FF000014FF000024FF00003FFF760FFFFF7DAFFFFF7E4FF80BD00BF80B500AF044BD3E90001034B9D
:400E8000D3E90023FFF750FF80BD00BF6081FF1F80B500AF094BD3E90023104619464FF00002074B08F0B8FE02460B464FF000004FF00001FFF738FF80BD00BF6081FF1FC6
:400EC0000000F83F80B500AF0A4BD3E90023104619464FF00002084B08F09EFE02460B46104619464FF000024FF00003FFF71CFF80BD00BF6081FF1F0000F83FB0B500AF9E
:400F00000F4BD3E90023104683F000414FF000020C4B08F081FE02460B4614461D46084BD3E90023104619464FF00002054B08F073FE02460B4620462946FFF7F5FEB0BD64
:400F40006081FF1F0000F83F80B500AF08F054F8084B1A78084B1A70064B01221A70FFF75FFF07F089FB03461A46044B1A8008F033F880BD5D81FF1F5C81FF1F0287FF1FF4
:400F800080B500AF08F038F8084B1A78084B1A70064B02221A70FFF74FFF07F0E7FA03461A46044B1A8008F017F880BD5D81FF1F5C81FF1F0287FF1F80B500AF08F01CF8E4
:400FC000084B1A78084B1A70064B07221A70FFF73FFF07F0CBFA03461A46044B1A8007F0FBFF80BD5D81FF1F5C81FF1F0287FF1F80B500AFFFF72CFF014B00221A7080BDA3
:401000005D81FF1F80B400AF034B03221A70BD465DF8047B704700BF5D81FF1F80B400AF034B04221A70BD465DF8047B704700BF5D81FF1F80B400AF034B05221A70BD467C
:401040005DF8047B704700BF5D81FF1F80B400AF034B06221A70BD465DF8047B704700BF5D81FF1FB0B582B000AF07F0DDFD0346FB71FB79AA2B2BD1224B1B78222B20D1AF
:40108000214B224A156854689068D1681D605C609860D960156954699069D1691D615C619861D9611A4B1B78002B0AD107F014FA0346DB43DBB2184607F0F0F9144B0122F1
:4010C0001A70104B02221A70124B00221A7016E00C4B1B7803F001030F49FA79CA54094B1B7803F00103DBB2002B02D0094B01221A70044B1B780133DAB2024B1A70083773
:40110000BD46B0BD1987FF1F28B0FF1FE4B0FF1F1287FF1FEA86FF1F24B0FF1F80B588B000AF07F081FD0346FB77FB7F313B492B00F2818201A252F823F000BF8D140000A7
:4011400031130000371600003716000037160000371600003716000037160000371600003716000037160000371600003716000037160000371600003716000037160000A8
:40118000371600003716000037160000371600003716000037160000371600003716000037160000371600003716000037160000371600003716000037160000371600005F
:4011C00037160000371600003716000037160000371600003716000037160000371600003716000037160000371600003716000037160000371600003716000065120000F5
:40120000371600003716000089120000371600009512000037160000371600003716000037160000371600003716000037160000371600003716000037160000C5120000AC
:401240001B1300007D120000A1120000AD12000037160000711200003716000037160000B9120000FFF770FE9C4B00221A70E2E1FFF7BEFE994B00221A70DCE1FFF72AFD34
:40128000964B00221A70D6E1FFF77AFE934B00221A70D0E1FFF7B6FE904B00221A70CAE18E4B01221A70FFF7B9FEC4E1FFF7C2FE8A4B02221A70BEE1884B03221A70FFF73D
:4012C000C5FEB8E1854B04221A70854B00221A80844B1B881BB2184609F01AF80246824B1B681046194609F067F80346184609F0B3F903469AB27D4B1A807C4B1B881BB2BF
:401300003A4610467A491A4609F00CFA3B46184607F0C6FCFFF76CFE8DE1704B05221A7000F09EF9734B00221A70FFF76BFE82E16A4B06221A70704B1B68704A136003F06B
:40134000DBFE03469AB26E4B1A806E4B00221A806D4B00221A80002007F01AF9002007F09DF96A4B00221A8007F0CAFB26E007F05BFC0346FB77FB7F462B00D121E0FB7F79
:401380002F2B1BD9FB7F392B18D8614807F088FCFB7F184607F06AFC5E4807F081FC5B4B1B881A46920013445B009AB2FB7F9BB213449BB2303B9AB2544B1A80FB7F462B1F
:4013C000D5D1554807F050FB504B1B881A463B461846524909F0A6F93B46184607F060FC4A4B1B88BB6118E0BB6903F00103002B07D14B4ABB6913441B78184607F036FCF2
:4014000008E0474ABB6913441B783033DBB2184607F02CFCBB690133BB61394B1B881A46BB699A42E0DC3B4807F03AFC374B1B881A463B4B9B5CFB74344B1B880133384A08
:40144000D35C9BB21A46D20013441B019BB29AB2264B1A802D4B1B88002B07D1234B1B889BB2903B9BB29AB2204B1A801F4B1B881BB23A4610462B491A4609F053F93B4678
:40148000184607F00DFCFFF7E1FDD4E0134B06221A70194B1B68194A136001F05BFE03469AB2174B1A80194B00221A80002007F06FF8002007F0F2F8124B00221A80124B89
:4014C00000221A8007F01CFB4DE007F0ADFB0346FB77FB7F462B27D148E000BF1887FF1F0C87FF1F1281FF1F1481FF1F0E87FF1F0CB000001287FF1F6881FF1FD4B0FF1F30
:401500003E8AFF1FF886FF1FFA86FF1F3C8AFF1F20B000002CB000001D11000030B000001C87FF1FB0AF0000FB7F2F2B1BD9FB7F392B18D8414807F0B3FBFB7F184607F03A
:4015400095FB3F4807F0ACFB3E4B1B881A46920013445B009AB2FB7F9BB213449BB2303B9AB2384B1A80FB7F462BAED1364807F07BFA344B1B881A463B461846334909F031
:40158000D1F83B46184607F08BFB2E4B1B887B6118E07B6903F00103002B07D12C4A7B6913441B78184607F061FB08E0284A7B6913441B783033DBB2184607F057FB7B69A0
:4015C00001337B61234B1B881A467B699A42E0DC1B4807F065FB1B4B1B881A461C4B9B5CFB74184B1B880133194AD35C9BB21A46D20013441B019BB29AB2174B1A80114B4F
:401600001B88002B07D1144B1B889BB290339BB29AB2114B1A80104B1B881BB23A4610460E491A4609F07EF83B46184607F038FBFFF70CFD00BF2037BD4680BD20B000006E
:401640002CB000003C8AFF1F1D11000030B000001C87FF1F3E8AFF1F0E87FF1FB0AF000080B500AF0B4B00221A7007F00FFA07F0AFFA094B01221A708120012107F070FD35
:40168000064807F0F1F907F047FA002007F028FB80BD00BF1181FF1FF186FF1F6510000080B500AF0B4B00221A7007F0EFF907F08FFA094B01221A704FF44370012107F07E
:4016C0004FFD064807F0D0F907F026FA012007F007FB80BDF186FF1F1181FF1F1D110000B0B588B000AF824B1B78002B00D1FCE07F4B00221A707F4B1B88FB817E4B1B8860
:40170000BB814FF000027D4BC7E906234FF000027A4BC7E90423B7F90E30002B0FD1B7F90C30002B0BD14FF000024FF08043C7E906234FF000024FF08043C7E90423704BD1
:401740001B881AB2B7F90E30002BB8BF5B42D31ABB60BB6883EAE372A2EBE372BB6892FBF3F3184608F0F2F904460D46BB68002BB8BF5B42184608F0E9F902460B46104601
:40178000194607F047FF02460B462046294608F043FA02460B461046194608F0D7FC03467B60584B1B881BB2184608F0CFF904460D46786808F0CAF902460B4610461946F6
:4017C000D7E9062308F028FA02460B462046294608F070F802460B461046194608F0B6FC03469AB2474B1A80474B1B881AB2B7F90C30002BB8BF5B42D31ABB60BB6883EA9B
:40180000E372A2EBE372BB6892FBF3F3184608F09DF904460D46BB68002BB8BF5B42184608F094F902460B461046194607F0F2FE02460B462046294608F0EEF902460B46F2
:401840001046194608F082FC03467B602F4B1B881BB2184608F07AF904460D46786808F075F902460B4610461946D7E9042308F0D3F902460B462046294608F01BF80246C9
:401880000B461046194608F061FC03469AB21F4B1A801E4B1B881BB2002B02DA1B4B00221A80184B1B881BB2002B02DA154B00221A80164B1B881BB2642B02DD134B642219
:4018C0001A80104B1B881BB2642B02DD0D4B64221A800C4B1B88DBB2184606F0C1FC0B4B1B88DBB2184606F0B9FD2037BD46B0BDF286FF1FFC86FF1FFE86FF1F0000F03FA7
:401900000887FF1F0487FF1F0A87FF1F0687FF1F80B400AFBD465DF8047B7047000000002DE9B04382B000AF07F0FEFC0346FB7107F006FD0346BB7107F0EAFC03467B7175
:40194000FB79002B27D0BB79002B24D17B79002B21D1454BD3E900231046194640A3D3E9002308F083FA02460B4614461D463E4BD3E90023904683F000494046494638A3D1
:40198000D3E9002308F072FA02460B4620462946FFF7CAF95FE0FB79002B0ED07B79002B0BD0BB79002B08D12F4BD3E900012E4BD3E90023FFF7B8F94DE0BB79002B0ED02F
:4019C0007B79002B0BD0FB79002B08D1264BD3E90001254BD3E90023FFF7A6F93BE0BB79002B27D07B79002B24D1FB79002B21D11D4BD3E90023144683F00045204629461F
:401A000017A3D3E9002308F031FA02460B4614461D46154BD3E900231046194610A3D3E9002308F023FA02460B4620462946FFF77BF910E07B79002B0DD0BB79002B0AD1FB
:401A4000FB79002B07D1084BD3E90001064BD3E90023FFF769F90837BD46BDE8B08300BF9A9999999999F93F6081FF1FAFF3008080B400AFBD465DF8047B704780B584B0B4
:401A800000AF254B1B78012B42D1234B00221A70224800F075F8224B1B785BB23A46104620491A4608F03EFE3B46184600F068F81D4800F065F81A4B5B881BB23A461046A8
:401AC00018491A4608F02EFE3B46184600F058F8164800F055F8124B9B881BB23A46104610491A4608F01EFE3B46184600F048F80F4800F045F80A4BDB881BB23A46104669
:401B000008491A4608F00EFE3B46184600F038F81037BD4680BD00BFEE86FF1F68B0000028B0FF1F70B0000078B0000084B0000090B0000090B583B000AF786007F0DCFB82
:401B400003461A467B681A707B685C1C07F0ECFB034623707B689C1C07F0DAFB034623707B68DC1C07F0ECFB034623707B681C1D07F0F2FB034623700C37BD4690BD00BF34
:401B800080B584B000AF7860154B1B78002B23D00023FB600AE0FB680133FB60FB68114A934203D10E4B00221A7015E004F0DCFD0346002BEFD07B683F3300221A707B6885
:401BC0003E3321221A70786808F0D0FD03469BB27868194604F092FD1037BD4680BD00BF1881FF1FC0C62D00B0B5ADF5745D00AF07F14004343C206007F14000383801603E
:401C000007F140013C390A603A461360002307F5735202F13C021360FEE0002307F5735202F138021360E4E007F5735303F13C031B684C2202FB03F207F14003343B1B68E6
:401C4000134407F5735202F13802126853F8220007F5CA52103A07F5735303F13C0319680B46DB000B445B000B4407F5735101F1380109680B445B011344186007F5CA524D
:401C8000103A07F5735303F13C0319680B46DB000B445B000B4407F5735101F1380109680B445B01134400225A6007F5CA52103A07F5735303F13C0319680B46DB000B44B2
:401CC0005B000B4407F5735101F1380109680B445B01134408330A221A8007F5CA52103A07F5735303F13C0319680B46DB000B445B000B4407F5735101F1380109680B4433
:401D00005B011344103307F5735202F13C0212681A6007F5CA52103A07F5735303F13C0319680B46DB000B445B000B4407F5735101F1380109680B445B011344083307F535
:401D4000735202F1380212685A6007F5CA52103A07F5735303F13C0319680B46DB000B445B000B4407F5735101F1380109680B445B011344103300225A6007F5CA52103A61
:401D800007F5735303F13C0319680B46DB000B445B000B4407F5735101F1380109680B445B01134418334FF6FF721A8007F5CA52103A07F5735303F13C0319680B46DB008B
:401DC0000B445B000B4407F5735101F1380109680B445B011344183300225A6007F5735303F138031B68013307F5735202F13802136007F5735303F138031B68122B7FF636
:401E000013AF07F5735303F13C031B68013307F5735202F13C02136007F5735303F13C031B680E2B7FF6F9AE3B461B681A6807F5CA53183B1A603B461B685A6807F5CA53B7
:401E4000183B5A60002307F5735202F13402136007F14003183B1A464FF4C853104600211A4608F056FC07F14003203B00221A6000225A60002307F5735202F114021360FA
:401E8000002307F5735202F130021360002307F5735202F12C021360002307F5735202F11202138007F14003283B00221A6007F14003283B00225A60002307F5735202F125
:401EC0002802136007F14003303B00221A6000225A60002307F5735202F126021380012307F5735202F12002136007F5CA53183B196807F5CA53183B586807F5CA52103AAD
:401F00000B46DB000B445B000B4403445B011344183300221A8007F5CA53183B196807F5CA53183B5C6807F5CA53183B186807F5CA53183B5D6807F5CA52103A0346DB00BB
:401F400003445B0003442B445B01D01807F5CA52103A0B46DB000B445B000B4423445B0113441033586007F5CA53183B196807F5CA53183B5C683E4B186807F5CA52103AA1
:401F80000B46DB000B445B000B4423445B01134418335860A8E2012307F5735202F12C02136007F5CA53183B196807F5CA53183B586807F5CA52103A0B46DB000B445B008B
:401FC0000B4403445B01134401225A6082E1002307F5735202F13002136007F5735303F12C031B68012B11D107F5CA53183B1B685A1E07F14003203B1A6007F5CA53183B83
:402000005A6807F14003203B5A604BE007F5735303F12C031B68022B11D107F5CA53183B1A6807F14003203B1A6007F5CA53183B5B685A1C07F14003203B5A6032E007F5EB
:40204000735303F12C031B68032B13D107F5CA53183B1B685A1C07F14003203B1A6007F5CA53183B5A6807F14003203B5A6019E06881FF1F07F5735303F12C031B68042B58
:4020800010D107F5CA53183B1A6807F14003203B1A6007F5CA53183B5B685A1E07F14003203B5A60994B1B6807F5735202F12C0212689A4205D0002307F5735202F13002CD
:4020C000136007F14003203B1B680F2B00F2F78007F14003203B5B68132B00F2F08007F14003203B196807F14003203B586807F5CA52103A0B46DB000B445B000B4403447D
:402100005B0113441B68002B40F0D98007F5CA53183B196807F5CA53183B586807F5CA52103A0B46DB000B445B000B4403445B0113441833188807F14003203B196807F121
:402140004003203B5C6807F5CA52103A0B46DB000B445B000B4423445B01134408331B8803449AB207F5735303F130031B689BB2134407F5735202F11202138007F1400345
:40218000203B196807F14003203B586807F5CA52103A0B46DB000B445B000B4403445B01134418331B8807F5735202F1120212889A4280F0848007F14003203B196807F1BD
:4021C0004003203B586807F5CA52103A0B46DB000B445B000B4403445B011344183307F5735202F1120212881A8007F14003203B196807F14003203B5C6807F5CA53183BDC
:40220000186807F5CA53183B5D6807F5CA52103A0346DB0003445B0003442B445B01D01807F5CA52103A0B46DB000B445B000B4423445B0113441033586007F14003203B99
:40224000196807F14003183B07F5735202F13402126843F8321007F14003203B596807F14002183A07F5735303F134031B68DB001344596007F14003203B196807F14003DE
:40228000203B586807F5CA52103A0B46DB000B445B000B4403445B011344183307F5735202F12C0212685A6007F5735303F134031B68013307F5735202F13402136007F524
:4022C000735303F12C031B68013307F5735202F12C02136007F5735303F12C031B68042B7FF675AE4FF6FF7307F5735202F126021380002307F5735202F120021360002305
:4023000007F5735202F11C021360ACE06881FF1F07F14003183B07F5735202F11C02126853F8322007F14003303B1A6007F14002183A07F5735303F11C031B68DB00134418
:402340005A6807F14003303B5A6007F14003183B07F5735202F11C02126853F8321007F14002183A07F5735303F11C031B68DB001344586807F5CA52103A0B46DB000B4421
:402380005B000B4403445B01134418331B8807F5735202F1260212889A4259D907F14003183B07F5735202F11C02126853F8321007F14002183A07F5735303F11C031B68BC
:4023C000DB001344586807F5CA52103A0B46DB000B445B000B4403445B0113445B68002B36D107F14003183B07F5735202F11C02126853F8321007F14002183A07F57353C0
:4024000003F11C031B68DB001344586807F5CA52103A0B46DB000B445B000B4403445B01134418331B8807F5735202F12602138007F5735303F11C031B6807F5735202F12A
:4024400028021360012307F5735202F12002136007F5735303F11C031B68013307F5735202F11C02136007F5735303F11C031A6807F5735303F134031B689A42FFF448AFF4
:4024800007F14003183B07F5735202F12802126853F8322007F5CA53183B1A6007F14002183A07F5735303F128031B68DB0013445A6807F5CA53183B5A6007F5CA53183B3D
:4024C000196807F5CA53183B586807F5CA52103A0B46DB000B445B000B4403445B01134418335B68A04A136007F5CA53183B1A6807F5745303F110031B681B689A420CD1CC
:4025000007F5CA53183B5A6807F5745303F110031B6804331B689A4207D007F5735303F120031B68012B3FF436AD002307F5735202F12C02136007F5CA53183B1A6807F5B3
:40254000745303F110031B681B689A4240F0058107F5CA53183B5A6807F5745303F110031B6804331B689A4240F0F78007F5CA53183B196807F5CA53183B586807F5CA520C
:40258000103A0B46DB000B445B000B4403445B01134407F5735202F1180213606AE007F5735303F12C031A6813465B0013449B001A4607F140033C3B1B68134407F573526D
:4025C00002F11802126812691A6007F5735303F12C031A6813465B0013449B001A4607F140033C3B1B68134407F5735202F118021268D2685A6007F5735303F12C031A68C3
:4026000013465B0013449B001A4607F140033C3B1B68981807F5735303F118031B68196907F5735303F118031B68DC6807F5CA52103A0B46DB000B445B000B4423445B01F7
:40264000134418335B68836007F5735303F118031B685B6907F5735202F11802136007F5735303F12C031B68013307F5735202F12C02136007F5735303F118031B681A69F1
:402680003B461B681B689A4289D107F5735303F118031B68DA683B461B6804331B689A427FF47DAF07F5735303F12C031A6813465B0013449B001A4607F140033C3B1B68EC
:4026C000134407F5735202F11802126812691A6007F5735303F12C031A6813465B0013449B001A4607F140033C3B1B68134407F5735202F118021268D2685A6007F573534F
:4027000003F12C031A6813465B0013449B001A4607F140033C3B1B68981807F5735303F118031B68196907F5735303F118031B68DC6807F5CA52103A0B46DB000B445B0063
:402740000B4423445B01134418335B68836007F5735303F12C031B6800E00023184607F57457BD46B0BD00BF6881FF1FB0B5ADF5745D00AF07F14004343C206007F140004E
:402780003838016007F140013C390A603A461360002307F5735202F13C021360FDE0002307F5735202F138021360E3E007F5735303F13C031B684C2202FB03F207F140037E
:4027C000343B1B68134407F5735202F13802126853F8220007F5CA52103A07F5735303F13C0319680B46DB000B445B000B4407F5735101F1380109680B445B0113441860E8
:4028000007F5CA52103A07F5735303F13C0319680B46DB000B445B000B4407F5735101F1380109680B445B01134400225A6007F5CA52103A07F5735303F13C0319680B4638
:40284000DB000B445B000B4407F5735101F1380109680B445B01134408330A221A8007F5CA52103A07F5735303F13C0319680B46DB000B445B000B4407F5735101F138013D
:4028800009680B445B011344103307F5735202F13C0212681A6007F5CA52103A07F5735303F13C0319680B46DB000B445B000B4407F5735101F1380109680B445B01134421
:4028C000083307F5735202F1380212685A6007F5CA52103A07F5735303F13C0319680B46DB000B445B000B4407F5735101F1380109680B445B011344103300225A6007F505
:40290000CA52103A07F5735303F13C0319680B46DB000B445B000B4407F5735101F1380109680B445B011344183300221A8007F5CA52103A07F5735303F13C0319680B4608
:40294000DB000B445B000B4407F5735101F1380109680B445B011344183300225A6007F5735303F138031B68013307F5735202F13802136007F5735303F138031B68122B44
:402980007FF614AF07F5735303F13C031B68013307F5735202F13C02136007F5735303F13C031B680E2B7FF6FAAE3B461B681A6807F5CA53183B1A603B461B685A6807F5D2
:4029C000CA53183B5A60002307F5735202F13402136007F14003183B1A464FF4C853104600211A4607F095FE07F14003203B00221A6000225A60002307F5735202F1140285
:402A00001360002307F5735202F130021360002307F5735202F12C021360002307F5735202F11202138007F14003283B00221A6007F14003283B00225A60002307F5735219
:402A400002F12802136007F14003303B00221A6000225A60002307F5735202F124021360012307F5735202F12002136007F5CA53183B196807F5CA53183B586807F5CA529A
:402A8000103A0B46DB000B445B000B4403445B011344183300221A8007F5CA53183B196807F5CA53183B5C6807F5CA53183B186807F5CA53183B5D6807F5CA52103A0346C1
:402AC000DB0003445B0003442B445B01D01807F5CA52103A0B46DB000B445B000B4423445B0113441033586007F5CA53183B196807F5CA53183B586807F5CA52103A0B46F7
:402B0000DB000B445B000B4403445B011344183307F5745202F1140212685A60002307F5735202F11C02136002E3012307F5735202F12C02136007F5CA53183B196807F5CE
:402B4000CA53183B586807F5CA52103A0B46DB000B445B000B4403445B01134401225A6083E1002307F5735202F13002136007F5735303F12C031B68012B11D107F5CA5358
:402B8000183B1B685A1E07F14003203B1A6007F5CA53183B5A6807F14003203B5A6049E007F5735303F12C031B68022B11D107F5CA53183B1A6807F14003203B1A6007F59F
:402BC000CA53183B5B685A1C07F14003203B5A6030E007F5735303F12C031B68032B11D107F5CA53183B1B685A1C07F14003203B1A6007F5CA53183B5A6807F14003203B1B
:402C00005A6017E007F5735303F12C031B68042B10D107F5CA53183B1A6807F14003203B1A6007F5CA53183B5B685A1E07F14003203B5A6007F5735303F12C031A6807F513
:402C4000745303F114031B689A4205D0002307F5735202F13002136007F14003203B1B680F2B00F2F78007F14003203B5B68132B00F2F08007F14003203B196807F14003CB
:402C8000203B586807F5CA52103A0B46DB000B445B000B4403445B0113441B68002B40F0D98007F5CA53183B196807F5CA53183B586807F5CA52103A0B46DB000B445B00F0
:402CC0000B4403445B0113441833188807F14003203B196807F14003203B5C6807F5CA52103A0B46DB000B445B000B4423445B01134408331B8803449AB207F5735303F167
:402D000030031B689BB2134407F5735202F11202138007F14003203B196807F14003203B586807F5CA52103A0B46DB000B445B000B4403445B01134418331B8807F5735241
:402D400002F1120212889A4240F2848007F14003203B196807F14003203B586807F5CA52103A0B46DB000B445B000B4403445B011344183307F5735202F1120212881A806B
:402D800007F14003203B196807F14003203B5C6807F5CA53183B186807F5CA53183B5D6807F5CA52103A0346DB0003445B0003442B445B01D01807F5CA52103A0B46DB00D5
:402DC0000B445B000B4423445B0113441033586007F14003203B196807F14003183B07F5735202F13402126843F8321007F14003203B596807F14002183A07F5735303F1A6
:402E000034031B68DB001344596007F14003203B196807F14003203B586807F5CA52103A0B46DB000B445B000B4403445B011344183307F5735202F12C0212685A6007F5A2
:402E4000735303F134031B68013307F5735202F13402136007F5735303F12C031B68013307F5735202F12C02136007F5735303F12C031B68042B7FF674AE002307F573524A
:402E800002F124021360002307F5735202F120021360002307F5735202F118021360ABE007F14003183B07F5735202F11802126853F8322007F14003303B1A6007F140025E
:402EC000183A07F5735303F118031B68DB0013445A6807F14003303B5A6007F14003183B07F5735202F11802126853F8321007F14002183A07F5735303F118031B68DB00BA
:402F00001344586807F5CA52103A0B46DB000B445B000B4403445B01134418331B881A4607F5735303F124031B689A4259D907F14003183B07F5735202F11802126853F81C
:402F4000321007F14002183A07F5735303F118031B68DB001344586807F5CA52103A0B46DB000B445B000B4403445B0113445B68002B36D107F14003183B07F5735202F185
:402F80001802126853F8321007F14002183A07F5735303F118031B68DB001344586807F5CA52103A0B46DB000B445B000B4403445B01134418331B8807F5735202F12402D5
:402FC000136007F5735303F118031B6807F5735202F128021360012307F5735202F12002136007F5735303F118031B68013307F5735202F11802136007F5735303F11803B2
:403000001A6807F5735303F134031B689A42FFF447AF07F14003183B07F5735202F12802126853F8322007F5CA53183B1A6007F14002183A07F5735303F128031B68DB00A5
:4030400013445A6807F5CA53183B5A6007F5CA53183B196807F5CA53183B586807F5CA52103A0B46DB000B445B000B4403445B01134418335B6807F5745202F1140213602B
:4030800007F5735303F11C031A6813465B0013449B001A4607F140033C3B1B681A4407F5CA53183B1B68136007F5735303F11C031A6813465B0013449B001A4607F1400326
:4030C0003C3B1B681A4407F5CA53183B5B68536007F5735303F11C031A6813465B0013449B001A4607F140033C3B1B68981807F5CA53183B196807F5CA53183B5C6807F53B
:40310000CA52103A0B46DB000B445B000B4423445B01134418335B68836007F5735303F11C031B68013307F5735202F11C02136007F5735303F120031B68012B3FF4F5ACCC
:4031400007F5735303F11C031B68184607F57457BD46B0BD90B5ADF5175D81B002AF1B4B1B681B4A009201931A481B491B4A1C4BFFF7FCFA034607F5165202F11802136006
:40318000002307F5165202F134021360002307F5165202F132021380002307F5165202F12C021360002307F5165202F128021360002307F5165202F124021360002307F547
:4031C000165202F12002136001F071BF6881FF1F7481FF1F7C81FF1FF085FF1F448AFF1F6C81FF1F002307F5165202F12402136007F5165303F120031B685A1CCF49134606
:403200005B0013449B000B441968CC4807F5165303F120031A6813465B0013449B0003441B68013399421DD107F5165303F120031B685A1CC14913465B0013449B000B447E
:4032400004331968BD4807F5165303F120031A6813465B0013449B00034404331B68994201F0078207F5165303F120031B685A1CB24913465B0013449B000B441968AF48BA
:4032800007F5165303F120031A6813465B0013449B0003441B68013B99421DD107F5165303F120031B685A1CA44913465B0013449B000B4404331968A04807F5165303F14B
:4032C00020031A6813465B0013449B00034404331B68994201F0CD8107F5165303F120031B685A1C954913465B0013449B000B4404331968914807F5165303F120031A6891
:4033000013465B0013449B00034404331B68013B99421BD107F5165303F120031B685A1C864913465B0013449B000B441968834807F5165303F120031A6813465B00134455
:403340009B0003441B68994201F0938107F5165303F120031B685A1C784913465B0013449B000B4404331968744807F5165303F120031A6813465B0013449B000344043347
:403380001B68013399421BD107F5165303F120031B685A1C694913465B0013449B000B441968664807F5165303F120031A6813465B0013449B0003441B68994201F0598130
:4033C00007F5165303F120031A6807F5165303F134031B68D31A002B28DD07F5165303F132031B88564A4421D15407F5165303F132031B88013307F5165202F120021268EC
:40340000D1B207F5165202F134021268D2B28A1AD1B24B4AD15407F5165303F132031B88023307F5165202F132021380002307F5165202F12802136007F13803343B1A4600
:403440004FF41653104600211A4607F062F93B4907F5165303F120031A6813465B0013449B000B441B6807F5165202F10C021360324907F5165303F120031A6813465B0078
:4034800013449B000B4404331B6807F5165202F11002136007F5165303F120031B685A1C264913465B0013449B000B441B6807F5165202F10402136007F5165303F120038D
:4034C0001B685A1C1D4913465B0013449B000B4404331B6807F5165202F108021360174907F5165303F120031A6813465B0013449B000B4408331B68124A136007F13803D7
:40350000343B07F5165404F10C0407F5165202F1040200920C480D491A462346FEF764FB034607F5165202F11402136007F5165303F114031B6807F5165209E0448AFF1FA6
:403540001C87FF1F6881FF1F7C81FF1FF085FF1F02F11C02136001F074B807F13802343A07F5165303F11C0319680B465B000B449B00134408331B68012B11D007F13802B1
:40358000343A07F5165303F11C0319680B465B000B449B00134408331B68032B40F0228407F13802343A07F5165303F11C0319680B465B000B449B001344196807F13802BC
:4035C000343A07F5165303F11C03186803465B0003449B00134404331B685A1E95480B46DB000B445B000B44134450F82330002B29D007F13802343A07F5165303F11C0326
:4036000019680B465B000B449B001344196807F13802343A07F5165303F11C03186803465B0003449B00134404331B685A1C81480B46DB000B445B000B44134450F8233016
:40364000002B40F0F38207F13802343A07F5165303F11C0319680B465B000B449B0013440833186807F5165303F11C031B68591E07F13802343A0B465B000B449B0013443A
:4036800008331B68984200F0878207F13802343A07F5165303F11C0319680B465B000B449B00134408331B68012B11D107F5165303F11C031B68591E07F13802343A0B46C4
:4036C0005B000B449B00134408331B68042B6BD007F13802343A07F5165303F11C0319680B465B000B449B00134408331B68032B11D107F5165303F11C031B68591E07F148
:403700003802343A0B465B000B449B00134408331B68022B48D007F13802343A07F5165303F11C0319680B465B000B449B00134408331B68012B0FD107F5165303F1200325
:403740001B685A1C3C4913465B0013449B000B4408331B68042B20D007F13802343A07F5165303F11C0319680B465B000B449B00134408331B68032B62D107F5165303F1FB
:4037800020031B685A1C2C4913465B0013449B000B4408331B68022B52D107F5165303F11C031B68012B4BD107F5165303F132031B88224A4C21D15407F5165303F1320375
:4037C0001B88013307F5165202F114021268D1B207F5165202F11C021268D2B28A1AD1B207F5165202F128021268D2B28A1AD2B20132D1B2114AD15407F5165303F1320383
:403800001B88023307F5165202F13202138007F5165303F114031A6807F5165303F11C031B68D31A013307F5165202F128021360B1E100BF7C81FF1F448AFF1F1C87FF1F77
:4038400007F13802343A07F5165303F11C0319680B465B000B449B00134408331B68012B11D107F5165303F11C031B68591E07F13802343A0B465B000B449B0013440833BC
:403880001B68022B6BD007F13802343A07F5165303F11C0319680B465B000B449B00134408331B68032B11D107F5165303F11C031B68591E07F13802343A0B465B000B44BC
:4038C0009B00134408331B68042B48D007F13802343A07F5165303F11C0319680B465B000B449B00134408331B68012B0FD107F5165303F120031B685A1CCA4913465B0045
:4039000013449B000B4408331B68022B20D007F13802343A07F5165303F11C0319680B465B000B449B00134408331B68032B5BD107F5165303F120031B685A1CB9491346FD
:403940005B0013449B000B4408331B68012B4BD107F5165303F11C031B68042B44D107F5165303F132031B88AF4A5221D15407F5165303F132031B88013307F5165202F1E8
:4039800014021268D1B207F5165202F11C021268D2B28A1AD1B207F5165202F128021268D2B28A1AD2B20132D1B29F4AD15407F5165303F132031B88023307F5165202F132
:4039C0003202138007F5165303F114031A6807F5165303F11C031B68D31A013307F5165202F128021360D6E007F13802343A07F5165303F11C0319680B465B000B449B0019
:403A0000134408331B68012B11D107F5165303F11C031B68591E07F13802343A0B465B000B449B00134408331B68032B6ED007F13802343A07F5165303F11C0319680B4650
:403A40005B000B449B00134408331B68032B11D107F5165303F11C031B68591E07F13802343A0B465B000B449B00134408331B68012B4BD007F13802343A07F5165303F1DF
:403A80001C0319680B465B000B449B00134408331B68012B0FD107F5165303F120031B685A1C604913465B0013449B000B4408331B68032B22D007F13802343A07F51653B9
:403AC00003F11C0319680B465B000B449B00134408331B68032B40F0A48007F5165303F120031B685A1C4F4913465B0013449B000B4408331B68012B40F0938007F5165371
:403B000003F11C031B68012B40F08B8007F5165303F132031B88444A5521D15407F5165303F132031B88013307F5165202F114021268D1B207F5165202F11C021268D2B2EC
:403B40008A1AD1B207F5165202F128021268D2B28A1AD2B20132D1B2334AD15407F5165303F132031B88023307F5165202F13202138007F5165303F114031A6807F5165344
:403B800003F11C031B68D31A013307F5165202F12802136045E044E007F5165303F132031B88214A5321D15407F5165303F132031B88013307F5165202F114021268D1B20D
:403BC00007F5165202F11C021268D2B28A1AD1B207F5165202F128021268D2B28A1AD2B20132D1B2104AD15407F5165303F132031B88023307F5165202F13202138007F5CF
:403C0000165303F114031A6807F5165303F11C031B68D31A013307F5165202F128021360D9E0D8E0448AFF1F1C87FF1F07F13802343A07F5165303F11C0319680B465B001B
:403C40000B449B00134408331B68012B11D107F5165303F11C031B68591E07F13802343A0B465B000B449B00134408331B68032B6BD007F13802343A07F5165303F11C03F9
:403C800019680B465B000B449B00134408331B68032B11D107F5165303F11C031B68591E07F13802343A0B465B000B449B00134408331B68012B48D007F13802343A07F52B
:403CC000165303F11C0319680B465B000B449B00134408331B68012B0FD107F5165303F120031B685A1C3D4913465B0013449B000B4408331B68032B20D007F13802343AA4
:403D000007F5165303F11C0319680B465B000B449B00134408331B68032B5CD107F5165303F120031B685A1C2C4913465B0013449B000B4408331B68012B4CD107F5165339
:403D400003F11C031B68012B45D107F5165303F132031B88224A5521D15407F5165303F132031B88013307F5165202F114021268D1B207F5165202F11C021268D2B28A1A4D
:403D8000D1B207F5165202F128021268D2B28A1AD2B20132D1B2124AD15407F5165303F132031B88023307F5165202F13202138007F5165303F114031A6807F5165303F1D3
:403DC0001C031B68D31A013307F5165202F12802136000F020BC00F01EBC00BF448AFF1F1C87FF1F07F13802343A07F5165303F11C0319680B465B000B449B0013441B6801
:403E0000591E07F13802343A07F5165303F11C03186803465B0003449B00134404331A6895480B46DB000B445B000B44134450F82330002B29D007F13802343A07F51653C0
:403E400003F11C0319680B465B000B449B0013441B68591C07F13802343A07F5165303F11C03186803465B0003449B00134404331A6881480B46DB000B445B000B44134456
:403E800050F82330002B40F0F38207F13802343A07F5165303F11C0319680B465B000B449B0013440833186807F5165303F11C031B68591E07F13802343A0B465B000B4449
:403EC0009B00134408331B68984200F0878207F13802343A07F5165303F11C0319680B465B000B449B00134408331B68042B11D107F5165303F11C031B68591E07F1380246
:403F0000343A0B465B000B449B00134408331B68032B6BD007F13802343A07F5165303F11C0319680B465B000B449B00134408331B68022B11D107F5165303F11C031B68B1
:403F4000591E07F13802343A0B465B000B449B00134408331B68012B48D007F13802343A07F5165303F11C0319680B465B000B449B00134408331B68042B0FD107F5165383
:403F800003F120031B685A1C3C4913465B0013449B000B4408331B68032B20D007F13802343A07F5165303F11C0319680B465B000B449B00134408331B68022B62D107F5FB
:403FC000165303F120031B685A1C2C4913465B0013449B000B4408331B68012B52D107F5165303F11C031B68012B4BD107F5165303F132031B88224A4C21D15407F51653FA
:4040000003F132031B88013307F5165202F114021268D1B207F5165202F11C021268D2B28A1AD1B207F5165202F128021268D2B28A1AD2B20132D1B2114AD15407F516533A
:4040400003F132031B88023307F5165202F13202138007F5165303F114031A6807F5165303F11C031B68D31A013307F5165202F128021360B1E100BF7C81FF1F448AFF1FC7
:404080001C87FF1F07F13802343A07F5165303F11C0319680B465B000B449B00134408331B68042B11D107F5165303F11C031B68591E07F13802343A0B465B000B449B0042
:4040C000134408331B68012B6BD007F13802343A07F5165303F11C0319680B465B000B449B00134408331B68022B11D107F5165303F11C031B68591E07F13802343A0B468E
:404100005B000B449B00134408331B68032B48D007F13802343A07F5165303F11C0319680B465B000B449B00134408331B68042B0FD107F5165303F120031B685A1CCA4904
:4041400013465B0013449B000B4408331B68012B20D007F13802343A07F5165303F11C0319680B465B000B449B00134408331B68022B5BD107F5165303F120031B685A1C5E
:40418000B94913465B0013449B000B4408331B68032B4BD107F5165303F11C031B68012B44D107F5165303F132031B88AF4A5221D15407F5165303F132031B88013307F5A1
:4041C000165202F114021268D1B207F5165202F11C021268D2B28A1AD1B207F5165202F128021268D2B28A1AD2B20132D1B29F4AD15407F5165303F132031B88023307F5EA
:40420000165202F13202138007F5165303F114031A6807F5165303F11C031B68D31A013307F5165202F128021360D6E007F13802343A07F5165303F11C0319680B465B005F
:404240000B449B00134408331B68042B11D107F5165303F11C031B68591E07F13802343A0B465B000B449B00134408331B68022B6ED007F13802343A07F5165303F11C03EE
:4042800019680B465B000B449B00134408331B68022B11D107F5165303F11C031B68591E07F13802343A0B465B000B449B00134408331B68042B4BD007F13802343A07F520
:4042C000165303F11C0319680B465B000B449B00134408331B68042B0FD107F5165303F120031B685A1C604913465B0013449B000B4408331B68022B22D007F13802343A77
:4043000007F5165303F11C0319680B465B000B449B00134408331B68022B40F0A48007F5165303F120031B685A1C4F4913465B0013449B000B4408331B68042B40F0938026
:4043400007F5165303F11C031B68012B40F08B8007F5165303F132031B88444A5521D15407F5165303F132031B88013307F5165202F114021268D1B207F5165202F11C023D
:404380001268D2B28A1AD1B207F5165202F128021268D2B28A1AD2B20132D1B2334AD15407F5165303F132031B88023307F5165202F13202138007F5165303F114031A6863
:4043C00007F5165303F11C031B68D31A013307F5165202F12802136045E044E007F5165303F132031B88214A5321D15407F5165303F132031B88013307F5165202F114025D
:404400001268D1B207F5165202F11C021268D2B28A1AD1B207F5165202F128021268D2B28A1AD2B20132D1B2104AD15407F5165303F132031B88023307F5165202F1320218
:40444000138007F5165303F114031A6807F5165303F11C031B68D31A013307F5165202F128021360D7E0D6E0448AFF1F1C87FF1F07F13802343A07F5165303F11C031968F4
:404480000B465B000B449B00134408331B68042B11D107F5165303F11C031B68591E07F13802343A0B465B000B449B00134408331B68022B6BD007F13802343A07F5165316
:4044C00003F11C0319680B465B000B449B00134408331B68022B11D107F5165303F11C031B68591E07F13802343A0B465B000B449B00134408331B68042B48D007F1380238
:40450000343A07F5165303F11C0319680B465B000B449B00134408331B68042B0FD107F5165303F120031B685A1CCF4913465B0013449B000B4408331B68022B20D007F105
:404540003802343A07F5165303F11C0319680B465B000B449B00134408331B68022B5AD107F5165303F120031B685A1CBE4913465B0013449B000B4408331B68042B4AD11E
:4045800007F5165303F11C031B68012B43D107F5165303F132031B88B44A5521D15407F5165303F132031B88013307F5165202F114021268D1B207F5165202F11C02126838
:4045C000D2B28A1AD1B207F5165202F128021268D2B28A1AD2B20132D1B2A44AD15407F5165303F132031B88023307F5165202F13202138007F5165303F114031A6807F52E
:40460000165303F11C031B68D31A013307F5165202F12802136007F5165303F12C031B68013307F5165202F12C02136007F5165303F11C031B68013B07F5165202F11C0283
:40464000136007F5165303F11C031B68002B3EF784AF07F5165303F120031B6807F5165202F134021360012307F5165202F12402136007F5165303F124031B68002B40F0C8
:404680000085794907F5165303F120031A6813465B0013449B000B4408331B68012B0FD0714907F5165303F120031A6813465B0013449B000B4408331B68032B40F0748238
:4046C000694907F5165303F120031A6813465B0013449B000B441A68634807F5165303F1200319680B465B000B449B00034404331B68591E5E481346DB0013445B001344FA
:404700000B4450F82330002B25D0574907F5165303F120031A6813465B0013449B000B441A68514807F5165303F1200319680B465B000B449B00034404331B68591C4C4824
:404740001346DB0013445B0013440B4450F82330002B40F0B281444907F5165303F120031A6813465B0013449B000B440833196807F5165303F120031B685A1C3A481346F8
:404780005B0013449B00034408331B68994200F05F81354907F5165303F120031A6813465B0013449B000B4408331B68012B0FD107F5165303F120031B685A1C2A49134680
:4047C0005B0013449B000B4408331B68042B1ED0254907F5165303F120031A6813465B0013449B000B4408331B68032B4BD107F5165303F120031B685A1C1B4913465B004C
:4048000013449B000B4408331B68022B3BD107F5165303F132031B88144A4C21D15407F5165303F132031B88013307F5165202F120021268D1B207F5165202F1340212683D
:40484000D2B28A1AD1B2094AD15407F5165303F132031B88023307F5165202F13202138007F5165306E000BF448AFF1F1C87FF1F7C81FF1F03F120031B6807F5165202F1CE
:4048800034021360E3E0C64907F5165303F120031A6813465B0013449B000B4408331B68012B0FD107F5165303F120031B685A1CBB4913465B0013449B000B4408331B6894
:4048C000022B1ED0B64907F5165303F120031A6813465B0013449B000B4408331B68032B43D107F5165303F120031B685A1CAC4913465B0013449B000B4408331B68042B5F
:4049000033D107F5165303F132031B88A54A5221D15407F5165303F132031B88013307F5165202F120021268D1B207F5165202F134021268D2B28A1AD1B29A4AD15407F529
:40494000165303F132031B88023307F5165202F13202138007F5165303F120031B6807F5165202F13402136071E08D4907F5165303F120031A6813465B0013449B000B4496
:4049800008331B68012B0FD107F5165303F120031B685A1C824913465B0013449B000B4408331B68032B1ED07D4907F5165303F120031A6813465B0013449B000B4408332A
:4049C0001B68032B78D107F5165303F120031B685A1C734913465B0013449B000B4408331B68012B68D107F5165303F132031B886C4A5521D15407F5165303F132031B88C1
:404A0000013307F5165202F120021268D1B207F5165202F134021268D2B28A1AD1B2614AD15407F5165303F132031B88023307F5165202F13202138007F5165303F120034A
:404A40001B6807F5165202F13402136034E033E007F5165303F132031B88524A5321D15407F5165303F132031B88013307F5165202F120021268D1B207F5165202F13402BE
:404A80001268D2B28A1AD1B2464AD15407F5165303F132031B88023307F5165202F13202138007F5165303F120031B6807F5165202F13402136072E071E0394907F516530F
:404AC00003F120031A6813465B0013449B000B4408331B68012B0FD107F5165303F120031B685A1C2E4913465B0013449B000B4408331B68032B1ED0294907F5165303F1D8
:404B000020031A6813465B0013449B000B4408331B68032B43D107F5165303F120031B685A1C1F4913465B0013449B000B4408331B68012B33D107F5165303F132031B88EA
:404B4000184A5521D15407F5165303F132031B88013307F5165202F120021268D1B207F5165202F134021268D2B28A1AD1B20D4AD15407F5165303F132031B88023307F5CD
:404B8000165202F13202138007F5165303F120031B6807F5165202F13402136071E270E2448AFF1F1C87FF1FA64907F5165303F120031A6813465B0013449B000B441B681D
:404BC0005A1EA04807F5165303F1200319680B465B000B449B000344043319689A481346DB0013445B0013440B4450F82330002B25D0944907F5165303F120031A68134666
:404C00005B0013449B000B441B685A1C8D4807F5165303F1200319680B465B000B449B0003440433196888481346DB0013445B0013440B4450F82330002B40F0B18181492A
:404C400007F5165303F120031A6813465B0013449B000B440833196807F5165303F120031B685A1C774813465B0013449B00034408331B68994200F05E81724907F51653DC
:404C800003F120031A6813465B0013449B000B4408331B68042B0FD107F5165303F120031B685A1C674913465B0013449B000B4408331B68032B1ED0624907F5165303F1A1
:404CC00020031A6813465B0013449B000B4408331B68022B43D107F5165303F120031B685A1C584913465B0013449B000B4408331B68012B33D107F5165303F132031B88F1
:404D0000524A4C21D15407F5165303F132031B88013307F5165202F120021268D1B207F5165202F134021268D2B28A1AD1B2474AD15407F5165303F132031B88023307F5A0
:404D4000165202F13202138007F5165303F120031B6807F5165202F134021360EAE0394907F5165303F120031A6813465B0013449B000B4408331B68042B0FD107F51653A1
:404D800003F120031B685A1C2E4913465B0013449B000B4408331B68012B1ED0294907F5165303F120031A6813465B0013449B000B4408331B68022B4AD107F5165303F1DB
:404DC00020031B685A1C1F4913465B0013449B000B4408331B68032B3AD107F5165303F132031B88194A5221D15407F5165303F132031B88013307F5165202F120021268BF
:404E0000D1B207F5165202F134021268D2B28A1AD1B20E4AD15407F5165303F132031B88023307F5165202F13202138007F5165303F120031B6807F5165202F1340213603D
:404E400078E000BF448AFF1F7C81FF1F1C87FF1FA74907F5165303F120031A6813465B0013449B000B4408331B68042B0FD107F5165303F120031B685A1C9D4913465B0094
:404E800013449B000B4408331B68022B1ED0984907F5165303F120031A6813465B0013449B000B4408331B68022B78D107F5165303F120031B685A1C8D4913465B0013447A
:404EC0009B000B4408331B68042B68D107F5165303F132031B88874A5521D15407F5165303F132031B88013307F5165202F120021268D1B207F5165202F134021268D2B29F
:404F00008A1AD1B27B4AD15407F5165303F132031B88023307F5165202F13202138007F5165303F120031B6807F5165202F13402136034E033E007F5165303F132031B8885
:404F40006C4A5321D15407F5165303F132031B88013307F5165202F120021268D1B207F5165202F134021268D2B28A1AD1B2614AD15407F5165303F132031B88023307F523
:404F8000165202F13202138007F5165303F120031B6807F5165202F13402136071E070E0534907F5165303F120031A6813465B0013449B000B4408331B68042B0FD107F5D7
:404FC000165303F120031B685A1C494913465B0013449B000B4408331B68022B1ED0444907F5165303F120031A6813465B0013449B000B4408331B68022B42D107F51653F5
:4050000003F120031B685A1C394913465B0013449B000B4408331B68042B32D107F5165303F132031B88334A5521D15407F5165303F132031B88013307F5165202F12002D2
:405040001268D1B207F5165202F134021268D2B28A1AD1B2274AD15407F5165303F132031B88023307F5165202F13202138007F5165303F120031B6807F5165202F13402DB
:40508000136007F5165303F12C031B68013307F5165202F12C02136007F5165303F120031B68013307F5165202F12002136007F5165303F120031A6807F5165303F11803B5
:4050C0001B689A42FEF68EA807F5165303F132031B88084A0021D15407F5165303F132031B88184607F516573C37BD4690BD00BF448AFF1F1C87FF1FB0B5AAB004AF0023A2
:40510000C7F894300023C7F890300023C7F88C3000F074BC0023C7F89030D7F89430002B07D0B14B1B68B14A1360AF4B5B68AF4A5360AF4AD7F88C3052F83330AA4A136067
:40514000AB4AD7F88C30DB0013445B68A64A5360A64B1D68A54B5C68A34B1968A24B5A68A44B1B68381D009101920293A2492A46234605F0D7FA3B1D184603F091FD9A4BA9
:4051800000939E489A499E4A984BFCF72DFD0346C7F88430D7F88430C7F8883000F006BC9749D7F8882013465B0013449B000B4408331B68012B0CD09149D7F88820134687
:4051C0005B0013449B000B4408331B68032B40F0FA818B49D7F8882013465B0013449B000B441A688648D7F888100B465B000B449B00034404331B68591E80481346DB007B
:4052000013445B0013440B4450F82330002B1FD07B49D7F8882013465B0013449B000B441A687748D7F888100B465B000B449B00034404331B68591C70481346DB0013443A
:405240005B0013440B4450F82330002B40F060816B49D7F8882013465B0013449B000B4408331968D7F888305A1E654813465B0013449B00034408331B68994200F01F81B8
:405280005F49D7F8882013465B0013449B000B4408331B68012B0CD1D7F888305A1E584913465B0013449B000B4408331B68042B18D05349D7F8882013465B0013449B00F0
:4052C0000B4408331B68032B34D1D7F888305A1E4B4913465B0013449B000B4408331B68022B27D1474AD7F8943013444C221A70D7F894300133D7F88420D1B2D7F888205C
:40530000D2B28A1AD1B2D7F89020D2B28A1AD2B20132D1B23B4AD154D7F894300233C7F89430D7F88420D7F88830D31A0133C7F89030C3E03249D7F8882013465B001344B2
:405340009B000B4408331B68012B0CD1D7F888305A1E2B4913465B0013449B000B4408331B68022B18D02649D7F8882013465B0013449B000B4408331B68032B44D1D7F896
:4053800088305A1E1E4913465B0013449B000B4408331B68042B37D11A4AD7F89430134452221A70D7F894300133D7F88420D1B2D7F88820D2B28A1AD1B2D7F89020D2B23E
:4053C0008A1AD2B20132D1B20E4AD154D7F894300233C7F89430D7F88420D7F88830D31A0133C7F8903069E07481FF1F6C81FF1FF085FF1F6881FF1F9CB000007C81FF1F05
:40540000448AFF1F1C87FF1FC749D7F8882013465B0013449B000B4408331B68012B0CD1D7F888305A1EC04913465B0013449B000B4408331B68032B18D0BB49D7F8882030
:4054400013465B0013449B000B4408331B68032B5DD1D7F888305A1EB34913465B0013449B000B4408331B68012B50D1AF4AD7F89430134455221A70D7F894300133D7F8A8
:405480008420D1B2D7F88820D2B28A1AD1B2D7F89020D2B28A1AD2B20132D1B2A34AD154D7F894300233C7F89430D7F88420D7F88830D31A0133C7F8903028E027E09B4AD7
:4054C000D7F89430134453221A70D7F894300133D7F88420D1B2D7F88820D2B28A1AD1B2D7F89020D2B28A1AD2B20132D1B28F4AD154D7F894300233C7F89430D7F8842047
:40550000D7F88830D31A0133C7F890305AE059E08549D7F8882013465B0013449B000B4408331B68012B0CD1D7F888305A1E7E4913465B0013449B000B4408331B68032B29
:4055400018D07949D7F8882013465B0013449B000B4408331B68032B34D1D7F888305A1E714913465B0013449B000B4408331B68012B27D16D4AD7F89430134455221A70F2
:40558000D7F894300133D7F88420D1B2D7F88820D2B28A1AD1B2D7F89020D2B28A1AD2B20132D1B2614AD154D7F894300233C7F89430D7F88420D7F88830D31A0133C7F836
:4055C0009030EEE1EDE15849D7F8882013465B0013449B000B441B685A1E5348D7F888100B465B000B449B0003440433196850481346DB0013445B0013440B4450F82330F0
:40560000002B1FD04849D7F8882013465B0013449B000B441B685A1C4348D7F888100B465B000B449B0003440433196840481346DB0013445B0013440B4450F82330002BF9
:4056400040F056813849D7F8882013465B0013449B000B4408331968D7F888305A1E324813465B0013449B00034408331B68994200F015812C49D7F8882013465B001344FE
:405680009B000B4408331B68042B0CD1D7F888305A1E254913465B0013449B000B4408331B68032B18D02049D7F8882013465B0013449B000B4408331B68022B3AD1D7F866
:4056C00088305A1E184913465B0013449B000B4408331B68012B2DD1144AD7F8943013444C221A70D7F894300133D7F88420D1B2D7F88820D2B28A1AD1B2D7F89020D2B21A
:405700008A1AD2B20132D1B2084AD154D7F894300233C7F89430D7F88420D7F88830D31A0133C7F89030B9E0448AFF1F1C87FF1F7C81FF1FB849D7F8882013465B0013444B
:405740009B000B4408331B68042B0CD1D7F888305A1EB14913465B0013449B000B4408331B68012B18D0AC49D7F8882013465B0013449B000B4408331B68022B34D1D7F895
:4057800088305A1EA44913465B0013449B000B4408331B68032B27D1A04AD7F89430134452221A70D7F894300133D7F88420D1B2D7F88820D2B28A1AD1B2D7F89020D2B23F
:4057C0008A1AD2B20132D1B2944AD154D7F894300233C7F89430D7F88420D7F88830D31A0133C7F8903059E08B49D7F8882013465B0013449B000B4408331B68042B0CD1A0
:40580000D7F888305A1E844913465B0013449B000B4408331B68022B18D07F49D7F8882013465B0013449B000B4408331B68022B5DD1D7F888305A1E774913465B001344BD
:405840009B000B4408331B68042B50D1734AD7F89430134455221A70D7F894300133D7F88420D1B2D7F88820D2B28A1AD1B2D7F89020D2B28A1AD2B20132D1B2674AD154F2
:40588000D7F894300233C7F89430D7F88420D7F88830D31A0133C7F8903028E027E05F4AD7F89430134453221A70D7F894300133D7F88420D1B2D7F88820D2B28A1AD1B283
:4058C000D7F89020D2B28A1AD2B20132D1B2534AD154D7F894300233C7F89430D7F88420D7F88830D31A0133C7F8903059E058E04949D7F8882013465B0013449B000B44B1
:4059000008331B68042B0CD1D7F888305A1E424913465B0013449B000B4408331B68022B18D03D49D7F8882013465B0013449B000B4408331B68022B33D1D7F888305A1E6B
:40594000354913465B0013449B000B4408331B68042B26D1314AD7F89430134455221A70D7F894300133D7F88420D1B2D7F88820D2B28A1AD1B2D7F89020D2B28A1AD2B260
:405980000132D1B2254AD154D7F894300233C7F89430D7F88420D7F88830D31A0133C7F89030D7F88830013BC7F88830D7F88830002B3FF7F5ABD7F88420D7F890309A4218
:4059C00017D0164AD7F89430134444221A70D7F894300133D7F88420D1B2D7F89020D2B28A1AD1B20D4AD154D7F894300233C7F89430D7F88C300133C7F88C30D7F88C2023
:405A0000074B1B689A42FFF485ABD7F8943018469837BD46B0BD00BF448AFF1F1C87FF1F2086FF1F80B400AFFEE700BF80B584B000AF78600F4B1A687B6813441A460E4BEC
:405A4000D31A802B09DC0B4B1B68FB60094B1A687B681344074A136007E004F023FE02460C2313604FF0FF33FB60FB6818461037BD4680BD2886FF1FE8B1FF1F80B586B0B9
:405A800000AF224B7B61224B3B61204B7B6135E03B691B68FB603B695B68BB603B699B683B6000237B600CE0FB681A68BB681A60BB680433BB60FB680433FB607B68043353
:405AC0007B607A683B689A42EED13B69DB683B6000237B6008E0BB6800221A60BB680433BB607B6804337B607A683B689A42F2D13B6910333B617B69013B7B617B69002B68
:405B0000C6D104F0D5FDFAF751FCFEE7010000001CB3000080B582B000AF174B174A1A60174A174B1B6843F40073136000237B600FE07B68032B04D8124A7B6852F82330A9
:405B400000E0114B11497A6841F822307B6801337B607B682F2BECD90D4B1B78DAB20D4B1A700D4B094A1A6000F098F90B4B00221A600837BD4680BD0CED00E00004FA05E2
:405B800014ED00E000000000255A00000080FF1FBC7600400481FF1F08ED00E00081FF1F80B582B000AF78603960786800213A6804F0AFFD0837BD4680BD00BF80B584B0ED
:405BC00000AFF860B9607A60F868B9687A6804F095FD1037BD4680BD80B483B000AF0346FB71FEE780B487B000AF7860396000233B6100237B6127E07B699B007A68134483
:405C00001B68BB60BB68FB73BB6823F0FF03BB6014E03B695B003A6813441B781A46BB68134419463B695B003A6813445B780B703B6901333B61FB7B013BFB73FB7B002BAF
:405C4000E7D17B6901337B617B69292BD4D91C37BD465DF8047B704780B582B000AF444B0F221A80434B1B221A70434B81221A80424B18221A70424B04221A80414B1822BE
:405C80001A70414B3B221A80404B18221A70404B3B221A803F4B18221A703F4B00221A803E4B1B221A703E4B01221A803D4B1B221A703D4B41F287321A803C4B1B221A7031
:405CC0003B4B06221A703B4B52221A703A4B3B4A1278D2B21A703A4B40F619121A80394B41F251221A800023FB7019237B6014E0FB785B00DAB2344B1B78DBB203F0010379
:405D0000DBB21343DBB203F00303FB704FF4F07002F02AF97B68013B7B607B68002B02D0FB78032BE4D17B68002B02D10320FFF753FF264B4FF480721A80244B07221A70F9
:405D4000234B00221A70234B48221A701F4B00221A70214B00221A70204B02221A70204B1B781F4BFF221A700837BD4680BD00BF8040004082400040844000408640004003
:405D8000884000408A4000408C4000408E40004090400040924000409440004096400040984000409A4000409C4000409E4000400043004000420040A14600400F0100497A
:405DC0002242004020420040254200400440004006400040084000400940004001400040A243004080B582B000AF204B1B78FB711F4B1B78BB711F4B1B787B711E4AFB7987
:405E000003F00703DBB213701C4AFB791B09DBB21370174ABB7943F00303DBB21370154A7B7943F00303DBB21370154B08221A70144B40221A70144B40221A70134B802223
:405E40001A70134B20221A70124B80221A700A2002F0A6F8074A7B791370054ABB7913700D4B44221A700837BD4680BDCF010049F8460040F94600406E5800406F58004073
:405E80000D510040095900400B590040285B00402B5B0040585B00407658004080B586B000AF72B64E4B61221A70FFF7D5FE4C4B01221A700023FB7513E0FA7D13465B00CE
:405EC00013445B00474A13443B613B691A683B699B889BB210461946FFF762FEFB7D0133FB75FB7D062BE8D90023FB751CE0FA7D13469B0013445B003B4A1344FB60FB685B
:405F00001B68BB60FB685B687B60FB681A7A5B7A1B0213437B807B88B86879681A46FFF74DFEFB7D0133FB75FB7D012BDFD94FF090402E49FFF756FE2D4A2D4B1B78DBB28C
:405F400043F00203DBB213702A4A2A4B1B78DBB243F00203DBB21370274A274B1B78DBB243F04003DBB21370244A244B1B78DBB243F01003DBB21370214822490822FFF7B8
:405F80001DFE214821490A22FFF718FE204821490A22FFF713FE204820490822FFF70EFE1F4820490822FFF709FE1F481F490822FFF704FE1E4B44221A701E4A1D4B1B7815
:405FC000DBB243F00803DBB21370FFF70BFF1A4809490E22FFF7F2FD1837BD4680BD00BF00480040C8B00000F4B00000A80000480350014013500140A0430040C24300407B
:4060000002510040C80F0048C0510040D00F0048F0510040DC0F004812510040E80F004822510040F00F004832510040F80F00485B02014022430040B043004080B582B0B7
:4060400000AF03460A46FB711346BB71084B1B78002B04D100F00EF8054B01221A70FA79BB791046194600F0D5F80837BD4680BDC8AFFF1F80B582B000AF01F07DFF034615
:40608000FB71534A524B1B78DBB243F00103DBB21370504A4F4B1B78DBB243F00103DBB213704D4B01221A704C4B02221A704C4A4B4B1B78DBB203F07F03DBB213700020BD
:4060C00001F06EFF474A474B1B78DBB223F00603DBB21370444A444B1B78DBB223F02003DBB213703F4A3F4B1B78DBB243F00103DBB21370012001F053FF282001F050FFEA
:406100003A4A3A4B1B78DBB203F07F03DBB21370364A364B1B78DBB223F04003DBB21370304A304B1B78DBB243F00203DBB21370022001F035FF2B4A2A4B1B78DBB243F049
:406140000403DBB213702A4B00221A70294B00221A70FB79184601F013FF1720072101F059FF1720244901F02DFF1820072101F051FF1820214901F025FF1520072101F0E3
:4061800049FF15201E4901F01DFF0120072101F041FF01201B4901F015FF0220072101F039FF0220184901F00DFF0320072101F031FF0320154901F005FF0C20072101F0D0
:4061C00029FF0C20124901F0FDFE0837BD4680BDA5430040B54300409D60004009600040106000409443004012600040F85100408460004085600040516F000021680000AB
:40620000456F0000416E0000956E0000E96E00005D6F000080B582B000AF03460A46FB711346BB712E4AFB7913702E4B00221A702D4B00221A702D4B00221A702C4B0022C0
:406240001A702C4B00221A702B4B00221A702B4B00221A702A4B4FF400021A60284B4FF080721A60264B4FF400121A60244B02221A60234B04221A60214B08221A60BB793C
:40628000002B02D0012B09D011E01E4A1D4B1B78DBB223F00103DBB2137011E0194A194B1B78DBB243F00103DBB2137008E0154A144B1B78DBB243F00103DBB2137000BFE9
:4062C000114B03221A70114B80221A70012001F04BFE0F4B04221A700837BD4680BD00BF21B1FF1F24B1FF1F40B1FF1F43B1FF1F38B1FF1F42B1FF1F45B1FF1F20B1FF1F49
:4063000000E100E00960004028600040086000401260004080B400AF0F4B00221A700F4B00221A700E4B00221A700E4B00221A700D4B00221A700D4B00221A700C4B002257
:406340001A700C4B03221A700B4B80221A70BD465DF8047B704700BF24B1FF1F40B1FF1F43B1FF1F38B1FF1F42B1FF1F45B1FF1F20B1FF1F286000400860004080B400AF3C
:40638000034B1B78DBB21846BD465DF8047B704743B1FF1F80B483B000AF0346FB71FA79064913465B0013449B000B445B78DBB218460C37BD465DF8047B704748B1FF1F49
:4063C000B0B485B000AF03463960FB711346BB80FB79002B66D0FB79082B63D8B988FA79324813465B0013449B000344DB889BB2C3F5007399420BD9FA792C4913465B006B
:4064000013449B000B44DB889BB2C3F50073BB80274CF979BB881B0A9BB2D8B2FA79234D13465B0013449B002B44DB78DBB20343DAB20B0123441A701D4AFB79B988C9B2A3
:406440001B0113440A465A703B68002B13D00023FB810CE01748FB79FA8939680A4412781B01034408331A70FB890133FB81FA89BB889A42EED3FA790C4913465B001344F2
:406480009B000B4400225A700948F979FA79074C13465B0013449B0023445B79DAB20B0103449A701437BD46B0BC704748B1FF1FFC5F00407060004090B482B000AF034612
:4064C000FB71FB79002B19D0FB79082B16D8FA790C4913465B0013449B000B4400225A700948F979FA79074C13465B0013449B0023445B79DAB20B0103449A700837BD46D5
:4065000090BC704748B1FF1FFC5F004080B582B000AF0023FB71324B1B79DBB2184600F069F80346BB712E4B1B78DBB2DBB25BB2002B16DA2A4B5B78DBB2212B00D00FE011
:40654000284B07221A80BA791346DB009B1A264A1344244A536000F0DDFA0346FB7100BF38E01F4B5B78DBB2202B02D0222B1AD030E01C4B07221A80BA791346DB009B1A1A
:40658000194A1344174A5360BB79BA7917498A5CD2B242F00102D1B2144AD15400F03AFB0346FB7116E0BB790D4A9278D2B291B20F4A22F81310BB79BA790C498A5CD2B2B9
:4065C00042F00202D1B2094AD15400F0BFFB0346FB7100BFFB7918460837BD4680BD00BF006000402CB1FF1F2C86FF1F08B1FF1F1CB1FF1F80B485B000AF0346FB7100231F
:40660000FB73FF23BB7317E0FB7B104AD35C7B737A7B0F4913465B0013449B000B4408339B78DBB2FA799A4203D1FB7BBB730223FB73FB7B0133FB73FB7B012BE4D9BB7B94
:4066400018461437BD465DF8047B704710B1FF1F48B1FF1F80B582B000AF0023BB71224B00221A70214B00221A70204B00225A700023FB7110E0FB791D4AD35C7B717B7997
:40668000002B06D07B79082B03D87B791846FFF713FFFB790133FB71FB79012BEBD9154B1B78DBB2002B18D0114B1B78DBB2002B13D0114B1B78DBB2002B0ED00D4B1B7878
:4066C000DBB2082B09D80A4B1B78DBB2082B04D8094B1B78DBB2082B01D90123BB71BB7918460837BD4680BDC9AFFF1F08B1FF1F14B1FF1F0CB1FF1F10B1FF1F80B584B020
:4067000000AF78600B467B80144B1B781A46144B9B5CFB73FA7B134913465B0013449B000B4408331B889BB27A889A420CD9FA7B0C4913465B0013449B000B4408331B881F
:406740007B80002001F020FCFA7B7B88104679681A46FFF735FE1037BD4680BDC9AFFF1F0CB1FF1F48B1FF1F80B500AF054B1B781A46054B9B5CDBB21846FFF70BFE034609
:40678000184680BDC9AFFF1F0CB1FF1F80B485B000AF78600B46FB701346BB707B68DB7803F00303FB737B689B78DBB25BB2002B1ADAFB7B032B0AD0BB7803F0010315494B
:4067C000FA78CA54BB7843F00103BB701BE0BB789B08DBB203F001030F49FA78CA54BB7843F00403BB700EE0FB7B032B0BD0BB785B08DBB203F001030849FA78CA54BB7804
:4068000043F00203BB70BB7818461437BD465DF8047B70470CB1FF1F10B1FF1F14B1FF1F80B582B000AF374B1B78BB71BB7903F01003002B63D00123FB71BB795BB2002B03
:4068400013DABB7903F00F03012B02D00023FB711DE000F061F82C4B1B78DBB2DBB25BB2002B14DA0023FB7111E0BB7903F04003002B02D000F094F809E0BB7903F020033F
:40688000002B02D000F0B2F801E00023FB71FB79002B34D01B4B1B78BB71BB795BB2002B2DDB1A4B1B78DAB2194B1B78DBB21343BB71184ABB791370164B1B78DBB2BA793E
:4068C0009A421CD1104B1B78FB710E4B1B78DBB223F07F03BB71BB79002B0AD1094B0A4A1278D2B21A70074B1B78DBB203F00F03FB71054B1B78DBB2FA799A42E2D108372D
:40690000BD4680BD2860004041B1FF1FB6B1FF1F44B1FF1F2960004080B582B000AF1D4B1B78FB711B4AFB7913701A4B1B78FB71FB795BB2002B03DA174AFB79137025E0BB
:40694000022000F043FA154B1B78DBB203F06003202B08D0402B0BD0002B0ED100F004FB0346FB710CE002F0FBFD0346FB7107E001F0C0FA0346FB7102E00023FB7100BFD9
:40698000FB79002B02D1044B03221A700837BD4680BD00BF2860004041B1FF1F0060004080B500AF104B1B78DBB2062B19D801A252F823F0E3690000E3690000D16900005E
:4069C000E3690000D7690000E3690000DD69000000F0FAF806E000F0A9F903E000F0D2F900E000BF80BD00BF24B1FF1F80B500AF124B1B78DBB2062B1DD801A252F823F06C
:406A0000376A0000376A00001D6A0000376A0000236A0000376A0000296A000000F0DAF80AE000F029F907E0032000F0CFF9044B03221A7000E000BF80BD00BF24B1FF1F1F
:406A400041B1FF1F80B483B000AF0023FB71294B1B78DBB29AB2284B1B889BB213449AB2254B1A8015E02549FB79254A52681278D2B2CA54224B5B680133214A5360FB794F
:406A80000133FB711E4B1B889BB2013B9AB21C4B1A801B4B1B889BB2002B02D0FB79072BE1D9144B1B78DBB2082B02D0FB79002B0FD0144B1B78DBB283F07F03DB43DAB281
:406AC000104B1A70104B0F221A70104B02221A7005E00D4B02221A700C4B02221A700C4AFB791370034AFB7913700C37BD465DF8047B704720B1FF1F22B1FF1F00600040C0
:406B00002CB1FF1FB6B1FF1F41B1FF1F24B1FF1F44B1FF1F80B582B000AF164B1B889BB2002B02D100F02EF81EE0134B02221A70124B00221A7000F069F9114BDB79DBB2A2
:406B40009BB21B029AB20E4B9B79DBB29BB21343FB80084B1B889BB2FA889A4202D2054AFB881380FFF76EFF012318460837BD4680BD00BF2CB1FF1F24B1FF1FB6B1FF1FD7
:406B80000060004080B400AF0A4B02221A700A4B80221A70094B0F221A70094B00221A70084B00221A7001231846BD465DF8047B704700BF24B1FF1FB6B1FF1F41B1FF1F69
:406BC00020B1FF1F44B1FF1F80B500AFFFF73AFF80BD00BF80B500AF0A4B1B78DBB29AB2094B1B889BB213449AB2074B1A80074B00221A70012000F0E9F8054B03221A701D
:406C000080BD00BF20B1FF1F22B1FF1F24B1FF1F41B1FF1F80B582B000AF124B04221A70114B80221A7000F0F1F8104BDB79DBB29BB21B029AB20D4B9B79DBB29BB2134363
:406C4000FB800B4B1B889BB2FA889A4202D2084AFB881380074B0B221A70012318460837BD4680BD24B1FF1FB6B1FF1F006000402CB1FF1F41B1FF1F80B483B000AF002353
:406C8000BB71234B1B78DBB203F00F03DBB2023BFB71FB799AB21F4B1B889BB213449AB21C4B1A8018E01C4B5B681C49BA798A5CD2B21A70184B5B680133174A5360BB79D1
:406CC0000133BB71FB79013BFB71134B1B889BB2013B9AB2104B1A800F4B1B889BB2002B02D0FB79002BDED10D4AFB7913700D4B1B78DBB283F07F03DB43DAB2094B1A7075
:406D0000094B0B221A700C37BD465DF8047B70472960004022B1FF1F2CB1FF1F0060004044B1FF1FB6B1FF1F41B1FF1F80B500AF044B00221A70012000F048F8024B0322D8
:406D40001A7080BD24B1FF1F41B1FF1F80B400AF084B06221A70084B06221A70074B80221A70074B00221A7001231846BD465DF8047B704724B1FF1F41B1FF1FB6B1FF1F48
:406D800044B1FF1F80B500AF0C4B1B78DBB2002B0AD00B4A094B1B78DBB263F07F03DBB21370064B00221A70064B00221A70012000F00CF8044B03221A7080BD42B1FF1F57
:406DC0000860004024B1FF1F41B1FF1F80B483B000AF0346FB710B4B9B68002B0CD0094B9B68FA791A70074B9B68074A128892B25A80044B00229A600C37BD465DF8047B86
:406E0000704700BF2CB1FF1F22B1FF1F80B400AF094B00221A80094B9B68002B07D0074B9B6800221A70054B9B6800225A80BD465DF8047B704700BF22B1FF1F2CB1FF1F1B
:406E400080B400AF104A104B1B78DBB223F00103DBB213700D4B9B7C0D4B1B7BDBB203F00303012B08D00A4BDB7BDBB283F07F03DB43DAB2064BDA73054B01225A73BD4694
:406E80005DF8047B704700BF0B600040FC5F004048B1FF1F80B400AF104A104B1B78DBB223F00203DBB213700D4B93F822300D4B1B7EDBB203F00303012B08D0094BDB7EEE
:406EC000DBB283F07F03DB43DAB2064BDA76054B01225A76BD465DF8047B70470B600040FC5F004048B1FF1F80B400AF124A124B1B78DBB223F00403DBB213700F4B93F8CC
:406F000032300F4B93F82430DBB203F00303012B0AD00B4B93F82730DBB283F07F03DB43DAB2074B83F82720054B012283F82520BD465DF8047B70470B600040FC5F0040AB
:406F400048B1FF1F80B400AFBD465DF8047B704780B500AFFFF7DEF980BD00BF80B500AF00F0F2FF80BD00BF80B586B000AF0023FB759D4B1B78FB7100233B619B4B0022C0
:406F80001A80FB795BB2002B80F20481964B5B78DBB20A2B00F2FC8001A252F823F000BFE97000009171000091710000917100009171000091710000CD6F00009171000050
:406FC0005B7100009171000071710000864BDB78DBB2012B0ED100F017FEB860BB685B68824A5360814B12221A80FFF793FD0346FB7578E07C4BDB78DBB2022B24D17A4BE4
:407000009B78DBB2184600F0D5FDB860BB68002B69D0BB685B68754A5360744B5B6803331B78DBB29BB21B029AB2704B5B6802331B78DBB29BB213439AB26C4B1A80FFF702
:4070400069FD0346FB75A4E0674BDB78DBB2032B44D10023FB73664B3B6109E03B691B78BB71BB793A6913443B61FB7B0133FB735D4B9B78DBB2FA7B9A4204D23B691B78E6
:40708000DBB2002BEAD1584B9B78DBB2EE2B01D1584B3B61544B9B78DBB2002B0BD0524B9B78DAB2544B1B7C9A4204D1534800F0A1F9524B3B613B691B78DBB2002B12D059
:4070C0003B691B78DBB29AB2484B1A80474A3B695360FFF71FFD0346FB755AE002F040FA0346FB7555E054E0FB7903F00303002B1FD0022B00D02FE03C4B02221A803A4BBB
:407100001B79DBB203F07F023D4913465B0013449B000B449B78DAB23A4B1A70394B00225A70324B374A5A60FFF7F4FC0346FB7512E02E4B02221A80334B1B78DAB2314B88
:407140001A70304B00225A70284B2E4A5A60FFF7E1FC0346FB7500BF1BE0244B01221A80224B2A4A5A60FFF7D5FC0346FB7510E01E4B01221A801C4B1B79DBB21A46244B7F
:4071800013441A4A5360FFF7C5FC0346FB7500E000BF19E1144B5B78DBB2013B0A2B00F2128101A252F823F0B3720000C77300003D730000C7730000D5710000C7730000DA
:4071C000C7730000C773000019720000C77300006F720000044B9B78DAB20E4B1A70FFF7B5FD0346FB75EFE0006000402CB1FF1F74B100007CB200001CB10000BCB1FF1F2E
:4072000048B1FF1FCCAFFF1F45B1FF1F43B1FF1FB4B1FF1F42B1FF1F6E4B9B787B717B79002B06D07B79013BDBB2184600F0C2FCB8607B79002B02D0BB68002B02D17B7950
