:400000000080002011000000B9260000B926000080B500AF024A034B1B68136002F078FBBC760040FA46004010B5054C237833B9044B13B10448AFF300800123237010BDE4
:400040004083FF1F00000000D47E0000084B10B51BB108480849AFF300800848036803B910BD074B002BFBD0BDE81040184700BF00000000D47E00004483FF1F0881FF1F29
:400080000000000080B489B000AF524B1B78012B40F09A804F4B00221A704F4B5B781B029AB24D4B1B789BB213439BB2FB834B4B1B78043B1E2B00F2878001A252F823F01F
:4000C0003D010000C901000051010000C901000059010000C901000061010000C901000069010000C901000071010000C901000079010000C901000081010000C90100008C
:4001000089010000C901000091010000C901000099010000C9010000A1010000C9010000A9010000C9010000B1010000C9010000B9010000C9010000C1010000264B1B7805
:40014000DAB2274B1A70244B5A78254B5A703BE0FA8B234B5A8037E0FA8B214B9A8033E0FA8B1F4BDA802FE0FA8B1D4B1A812BE0FA8B1B4B5A8127E0FA8B194B9A8123E0A0
:40018000FA8B174BDA811FE0FA8B154B1A821BE0FA8B134B5A8217E0FA8B114B9A8213E0FA8B0F4BDA820FE0FA8B0D4B1A830BE0FA8B0B4B5A8307E0FA8B094B9A8303E0D5
:4001C000FA8B074BDA8300BF2437BD465DF8047B704700BF6A83FF1F7C90FF1F9783FF1F2891FF1F80B582B000AF0346FB71FB79184604F0C3FE0837BD4680BD80B582B0E8
:4002000000AF0346FB71FB79184604F099FE0837BD4680BD80B584B000AF114B1B78002B0CBF01230023DBB21A460D4B1A700C4B1B781846FFF7D6FF094B1B781846FFF71D
:40024000DDFF074B1B781A463B461846054907F02FFA3B46184605F073FB1037BD4680BD7083FF1FD87E000080B586B000AFC7E90201C7E90023D7E900014FF000024FF0FF
:40028000000306F001FF0346002B10D0304B1B78002B0CBF01230023DBB21846FFF7AEFF3B683B607B6883F000437B6004E0284B1B781846FFF7A2FFD7E902014FF0000283
:4002C0004FF0000306F0E0FE0346002B10D0204B1B78002B0CBF01230023DBB21846FFF781FFBB68BB60FB6883F00043FB6004E0174B1B781846FFF775FFD7E9020112A32D
:40030000D3E9002306F078FD02460B461046194606F0E2FE0346FB82D7E900010AA3D3E9002306F069FD02460B461046194606F0D3FE0346BB82074ABB8A1380064AFB8A47
:4003400013801837BD4680BD969526A5A0DBEF3F7083FF1F8883FF1F8A83FF1FAFF3008080B500AF002004F0CBFD024B00221A8080BD00BF8483FF1F80B500AF002004F053
:40038000BDFE024B00221A8080BD00BF8683FF1F80B500AF4FF000004FF000014FF000024FF00003FFF760FFFFF7DAFFFFF7E4FF80BD00BF80B500AF044BD3E90001034B39
:4003C000D3E90023FFF750FF80BD00BF6081FF1F80B500AF074BD3E900231046194606F02FFA02460B464FF000004FF00001FFF73BFF80BD6081FF1F80B500AF084BD3E97E
:4004000000231046194606F01BFA02460B46104619464FF000024FF00003FFF725FF80BD6081FF1FB0B500AF0E4BD3E90023144683F000452046294622462B4606F000FAB6
:4004400002460B4614461D46064BD3E900231046194606F0F5F902460B4620462946FFF703FFB0BD6081FF1F80B500AF05F014FC084B1A78084B1A70064B01221A70FFF7EC
:400480006FFF04F049FF03461A46044B1A8005F0F3FB80BD5D81FF1F5C81FF1F8283FF1F80B500AF05F0F8FB084B1A78084B1A70064B02221A70FFF75FFF04F0A7FE034603
:4004C0001A46044B1A8005F0D7FB80BD5D81FF1F5C81FF1F8283FF1F80B500AF05F0DCFB084B1A78084B1A70064B07221A70FFF74FFF04F08BFE03461A46044B1A8005F0D7
:40050000BBFB80BD5D81FF1F5C81FF1F8283FF1F80B500AFFFF73CFF014B00221A7080BD5D81FF1F80B400AF034B03221A70BD465DF8047B704700BF5D81FF1F80B400AF5C
:40054000034B04221A70BD465DF8047B704700BF5D81FF1F80B400AF034B05221A70BD465DF8047B704700BF5D81FF1F80B400AF034B06221A70BD465DF8047B704700BFD9
:400580005D81FF1FB0B582B000AF05F09DF90346FB71FB79AA2B2BD1224B1B78222B20D1214B224A156854689068D1681D605C609860D960156954699069D1691D615C61E1
:4005C0009861D9611A4B1B78002B0AD104F0D4FD0346DB43DBB2184604F0B0FD144B01221A70104B02221A70124B00221A7016E00C4B1B7803F001030F49FA79CA54094BE0
:400600001B7803F00103DBB2002B02D0094B01221A70044B1B780133DAB2024B1A700837BD46B0BD9783FF1F8090FF1F2891FF1F9083FF1F6A83FF1F7C90FF1F80B5A6B04F
:4006400000AF05F041F9034687F8973097F89730613B192B00F2B68001A252F823F000BFC9060000C5070000C5070000ED060000C5070000F9060000C5070000C507000033
:40068000C5070000C5070000C5070000C5070000C5070000C5070000C5070000C50700002907000083070000E10600000507000011070000C5070000D506000099070000CE
:4006C000C50700001D070000FFF7CEFE3F4B00221A7077E0FFF71CFF3C4B00221A7071E0FFF798FD394B00221A706BE0FFF7D8FE364B00221A7065E0FFF714FF334B002239
:400700001A705FE0314B01221A70FFF717FF59E0FFF720FF2D4B02221A7053E02B4B03221A70FFF723FF4DE0284B04221A70284B00221A80274B1B881BB2184606F0AEFD77
:400740000246254B1B681046194606F0FBFD0346184606F047FF03469AB2204B1A801F4B1B881BB207F1840210461D491A4606F09FFF07F18403184605F0E2F8FFF7C8FEAE
:4007800020E0124B05221A7000F0AAF9154B00221A70FFF7C7FE15E00C4B06221A70124B1A78124B1A7001F047FC3B1D18461049104A06F07DFF3B1D184605F0C1F8FFF794
:4007C000D5FE00BF9837BD4680BD00BF9683FF1F8C83FF1F1281FF1F1481FF1F8E83FF1FE47E00009083FF1F6881FF1F2691FF1FF87E00009883FF1FB0B586B000AF684B87
:400800001A88684B1A80684B1A88684B1A8004F0FDFC03461A46624B1A8004F07DFD03461A46614B1A805E4B1B889AB25D4B1B889BB2D31A9BB29AB25D4B1A805A4B1B88AD
:400840009AB25A4B1B889BB2D31A9BB29AB2594B1A80534B1B881BB2002BB8BF5B4240F6B83293421BDD544B1B78012B17D0524B1B78022B13D0514B1B78042B0FD04E4B3E
:400880001B78072B0BD0002004F0D2FC002004F055FD434B00221A80434B00221A80484B01221A70454B1B78042B2AD1454B1B889AB23F4B1B889BB213449BB29AB2414BBA
:4008C0001A80404B1B881BB23A4610463E491A4606F0EEFE3B46184605F032F8394B1B881BB283EAE372A2EBE372384B1B881BB29A4205DBFFF716FE304B00221A704CE022
:400900004BE02E4B1B78052B47D1314B5B881AB2304B1B881BB2D31A184606F0DDF802460B46104619464FF000022B4B06F064FA02460B4614461D46254B9B881AB2274B8C
:400940001B881BB2D31A184606F0C6F802460B46104619464FF000021F4B06F04DFA02460B462046294605F08BFCC7E904011C4B1B881BB2184606F0AFF802460B46104672
:400980001946D7E9042306F089FB0346002B04D0FFF7C8FD094B00221A701837BD46B0BD7483FF1F7883FF1F7683FF1F7A83FF1F7C83FF1F7E83FF1F5D81FF1F9683FF1FE6
:4009C0007283FF1F8C83FF1F007F00008E83FF1F8090FF1F9283FF1F000010409483FF1F1281FF1F80B500AF264B1B78012B15D104F092FC03461A46234B1B881BB2D31A82
:400A0000002BB8BF5B42CF2B3BDDFFF7C1FC1F4B1A781C4B1A7005F03FF932E0194B1B78022B15D104F0F2FB03461A46164B1B881BB2D31A002BB8BF5B42CF2B21DDFFF707
:400A4000A7FC124B1A780F4B1A7005F025F918E00C4B1B78072B14D104F0D8FB03461A46094B1B881BB2D31A002BB8BF5B42CF2B07DDFFF78DFC054B1A78024B1A7005F089
:400A80000BF980BD5D81FF1F8283FF1F5C81FF1F80B500AF054B1B78002B02D0044804F04FFF044B00221A7080BD00BF1181FF1F0C7F00005D81FF1F80B500AF054B002205
:400AC0001A70054B00221A7005F036FB034804F037FF80BDBA86FF1F8083FF1F207F000080B500AF0B4B00221A7004F01FFE04F0BFFE094B01221A708120012105F080F9A0
:400B0000064804F001FE04F057FE002004F038FF80BD00BF1181FF1F7183FF1F8505000080B500AF0B4B00221A7004F0FFFD04F09FFE094B01221A704FF44370012105F023
:400B40005FF9064804F0E0FD04F036FE012004F017FF80BD7183FF1F1181FF1F3D060000B0B588B000AF814B1B78002B00D1FAE07E4B00221A707E4B1B88FB817D4B1B8820
:400B8000BB814FF000027C4BC7E906234FF00002794BC7E90423B7F90E30002B0DD1B7F90C30002B09D14FF00002734BC7E906234FF00002704BC7E90423704B1B881AB27F
:400BC000B7F90E30002BB8BF5B42D31ABB60BB6883EAE372A2EBE372BB6892FBF3F3184605F07AFF04460D46BB68002BB8BF5B42184605F071FF02460B461046194605F092
:400C000097FB02460B462046294605F0CBFF02460B461046194606F05FFA03467B60584B1B881BB2184605F057FF04460D46786805F052FF02460B4610461946D7E906237E
:400C400005F0B0FF02460B462046294605F0F8FD02460B461046194606F03EFA03469AB2474B1A80474B1B881AB2B7F90C30002BB8BF5B42D31ABB60BB6883EAE372A2EB95
:400C8000E372BB6892FBF3F3184605F025FF04460D46BB68002BB8BF5B42184605F01CFF02460B461046194605F042FB02460B462046294605F076FF02460B4610461946BF
:400CC00006F00AFA03467B602F4B1B881BB2184605F002FF04460D46786805F0FDFE02460B4610461946D7E9042305F05BFF02460B462046294605F0A3FD02460B461046B5
:400D0000194606F0E9F903469AB21F4B1A801E4B1B881BB2002B02DA1B4B00221A80184B1B881BB2002B02DA154B00221A80164B1B881BB2642B02DD134B64221A80104BD3
:400D40001B881BB2642B02DD0D4B64221A800C4B1B88DBB2184604F0D3F80B4B1B88DBB2184604F0CBF92037BD46B0BD7283FF1F7C83FF1F7E83FF1F0000F03F8883FF1F6F
:400D80008483FF1F8A83FF1F8683FF1F2DE9B04382B000AF05F018F90346FB7105F020F90346BB7105F004F903467B71FB79002B27D0BB79002B24D17B79002B21D1454BE2
:400DC000D3E90023104619464FF00002424B06F013F802460B4614461D463E4BD3E90023904683F00049404649464FF000023A4B06F002F802460B4620462946FFF734FAE3
:400E000063E0FB79002B11D07B79002B0ED0BB79002B0BD12F4BD3E90023104619464FF000024FF00003FFF71FFA4EE0BB79002B0FD07B79002B0CD0FB79002B09D1254BC7
:400E4000D3E900234FF000004FF00001FFF70CFA3BE0BB79002B27D07B79002B24D1FB79002B21D11B4BD3E90023144683F00045204629464FF00002174B05F0BDFF02463A
:400E80000B4614461D46134BD3E90023104619464FF00002104B05F0AFFF02460B4620462946FFF7E1F910E07B79002B0DD0BB79002B0AD1FB79002B07D1064BD3E900010A
:400EC000044BD3E90023FFF7CFF90837BD46BDE8B08300BF6081FF1F0000F83F000000002DE9B04382B000AF05F06EF80346FB7105F076F80346BB7105F05AF803467B71A9
:400F0000FB79002B27D0BB79002B24D17B79002B21D1334BD3E90023104619462EA3D3E9002305F069FF02460B4614461D462C4BD3E90023904683F000494046494626A37B
:400F4000D3E9002305F058FF02460B4620462946FFF78AF93BE0BB79002B27D07B79002B24D1FB79002B21D11D4BD3E90023144683F000452046294617A3D3E9002305F08D
:400F80003BFF02460B4614461D46154BD3E900231046194610A3D3E9002305F02DFF02460B4620462946FFF75FF910E07B79002B0DD0BB79002B0AD1FB79002B07D1084B4E
:400FC000D3E90001064BD3E90023FFF74DF90837BD46BDE8B08300BF9A9999999999F93F6081FF1FAFF3008080B400AFBD465DF8047B704780B584B000AF254B1B78012B47
:4010000042D1234B00221A70224800F0FFF9224B1B785BB23A46104620491A4606F048FB3B46184600F0F2F91D4800F0EFF91A4B5B881BB23A46104618491A4606F038FB80
:401040003B46184600F0E2F9164800F0DFF9124B9B881BB23A46104610491A4606F028FB3B46184600F0D2F90F4800F0CFF90A4BDB881BB23A46104608491A4606F018FBED
:401080003B46184600F0C2F91037BD4680BD00BF6E83FF1F487F00008090FF1F507F0000587F0000647F0000707F000090B583B000AF786004F070FF03461A467B681A706C
:4010C0007B685C1C04F080FF034623707B689C1C04F06EFF034623707B68DC1C04F080FF034623707B681C1D04F086FF034623700C37BD4690BD00BF80B582B000AF62B653
:4011000003F05CFE03F058FF04F06AF804F0EEF8AB4804F045FCAB4804F024FE04F0C4FCA94804F027FDA94804F072FF0020012101F0D2FD01F070FF0346002B01D002F00B
:40114000D7F8A34B1B78002B01D0FFF7C9FCA14B1B78002B01D0FFF7E3FC0023FB80FFF7FFFC9B4B1B78012B03D1FEF78BFFFFF741FF3B461846FFF799FF974B1B78072B47
:4011800000F2ED8001A252F823F000BF5F1300005F1300005F130000AD1100005F130000E91100000F1200000F1200008B4B1B78012B18D0894B1B78022B14D03B78012B7B
:4011C00005D1BB78012B02D1FFF74EF90BE03B79012B05D1BB78012B02D1FFF761F902E0FFF7C4F9BBE0BAE07D4B1B78012B0DD17C4B5A887C4B1A807A4B9A887B4B1A8007
:40120000774B02221A70FFF783F9A8E0A7E0734B1B78012B00F0A280704B1B78022B00F09D806E4B1B78072B00F09880704B1B881A46704B9B5C7B713B78012B02D1BB78DF
:40124000012B05D03B79012B4BD1BB78012B48D1694B1B78002B43D1FB880133FB80FB88B3F57A7F3CD3644B01221A70634804F067FB634804F064FB624B01221A7004F065
:401280004BFF7B794C3B092B22D801A252F823F0BF120000D1120000D1120000D1120000D1120000D1120000C5120000B9120000D1120000CB120000FFF74CF909E0FFF77F
:4012C000D3F806E0FFF7ECF803E0FFF705F900E000BF474B1B8801339AB2454B1A803DE03CE03B78002B34D17B78002B31D1BB78002B2ED1FB78002B2BD13B79002B28D103
:401300007B79552B25D13C4B1B78002B20D1FB880133FB80FB8843F69722934218D93A4804F00EFB364804F00BFB364B01221A7004F0F2FE0023FB802F4B01221A70FFF7DC
:40134000CBF82B4B1B8801339AB2294B1A8005E004E0FFF70BF90023FB80FFE700BF1F4B1B78072B3FF6FBAE01A252F823F000BF91130000971300009D130000A913000077
:40138000AF130000B5130000BB130000A3130000FFF710F813E0FFF72FF810E0FFF718F80DE0FFF73FF80AE0FEF7F2FF07E0FFF7EDFC04E0FFF718FE01E0FFF791FDCEE662
:4013C000F9070000E5090000910A0000B90A00007183FF1F1181FF1F9683FF1F5D81FF1F9083FF1F8090FF1F9283FF1F9483FF1FB886FF1F9883FF1FBA86FF1F7C7F0000F7
:401400009C7F00008083FF1FB07F000080B584B000AF7860154B1B78002B23D00023FB600AE0FB680133FB60FB68114A934203D10E4B00221A7015E001F0E4FF0346002B3D
:40144000EFD07B683F3300221A707B683E3321221A70786806F050F903469BB27868194601F09AFF1037BD4680BD00BF1881FF1FC0C62D00B0B5ADF5C25D82B000AF07F15E
:4014800028041C3C206007F10800016007F1080104390A6007F10802083A1360002307F5C25202F107021370FDE0002307F5C25202F106021370E3E007F5C25303F1070356
:4014C000197807F5C25303F10603187807F5C25303F107031A781346DB0013445B001A4407F128031C3B1B681A4407F5C25303F106031B78D45C07F5CD62083A0B46DB0013
:401500000B445B000B4403441B01134422461A7007F5C25303F10703197807F5C25303F10603187807F5CD62083A0B46DB000B445B000B4403441B01134400225A7007F594
:40154000C25303F10703197807F5C25303F10603187807F5CD62083A0B46DB000B445B000B4403441B0113440A225A8007F5C25303F10703197807F5C25303F10603187899
:4015800007F5CD62083A0B46DB000B445B000B4403441B01134407F5C25202F1070212785A7107F5C25303F10703197807F5C25303F10603187807F5CD62083A0B46DB00A7
:4015C0000B445B000B4403441B01134407F5C25202F1060212781A7107F5C25303F10703197807F5C25303F10603187807F5CD62083A0B46DB000B445B000B4403441B01E5
:401600001344083300221A6007F5C25303F10703197807F5C25303F10603187807F5CD62083A0B46DB000B445B000B4403441B01134408334FF6FF729A8007F5C25303F1E2
:401640000703197807F5C25303F10603187807F5CD62083A0B46DB000B445B000B4403441B011344083300229A7107F5C25303F106031B78013307F5C25202F1060213701A
:4016800007F5C25303F106031B78122B7FF614AF07F5C25303F107031B78013307F5C25202F10702137007F5C25303F107031B780E2B7FF6FAAE07F10803083B1B681A785C
:4016C00007F5CD630C3B1A7007F10803083B1B685A7807F5CD630C3B5A70002307F5C25202F10502137007F128030C3B1A464FF4C863104600211A4605F0D1FF07F128036E
:40170000103B00221A80002307F5C15202F113021370002307F5C25202F104021370002307F5C25202F103021370002307F5C15202F11002138007F12803143B00221A70A0
:4017400007F12803143B00225A70002307F5C25202F10202137007F12803183B00221A80002307F5C2521380012307F5C15202F11F02137007F5CD630C3B1B78194607F53B
:40178000CD630C3B5B78184607F5CD62083A0B46DB000B445B000B4403441B011344083300229A8007F5CD630C3B1B78194607F5CD630C3B5B781C4607F5CD630C3B1B78AB
:4017C000184607F5CD630C3B5B781D4607F5CD62083A0346DB0003445B0003442B441B01D01807F5CD62083A0B46DB000B445B000B4423441B0113440833186007F5CD63AA
:401800000C3B1B78194607F5CD630C3B5B781C46414B187807F5CD62083A0B46DB000B445B000B4423441B011344083302469A71C2E2012307F5C25202F10302137007F562
:40184000CD630C3B1B78194607F5CD630C3B5B78184607F5CD62083A0B46DB000B445B000B4403441B01134401225A7097E1002307F5C25202F10402137007F5C25303F1F6
:4018800003031B78012B12D107F5CD630C3B1B78013BDAB207F12803103B1A7007F5CD630C3B5A7807F12803103B5A704FE007F5C25303F103031B78022B12D107F5CD6334
:4018C0000C3B1A7807F12803103B1A7007F5CD630C3B5B780133DAB207F12803103B5A7035E007F5C25303F103031B78032B15D107F5CD630C3B1B780133DAB207F1280329
:40190000103B1A7007F5CD630C3B5A7807F12803103B5A701BE000BF6881FF1F07F5C25303F103031B78042B11D107F5CD630C3B1A7807F12803103B1A7007F5CD630C3B75
:401940005B78013BDAB207F12803103B5A70A14B1B7807F5C25202F1030212789A4205D0002307F5C25202F10402137007F12803103B1B780F2B00F2078107F12803103B00
:401980005B78132B00F2008107F12803103B1B78194607F12803103B5B78184607F5CD62083A0B46DB000B445B000B4403441B0113441B78002B40F0E78007F5CD630C3B90
:4019C0001B78194607F5CD630C3B5B78184607F5CD62083A0B46DB000B445B000B4403441B0113440833988807F12803103B1B78194607F12803103B5B781C4607F5CD627C
:401A0000083A0B46DB000B445B000B4423441B0113445B8803449AB207F5C25303F104031B789BB2134407F5C15202F11002138007F12803103B1B78194607F12803103B37
:401A40005B78184607F5CD62083A0B46DB000B445B000B4403441B01134408339B8807F5C15202F1100212889A4280F08D8007F12803103B1B78194607F12803103B5B78E3
:401A8000184607F5CD62083A0B46DB000B445B000B4403441B011344083307F5C15202F1100212889A8007F12803103B1B78194607F12803103B5B781C4607F5CD630C3B03
:401AC0001B78184607F5CD630C3B5B781D4607F5CD62083A0346DB0003445B0003442B441B01D01807F5CD62083A0B46DB000B445B000B4423441B0113440833186007F544
:401B0000C25303F105031A7807F12803103B197807F128030C3B03F8121007F5C25303F10503197807F12803103B587807F128020C3A4B00134402465A7007F12803103B16
:401B40001B78194607F12803103B5B78184607F5CD62083A0B46DB000B445B000B4403441B011344083307F5C25202F1030212789A7107F5C25303F105031B78013307F5E0
:401B8000C25202F10502137007F5C25303F103031B78013307F5C25202F10302137007F5C25303F103031B78042B7FF660AE4FF6FF7307F5C2521380002307F5C15202F168
:401BC0001F021370002307F5C15202F118021360AFE000BF6881FF1F07F128030C3B07F5C15202F11802126813F8122007F12803183B1A7007F128020C3A07F5C15303F191
:401C000018031B685B0013445A7807F12803183B5A7007F128030C3B07F5C15202F11802126813F81230194607F128020C3A07F5C15303F118031B685B0013445B781846A9
:401C400007F5CD62083A0B46DB000B445B000B4403441B01134408339B8807F5C25212889A425BD907F128030C3B07F5C15202F11802126813F81230194607F128020C3AEC
:401C800007F5C15303F118031B685B0013445B78184607F5CD62083A0B46DB000B445B000B4403441B0113445B78002B36D107F128030C3B07F5C15202F11802126813F843
:401CC0001230194607F128020C3A07F5C15303F118031B685B0013445B78184607F5CD62083A0B46DB000B445B000B4403441B01134408339B8807F5C252138007F5C153F9
:401D000003F118031B6807F5C25202F102021370012307F5C15202F11F02137007F5C15303F118031B68013307F5C15202F11802136007F5C25303F105031A7807F5C153A9
:401D400003F118031B689A423FF746AF07F5C25303F102031A7807F128030C3B13F8122007F5CD630C3B1A7007F5C25303F102031B7807F128020C3A5B0013445A7807F505
:401D8000CD630C3B5A7007F5CD630C3B1B78194607F5CD630C3B5B78184607F5CD62083A0B46DB000B445B000B4403441B01134408339A799F4B1A7007F5CD630C3B1A78C6
:401DC00007F5C25303F118031B681B789A420CD107F5CD630C3B5A7807F5C25303F118031B6801331B789A4207D007F5C15303F11F031B78012B3FF41CAD002307F5C2527E
:401E000002F10302137007F5CD630C3B1A7807F5C25303F118031B681B789A4240F0038107F5CD630C3B5A7807F5C25303F118031B6801331B789A4240F0F58007F5CD6300
:401E40000C3B1B78194607F5CD630C3B5B78184607F5CD62083A0B46DB000B445B000B4403441B01134407F5C15202F11402136066E007F5C25303F103031A7813465B0017
:401E80001A4407F10803043B1B68134407F5C15202F11402126852791A7007F5C25303F103031A7813465B001A4407F10803043B1B68134407F5C15202F1140212681279D9
:401EC0005A7007F5C25303F103031A7813465B001A4407F10803043B1B68981807F5C15303F114031B685B79194607F5C15303F114031B681B791C4607F5CD62083A0B46D1
:401F0000DB000B445B000B4423441B01134408339B79837007F5C15303F114031B689B6807F5C15202F11402136007F5C25303F103031B78013307F5C25202F10302137028
:401F400007F5C15303F114031B685A7907F10803083B1B681B789A428BD107F5C15303F114031B681A7907F10803083B1B6801331B789A427FF47DAF07F5C25303F1030315
:401F80001A7813465B001A4407F10803043B1B68134407F5C15202F11402126852791A7007F5C25303F103031A7813465B001A4407F10803043B1B68134407F5C15202F1AD
:401FC0001402126812795A7007F5C25303F103031A7813465B001A4407F10803043B1B68981807F5C15303F114031B685B79194607F5C15303F114031B681B791C4607F577
:40200000CD62083A0B46DB000B445B000B4423441B01134408339B79837007F5C25303F103031B7800E00023184607F5C2570837BD46B0BD6881FF1FB0B5A8B004AF002391
:4020400087F88F300023C7F8883021E397F88F30002B07D0AA4B1A78AA4B1A70A84B5A78A84B5A70A84AD7F8883012F81320A44B1A70A54AD7F888305B0013445A78A04B98
:402080005A70A04B1B781D469E4B5B781C469C4B1B7818469A4B5B7819469C4B1B781A463B46009001910292184699492A46234605F0FEFA3B46184603F042FC904B0093D3
:4020C00094489149944A8F4BFFF7D4F90346C7F88030D7F88030C7F88430CFE28E49D7F8842013465B0013440B4402331B78012B0BD08949D7F8842013465B0013440B4442
:4021000002331B78032B40F060818349D7F8842013465B0013440B441B781A467E48D7F884100B465B000B44034401331B78591E78481346DB0013445B0013440B440344D0
:402140001B78002B1ED07449D7F8842013465B0013440B441B781A466F48D7F884100B465B000B44034401331B78591C69481346DB0013445B0013440B4403441B78002B5C
:4021800040F0CE806449D7F8842013465B0013440B4402331978D7F884305A1E5E4813465B001344034402331B78994200F09D805949D7F8842013465B0013440B4402331A
:4021C0001B78012B0BD1D7F884305A1E524913465B0013440B4402331B78042B16D04E49D7F8842013465B0013440B4402331B78032B11D1D7F884305A1E474913465B00FC
:4022000013440B4402331B78022B05D197F88F30424A4C21D15467E03F49D7F8842013465B0013440B4402331B78012B0BD1D7F884305A1E384913465B0013440B4402334A
:402240001B78022B16D03449D7F8842013465B0013440B4402331B78032B11D1D7F884305A1E2D4913465B0013440B4402331B78042B05D197F88F30284A5221D15433E093
:402280002549D7F8842013465B0013440B4402331B78012B0BD1D7F884305A1E1E4913465B0013440B4402331B78032B16D01A49D7F8842013465B0013440B4402331B7883
:4022C000032B17D1D7F884305A1E134913465B0013440B4402331B78012B0BD197F88F300E4A5521D15405E004E097F88F300B4A5321D15497F88F30013387F88F3063E0FE
:402300007081FF1F6C81FF1F9482FF1F6881FF1FCC7F00007481FF1FBC86FF1F9883FF1FA749D7F8842013465B0013440B4402331978D7F884305A1EA14813465B001344DF
:40234000034402331B78994238D09D49D7F8842013465B0013440B4402331B78012B0BD1D7F884305A1E964913465B0013440B4402331B78032B16D09149D7F88420134632
:402380005B0013440B4402331B78032B1CD1D7F884305A1E8A4913465B0013440B4402331B78012B10D197F88F30864A5521D15497F88F30013387F88F305AE197F88F303A
:4023C000804A5321D15454E153E17D49D7F8842013465B0013440B441B785A1E7848D7F884100B465B000B44034401331B78184675491346DB0013445B00134403440B4458
:402400001B78002B1ED06E49D7F8842013465B0013440B441B785A1C6948D7F884100B465B000B44034401331B78184666491346DB0013445B00134403440B441B78002BA8
:4024400040F0C4805E49D7F8842013465B0013440B4402331978D7F884305A1E584813465B001344034402331B78994200F09D805349D7F8842013465B0013440B44023373
:402480001B78042B0BD1D7F884305A1E4C4913465B0013440B4402331B78032B16D04849D7F8842013465B0013440B4402331B78022B11D1D7F884305A1E414913465B004A
:4024C00013440B4402331B78012B05D197F88F303C4A4C21D15467E03949D7F8842013465B0013440B4402331B78042B0BD1D7F884305A1E324913465B0013440B44023398
:402500001B78012B16D02E49D7F8842013465B0013440B4402331B78022B11D1D7F884305A1E274913465B0013440B4402331B78032B05D197F88F30224A5221D15433E0E5
:402540001F49D7F8842013465B0013440B4402331B78042B0BD1D7F884305A1E184913465B0013440B4402331B78022B16D01449D7F8842013465B0013440B4402331B78D0
:40258000022B17D1D7F884305A1E0D4913465B0013440B4402331B78042B0BD197F88F30084A5521D15405E004E097F88F30054A5321D15497F88F30013387F88F3058E056
:4025C000BC86FF1F9883FF1F7481FF1F3749D7F8842013465B0013440B4402331978D7F884305A1E314813465B001344034402331B78994238D02D49D7F8842013465B000E
:4026000013440B4402331B78042B0BD1D7F884305A1E264913465B0013440B4402331B78022B16D02149D7F8842013465B0013440B4402331B78022B1BD1D7F884305A1E6F
:402640001A4913465B0013440B4402331B78042B0FD197F88F30164A5521D15497F88F30013387F88F3004E097F88F30104A5321D154D7F88430013BC7F88430D7F88430E3
:40268000002B3FF72BADD7F888300133C7F88830084B1B781A46D7F888309A423FF7D6AC002318469037BD46B0BD00BFBC86FF1F9883FF1FA082FF1F80B400AFFEE700BF77
:4026C00080B584B000AF78600F4B1A687B6813441A460E4BD31A802B09DC0B4B1B68FB60094B1A687B681344074A136007E004F09FFF02460C2313604FF0FF33FB60FB6804
:4027000018461037BD4680BDA882FF1F2892FF1F80B586B000AF224B7B61224B3B61204B7B6135E03B691B68FB603B695B68BB603B699B683B6000237B600CE0FB681A68B7
:40274000BB681A60BB680433BB60FB680433FB607B6804337B607A683B689A42EED13B69DB683B6000237B6008E0BB6800221A60BB680433BB607B6804337B607A683B6827
:402780009A42F2D13B6910333B617B69013B7B617B69002BC6D104F051FFFEF7ADFCFEE7010000006482000080B582B000AF174B174A1A60174A174B1B6843F400731360F1
:4027C00000237B600FE07B68032B04D8124A7B6852F8233000E0114B11497A6841F822307B6801337B607B682F2BECD90D4B1B78DAB20D4B1A700D4B094A1A6000F098F92D
:402800000B4B00221A600837BD4680BD0CED00E00004FA0514ED00E000000000B92600000080FF1FBC7600400481FF1F08ED00E00081FF1F80B582B000AF786039607868FD
:4028400000213A6804F02BFF0837BD4680BD00BF80B584B000AFF860B9607A60F868B9687A6804F011FF1037BD4680BD80B483B000AF0346FB71FEE780B487B000AF786046
:40288000396000233B6100237B6127E07B699B007A6813441B68BB60BB68FB73BB6823F0FF03BB6014E03B695B003A6813441B781A46BB68134419463B695B003A681344D0
:4028C0005B780B703B6901333B61FB7B013BFB73FB7B002BE7D17B6901337B617B69292BD4D91C37BD465DF8047B704780B582B000AF444B0F221A80434B1B221A70434B90
:4029000081221A80424B18221A70424B04221A80414B18221A70414B3B221A80404B18221A70404B3B221A803F4B18221A703F4B00221A803E4B1B221A703E4B01221A80EE
:402940003D4B1B221A703D4B40F69F721A803C4B1B221A703B4B06221A703B4B52221A703A4B3B4A1278D2B21A703A4B40F619121A80394B41F251221A800023FB701923E5
:402980007B6014E0FB785B00DAB2344B1B78DBB203F00103DBB21343DBB203F00303FB704FF4F07002F030F97B68013B7B607B68002B02D0FB78032BE4D17B68002B02D1B5
:4029C0000320FFF753FF264B4FF480721A80244B07221A70234B00221A70234B48221A701F4B00221A70214B00221A70204B02221A70204B1B781F4BFF221A700837BD46F2
:402A000080BD00BF80400040824000408440004086400040884000408A4000408C4000408E40004090400040924000409440004096400040984000409A4000409C400040C8
:402A40009E4000400043004000420040A14600400F0100492242004020420040254200400440004006400040084000400940004001400040A243004080B582B000AF204B84
:402A80001B78FB711F4B1B78BB711F4B1B787B711E4AFB7903F00703DBB213701C4AFB791B09DBB21370174ABB7943F00303DBB21370154A7B7943F00303DBB21370154B34
:402AC00008221A70144B40221A70144B40221A70134B80221A70134B20221A70124B80221A700A2002F0ACF8074A7B791370054ABB7913700D4B44221A700837BD4680BDFA
:402B0000CF010049F8460040F94600406E5800406F5800400D510040095900400B590040285B00402B5B0040585B00407658004080B586B000AF72B64F4B61221A70FFF725
:402B4000D5FE4D4B01221A700023FB7513E0FA7D13465B0013445B00484A13443B613B691A683B699B889BB210461946FFF762FEFB7D0133FB75FB7D072BE8D90023FB75F6
:402B80001CE0FA7D13469B0013445B003C4A1344FB60FB681B68BB60FB685B687B60FB681A7A5B7A1B0213437B807B88B86879681A46FFF74DFEFB7D0133FB75FB7D022B22
:402BC000DFD94FF090402F49FFF756FE2E4A2E4B1B78DBB243F00203DBB213702B4A2B4B1B78DBB243F00203DBB21370284A284B1B78DBB243F04003DBB21370254A254B36
:402C00001B78DBB243F01003DBB21370224823490822FFF71DFE224822490A22FFF718FE214822490A22FFF713FE214821490822FFF70EFE204821490822FFF709FE204899
:402C400020490822FFF704FE1F4B44221A701F4B84221A701E4A1E4B1B78DBB243F00803DBB21370FFF708FF1A4809490E22FFF7EFFD1837BD4680BD00480040F87F000045
:402C800028800000A80000480350014013500140A0430040C24300400251004010100048C051004018100048F05100402410004812510040301000482251004038100048B5
:402CC0003251004040100048DB000140DB16014022430040B043004080B582B000AF03460A46FB711346BB71084B1B78002B04D100F00EF8054B01221A70FA79BB791046DD
:402D0000194600F0D5F80837BD4680BD2090FF1F80B582B000AF01F07FFF0346FB71534A524B1B78DBB243F00103DBB21370504A4F4B1B78DBB243F00103DBB213704D4B1C
:402D400001221A704C4B02221A704C4A4B4B1B78DBB203F07F03DBB21370002001F070FF474A474B1B78DBB223F00603DBB21370444A444B1B78DBB223F02003DBB213701E
:402D80003F4A3F4B1B78DBB243F00103DBB21370012001F055FF282001F052FF3A4A3A4B1B78DBB203F07F03DBB21370364A364B1B78DBB223F04003DBB21370304A304B7F
:402DC0001B78DBB243F00203DBB21370022001F037FF2B4A2A4B1B78DBB243F00403DBB213702A4B00221A70294B00221A70FB79184601F015FF1720072101F05BFF1720D5
:402E0000244901F02FFF1820072101F053FF1820214901F027FF1520072101F04BFF15201E4901F01FFF0120072101F043FF01201B4901F017FF0220072101F03BFF0220C8
:402E4000184901F00FFF0320072101F033FF0320154901F007FF0C20072101F02BFF0C20124901F0FFFE0837BD4680BDA5430040B54300409D6000400960004010600040B3
:402E80009443004012600040F85100408460004085600040ED3B0000BD340000E13B0000DD3A0000313B0000853B0000F93B000080B582B000AF03460A46FB711346BB712B
:402EC0002E4AFB7913702E4B00221A702D4B00221A702D4B00221A702C4B00221A702C4B00221A702B4B00221A702B4B00221A702A4B4FF400021A60284B4FF080721A601A
:402F0000264B4FF400121A60244B02221A60234B04221A60214B08221A60BB79002B02D0012B09D011E01E4A1D4B1B78DBB223F00103DBB2137011E0194A194B1B78DBB210
:402F400043F00103DBB2137008E0154A144B1B78DBB243F00103DBB2137000BF114B03221A70114B80221A70012001F04DFE0F4B04221A700837BD4680BD00BF6591FF1FF2
:402F80006891FF1F8491FF1F8791FF1F7C91FF1F8691FF1F8991FF1F6491FF1F00E100E00960004028600040086000401260004080B400AF0F4B00221A700F4B00221A706B
:402FC0000E4B00221A700E4B00221A700D4B00221A700D4B00221A700C4B00221A700C4B03221A700B4B80221A70BD465DF8047B704700BF6891FF1F8491FF1F8791FF1F67
:403000007C91FF1F8691FF1F8991FF1F6491FF1F286000400860004080B400AF034B1B78DBB21846BD465DF8047B70478791FF1F80B483B000AF0346FB71FA79064913461C
:403040005B0013449B000B445B78DBB218460C37BD465DF8047B70478C91FF1FB0B485B000AF03463960FB711346BB80FB79002B66D0FB79082B63D8B988FA793248134682
:403080005B0013449B000344DB889BB2C3F5007399420BD9FA792C4913465B0013449B000B44DB889BB2C3F50073BB80274CF979BB881B0A9BB2D8B2FA79234D13465B0034
:4030C00013449B002B44DB78DBB20343DAB20B0123441A701D4AFB79B988C9B21B0113440A465A703B68002B13D00023FB810CE01748FB79FA8939680A4412781B0103442E
:4031000008331A70FB890133FB81FA89BB889A42EED3FA790C4913465B0013449B000B4400225A700948F979FA79074C13465B0013449B0023445B79DAB20B0103449A7037
:403140001437BD46B0BC70478C91FF1FFC5F00407060004090B482B000AF0346FB71FB79002B19D0FB79082B16D8FA790C4913465B0013449B000B4400225A700948F97995
:40318000FA79074C13465B0013449B0023445B79DAB20B0103449A700837BD4690BC70478C91FF1FFC5F004080B582B000AF0023FB71324B1B79DBB2184600F069F8034629
:4031C000BB712E4B1B78DBB2DBB25BB2002B16DA2A4B5B78DBB2212B00D00FE0284B07221A80BA791346DB009B1A264A1344244A536000F0DDFA0346FB7100BF38E01F4B7E
:403200005B78DBB2202B02D0222B1AD030E01C4B07221A80BA791346DB009B1A194A1344174A5360BB79BA7917498A5CD2B242F00102D1B2144AD15400F03AFB0346FB7170
:4032400016E0BB790D4A9278D2B291B20F4A22F81310BB79BA790C498A5CD2B242F00202D1B2094AD15400F0BFFB0346FB7100BFFB7918460837BD4680BD00BF0060004041
:403280007091FF1FAC82FF1F4C91FF1F6091FF1F80B485B000AF0346FB710023FB73FF23BB7317E0FB7B104AD35C7B737A7B0F4913465B0013449B000B4408339B78DBB2EA
:4032C000FA799A4203D1FB7BBB730223FB73FB7B0133FB73FB7B012BE4D9BB7B18461437BD465DF8047B70475491FF1F8C91FF1F80B582B000AF0023BB71224B00221A70D4
:40330000214B00221A70204B00225A700023FB7110E0FB791D4AD35C7B717B79002B06D07B79082B03D87B791846FFF713FFFB790133FB71FB79012BEBD9154B1B78DBB260
:40334000002B18D0114B1B78DBB2002B13D0114B1B78DBB2002B0ED00D4B1B78DBB2082B09D80A4B1B78DBB2082B04D8094B1B78DBB2082B01D90123BB71BB791846083779
:40338000BD4680BD2190FF1F4C91FF1F5891FF1F5091FF1F5491FF1F80B584B000AF78600B467B80144B1B781A46144B9B5CFB73FA7B134913465B0013449B000B440833A7
:4033C0001B889BB27A889A420CD9FA7B0C4913465B0013449B000B4408331B887B80002001F022FCFA7B7B88104679681A46FFF735FE1037BD4680BD2190FF1F5091FF1FC6
:403400008C91FF1F80B500AF054B1B781A46054B9B5CDBB21846FFF70BFE0346184680BD2190FF1F5091FF1F80B485B000AF78600B46FB701346BB707B68DB7803F00303E8
:40344000FB737B689B78DBB25BB2002B1ADAFB7B032B0AD0BB7803F001031549FA78CA54BB7843F00103BB701BE0BB789B08DBB203F001030F49FA78CA54BB7843F004035A
:40348000BB700EE0FB7B032B0BD0BB785B08DBB203F001030849FA78CA54BB7843F00203BB70BB7818461437BD465DF8047B70475091FF1F5491FF1F5891FF1F80B582B009
:4034C00000AF374B1B78BB71BB7903F01003002B63D00123FB71BB795BB2002B13DABB7903F00F03012B02D00023FB711DE000F061F82C4B1B78DBB2DBB25BB2002B14DA05
:403500000023FB7111E0BB7903F04003002B02D000F094F809E0BB7903F02003002B02D000F0B2F801E00023FB71FB79002B34D01B4B1B78BB71BB795BB2002B2DDB1A4B4D
:403540001B78DAB2194B1B78DBB21343BB71184ABB791370164B1B78DBB2BA799A421CD1104B1B78FB710E4B1B78DBB223F07F03BB71BB79002B0AD1094B0A4A1278D2B20C
:403580001A70074B1B78DBB203F00F03FB71054B1B78DBB2FA799A42E2D10837BD4680BD286000408591FF1FFA91FF1F8891FF1F2960004080B582B000AF1D4B1B78FB718B
:4035C0001B4AFB7913701A4B1B78FB71FB795BB2002B03DA174AFB79137025E0022000F043FA154B1B78DBB203F06003202B08D0402B0BD0002B0ED100F004FB0346FB71E9
:403600000CE002F0FFFD0346FB7107E001F0C0FA0346FB7102E00023FB7100BFFB79002B02D1044B03221A700837BD4680BD00BF286000408591FF1F0060004080B500AF56
:40364000104B1B78DBB2062B19D801A252F823F07F3600007F3600006D3600007F360000733600007F3600007936000000F0FAF806E000F0A9F903E000F0D2F900E000BF47
:4036800080BD00BF6891FF1F80B500AF124B1B78DBB2062B1DD801A252F823F0D3360000D3360000B9360000D3360000BF360000D3360000C536000000F0DAF80AE000F0D1
:4036C00029F907E0032000F0CFF9044B03221A7000E000BF80BD00BF6891FF1F8591FF1F80B483B000AF0023FB71294B1B78DBB29AB2284B1B889BB213449AB2254B1A806D
:4037000015E02549FB79254A52681278D2B2CA54224B5B680133214A5360FB790133FB711E4B1B889BB2013B9AB21C4B1A801B4B1B889BB2002B02D0FB79072BE1D9144BD3
:403740001B78DBB2082B02D0FB79002B0FD0144B1B78DBB283F07F03DB43DAB2104B1A70104B0F221A70104B02221A7005E00D4B02221A700C4B02221A700C4AFB79137047
:40378000034AFB7913700C37BD465DF8047B70476491FF1F6691FF1F006000407091FF1FFA91FF1F8591FF1F6891FF1F8891FF1F80B582B000AF164B1B889BB2002B02D17D
:4037C00000F02EF81EE0134B02221A70124B00221A7000F069F9114BDB79DBB29BB21B029AB20E4B9B79DBB29BB21343FB80084B1B889BB2FA889A4202D2054AFB88138069
:40380000FFF76EFF012318460837BD4680BD00BF7091FF1F6891FF1FFA91FF1F0060004080B400AF0A4B02221A700A4B80221A70094B0F221A70094B00221A70084B0022FB
:403840001A7001231846BD465DF8047B704700BF6891FF1FFA91FF1F8591FF1F6491FF1F8891FF1F80B500AFFFF73AFF80BD00BF80B500AF0A4B1B78DBB29AB2094B1B8806
:403880009BB213449AB2074B1A80074B00221A70012000F0E9F8054B03221A7080BD00BF6491FF1F6691FF1F6891FF1F8591FF1F80B582B000AF124B04221A70114B8022AD
:4038C0001A7000F0F1F8104BDB79DBB29BB21B029AB20D4B9B79DBB29BB21343FB800B4B1B889BB2FA889A4202D2084AFB881380074B0B221A70012318460837BD4680BD72
:403900006891FF1FFA91FF1F006000407091FF1F8591FF1F80B483B000AF0023BB71234B1B78DBB203F00F03DBB2023BFB71FB799AB21F4B1B889BB213449AB21C4B1A80E8
:4039400018E01C4B5B681C49BA798A5CD2B21A70184B5B680133174A5360BB790133BB71FB79013BFB71134B1B889BB2013B9AB2104B1A800F4B1B889BB2002B02D0FB79F5
:40398000002BDED10D4AFB7913700D4B1B78DBB283F07F03DB43DAB2094B1A70094B0B221A700C37BD465DF8047B7047296000406691FF1F7091FF1F006000408891FF1F3A
:4039C000FA91FF1F8591FF1F80B500AF044B00221A70012000F048F8024B03221A7080BD6891FF1F8591FF1F80B400AF084B06221A70084B06221A70074B80221A70074B79
:403A000000221A7001231846BD465DF8047B70476891FF1F8591FF1FFA91FF1F8891FF1F80B500AF0C4B1B78DBB2002B0AD00B4A094B1B78DBB263F07F03DBB21370064B40
:403A400000221A70064B00221A70012000F00CF8044B03221A7080BD8691FF1F086000406891FF1F8591FF1F80B483B000AF0346FB710B4B9B68002B0CD0094B9B68FA7930
:403A80001A70074B9B68074A128892B25A80044B00229A600C37BD465DF8047B704700BF7091FF1F6691FF1F80B400AF094B00221A80094B9B68002B07D0074B9B6800222C
:403AC0001A70054B9B6800225A80BD465DF8047B704700BF6691FF1F7091FF1F80B400AF104A104B1B78DBB223F00103DBB213700D4B9B7C0D4B1B7BDBB203F00303012B7E
:403B000008D00A4BDB7BDBB283F07F03DB43DAB2064BDA73054B01225A73BD465DF8047B704700BF0B600040FC5F00408C91FF1F80B400AF104A104B1B78DBB223F002035A
:403B4000DBB213700D4B93F822300D4B1B7EDBB203F00303012B08D0094BDB7EDBB283F07F03DB43DAB2064BDA76054B01225A76BD465DF8047B70470B600040FC5F0040F4
:403B80008C91FF1F80B400AF124A124B1B78DBB223F00403DBB213700F4B93F832300F4B93F82430DBB203F00303012B0AD00B4B93F82730DBB283F07F03DB43DAB2074B22
:403BC00083F82720054B012283F82520BD465DF8047B70470B600040FC5F00408C91FF1F80B400AFBD465DF8047B704780B500AFFFF7DEF980BD00BF80B500AF00F0F2FFDE
:403C000080BD00BF80B586B000AF0023FB759D4B1B78FB7100233B619B4B00221A80FB795BB2002B80F20481964B5B78DBB20A2B00F2FC8001A252F823F000BF853D00008B
:403C40002D3E00002D3E00002D3E00002D3E00002D3E0000693C00002D3E0000F73D00002D3E00000D3E0000864BDB78DBB2012B0ED100F017FEB860BB685B68824A5360F5
:403C8000814B12221A80FFF793FD0346FB7578E07C4BDB78DBB2022B24D17A4B9B78DBB2184600F0D5FDB860BB68002B69D0BB685B68754A5360744B5B6803331B78DBB2B6
:403CC0009BB21B029AB2704B5B6802331B78DBB29BB213439AB26C4B1A80FFF769FD0346FB75A4E0674BDB78DBB2032B44D10023FB73664B3B6109E03B691B78BB71BB792F
:403D00003A6913443B61FB7B0133FB735D4B9B78DBB2FA7B9A4204D23B691B78DBB2002BEAD1584B9B78DBB2EE2B01D1584B3B61544B9B78DBB2002B0BD0524B9B78DAB2CE
:403D4000544B1B7C9A4204D1534800F0A1F9524B3B613B691B78DBB2002B12D03B691B78DBB29AB2484B1A80474A3B695360FFF71FFD0346FB755AE002F044FA0346FB751A
:403D800055E054E0FB7903F00303002B1FD0022B00D02FE03C4B02221A803A4B1B79DBB203F07F023D4913465B0013449B000B449B78DAB23A4B1A70394B00225A70324B92
:403DC000374A5A60FFF7F4FC0346FB7512E02E4B02221A80334B1B78DAB2314B1A70304B00225A70284B2E4A5A60FFF7E1FC0346FB7500BF1BE0244B01221A80224B2A4ABE
:403E00005A60FFF7D5FC0346FB7510E01E4B01221A801C4B1B79DBB21A46244B13441A4A5360FFF7C5FC0346FB7500E000BF19E1144B5B78DBB2013B0A2B00F2128101A20C
:403E400052F823F04F3F000063400000D93F000063400000713E0000634000006340000063400000B53E0000634000000B3F0000044B9B78DAB20E4B1A70FFF7B5FD0346BF
:403E8000FB75EFE0006000407091FF1FB4800000BC8100005C8000000092FF1F8C91FF1F2490FF1F8991FF1F8791FF1FF891FF1F8691FF1F6E4B9B787B717B79002B06D003
:403EC0007B79013BDBB2184600F0C2FCB8607B79002B02D0BB68002B02D17B79002B13D1644B1B78DBB27A799A4208D0614A7B791370614B01221A70012000F0C1F9FFF71A
:403F000073FD0346FB75ADE0ACE000F009FE0346002B1BD0564B1B793B71554B1B79DAB2564B1A703B79564AD35CDAB23B795549CB5CDBB29A4204D04F4B01221A7000F021
:403F400069FBFFF751FD0346FB758BE08AE0FB7903F00303012B22D0012B0DD3022B00D039E0434B9B78DBB2002B04D100F040FD0346FB752FE02EE03D4B9B78DBB2012BD9
:403F80000CD1414B1B78DBB223F00203DAB23E4B1A70FFF729FD0346FB751CE01BE0344B1B79DBB2012B15D8314B9B78DBB2DB43DBB22F4A1279D2B211461046334A125C55
:403FC000D2B21340DAB2314B5A54FFF70DFD0346FB75FFE700BF45E0FB7903F00303012B22D0012B0DD3022B00D039E0204B9B78DBB2002B04D100F08DFC0346FB752FE0B8
:404000002EE01B4B9B78DBB2012B0CD11E4B1B78DBB243F00203DAB21B4B1A70FFF7E4FC0346FB751CE01BE0114B1B79DBB2012B15D80F4B9B78DBB2DB43DBB20C4A127984
:40404000D2B211461046114A125CD2B21340DAB20E4B5A54FFF7C8FC0346FB75FFE700BF00E000BFFB7D18461837BD4680BD00BF006000408791FF1F8491FF1F7C91FF1FCD
:404080006C91FF1FF891FF1F8991FF1FFC91FF1FB0B58AB000AF7860314B07F114041D460FCD0FC42B682370002387F826307B68002B52D07B6822221A707B68013303225C
:4040C0001A7007F10C03184600F016FE022387F827303EE097F827307A68134497F8262007F128010A4412F81C2C1209D2B207F128010A4412F8142C1A7097F82730013303
:404100007A68134400221A7097F8273002337A68134497F8262007F128010A4412F81C2C02F00F0207F128010A4412F8142C1A7097F8273003337A68134400221A7097F8DA
:404140002630013387F8263097F82730043387F8273097F82730212BBCD92837BD46B0BD4880000090B482B000AF0123FB7174E03F4AFB791B0113440C221A70FA793D4965
:4041800013465B0013449B000B445B79DBB2002B1AD0FA79374913465B0013449B000B441B79DBB2DBB25BB2002B06DA324AFB791B0113440C229A700CE02F4AFB791B0156
:4041C000134408229A7005E02B4AFB791B01134480229A702648F979FA79264C13465B0013449B002344DB889BB2DAB20B0103449A711F48F979FA791E4C13465B0013441A
:404200009B002344DB889BB21B0A9BB2DAB20B010344DA711648F979FA79164C13465B0013449B002344DB889BB2DAB20B0103441A710F48F979FA790E4C13465B001344C3
:404240009B002344DB889BB21B0A9BB2DAB20B0103445A71FB790133FB71FB79082B87D9064BFF221A700837BD4690BC704700BF706000408C91FF1FFC5F00400A600040C5
:4042800080B58AB000AF0346FB7100237B84002387F827304CE097F82720C44913465B0013449B000B4400221A7097F82720BF4913465B0013449B000B4400229A7097F8D2
:4042C0002720BA4913465B0013449B000B440022DA7097F82720B54913465B0013449B000B44083300221A8097F82720AF4913465B0013449B000B44083300229A7097F89A
:404300002720AA4913465B0013449B000B4400225A7097F82720A54913465B0013449B000B4400225A7197F82730013387F8273097F82730082BAED9FB79002B16D0002384
:4043400087F825300EE097F82530994A0021D15497F82530974A0021D15497F82530013387F8253097F82530012BECD9924B1B78DBB2002B00F049810023FB768E4B1B78C0
:40438000DBB2013BDBB2184600F062FA78617B695B683B613B6907331B7803F04003002B08D0864B1B78DBB243F00103DAB2834B1A7007E0814B1B78DBB223F00103DAB2B5
:4043C0007E4B1A707B6908337B617B691B7887F82730012387F82530B3E07B695B68FB61002387F82630A0E097F82520FB699B7803F07F039A4240F0908097F825206B49B8
:4044000013465B0013449B000B4408331B889AB2FB699B889A420CD297F82520FB699888624913465B0013449B000B44083302461A80FB691B781A465D4B9B5CDAB2FB6921
:404440005B789A4269D197F82520FB699878574913465B0013449B000B4402461A7197F82520FB69D878514913465B0013449B000B4402461A70FB69DB7803F00303FB739C
:40448000FB699B78DBB25BB2002B1ADA97F82520FB7B012B01D1072000E00D20434913465B0013449B000B4402465A7197F825203E4913465B0013449B000B4401225A707F
:4044C00019E097F82520FB7B012B01D1052000E00920364913465B0013449B000B4402465A7197F82520314913465B0013449B000B4400225A70FB699B790A2B03D0FB69B3
:404500009B79022B09D197F82520FB7EF86911461A46FEF789FF0346FB76FB690833FB6197F82630013387F8263097F8262097F827309A42FFF458AF97F82530013387F8B3
:40454000253097F82530082B7FF647AF7B695B68FB61002387F8253016E0FB699B7803F07F02FB691878114913465B0013449B000B44083302469A70FB690833FB6197F82F
:404580002530013387F8253097F8252097F827309A42E2D300F098F90246094B1A6000237B84012387F8273029E000BF8C91FF1FF891FF1F6C91FF1F8791FF1F8991FF1F6D
:4045C0008091FF1F97F82720114913465B0013449B000B447A8CDA8097F827200C4913465B0013449B000B4408331B889AB27B8C13447B8497F82730013387F8273097F8E1
:404600002730082BDED9FFF7ADFD2837BD4680BD8C91FF1F90B585B000AF874B1B78DBB2002B00F00681844B1B78DBB2013BDBB2184600F00DF978607B6808337B607B6842
:404640001B78FB707B685B68BB607C4B1B78BB700023FB73E8E0BB681B78BA789A4240F0DD80BB78764AD35CDAB2BB685B789A4240F0D480BB689B7803F07F037B70BB688F
:40468000DB7803F003033B707A786E4913465B0013449B000B440022DA707A78BB689878684913465B0013449B000B4402461A717A78BB68D878634913465B0013449B00A4
:4046C0000B4402461A707A78BB6898885D4913465B0013449B000B44083302461A80BB689B78DBB25BB2002B18DA7A783B78012B01D1072000E00D20524913465B00134442
:404700009B000B4402465A717A784E4913465B0013449B000B4401225A7017E07A783B78012B01D1052000E00920464913465B0013449B000B4402465A717A7841491346DD
:404740005B0013449B000B4400225A703E4A7B781B01134401229A703B4879787A78394C13465B0013449B00234408331B889BB21B0A9BB2DAB20B0103441A70324879782D
:404780007A78304C13465B0013449B00234408331B889BB2DAB20B0103445A702B4879787A78284C13465B0013449B002344DB889BB2DAB20B0103449A71244879787A78EA
:4047C000204C13465B0013449B002344DB889BB21B0A9BB2DAB20B010344DA711B4879787A78184C13465B0013449B002344DB889BB2DAB20B0103441A71144879787A78E4
:40480000104C13465B0013449B002344DB889BB21B0A9BB2DAB20B0103445A71BB680833BB60FB7B0133FB73FA7BFB789A42FFF412AF1437BD4690BD8791FF1F7C91FF1F3E
:40484000F891FF1F8C91FF1FFC5F00407060004080B485B000AF0346FB71104B1B78DBB20F4ADB0013445B68FB60FB681033FB60FB681B78FA799A4202D30023FB6005E03C
:40488000FB79DB00FA6813445B68FB60FB6818461437BD465DF8047B704700BF6591FF1FB481000080B400AF054B1B78DBB2054ADB0013445B681846BD465DF8047B7047AD
:4048C0006591FF1FB481000080B584B000AF104B1B78DBB2013BDBB21846FFF7B9FFB860BB68002B0DD0BB685B681B79FB71FB790233DB00BA681344BB60BB685B68FB6085
:4049000001E00023FB60FB6818461037BD4680BD8791FF1F80B582B000AF0023FB71314B1B79DBB203F07F03BB71BB79002B53D0BB79082B50D8BA79B9792B480B465B0022
:404940000B449B0003449B78DBB243F00103D8B2254913465B0013449B000B4402469A70BA79214913465B0013449B000B440022DA70BA79B9791C480B465B000B449B0093
:4049800003445B78DBB243F00203D8B2164913465B0013449B000B4402465A70BA79124913465B0013449B000B441B79DBB2DBB25BB2002B06DA0D4ABB791B0113448D2232
:4049C0009A7005E0094ABB791B01134489229A70FFF70AF80346FB71FB7918460837BD4680BD00BF006000408C91FF1FFC5F004080B582B000AF0023FB71464B1B79DBB28F
:404A000003F07F03BB71BB79002B7DD0BB79082B7AD8BA79B97940480B465B000B449B0003449B78DBB223F00103D8B23A4913465B0013449B000B4402469A70BA793649E9
:404A400013465B0013449B000B440022DA70334ABB791B0113447F221A70BA79B9792E480B465B000B449B0003445B78DBB223F00203D8B2284913465B0013449B000B4466
:404A800002465A70BA79244913465B0013449B000B441B79DBB2DBB25BB2002B18DABA791D4913465B0013449B000B445B78DBB2012B06D1194ABB791B0113440C229A7044
:404AC0001EE0164ABB791B0113440D229A7017E0BA79114913465B0013449B000B445B78DBB2012B06D10D4ABB791B01134408229A7005E0094ABB791B01134409229A7056
:404B0000FEF772FF0346FB71FB7918460837BD4680BD00BF006000408C91FF1FFC5F004080B584B000AF0023FB73154B1B79BB73144B1B78DBB2013BDBB21846FFF788FEE7
:404B4000B860BB685B681B79FB71BA7BFB799A4202D9BB7B022B0ED8BB7BBA7B0A498A5CD1B20A4AD154BB7B054A9278D1B2064AD1540123FB73FB7B18461037BD4680BD7A
:404B8000006000408791FF1FF891FF1F6C91FF1F80B582B000AF0023FB710F4B1B78DBB2DBB25BB2002B12DA0B4B5B78DBB2012B00D00CE0094B0A4A5A60094B1B789AB25A
:404BC000064B1A80FEF7F4FD0346FB7100BFFB7918460837BD4680BD006000407091FF1FD081000080B400AF054B1B78DBB203F040039B09DBB21846BD465DF8047B704769
:404C00008F450040000000000230800803D000BF01380046FCD17047EFF3108072B6704780F31088704700BF80B483B000AF0346FB7101BE0C37BD465DF8047B704700BF25
:404C400080B582B000AF0346FB80FB88044A127802FB03F31846FFF7D7FF0837BD4680BDD082FF1F80B584B000AF03463960FB710F4B1B68FB60FB791F2B02D90020FFF7A6
:404C8000D3FFFB7903F01F0310339B00FA6813441B68BB60FB7903F01F0310339B00FA6813443A681A60BB6818461037BD4680BD08ED00E080B582B000AF03460A46FB7130
:404CC0001346BB71BB79072B02D90020FFF7ACFFFB791F2B02D90020FFF7A6FFFB7903F01F0303F1604303F56443BA795201D2B21A700837BD4680BD80B483B000AF786019
:404D0000264B1B78DBB21A467B681A60244B1B78DBB21B027A6812681A437B681A60214B1B78DBB21B047A6812681A437B681A601D4B1B78DBB21B067A6812681A437B685D
:404D40001A607B680433194A1278D2B21A60184B1B78DBB21A027B6804337968043109680A431A60134B1B78DBB21A047B6804337968043109680A431A600F4B1B78DBB22F
:404D80001A067B6804337968043109680A431A600C37BD465DF8047B704700BF0301004904010049EC460040020100490101004900010049050100490601004980B500AF6A
:404DC000054B1B78002B04D100F008F8024B01221A7000F061F880BD2890FF1F80B582B000AF284A274B1B78DBB243F00203DBB21370254B1B78DBB223F07003FB71224A3A
:404E0000FB7943F01003DBB21370204A1F4B1B78DBB223F03003DBB213701C4A1B4B1B78DBB243F03003DBB21370184A174B1B78DBB223F00F03DBB21370144A134B1B7894
:404E4000DBB243F00F03DBB21370642000F048F8002000F055F8002000F062F80C4A0C4B1B78DBB243F00103DBB21370094A094B1B78DBB243F00103DBB213700837BD4671
:404E800080BD00BF004F0040024F00400B4F0040A3430040014F004080B400AF0D4A0D4B1B78DBB243F00103DBB213700A4A0A4B1B78DBB243F00103DBB21370074A074BDA
:404EC0001B78DBB243F00103DBB21370BD465DF8047B7047A3430040B3430040004F004080B483B000AF0346FB71044BFA7992B21A800C37BD465DF8047B7047044F004003
:404F000080B483B000AF0346FB71044BFA7992B21A800C37BD465DF8047B7047064F004080B483B000AF0346FB71044AFB7913700C37BD465DF8047B704700BF034F00406E
:404F400080B485B000AF0346FB710B4B1B78DBB223F02003FB730849FB795B01DBB203F02003DAB2FB7B1343DBB20B701437BD465DF8047B704700BFF051004080B485B0A4
:404F800000AF0346FB710B4B1B78DBB223F00203FB730849FB795B00DBB203F00203DAB2FB7B1343DBB20B701437BD465DF8047B704700BF1051004080B500AF054B1B788C
:404FC000002B04D100F008F8024B01221A7000F061F880BD2990FF1F80B582B000AF284A274B1B78DBB243F00203DBB21370254B1B78DBB223F07003FB71224AFB7943F073
:405000001003DBB21370204A1F4B1B78DBB223F03003DBB213701C4A1B4B1B78DBB243F03003DBB21370184A174B1B78DBB223F00F03DBB21370144A134B1B78DBB243F079
:405040000F03DBB21370642000F048F8002000F055F8002000F062F80C4A0C4B1B78DBB243F00203DBB21370094A094B1B78DBB243F00103DBB213700837BD4680BD00BF32
:405080000C4F00400E4F0040174F0040A34300400D4F004080B400AF0D4A0D4B1B78DBB243F00203DBB213700A4A0A4B1B78DBB243F00203DBB21370074A074B1B78DBB282
:4050C00043F00103DBB21370BD465DF8047B7047A3430040B34300400C4F004080B483B000AF0346FB71044BFA7992B21A800C37BD465DF8047B7047104F004080B483B0A2
:4051000000AF0346FB71044BFA7992B21A800C37BD465DF8047B7047124F004080B483B000AF0346FB71044AFB7913700C37BD465DF8047B704700BF0F4F004080B485B052
:4051400000AF0346FB710B4B1B78DBB223F00203FB730849FB795B00DBB203F00203DAB2FB7B1343DBB20B701437BD465DF8047B704700BF2051004080B400AF054B1B78BB
:40518000DBB203F002035B08DBB21846BD465DF8047B70472151004080B400AFBD465DF8047B704780B582B000AF0F2000F06AF800F058F8FFF730FD0346FB71074A074B19
:4051C0001B78DBB243F01003DBB21370FB791846FFF726FD0837BD4680BD00BF9764004080B500AF00F034F94FF4004000F05CF9054B1B78002B04D1FFF7CEFF024B0122F6
:405200001A70FFF7CFFF80BD2A90FF1F80B582B000AF00F059F90346FB80FB88A3F500439BB2BB80BB881BB218460837BD4680BD80B584B000AF0346FB80B7F90630002B2F
:4052400004DBFB88A3F50043FB8103E0FB88A3F50043FB81FB89184600F026F91037BD4680BD00BF80B400AF054B1B78DBB203F00F03DBB21846BD465DF8047B704700BFF1
:405280006764004080B483B000AF0346FB71044AFB7913700C37BD465DF8047B704700BF8764004080B400AFBD465DF8047B704780B582B000AF0F2000F06AF800F058F8D0
:4052C000FFF7AAFC0346FB71074A074B1B78DBB243F01003DBB21370FB791846FFF7A0FC0837BD4680BD00BF9064004080B500AF00F084F94FF4004000F0ACF9054B1B7822
:40530000002B04D1FFF7CEFF024B01221A70FFF7CFFF80BD2B90FF1F80B582B000AF00F0A9F90346FB80FB88A3F500439BB2BB80BB881BB218460837BD4680BD80B584B02E
:4053400000AF0346FB80B7F90630002B04DBFB88A3F50043FB8103E0FB88A3F50043FB81FB89184600F076F91037BD4680BD00BF80B400AF054B1B78DBB203F00F03DBB2C7
:405380001846BD465DF8047B704700BF6064004080B483B000AF0346FB71044AFB7913700C37BD465DF8047B704700BF8064004080B582B000AF1C4B1B78DBB223F00703C0
:4053C000FB71194AFB791370174B1B78DBB223F00303FB71144AFB79137000F0B1F84FF4004000F08DF84FF4004000F05DF8002000F03EF800F04CF84FF4004000F090F8BD
:40540000FFF70AFC0346BB71084A084B1B78DBB243F01003DBB21370BB791846FFF700FC0837BD4680BD00BF756400409765004080B400AF054A054B1B78DBB263F07F0352
:40544000DBB21370BD465DF8047B70477564004080B500AF054B1B78002B04D1FFF7A8FF024B01221A70FFF7E3FF80BD2C90FF1F80B483B000AF0346FB71044AFB79137018
:405480000C37BD465DF8047B704700BF8765004080B400AF034B1B78DBB21846BD465DF8047B70476765004080B483B000AF0346FB80044AFB8813800C37BD465DF8047B8F
:4054C000704700BF0C6A004080B400AF044B1B78044B1B889BB21846BD465DF8047B7047066500408C6A004080B400AF034B1B889BB21846BD465DF8047B70478C6A00406C
:4055000080B483B000AF0346FB80044AFB8813800C37BD465DF8047B704700BF4C6A004080B483B000AF0346FB80044AFB8813800C37BD465DF8047B704700BF6C6A0040C3
:4055400080B500AF01E0FFF7CFFFFFF7A1FF034603F04003002BF6D180BD00BF80B582B000AF1C4B1B78DBB223F00703FB71194AFB791370174B1B78DBB223F00303FB7118
:40558000144AFB79137000F0B1F84FF4004000F08DF84FF4004000F05DF8002000F03EF800F04CF84FF4004000F090F8FFF734FB0346BB71084A084B1B78DBB243F0100323
:4055C000DBB21370BB791846FFF72AFB0837BD4680BD00BF776400409164004080B400AF054A054B1B78DBB263F07F03DBB21370BD465DF8047B70477764004080B500AF4C
:40560000054B1B78002B04D1FFF7A8FF024B01221A70FFF7E3FF80BD2D90FF1F80B483B000AF0346FB71044AFB7913700C37BD465DF8047B704700BF8164004080B400AF58
:40564000034B1B78DBB21846BD465DF8047B70476164004080B483B000AF0346FB80044AFB8813800C37BD465DF8047B704700BF0068004080B400AF044B1B78044B1B889E
:405680009BB21846BD465DF8047B7047006400408068004080B400AF034B1B889BB21846BD465DF8047B70478068004080B483B000AF0346FB80044AFB8813800C37BD462C
:4056C0005DF8047B704700BF4068004080B483B000AF0346FB80044AFB8813800C37BD465DF8047B704700BF6068004080B500AF01E0FFF7CFFFFFF7A1FF034603F0400304
:40570000002BF6D180BD00BF80B582B000AF786000F046F8786800F013F8072000F022F800F032F80837BD4680BD00BF80B500AF00F036F8014800F003F880BDB9260000A9
:4057400080B485B000AF7860054B1B68FB60FB6850337A681A601437BD465DF8047B704708ED00E080B483B000AF0346FB71054AFB795B01DBB213700C37BD465DF8047B07
:40578000704700BF04E400E080B400AF034B10221A60BD465DF8047B704700BF00E100E080B400AF034B10221A60BD465DF8047B704700BF80E100E080B500AF054B1B788E
:4057C000002B04D100F008F8024B01221A7000F023F880BD2E90FF1F80B400AF094B72221A70094B20221A70084B06221A70084B47221A70074B02221A70BD465DF8047B04
:40580000704700BF8E6400408B6400402C6400403C6400408A64004080B582B000AFFFF7FBF90346FB710F4A0E4B1B78DBB243F02003DBB213700C4A0B4B1B78DBB243F0C7
:405840001003DBB21370094A084B1B78DBB243F01003DBB21370FB791846FFF7E1F90837BD4680BD9E6400409B6400409A64004080B582B000AFFFF7CFF90346FB710F4A27
:405880000E4B1B78DBB223F02003DBB213700C4A0B4B1B78DBB223F01003DBB21370094A084B1B78DBB223F01003DBB21370FB791846FFF7B5F90837BD4680BD9E640040F4
:4058C0009B6400409A64004080B483B000AF0023FB710C4B1B78BB71BB7903F02003002B09D0094B1B78FB71BB7903F01E03002B01D00023FB71FB7918460C37BD465DF88F
:40590000047B70476B6400404A64004080B483B000AF0346FB7100BF074B1B78DBB203F00403002BF8D1054AFB7913700C37BD465DF8047B704700BF6A6400404965004078
:4059400080B584B000AF78600023FB810B4B1B78002B10D009E0FB897A6813441B781846FFF7D4FFFB890133FB81FB897A6813441B78002BEFD11037BD4680BD2E90FF1F72
:4059800080B483B000AF0346FB71044AFB7913700C37BD465DF8047B704700BF7D64004080B582B000AF786000F03CF8786800F009F8072000F018F800F028F80837BD46CA
:4059C00080BD00BF80B485B000AF7860054B1B68FB60FB686C337A681A601437BD465DF8047B704708ED00E080B483B000AF0346FB71054AFB795B01DBB213700C37BD4641
:405A00005DF8047B704700BF0BE400E080B400AF034B4FF400621A60BD465DF8047B704700E100E080B400AF034B4FF400621A60BD465DF8047B704780E100E080B582B028
:405A400000AF42F2273000F05BF842F2273000F073F8FFF7E1F80346FB710A4A094B1B78DBB243F01003DBB21370FB791846FFF7D7F800F071F8002000F026F80837BD46C1
:405A800080BD00BF9865004080B400AF054A054B1B78DBB263F07F03DBB21370BD465DF8047B70477965004080B500AF054B1B78002B04D1FFF7C2FF024B01221A70FFF70C
:405AC000E3FF80BD3090FF1F80B483B000AF0346FB71044AFB7913700C37BD465DF8047B704700BF8865004080B400AF034B1B78DBB21846BD465DF8047B70476865004092
:405B000080B483B000AF0346FB80044AFB8813800C37BD465DF8047B704700BF546A004080B400AF034B1B889BB21846BD465DF8047B7047946A004080B483B000AF0346EF
:405B4000FB80044AFB8813800C37BD465DF8047B704700BF146A004080B500AF01E0FFF7DFFFFFF7C1FF034603F00803002BF6D180BD00BF80B582B000AF786000F03CF862
:405B8000786800F009F8072000F018F800F028F80837BD4680BD00BF80B485B000AF7860054B1B68FB60FB6864337A681A601437BD465DF8047B704708ED00E080B483B016
:405BC00000AF0346FB71054AFB795B01DBB213700C37BD465DF8047B704700BF09E400E080B400AF034B4FF400721A60BD465DF8047B704700E100E080B400AF034B4FF492
:405C000000721A60BD465DF8047B704780E100E080B582B000AFC72000F06AF8C72000F083F8FEF7F9FF0346FB710A4A094B1B78DBB243F01003DBB21370FB791846FEF781
:405C4000EFFF00F081F8002000F036F80837BD4680BD00BF9D64004080B400AF054A054B1B78DBB263F07F03DBB21370BD465DF8047B70477A65004080B500AF054B1B7815
:405C8000002B04D1FFF7C4FF024B01221A70FFF7E3FF80BD3190FF1F80B400AF054A054B1B78DBB203F07F03DBB21370BD465DF8047B70477A65004080B483B000AF03460A
:405CC000FB71044AFB7913700C37BD465DF8047B704700BF8D64004080B400AF034B1B78DBB21846BD465DF8047B70476D64004080B483B000AF0346FB71044AFB791370D4
:405D00000C37BD465DF8047B704700BF2D64004080B400AF034B1B78DBB21846BD465DF8047B70474D64004080B483B000AF0346FB71044AFB7913700C37BD465DF8047BAA
:405D4000704700BF0D64004080B500AF01E0FFF7DFFFFFF7C1FF034603F00803002BF6D180BD00BF80B582B000AF786000F03CF8786800F009F8072000F018F800F028F85E
:405D80000837BD4680BD00BF80B485B000AF7860054B1B68FB60FB6874337A681A601437BD465DF8047B704708ED00E080B483B000AF0346FB71054AFB795B01DBB2137079
:405DC0000C37BD465DF8047B704700BF0DE400E080B400AF034B4FF400521A60BD465DF8047B704700E100E080B400AF034B4FF400521A60BD465DF8047B704780E100E0A4
:405E000080B584B000AF03460A46FB8013467B7100F0B2F80346FB7300F0A2F80346BB81FA88BB899A4200F08780454B1B78DBB203F00203FB72FB7B002B20D1BB89002BE2
:405E400002D0FB88002B1AD1BB89002B0BD13D4AFB8813803C4A3C4B1B78DBB223F04003DBB2137068E0384A374B1B78DBB243F04003DBB21370334AFB8813805CE0FB7A06
:405E8000002B33D0314B00221A70314B02221A70304B00221A70304A2F4B1B78DBB203F07F03DBB21370284B1B78DBB203F00803002B02D0FB88002B18D1284ABB89138034
:405EC000224B07221A7000BF204B1B78DBB203F00103002BF8D11A4A194B1B78DBB223F00203DBB21370194B00221A70144B1B78DBB203F00203002B13D0184AFB88138030
:405F0000124A7B79002B01D0032300E00123137000BF0E4B1B78DBB203F00103002BF8D10AE0084AFB8813800549054B1B78DAB2FB7A1343DBB20B701037BD4680BD00BF1D
:405F4000A24300408440004086400040014000401040004014400040084000400240004080B400AF034B1B889BB21846BD465DF8047B70478440004080B400AF054B1B786C
:405F8000DBB203F00703DBB21846BD465DF8047B704700BF8640004080B400AF034B1B78DBB21846BD465DF8047B70476464004080B400AF034B1B78DBB21846BD465DF8CD
:405FC000047B70476665004080B400AF034B1B78DBB21846BD465DF8047B70476564004080B400AF034B1B78DBB21846BD465DF8047B70476664004080B400AF034B1B780F
:40600000DBB21846BD465DF8047B70476965004080B582B000AF786000F03CF8786800F009F8072000F018F800F028F80837BD4680BD00BF80B485B000AF7860054B1B68BE
:40604000FB60FB6860337A681A601437BD465DF8047B704708ED00E080B483B000AF0346FB71054AFB795B01DBB213700C37BD465DF8047B704700BF08E400E080B400AF8C
:40608000034B4FF480721A60BD465DF8047B704700E100E080B400AF034B4FF480721A60BD465DF8047B704780E100E080B582B000AF42F20F7000F06BF842F20F7000F026
:4060C00083F8FEF7A9FD0346FB710A4A094B1B78DBB243F01003DBB21370FB791846FEF79FFD00F081F8002000F036F80837BD4680BD00BF9565004080B400AF054A054BB3
:406100001B78DBB263F07F03DBB21370BD465DF8047B70477565004080B500AF054B1B78002B04D1FFF7C2FF024B01221A70FFF7E3FF80BD3290FF1F80B400AF054A054BC3
:406140001B78DBB203F07F03DBB21370BD465DF8047B70477565004080B483B000AF0346FB71044AFB7913700C37BD465DF8047B704700BF8565004080B400AF034B1B7844
:40618000DBB21846BD465DF8047B70476565004080B483B000AF0346FB80044AFB8813800C37BD465DF8047B704700BF486A004080B400AF034B1B889BB21846BD465DF8C5
:4061C000047B7047886A004080B483B000AF0346FB80044AFB8813800C37BD465DF8047B704700BF086A004080B500AF01E0FFF7DFFFFFF7C1FF034603F00803002BF6D12F
:4062000080BD00BF80B582B000AF1A4B1B78DBB203F00303012B02D0022B04D012E0154B1B79BB7111E0134B1B79DBB203F07F02114913465B0013449B000B4408339B783C
:40624000BB7102E00023BB7100BF0C4B1A68BB7913441B78022B04D1FCF7A6FF0346FB7102E00023FB7100BFFB7918460837BD4680BD00BF006000408C91FF1F8091FF1F72
:406280002DE9F04F8BB0994606460F46904600F0A5F8DFF898A004469AF900300D46013303D000F093FA834620B1204629460BB0BDE8F08F3046394600F088FA0028F4D0D7
:4062C0004046494600F082FA0028EED014499AF800300322CDF820B0CDE90267CDE90489019100928BB90F4B4FF06042CDE90623684600F09DFA70B1089B1BB101F098F933
:40630000089B0360DDE90601D1E707490020022BCDE90601ECD101F08BF922230360EBE7F8810000FFFFEF470000F07FD882FF1F2DE9F0478AB006460F4600F081F9DFF8CF
:4063400098A004469AF900300D4601330FD03046394600F041FA50B14FF000084FF000093046394642464B4600F08EFE20B9204629460AB0BDE8F08716499AF80040012260
:406380000023CDE90467CDE9026701910092089364B9CDE90689684600F04AFA80B1089B9BB9DDE906010AB0BDE8F0874046494642464B4600F020FD022CCDE90601EAD1CB
:4063C00001F036F921230360E9E701F031F9089B0360E6E700820000D882FF1F2DE9F04F21F0004923F00048C14589B005DB46461446C8460246B1462046C9EB0804B4F1F7
:40640000707F9246C34606464F4600F39A80884B98457ADC00230193864B99451EDCB9F5801F80F2F480334659EA030300F0FA80814D00242246304639462B4600F0B2FB7C
:406440002246019C06460F46504659462B46A4F2FE34019400F0A6FB82468B4632463B465046594600F0EAF905460C4602460B463046394600F008FE00286BD00024434617
:4064800041462246204600F08DFB3246CDE902013B46304607F1004100F084FB434606460F4622465046594600F0CAF945468946804622462B465046594600F0BFF90246A7
:4064C0000B464046494600F06DFB02460B463046394600F0B3F902460B46DDE9020100F0ADF900F0ADF80B460199024600297ED0090501F17F55002405F540152046294661
:4065000000F050FB09B0BDE8F08F4C4B984573DD1346C8F3130858EA030307D01046594632464B4600F08CF982468B46334689F0FF4989F4E00959EA030373D13046394603
:40654000E0E71046414632464B4600F079F909B0BDE8F08F08F580134946994600200B46CDE9020102464946804600F01BFB2A46CDE904012346284604F1004100F012FB2F
:40658000DDE90223CDE906013046394600F056F902460B464046494600F004FB524604460D465B465046594600F04AF942464B4600F044F932463B4600F0F4FA02460B466E
:4065C0002046294600F03CF902460B46DDE9060100F034F902460B46DDE9040100F02EF900F02EF80B4601990246002980D11046194609B0BDE8F08FA8F11658A9F116593E
:406600004FF416734F469246C346019304E7019B08F1165809F11659A3F516734F46C34601931BE75046594609B0BDE8F08F00BF0000305FFFFFAF200000D07FFFFFEF7FF0
:406640002DE9F041604E0C46B6460E40764505460B4600F098800029024676DD5FEA215E00F08180AEF2FF3EC3F313031EF0010F43F480135ED100273C46D10F01EB430332
:406680004FEA6E0E520016204FF4001165189D424FEAD2764FEA420202DC5B1B6C180F44013806EB43034FEA5101EFD1844620264FF000410AE0A34220D0D50F013E4FEA5E
:4066C000510105EB43034FEA420220D09C420CEB0105F0DA002D05EB010C09DBA0461B1B954288BF03F1FF334446521B0844E4E7BCF1000FF2DB04F10108F0E7954217D860
:40670000002D05EB010C48DB98460023ECE7134315D140087B1003F17F5303F50013FA0703EB0E57394648BF40F00040BDE8F0811C46C2E7D10F01EB430352009BE7411CAA
:4067400031D000F001031844E3E721F000460643ECD079BB8E46D30AAEF1150E5205002BF9D0DC0222D400215B00D80201F10101FAD5C1F10100C1F1200422FA04F42343C0
:4067800086448A406EE702460B4600F00BFA2A46234600F055F8BDE8F081BCF1000FAADAA0460023A0E701373046B3E7202401200021E2E702460B4600F040F802460B4675
:4067C00000F01AFBB2E700BF0000F07F41F0004101F58010C00F704710B431F0004408D0114BA1F580129A4208D804205DF8044B704718B902205DF8044B704701F1FF410F
:40680000094B01F5E0019942EFD9B4F5801F01D20320EBE7054B9C4201D00020E6E7B0FA80F04009E2E700BFFFFFDF7F0000F07F0020704781F0004102E000BF83F00043F8
:4068400030B54FEA41044FEA430594EA050F08BF90EA020F1FBF54EA000C55EA020C7FEA645C7FEA655C00F0E2804FEA5454D4EB5555B8BF6D420CDD2C4480EA020281EA94
:40688000030382EA000083EA010180EA020281EA0303362D88BF30BD11F0004F4FEA01314FF4801C4CEA113102D0404261EB410113F0004F4FEA03334CEA133302D05242EA
:4068C00063EB430394EA050F00F0A780A4F10104D5F1200E0DDB02FA0EFC22FA05F2801841F1000103FA0EF2801843FA05F359410EE0A5F120050EF1200E012A03FA0EFC95
:4069000028BF4CF0020C43FA05F3C01851EBE37101F0004507D54FF0000EDCF1000C7EEB00006EEB0101B1F5801F1BD3B1F5001F0CD349085FEA30004FEA3C0C04F1010471
:406940004FEA445212F5800F80F09A80BCF1004F08BF5FEA500C50F1000041EB045141EA050130BD5FEA4C0C404141EB010111F4801FA4F10104E9D191F0000F04BF0146FE
:406980000020B1FA81F308BF2033A3F10B03B3F120020CDA0C3208DD02F1140CC2F10C0201FA0CF021FA02F10CE002F11402D8BFC2F1200C01FA02F120FA0CFCDCBF41EAF3
:4069C0000C019040E41AA2BF01EB0451294330BD6FEA04041F3C1CDA0C340EDC04F11404C4F1200220FA04F001FA02F340EA030021FA04F345EA030130BDC4F10C04C4F12A
:406A0000200220FA02F001FA04F340EA0300294630BD21FA04F0294630BD94F0000F83F4801306BF81F480110134013D4EE77FEA645C18BF7FEA655C29D094EA050F08BFB6
:406A400090EA020F05D054EA000C04BF1946104630BD91EA030F1EBF0021002030BD5FEA545C05D14000494128BF41F0004130BD14F580043CBF01F5801130BD01F000455E
:406A800045F0FE4141F470014FF0000030BD7FEA645C1ABF194610467FEA655C1CBF0B46024650EA013406BF52EA033591EA030F41F4002130BD00BF90F0000F04BF002191
:406AC000704730B54FF4806404F132044FF000054FF0000150E700BF90F0000F04BF0021704730B54FF4806404F1320410F0004548BF40424FF000013EE700BF42004FEA60
:406B0000E2014FEA31014FEA02701FBF12F07F4393F07F4F81F06051704792F0000F14BF93F07F4F704730B54FF4607401F0004521F0004120E700BF50EA010208BF70471F
:406B400030B54FF000050AE050EA010208BF704730B511F0004502D5404261EB41014FF4806404F132045FEA915C3FF4DCAE4FF003025FEADC0C18BF03325FEADC0C18BF67
:406B8000033202EBDC02C2F1200300FA03FC20FA02F001FA03FE40EA0E0021FA02F11444C1E600BF70B54FF0FF0C4CF4E06C1CEA11541DBF1CEA135594EA0C0F95EA0C0F17
:406BC00000F0DEF82C4481EA030621EA4C5123EA4C5350EA013518BF52EA033541F4801143F4801338D0A0FB02CE4FF00005E1FB02E506F00042E0FB03E54FF00006E1FBB6
:406C000003569CF0000F18BF4EF0010EA4F1FF04B6F5007F64F5407404D25FEA4E0E6D4146EB060642EAC62141EA55514FEAC52040EA5E504FEACE2EB4F1FD0C88BFBCF552
:406C4000E06F1ED8BEF1004F08BF5FEA500E50F1000041EB045170BD06F0004646EA010140EA020081EA0301B4EB5C04C2BFD4EB0C0541EA045170BD41F480114FF0000E5B
:406C8000013C00F3AB8014F1360FDEBF002001F0004170BDC4F10004203C35DA0C341BDC04F11404C4F1200500FA05F320FA04F001FA05F240EA020001F0004221F000412E
:406CC00010EBD37021FA04F642EB06015EEA430E08BF20EAD37070BDC4F10C04C4F1200500FA04F320FA05F001FA04F240EA020001F0004110EBD37041F100015EEA430E3B
:406D000008BF20EAD37070BDC4F1200500FA05F24EEA020E20FA04F301FA05F243EA020321FA04F001F0004121FA04F220EA020000EBD3705EEA430E08BF20EAD37070BD64
:406D400094F0000F0FD101F00046400041EB010111F4801F08BF013CF7D041EA060195F0000F18BF704703F00046520043EB030313F4801F08BF013DF7D043EA060370471A
:406D800094EA0C0F0CEA135518BF95EA0C0F0CD050EA410618BF52EA4306D1D181EA030101F000414FF0000070BD50EA410606BF1046194652EA430619D094EA0C0F02D12E
:406DC00050EA013613D195EA0C0F05D152EA03361CBF104619460AD181EA030101F0004141F0FE4141F470014FF0000070BD41F0FE4141F4780170BD70B54FF0FF0C4CF4D1
:406E0000E06C1CEA11541DBF1CEA135594EA0C0F95EA0C0F00F0A7F8A4EB050481EA030E52EA03354FEA013100F088804FEA03334FF0805545EA131343EA12634FEA0222CD
:406E400045EA111545EA10654FEA00260EF000419D4208BF964244F1FD0404F5407402D25B084FEA3202B61A65EB03055B084FEA32024FF480104FF4002CB6EB020E75EB2B
:406E8000030E22BFB61A754640EA0C005B084FEA3202B6EB020E75EB030E22BFB61A754640EA5C005B084FEA3202B6EB020E75EB030E22BFB61A754640EA9C005B084FEA7B
:406EC0003202B6EB020E75EB030E22BFB61A754640EADC0055EA060E18D04FEA051545EA16754FEA06164FEAC30343EA52734FEAC2025FEA1C1CC0D111F4801F0BD141EA82
:406F000000014FF000004FF0004CB6E711F4801F04BF01430020B4F1FD0C88BFBCF5E06F3FF6AFAEB5EB030C04BFB6EB020C5FEA500C50F1000041EB045170BD0EF0004E96
:406F40004EEA113114EB5C04C2BFD4EB0C0541EA045170BD41F480114FF0000E013C90E645EA060E8DE60CEA135594EA0C0F08BF95EA0C0F3FF43BAF94EA0C0F0AD150EA9B
:406F800001347FF434AF95EA0C0F7FF425AF104619462CE795EA0C0F06D152EA03353FF4FDAE1046194622E750EA410618BF52EA43067FF4C5AE50EA41047FF40DAF52EA6F
:406FC00043057FF4EBAE12E74FF0FF3C06E000BF4FF0010C02E000BF4FF0010C4DF804CD4FEA410C7FEA6C5C4FEA430C18BF7FEA6C5C1BD001B050EA410C0CBF52EA430C16
:4070000091EA030F02BF90EA020F0020704710F1000F91EA030F58BF994208BF90422CBFD8176FEAE37040F0010070474FEA410C7FEA6C5C02D150EA013C07D14FEA430CA9
:407040007FEA6C5CD6D152EA033CD3D05DF8040B704700BF8446104662468C461946634600E000BF01B5FFF7B7FF002848BF10F1000F01BD4DF808EDFFF7F4FF0CBF012091
:4070800000205DF808FB00BF4DF808EDFFF7EAFF34BF012000205DF808FB00BF4DF808EDFFF7E0FF94BF012000205DF808FB00BF4DF808EDFFF7CEFF94BF012000205DF895
:4070C00008FB00BF4DF808EDFFF7C4FF34BF012000205DF808FB00BF4FEA410212F5001215D211D56FF47873B3EB625212D94FEAC12343F0004343EA505311F0004F23FAD3
:4071000002F018BF404270474FF00000704750EA013005D111F0004008BF6FF0004070474FF00000704700BF80F0004002E000BF81F0004142001FBF5FEA410392EA030FC5
:407140007FEA226C7FEA236C6AD04FEA1262D2EB1363C1BFD218414048404140B8BF5B42192B88BF704710F0004F40F4000020F07F4018BF404211F0004F41F4000121F07A
:407180007F4118BF494292EA030F3FD0A2F1010241FA03FC10EB0C00C3F1200301FA03F100F0004302D5494260EB4000B0F5000F13D3B0F1807F06D340084FEA310102F19A
:4071C0000102FE2A51D2B1F1004F40EBC25008BF20F0010040EA03007047490040EB000010F4000FA2F10102EDD1B0FA80FCACF1080CB2EB0C0200FA0CF0AABF00EBC2509E
:4072000052421843BCBFD0401843704792F0000F81F4000106BF80F400000132013BB5E74FEA41037FEA226C18BF7FEA236C21D092EA030F04D092F0000F08BF0846704784
