:400000000080002011000000DD070000DD07000080B500AF024A034B1B68136000F00AFCBC760040FA46004010B5054C237833B9044B13B10448AFF300800123237010BD49
:40004000E881FF1F00000000D85B0000084B10B51BB108480849AFF300800848036803B910BD074B002BFBD0BDE81040184700BF00000000D85B0000EC81FF1F0881FF1F1B
:400080000000000080B489B000AF524B1B78012B40F09A804F4B00221A704F4B5B781B029AB24D4B1B789BB213439BB2FB834B4B1B78043B1E2B00F2878001A252F823F01F
:4000C0003D010000C901000051010000C901000059010000C901000061010000C901000069010000C901000071010000C901000079010000C901000081010000C90100008C
:4001000089010000C901000091010000C901000099010000C9010000A1010000C9010000A9010000C9010000B1010000C9010000B9010000C9010000C1010000264B1B7805
:40014000DAB2274B1A70244B5A78254B5A703BE0FA8B234B5A8037E0FA8B214B9A8033E0FA8B1F4BDA802FE0FA8B1D4B1A812BE0FA8B1B4B5A8127E0FA8B194B9A8123E0A0
:40018000FA8B174BDA811FE0FA8B154B1A821BE0FA8B134B5A8217E0FA8B114B9A8213E0FA8B0F4BDA820FE0FA8B0D4B1A830BE0FA8B0B4B5A8307E0FA8B094B9A8303E0D5
:4001C000FA8B074BDA8300BF2437BD465DF8047B704700BF1282FF1F8482FF1F2682FF1F3083FF1F80B483B000AF786039607B689AB2054B1A803B689AB2044B1A800C373C
:40020000BD465DF8047B70472282FF1F2482FF1F80B500AF00200021FFF7E4FF002003F047F9002003F090FA034B00221A80034B00221A8080BD00BF2082FF1F1E82FF1F2E
:40024000B0B582B000AF03F003FE0346FB71FB79AA2B1CD11B4B1B78222B11D11A4B1B4A156854689068D1681D605C609860D960156954699069D1691D615C619861D961B7
:40028000104B02221A70124B00221A7016E00D4B1B7803F001030F49FA79CA54094B1B7803F00103DBB2002B02D0094B01221A70044B1B780133DAB2024B1A700837BD4647
:4002C000B0BD00BF2682FF1F8882FF1F3083FF1F1282FF1F8482FF1F80B500AF00F072FE03461A46044B1A80044B01221A70044B01221A7080BD00BFE882FF1F1782FF1F34
:400300001682FF1F80B500AF03F078FA03461A46084B1A8003F0F8FA03461A46064B1A80002003F07DFA002003F000FB034B01221A7080BD1A82FF1F1C82FF1F1982FF1FB0
:4003400080B500AFFFF764FF80BD00BF80B500AF0C4B1B78002B0CBF01230023DBB21A46084B1A70074B1B78184603F0C1F8054B1B78184603F0DAF814201421FFF732FFEA
:4003800080BD00BF1882FF1F80B500AF00F002FE80BD00BFB0B5A4B000AF6B4B1B78002B00F0CE80684B00221A70684B1B881BB207F14402104666491A4604F0FBFF654BDC
:4003C0001B881BB23A1D104663491A4604F0F2FF5E4B1B88A7F88E305E4B1B88A7F88C305E4B1B881AB2B7F98E30002BB8BF5B42D31AC7F88830D7F8883083EAE372A2EBA0
:40040000E372D7F8883092FBF3F3184604F0E6F904460D46D7F88830002BB8BF5B42184604F0DCF902460B461046194603F03AFF02460B462046294604F036FA02460B460D
:400440001046194604F0CAFC0346C7F88430D7F884309AB2424B1B889BB213449BB29AB23F4B1A803F4B1B881AB2B7F98C30002BB8BF5B42D31AC7F88830D7F8883083EAF5
:40048000E372A2EBE372D7F8883092FBF3F3184604F0A4F904460D46D7F88830002BB8BF5B42184604F09AF902460B461046194603F0F8FE02460B462046294604F0F4F94E
:4004C00002460B461046194604F088FC0346C7F88430D7F884309AB2234B1B889BB213449BB29AB2204B1A801F4B1B881BB2002B02DA1D4B00221A80194B1B881BB2002B54
:4005000002DA174B00221A80174B1B881BB2642B02DD154B64221A80114B1B881BB2642B02DD0F4B64221A800D4B1B88DBB2184602F0BEFF0C4B1B88DBB2184603F004F9E3
:400540009037BD46B0BD00BF1982FF1F1A82FF1FDC5B00001C82FF1FF45B00002282FF1F1E82FF1F2482FF1F2082FF1F80B586B000AF274B1B78012B46D1254B00221A704E
:40058000244B7B61244B1B881BB241F2883202FB03F3002B01DA03F6FF731B13184604F0FFFC03461846796904F04EFD03461846194604F041FC0346184604F095FE0346CF
:4005C0007B82B7F91220154B1B881BB21A44144B1B881BB21344134A82FB0312DB17D31A7B820E4B1A880E4B1A800C4A7B8A1380B7F912303A4610460B491A4604F0DAFED9
:400600003B46184600F0B6F81837BD4680BD00BF1782FF1FFED4783FE882FF1F5083FF1F2C83FF1F565555550C5C000080B584B000AF254B1B78012B42D1234B00221A7038
:40064000224800F097F8224B1B785BB23A46104620491A4604F0AEFE3B46184600F08AF81D4800F087F81A4B5B881BB23A46104618491A4604F09EFE3B46184600F07AF8A3
:40068000164800F077F8124B9B881BB23A46104610491A4604F08EFE3B46184600F06AF80F4800F067F80A4BDB881BB23A46104608491A4604F07EFE3B46184600F05AF8AD
:4006C0001037BD4680BD00BF1682FF1F245C00008882FF1F2C5C0000345C0000405C00004C5C000080B500AF62B602F03FFE02F089FF00F07BFB194802F036FF00F082FDF8
:40070000174800F0BFFC03F063F803F0E7F8154803F0EAFB03F06CFC134803F0E9FC134803F034FD0020012100F0AEFD00F04CFF0346002B01D001F0B3F80D4803F0DCFA36
:4007400003F028FB002003F0BFFBFFF70FFFFFF721FEFFF797FCFFF769FFF6E7D90200008903000005030000410300004D0300004102000080B584B000AF7860154B1B7890
:40078000002B23D00023FB600AE0FB680133FB60FB68114A934203D10E4B00221A7015E001F008F90346002BEFD07B683F3300221A707B683E3321221A70786804F01EFE29
:4007C00003469BB27868194601F0BEF81037BD4680BD00BF0D81FF1FC0C62D0080B400AFFEE700BF80B584B000AF78600F4B1A687B6813441A460E4BD31A802B09DC0B4BBF
:400800001B68FB60094B1A687B681344074A136007E004F08FFD02460C2313604FF0FF33FB60FB6818461037BD4680BD5081FF1F4084FF1F80B586B000AF224B7B61224B00
:400840003B61204B7B6135E03B691B68FB603B695B68BB603B699B683B6000237B600CE0FB681A68BB681A60BB680433BB60FB680433FB607B6804337B607A683B689A420E
:40088000EED13B69DB683B6000237B6008E0BB6800221A60BB680433BB607B6804337B607A683B689A42F2D13B6910333B617B69013B7B617B69002BC6D104F041FDFFF777
:4008C00011FFFEE701000000A85E000080B582B000AF174B174A1A60174A174B1B6843F40073136000237B600FE07B68032B04D8124A7B6852F8233000E0114B11497A6818
:4009000041F822307B6801337B607B682F2BECD90D4B1B78DAB20D4B1A700D4B094A1A6000F086F90B4B00221A600837BD4680BD0CED00E00004FA0514ED00E0000000001D
:40094000DD0700000080FF1FBC7600400481FF1F08ED00E00081FF1F80B582B000AF78603960786800213A6804F01BFD0837BD4680BD00BF80B584B000AFF860B9607A6095
:40098000F868B9687A6804F001FD1037BD4680BD80B483B000AF0346FB71FEE780B487B000AF7860396000233B6100237B6127E07B699B007A6813441B68BB60BB68FB7374
:4009C000BB6823F0FF03BB6014E03B695B003A6813441B781A46BB68134419463B695B003A6813445B780B703B6901333B61FB7B013BFB73FB7B002BE7D17B6901337B61C5
:400A00007B69262BD4D91C37BD465DF8047B704780B582B000AF3F4B0F221A803E4B1B221A703E4B04221A803D4B18221A703D4B3B221A803C4B18221A703C4B3B221A805B
:400A40003B4B18221A703B4B81221A803A4B18221A703A4B00221A80394B1B221A70394B06221A70384B52221A70384B384A1278D2B21A70374B40F619121A80364B41F20F
:400A800051221A800023FB7019237B6014E0FB785B00DAB2314B1B78DBB203F00103DBB21343DBB203F00303FB704FF4F07002F083FB7B68013B7B607B68002B02D0FB786F
:400AC000032BE4D17B68002B02D10320FFF760FF234B4FF480721A80214B07221A70214B00221A70204B48221A701D4B00221A701E4B00221A701E4B02221A701D4A1D4BD8
:400B00001B78DBB243F03F03DBB213700837BD4680BD00BF80400040824000408440004086400040884000408A4000408C4000408E40004090400040924000409440004064
:400B4000964000400043004000420040A14600400F0100492242004020420040254200400440004006400040084000400940004001400040A243004080B582B000AF204BAB
:400B80001B78FB711F4B1B78BB711F4B1B787B711E4AFB7903F00703DBB213701C4AFB791B09DBB21370174ABB7943F00303DBB21370154A7B7943F00303DBB21370154B53
:400BC00020221A70144B40221A70144B40221A70134B20221A70134B20221A70124B20221A700A2002F004FB074A7B791370054ABB7913700D4B44221A700837BD4680BD66
:400C0000CF010049F8460040F94600406E5800406F5800400D510040095900400B590040285B00402B5B0040585B00407658004080B586B000AF72B6534B61221A70FFF740
:400C4000E7FE514B01221A70504A504B1B78DBB243F00403DBB213700023FB7513E0FA7D13465B0013445B00494A13443B613B691A683B699B889BB210461946FFF76CFE6F
:400C8000FB7D0133FB75FB7D072BE8D90023FB751CE0FA7D13469B0013445B003D4A1344FB60FB681B68BB60FB685B687B60FB681A7A5B7A1B0213437B807B88B868796888
:400CC0001A46FFF757FEFB7D0133FB75FB7D002BDFD04FF090403049FFF760FE2F4A2F4B1B78DBB243F00203DBB213702C4A2C4B1B78DBB243F00203DBB21370294A294B68
:400D00001B78DBB243F04003DBB21370264A264B1B78DBB243F01003DBB21370234824490822FFF727FE234823490822FFF722FE224823490A22FFF71DFE22482249082270
:400D4000FFF718FE214822490A22FFF713FE214821490822FFF70EFE204B44221A70204B44221A701F4A1F4B1B78DBB243F00803DBB21370FFF700FF1B480A490E22FFF799
:400D8000F9FD1837BD4680BD00480040E8460040585C0000885C00009C0000480350014013500140A0430040C2430040025100402C0D0048C2510040340D0048F05100402B
:400DC0003C0D004812510040480D004820510040500D0048325100405C0D00485B040140DB06014022430040B043004080B500AF054B1B78002B04D100F008F8024B012297
:400E00001A7000F025F880BD2882FF1F80B500AF102003F053F90020072102F023FA0020084902F0F7F9084A074B1B78DBB243F00603DBB213700C2000F084F8034B002201
:400E40001A8080BD79100000095900405C83FF1F80B582B000AF02F0B7F90346FB712E4A2D4B1B78DBB243F00203DBB213702B4A2A4B1B78DBB243F00203DBB21370284AEA
:400E8000274B1B78DBB243F00403DBB21370254A244B1B78DBB243F00403DBB21370224B1B78BB71BB7943F00203BB71BB7943F00103BB711C4ABB7913701C4B04221A707F
:400EC0001B4A1B4B1B78DBB243F04003DBB21370174A174B1B78DBB223F00303DBB21370144BCE221A70144B02221A70134A134B1B78DBB243F00803DBB213700A2002F04A
:400F000077F90F4B01221A60FB79184602F060F90837BD4680BD00BFAB430040BB430040A2430040B24300400B5900400E5900400D59004008590040164600402F5B004031
:400F400080E200E080B584B000AF0346FB71FB790A2B07D00C2B02D0082B06D008E0C423FB730BE08423FB7308E04423FB7305E0C423FB73002002F02FF900BF044AFB7BDF
:400F80001370FB79184600F037F81037BD4680BD0A59004080B400AF094A094B1B78DBB223F00403DBB21370054A054B1B78DBB243F00103DBB21370BD465DF8047B70472B
:400FC0000859004080B483B000AF094B1B88FB80084B1B889BB29BB2FA88D31A9BB29BB21BB218460C37BD465DF8047B704700BFA25B00405883FF1F80B584B000AF0346DD
:40100000FB71FB790A2B08D00C2B02D0082B08D00BE04FF48053FB600DE04FF48063FB6009E04FF48073FB6005E00023FB60002002F0D2F800BF0C4B00221A80FB6842F2C3
:40104000107202FB03F303F6C413084A82FB0312D212DB17D31A064A1360064B00221A801037BD4680BD00BF5A83FF1FAD8BDB685483FF1F5883FF1F80B400AFBD465DF8CF
:40108000047B704780B582B000AF786000F03CF8786800F009F8072000F018F800F028F80837BD4680BD00BF80B485B000AF7860054B1B68FB60FB685C337A681A601437EB
:4010C000BD465DF8047B704708ED00E080B483B000AF0346FB71054AFB795B01DBB213700C37BD465DF8047B704700BF07E400E080B400AF034B80221A60BD465DF8047B14
:40110000704700BF00E100E080B400AF034B80221A60BD465DF8047B704700BF80E100E080B500AF214A214B1B78DBB203F00103DBB213701E4A1E4B1B78DBB223F00303B1
:40114000DBB213701B4A1B4B1B78DBB223F03003DBB21370174A174B1B78DBB243F03003DBB21370134A134B1B78DBB223F00F03DBB213700F4A0F4B1B78DBB243F00F039D
:40118000DBB213700C4A0C4B1B78DBB243F00103DBB213704CF24F3000F054F84CF24F3000F062F8002000F03DF880BD184F00401A4F0040234F0040194F004080B400AFFC
:4011C0000D4A0D4B1B78DBB243F00403DBB213700A4A0A4B1B78DBB243F00403DBB21370074A074B1B78DBB243F00103DBB21370BD465DF8047B7047A3430040B3430040CF
:40120000184F004080B500AF054B1B78002B04D1FFF786FF024B01221A70FFF7CFFF80BD2982FF1F80B483B000AF0346FB71044AFB7913700C37BD465DF8047B704700BF61
:401240001B4F004080B485B000AF0346FB80FB88FB81044AFB8913801437BD465DF8047B704700BF1C4F004080B483B000AF0346FB80044AFB8813800C37BD465DF8047BE9
:40128000704700BF1E4F004080B582B000AF03460A46FB711346BB71084B1B78002B04D100F00EF8054B01221A70FA79BB791046194600F0D5F80837BD4680BD2A82FF1F30
:4012C00080B582B000AF01F07FFF0346FB71534A524B1B78DBB243F00103DBB21370504A4F4B1B78DBB243F00103DBB213704D4B01221A704C4B02221A704C4A4B4B1B782F
:40130000DBB203F07F03DBB21370002001F070FF474A474B1B78DBB223F00603DBB21370444A444B1B78DBB223F02003DBB213703F4A3F4B1B78DBB243F00103DBB21370AF
:40134000012001F055FF282001F052FF3A4A3A4B1B78DBB203F07F03DBB21370364A364B1B78DBB223F04003DBB21370304A304B1B78DBB243F00203DBB21370022001F0D8
:4013800037FF2B4A2A4B1B78DBB243F00403DBB213702A4B00221A70294B00221A70FB79184601F015FF1720072101F05BFF1720244901F02FFF1820072101F053FF182043
:4013C000214901F027FF1520072101F04BFF15201E4901F01FFF0120072101F043FF01201B4901F017FF0220072101F03BFF0220184901F00FFF0320072101F033FF032099
:40140000154901F007FF0C20072101F02BFF0C20124901F0FFFE0837BD4680BDA5430040B54300409D60004009600040106000409443004012600040F85100408460004088
:40144000856000409D2100006D1A0000912100008D200000E120000035210000A921000080B582B000AF03460A46FB711346BB712E4AFB7913702E4B00221A702D4B0022B4
:401480001A702D4B00221A702C4B00221A702C4B00221A702B4B00221A702B4B00221A702A4B4FF400021A60284B4FF080721A60264B4FF400121A60244B02221A60234BE7
:4014C00004221A60214B08221A60BB79002B02D0012B09D011E01E4A1D4B1B78DBB223F00103DBB2137011E0194A194B1B78DBB243F00103DBB2137008E0154A144B1B78A6
:40150000DBB243F00103DBB2137000BF114B03221A70114B80221A70012001F04DFE0F4B04221A700837BD4680BD00BF7983FF1F7C83FF1F9883FF1F9B83FF1F9083FF1F03
:401540009A83FF1F9D83FF1F7883FF1F00E100E00960004028600040086000401260004080B400AF0F4B00221A700F4B00221A700E4B00221A700E4B00221A700D4B0022DA
:401580001A700D4B00221A700C4B00221A700C4B03221A700B4B80221A70BD465DF8047B704700BF7C83FF1F9883FF1F9B83FF1F9083FF1F9A83FF1F9D83FF1F7883FF1F70
:4015C000286000400860004080B400AF034B1B78DBB21846BD465DF8047B70479B83FF1F80B483B000AF0346FB71FA79064913465B0013449B000B445B78DBB218460C377F
:40160000BD465DF8047B7047A083FF1FB0B485B000AF03463960FB711346BB80FB79002B66D0FB79082B63D8B988FA79324813465B0013449B000344DB889BB2C3F5007304
:4016400099420BD9FA792C4913465B0013449B000B44DB889BB2C3F50073BB80274CF979BB881B0A9BB2D8B2FA79234D13465B0013449B002B44DB78DBB20343DAB20B01DE
:4016800023441A701D4AFB79B988C9B21B0113440A465A703B68002B13D00023FB810CE01748FB79FA8939680A4412781B01034408331A70FB890133FB81FA89BB889A420C
:4016C000EED3FA790C4913465B0013449B000B4400225A700948F979FA79074C13465B0013449B0023445B79DAB20B0103449A701437BD46B0BC7047A083FF1FFC5F0040E0
:401700007060004090B482B000AF0346FB71FB79002B19D0FB79082B16D8FA790C4913465B0013449B000B4400225A700948F979FA79074C13465B0013449B0023445B798F
:40174000DAB20B0103449A700837BD4690BC7047A083FF1FFC5F004080B582B000AF0023FB71324B1B79DBB2184600F069F80346BB712E4B1B78DBB2DBB25BB2002B16DAAA
:401780002A4B5B78DBB2212B00D00FE0284B07221A80BA791346DB009B1A264A1344244A536000F0DDFA0346FB7100BF38E01F4B5B78DBB2202B02D0222B1AD030E01C4B27
:4017C00007221A80BA791346DB009B1A194A1344174A5360BB79BA7917498A5CD2B242F00102D1B2144AD15400F03AFB0346FB7116E0BB790D4A9278D2B291B20F4A22F831
:401800001310BB79BA790C498A5CD2B242F00202D1B2094AD15400F0BFFB0346FB7100BFFB7918460837BD4680BD00BF006000408483FF1F5481FF1F6083FF1F7483FF1F32
:4018400080B485B000AF0346FB710023FB73FF23BB7317E0FB7B104AD35C7B737A7B0F4913465B0013449B000B4408339B78DBB2FA799A4203D1FB7BBB730223FB73FB7BE9
:401880000133FB73FB7B012BE4D9BB7B18461437BD465DF8047B70476883FF1FA083FF1F80B582B000AF0023BB71224B00221A70214B00221A70204B00225A700023FB71F4
:4018C00010E0FB791D4AD35C7B717B79002B06D07B79082B03D87B791846FFF713FFFB790133FB71FB79012BEBD9154B1B78DBB2002B18D0114B1B78DBB2002B13D0114BC0
:401900001B78DBB2002B0ED00D4B1B78DBB2082B09D80A4B1B78DBB2082B04D8094B1B78DBB2082B01D90123BB71BB7918460837BD4680BD2B82FF1F6083FF1F6C83FF1FB3
:401940006483FF1F6883FF1F80B584B000AF78600B467B80144B1B781A46144B9B5CFB73FA7B134913465B0013449B000B4408331B889BB27A889A420CD9FA7B0C49134630
:401980005B0013449B000B4408331B887B80002001F022FCFA7B7B88104679681A46FFF735FE1037BD4680BD2B82FF1F6483FF1FA083FF1F80B500AF054B1B781A46054B3C
:4019C0009B5CDBB21846FFF70BFE0346184680BD2B82FF1F6483FF1F80B485B000AF78600B46FB701346BB707B68DB7803F00303FB737B689B78DBB25BB2002B1ADAFB7B60
:401A0000032B0AD0BB7803F001031549FA78CA54BB7843F00103BB701BE0BB789B08DBB203F001030F49FA78CA54BB7843F00403BB700EE0FB7B032B0BD0BB785B08DBB28C
:401A400003F001030849FA78CA54BB7843F00203BB70BB7818461437BD465DF8047B70476483FF1F6883FF1F6C83FF1F80B582B000AF374B1B78BB71BB7903F01003002BB7
:401A800063D00123FB71BB795BB2002B13DABB7903F00F03012B02D00023FB711DE000F061F82C4B1B78DBB2DBB25BB2002B14DA0023FB7111E0BB7903F04003002B02D0CD
:401AC00000F094F809E0BB7903F02003002B02D000F0B2F801E00023FB71FB79002B34D01B4B1B78BB71BB795BB2002B2DDB1A4B1B78DAB2194B1B78DBB21343BB71184A08
:401B0000BB791370164B1B78DBB2BA799A421CD1104B1B78FB710E4B1B78DBB223F07F03BB71BB79002B0AD1094B0A4A1278D2B21A70074B1B78DBB203F00F03FB71054B30
:401B40001B78DBB2FA799A42E2D10837BD4680BD286000409983FF1F0E84FF1F9C83FF1F2960004080B582B000AF1D4B1B78FB711B4AFB7913701A4B1B78FB71FB795BB24E
:401B8000002B03DA174AFB79137025E0022000F043FA154B1B78DBB203F06003202B08D0402B0BD0002B0ED100F004FB0346FB710CE002F039FB0346FB7107E001F0C0FA2B
:401BC0000346FB7102E00023FB7100BFFB79002B02D1044B03221A700837BD4680BD00BF286000409983FF1F0060004080B500AF104B1B78DBB2062B19D801A252F823F02F
:401C00002F1C00002F1C00001D1C00002F1C0000231C00002F1C0000291C000000F0FAF806E000F0A9F903E000F0D2F900E000BF80BD00BF7C83FF1F80B500AF124B1B7837
:401C4000DBB2062B1DD801A252F823F0831C0000831C0000691C0000831C00006F1C0000831C0000751C000000F0DAF80AE000F029F907E0032000F0CFF9044B03221A7016
:401C800000E000BF80BD00BF7C83FF1F9983FF1F80B483B000AF0023FB71294B1B78DBB29AB2284B1B889BB213449AB2254B1A8015E02549FB79254A52681278D2B2CA5471
:401CC000224B5B680133214A5360FB790133FB711E4B1B889BB2013B9AB21C4B1A801B4B1B889BB2002B02D0FB79072BE1D9144B1B78DBB2082B02D0FB79002B0FD0144B58
:401D00001B78DBB283F07F03DB43DAB2104B1A70104B0F221A70104B02221A7005E00D4B02221A700C4B02221A700C4AFB791370034AFB7913700C37BD465DF8047B70478E
:401D40007883FF1F7A83FF1F006000408483FF1F0E84FF1F9983FF1F7C83FF1F9C83FF1F80B582B000AF164B1B889BB2002B02D100F02EF81EE0134B02221A70124B002222
:401D80001A7000F069F9114BDB79DBB29BB21B029AB20E4B9B79DBB29BB21343FB80084B1B889BB2FA889A4202D2054AFB881380FFF76EFF012318460837BD4680BD00BF3F
:401DC0008483FF1F7C83FF1F0E84FF1F0060004080B400AF0A4B02221A700A4B80221A70094B0F221A70094B00221A70084B00221A7001231846BD465DF8047B704700BF0D
:401E00007C83FF1F0E84FF1F9983FF1F7883FF1F9C83FF1F80B500AFFFF73AFF80BD00BF80B500AF0A4B1B78DBB29AB2094B1B889BB213449AB2074B1A80074B00221A70C0
:401E4000012000F0E9F8054B03221A7080BD00BF7883FF1F7A83FF1F7C83FF1F9983FF1F80B582B000AF124B04221A70114B80221A7000F0F1F8104BDB79DBB29BB21B02C0
:401E80009AB20D4B9B79DBB29BB21343FB800B4B1B889BB2FA889A4202D2084AFB881380074B0B221A70012318460837BD4680BD7C83FF1F0E84FF1F006000408483FF1F43
:401EC0009983FF1F80B483B000AF0023BB71234B1B78DBB203F00F03DBB2023BFB71FB799AB21F4B1B889BB213449AB21C4B1A8018E01C4B5B681C49BA798A5CD2B21A700E
:401F0000184B5B680133174A5360BB790133BB71FB79013BFB71134B1B889BB2013B9AB2104B1A800F4B1B889BB2002B02D0FB79002BDED10D4AFB7913700D4B1B78DBB25D
:401F400083F07F03DB43DAB2094B1A70094B0B221A700C37BD465DF8047B7047296000407A83FF1F8483FF1F006000409C83FF1F0E84FF1F9983FF1F80B500AF044B0022E3
:401F80001A70012000F048F8024B03221A7080BD7C83FF1F9983FF1F80B400AF084B06221A70084B06221A70074B80221A70074B00221A7001231846BD465DF8047B70473D
:401FC0007C83FF1F9983FF1F0E84FF1F9C83FF1F80B500AF0C4B1B78DBB2002B0AD00B4A094B1B78DBB263F07F03DBB21370064B00221A70064B00221A70012000F00CF880
:40200000044B03221A7080BD9A83FF1F086000407C83FF1F9983FF1F80B483B000AF0346FB710B4B9B68002B0CD0094B9B68FA791A70074B9B68074A128892B25A80044BFF
:4020400000229A600C37BD465DF8047B704700BF8483FF1F7A83FF1F80B400AF094B00221A80094B9B68002B07D0074B9B6800221A70054B9B6800225A80BD465DF8047B01
:40208000704700BF7A83FF1F8483FF1F80B400AF104A104B1B78DBB223F00103DBB213700D4B9B7C0D4B1B7BDBB203F00303012B08D00A4BDB7BDBB283F07F03DB43DAB2CD
:4020C000064BDA73054B01225A73BD465DF8047B704700BF0B600040FC5F0040A083FF1F80B400AF104A104B1B78DBB223F00203DBB213700D4B93F822300D4B1B7EDBB29B
:4021000003F00303012B08D0094BDB7EDBB283F07F03DB43DAB2064BDA76054B01225A76BD465DF8047B70470B600040FC5F0040A083FF1F80B400AF124A124B1B78DBB214
:4021400023F00403DBB213700F4B93F832300F4B93F82430DBB203F00303012B0AD00B4B93F82730DBB283F07F03DB43DAB2074B83F82720054B012283F82520BD465DF826
:40218000047B70470B600040FC5F0040A083FF1F80B400AFBD465DF8047B704780B500AFFFF7DEF980BD00BF80B500AF00F0F2FF80BD00BF80B586B000AF0023FB759D4BEE
:4021C0001B78FB7100233B619B4B00221A80FB795BB2002B80F20481964B5B78DBB20A2B00F2FC8001A252F823F000BF35230000DD230000DD230000DD230000DD230000E1
:40220000DD23000019220000DD230000A7230000DD230000BD230000864BDB78DBB2012B0ED100F017FEB860BB685B68824A5360814B12221A80FFF793FD0346FB7578E04A
:402240007C4BDB78DBB2022B24D17A4B9B78DBB2184600F0D5FDB860BB68002B69D0BB685B68754A5360744B5B6803331B78DBB29BB21B029AB2704B5B6802331B78DBB2B8
:402280009BB213439AB26C4B1A80FFF769FD0346FB75A4E0674BDB78DBB2032B44D10023FB73664B3B6109E03B691B78BB71BB793A6913443B61FB7B0133FB735D4B9B78A9
:4022C000DBB2FA7B9A4204D23B691B78DBB2002BEAD1584B9B78DBB2EE2B01D1584B3B61544B9B78DBB2002B0BD0524B9B78DAB2544B1B7C9A4204D1534800F0A1F9524BE9
:402300003B613B691B78DBB2002B12D03B691B78DBB29AB2484B1A80474A3B695360FFF71FFD0346FB755AE001F07EFF0346FB7555E054E0FB7903F00303002B1FD0022BC2
:4023400000D02FE03C4B02221A803A4B1B79DBB203F07F023D4913465B0013449B000B449B78DAB23A4B1A70394B00225A70324B374A5A60FFF7F4FC0346FB7512E02E4BC4
:4023800002221A80334B1B78DAB2314B1A70304B00225A70284B2E4A5A60FFF7E1FC0346FB7500BF1BE0244B01221A80224B2A4A5A60FFF7D5FC0346FB7510E01E4B0122A7
:4023C0001A801C4B1B79DBB21A46244B13441A4A5360FFF7C5FC0346FB7500E000BF19E1144B5B78DBB2013B0A2B00F2128101A252F823F0FF2400001326000089250000B6
:4024000013260000212400001326000013260000132600006524000013260000BB240000044B9B78DAB20E4B1A70FFF7B5FD0346FB75EFE0006000408483FF1F005D0000AF
:40244000085E0000A85C00001484FF1FA083FF1F2C82FF1F9D83FF1F9B83FF1F0C84FF1F9A83FF1F6E4B9B787B717B79002B06D07B79013BDBB2184600F0C2FCB8607B794A
:40248000002B02D0BB68002B02D17B79002B13D1644B1B78DBB27A799A4208D0614A7B791370614B01221A70012000F0C1F9FFF773FD0346FB75ADE0ACE000F009FE0346C7
:4024C000002B1BD0564B1B793B71554B1B79DAB2564B1A703B79564AD35CDAB23B795549CB5CDBB29A4204D04F4B01221A7000F069FBFFF751FD0346FB758BE08AE0FB7954
:4025000003F00303012B22D0012B0DD3022B00D039E0434B9B78DBB2002B04D100F040FD0346FB752FE02EE03D4B9B78DBB2012B0CD1414B1B78DBB223F00203DAB23E4B27
:402540001A70FFF729FD0346FB751CE01BE0344B1B79DBB2012B15D8314B9B78DBB2DB43DBB22F4A1279D2B211461046334A125CD2B21340DAB2314B5A54FFF70DFD03468F
:40258000FB75FFE700BF45E0FB7903F00303012B22D0012B0DD3022B00D039E0204B9B78DBB2002B04D100F08DFC0346FB752FE02EE01B4B9B78DBB2012B0CD11E4B1B78CF
:4025C000DBB243F00203DAB21B4B1A70FFF7E4FC0346FB751CE01BE0114B1B79DBB2012B15D80F4B9B78DBB2DB43DBB20C4A1279D2B211461046114A125CD2B21340DAB29B
:402600000E4B5A54FFF7C8FC0346FB75FFE700BF00E000BFFB7D18461837BD4680BD00BF006000409B83FF1F9883FF1F9083FF1F8083FF1F0C84FF1F9D83FF1F1084FF1FB3
:40264000B0B58AB000AF7860314B07F114041D460FCD0FC42B682370002387F826307B68002B52D07B6822221A707B68013303221A7007F10C03184600F016FE022387F8C4
:4026800027303EE097F827307A68134497F8262007F128010A4412F81C2C1209D2B207F128010A4412F8142C1A7097F8273001337A68134400221A7097F8273002337A6812
:4026C000134497F8262007F128010A4412F81C2C02F00F0207F128010A4412F8142C1A7097F8273003337A68134400221A7097F82630013387F8263097F82730043387F81C
:40270000273097F82730212BBCD92837BD46B0BD945C000090B482B000AF0123FB7174E03F4AFB791B0113440C221A70FA793D4913465B0013449B000B445B79DBB2002B11
:402740001AD0FA79374913465B0013449B000B441B79DBB2DBB25BB2002B06DA324AFB791B0113440C229A700CE02F4AFB791B01134408229A7005E02B4AFB791B01134465
:4027800080229A702648F979FA79264C13465B0013449B002344DB889BB2DAB20B0103449A711F48F979FA791E4C13465B0013449B002344DB889BB21B0A9BB2DAB20B0184
:4027C0000344DA711648F979FA79164C13465B0013449B002344DB889BB2DAB20B0103441A710F48F979FA790E4C13465B0013449B002344DB889BB21B0A9BB2DAB20B011E
:4028000003445A71FB790133FB71FB79082B87D9064BFF221A700837BD4690BC704700BF70600040A083FF1FFC5F00400A60004080B58AB000AF0346FB7100237B840023BD
:4028400087F827304CE097F82720C44913465B0013449B000B4400221A7097F82720BF4913465B0013449B000B4400229A7097F82720BA4913465B0013449B000B440022E3
:40288000DA7097F82720B54913465B0013449B000B44083300221A8097F82720AF4913465B0013449B000B44083300229A7097F82720AA4913465B0013449B000B44002204
:4028C0005A7097F82720A54913465B0013449B000B4400225A7197F82730013387F8273097F82730082BAED9FB79002B16D0002387F825300EE097F82530994A0021D15461
:4029000097F82530974A0021D15497F82530013387F8253097F82530012BECD9924B1B78DBB2002B00F049810023FB768E4B1B78DBB2013BDBB2184600F062FA78617B692C
:402940005B683B613B6907331B7803F04003002B08D0864B1B78DBB243F00103DAB2834B1A7007E0814B1B78DBB223F00103DAB27E4B1A707B6908337B617B691B7887F888
:402980002730012387F82530B3E07B695B68FB61002387F82630A0E097F82520FB699B7803F07F039A4240F0908097F825206B4913465B0013449B000B4408331B889AB237
:4029C000FB699B889A420CD297F82520FB699888624913465B0013449B000B44083302461A80FB691B781A465D4B9B5CDAB2FB695B789A4269D197F82520FB6998785749CA
:402A000013465B0013449B000B4402461A7197F82520FB69D878514913465B0013449B000B4402461A70FB69DB7803F00303FB73FB699B78DBB25BB2002B1ADA97F82520C3
:402A4000FB7B012B01D1072000E00D20434913465B0013449B000B4402465A7197F825203E4913465B0013449B000B4401225A7019E097F82520FB7B012B01D1052000E097
:402A80000920364913465B0013449B000B4402465A7197F82520314913465B0013449B000B4400225A70FB699B790A2B03D0FB699B79022B09D197F82520FB7EF869114633
:402AC0001A46FEF789FF0346FB76FB690833FB6197F82630013387F8263097F8262097F827309A42FFF458AF97F82530013387F8253097F82530082B7FF647AF7B695B68B0
:402B0000FB61002387F8253016E0FB699B7803F07F02FB691878114913465B0013449B000B44083302469A70FB690833FB6197F82530013387F8253097F8252097F82730F0
:402B40009A42E2D300F098F90246094B1A6000237B84012387F8273029E000BFA083FF1F0C84FF1F8083FF1F9B83FF1F9D83FF1F9483FF1F97F82720114913465B0013444F
:402B80009B000B447A8CDA8097F827200C4913465B0013449B000B4408331B889AB27B8C13447B8497F82730013387F8273097F82730082BDED9FFF7ADFD2837BD4680BD25
:402BC000A083FF1F90B585B000AF874B1B78DBB2002B00F00681844B1B78DBB2013BDBB2184600F00DF978607B6808337B607B681B78FB707B685B68BB607C4B1B78BB70D3
:402C00000023FB73E8E0BB681B78BA789A4240F0DD80BB78764AD35CDAB2BB685B789A4240F0D480BB689B7803F07F037B70BB68DB7803F003033B707A786E4913465B00D9
:402C400013449B000B440022DA707A78BB689878684913465B0013449B000B4402461A717A78BB68D878634913465B0013449B000B4402461A707A78BB6898885D491346FD
:402C80005B0013449B000B44083302461A80BB689B78DBB25BB2002B18DA7A783B78012B01D1072000E00D20524913465B0013449B000B4402465A717A784E4913465B00B7
:402CC00013449B000B4401225A7017E07A783B78012B01D1052000E00920464913465B0013449B000B4402465A717A78414913465B0013449B000B4400225A703E4A7B786F
:402D00001B01134401229A703B4879787A78394C13465B0013449B00234408331B889BB21B0A9BB2DAB20B0103441A70324879787A78304C13465B0013449B0023440833D4
:402D40001B889BB2DAB20B0103445A702B4879787A78284C13465B0013449B002344DB889BB2DAB20B0103449A71244879787A78204C13465B0013449B002344DB889BB2D1
:402D80001B0A9BB2DAB20B010344DA711B4879787A78184C13465B0013449B002344DB889BB2DAB20B0103441A71144879787A78104C13465B0013449B002344DB889BB24E
:402DC0001B0A9BB2DAB20B0103445A71BB680833BB60FB7B0133FB73FA7BFB789A42FFF412AF1437BD4690BD9B83FF1F9083FF1F0C84FF1FA083FF1FFC5F0040706000400C
:402E000080B485B000AF0346FB71104B1B78DBB20F4ADB0013445B68FB60FB681033FB60FB681B78FA799A4202D30023FB6005E0FB79DB00FA6813445B68FB60FB6818463C
:402E40001437BD465DF8047B704700BF7983FF1F005E000080B400AF054B1B78DBB2054ADB0013445B681846BD465DF8047B70477983FF1F005E000080B584B000AF104BD4
:402E80001B78DBB2013BDBB21846FFF7B9FFB860BB68002B0DD0BB685B681B79FB71FB790233DB00BA681344BB60BB685B68FB6001E00023FB60FB6818461037BD4680BDF4
:402EC0009B83FF1F80B582B000AF0023FB71314B1B79DBB203F07F03BB71BB79002B53D0BB79082B50D8BA79B9792B480B465B000B449B0003449B78DBB243F00103D8B28C
:402F0000254913465B0013449B000B4402469A70BA79214913465B0013449B000B440022DA70BA79B9791C480B465B000B449B0003445B78DBB243F00203D8B2164913465E
:402F40005B0013449B000B4402465A70BA79124913465B0013449B000B441B79DBB2DBB25BB2002B06DA0D4ABB791B0113448D229A7005E0094ABB791B01134489229A700F
:402F8000FFF70AF80346FB71FB7918460837BD4680BD00BF00600040A083FF1FFC5F004080B582B000AF0023FB71464B1B79DBB203F07F03BB71BB79002B7DD0BB79082BCD
:402FC0007AD8BA79B97940480B465B000B449B0003449B78DBB223F00103D8B23A4913465B0013449B000B4402469A70BA79364913465B0013449B000B440022DA70334A1A
:40300000BB791B0113447F221A70BA79B9792E480B465B000B449B0003445B78DBB223F00203D8B2284913465B0013449B000B4402465A70BA79244913465B0013449B0046
:403040000B441B79DBB2DBB25BB2002B18DABA791D4913465B0013449B000B445B78DBB2012B06D1194ABB791B0113440C229A701EE0164ABB791B0113440D229A7017E0C1
:40308000BA79114913465B0013449B000B445B78DBB2012B06D10D4ABB791B01134408229A7005E0094ABB791B01134409229A70FEF772FF0346FB71FB7918460837BD46B6
:4030C00080BD00BF00600040A083FF1FFC5F004080B584B000AF0023FB73154B1B79BB73144B1B78DBB2013BDBB21846FFF788FEB860BB685B681B79FB71BA7BFB799A42E8
:4031000002D9BB7B022B0ED8BB7BBA7B0A498A5CD1B20A4AD154BB7B054A9278D1B2064AD1540123FB73FB7B18461037BD4680BD006000409B83FF1F0C84FF1F8083FF1FAC
:4031400080B582B000AF0023FB710F4B1B78DBB2DBB25BB2002B12DA0B4B5B78DBB2012B00D00CE0094B0A4A5A60094B1B789AB2064B1A80FEF7F4FD0346FB7100BFFB7993
:4031800018460837BD4680BD006000408483FF1F1C5E000080B400AF054B1B78DBB203F040039B09DBB21846BD465DF8047B70478F450040000000000230800803D000BFED
:4031C00001380046FCD17047EFF3108072B6704780F31088704700BF80B483B000AF0346FB7101BE0C37BD465DF8047B704700BF80B582B000AF0346FB80FB88044A1278AB
:4032000002FB03F31846FFF7D7FF0837BD4680BD7881FF1F80B584B000AF03463960FB710F4B1B68FB60FB791F2B02D90020FFF7D3FFFB7903F01F0310339B00FA6813449C
:403240001B68BB60FB7903F01F0310339B00FA6813443A681A60BB6818461037BD4680BD08ED00E080B582B000AF03460A46FB711346BB71BB79072B02D90020FFF7ACFFF5
:40328000FB791F2B02D90020FFF7A6FFFB7903F01F0303F1604303F56443BA795201D2B21A700837BD4680BD80B483B000AF7860264B1B78DBB21A467B681A60244B1B78AA
:4032C000DBB21B027A6812681A437B681A60214B1B78DBB21B047A6812681A437B681A601D4B1B78DBB21B067A6812681A437B681A607B680433194A1278D2B21A60184B26
:403300001B78DBB21A027B6804337968043109680A431A60134B1B78DBB21A047B6804337968043109680A431A600F4B1B78DBB21A067B6804337968043109680A431A60E3
:403340000C37BD465DF8047B704700BF0301004904010049EC460040020100490101004900010049050100490601004980B500AF054B1B78002B04D100F008F8024B012209
:403380001A7000F061F880BD3082FF1F80B582B000AF284A274B1B78DBB243F00203DBB21370254B1B78DBB223F07003FB71224AFB7943F01003DBB21370204A1F4B1B78AC
:4033C000DBB223F03003DBB213701C4A1B4B1B78DBB243F03003DBB21370184A174B1B78DBB223F00F03DBB21370144A134B1B78DBB243F00F03DBB21370642000F048F88A
:40340000002000F055F8002000F062F80C4A0C4B1B78DBB243F00103DBB21370094A094B1B78DBB243F00103DBB213700837BD4680BD00BF004F0040024F00400B4F0040AB
:40344000A3430040014F004080B400AF0D4A0D4B1B78DBB243F00103DBB213700A4A0A4B1B78DBB243F00103DBB21370074A074B1B78DBB243F00103DBB21370BD465DF82B
:40348000047B7047A3430040B3430040004F004080B483B000AF0346FB71044BFA7992B21A800C37BD465DF8047B7047044F004080B483B000AF0346FB71044BFA7992B24B
:4034C0001A800C37BD465DF8047B7047064F004080B483B000AF0346FB71044AFB7913700C37BD465DF8047B704700BF034F004080B485B000AF0346FB710B4B1B78DBB257
:4035000023F01003FB730849FB791B01DBB203F01003DAB2FB7B1343DBB20B701437BD465DF8047B704700BF3051004080B485B000AF0346FB710B4B1B78DBB223F0080369
:40354000FB730849FB79DB00DBB203F00803DAB2FB7B1343DBB20B701437BD465DF8047B704700BFC051004080B582B000AF786000F03CF8786800F009F8072000F018F85F
:4035800000F028F80837BD4680BD00BF80B485B000AF7860054B1B68FB60FB6864337A681A601437BD465DF8047B704708ED00E080B483B000AF0346FB71054AFB795B01B1
:4035C000DBB213700C37BD465DF8047B704700BF09E400E080B400AF034B4FF400721A60BD465DF8047B704700E100E080B400AF034B4FF400721A60BD465DF8047B7047C1
:4036000080E100E080B500AF054B1B78002B04D100F008F8024B01221A7000F061F880BD3182FF1F80B582B000AF284A274B1B78DBB243F00203DBB21370254B1B78DBB24F
:4036400023F07003FB71224AFB7943F01003DBB21370204A1F4B1B78DBB223F03003DBB213701C4A1B4B1B78DBB243F03003DBB21370184A174B1B78DBB223F00F03DBB2E0
:403680001370144A134B1B78DBB243F00F03DBB21370642000F048F8002000F055F8002000F062F80C4A0C4B1B78DBB243F00203DBB21370094A094B1B78DBB243F00103C8
:4036C000DBB213700837BD4680BD00BF0C4F00400E4F0040174F0040A34300400D4F004080B400AF0D4A0D4B1B78DBB243F00203DBB213700A4A0A4B1B78DBB243F00203E1
:40370000DBB21370074A074B1B78DBB243F00103DBB21370BD465DF8047B7047A3430040B34300400C4F004080B483B000AF0346FB71044BFA7992B21A800C37BD465DF8E4
:40374000047B7047104F004080B483B000AF0346FB71044BFA7992B21A800C37BD465DF8047B7047124F004080B483B000AF0346FB71044AFB7913700C37BD465DF8047B6D
:40378000704700BF0F4F004080B400AFBD465DF8047B704780B582B000AF0F2000F06AF800F058F8FFF710FD0346FB71074A074B1B78DBB243F01003DBB21370FB7918460A
:4037C000FFF706FD0837BD4680BD00BF9064004080B500AF00F034F94FF4004000F05CF9054B1B78002B04D1FFF7CEFF024B01221A70FFF7CFFF80BD3282FF1F80B582B0BB
:4038000000AF00F059F90346FB80FB88A3F500439BB2BB80BB881BB218460837BD4680BD80B584B000AF0346FB80B7F90630002B04DBFB88A3F50043FB8103E0FB88A3F55C
:403840000043FB81FB89184600F026F91037BD4680BD00BF80B400AF054B1B78DBB203F00F03DBB21846BD465DF8047B704700BF6064004080B483B000AF0346FB71044AA5
:40388000FB7913700C37BD465DF8047B704700BF8064004080B400AFBD465DF8047B704780B582B000AF0F2000F06AF800F058F8FFF78AFC0346FB71074A074B1B78DBB221
:4038C00043F01003DBB21370FB791846FFF780FC0837BD4680BD00BF9564004080B500AF00F084F94FF4004000F0ACF9054B1B78002B04D1FFF7CEFF024B01221A70FFF7B8
:40390000CFFF80BD3382FF1F80B582B000AF00F0A9F90346FB80FB88A3F500439BB2BB80BB881BB218460837BD4680BD80B584B000AF0346FB80B7F90630002B04DBFB881B
:40394000A3F50043FB8103E0FB88A3F50043FB81FB89184600F076F91037BD4680BD00BF80B400AF054B1B78DBB203F00F03DBB21846BD465DF8047B704700BF6564004013
:4039800080B483B000AF0346FB71044AFB7913700C37BD465DF8047B704700BF8564004080B582B000AF1C4B1B78DBB223F00703FB71194AFB791370174B1B78DBB223F029
:4039C0000303FB71144AFB79137000F0B1F84FF4004000F08DF84FF4004000F05DF8002000F03EF800F04CF84FF4004000F090F8FFF7EAFB0346BB71084A084B1B78DBB21D
:403A000043F01003DBB21370BB791846FFF7E0FB0837BD4680BD00BF776400409764004080B400AF054A054B1B78DBB263F07F03DBB21370BD465DF8047B70477764004009
:403A400080B500AF054B1B78002B04D1FFF7A8FF024B01221A70FFF7E3FF80BD3482FF1F80B483B000AF0346FB71044AFB7913700C37BD465DF8047B704700BF8764004034
:403A800080B400AF034B1B78DBB21846BD465DF8047B70476764004080B483B000AF0346FB80044AFB8813800C37BD465DF8047B704700BF0C68004080B400AF044B1B7877
:403AC000044B1B889BB21846BD465DF8047B7047066400408C68004080B400AF034B1B889BB21846BD465DF8047B70478C68004080B483B000AF0346FB80044AFB8813803E
:403B00000C37BD465DF8047B704700BF4C68004080B483B000AF0346FB80044AFB8813800C37BD465DF8047B704700BF6C68004080B500AF01E0FFF7CFFFFFF7A1FF0346B7
:403B400003F04003002BF6D180BD00BF80B582B000AF1C4B1B78DBB223F00703FB71194AFB791370174B1B78DBB223F00303FB71144AFB79137000F0B1F84FF4004000F039
:403B80008DF84FF4004000F05DF8002000F03EF800F04CF84FF4004000F090F8FFF714FB0346BB71084A084B1B78DBB243F01003DBB21370BB791846FFF70AFB0837BD46DF
:403BC00080BD00BF746400409464004080B400AF054A054B1B78DBB263F07F03DBB21370BD465DF8047B70477464004080B500AF054B1B78002B04D1FFF7A8FF024B012278
:403C00001A70FFF7E3FF80BD3582FF1F80B483B000AF0346FB71044AFB7913700C37BD465DF8047B704700BF8464004080B400AF034B1B78DBB21846BD465DF8047B70470B
:403C40006464004080B483B000AF0346FB80044AFB8813800C37BD465DF8047B704700BF0468004080B400AF044B1B78044B1B889BB21846BD465DF8047B7047026400402C
:403C80008468004080B400AF034B1B889BB21846BD465DF8047B70478468004080B483B000AF0346FB80044AFB8813800C37BD465DF8047B704700BF4468004080B483B07E
:403CC00000AF0346FB80044AFB8813800C37BD465DF8047B704700BF6468004080B500AF01E0FFF7CFFFFFF7A1FF034603F04003002BF6D180BD00BF80B582B000AF7860D7
:403D000000F03CF8786800F009F8072000F018F800F028F80837BD4680BD00BF80B485B000AF7860054B1B68FB60FB6850337A681A601437BD465DF8047B704708ED00E00B
:403D400080B483B000AF0346FB71054AFB795B01DBB213700C37BD465DF8047B704700BF04E400E080B400AF034B10221A60BD465DF8047B704700BF00E100E080B400AF23
:403D8000034B10221A60BD465DF8047B704700BF80E100E080B500AF054B1B78002B04D100F008F8024B01221A7000F023F880BD3682FF1F80B400AF094B72221A70094B03
:403DC00020221A70084B06221A70084B47221A70074B02221A70BD465DF8047B704700BF896400408864004029650040396500408765004080B582B000AFFFF7E5F90346FB
:403E0000FB71104A0F4B1B78DBB243F02003DBB213700D4A0C4B1B78DBB243F01003DBB213700A4A094B1B78DBB243F01003DBB2137000F02FF8FB791846FFF7C9F90837BA
:403E4000BD4680BD99640040986400409765004080B483B000AF0023FB710C4B1B78BB71BB7903F02003002B09D0094B1B78FB71BB7903F01E03002B01D00023FB71FB79AA
:403E800018460C37BD465DF8047B7047686400404B65004080B400AF094A094B1B78DBB243F01003DBB21370064A064B1B78DBB243F01003DBB21370BD465DF8047B704732
:403EC000A2430040B243004080B483B000AF0346FB71044AFB7913700C37BD465DF8047B704700BF7865004080B582B000AF786000F03CF8786800F009F8072000F018F8A1
:403F000000F028F80837BD4680BD00BF80B485B000AF7860054B1B68FB60FB6868337A681A601437BD465DF8047B704708ED00E080B483B000AF0346FB71054AFB795B0123
:403F4000DBB213700C37BD465DF8047B704700BF0AE400E080B400AF034B4FF480621A60BD465DF8047B704700E100E080B400AF034B4FF480621A60BD465DF8047B704756
:403F800080E100E080B582B000AF42F2273000F05BF842F2273000F073F8FFF715F90346FB710A4A094B1B78DBB243F01003DBB21370FB791846FFF70BF900F071F80120D9
:403FC00000F026F80837BD4680BD00BF9565004080B400AF054A054B1B78DBB263F07F03DBB21370BD465DF8047B70477465004080B500AF054B1B78002B04D1FFF7C2FF8F
:40400000024B01221A70FFF7E3FF80BD3882FF1F80B483B000AF0346FB71044AFB7913700C37BD465DF8047B704700BF8565004080B400AF034B1B78DBB21846BD465DF8C8
:40404000047B70476565004080B483B000AF0346FB80044AFB8813800C37BD465DF8047B704700BF486A004080B400AF034B1B889BB21846BD465DF8047B7047886A004001
:4040800080B483B000AF0346FB80044AFB8813800C37BD465DF8047B704700BF086A004080B500AF01E0FFF7DFFFFFF7C1FF034603F00803002BF6D180BD00BF80B483B095
:4040C00000AF0346FB71094B084A1278D2B2D1B2FA7922F00702D2B20A43D2B2D2B21A700C37BD465DF8047B704700BF8A40004080B582B000AF786000F03CF8786800F0B8
:4041000009F8072000F018F800F028F80837BD4680BD00BF80B485B000AF7860054B1B68FB60FB6858337A681A601437BD465DF8047B704708ED00E080B483B000AF034694
:40414000FB71054AFB795B01DBB213700C37BD465DF8047B704700BF06E400E080B400AF034B40221A60BD465DF8047B704700BF00E100E080B400AF034B40221A60BD461F
:404180005DF8047B704700BF80E100E080B582B000AF786000F03CF8786800F009F8072000F018F800F028F80837BD4680BD00BF80B485B000AF7860054B1B68FB60FB689B
:4041C00060337A681A601437BD465DF8047B704708ED00E080B483B000AF0346FB71054AFB795B01DBB213700C37BD465DF8047B704700BF08E400E080B400AF034B4FF458
:4042000080721A60BD465DF8047B704700E100E080B400AF034B4FF480721A60BD465DF8047B704780E100E080B582B000AF1A4B1B78DBB203F00303012B02D0022B04D081
:4042400012E0154B1B79BB7111E0134B1B79DBB203F07F02114913465B0013449B000B4408339B78BB7102E00023BB7100BF0C4B1A68BB7913441B78022B04D1FDF76CFA3C
:404280000346FB7102E00023FB7100BFFB7918460837BD4680BD00BF00600040A083FF1F9483FF1F2DE9F0478AB006460F4600F04FF8DFF898A004469AF900300D460133F1
:4042C0000FD03046394600F009F950B14FF000084FF000093046394642464B4600F056FD20B9204629460AB0BDE8F08716499AF8004001220023CDE90467CDE9026701914A
:404300000092089364B9CDE90689684600F012F980B1089B9BB9DDE906010AB0BDE8F0874046494642464B4600F0E8FB022CCDE90601EAD100F0FEFF21230360E9E700F07F
:40434000F9FF089B0360E6E7445E00008081FF1F2DE9F041604E0C46B6460E40764505460B4600F098800029024676DD5FEA215E00F08180AEF2FF3EC3F313031EF0010F7D
:4043800043F480135ED100273C46D10F01EB43034FEA6E0E520016204FF4001165189D424FEAD2764FEA420202DC5B1B6C180F44013806EB43034FEA5101EFD18446202668
:4043C0004FF000410AE0A34220D0D50F013E4FEA510105EB43034FEA420220D09C420CEB0105F0DA002D05EB010C09DBA0461B1B954288BF03F1FF334446521B0844E4E70C
:40440000BCF1000FF2DB04F10108F0E7954217D8002D05EB010C48DB98460023ECE7134315D140087B1003F17F5303F50013FA0703EB0E57394648BF40F00040BDE8F081F7
:404440001C46C2E7D10F01EB430352009BE7411C31D000F001031844E3E721F000460643ECD079BB8E46D30AAEF1150E5205002BF9D0DC0222D400215B00D80201F1010167
:40448000FAD5C1F10100C1F1200422FA04F4234386448A406EE702460B4600F005FA2A46234600F04FF8BDE8F081BCF1000FAADAA0460023A0E701373046B3E72024012016
:4044C0000021E2E702460B4600F03AF802460B4600F014FBB2E700BF0000F07F10B431F0004408D0114BA1F580129A4208D804205DF8044B704718B902205DF8044B7047AA
:4045000001F1FF41094B01F5E0019942EFD9B4F5801F01D20320EBE7054B9C4201D00020E6E7B0FA80F04009E2E700BFFFFFDF7F0000F07F0020704781F0004102E000BF9F
:4045400083F0004330B54FEA41044FEA430594EA050F08BF90EA020F1FBF54EA000C55EA020C7FEA645C7FEA655C00F0E2804FEA5454D4EB5555B8BF6D420CDD2C4480EA70
:40458000020281EA030382EA000083EA010180EA020281EA0303362D88BF30BD11F0004F4FEA01314FF4801C4CEA113102D0404261EB410113F0004F4FEA03334CEA133304
:4045C00002D0524263EB430394EA050F00F0A780A4F10104D5F1200E0DDB02FA0EFC22FA05F2801841F1000103FA0EF2801843FA05F359410EE0A5F120050EF1200E012A59
:4046000003FA0EFC28BF4CF0020C43FA05F3C01851EBE37101F0004507D54FF0000EDCF1000C7EEB00006EEB0101B1F5801F1BD3B1F5001F0CD349085FEA30004FEA3C0C87
:4046400004F101044FEA445212F5800F80F09A80BCF1004F08BF5FEA500C50F1000041EB045141EA050130BD5FEA4C0C404141EB010111F4801FA4F10104E9D191F0000F31
:4046800004BF01460020B1FA81F308BF2033A3F10B03B3F120020CDA0C3208DD02F1140CC2F10C0201FA0CF021FA02F10CE002F11402D8BFC2F1200C01FA02F120FA0CFCD2
:4046C000DCBF41EA0C019040E41AA2BF01EB0451294330BD6FEA04041F3C1CDA0C340EDC04F11404C4F1200220FA04F001FA02F340EA030021FA04F345EA030130BDC4F14C
:404700000C04C4F1200220FA02F001FA04F340EA0300294630BD21FA04F0294630BD94F0000F83F4801306BF81F480110134013D4EE77FEA645C18BF7FEA655C29D094EAEF
:40474000050F08BF90EA020F05D054EA000C04BF1946104630BD91EA030F1EBF0021002030BD5FEA545C05D14000494128BF41F0004130BD14F580043CBF01F5801130BDDC
:4047800001F0004545F0FE4141F470014FF0000030BD7FEA645C1ABF194610467FEA655C1CBF0B46024650EA013406BF52EA033591EA030F41F4002130BD00BF90F0000F62
:4047C00004BF0021704730B54FF4806404F132044FF000054FF0000150E700BF90F0000F04BF0021704730B54FF4806404F1320410F0004548BF40424FF000013EE700BF1A
:4048000042004FEAE2014FEA31014FEA02701FBF12F07F4393F07F4F81F06051704792F0000F14BF93F07F4F704730B54FF4607401F0004521F0004120E700BF50EA010245
:4048400008BF704730B54FF000050AE050EA010208BF704730B511F0004502D5404261EB41014FF4806404F132045FEA915C3FF4DCAE4FF003025FEADC0C18BF03325FEACB
:40488000DC0C18BF033202EBDC02C2F1200300FA03FC20FA02F001FA03FE40EA0E0021FA02F11444C1E600BF70B54FF0FF0C4CF4E06C1CEA11541DBF1CEA135594EA0C0F15
:4048C00095EA0C0F00F0DEF82C4481EA030621EA4C5123EA4C5350EA013518BF52EA033541F4801143F4801338D0A0FB02CE4FF00005E1FB02E506F00042E0FB03E54FF021
:404900000006E1FB03569CF0000F18BF4EF0010EA4F1FF04B6F5007F64F5407404D25FEA4E0E6D4146EB060642EAC62141EA55514FEAC52040EA5E504FEACE2EB4F1FD0C8B
:4049400088BFBCF5E06F1ED8BEF1004F08BF5FEA500E50F1000041EB045170BD06F0004646EA010140EA020081EA0301B4EB5C04C2BFD4EB0C0541EA045170BD41F48011D3
:404980004FF0000E013C00F3AB8014F1360FDEBF002001F0004170BDC4F10004203C35DA0C341BDC04F11404C4F1200500FA05F320FA04F001FA05F240EA020001F0004256
:4049C00021F0004110EBD37021FA04F642EB06015EEA430E08BF20EAD37070BDC4F10C04C4F1200500FA04F320FA05F001FA04F240EA020001F0004110EBD37041F10001A5
:404A00005EEA430E08BF20EAD37070BDC4F1200500FA05F24EEA020E20FA04F301FA05F243EA020321FA04F001F0004121FA04F220EA020000EBD3705EEA430E08BF20EA5E
:404A4000D37070BD94F0000F0FD101F00046400041EB010111F4801F08BF013CF7D041EA060195F0000F18BF704703F00046520043EB030313F4801F08BF013DF7D043EA8D
:404A80000603704794EA0C0F0CEA135518BF95EA0C0F0CD050EA410618BF52EA4306D1D181EA030101F000414FF0000070BD50EA410606BF1046194652EA430619D094EA7F
:404AC0000C0F02D150EA013613D195EA0C0F05D152EA03361CBF104619460AD181EA030101F0004141F0FE4141F470014FF0000070BD41F0FE4141F4780170BD70B54FF051
:404B0000FF0C4CF4E06C1CEA11541DBF1CEA135594EA0C0F95EA0C0F00F0A7F8A4EB050481EA030E52EA03354FEA013100F088804FEA03334FF0805545EA131343EA126302
:404B40004FEA022245EA111545EA10654FEA00260EF000419D4208BF964244F1FD0404F5407402D25B084FEA3202B61A65EB03055B084FEA32024FF480104FF4002CB6EB61
:404B8000020E75EB030E22BFB61A754640EA0C005B084FEA3202B6EB020E75EB030E22BFB61A754640EA5C005B084FEA3202B6EB020E75EB030E22BFB61A754640EA9C00CA
:404BC0005B084FEA3202B6EB020E75EB030E22BFB61A754640EADC0055EA060E18D04FEA051545EA16754FEA06164FEAC30343EA52734FEAC2025FEA1C1CC0D111F4801F10
:404C00000BD141EA00014FF000004FF0004CB6E711F4801F04BF01430020B4F1FD0C88BFBCF5E06F3FF6AFAEB5EB030C04BFB6EB020C5FEA500C50F1000041EB045170BDFE
:404C40000EF0004E4EEA113114EB5C04C2BFD4EB0C0541EA045170BD41F480114FF0000E013C90E645EA060E8DE60CEA135594EA0C0F08BF95EA0C0F3FF43BAF94EA0C0F87
:404C80000AD150EA01347FF434AF95EA0C0F7FF425AF104619462CE795EA0C0F06D152EA03353FF4FDAE1046194622E750EA410618BF52EA43067FF4C5AE50EA41047FF475
:404CC0000DAF52EA43057FF4EBAE12E74FF0FF3C06E000BF4FF0010C02E000BF4FF0010C4DF804CD4FEA410C7FEA6C5C4FEA430C18BF7FEA6C5C1BD001B050EA410C0CBFCC
:404D000052EA430C91EA030F02BF90EA020F0020704710F1000F91EA030F58BF994208BF90422CBFD8176FEAE37040F0010070474FEA410C7FEA6C5C02D150EA013C07D1C9
:404D40004FEA430C7FEA6C5CD6D152EA033CD3D05DF8040B704700BF8446104662468C461946634600E000BF01B5FFF7B7FF002848BF10F1000F01BD4DF808EDFFF7F4FF18
:404D80000CBF012000205DF808FB00BF4DF808EDFFF7EAFF34BF012000205DF808FB00BF4DF808EDFFF7E0FF94BF012000205DF808FB00BF4DF808EDFFF7CEFF94BF012041
:404DC00000205DF808FB00BF4DF808EDFFF7C4FF34BF012000205DF808FB00BF4FEA410212F5001215D211D56FF47873B3EB625212D94FEAC12343F0004343EA505311F0ED
:404E0000004F23FA02F018BF404270474FF00000704750EA013005D111F0004008BF6FF0004070474FF00000704700BF80F0004002E000BF81F0004142001FBF5FEA41030A
:404E400092EA030F7FEA226C7FEA236C6AD04FEA1262D2EB1363C1BFD218414048404140B8BF5B42192B88BF704710F0004F40F4000020F07F4018BF404211F0004F41F421
:404E8000000121F07F4118BF494292EA030F3FD0A2F1010241FA03FC10EB0C00C3F1200301FA03F100F0004302D5494260EB4000B0F5000F13D3B0F1807F06D340084FEAD0
:404EC000310102F10102FE2A51D2B1F1004F40EBC25008BF20F0010040EA03007047490040EB000010F4000FA2F10102EDD1B0FA80FCACF1080CB2EB0C0200FA0CF0AABF99
:404F000000EBC25052421843BCBFD0401843704792F0000F81F4000106BF80F400000132013BB5E74FEA41037FEA226C18BF7FEA236C21D092EA030F04D092F0000F08BFAF
:404F40000846704790EA010F1CBF0020704712F07F4F04D1400028BF40F00040704712F100723CBF00F50000704700F0004343F0FE4040F4000070477FEA226216BF084642
:404F80007FEA23630146420206BF5FEA412390EA010F40F4800070474FF0000304E000BF10F0004348BF40425FEA000C08BF704743F0964301464FF000001CE050EA0102C1
:404FC00008BF70474FF000030AE000BF50EA010208BF704711F0004302D5404261EB41015FEA010C02BF84460146002043F0B64308BFA3F18053A3F50003BCFA8CF2083AAF
:40500000A3EBC25310DB01FA02FC634400FA02FCC2F12002BCF1004F20FA02F243EB020008BF20F00100704702F1200201FA02FCC2F1200250EA4C0021FA02F243EB020004
:4050400008BF20EADC7070474FF0FF0C1CEAD0521EBF1CEAD15392EA0C0F93EA0C0F6FD01A4480EA010C400218BF5FEA41211ED04FF0006343EA501043EA5111A0FB013163
:405080000CF00040B1F5000F3EBF490041EAD3715B0040EA010062F17F02FD2A1DD8B3F1004F40EBC25008BF20F00100704790F0000F0CF0004C08BF49024CEA502040EA5C
:4050C00051207F3AC2BFD2F1FF0340EAC250704740F400004FF00003013A5DDC12F1190FDCBF00F000407047C2F10002410021FA02F1C2F1200200FA02FC5FEA310040F13A
:40510000000053EA4C0308BF20EADC70704792F0000F00F0004C02BF400010F4000F013AF9D040EA0C0093F0000F01F0004C02BF490011F4000F013BF9D041EA0C018FE754
:405140000CEAD15392EA0C0F18BF93EA0C0F0AD030F0004C18BF31F0004CD8D180EA010000F00040704790F0000F17BF90F0004F084691F0000F91F0004F14D092EA0C0F2D
:4051800001D142020FD193EA0C0F03D14B0218BF084608D180EA010000F0004040F0FE4040F40000704740F0FE4040F4400070474FF0FF0C1CEAD0521EBF1CEAD15392EAC0
:4051C0000C0F93EA0C0F69D0A2EB030280EA010C49024FEA402037D04FF0805343EA111143EA10130CF000408B4238BF5B0042F17D024FF4000C8B4224BF5B1A40EA0C0067
:40520000B3EB510F24BFA3EB510340EA5C00B3EB910F24BFA3EB910340EA9C00B3EBD10F24BFA3EBD10340EADC001B0118BF5FEA1C1CE0D1FD2A3FF650AF8B4240EBC250C9
:4052400008BF20F0010070470CF0004C4CEA50207F32C2BFD2F1FF0340EAC250704740F400004FF00003013A37E792F0000F00F0004C02BF400010F4000F013AF9D040EAE9
:405280000C0093F0000F01F0004C02BF490011F4000F013BF9D041EA0C0195E70CEAD15392EA0C0F08D142027FF47DAF93EA0C0F7FF470AF084676E793EA0C0F04D14B0240
:4052C0003FF44CAF08466EE730F0004C18BF31F0004CCAD130F000427FF45CAF31F000437FF43CAF5FE700BF4FEA4002B2F1FE4F0FD34FF09E03B3EB12620DD94FEA00236A
:4053000043F0004310F0004F23FA02F018BF404270474FF00000704712F1610F01D1420205D110F0004008BF6FF0004070474FF000007047014B1868704700BFE481FF1F1C
:405340000E4B70B51E460E4C0025E41AA410A54204D056F8253098470135F8E700F092FD084B094C1E46E41AA4100025A54204D056F8253098470135F8E770BD905E0000F9
:40538000905E0000905E0000985E000010B5431E0A44914204D011F8014B03F8014FF8E710BD03460244934202D003F8011BFAE7704700000EB400B54FF402719CB0ADF8B1
:4053C00014106FF00041049107914FF6FF711DABADF81610084953F8042B02900690086802A9019300F06CF8029B00221A701CB05DF804EB03B07047E481FF1F034613F8E4
:40540000012B002AFBD1181A013870472DE9F0478E688246B3420C469046994640D38A8912F4906F3AD02568096902236F1A656905EB450595FBF3F57B1C4B449D4238BFC3
:405440001D4653050FD5294600F030FB064698B121693A46FFF79AFFA38923F4906343F08003A38113E02A4600F076FB064670B95046216900F0D6FA0C23CAF80030A3895F
:405480004FF0FF3043F04003A381BDE8F08726613E4426604E466561ED1BA560B14500D24E4632462068414600F0A0FAA36800209B1BA36023681E442660BDE8F0870000F2
:4054C0002DE9F0439DB003938B8906461C060D4690460CD50B6953B9402100F0E7FA2860286110B90C233360CCE040236B610023099320238DF8293030238DF82A30434630
:405500001C4613F8012B1AB9B4EB08090FD002E0252AF5D1F8E73046294642464B46FFF775FF013000F0A980099B4B4409932378002B00F0A28000234FF0FF32049307937D
:40554000059206938DF853301A9304F101084446DFF8489121784846052200F039FA08F10108049B30B1C9EB00000122824013430493ECE7D80644BF20228DF85320190787
:4055800044BF2B228DF8532022782A2A02D0079923460EE0039A0134111D12680391002ABBBF524243F0020307920792B8BF04930AE01C4622780133303A092A03D80A2072
:4055C00000FB0121F5E7079123782E2B1AD163782A2B0AD1039B02341A1D1B680392002BB8BF4FF0FF3305930CE0611C00220C4623780131303B092B03D80A2000FB0232E5
:40560000F5E70592DFF8988021784046032200F0DFF938B1049AC8EB00004023834013430493013421781A48062204F101088DF8281000F0CDF988B1164B33B9039B073388
:4056400023F007030833039313E003AB0093304604A92A46104BAFF3008007E003AB0093304604A92A460C4B00F092F8421C074603D0099B3B44099341E7AB895B0601D49D
:40568000099801E04FF0FF301DB0BDE8F08300BF585E0000000000000D5400004E5E0000545E00002DE9F84391461F468A680B6906469342B8BF1346C9F8003091F8432020
:4056C0000C46DDF8208012B10133C9F800302368990642BFD9F800300233C9F80030256815F006051CD094F843302268003318BF012392061FD5E118302081F843005A1C62
:4057000094F845102244023382F8431013E03046394604F119020123C047013007D00135E368D9F800209B1A9D42F0DBDBE74FF0FF30BDE8F8833046394604F14302C0479E
:405740000130F4D02268D9F80050E36802F00602042A08BF5D1B2269A3680CBF25EAE57500259342C4BF9B1AED184FF00009A9450ADA3046394604F11A020123C04701305A
:40578000D5D009F10109F2E70020BDE8F88300002DE9FF410C461746227E98466E2A06460A9B01F1430100F0B08012D8632A23D00AD8002A00F0BD80582A40F0CC8084F8A8
:4057C0004520DFF804E257E0642A1ED0692A1CD0C1E0732A00F0B18009D86F2A2ED0702A40F0B980226842F0200222603FE0752A24D0782A3BD0AEE01A6804F14205111D42
:405800001960136884F84230A9E020681A6810F0800F02D0101D186008E010F0400F02F10400186002D0B2F9003000E01368002B3EDA2D225B4284F8432039E020681A680E
:4058400010F0800F02D0101D186007E010F0400F02F10400186001D0138800E01368227EDFF864E16F2A0CBF08220A221CE07822DFF858E184F845202268186812F0800F1E
:4058800000F104051D6003D1550601D5038800E00368D00744BF42F0200222601BB9226822F0200222601022002084F8430002E0DFF814E10A226568002DA8BF2068A560F9
:4058C000A4BF20F00400206003B965B10D46B3FBF2F002FB10331EF8033005F8013D03460028F4D100E00D46082A0BD12368DA0708D5236962689A42DEBF302305F8013C1C
:4059000005F1FF35491B21612EE025681A6815F0800F606903D0151D1D60136808E015F0400F02F104051D60136801D0188000E01860002323610D4616E01A68111D1960D6
:40594000156800212846626800F042F808B1401B6060636804E004F1420584F8422001232361002384F84330CDF800803046214603AA3B46FFF796FE013002D14FF0FF3084
:405980001FE0304639462A462369C0470130F5D023689B0705D4E068039B9842B8BF18460FE00025E368039A9B1A9D42F3DA3046394604F119020123C0470130DED00135BD
:4059C000F0E704B0BDE8F0815F5E0000705E000010B5C9B202449042034605D01C7801308C42F8D1184610BD002010BD814210B501EB020301D3421E0BE09842FBD28118B9
:405A0000D21AD34204D013F8014D01F8014DF8E710BD994204D011F8014B02F8014FF8E710BD000030B500293CD051F8042C0B1F1D49002AB8BF9B180A680C4612B95A608B
:405A40000B6030BD93420DD219685818904201BF5A5852181A60426823605A6030BD994203D80A4651680029F9D1146815199D420AD11B682344D0188842136012D10868B5
:405A8000034413604B680CE002D90C23036030BD1C681819884201BF08684968001918605960536030BD00BF4082FF1F70B5CC1C24F0030408340C2C38BF0C24002C06460F
:405AC00003DA0C233360002070BD8C42F9D3204A136810461946A1B10A68121B0ED40B2A03D90A608B188C501FE08B420BBF5A684A6802605A6018BF0B4616E00B46496873
:405B0000E9E7144D2B681BB9304600F04BF828603046214600F046F8421C0346D1D0C51C25F0030585420AD11C6003F10B001A1D20F00700821A0AD05142995070BD30464B
:405B4000E91A00F02FF80130BBD02B46ECE770BD4082FF1F3C82FF1FF8B5074615460E4621B91146BDE8F840FFF7A0BF1AB9FFF759FF2846F8BD00F025F8A8420ED238467D
:405B80002946FFF793FF044650B131462A46FFF7FDFB38463146FFF745FF01E03046F8BD2046F8BD38B5064C0023054608462360FAF718FE431C02D1236803B12B6038BD02
:405BC0003884FF1F51F8040C0028BEBF091851F8043CC01804387047000000007175616420636F756E7420312069733A2025640A0D0000007175616420636F756E742032D7
:405C00002069733A2025640A0D0000004261747465727920566F6C746167653A2025646D760A0D00525353493A00000025640D0A00000000726F626F745F783A0000000072
:405C4000726F626F745F793A00000000726F626F745F6469723A0000004F00402400405100403000000001400010001401408006001B0140000100400140000A004C014099
:405C80000002005001402000801A0140AC0C00488000000030313233343536373839414243444546000000001201000202000008B40432F201000102800100000902430066
:405CC000020101C032090400000102020103052400100104240202052406000105240100010705810308000A09040100020A000004070582024000000705030240000000F6
:405D0000040309042C0343007900700072006500730073002000530065006D00690063006F006E0064007500630074006F007200100355005300420055004100520054007F
:405D40003803430044004300200043006F006D006D0075006E00690063006100740069006F006E00200049006E007400650072006600610063006500260343004400430004
:405D800020004400610074006100200049006E00740065007200660061006300650000000203000000008103080002000100820240000A000100030240000A00020A0000DA
:405DC00001000000BC5C000003000000A45D00000000000000000000000000000000000000000000BC5D000001000000A85C0000000000000000000001000000C05D00004A
:405E000001000000E85D000012034D005300460054003100300030000100000028000000000104000100000000000000000143595553420000003030303031000000000095
:405E40000000000073717274000000004300232D302B2000686C4C006566674546470030313233343536373839414243444546003031323334353637383961626364656622
:405E800000000000F8B500BFF8BC08BC9E4670474D000000CD080000F8B500BFF8BC08BC9E46704729000000B85E00000881FF1FE000000058020000000000000A01000097
:405EC000435333303120323031360A000000000000000000000000000000000000000000000000000000000000000000000000000000000000000000000000000000000085
:405F00004084FF1F00C2010000000800C201000000080000A120000000000200000000000087930360EA00003C0000000000307501000000000000000000000000000000DD
:405F400000000000000000000000000000000000000000004C5E00000000000000000000000000000000000000000000000000000000000000000000000000000000000077
:405F800000000000000000000000000000000000000000008481FF1F00000000000000000000000000000000000000000000000000000000000000000000000000000000BE
:405FC00000000000000000000000000000000000000000000000000000000000000000000000000000000000000000000000000000000000000000000000000000000000A1
:406000000000000000000000000000000000000000000000000000000000000000000000000000000000000000000000000000000000000000000000000000000000000060
:406040000000000000000000000000000000000000000000000000000000000000000000000000000000000000000000000000000000000000000000000000000000000020
:4060800000000000000000000000000000000000000000000000000000000000000000000000000000000000000000000000000000000000000000000000000000000000E0
:020000040003F7
:0200000480007A
:4000000001450040064F004006520040015B004006640040026500404B0001402D0101406E0201404A03014041040140430501406306014049070140440801403E09014087
:40004000020B0140040D0140641401404E15014053160140511701404F1801404E190140151A0140581B0140074001401341014012420140104301400E4501400746014054
:400080000B47014019480140124901400E4C0140054D01400C500140035101407E0201300A360D30163619502236100211081820601461147C402F84800F846F850F876F0D
:4000C00088388972850D870F0102031D040E06F0070308FE095C0A010CC50D030E3A147F151C189619441A681B081D101F40238024A3265C272029402A012B102D442F089F
:4001000030FF313C33C0350237013E013F50540F580459045B045C105D105F0183018408871E89168A108B088D188F0290029204950E960E980E99189B049C0EA208A40229
:40014000A604A910AA01AB02B21EB301B51EB601D608D804D904DB04DC11DD90DF01008801900314041808040B080C100E6212301310172919011E201F40210122522310EA
:4001800025142620272029892A102F043004339034043620399A3C883D103F01580459025AA05F4067018512C067C2F6C476CA2FCC6ECEFFD61FD810003004050504060A1A
:4001C000070808270C0C0D040E030F08100A1205150817041C0F210423092403260C2C302F02321033023420350C360F370138283B203E104032410649FF4AFF4BFF4DA092
:400200004F0150185608580459045A045B045C115D915F016040628064406540668068406A806C406D206E8081018494866088FD8A028C9E8E609473983099019AC99F04F5
:40024000A8CFAA30AD02AE0FB104B2FFB301B502B908BE04BF10C032C106C52EC6C0C734C83BC9FFCAFFCBFFCDAFCE07CF01D018D608D804D904DA04DB04DC10DD91DF017C
:40028000E040E280E440E540E680E840EA80EC40ED20EE800088030404080512070108040B080E42112012061601170819081C201D201E0221042211242025402608270814
:4002C0002A402D802F403020328037083B023D8841284528488049264DA04E0150085211581059105A805C805D205E20628064018210939094189588964097489C149D08E0
:400300009F0DA114A212A444A601AF84C0F7C296C4A3CA98CC4CCE51D066D224D618D818E208E404EA10EE0404021104170919081E011F0623082A0630023102320433083E
:400340003401350137043E013F445280540F580459045B045C115D105F0581048308858887148A018B038DC08F10900491B093409504970899029B019DC09F20A170A503E1
:40038000ABF0AD04AE06AF08B002B101B302B404B50CB601B7F0BB20BE10BF05D40FD804D904DB04DC11DD10DF01010804200B020E801008160119281A801E852108221123
:4003C0002302244C2680272129012D8A2E2030803211330836993C243E415A845B125C405E0A5F206104621071017A04808081128204831090209310941895809640970AA3
:40040000980199849A159B089C849D109F05A098A21BA464A508AE40AF40B640C044C211C482CAF1CCFFCEF0D6FFD806DE04E8100430050106C907020873109E1102126018
:400440001301160F1CFD1E0220CF223024942660310332FF3E043F014014410549FF4AFF4BFF4DA04F015018580459045A045D015F016040628064406540668068406A8072
:400480006C406D206E8088018B038F019408950198029B049F08A004A201A404A602A804B002B101B208B302B401B504B604B708B880BE55BF01C041C105C532C6C4C70E37
:4004C000C81FC9FFCAFFCBFFCDAFCE07CF01D018D280D40FD804D904DA04DB04DC10DD11DF05E040E280E440E540E680E840EA80EC40ED20EE8001200408051007100B2456
:400500000E620F0210A412081620170919091A051B401C1021C12204238427403030328434013B503E883F80410142014680478048A04A024B024E025040512852805810B7
:4005400059015A84612873407A088B2090089310941095809640970A980199209A049B099C049D109E209F04A213A464A708A880C062C2B6C43ECC8ECE4CD099D218D60F51
:40058000D806DE04E603EA0800F0010402080502063009060A0C0CF00E041011110712221338143C153916C01706184019111C101E0120FC2480271928C0293F2C202D064C
:4005C0002E022F39310E32033307352036FC371039203A803B0A54185604580459045B045C445D405F0184018D029502A502A801AB01AC01AD02B102B401B501BA08BF0171
:40060000D602D713D804D904DB04DC04DD40DF0101040440052406800D080E440F0210021110141115011720180819281A181B201D442221244425082609270229482A80F4
:400640002B082E902F2031083609371038403E043F115A025F0264026748680269147010718072047331822087408B048C018D089620A308AB08C0F4C2F0C4F3CA7ECCE2EC
:40068000CEE8D681D8B0E080EA08EE018210E404E208E404EA10EE04050107060E0212011501170A19021B011D011F0222012602320133083402350337043B203E104054AA
:4006C00049FF4AFF4BFF4F0150185280580B59045A0B5B095C195D995F016040624064406540668068806A806C806E80840285038605870C890C8B038F1093409404950F27
:400700009602980299079A049C029D0A9E049F05A310A720A905AB0AB120B206B340B401B50FB710BA08BF40C054C5ECC602C807C9FFCAFFCBFFCD83CE03CF01D018D401FF
:40074000D804D904DA09DB09DC11DD99DF01E040E240E440E540E680E880EA80EC80EE80030207100B400E2A1080130819041B201E281F14200821842210264127142C80B1
:400780002F1430083180321034023580372439083C083F60428046804B404D024F44548056805D025E805F04734079217E088308855089018A088F0296209708980299803A
:4007C0009B209D449F04A008A310A404A720A808AB40AE02B088B410B702C021C2E8C40CCAE0CCFECE72D081D218D6D0DE25E040E226E608E842EA01EC04EE4801FE02802B
:400800000301090E0BF00C660E08106611A31210135C157F183B19961B681C5D1E20244026082A782B012DC52F3A307831FF32C0340738203F015608580459045B045C0164
:400840005D905F018778893B8A018F809402955D972099409B089C019D80A566A708AC01AD66AF10B178B307B403B780B822B908BE01BF40C012C105C6EBC7C0C82CC9FF6A
:40088000CAFFCBFFCEF0CF44D00CD401D604D804D904DA04DB04DC14DD44DF01E6C0EA40EB0200900180074108080A010E480F0210021620171018041B021D101E481F08E8
:4008C000208022482330274029802A042B102E402F083180321033043604371138803B183E203F0240084203480250815310582059485B025C40638064026D806E20804482
:400900008104854088028A108B128C21908096C0972899089A249B119D109F04A180A301A444A608A728AB40B608C092C2D5C461CA3ACCEECEAED00CD208D61FD811E004EC
:40094000E440E810000E0602070808040B060C0C0D020E020F04130214021530160C19201A011E011F01200E24082530280C2B102F04320133073508360E373039803E0409
:400980003F445608580459045B045C145D905F01870189A08F1890019560978B99809B65A148A386A580A702A9E6AB11B201B307B7F8BB08BE04C001C704C9FFCA07CBFFAD
:4009C000CC40CD20CEF0CF05D008D608D804D904DA04DB04DC40DD94DF01E040E1A8E240E320046806800A800C400D080E020F081410150117201A201C101E02214022483F
:400A00002401271429102A052D802F24320833203402353036083740380239813A203B083E58400148204B085008520458805C205F44600263026405658066086E40820195
:400A40008A088B408D02906E9114920894109501966098109A809B209C019F10A108A701B010B180B412C0F0C2E8C470CA77CCF6CE7ED008D678D878E0C0E440E6800101CD
:400A800003020401060608010A0E0E0C15021701180C1A0326032A08340F35033A203F10580459045C045F010209032005960A040C200D800E5010281402151519101A04D0
:400AC0001D201E101F202008268027402D822E102F20300434023514360837403B023C023D143E4044404588460147104C014E044F0855045C805D6064016620800484015E
:400B00008521868088048A208CA08D2490069154924893029610984699829A019B109C209D109F40A029A108A208A724AB05AF24B081B220B304B560C0F7C2F2C4F6CAF0C7
:400B4000CCF2CEF1D0E0D230D630D830E040E220E6C0E840EA90EC8030803302368037023B40CCF0CE10000807483120320836813A40828087029740A480A702AA80B70254
:400B8000C0B0CCF0CE10E210E620EE20050412083240571097409E40A480A520A609AC04AF08B740C020C440CC10D440E810EC4018401F088201874096809740A520A60164
:400BC000A710A904AC80AE40C630E6C0EA10EC8001200B2053015780838085049620A580AA10B580C002C208D403EA08830193209508962097029920A58009800A200D048E
:400C00009320950896209780A580A920AF40C20E0140078026082B04662068026C108140824085108E0890409680A520AB10B708C060C880CA10D880DAC0E240E420E680C6
:400C4000EE800A2051105F028B028E109120A840A920AF80B412B620B704C210D420D680E840EA20EC2008101F40370889088B108F0893209780C202C601CC01E001E2044B
:400C8000E40275089908B010DE04EA0400130101080209010A020C11101211011A121B011C121D0100AB01FF023F00003000401030034004A00340080801020205000A019B
:400CC00003100C00000050100000800C3000C0100F1000000F00000304000102000F0F00F0000010000020020000004036050400020C000E11FFFFFF62A0F0410C00000089
:400D000000000800040404044494000100000000000040020010301000101012000000000000000000000000000000000B00000000002400001C1C0014000000400006003D
:400D400000000000C000000040000000000000000800140A0A000A0000000000007B7B0028000000000000000000000000000000000000000000000000000000000000001B
:400D80000000000000000000000000000000000000000000000000000000000000000000000000000000000000000000000000000000000000000000000000000000000033
:400DC00000000000000000000000000000000000000000000000000000000000000000000000000000000000000000000000000000000000000000000000000000000000F3
:400E000000000000000000000000000000000000000000000000000000000000000000000000000000000000000000000000000000000000000000000000000000000000B2
:400E40000000000000000000000000000000000000000000000000000000000000000000000000000000000000000000000000000000000000000000000000000000000072
:0200000490006A
:0400000000004005B7
:0200000490105A
:04000000BC90ACAF55
:0200000490303A
:02000000ABF162
:0200000490402A
:4000000000000000000000000000000000000000000000000000000000000000000000000000000000000000000000000000000000000000000000000000000000000000C0
:400040000000000000000000000000000000000000000000000000000000000000000000000000000000000000000000000000000000000000000000000000000000000080
:400080000000000000000000000000000000000000000000000000000000000000000000000000000000000000000000000000000000000000000000000000000000000040
:4000C0000000000000000000000000000000000000000000000000000000000000000000000000000000000000000000000000000000000000000000000000000000000000
:0200000490501A
:0C00000000012E16106900012E3EBC5AB3
:00000001FF