:400000000080002011000000415700004157000080B500AF024A034B1B68136005F0BCFBBC760040FA46004010B5054C237833B9044B13B10448AFF300800123237010BD2B
:40004000C086FF1F0000000068AC0000084B10B51BB108480849AFF300800848036803B910BD074B002BFBD0BDE81040184700BF0000000068AC0000C486FF1F0881FF1F9F
:400080000000000000000000B0B500AF5A4B1A885A4B1A805A4B1A885A4B1A8008F0F6F803461A46544B1A8008F076F903461A46534B1A80504B1B889AB2504B1B889BB2FB
:4000C000D31A9BB29AB2504B1A804D4B1B889AB24C4B1B889BB2D31A9BB29AB24B4B1A80454B1B881BB2002BB8BF5B4240F6B832934217DD464B1B78012B13D0444B1B7804
:40010000022B0FD0424B1B78072B0BD0002008F0CFF8002008F052F9374B00221A80384B00221A803B4B01221A703B4B1B78062B5AD1374B1B78062B56D1384B1B889AB240
:40014000314B1B889BB213449BB29AB2334B1A80324B1B881BB2002BB8BF5B42184609F085FB04460D462E4B1B881BB2184609F07DFB02460B46104619461DA3D3E90023C6
:4001800009F026FA02460B462046294609F05AFE0346002B02D0234B01221A701F4B1B881BB2002BB8BF5B42184609F05FFB04460D461B4B1B881BB2184609F057FB0246D8
:4001C0000B46104619460AA3D3E9002309F002FA02460B462046294609F034FE0346002B02D0114B01221A70B0BD00BFAFF300800000000000C05140F486FF1FF886FF1FBD
:40020000F686FF1FFA86FF1FFC86FF1FFE86FF1F5D81FF1FF286FF1F1887FF1F0C87FF1F0E87FF1F1087FF1F1187FF1FAFF3008080B582B000AF464B1B78012B33D108F0A2
:40024000ABF803461A46434B1B881BB2D31A002BB8BF5B42404A82FB03121112DA178A1A4FF4507101FB02F29A1A1346FB80FB88B82B17D9FB88E02B14D8384B9B78012B26
:4002800007D0364B5B78012B03D0344BDB78012B08D100F059FD324B1A782D4B1A7008F03BFD51E050E02A4B1B78022B33D107F0EDFF03461A46274B1B881BB2D31A002B96
:4002C000B8BF5B42244A82FB03121112DA178A1A4FF4507101FB02F29A1A1346BB80BB88B82B17D9BB88E02B14D81C4B9B78012B07D01A4B5B78012B03D0184BDB78012B10
:4003000008D100F021FD164B1A78114B1A7008F003FD19E018E00E4B1B78072B14D107F0B5FF03461A460B4B1B881BB2D31A002BB8BF5B42CF2B07DD00F006FD084B1A7815
:40034000034B1A7008F0E8FC0837BD4680BD00BF5D81FF1F0287FF1F4FECC44ED8B0FF1F5C81FF1F80B500AF054B1B78002B02D0044808F025FB044B00221A7080BD00BFDB
:400380001181FF1F6CAC00005D81FF1F80B500AF054B00221A60054B00221A7008F00CFF034808F00DFB80BD408AFF1F0087FF1F80AC000080B58EB000AF62B607F03EFDFD
:4003C00007F03AFE07F04CFF07F0D0FFA84808F027FBA84808F006FD08F0A6FBA64808F009FCA64808F054FE0020012105F0B4FC05F052FE0346002B01D005F0B9FFA04B0C
:400400001B78002B01D000F0E1FF9E4B1B78002B01D000F0FBFF0023FB8601F017F8984B1B78012B03D100F007FB01F0DBF9964801F034FA954B1B78072B00F2CA8201A2A7
:4004400052F823F0D3090000D3090000D309000065040000D3090000A9040000CF040000CF0400008A4B1B78012B1CD0884B1B78022B18D0844B1B78012B06D1824B9B78B3
:40048000012B02D100F0DCFC0DE07F4B1B79012B06D17D4B9B78012B02D100F0EDFC02E000F050FD95E294E27A4B1B78012B0DD1794B5A88794B1A80774B9A88784B1A80C1
:4004C000744B02221A7000F00FFD82E281E2704B1B78012B00F07C826D4B1B78022B00F077826B4B1B78072B00F072826D4B1B881A466D4B9B5C87F83530634B1B78012BE9
:4005000003D1614B9B78012B09D05F4B1B79012B40F008815C4B9B78012B40F00381634B1B68002B40F0FD80FB8E0133FB86FB8EB3F5FA7FC0F0F5805D4B1B881BB207F140
:40054000200210465B491A4609F07CFF07F12003184608F035FA584B1B78012B40F0E18097F83530442B0CD14E4B1B8802339AB24C4B1A804B4B1B881A464B4B9B5C87F825
:4005800035304A4B01221A604C4808F019FA4C4808F016FA4B4B01221A70454B00221A80404B1B881A46484B1B88053B9A4207DC3C4B1B8803333C4AD35C87F8343002E03D
:4005C000002387F8343097F834309BB21A46D2001A44D200D31A5B009BB29AB23B4B1A8097F835304C3B092B74D801A252F823F027060000D5060000D5060000D506000099
:40060000D5060000D50600004506000019060000D50600006306000000F094FC42F2107008F012FE57E000F00BFC4CF2503008F00BFE264B1B889BB2863B9BB29AB2234B04
:400640001A8048E000F018FC204B1B889BB2863B9BB29AB21D4B1A804CF2503008F0F4FD39E000F025FC1A4808F0EEFD33E000BF8900000031020000650300008D03000061
:40068000F186FF1F1181FF1FD8B0FF1F1887FF1F5D81FF1F1287FF1F28B0FF1F1487FF1F1687FF1F3C8AFF1F1C87FF1F408AFF1F0C87FF1F90AC00001087FF1FA4AC0000F6
:4006C000C4AC00000087FF1F3E8AFF1F0E87FF1F905F010000BFAE4B1B881BB2002B02DAAB4B00221A80AA4B1B881BB207F120021046A8491A4609F0A5FE07F12003184640
:4007000008F05EF908F048FDA34B00221A70A34B00221A70A24B1B8802339AB2A04B1A8056E155E19F4B1B78002B40F0BA809D4B5B78002B40F0B5809A4B9B78002B40F046
:40074000B080984BDB78002B40F0AB80954B1B79002B40F0A68097F83530552B04D097F83530442B40F09D808F4B1B68002B40F0978097F83530442B17D1894B1B880233DA
:400780008A4AD35C87F8313097F83130552B0CD1834B1B8802339AB2814B1A80804B1B881A46824B9B5C87F8353097F83530552B76D1FB8E0133FB86FB8E40F62722934265
:4007C0006ED9754B1B78012B6AD1794B1B881BB207F11002104677491A4609F033FE07F11003184608F0ECF8714B00221A806C4B1B881A46704B1B88053B9A4207DC684B93
:400800001B880333694AD35C87F8333002E0002387F8333097F833309BB21A46D2001A44D200D31A5B009BB29AB2594B1A80634808F0C6F8624808F0C3F8624B01221A705C
:40084000614808F001FD524B1B881BB2002B02DA4F4B00221A8008F09FFC0023FB86524B01221A6000F024FB4B4B00221A704B4B00221A704A4B1B8802339AB2484B1A8085
:40088000434B1B881BB207F11002104641491A4609F0D8FD07F11003184608F091F897E096E03E4B1B78012B6DD197F83530442B03D097F83530552B65D13D4B1B881BB2ED
:4008C0003A4610463B491A4609F0BCFD3B46184608F076F8364B00221A80314B1B881A46354B1B88053B9A4207DC2D4B1B8803332E4AD35C87F8323002E0002387F83230AA
:4009000097F832309BB21A46D2001A44D200D31A5B009BB29AB21E4B1A802C4808F050F897F83530552B0CD1274808F08DFC00F0BFFA174B1B889BB2863B9BB29AB2144B8A
:400940001A80154B00221A70144B00221A70144B1B8802339AB2124B1A800D4B1B881BB2002B02DA0A4B00221A80094B1B881BB23A46104607491A4609F064FD3B461846E9
:4009800008F01EF824E000F0DDFA0023FB861FE00E87FF1FD8AC00001087FF1F1187FF1F3C8AFF1FD8B0FF1F408AFF1F1C87FF1F0C87FF1F90AC00003E8AFF1FECAC00007B
:4009C000C4AC00000087FF1F905F010008AD000000BF184B1B78072B3FF61FAD01A252F823F000BF050A00000B0A0000110A00001D0A0000230A0000290A00002F0A000097
:400A0000170A000000F0B2F913E000F0D7F910E000F0BAF90DE000F0EDF90AE000F094F907E000F02BFE04E000F0D6FE01E000F02BFEF2E45D81FF1F80B489B000AF524B5D
:400A40001B78012B40F09A804F4B00221A704F4B5B781B029AB24D4B1B789BB213439BB2FB834B4B1B78043B1E2B00F2878001A252F823F0F10A00007D0B0000050B00007B
:400A80007D0B00000D0B00007D0B0000150B00007D0B00001D0B00007D0B0000250B00007D0B00002D0B00007D0B0000350B00007D0B00003D0B00007D0B0000450B000056
:400AC0007D0B00004D0B00007D0B0000550B00007D0B00005D0B00007D0B0000650B00007D0B00006D0B00007D0B0000750B0000264B1B78DAB2274B1A70244B5A78254B01
:400B00005A703BE0FA8B234B5A8037E0FA8B214B9A8033E0FA8B1F4BDA802FE0FA8B1D4B1A812BE0FA8B1B4B5A8127E0FA8B194B9A8123E0FA8B174BDA811FE0FA8B154BE9
:400B40001A821BE0FA8B134B5A8217E0FA8B114B9A8213E0FA8B0F4BDA820FE0FA8B0D4B1A830BE0FA8B0B4B5A8307E0FA8B094B9A8303E0FA8B074BDA8300BF2437BD46E0
:400B80005DF8047B704700BFEA86FF1F24B0FF1F1987FF1FE0B0FF1F80B582B000AF0346FB71FB79184607F029FA0837BD4680BD80B582B000AF0346FB71FB79184607F035
:400BC000FFF90837BD4680BD80B584B000AF114B1B78002B0CBF01230023DBB21A460D4B1A700C4B1B781846FFF7D6FF094B1B781846FFF7DDFF074B1B781A463B4618461D
:400C0000054909F01FFC3B46184607F0D9FE1037BD4680BDF086FF1F24AD00000000000080B586B000AFC7E90201C7E90023D7E900014FF000024FF0000309F0EFF80346AC
:400C4000002B10D0304B1B78002B0CBF01230023DBB21846FFF7ACFF3B683B607B6883F000437B6004E0284B1B781846FFF7A0FFD7E902014FF000024FF0000309F0CEF8FE
:400C80000346002B10D0204B1B78002B0CBF01230023DBB21846FFF77FFFBB68BB60FB6883F00043FB6004E0174B1B781846FFF773FFD7E9020112A3D3E9002308F066FF41
:400CC00002460B461046194609F0D0F80346FB82D7E900010AA3D3E9002308F057FF02460B461046194609F0C1F80346BB82074ABB8A1380064AFB8A13801837BD4680BDDE
:400D0000969526A5A0DBEF3FF086FF1F0887FF1F0A87FF1FAFF3008080B500AF002007F02FF9024B00221A8080BD00BF0487FF1F80B500AF002007F021FA024B00221A8012
:400D400080BD00BF0687FF1F80B500AF4FF000004FF000014FF000024FF00003FFF760FFFFF7DAFFFFF7E4FF80BD00BF80B500AF044BD3E90001034BD3E90023FFF750FF8B
:400D800080BD00BF6081FF1F80B500AF094BD3E90023104619464FF00002074B08F0CCFD02460B464FF000004FF00001FFF738FF80BD00BF6081FF1F0000F83F80B500AFBD
:400DC0000A4BD3E90023104619464FF00002084B08F0B2FD02460B46104619464FF000024FF00003FFF71CFF80BD00BF6081FF1F0000F83FB0B500AF0F4BD3E90023104618
:400E000083F000414FF000020C4B08F095FD02460B4614461D46084BD3E90023104619464FF00002054B08F087FD02460B4620462946FFF7F5FEB0BD6081FF1F0000F83F98
:400E400080B500AF07F068FF084B1A78084B1A70064B01221A70FFF75FFF07F09DFA03461A46044B1A8007F047FF80BD5D81FF1F5C81FF1F0287FF1F80B500AF07F04CFFBE
:400E8000084B1A78084B1A70064B02221A70FFF74FFF07F0FBF903461A46044B1A8007F02BFF80BD5D81FF1F5C81FF1F0287FF1F80B500AF07F030FF084B1A78084B1A70E8
:400EC000064B07221A70FFF73FFF07F0DFF903461A46044B1A8007F00FFF80BD5D81FF1F5C81FF1F0287FF1F80B500AFFFF72CFF014B00221A7080BD5D81FF1F80B400AF60
:400F0000034B03221A70BD465DF8047B704700BF5D81FF1F80B400AF034B04221A70BD465DF8047B704700BF5D81FF1F80B400AF034B05221A70BD465DF8047B704700BF12
:400F40005D81FF1F80B400AF034B06221A70BD465DF8047B704700BF5D81FF1FB0B582B000AF07F0F1FC0346FB71FB79AA2B2BD1224B1B78222B20D1214B224A15685468D6
:400F80009068D1681D605C609860D960156954699069D1691D615C619861D9611A4B1B78002B0AD107F028F90346DB43DBB2184607F004F9144B01221A70104B02221A7049
:400FC000124B00221A7016E00C4B1B7803F001030F49FA79CA54094B1B7803F00103DBB2002B02D0094B01221A70044B1B780133DAB2024B1A700837BD46B0BD1987FF1FD9
:4010000028B0FF1FE0B0FF1F1287FF1FEA86FF1F24B0FF1F80B588B000AF07F095FC0346FB75FB7D313B492B00F2B08101A252F823F000BFD5120000291200008D1300007C
:401040008D1300008D1300008D1300008D1300008D1300008D1300008D1300008D1300008D1300008D1300008D1300008D1300008D1300008D1300008D1300008D13000070
:401080008D1300008D1300008D1300008D1300008D1300008D1300008D1300008D1300008D1300008D1300008D1300008D1300008D1300008D1300008D1300008D13000030
:4010C0008D1300008D1300008D1300008D1300008D1300008D1300008D1300008D1300008D1300008D1300008D1300008D1300008D1300005D1100008D1300008D13000022
:40110000811100008D1300008D1100008D1300008D1300008D1300008D1300008D1300008D1300008D1300008D1300008D1300008D130000BD110000131200007511000026
:4011400099110000A51100008D130000691100008D1300008D130000B1110000FFF770FE8C4B00221A7011E1FFF7BEFE894B00221A700BE1FFF728FD864B00221A7005E17E
:40118000FFF77AFE834B00221A70FFE0FFF7B6FE804B00221A70F9E07E4B01221A70FFF7B9FEF3E0FFF7C2FE7A4B02221A70EDE0784B03221A70FFF7C5FEE7E0754B0422AA
:4011C0001A70754B00221A80744B1B881BB2184608F02EFF0246724B1B681046194608F07BFF0346184609F0C7F803469AB26D4B1A806C4B1B881BB23A1D10466A491A465B
:4012000009F020F93B1D184607F0DAFBFFF76CFEBCE0604B05221A7000F0D8F8634B00221A70FFF76BFEB1E05A4B06221A70604B1B68604A136003F0F3FD03469AB25E4BF5
:401240001A800023FB610023FB6118E0FB6903F00103002B07D1594AFB6913441B78184607F094FB08E0554AFB6913441B783033DBB2184607F08AFBFB690133FB614E4B7F
:401280001B881A46FB699A42E0DC4D4807F098FB4C4B1B881A46494B9B5CBB75494B1B880133464AD35C9BB21A46D2001A44D200D31A5B009BB29AB23A4B1A80394B1B88BB
:4012C0001BB23A1D104640491A4609F0BBF8FFF739FE5BE02F4B06221A70354B1B68354A136001F0EBFD03469AB2334B1A80354B22221A80334B1B88BB6118E0BB6903F026
:401300000103002B07D12D4ABB6913441B78184607F03CFB08E0294ABB6913441B783033DBB2184607F032FBBB690133BB61224B1B881A46BB699A42E0DC214807F040FB7F
:40134000204B1B881A461D4B9B5CBB751D4B1B8801331A4AD35C9BB21A46D2001A44D200D31A5B009BB29AB20E4B1A800D4B1B881BB23A1D104614491A4609F063F83B1D3D
:40138000184607F01DFBFFF7DDFD00BF2037BD4680BD00BF1887FF1F0C87FF1F1281FF1F1481FF1F0E87FF1F30AD00001287FF1F6881FF1FD0B0FF1F3E8AFF1F1C87FF1F76
:4013C00044AD00003C8AFF1FD8AC000080B500AF0B4B00221A7007F0E9F907F089FA094B01221A708120012107F04AFD064807F0CBF907F021FA002007F002FB80BD00BF2E
:401400001181FF1FF186FF1F5D0F000080B500AF0B4B00221A7007F0C9F907F069FA094B01221A704FF44370012107F029FD064807F0AAF907F000FA012007F0E1FA80BDC3
:40144000F186FF1F1181FF1F15100000B0B588B000AF824B1B78002B00D1FCE07F4B00221A707F4B1B88FB817E4B1B88BB814FF000027D4BC7E906234FF000027A4BC7E9DF
:401480000423B7F90E30002B0FD1B7F90C30002B0BD14FF000024FF08043C7E906234FF000024FF08043C7E90423704B1B881AB2B7F90E30002BB8BF5B42D31ABB60BB6861
:4014C00083EAE372A2EBE372BB6892FBF3F3184608F0CCF904460D46BB68002BB8BF5B42184608F0C3F902460B461046194607F021FF02460B462046294608F01DFA02465C
:401500000B461046194608F0B1FC03467B60584B1B881BB2184608F0A9F904460D46786808F0A4F902460B4610461946D7E9062308F002FA02460B462046294608F04AF8EC
:4015400002460B461046194608F090FC03469AB2474B1A80474B1B881AB2B7F90C30002BB8BF5B42D31ABB60BB6883EAE372A2EBE372BB6892FBF3F3184608F077F9044637
:401580000D46BB68002BB8BF5B42184608F06EF902460B461046194607F0CCFE02460B462046294608F0C8F902460B461046194608F05CFC03467B602F4B1B881BB2184679
:4015C00008F054F904460D46786808F04FF902460B4610461946D7E9042308F0ADF902460B462046294607F0F5FF02460B461046194608F03BFC03469AB21F4B1A801E4B3E
:401600001B881BB2002B02DA1B4B00221A80184B1B881BB2002B02DA154B00221A80164B1B881BB2642B02DD134B64221A80104B1B881BB2642B02DD0D4B64221A800C4B56
:401640001B88DBB2184606F09BFC0B4B1B88DBB2184606F093FD2037BD46B0BDF286FF1FFC86FF1FFE86FF1F0000F03F0887FF1F0487FF1F0A87FF1F0687FF1F80B400AF84
:40168000BD465DF8047B70472DE9B04382B000AF07F0DAFC0346FB7107F0E2FC0346BB7107F0C6FC03467B71FB79002B27D0BB79002B24D17B79002B21D1454BD3E900238E
:4016C0001046194640A3D3E9002308F05FFA02460B4614461D463E4BD3E90023904683F000494046494638A3D3E9002308F04EFA02460B4620462946FFF792FA5FE0FB7920
:40170000002B0ED07B79002B0BD0BB79002B08D12F4BD3E900012E4BD3E90023FFF780FA4DE0BB79002B0ED07B79002B0BD0FB79002B08D1264BD3E90001254BD3E9002316
:40174000FFF76EFA3BE0BB79002B27D07B79002B24D1FB79002B21D11D4BD3E90023144683F000452046294617A3D3E9002308F00DFA02460B4614461D46154BD3E900239A
:401780001046194610A3D3E9002308F0FFF902460B4620462946FFF743FA10E07B79002B0DD0BB79002B0AD1FB79002B07D1084BD3E90001064BD3E90023FFF731FA083714
:4017C000BD46BDE8B08300BF9A9999999999F93F6081FF1FAFF3008080B400AFBD465DF8047B704780B584B000AF254B1B78012B42D1234B00221A70224800F075F8224B46
:401800001B785BB23A46104620491A4608F01AFE3B46184600F068F81D4800F065F81A4B5B881BB23A46104618491A4608F00AFE3B46184600F058F8164800F055F8124BB5
:401840009B881BB23A46104610491A4608F0FAFD3B46184600F048F80F4800F045F80A4BDB881BB23A46104608491A4608F0EAFD3B46184600F038F81037BD4680BD00BF37
:40188000EE86FF1F60AD000028B0FF1F68AD000070AD00007CAD000088AD000090B583B000AF786007F0B8FB03461A467B681A707B685C1C07F0C8FB034623707B689C1CB8
:4018C00007F0B6FB034623707B68DC1C07F0C8FB034623707B681C1D07F0CEFB034623700C37BD4690BD00BF80B584B000AF7860154B1B78002B23D00023FB600AE0FB681D
:401900000133FB60FB68114A934203D10E4B00221A7015E004F0B6FD0346002BEFD07B683F3300221A707B683E3321221A70786808F0ACFD03469BB27868194604F06CFD08
:401940001037BD4680BD00BF1881FF1FC0C62D00B0B5ADF5745D00AF07F14004343C206007F140003838016007F140013C390A603A461360002307F5735202F13C02136068
:40198000FEE0002307F5735202F138021360E4E007F5735303F13C031B684C2202FB03F207F14003343B1B68134407F5735202F13802126853F8220007F5CA52103A07F572
:4019C000735303F13C0319680B46DB000B445B000B4407F5735101F1380109680B445B011344186007F5CA52103A07F5735303F13C0319680B46DB000B445B000B4407F579
:401A0000735101F1380109680B445B01134400225A6007F5CA52103A07F5735303F13C0319680B46DB000B445B000B4407F5735101F1380109680B445B01134408330A22A6
:401A40001A8007F5CA52103A07F5735303F13C0319680B46DB000B445B000B4407F5735101F1380109680B445B011344103307F5735202F13C0212681A6007F5CA52103AE6
:401A800007F5735303F13C0319680B46DB000B445B000B4407F5735101F1380109680B445B011344083307F5735202F1380212685A6007F5CA52103A07F5735303F13C0379
:401AC00019680B46DB000B445B000B4407F5735101F1380109680B445B011344103300225A6007F5CA52103A07F5735303F13C0319680B46DB000B445B000B4407F5735106
:401B000001F1380109680B445B01134418334FF6FF721A8007F5CA52103A07F5735303F13C0319680B46DB000B445B000B4407F5735101F1380109680B445B0113441833C6
:401B400000225A6007F5735303F138031B68013307F5735202F13802136007F5735303F138031B68122B7FF613AF07F5735303F13C031B68013307F5735202F13C02136087
:401B800007F5735303F13C031B680E2B7FF6F9AE3B461B681A6807F5CA53183B1A603B461B685A6807F5CA53183B5A60002307F5735202F13402136007F14003183B1A4692
:401BC0004FF4C853104600211A4608F032FC07F14003203B00221A6000225A60002307F5735202F114021360002307F5735202F130021360002307F5735202F12C02136028
:401C0000002307F5735202F11202138007F14003283B00221A6007F14003283B00225A60002307F5735202F12802136007F14003303B00221A6000225A60002307F57352FC
:401C400002F126021380012307F5735202F12002136007F5CA53183B196807F5CA53183B586807F5CA52103A0B46DB000B445B000B4403445B011344183300221A8007F5AC
:401C8000CA53183B196807F5CA53183B5C6807F5CA53183B186807F5CA53183B5D6807F5CA52103A0346DB0003445B0003442B445B01D01807F5CA52103A0B46DB000B44E7
:401CC0005B000B4423445B0113441033586007F5CA53183B196807F5CA53183B5C683E4B186807F5CA52103A0B46DB000B445B000B4423445B01134418335860A8E20123AD
:401D000007F5735202F12C02136007F5CA53183B196807F5CA53183B586807F5CA52103A0B46DB000B445B000B4403445B01134401225A6082E1002307F5735202F130026B
:401D4000136007F5735303F12C031B68012B11D107F5CA53183B1B685A1E07F14003203B1A6007F5CA53183B5A6807F14003203B5A604BE007F5735303F12C031B68022BC5
:401D800011D107F5CA53183B1A6807F14003203B1A6007F5CA53183B5B685A1C07F14003203B5A6032E007F5735303F12C031B68032B13D107F5CA53183B1B685A1C07F165
:401DC0004003203B1A6007F5CA53183B5A6807F14003203B5A6019E06881FF1F07F5735303F12C031B68042B10D107F5CA53183B1A6807F14003203B1A6007F5CA53183B6B
:401E00005B685A1E07F14003203B5A60994B1B6807F5735202F12C0212689A4205D0002307F5735202F13002136007F14003203B1B680F2B00F2F78007F14003203B5B6812
:401E4000132B00F2F08007F14003203B196807F14003203B586807F5CA52103A0B46DB000B445B000B4403445B0113441B68002B40F0D98007F5CA53183B196807F5CA5397
:401E8000183B586807F5CA52103A0B46DB000B445B000B4403445B0113441833188807F14003203B196807F14003203B5C6807F5CA52103A0B46DB000B445B000B44234444
:401EC0005B01134408331B8803449AB207F5735303F130031B689BB2134407F5735202F11202138007F14003203B196807F14003203B586807F5CA52103A0B46DB000B4409
:401F00005B000B4403445B01134418331B8807F5735202F1120212889A4280F0848007F14003203B196807F14003203B586807F5CA52103A0B46DB000B445B000B44034422
:401F40005B011344183307F5735202F1120212881A8007F14003203B196807F14003203B5C6807F5CA53183B186807F5CA53183B5D6807F5CA52103A0346DB0003445B00B1
:401F800003442B445B01D01807F5CA52103A0B46DB000B445B000B4423445B0113441033586007F14003203B196807F14003183B07F5735202F13402126843F8321007F10D
:401FC0004003203B596807F14002183A07F5735303F134031B68DB001344596007F14003203B196807F14003203B586807F5CA52103A0B46DB000B445B000B4403445B0104
:402000001344183307F5735202F12C0212685A6007F5735303F134031B68013307F5735202F13402136007F5735303F12C031B68013307F5735202F12C02136007F5735334
:4020400003F12C031B68042B7FF675AE4FF6FF7307F5735202F126021380002307F5735202F120021360002307F5735202F11C021360ACE06881FF1F07F14003183B07F5DC
:40208000735202F11C02126853F8322007F14003303B1A6007F14002183A07F5735303F11C031B68DB0013445A6807F14003303B5A6007F14003183B07F5735202F11C027B
:4020C000126853F8321007F14002183A07F5735303F11C031B68DB001344586807F5CA52103A0B46DB000B445B000B4403445B01134418331B8807F5735202F1260212881E
:402100009A4259D907F14003183B07F5735202F11C02126853F8321007F14002183A07F5735303F11C031B68DB001344586807F5CA52103A0B46DB000B445B000B44034486
:402140005B0113445B68002B36D107F14003183B07F5735202F11C02126853F8321007F14002183A07F5735303F11C031B68DB001344586807F5CA52103A0B46DB000B449D
:402180005B000B4403445B01134418331B8807F5735202F12602138007F5735303F11C031B6807F5735202F128021360012307F5735202F12002136007F5735303F11C0333
:4021C0001B68013307F5735202F11C02136007F5735303F11C031A6807F5735303F134031B689A42FFF448AF07F14003183B07F5735202F12802126853F8322007F5CA53BA
:40220000183B1A6007F14002183A07F5735303F128031B68DB0013445A6807F5CA53183B5A6007F5CA53183B196807F5CA53183B586807F5CA52103A0B46DB000B445B0076
:402240000B4403445B01134418335B68A04A136007F5CA53183B1A6807F5745303F110031B681B689A420CD107F5CA53183B5A6807F5745303F110031B6804331B689A4222
:4022800007D007F5735303F120031B68012B3FF436AD002307F5735202F12C02136007F5CA53183B1A6807F5745303F110031B681B689A4240F0058107F5CA53183B5A68B3
:4022C00007F5745303F110031B6804331B689A4240F0F78007F5CA53183B196807F5CA53183B586807F5CA52103A0B46DB000B445B000B4403445B01134407F5735202F106
:40230000180213606AE007F5735303F12C031A6813465B0013449B001A4607F140033C3B1B68134407F5735202F11802126812691A6007F5735303F12C031A6813465B0075
:4023400013449B001A4607F140033C3B1B68134407F5735202F118021268D2685A6007F5735303F12C031A6813465B0013449B001A4607F140033C3B1B68981807F573532F
:4023800003F118031B68196907F5735303F118031B68DC6807F5CA52103A0B46DB000B445B000B4423445B01134418335B68836007F5735303F118031B685B6907F5735206
:4023C00002F11802136007F5735303F12C031B68013307F5735202F12C02136007F5735303F118031B681A693B461B681B689A4289D107F5735303F118031B68DA683B46C1
:402400001B6804331B689A427FF47DAF07F5735303F12C031A6813465B0013449B001A4607F140033C3B1B68134407F5735202F11802126812691A6007F5735303F12C03C9
:402440001A6813465B0013449B001A4607F140033C3B1B68134407F5735202F118021268D2685A6007F5735303F12C031A6813465B0013449B001A4607F140033C3B1B686A
:40248000981807F5735303F118031B68196907F5735303F118031B68DC6807F5CA52103A0B46DB000B445B000B4423445B01134418335B68836007F5735303F12C031B6804
:4024C00000E00023184607F57457BD46B0BD00BF6881FF1FB0B5ADF5745D00AF07F14004343C206007F140003838016007F140013C390A603A461360002307F5735202F1E0
:402500003C021360FDE0002307F5735202F138021360E3E007F5735303F13C031B684C2202FB03F207F14003343B1B68134407F5735202F13802126853F8220007F5CA527D
:40254000103A07F5735303F13C0319680B46DB000B445B000B4407F5735101F1380109680B445B011344186007F5CA52103A07F5735303F13C0319680B46DB000B445B00F2
:402580000B4407F5735101F1380109680B445B01134400225A6007F5CA52103A07F5735303F13C0319680B46DB000B445B000B4407F5735101F1380109680B445B01134437
:4025C00008330A221A8007F5CA52103A07F5735303F13C0319680B46DB000B445B000B4407F5735101F1380109680B445B011344103307F5735202F13C0212681A6007F55A
:40260000CA52103A07F5735303F13C0319680B46DB000B445B000B4407F5735101F1380109680B445B011344083307F5735202F1380212685A6007F5CA52103A07F57353BA
:4026400003F13C0319680B46DB000B445B000B4407F5735101F1380109680B445B011344103300225A6007F5CA52103A07F5735303F13C0319680B46DB000B445B000B4407
:4026800007F5735101F1380109680B445B011344183300221A8007F5CA52103A07F5735303F13C0319680B46DB000B445B000B4407F5735101F1380109680B445B0113445A
:4026C000183300225A6007F5735303F138031B68013307F5735202F13802136007F5735303F138031B68122B7FF614AF07F5735303F13C031B68013307F5735202F13C0223
:40270000136007F5735303F13C031B680E2B7FF6FAAE3B461B681A6807F5CA53183B1A603B461B685A6807F5CA53183B5A60002307F5735202F13402136007F14003183BF2
:402740001A464FF4C853104600211A4607F071FE07F14003203B00221A6000225A60002307F5735202F114021360002307F5735202F130021360002307F5735202F12C026F
:402780001360002307F5735202F11202138007F14003283B00221A6007F14003283B00225A60002307F5735202F12802136007F14003303B00221A6000225A60002307F5C3
:4027C000735202F124021360012307F5735202F12002136007F5CA53183B196807F5CA53183B586807F5CA52103A0B46DB000B445B000B4403445B011344183300221A807A
:4028000007F5CA53183B196807F5CA53183B5C6807F5CA53183B186807F5CA53183B5D6807F5CA52103A0346DB0003445B0003442B445B01D01807F5CA52103A0B46DB00AE
:402840000B445B000B4423445B0113441033586007F5CA53183B196807F5CA53183B586807F5CA52103A0B46DB000B445B000B4403445B011344183307F5745202F114029A
:4028800012685A60002307F5735202F11C02136002E3012307F5735202F12C02136007F5CA53183B196807F5CA53183B586807F5CA52103A0B46DB000B445B000B44034437
:4028C0005B01134401225A6083E1002307F5735202F13002136007F5735303F12C031B68012B11D107F5CA53183B1B685A1E07F14003203B1A6007F5CA53183B5A6807F155
:402900004003203B5A6049E007F5735303F12C031B68022B11D107F5CA53183B1A6807F14003203B1A6007F5CA53183B5B685A1C07F14003203B5A6030E007F5735303F1E6
:402940002C031B68032B11D107F5CA53183B1B685A1C07F14003203B1A6007F5CA53183B5A6807F14003203B5A6017E007F5735303F12C031B68042B10D107F5CA53183BC7
:402980001A6807F14003203B1A6007F5CA53183B5B685A1E07F14003203B5A6007F5735303F12C031A6807F5745303F114031B689A4205D0002307F5735202F130021360A9
:4029C00007F14003203B1B680F2B00F2F78007F14003203B5B68132B00F2F08007F14003203B196807F14003203B586807F5CA52103A0B46DB000B445B000B4403445B018B
:402A000013441B68002B40F0D98007F5CA53183B196807F5CA53183B586807F5CA52103A0B46DB000B445B000B4403445B0113441833188807F14003203B196807F1400331
:402A4000203B5C6807F5CA52103A0B46DB000B445B000B4423445B01134408331B8803449AB207F5735303F130031B689BB2134407F5735202F11202138007F14003203B24
:402A8000196807F14003203B586807F5CA52103A0B46DB000B445B000B4403445B01134418331B8807F5735202F1120212889A4240F2848007F14003203B196807F140030A
:402AC000203B586807F5CA52103A0B46DB000B445B000B4403445B011344183307F5735202F1120212881A8007F14003203B196807F14003203B5C6807F5CA53183B186896
:402B000007F5CA53183B5D6807F5CA52103A0346DB0003445B0003442B445B01D01807F5CA52103A0B46DB000B445B000B4423445B0113441033586007F14003203B19688F
:402B400007F14003183B07F5735202F13402126843F8321007F14003203B596807F14002183A07F5735303F134031B68DB001344596007F14003203B196807F14003203BFB
:402B8000586807F5CA52103A0B46DB000B445B000B4403445B011344183307F5735202F12C0212685A6007F5735303F134031B68013307F5735202F13402136007F57353B0
:402BC00003F12C031B68013307F5735202F12C02136007F5735303F12C031B68042B7FF674AE002307F5735202F124021360002307F5735202F120021360002307F57352B8
:402C000002F118021360ABE007F14003183B07F5735202F11802126853F8322007F14003303B1A6007F14002183A07F5735303F118031B68DB0013445A6807F14003303B7C
:402C40005A6007F14003183B07F5735202F11802126853F8321007F14002183A07F5735303F118031B68DB001344586807F5CA52103A0B46DB000B445B000B4403445B013B
:402C8000134418331B881A4607F5735303F124031B689A4259D907F14003183B07F5735202F11802126853F8321007F14002183A07F5735303F118031B68DB0013445868CC
:402CC00007F5CA52103A0B46DB000B445B000B4403445B0113445B68002B36D107F14003183B07F5735202F11802126853F8321007F14002183A07F5735303F118031B681B
:402D0000DB001344586807F5CA52103A0B46DB000B445B000B4403445B01134418331B8807F5735202F12402136007F5735303F118031B6807F5735202F12802136001231C
:402D400007F5735202F12002136007F5735303F118031B68013307F5735202F11802136007F5735303F118031A6807F5735303F134031B689A42FFF447AF07F14003183B2B
:402D800007F5735202F12802126853F8322007F5CA53183B1A6007F14002183A07F5735303F128031B68DB0013445A6807F5CA53183B5A6007F5CA53183B196807F5CA5328
:402DC000183B586807F5CA52103A0B46DB000B445B000B4403445B01134418335B6807F5745202F11402136007F5735303F11C031A6813465B0013449B001A4607F140035B
:402E00003C3B1B681A4407F5CA53183B1B68136007F5735303F11C031A6813465B0013449B001A4607F140033C3B1B681A4407F5CA53183B5B68536007F5735303F11C0331
:402E40001A6813465B0013449B001A4607F140033C3B1B68981807F5CA53183B196807F5CA53183B5C6807F5CA52103A0B46DB000B445B000B4423445B01134418335B6819
:402E8000836007F5735303F11C031B68013307F5735202F11C02136007F5735303F120031B68012B3FF4F5AC07F5735303F11C031B68184607F57457BD46B0BD90B5ADF52E
:402EC000165D8FB002AF184B1B68184A0092019317481849184A194BFFF7FCFA034607F5165202F114021360002307F5165202F12C021360002307F5165202F12A02138012
:402F0000002307F5165202F124021360002307F5165202F120021360002307F5165202F11C02136001F057BF6881FF1F7481FF1F7C81FF1FF085FF1F448AFF1F6C81FF1F9E
:402F400007F5165303F11C031B685A1CC94913465B0013449B000B441968C64807F5165303F11C031A6813465B0013449B0003441B68013399421DD107F5165303F11C036B
:402F80001B685A1CBB4913465B0013449B000B4404331968B74807F5165303F11C031A6813465B0013449B00034404331B68994201F0FA8107F5165303F11C031B685A1C0F
:402FC000AC4913465B0013449B000B441968A94807F5165303F11C031A6813465B0013449B0003441B68013B99421DD107F5165303F11C031B685A1C9E4913465B001344A3
:403000009B000B44043319689A4807F5165303F11C031A6813465B0013449B00034404331B68994201F0C08107F5165303F11C031B685A1C8F4913465B0013449B000B4420
:40304000043319688B4807F5165303F11C031A6813465B0013449B00034404331B68013B99421BD107F5165303F11C031B685A1C804913465B0013449B000B4419687D48AC
:4030800007F5165303F11C031A6813465B0013449B0003441B68994201F0868107F5165303F11C031B685A1C724913465B0013449B000B44043319686E4807F5165303F1EB
:4030C0001C031A6813465B0013449B00034404331B68013399421BD107F5165303F11C031B685A1C634913465B0013449B000B441968604807F5165303F11C031A681346FF
:403100005B0013449B0003441B68994201F04C8107F5165303F12A031B88574A4421D15407F5165303F12A031B88013307F5165202F11C021268D1B207F5165202F12C0237
:403140001268D2B28A1AD1B24B4AD15407F5165303F12A031B88023307F5165202F12A021380002307F5165202F12002136007F13003303B1A464FF41653104600211A4674
:4031800007F057F93B4907F5165303F11C031A6813465B0013449B000B441B6807F5165202F108021360334907F5165303F11C031A6813465B0013449B000B4404331B68D9
:4031C00007F5165202F10C02136007F5165303F11C031B685A1C274913465B0013449B000B441B6807F51652136007F5165303F11C031B685A1C1F4913465B0013449B0048
:403200000B4404331B6807F5165202F104021360184907F5165303F11C031A6813465B0013449B000B4408331B68144A136007F13003303B07F5165404F1080407F5165275
:4032400000920F480F491A462346FEF781FB034607F5165202F11002136007F5165303F110031B6807F5165202F11802136001F07EB800BF448AFF1F1C87FF1F6881FF1F41
:403280007C81FF1FF085FF1F07F13002303A07F5165303F1180319680B465B000B449B00134408331B68012B11D007F13002303A07F5165303F1180319680B465B000B449B
:4032C0009B00134408331B68032B40F0218407F13002303A07F5165303F1180319680B465B000B449B001344196807F13002303A07F5165303F11803186803465B000344B1
:403300009B00134404331B685A1E95480B46DB000B445B000B44134450F82330002B29D007F13002303A07F5165303F1180319680B465B000B449B001344196807F1300230
:40334000303A07F5165303F11803186803465B0003449B00134404331B685A1C80480B46DB000B445B000B44134450F82330002B40F0F28207F13002303A07F5165303F147
:40338000180319680B465B000B449B0013440833186807F5165303F118031B68591E07F13002303A0B465B000B449B00134408331B68984200F0868207F13002303A07F5BA
:4033C000165303F1180319680B465B000B449B00134408331B68012B11D107F5165303F118031B68591E07F13002303A0B465B000B449B00134408331B68042B6BD007F10C
:403400003002303A07F5165303F1180319680B465B000B449B00134408331B68032B11D107F5165303F118031B68591E07F13002303A0B465B000B449B00134408331B6893
:40344000022B48D007F13002303A07F5165303F1180319680B465B000B449B00134408331B68012B0FD107F5165303F11C031B685A1C3C4913465B0013449B000B440833A1
:403480001B68042B20D007F13002303A07F5165303F1180319680B465B000B449B00134408331B68032B61D107F5165303F11C031B685A1C2B4913465B0013449B000B44FC
:4034C00008331B68022B51D107F5165303F118031B68012B4AD107F5165303F12A031B88214A4C21D15407F5165303F12A031B88013307F5165202F110021268D1B207F59C
:40350000165202F118021268D2B28A1AD1B207F5165202F120021268D2B28A1AD2B20132D1B2114AD15407F5165303F12A031B88023307F5165202F12A02138007F5165343
:4035400003F110031A6807F5165303F118031B68D31A013307F5165202F120021360B0E17C81FF1F448AFF1F1C87FF1F07F13002303A07F5165303F1180319680B465B0030
:403580000B449B00134408331B68012B11D107F5165303F118031B68591E07F13002303A0B465B000B449B00134408331B68022B6BD007F13002303A07F5165303F11803E1
:4035C00019680B465B000B449B00134408331B68032B11D107F5165303F118031B68591E07F13002303A0B465B000B449B00134408331B68042B48D007F13002303A07F50B
:40360000165303F1180319680B465B000B449B00134408331B68012B0FD107F5165303F11C031B685A1CCA4913465B0013449B000B4408331B68022B20D007F13002303AF2
:4036400007F5165303F1180319680B465B000B449B00134408331B68032B5BD107F5165303F11C031B685A1CB94913465B0013449B000B4408331B68012B4BD107F516537D
:4036800003F118031B68042B44D107F5165303F12A031B88AF4A5221D15407F5165303F12A031B88013307F5165202F110021268D1B207F5165202F118021268D2B28A1AA4
:4036C000D1B207F5165202F120021268D2B28A1AD2B20132D1B29F4AD15407F5165303F12A031B88023307F5165202F12A02138007F5165303F110031A6807F5165303F129
:4037000018031B68D31A013307F5165202F120021360D6E007F13002303A07F5165303F1180319680B465B000B449B00134408331B68012B11D107F5165303F118031B68EF
:40374000591E07F13002303A0B465B000B449B00134408331B68032B6ED007F13002303A07F5165303F1180319680B465B000B449B00134408331B68032B11D107F516537E
:4037800003F118031B68591E07F13002303A0B465B000B449B00134408331B68012B4BD007F13002303A07F5165303F1180319680B465B000B449B00134408331B68012B1A
:4037C0000FD107F5165303F11C031B685A1C604913465B0013449B000B4408331B68032B22D007F13002303A07F5165303F1180319680B465B000B449B00134408331B68C8
:40380000032B40F0A48007F5165303F11C031B685A1C4F4913465B0013449B000B4408331B68012B40F0938007F5165303F118031B68012B40F08B8007F5165303F12A03F7
:403840001B88444A5521D15407F5165303F12A031B88013307F5165202F110021268D1B207F5165202F118021268D2B28A1AD1B207F5165202F120021268D2B28A1AD2B284
:403880000132D1B2334AD15407F5165303F12A031B88023307F5165202F12A02138007F5165303F110031A6807F5165303F118031B68D31A013307F5165202F1200213604A
:4038C00045E044E007F5165303F12A031B88214A5321D15407F5165303F12A031B88013307F5165202F110021268D1B207F5165202F118021268D2B28A1AD1B207F5165295
:4039000002F120021268D2B28A1AD2B20132D1B2104AD15407F5165303F12A031B88023307F5165202F12A02138007F5165303F110031A6807F5165303F118031B68D31AD1
:40394000013307F5165202F120021360D9E0D8E0448AFF1F1C87FF1F07F13002303A07F5165303F1180319680B465B000B449B00134408331B68012B11D107F5165303F16E
:4039800018031B68591E07F13002303A0B465B000B449B00134408331B68032B6BD007F13002303A07F5165303F1180319680B465B000B449B00134408331B68032B11D106
:4039C00007F5165303F118031B68591E07F13002303A0B465B000B449B00134408331B68012B48D007F13002303A07F5165303F1180319680B465B000B449B001344083325
:403A00001B68012B0FD107F5165303F11C031B685A1C3D4913465B0013449B000B4408331B68032B20D007F13002303A07F5165303F1180319680B465B000B449B001344B9
:403A400008331B68032B5CD107F5165303F11C031B685A1C2C4913465B0013449B000B4408331B68012B4CD107F5165303F118031B68012B45D107F5165303F12A031B88E9
:403A8000224A5521D15407F5165303F12A031B88013307F5165202F110021268D1B207F5165202F118021268D2B28A1AD1B207F5165202F120021268D2B28A1AD2B20132D4
:403AC000D1B2124AD15407F5165303F12A031B88023307F5165202F12A02138007F5165303F110031A6807F5165303F118031B68D31A013307F5165202F12002136000F06C
:403B000020BC00F01EBC00BF448AFF1F1C87FF1F07F13002303A07F5165303F1180319680B465B000B449B0013441B68591E07F13002303A07F5165303F118031868034632
:403B40005B0003449B00134404331A6895480B46DB000B445B000B44134450F82330002B29D007F13002303A07F5165303F1180319680B465B000B449B0013441B68591C72
:403B800007F13002303A07F5165303F11803186803465B0003449B00134404331A6881480B46DB000B445B000B44134450F82330002B40F0F38207F13002303A07F516533E
:403BC00003F1180319680B465B000B449B0013440833186807F5165303F118031B68591E07F13002303A0B465B000B449B00134408331B68984200F0878207F13002303A79
:403C000007F5165303F1180319680B465B000B449B00134408331B68042B11D107F5165303F118031B68591E07F13002303A0B465B000B449B00134408331B68032B6BD0BD
:403C400007F13002303A07F5165303F1180319680B465B000B449B00134408331B68022B11D107F5165303F118031B68591E07F13002303A0B465B000B449B0013440833D7
:403C80001B68012B48D007F13002303A07F5165303F1180319680B465B000B449B00134408331B68042B0FD107F5165303F11C031B685A1C3C4913465B0013449B000B440F
:403CC00008331B68032B20D007F13002303A07F5165303F1180319680B465B000B449B00134408331B68022B62D107F5165303F11C031B685A1C2C4913465B0013449B00C8
:403D00000B4408331B68012B52D107F5165303F118031B68012B4BD107F5165303F12A031B88224A4C21D15407F5165303F12A031B88013307F5165202F110021268D1B2FE
:403D400007F5165202F118021268D2B28A1AD1B207F5165202F120021268D2B28A1AD2B20132D1B2114AD15407F5165303F12A031B88023307F5165202F12A02138007F568
:403D8000165303F110031A6807F5165303F118031B68D31A013307F5165202F120021360B1E100BF7C81FF1F448AFF1F1C87FF1F07F13002303A07F5165303F1180319686B
:403DC0000B465B000B449B00134408331B68042B11D107F5165303F118031B68591E07F13002303A0B465B000B449B00134408331B68012B6BD007F13002303A07F51653FA
:403E000003F1180319680B465B000B449B00134408331B68022B11D107F5165303F118031B68591E07F13002303A0B465B000B449B00134408331B68032B48D007F130021B
:403E4000303A07F5165303F1180319680B465B000B449B00134408331B68042B0FD107F5165303F11C031B685A1CCA4913465B0013449B000B4408331B68012B20D007F1DE
:403E80003002303A07F5165303F1180319680B465B000B449B00134408331B68022B5BD107F5165303F11C031B685A1CB94913465B0013449B000B4408331B68032B4BD1FD
:403EC00007F5165303F118031B68012B44D107F5165303F12A031B88AF4A5221D15407F5165303F12A031B88013307F5165202F110021268D1B207F5165202F11802126822
:403F0000D2B28A1AD1B207F5165202F120021268D2B28A1AD2B20132D1B29F4AD15407F5165303F12A031B88023307F5165202F12A02138007F5165303F110031A6807F515
:403F4000165303F118031B68D31A013307F5165202F120021360D6E007F13002303A07F5165303F1180319680B465B000B449B00134408331B68042B11D107F5165303F1E5
:403F800018031B68591E07F13002303A0B465B000B449B00134408331B68022B6ED007F13002303A07F5165303F1180319680B465B000B449B00134408331B68022B11D1FF
:403FC00007F5165303F118031B68591E07F13002303A0B465B000B449B00134408331B68042B4BD007F13002303A07F5165303F1180319680B465B000B449B001344083319
:404000001B68042B0FD107F5165303F11C031B685A1C604913465B0013449B000B4408331B68022B22D007F13002303A07F5165303F1180319680B465B000B449B0013448C
:4040400008331B68022B40F0A48007F5165303F11C031B685A1C4F4913465B0013449B000B4408331B68042B40F0938007F5165303F118031B68012B40F08B8007F5165310
:4040800003F12A031B88444A5521D15407F5165303F12A031B88013307F5165202F110021268D1B207F5165202F118021268D2B28A1AD1B207F5165202F120021268D2B243
:4040C0008A1AD2B20132D1B2334AD15407F5165303F12A031B88023307F5165202F12A02138007F5165303F110031A6807F5165303F118031B68D31A013307F5165202F16F
:404100002002136045E044E007F5165303F12A031B88214A5321D15407F5165303F12A031B88013307F5165202F110021268D1B207F5165202F118021268D2B28A1AD1B21B
:4041400007F5165202F120021268D2B28A1AD2B20132D1B2104AD15407F5165303F12A031B88023307F5165202F12A02138007F5165303F110031A6807F5165303F1180395
:404180001B68D31A013307F5165202F120021360D7E0D6E0448AFF1F1C87FF1F07F13002303A07F5165303F1180319680B465B000B449B00134408331B68042B11D107F514
:4041C000165303F118031B68591E07F13002303A0B465B000B449B00134408331B68022B6BD007F13002303A07F5165303F1180319680B465B000B449B00134408331B6872
:40420000022B11D107F5165303F118031B68591E07F13002303A0B465B000B449B00134408331B68042B48D007F13002303A07F5165303F1180319680B465B000B449B005C
:40424000134408331B68042B0FD107F5165303F11C031B685A1CCF4913465B0013449B000B4408331B68022B20D007F13002303A07F5165303F1180319680B465B000B443D
:404280009B00134408331B68022B5AD107F5165303F11C031B685A1CBE4913465B0013449B000B4408331B68042B4AD107F5165303F118031B68012B43D107F5165303F1F1
:4042C0002A031B88B44A5521D15407F5165303F12A031B88013307F5165202F110021268D1B207F5165202F118021268D2B28A1AD1B207F5165202F120021268D2B28A1AE1
:40430000D2B20132D1B2A44AD15407F5165303F12A031B88023307F5165202F12A02138007F5165303F110031A6807F5165303F118031B68D31A013307F5165202F120023D
:40434000136007F5165303F124031B68013307F5165202F12402136007F5165303F118031B68013B07F5165202F11802136007F5165303F118031B68002B3EF785AF07F505
:40438000165303F11C031B6807F5165202F12C02136007F5165303F11C031B68013307F5165202F11C0213607A4907F5165303F11C031A6813465B0013449B000B44083302
:4043C0001B68012B0FD0734907F5165303F11C031A6813465B0013449B000B4408331B68032B40F075826B4907F5165303F11C031A6813465B0013449B000B441A6865489F
:4044000007F5165303F11C0319680B465B000B449B00034404331B68591E60481346DB0013445B0013440B4450F82330002B25D0584907F5165303F11C031A6813465B0037
:4044400013449B000B441A68524807F5165303F11C0319680B465B000B449B00034404331B68591C4D481346DB0013445B0013440B4450F82330002B40F0B281454907F506
:40448000165303F11C031A6813465B0013449B000B440833196807F5165303F11C031B685A1C3C4813465B0013449B00034408331B68994200F05F81364907F5165303F12A
:4044C0001C031A6813465B0013449B000B4408331B68012B0FD107F5165303F11C031B685A1C2C4913465B0013449B000B4408331B68042B1ED0274907F5165303F11C03BE
:404500001A6813465B0013449B000B4408331B68032B4BD107F5165303F11C031B685A1C1C4913465B0013449B000B4408331B68022B3BD107F5165303F12A031B88164AB1
:404540004C21D15407F5165303F12A031B88013307F5165202F11C021268D1B207F5165202F12C021268D2B28A1AD1B20A4AD15407F5165303F12A031B88023307F51652F5
:4045800002F12A02138007F5165303F11C031B6806E000BF448AFF1F1C87FF1F7C81FF1F07F5165202F12C021360E3E0C64907F5165303F11C031A6813465B0013449B0077
:4045C0000B4408331B68012B0FD107F5165303F11C031B685A1CBC4913465B0013449B000B4408331B68022B1ED0B74907F5165303F11C031A6813465B0013449B000B446F
:4046000008331B68032B43D107F5165303F11C031B685A1CAC4913465B0013449B000B4408331B68042B33D107F5165303F12A031B88A64A5221D15407F5165303F12A03F7
:404640001B88013307F5165202F11C021268D1B207F5165202F12C021268D2B28A1AD1B29A4AD15407F5165303F12A031B88023307F5165202F12A02138007F5165303F171
:404680001C031B6807F5165202F12C02136071E08D4907F5165303F11C031A6813465B0013449B000B4408331B68012B0FD107F5165303F11C031B685A1C834913465B008F
:4046C00013449B000B4408331B68032B1ED07E4907F5165303F11C031A6813465B0013449B000B4408331B68032B78D107F5165303F11C031B685A1C734913465B0013447C
:404700009B000B4408331B68012B68D107F5165303F12A031B886D4A5521D15407F5165303F12A031B88013307F5165202F11C021268D1B207F5165202F12C021268D2B29F
:404740008A1AD1B2614AD15407F5165303F12A031B88023307F5165202F12A02138007F5165303F11C031B6807F5165202F12C02136034E033E007F5165303F12A031B888B
:40478000524A5321D15407F5165303F12A031B88013307F5165202F11C021268D1B207F5165202F12C021268D2B28A1AD1B2474AD15407F5165303F12A031B88023307F53B
:4047C000165202F12A02138007F5165303F11C031B6807F5165202F12C02136072E071E0394907F5165303F11C031A6813465B0013449B000B4408331B68012B0FD107F5D2
:40480000165303F11C031B685A1C2F4913465B0013449B000B4408331B68032B1ED02A4907F5165303F11C031A6813465B0013449B000B4408331B68032B43D107F51653F5
:4048400003F11C031B685A1C1F4913465B0013449B000B4408331B68012B33D107F5165303F12A031B88194A5521D15407F5165303F12A031B88013307F5165202F11C02E8
:404880001268D1B207F5165202F12C021268D2B28A1AD1B20D4AD15407F5165303F12A031B88023307F5165202F12A02138007F5165303F11C031B6807F5165202F12C02E1
:4048C000136072E271E200BF448AFF1F1C87FF1FA64907F5165303F11C031A6813465B0013449B000B441B685A1EA04807F5165303F11C0319680B465B000B449B0003449B
:40490000043319689A481346DB0013445B0013440B4450F82330002B25D0944907F5165303F11C031A6813465B0013449B000B441B685A1C8D4807F5165303F11C03196803
:404940000B465B000B449B0003440433196888481346DB0013445B0013440B4450F82330002B40F0B181814907F5165303F11C031A6813465B0013449B000B4408331968A9
:4049800007F5165303F11C031B685A1C774813465B0013449B00034408331B68994200F05E81724907F5165303F11C031A6813465B0013449B000B4408331B68042B0FD1FB
:4049C00007F5165303F11C031B685A1C674913465B0013449B000B4408331B68032B1ED0624907F5165303F11C031A6813465B0013449B000B4408331B68022B43D107F532
:404A0000165303F11C031B685A1C584913465B0013449B000B4408331B68012B33D107F5165303F12A031B88524A4C21D15407F5165303F12A031B88013307F5165202F172
:404A40001C021268D1B207F5165202F12C021268D2B28A1AD1B2474AD15407F5165303F12A031B88023307F5165202F12A02138007F5165303F11C031B6807F5165202F1F5
:404A80002C021360EAE0394907F5165303F11C031A6813465B0013449B000B4408331B68042B0FD107F5165303F11C031B685A1C2E4913465B0013449B000B4408331B68B2
:404AC000012B1ED0294907F5165303F11C031A6813465B0013449B000B4408331B68022B4AD107F5165303F11C031B685A1C1F4913465B0013449B000B4408331B68032B7B
:404B00003AD107F5165303F12A031B88194A5221D15407F5165303F12A031B88013307F5165202F11C021268D1B207F5165202F12C021268D2B28A1AD1B20E4AD15407F554
:404B4000165303F12A031B88023307F5165202F12A02138007F5165303F11C031B6807F5165202F12C02136078E000BF448AFF1F7C81FF1F1C87FF1FA74907F5165303F1A2
:404B80001C031A6813465B0013449B000B4408331B68042B0FD107F5165303F11C031B685A1C9D4913465B0013449B000B4408331B68022B1ED0984907F5165303F11C0314
:404BC0001A6813465B0013449B000B4408331B68022B78D107F5165303F11C031B685A1C8D4913465B0013449B000B4408331B68042B68D107F5165303F12A031B88874AAE
:404C00005521D15407F5165303F12A031B88013307F5165202F11C021268D1B207F5165202F12C021268D2B28A1AD1B27B4AD15407F5165303F12A031B88023307F51652B4
:404C400002F12A02138007F5165303F11C031B6807F5165202F12C02136034E033E007F5165303F12A031B886C4A5321D15407F5165303F12A031B88013307F5165202F13C
:404C80001C021268D1B207F5165202F12C021268D2B28A1AD1B2614AD15407F5165303F12A031B88023307F5165202F12A02138007F5165303F11C031B6807F5165202F199
:404CC0002C02136071E070E0534907F5165303F11C031A6813465B0013449B000B4408331B68042B0FD107F5165303F11C031B685A1C494913465B0013449B000B440833E7
:404D00001B68022B1ED0444907F5165303F11C031A6813465B0013449B000B4408331B68022B42D107F5165303F11C031B685A1C394913465B0013449B000B4408331B68B5
:404D4000042B32D107F5165303F12A031B88334A5521D15407F5165303F12A031B88013307F5165202F11C021268D1B207F5165202F12C021268D2B28A1AD1B2274AD154B1
:404D800007F5165303F12A031B88023307F5165202F12A02138007F5165303F11C031B6807F5165202F12C02136007F5165303F124031B68013307F5165202F12402136065
:404DC00007F5165303F11C031B68013307F5165202F11C02136007F5165303F11C031A6807F5165303F114031B689A42FEF6A8A807F5165303F12A031B88084A0021D154CE
:404E000007F5165303F12A031B88184607F516573437BD4690BD00BF448AFF1F1C87FF1FB0B5AAB004AF0023C7F894300023C7F890300023C7F88C3000F06EBC0023C7F807
:404E40009030D7F89430002B07D0B14B1B68B14A1360AF4B5B68AF4A5360AF4AD7F88C3052F83330AA4A1360AB4AD7F88C30DB0013445B68A64A5360A64B1D68A54B5C68AD
:404E8000A34B1968A24B5A68A44B1B68381D009101920293A2492A46234605F0D3FA3B1D184603F08DFD9A4B00939E489A499E4A984BFCF74DFD0346C7F88430D7F8843013
:404EC000C7F8883000F006BC9749D7F8882013465B0013449B000B4408331B68012B0CD09149D7F8882013465B0013449B000B4408331B68032B40F0FA818B49D7F888204F
:404F000013465B0013449B000B441A688648D7F888100B465B000B449B00034404331B68591E80481346DB0013445B0013440B4450F82330002B1FD07B49D7F8882013461A
:404F40005B0013449B000B441A687748D7F888100B465B000B449B00034404331B68591C70481346DB0013445B0013440B4450F82330002B40F060816B49D7F88820134642
:404F80005B0013449B000B4408331968D7F888305A1E654813465B0013449B00034408331B68994200F01F815F49D7F8882013465B0013449B000B4408331B68012B0CD1FC
:404FC000D7F888305A1E584913465B0013449B000B4408331B68042B18D05349D7F8882013465B0013449B000B4408331B68032B34D1D7F888305A1E4B4913465B001344B0
:405000009B000B4408331B68022B27D1474AD7F8943013444C221A70D7F894300133D7F88420D1B2D7F88820D2B28A1AD1B2D7F89020D2B28A1AD2B20132D1B23B4AD154C6
:40504000D7F894300233C7F89430D7F88420D7F88830D31A0133C7F89030C3E03249D7F8882013465B0013449B000B4408331B68012B0CD1D7F888305A1E2B4913465B00D3
:4050800013449B000B4408331B68022B18D02649D7F8882013465B0013449B000B4408331B68032B44D1D7F888305A1E1E4913465B0013449B000B4408331B68042B37D1B0
:4050C0001A4AD7F89430134452221A70D7F894300133D7F88420D1B2D7F88820D2B28A1AD1B2D7F89020D2B28A1AD2B20132D1B20E4AD154D7F894300233C7F89430D7F80D
:405100008420D7F88830D31A0133C7F8903069E07481FF1F6C81FF1FF085FF1F6881FF1F94AD00007C81FF1F448AFF1F1C87FF1FC749D7F8882013465B0013449B000B441E
:4051400008331B68012B0CD1D7F888305A1EC04913465B0013449B000B4408331B68032B18D0BB49D7F8882013465B0013449B000B4408331B68032B5DD1D7F888305A1E0E
:40518000B34913465B0013449B000B4408331B68012B50D1AF4AD7F89430134455221A70D7F894300133D7F88420D1B2D7F88820D2B28A1AD1B2D7F89020D2B28A1AD2B205
:4051C0000132D1B2A34AD154D7F894300233C7F89430D7F88420D7F88830D31A0133C7F8903028E027E09B4AD7F89430134453221A70D7F894300133D7F88420D1B2D7F899
:405200008820D2B28A1AD1B2D7F89020D2B28A1AD2B20132D1B28F4AD154D7F894300233C7F89430D7F88420D7F88830D31A0133C7F890305AE059E08549D7F88820134646
:405240005B0013449B000B4408331B68012B0CD1D7F888305A1E7E4913465B0013449B000B4408331B68032B18D07949D7F8882013465B0013449B000B4408331B68032B22
:4052800034D1D7F888305A1E714913465B0013449B000B4408331B68012B27D16D4AD7F89430134455221A70D7F894300133D7F88420D1B2D7F88820D2B28A1AD1B2D7F809
:4052C0009020D2B28A1AD2B20132D1B2614AD154D7F894300233C7F89430D7F88420D7F88830D31A0133C7F89030EEE1EDE15849D7F8882013465B0013449B000B441B68BA
:405300005A1E5348D7F888100B465B000B449B0003440433196850481346DB0013445B0013440B4450F82330002B1FD04849D7F8882013465B0013449B000B441B685A1C8F
:405340004348D7F888100B465B000B449B0003440433196840481346DB0013445B0013440B4450F82330002B40F056813849D7F8882013465B0013449B000B44083319681C
:40538000D7F888305A1E324813465B0013449B00034408331B68994200F015812C49D7F8882013465B0013449B000B4408331B68042B0CD1D7F888305A1E254913465B009C
:4053C00013449B000B4408331B68032B18D02049D7F8882013465B0013449B000B4408331B68022B3AD1D7F888305A1E184913465B0013449B000B4408331B68012B2DD190
:40540000144AD7F8943013444C221A70D7F894300133D7F88420D1B2D7F88820D2B28A1AD1B2D7F89020D2B28A1AD2B20132D1B2084AD154D7F894300233C7F89430D7F8DB
:405440008420D7F88830D31A0133C7F89030B9E0448AFF1F1C87FF1F7C81FF1FB549D7F8882013465B0013449B000B4408331B68042B0CD1D7F888305A1EAE4913465B0022
:4054800013449B000B4408331B68012B18D0A949D7F8882013465B0013449B000B4408331B68022B34D1D7F888305A1EA14913465B0013449B000B4408331B68032B27D1C9
:4054C0009D4AD7F89430134452221A70D7F894300133D7F88420D1B2D7F88820D2B28A1AD1B2D7F89020D2B28A1AD2B20132D1B2914AD154D7F894300233C7F89430D7F803
:405500008420D7F88830D31A0133C7F8903059E08849D7F8882013465B0013449B000B4408331B68042B0CD1D7F888305A1E814913465B0013449B000B4408331B68022BB7
:4055400018D07C49D7F8882013465B0013449B000B4408331B68022B5DD1D7F888305A1E744913465B0013449B000B4408331B68042B50D1704AD7F89430134455221A7095
:40558000D7F894300133D7F88420D1B2D7F88820D2B28A1AD1B2D7F89020D2B28A1AD2B20132D1B2644AD154D7F894300233C7F89430D7F88420D7F88830D31A0133C7F833
:4055C000903028E027E05C4AD7F89430134453221A70D7F894300133D7F88420D1B2D7F88820D2B28A1AD1B2D7F89020D2B28A1AD2B20132D1B2504AD154D7F89430023306
:40560000C7F89430D7F88420D7F88830D31A0133C7F8903059E058E04649D7F8882013465B0013449B000B4408331B68042B0CD1D7F888305A1E3F4913465B0013449B00EA
:405640000B4408331B68022B18D03A49D7F8882013465B0013449B000B4408331B68022B33D1D7F888305A1E324913465B0013449B000B4408331B68042B26D12E4AD7F890
:405680009430134455221A70D7F894300133D7F88420D1B2D7F88820D2B28A1AD1B2D7F89020D2B28A1AD2B20132D1B2224AD154D7F894300233C7F89430D7F88420D7F8F0
:4056C0008830D31A0133C7F89030D7F88830013BC7F88830D7F88830002B3FF7F5AB164AD7F89430134444221A70D7F894300133D7F88420D1B2D7F89020D2B28A1AD1B26F
:405700000D4AD154D7F894300233C7F89430D7F88C300133C7F88C30D7F88C20074B1B689A42FFF48BABD7F8943018469837BD46B0BD00BF448AFF1F1C87FF1F2086FF1FB3
:4057400080B400AFFEE700BF80B584B000AF78600F4B1A687B6813441A460E4BD31A802B09DC0B4B1B68FB60094B1A687B681344074A136007E004F025FE02460C23136076
:405780004FF0FF33FB60FB6818461037BD4680BD2886FF1FE0B1FF1F80B586B000AF224B7B61224B3B61204B7B6135E03B691B68FB603B695B68BB603B699B683B60002329
:4057C0007B600CE0FB681A68BB681A60BB680433BB60FB680433FB607B6804337B607A683B689A42EED13B69DB683B6000237B6008E0BB6800221A60BB680433BB607B6862
:4058000004337B607A683B689A42F2D13B6910333B617B69013B7B617B69002BC6D104F0D7FDFAF7C7FDFEE70100000014B0000080B582B000AF174B174A1A60174A174BD0
:405840001B6843F40073136000237B600FE07B68032B04D8124A7B6852F8233000E0114B11497A6841F822307B6801337B607B682F2BECD90D4B1B78DAB20D4B1A700D4B2A
:40588000094A1A6000F098F90B4B00221A600837BD4680BD0CED00E00004FA0514ED00E000000000415700000080FF1FBC7600400481FF1F08ED00E00081FF1F80B582B046
:4058C00000AF78603960786800213A6804F0B1FD0837BD4680BD00BF80B584B000AFF860B9607A60F868B9687A6804F097FD1037BD4680BD80B483B000AF0346FB71FEE780
:4059000080B487B000AF7860396000233B6100237B6127E07B699B007A6813441B68BB60BB68FB73BB6823F0FF03BB6014E03B695B003A6813441B781A46BB681344194625
:405940003B695B003A6813445B780B703B6901333B61FB7B013BFB73FB7B002BE7D17B6901337B617B69292BD4D91C37BD465DF8047B704780B582B000AF444B0F221A80CA
:40598000434B1B221A70434B81221A80424B18221A70424B04221A80414B18221A70414B3B221A80404B18221A70404B3B221A803F4B18221A703F4B00221A803E4B1B222B
:4059C0001A703E4B01221A803D4B1B221A703D4B41F287321A803C4B1B221A703B4B06221A703B4B52221A703A4B3B4A1278D2B21A703A4B40F619121A80394B41F2512224
:405A00001A800023FB7019237B6014E0FB785B00DAB2344B1B78DBB203F00103DBB21343DBB203F00303FB704FF4F07002F02CF97B68013B7B607B68002B02D0FB78032B3A
:405A4000E4D17B68002B02D10320FFF753FF264B4FF480721A80244B07221A70234B00221A70234B48221A701F4B00221A70214B00221A70204B02221A70204B1B781F4B98
:405A8000FF221A700837BD4680BD00BF80400040824000408440004086400040884000408A4000408C4000408E400040904000409240004094400040964000409840004061
:405AC0009A4000409C4000409E4000400043004000420040A14600400F0100492242004020420040254200400440004006400040084000400940004001400040A24300401F
:405B000080B582B000AF204B1B78FB711F4B1B78BB711F4B1B787B711E4AFB7903F00703DBB213701C4AFB791B09DBB21370174ABB7943F00303DBB21370154A7B7943F078
:405B40000303DBB21370154B08221A70144B40221A70144B40221A70134B80221A70134B20221A70124B80221A700A2002F0A8F8074A7B791370054ABB7913700D4B4422E0
:405B80001A700837BD4680BDCF010049F8460040F94600406E5800406F5800400D510040095900400B590040285B00402B5B0040585B00407658004080B586B000AF72B609
:405BC0004E4B61221A70FFF7D5FE4C4B01221A700023FB7513E0FA7D13465B0013445B00474A13443B613B691A683B699B889BB210461946FFF762FEFB7D0133FB75FB7D32
:405C0000062BE8D90023FB751CE0FA7D13469B0013445B003B4A1344FB60FB681B68BB60FB685B687B60FB681A7A5B7A1B0213437B807B88B86879681A46FFF74DFEFB7D36
:405C40000133FB75FB7D012BDFD94FF090402E49FFF756FE2D4A2D4B1B78DBB243F00203DBB213702A4A2A4B1B78DBB243F00203DBB21370274A274B1B78DBB243F0400333
:405C8000DBB21370244A244B1B78DBB243F01003DBB21370214822490822FFF71DFE214821490A22FFF718FE204821490A22FFF713FE204820490822FFF70EFE1F48204995
:405CC0000822FFF709FE1F481F490822FFF704FE1E4B44221A701E4A1D4B1B78DBB243F00803DBB21370FFF70BFF1A4809490E22FFF7F2FD1837BD4680BD00BF0048004056
:405D0000C0AD0000ECAD0000A80000480350014013500140A0430040C243004002510040C80F0048C0510040D00F0048F0510040DC0F004812510040E80F0048225100405A
:405D4000F00F004832510040F80F00485B02014022430040B043004080B582B000AF03460A46FB711346BB71084B1B78002B04D100F00EF8054B01221A70FA79BB791046DE
:405D8000194600F0D5F80837BD4680BDC8AFFF1F80B582B000AF01F07FFF0346FB71534A524B1B78DBB243F00103DBB21370504A4F4B1B78DBB243F00103DBB213704D4BA5
:405DC00001221A704C4B02221A704C4A4B4B1B78DBB203F07F03DBB21370002001F070FF474A474B1B78DBB223F00603DBB21370444A444B1B78DBB223F02003DBB213706E
:405E00003F4A3F4B1B78DBB243F00103DBB21370012001F055FF282001F052FF3A4A3A4B1B78DBB203F07F03DBB21370364A364B1B78DBB223F04003DBB21370304A304BCE
:405E40001B78DBB243F00203DBB21370022001F037FF2B4A2A4B1B78DBB243F00403DBB213702A4B00221A70294B00221A70FB79184601F015FF1720072101F05BFF172024
:405E8000244901F02FFF1820072101F053FF1820214901F027FF1520072101F04BFF15201E4901F01FFF0120072101F043FF01201B4901F017FF0220072101F03BFF022018
:405EC000184901F00FFF0320072101F033FF0320154901F007FF0C20072101F02BFF0C20124901F0FFFE0837BD4680BDA5430040B54300409D600040096000401060004003
:405F00009443004012600040F851004084600040856000406D6C00003D650000616C00005D6B0000B16B0000056C0000796C000080B582B000AF03460A46FB711346BB71A4
:405F40002E4AFB7913702E4B00221A702D4B00221A702D4B00221A702C4B00221A702C4B00221A702B4B00221A702B4B00221A702A4B4FF400021A60284B4FF080721A6069
:405F8000264B4FF400121A60244B02221A60234B04221A60214B08221A60BB79002B02D0012B09D011E01E4A1D4B1B78DBB223F00103DBB2137011E0194A194B1B78DBB260
:405FC00043F00103DBB2137008E0154A144B1B78DBB243F00103DBB2137000BF114B03221A70114B80221A70012001F04DFE0F4B04221A700837BD4680BD00BF1DB1FF1F6A
:4060000020B1FF1F3CB1FF1F3FB1FF1F34B1FF1F3EB1FF1F41B1FF1F1CB1FF1F00E100E00960004028600040086000401260004080B400AF0F4B00221A700F4B00221A70D2
:406040000E4B00221A700E4B00221A700D4B00221A700D4B00221A700C4B00221A700C4B03221A700B4B80221A70BD465DF8047B704700BF20B1FF1F3CB1FF1F3FB1FF1F2E
:4060800034B1FF1F3EB1FF1F41B1FF1F1CB1FF1F286000400860004080B400AF034B1B78DBB21846BD465DF8047B70473FB1FF1F80B483B000AF0346FB71FA790649134634
:4060C0005B0013449B000B445B78DBB218460C37BD465DF8047B704744B1FF1FB0B485B000AF03463960FB711346BB80FB79002B66D0FB79082B63D8B988FA7932481346FA
:406100005B0013449B000344DB889BB2C3F5007399420BD9FA792C4913465B0013449B000B44DB889BB2C3F50073BB80274CF979BB881B0A9BB2D8B2FA79234D13465B0083
:4061400013449B002B44DB78DBB20343DAB20B0123441A701D4AFB79B988C9B21B0113440A465A703B68002B13D00023FB810CE01748FB79FA8939680A4412781B0103447D
:4061800008331A70FB890133FB81FA89BB889A42EED3FA790C4913465B0013449B000B4400225A700948F979FA79074C13465B0013449B0023445B79DAB20B0103449A7087
:4061C0001437BD46B0BC704744B1FF1FFC5F00407060004090B482B000AF0346FB71FB79002B19D0FB79082B16D8FA790C4913465B0013449B000B4400225A700948F9790D
:40620000FA79074C13465B0013449B0023445B79DAB20B0103449A700837BD4690BC704744B1FF1FFC5F004080B582B000AF0023FB71324B1B79DBB2184600F069F80346A0
:40624000BB712E4B1B78DBB2DBB25BB2002B16DA2A4B5B78DBB2212B00D00FE0284B07221A80BA791346DB009B1A264A1344244A536000F0DDFA0346FB7100BF38E01F4BCD
:406280005B78DBB2202B02D0222B1AD030E01C4B07221A80BA791346DB009B1A194A1344174A5360BB79BA7917498A5CD2B242F00102D1B2144AD15400F03AFB0346FB71C0
:4062C00016E0BB790D4A9278D2B291B20F4A22F81310BB79BA790C498A5CD2B242F00202D1B2094AD15400F0BFFB0346FB7100BFFB7918460837BD4680BD00BF0060004091
:4063000028B1FF1F2C86FF1F04B1FF1F18B1FF1F80B485B000AF0346FB710023FB73FF23BB7317E0FB7B104AD35C7B737A7B0F4913465B0013449B000B4408339B78DBB22D
:40634000FA799A4203D1FB7BBB730223FB73FB7B0133FB73FB7B012BE4D9BB7B18461437BD465DF8047B70470CB1FF1F44B1FF1F80B582B000AF0023BB71224B00221A7073
:40638000214B00221A70204B00225A700023FB7110E0FB791D4AD35C7B717B79002B06D07B79082B03D87B791846FFF713FFFB790133FB71FB79012BEBD9154B1B78DBB2B0
:4063C000002B18D0114B1B78DBB2002B13D0114B1B78DBB2002B0ED00D4B1B78DBB2082B09D80A4B1B78DBB2082B04D8094B1B78DBB2082B01D90123BB71BB7918460837C9
:40640000BD4680BDC9AFFF1F04B1FF1F10B1FF1F08B1FF1F0CB1FF1F80B584B000AF78600B467B80144B1B781A46144B9B5CFB73FA7B134913465B0013449B000B440833CF
:406440001B889BB27A889A420CD9FA7B0C4913465B0013449B000B4408331B887B80002001F022FCFA7B7B88104679681A46FFF735FE1037BD4680BDC9AFFF1F08B1FF1F76
:4064800044B1FF1F80B500AF054B1B781A46054B9B5CDBB21846FFF70BFE0346184680BDC9AFFF1F08B1FF1F80B485B000AF78600B46FB701346BB707B68DB7803F00303C1
:4064C000FB737B689B78DBB25BB2002B1ADAFB7B032B0AD0BB7803F001031549FA78CA54BB7843F00103BB701BE0BB789B08DBB203F001030F49FA78CA54BB7843F00403AA
:40650000BB700EE0FB7B032B0BD0BB785B08DBB203F001030849FA78CA54BB7843F00203BB70BB7818461437BD465DF8047B704708B1FF1F0CB1FF1F10B1FF1F80B582B0D0
:4065400000AF374B1B78BB71BB7903F01003002B63D00123FB71BB795BB2002B13DABB7903F00F03012B02D00023FB711DE000F061F82C4B1B78DBB2DBB25BB2002B14DA54
:406580000023FB7111E0BB7903F04003002B02D000F094F809E0BB7903F02003002B02D000F0B2F801E00023FB71FB79002B34D01B4B1B78BB71BB795BB2002B2DDB1A4B9D
:4065C0001B78DAB2194B1B78DBB21343BB71184ABB791370164B1B78DBB2BA799A421CD1104B1B78FB710E4B1B78DBB223F07F03BB71BB79002B0AD1094B0A4A1278D2B25C
:406600001A70074B1B78DBB203F00F03FB71054B1B78DBB2FA799A42E2D10837BD4680BD286000403DB1FF1FB2B1FF1F40B1FF1F2960004080B582B000AF1D4B1B78FB7152
:406640001B4AFB7913701A4B1B78FB71FB795BB2002B03DA174AFB79137025E0022000F043FA154B1B78DBB203F06003202B08D0402B0BD0002B0ED100F004FB0346FB7138
:406680000CE002F0FDFD0346FB7107E001F0C0FA0346FB7102E00023FB7100BFFB79002B02D1044B03221A700837BD4680BD00BF286000403DB1FF1F0060004080B500AFD0
:4066C000104B1B78DBB2062B19D801A252F823F0FF660000FF660000ED660000FF660000F3660000FF660000F966000000F0FAF806E000F0A9F903E000F0D2F900E000BFC7
:4067000080BD00BF20B1FF1F80B500AF124B1B78DBB2062B1DD801A252F823F0536700005367000039670000536700003F670000536700004567000000F0DAF80AE000F071
:4067400029F907E0032000F0CFF9044B03221A7000E000BF80BD00BF20B1FF1F3DB1FF1F80B483B000AF0023FB71294B1B78DBB29AB2284B1B889BB213449AB2254B1A800C
:4067800015E02549FB79254A52681278D2B2CA54224B5B680133214A5360FB790133FB711E4B1B889BB2013B9AB21C4B1A801B4B1B889BB2002B02D0FB79072BE1D9144B23
:4067C0001B78DBB2082B02D0FB79002B0FD0144B1B78DBB283F07F03DB43DAB2104B1A70104B0F221A70104B02221A7005E00D4B02221A700C4B02221A700C4AFB79137097
:40680000034AFB7913700C37BD465DF8047B70471CB1FF1F1EB1FF1F0060004028B1FF1FB2B1FF1F3DB1FF1F20B1FF1F40B1FF1F80B582B000AF164B1B889BB2002B02D1E4
:4068400000F02EF81EE0134B02221A70124B00221A7000F069F9114BDB79DBB29BB21B029AB20E4B9B79DBB29BB21343FB80084B1B889BB2FA889A4202D2054AFB881380B8
:40688000FFF76EFF012318460837BD4680BD00BF28B1FF1F20B1FF1FB2B1FF1F0060004080B400AF0A4B02221A700A4B80221A70094B0F221A70094B00221A70084B0022C3
:4068C0001A7001231846BD465DF8047B704700BF20B1FF1FB2B1FF1F3DB1FF1F1CB1FF1F40B1FF1F80B500AFFFF73AFF80BD00BF80B500AF0A4B1B78DBB29AB2094B1B881E
:406900009BB213449AB2074B1A80074B00221A70012000F0E9F8054B03221A7080BD00BF1CB1FF1F1EB1FF1F20B1FF1F3DB1FF1F80B582B000AF124B04221A70114B80229C
:406940001A7000F0F1F8104BDB79DBB29BB21B029AB20D4B9B79DBB29BB21343FB800B4B1B889BB2FA889A4202D2084AFB881380074B0B221A70012318460837BD4680BDC1
:4069800020B1FF1FB2B1FF1F0060004028B1FF1F3DB1FF1F80B483B000AF0023BB71234B1B78DBB203F00F03DBB2023BFB71FB799AB21F4B1B889BB213449AB21C4B1A80D8
:4069C00018E01C4B5B681C49BA798A5CD2B21A70184B5B680133174A5360BB790133BB71FB79013BFB71134B1B889BB2013B9AB2104B1A800F4B1B889BB2002B02D0FB7945
:406A0000002BDED10D4AFB7913700D4B1B78DBB283F07F03DB43DAB2094B1A70094B0B221A700C37BD465DF8047B7047296000401EB1FF1F28B1FF1F0060004040B1FF1F01
:406A4000B2B1FF1F3DB1FF1F80B500AF044B00221A70012000F048F8024B03221A7080BD20B1FF1F3DB1FF1F80B400AF084B06221A70084B06221A70074B80221A70074B68
:406A800000221A7001231846BD465DF8047B704720B1FF1F3DB1FF1FB2B1FF1F40B1FF1F80B500AF0C4B1B78DBB2002B0AD00B4A094B1B78DBB263F07F03DBB21370064B30
:406AC00000221A70064B00221A70012000F00CF8044B03221A7080BD3EB1FF1F0860004020B1FF1F3DB1FF1F80B483B000AF0346FB710B4B9B68002B0CD0094B9B68FA79F8
:406B00001A70074B9B68074A128892B25A80044B00229A600C37BD465DF8047B704700BF28B1FF1F1EB1FF1F80B400AF094B00221A80094B9B68002B07D0074B9B680022CB
:406B40001A70054B9B6800225A80BD465DF8047B704700BF1EB1FF1F28B1FF1F80B400AF104A104B1B78DBB223F00103DBB213700D4B9B7C0D4B1B7BDBB203F00303012B1D
:406B800008D00A4BDB7BDBB283F07F03DB43DAB2064BDA73054B01225A73BD465DF8047B704700BF0B600040FC5F004044B1FF1F80B400AF104A104B1B78DBB223F00203D2
:406BC000DBB213700D4B93F822300D4B1B7EDBB203F00303012B08D0094BDB7EDBB283F07F03DB43DAB2064BDA76054B01225A76BD465DF8047B70470B600040FC5F004044
:406C000044B1FF1F80B400AF124A124B1B78DBB223F00403DBB213700F4B93F832300F4B93F82430DBB203F00303012B0AD00B4B93F82730DBB283F07F03DB43DAB2074B99
:406C400083F82720054B012283F82520BD465DF8047B70470B600040FC5F004044B1FF1F80B400AFBD465DF8047B704780B500AFFFF7DEF980BD00BF80B500AF00F0F2FF55
:406C800080BD00BF80B586B000AF0023FB759D4B1B78FB7100233B619B4B00221A80FB795BB2002B80F20481964B5B78DBB20A2B00F2FC8001A252F823F000BF056E00002A
:406CC000AD6E0000AD6E0000AD6E0000AD6E0000AD6E0000E96C0000AD6E0000776E0000AD6E00008D6E0000864BDB78DBB2012B0ED100F017FEB860BB685B68824A536064
:406D0000814B12221A80FFF793FD0346FB7578E07C4BDB78DBB2022B24D17A4B9B78DBB2184600F0D5FDB860BB68002B69D0BB685B68754A5360744B5B6803331B78DBB205
:406D40009BB21B029AB2704B5B6802331B78DBB29BB213439AB26C4B1A80FFF769FD0346FB75A4E0674BDB78DBB2032B44D10023FB73664B3B6109E03B691B78BB71BB797E
:406D80003A6913443B61FB7B0133FB735D4B9B78DBB2FA7B9A4204D23B691B78DBB2002BEAD1584B9B78DBB2EE2B01D1584B3B61544B9B78DBB2002B0BD0524B9B78DAB21E
:406DC000544B1B7C9A4204D1534800F0A1F9524B3B613B691B78DBB2002B12D03B691B78DBB29AB2484B1A80474A3B695360FFF71FFD0346FB755AE002F042FA0346FB756C
:406E000055E054E0FB7903F00303002B1FD0022B00D02FE03C4B02221A803A4B1B79DBB203F07F023D4913465B0013449B000B449B78DAB23A4B1A70394B00225A70324BE1
:406E4000374A5A60FFF7F4FC0346FB7512E02E4B02221A80334B1B78DAB2314B1A70304B00225A70284B2E4A5A60FFF7E1FC0346FB7500BF1BE0244B01221A80224B2A4A0D
:406E80005A60FFF7D5FC0346FB7510E01E4B01221A801C4B1B79DBB21A46244B13441A4A5360FFF7C5FC0346FB7500E000BF19E1144B5B78DBB2013B0A2B00F2128101A25C
:406EC00052F823F0CF6F0000E370000059700000E3700000F16E0000E3700000E3700000E3700000356F0000E37000008B6F0000044B9B78DAB20E4B1A70FFF7B5FD03467D
:406F0000FB75EFE00060004028B1FF1F6CAE000074AF000014AE0000B8B1FF1F44B1FF1FCCAFFF1F41B1FF1F3FB1FF1FB0B1FF1F3EB1FF1F6E4B9B787B717B79002B06D0F2
:406F40007B79013BDBB2184600F0C2FCB8607B79002B02D0BB68002B02D17B79002B13D1644B1B78DBB27A799A4208D0614A7B791370614B01221A70012000F0C1F9FFF769
:406F800073FD0346FB75ADE0ACE000F009FE0346002B1BD0564B1B793B71554B1B79DAB2564B1A703B79564AD35CDAB23B795549CB5CDBB29A4204D04F4B01221A7000F071
:406FC00069FBFFF751FD0346FB758BE08AE0FB7903F00303012B22D0012B0DD3022B00D039E0434B9B78DBB2002B04D100F040FD0346FB752FE02EE03D4B9B78DBB2012B29
:407000000CD1414B1B78DBB223F00203DAB23E4B1A70FFF729FD0346FB751CE01BE0344B1B79DBB2012B15D8314B9B78DBB2DB43DBB22F4A1279D2B211461046334A125CA4
:40704000D2B21340DAB2314B5A54FFF70DFD0346FB75FFE700BF45E0FB7903F00303012B22D0012B0DD3022B00D039E0204B9B78DBB2002B04D100F08DFC0346FB752FE007
:407080002EE01B4B9B78DBB2012B0CD11E4B1B78DBB243F00203DAB21B4B1A70FFF7E4FC0346FB751CE01BE0114B1B79DBB2012B15D80F4B9B78DBB2DB43DBB20C4A1279D4
:4070C000D2B211461046114A125CD2B21340DAB20E4B5A54FFF7C8FC0346FB75FFE700BF00E000BFFB7D18461837BD4680BD00BF006000403FB1FF1F3CB1FF1F34B1FF1F95
:4071000024B1FF1FB0B1FF1F41B1FF1FB4B1FF1FB0B58AB000AF7860314B07F114041D460FCD0FC42B682370002387F826307B68002B52D07B6822221A707B68013303224B
:407140001A7007F10C03184600F016FE022387F827303EE097F827307A68134497F8262007F128010A4412F81C2C1209D2B207F128010A4412F8142C1A7097F82730013352
:407180007A68134400221A7097F8273002337A68134497F8262007F128010A4412F81C2C02F00F0207F128010A4412F8142C1A7097F8273003337A68134400221A7097F82A
:4071C0002630013387F8263097F82730043387F8273097F82730212BBCD92837BD46B0BD00AE000090B482B000AF0123FB7174E03F4AFB791B0113440C221A70FA793D49CF
:4072000013465B0013449B000B445B79DBB2002B1AD0FA79374913465B0013449B000B441B79DBB2DBB25BB2002B06DA324AFB791B0113440C229A700CE02F4AFB791B01A5
