:4000000000800020110000000D0500000D05000080B500AF024A034B1B68136000F0A2FABC760040FA46004010B5054C237833B9044B13B10448AFF300800123237010BD57
:40004000E881FF1F00000000C8480000084B10B51BB108480849AFF300800848036803B910BD074B002BFBD0BDE81040184700BF00000000C8480000EC81FF1F0881FF1F61
:400080000000000080B483B000AF786039607B689AB2054B1A803B689AB2044B1A800C37BD465DF8047B70472282FF1F2482FF1F80B500AF00200021FFF7E4FF002002F061
:4000C00057FF002003F064F8034B00221A80034B00221A8080BD00BF2082FF1F1E82FF1F80B500AF00F0D0FD03461A46024B1A80024B01221A7080BDE082FF1F1682FF1F0F
:4001000080B500AF03F09EF803461A46084B1A8003F01EF903461A46064B1A80002003F0A3F8002003F026F9034B01221A7080BD1A82FF1F1C82FF1F1882FF1F80B500AFF4
:40014000FFF7B6FF80BD00BF80B500AF19201921FFF798FF80BD00BFB0B5A2B000AF8A4B1B78002B00F00D81874B00221A70874B1B881BB207F14002104685491A4603F010
:4001800091FF07F14003184600F08CF9814B1B881BB23A46104680491A4603F083FF3B46184600F07FF9794B1B88A7F88230794B1B88A7F880300123A7F886300123A7F800
:4001C0008430B7F98230002B03DB0123A7F8863003E04FF6FF73A7F88630B7F98030002B03DC0123A7F8843003E04FF6FF73A7F88430B7F9823083EAE372A2EBE372674BF2
:400200001B881BB29A420FDD07F14003184600F049F9634B1B889AB2B7F88630D31A9BB29AB25F4B1A8019E0B7F9823083EAE372A2EBE372594B1B881BB29A420EDA07F120
:400240004003184600F02EF9554B1B889AB2B7F8863013449BB29AB2514B1A80B7F9803083EAE372A2EBE3724E4B1B881BB29A4228DD3B464C4A1C4615460FCD0FC40FCD5F
:400280000FC495E803002060043421803B46184600F008F9454B1B889AB2B7F88430D31A9BB29AB2414B1A80404B1B881BB23A4610463F491A4603F0F5FE3B46184600F0C6
:4002C000F1F832E0B7F9803083EAE372A2EBE372344B1B881BB29A4227DA3B46354A1C4615460FCD0FC40FCD0FC495E803002060043421803B46184600F0D4F82B4B1B888B
:400300001BB23A4610462A491A4603F0CBFE3B46184600F0C7F8254B1B889AB2B7F8843013449BB29AB2214B1A80204B1B881BB2002B02DA1D4B00221A80194B1B881BB26B
:40034000002B02DA164B00221A80184B1B881BB2642B02DD154B64221A80114B1B881BB2642B02DD0E4B64221A800D4B1B88DBB2184602F0FDFD0D4B1B88DBB2184602F03B
:4003800007FF8837BD46B0BD1882FF1F1A82FF1FCC4800001C82FF1FE44800002282FF1F1E82FF1F2482FF1FFC4800002082FF1F244900004849000080B586B000AF194BD6
:4003C0001B78012B2BD1174B00221A70164B7B61164B1B881BB241F2883202FB03F3002B01DA03F6FF731B13184603F051FC03461846796903F0A0FC03461846194603F0F8
:4004000093FB0346184603F0E7FD03467B82B7F912303A46104606491A4603F043FE1837BD4680BD1682FF1FFED4783FE082FF1F7049000080B500AF62B602F0F7FC02F0E5
:4004400005FE00F03DFB134802F0B2FD00F00CFC02F0E2FE02F066FF0F4803F081F903F003FA0E4803F080FA0D4803F0CBFA0020012100F069FC00F007FE0346002B01D0DF
:4004800000F06EFF002003F05BF9FFF795FFFFF763FEFAE7E1000000010100003D0100004901000080B584B000AF7860154B1B78002B23D00023FB600AE0FB680133FB60F0
:4004C000FB68114A934203D10E4B00221A7015E000F0D0FF0346002BEFD07B683F3300221A707B683E3321221A70786803F0FEFD03469BB27868194600F086FF1037BD4625
:4005000080BD00BF0D81FF1FC0C62D0080B400AFFEE700BF80B584B000AF78600F4B1A687B6813441A460E4BD31A802B09DC0B4B1B68FB60094B1A687B681344074A136095
:4005400007E003F06FFD02460C2313604FF0FF33FB60FB6818461037BD4680BD5081FF1F1084FF1F80B586B000AF224B7B61224B3B61204B7B6135E03B691B68FB603B69A8
:400580005B68BB603B699B683B6000237B600CE0FB681A68BB681A60BB680433BB60FB680433FB607B6804337B607A683B689A42EED13B69DB683B6000237B6008E0BB68A5
:4005C00000221A60BB680433BB607B6804337B607A683B689A42F2D13B6910333B617B69013B7B617B69002BC6D103F021FDFFF721FFFEE701000000C44B000080B582B029
:4006000000AF174B174A1A60174A174B1B6843F40073136000237B600FE07B68032B04D8124A7B6852F8233000E0114B11497A6841F822307B6801337B607B682F2BECD9BE
:400640000D4B1B78DAB20D4B1A700D4B094A1A6000F086F90B4B00221A600837BD4680BD0CED00E00004FA0514ED00E0000000000D0500000080FF1FBC7600400481FF1F9A
:4006800008ED00E00081FF1F80B582B000AF78603960786800213A6803F0FBFC0837BD4680BD00BF80B584B000AFF860B9607A60F868B9687A6803F0E1FC1037BD4680BD57
:4006C00080B483B000AF0346FB71FEE780B487B000AF7860396000233B6100237B6127E07B699B007A6813441B68BB60BB68FB73BB6823F0FF03BB6014E03B695B003A682B
:4007000013441B781A46BB68134419463B695B003A6813445B780B703B6901333B61FB7B013BFB73FB7B002BE7D17B6901337B617B69272BD4D91C37BD465DF8047B7047AB
:4007400080B582B000AF3F4B0F221A803E4B1B221A703E4B04221A803D4B18221A703D4B3B221A803C4B18221A703C4B3B221A803B4B18221A703B4B81221A803A4B182215
:400780001A703A4B00221A80394B1B221A70394B06221A70384B52221A70384B384A1278D2B21A70374B40F619121A80364B41F251221A800023FB7019237B6014E0FB7885
:4007C0005B00DAB2314B1B78DBB203F00103DBB21343DBB203F00303FB704FF4F07002F04BFA7B68013B7B607B68002B02D0FB78032BE4D17B68002B02D10320FFF760FF48
:40080000234B4FF480721A80214B07221A70214B00221A70204B48221A701D4B00221A701E4B00221A701E4B02221A701D4A1D4B1B78DBB243F03F03DBB213700837BD46EF
:4008400080BD00BF80400040824000408440004086400040884000408A4000408C4000408E400040904000409240004094400040964000400043004000420040A1460040CC
:400880000F0100492242004020420040254200400440004006400040084000400940004001400040A243004080B582B000AF204B1B78FB711F4B1B78BB711F4B1B787B719F
:4008C0001E4AFB7903F00703DBB213701C4AFB791B09DBB21370174ABB7943F00303DBB21370154A7B7943F00303DBB21370154B20221A70144B40221A70144B40221A70C5
:40090000134B20221A70134B20221A70124B20221A700A2002F0CCF9074A7B791370054ABB7913700D4B44221A700837BD4680BDCF010049F8460040F94600406E580040A8
:400940006F5800400D510040095900400B590040285B00402B5B0040585B00407658004080B582B000AF72B63F4B61221A70FFF7E7FE3D4B01221A703C4A3C4B1B78DBB2F0
:4009800043F00403DBB213700023FB7113E0FA7913465B0013445B00354A13443B603B681A683B689B889BB210461946FFF76CFEFB790133FB71FB79072BE8D94FF090404A
:4009C0002C49FFF783FE2C4A2B4B1B78DBB243F00203DBB21370294A284B1B78DBB243F00203DBB21370264A254B1B78DBB243F04003DBB21370234A224B1B78DBB243F0B6
:400A00001003DBB21370204820490822FFF74AFE1F4820490822FFF745FE1F481F490A22FFF740FE1E481F490A22FFF73BFE1E481E490822FFF736FE1D4B44221A701D4BEE
:400A4000C4221A701C4A1C4B1B78DBB243F00803DBB21370FFF728FF184809490E22FFF721FE0837BD4680BD00480040E846004088490000A0000048035001401350014051
:400A8000A0430040C243004002510040C80C0048C2510040D00C0048F0510040D80C004820510040E40C004832510040F00C00485B000140DB16014022430040B043004065
:400AC00080B500AF054B1B78002B04D100F008F8024B01221A7000F025F880BD2682FF1F80B500AF102002F025FF0020072102F019F90020084902F0EDF8084A074B1B7840
:400B0000DBB243F00603DBB213700C2000F084F8034B00221A8080BD3D0D0000095900403083FF1F80B582B000AF02F0ADF80346FB712E4A2D4B1B78DBB243F00203DBB209
:400B400013702B4A2A4B1B78DBB243F00203DBB21370284A274B1B78DBB243F00403DBB21370254A244B1B78DBB243F00403DBB21370224B1B78BB71BB7943F00203BB7146
:400B8000BB7943F00103BB711C4ABB7913701C4B04221A701B4A1B4B1B78DBB243F04003DBB21370174A174B1B78DBB223F00303DBB21370144BC8221A70144B02221A700D
:400BC000134A134B1B78DBB243F00803DBB213700A2002F06DF80F4B01221A60FB79184602F056F80837BD4680BD00BFAB430040BB430040A2430040B24300400B5900409A
:400C00000E5900400D59004008590040164600402F5B004080E200E080B584B000AF0346FB71FB790A2B07D00C2B02D0082B06D008E0C423FB730BE08423FB7308E0442333
:400C4000FB7305E0C423FB73002002F025F800BF044AFB7B1370FB79184600F02FF81037BD4680BD0A59004080B400AF054A054B1B78DBB243F00103DBB21370BD465DF843
:400C8000047B70470859004080B483B000AF094B1B88FB80084B1B889BB29BB2FA88D31A9BB29BB21BB218460C37BD465DF8047B704700BFA25B00402C83FF1F80B584B00E
:400CC00000AF0346FB71FB790A2B08D00C2B02D0082B08D00BE04FF48053FB600DE04FF48063FB6009E04FF48073FB6005E00023FB60002001F0D0FF00BF0C4B00221A80A2
:400D0000FB6842F2107202FB03F303F6C413084A82FB0312D212DB17D31A064A1360064B00221A801037BD4680BD00BF2E83FF1FAD8BDB682883FF1F2C83FF1F80B400AF57
:400D4000BD465DF8047B704780B582B000AF03460A46FB711346BB71084B1B78002B04D100F00EF8054B01221A70FA79BB791046194600F0D5F80837BD4680BD2782FF1F0D
:400D800080B582B000AF01F07FFF0346FB71534A524B1B78DBB243F00103DBB21370504A4F4B1B78DBB243F00103DBB213704D4B01221A704C4B02221A704C4A4B4B1B7874
:400DC000DBB203F07F03DBB21370002001F070FF474A474B1B78DBB223F00603DBB21370444A444B1B78DBB223F02003DBB213703F4A3F4B1B78DBB243F00103DBB21370F5
:400E0000012001F055FF282001F052FF3A4A3A4B1B78DBB203F07F03DBB21370364A364B1B78DBB223F04003DBB21370304A304B1B78DBB243F00203DBB21370022001F01D
:400E400037FF2B4A2A4B1B78DBB243F00403DBB213702A4B00221A70294B00221A70FB79184601F015FF1720072101F05BFF1720244901F02FFF1820072101F053FF182088
:400E8000214901F027FF1520072101F04BFF15201E4901F01FFF0120072101F043FF01201B4901F017FF0220072101F03BFF0220184901F00FFF0320072101F033FF0320DE
:400EC000154901F007FF0C20072101F02BFF0C20124901F0FFFE0837BD4680BDA5430040B54300409D60004009600040106000409443004012600040F851004084600040CE
:400F0000856000405D1C00002D150000511C00004D1B0000A11B0000F51B0000691C000080B582B000AF03460A46FB711346BB712E4AFB7913702E4B00221A702D4B0022DD
:400F40001A702D4B00221A702C4B00221A702C4B00221A702B4B00221A702B4B00221A702A4B4FF400021A60284B4FF080721A60264B4FF400121A60244B02221A60234B2C
:400F800004221A60214B08221A60BB79002B02D0012B09D011E01E4A1D4B1B78DBB223F00103DBB2137011E0194A194B1B78DBB243F00103DBB2137008E0154A144B1B78EB
:400FC000DBB243F00103DBB2137000BF114B03221A70114B80221A70012001F04DFE0F4B04221A700837BD4680BD00BF4D83FF1F5083FF1F6C83FF1F6F83FF1F6483FF1F25
:401000006E83FF1F7183FF1F4C83FF1F00E100E00960004028600040086000401260004080B400AF0F4B00221A700F4B00221A700E4B00221A700E4B00221A700D4B0022A3
:401040001A700D4B00221A700C4B00221A700C4B03221A700B4B80221A70BD465DF8047B704700BF5083FF1F6C83FF1F6F83FF1F6483FF1F6E83FF1F7183FF1F4C83FF1FE9
:40108000286000400860004080B400AF034B1B78DBB21846BD465DF8047B70476F83FF1F80B483B000AF0346FB71FA79064913465B0013449B000B445B78DBB218460C37F0
:4010C000BD465DF8047B70477483FF1FB0B485B000AF03463960FB711346BB80FB79002B66D0FB79082B63D8B988FA79324813465B0013449B000344DB889BB2C3F5007376
:4011000099420BD9FA792C4913465B0013449B000B44DB889BB2C3F50073BB80274CF979BB881B0A9BB2D8B2FA79234D13465B0013449B002B44DB78DBB20343DAB20B0123
:4011400023441A701D4AFB79B988C9B21B0113440A465A703B68002B13D00023FB810CE01748FB79FA8939680A4412781B01034408331A70FB890133FB81FA89BB889A4251
:40118000EED3FA790C4913465B0013449B000B4400225A700948F979FA79074C13465B0013449B0023445B79DAB20B0103449A701437BD46B0BC70477483FF1FFC5F004051
:4011C0007060004090B482B000AF0346FB71FB79002B19D0FB79082B16D8FA790C4913465B0013449B000B4400225A700948F979FA79074C13465B0013449B0023445B79D5
:40120000DAB20B0103449A700837BD4690BC70477483FF1FFC5F004080B582B000AF0023FB71324B1B79DBB2184600F069F80346BB712E4B1B78DBB2DBB25BB2002B16DA1B
:401240002A4B5B78DBB2212B00D00FE0284B07221A80BA791346DB009B1A264A1344244A536000F0DDFA0346FB7100BF38E01F4B5B78DBB2202B02D0222B1AD030E01C4B6C
:4012800007221A80BA791346DB009B1A194A1344174A5360BB79BA7917498A5CD2B242F00102D1B2144AD15400F03AFB0346FB7116E0BB790D4A9278D2B291B20F4A22F876
:4012C0001310BB79BA790C498A5CD2B242F00202D1B2094AD15400F0BFFB0346FB7100BFFB7918460837BD4680BD00BF006000405883FF1F5481FF1F3483FF1F4883FF1FFC
:4013000080B485B000AF0346FB710023FB73FF23BB7317E0FB7B104AD35C7B737A7B0F4913465B0013449B000B4408339B78DBB2FA799A4203D1FB7BBB730223FB73FB7B2E
:401340000133FB73FB7B012BE4D9BB7B18461437BD465DF8047B70473C83FF1F7483FF1F80B582B000AF0023BB71224B00221A70214B00221A70204B00225A700023FB7191
:4013800010E0FB791D4AD35C7B717B79002B06D07B79082B03D87B791846FFF713FFFB790133FB71FB79012BEBD9154B1B78DBB2002B18D0114B1B78DBB2002B13D0114B05
:4013C0001B78DBB2002B0ED00D4B1B78DBB2082B09D80A4B1B78DBB2082B04D8094B1B78DBB2082B01D90123BB71BB7918460837BD4680BD2882FF1F3483FF1F4083FF1F54
:401400003883FF1F3C83FF1F80B584B000AF78600B467B80144B1B781A46144B9B5CFB73FA7B134913465B0013449B000B4408331B889BB27A889A420CD9FA7B0C491346CD
:401440005B0013449B000B4408331B887B80002001F022FCFA7B7B88104679681A46FFF735FE1037BD4680BD2882FF1F3883FF1F7483FF1F80B500AF054B1B781A46054BDC
:401480009B5CDBB21846FFF70BFE0346184680BD2882FF1F3883FF1F80B485B000AF78600B46FB701346BB707B68DB7803F00303FB737B689B78DBB25BB2002B1ADAFB7BD4
:4014C000032B0AD0BB7803F001031549FA78CA54BB7843F00103BB701BE0BB789B08DBB203F001030F49FA78CA54BB7843F00403BB700EE0FB7B032B0BD0BB785B08DBB2D2
:4015000003F001030849FA78CA54BB7843F00203BB70BB7818461437BD465DF8047B70473883FF1F3C83FF1F4083FF1F80B582B000AF374B1B78BB71BB7903F01003002B80
:4015400063D00123FB71BB795BB2002B13DABB7903F00F03012B02D00023FB711DE000F061F82C4B1B78DBB2DBB25BB2002B14DA0023FB7111E0BB7903F04003002B02D012
:4015800000F094F809E0BB7903F02003002B02D000F0B2F801E00023FB71FB79002B34D01B4B1B78BB71BB795BB2002B2DDB1A4B1B78DAB2194B1B78DBB21343BB71184A4D
:4015C000BB791370164B1B78DBB2BA799A421CD1104B1B78FB710E4B1B78DBB223F07F03BB71BB79002B0AD1094B0A4A1278D2B21A70074B1B78DBB203F00F03FB71054B76
:401600001B78DBB2FA799A42E2D10837BD4680BD286000406D83FF1FE283FF1F7083FF1F2960004080B582B000AF1D4B1B78FB711B4AFB7913701A4B1B78FB71FB795BB218
:40164000002B03DA174AFB79137025E0022000F043FA154B1B78DBB203F06003202B08D0402B0BD0002B0ED100F004FB0346FB710CE002F015FA0346FB7107E001F0C0FA95
:401680000346FB7102E00023FB7100BFFB79002B02D1044B03221A700837BD4680BD00BF286000406D83FF1F0060004080B500AF104B1B78DBB2062B19D801A252F823F0A0
:4016C000EF160000EF160000DD160000EF160000E3160000EF160000E916000000F0FAF806E000F0A9F903E000F0D2F900E000BF80BD00BF5083FF1F80B500AF124B1B7893
:40170000DBB2062B1DD801A252F823F0431700004317000029170000431700002F170000431700003517000000F0DAF80AE000F029F907E0032000F0CFF9044B03221A703E
:4017400000E000BF80BD00BF5083FF1F6D83FF1F80B483B000AF0023FB71294B1B78DBB29AB2284B1B889BB213449AB2254B1A8015E02549FB79254A52681278D2B2CA540E
:40178000224B5B680133214A5360FB790133FB711E4B1B889BB2013B9AB21C4B1A801B4B1B889BB2002B02D0FB79072BE1D9144B1B78DBB2082B02D0FB79002B0FD0144B9D
:4017C0001B78DBB283F07F03DB43DAB2104B1A70104B0F221A70104B02221A7005E00D4B02221A700C4B02221A700C4AFB791370034AFB7913700C37BD465DF8047B7047D4
:401800004C83FF1F4E83FF1F006000405883FF1FE283FF1F6D83FF1F5083FF1F7083FF1F80B582B000AF164B1B889BB2002B02D100F02EF81EE0134B02221A70124B00229C
:401840001A7000F069F9114BDB79DBB29BB21B029AB20E4B9B79DBB29BB21343FB80084B1B889BB2FA889A4202D2054AFB881380FFF76EFF012318460837BD4680BD00BF84
:401880005883FF1F5083FF1FE283FF1F0060004080B400AF0A4B02221A700A4B80221A70094B0F221A70094B00221A70084B00221A7001231846BD465DF8047B704700BFD7
:4018C0005083FF1FE283FF1F6D83FF1F4C83FF1F7083FF1F80B500AFFFF73AFF80BD00BF80B500AF0A4B1B78DBB29AB2094B1B889BB213449AB2074B1A80074B00221A70E3
:40190000012000F0E9F8054B03221A7080BD00BF4C83FF1F4E83FF1F5083FF1F6D83FF1F80B582B000AF124B04221A70114B80221A7000F0F1F8104BDB79DBB29BB21B02B5
:401940009AB20D4B9B79DBB29BB21343FB800B4B1B889BB2FA889A4202D2084AFB881380074B0B221A70012318460837BD4680BD5083FF1FE283FF1F006000405883FF1F0D
:401980006D83FF1F80B483B000AF0023BB71234B1B78DBB203F00F03DBB2023BFB71FB799AB21F4B1B889BB213449AB21C4B1A8018E01C4B5B681C49BA798A5CD2B21A707F
:4019C000184B5B680133174A5360BB790133BB71FB79013BFB71134B1B889BB2013B9AB2104B1A800F4B1B889BB2002B02D0FB79002BDED10D4AFB7913700D4B1B78DBB2A3
:401A000083F07F03DB43DAB2094B1A70094B0B221A700C37BD465DF8047B7047296000404E83FF1F5883FF1F006000407083FF1FE283FF1F6D83FF1F80B500AF044B002205
:401A40001A70012000F048F8024B03221A7080BD5083FF1F6D83FF1F80B400AF084B06221A70084B06221A70074B80221A70074B00221A7001231846BD465DF8047B7047DA
:401A80005083FF1F6D83FF1FE283FF1F7083FF1F80B500AF0C4B1B78DBB2002B0AD00B4A094B1B78DBB263F07F03DBB21370064B00221A70064B00221A70012000F00CF876
:401AC000044B03221A7080BD6E83FF1F086000405083FF1F6D83FF1F80B483B000AF0346FB710B4B9B68002B0CD0094B9B68FA791A70074B9B68074A128892B25A80044BC9
:401B000000229A600C37BD465DF8047B704700BF5883FF1F4E83FF1F80B400AF094B00221A80094B9B68002B07D0074B9B6800221A70054B9B6800225A80BD465DF8047B9E
:401B4000704700BF4E83FF1F5883FF1F80B400AF104A104B1B78DBB223F00103DBB213700D4B9B7C0D4B1B7BDBB203F00303012B08D00A4BDB7BDBB283F07F03DB43DAB26A
:401B8000064BDA73054B01225A73BD465DF8047B704700BF0B600040FC5F00407483FF1F80B400AF104A104B1B78DBB223F00203DBB213700D4B93F822300D4B1B7EDBB20C
:401BC00003F00303012B08D0094BDB7EDBB283F07F03DB43DAB2064BDA76054B01225A76BD465DF8047B70470B600040FC5F00407483FF1F80B400AF124A124B1B78DBB286
:401C000023F00403DBB213700F4B93F832300F4B93F82430DBB203F00303012B0AD00B4B93F82730DBB283F07F03DB43DAB2074B83F82720054B012283F82520BD465DF86B
:401C4000047B70470B600040FC5F00407483FF1F80B400AFBD465DF8047B704780B500AFFFF7DEF980BD00BF80B500AF00F0F2FF80BD00BF80B586B000AF0023FB759D4B5F
:401C80001B78FB7100233B619B4B00221A80FB795BB2002B80F20481964B5B78DBB20A2B00F2FC8001A252F823F000BFF51D00009D1E00009D1E00009D1E00009D1E000080
:401CC0009D1E0000D91C00009D1E0000671E00009D1E00007D1E0000864BDB78DBB2012B0ED100F017FEB860BB685B68824A5360814B12221A80FFF793FD0346FB7578E02F
:401D00007C4BDB78DBB2022B24D17A4B9B78DBB2184600F0D5FDB860BB68002B69D0BB685B68754A5360744B5B6803331B78DBB29BB21B029AB2704B5B6802331B78DBB2FD
:401D40009BB213439AB26C4B1A80FFF769FD0346FB75A4E0674BDB78DBB2032B44D10023FB73664B3B6109E03B691B78BB71BB793A6913443B61FB7B0133FB735D4B9B78EE
:401D8000DBB2FA7B9A4204D23B691B78DBB2002BEAD1584B9B78DBB2EE2B01D1584B3B61544B9B78DBB2002B0BD0524B9B78DAB2544B1B7C9A4204D1534800F0A1F9524B2E
:401DC0003B613B691B78DBB2002B12D03B691B78DBB29AB2484B1A80474A3B695360FFF71FFD0346FB755AE001F05AFE0346FB7555E054E0FB7903F00303002B1FD0022B2D
:401E000000D02FE03C4B02221A803A4B1B79DBB203F07F023D4913465B0013449B000B449B78DAB23A4B1A70394B00225A70324B374A5A60FFF7F4FC0346FB7512E02E4B09
:401E400002221A80334B1B78DAB2314B1A70304B00225A70284B2E4A5A60FFF7E1FC0346FB7500BF1BE0244B01221A80224B2A4A5A60FFF7D5FC0346FB7510E01E4B0122EC
:401E80001A801C4B1B79DBB21A46244B13441A4A5360FFF7C5FC0346FB7500E000BF19E1144B5B78DBB2013B0A2B00F2128101A252F823F0BF1F0000D320000049200000CB
:401EC000D3200000E11E0000D3200000D3200000D3200000251F0000D32000007B1F0000044B9B78DAB20E4B1A70FFF7B5FD0346FB75EFE0006000405883FF1F244A00003E
:401F00002C4B0000CC490000E883FF1F7483FF1F2C82FF1F7183FF1F6F83FF1FE083FF1F6E83FF1F6E4B9B787B717B79002B06D07B79013BDBB2184600F0C2FCB8607B7977
:401F4000002B02D0BB68002B02D17B79002B13D1644B1B78DBB27A799A4208D0614A7B791370614B01221A70012000F0C1F9FFF773FD0346FB75ADE0ACE000F009FE03460C
:401F8000002B1BD0564B1B793B71554B1B79DAB2564B1A703B79564AD35CDAB23B795549CB5CDBB29A4204D04F4B01221A7000F069FBFFF751FD0346FB758BE08AE0FB7999
:401FC00003F00303012B22D0012B0DD3022B00D039E0434B9B78DBB2002B04D100F040FD0346FB752FE02EE03D4B9B78DBB2012B0CD1414B1B78DBB223F00203DAB23E4B6D
:402000001A70FFF729FD0346FB751CE01BE0344B1B79DBB2012B15D8314B9B78DBB2DB43DBB22F4A1279D2B211461046334A125CD2B21340DAB2314B5A54FFF70DFD0346D4
:40204000FB75FFE700BF45E0FB7903F00303012B22D0012B0DD3022B00D039E0204B9B78DBB2002B04D100F08DFC0346FB752FE02EE01B4B9B78DBB2012B0CD11E4B1B7814
:40208000DBB243F00203DAB21B4B1A70FFF7E4FC0346FB751CE01BE0114B1B79DBB2012B15D80F4B9B78DBB2DB43DBB20C4A1279D2B211461046114A125CD2B21340DAB2E0
:4020C0000E4B5A54FFF7C8FC0346FB75FFE700BF00E000BFFB7D18461837BD4680BD00BF006000406F83FF1F6C83FF1F6483FF1F5483FF1FE083FF1F7183FF1FE483FF1F2F
:40210000B0B58AB000AF7860314B07F114041D460FCD0FC42B682370002387F826307B68002B52D07B6822221A707B68013303221A7007F10C03184600F016FE022387F809
:4021400027303EE097F827307A68134497F8262007F128010A4412F81C2C1209D2B207F128010A4412F8142C1A7097F8273001337A68134400221A7097F8273002337A6857
:40218000134497F8262007F128010A4412F81C2C02F00F0207F128010A4412F8142C1A7097F8273003337A68134400221A7097F82630013387F8263097F82730043387F861
:4021C000273097F82730212BBCD92837BD46B0BDB849000090B482B000AF0123FB7174E03F4AFB791B0113440C221A70FA793D4913465B0013449B000B445B79DBB2002B46
:402200001AD0FA79374913465B0013449B000B441B79DBB2DBB25BB2002B06DA324AFB791B0113440C229A700CE02F4AFB791B01134408229A7005E02B4AFB791B011344AA
:4022400080229A702648F979FA79264C13465B0013449B002344DB889BB2DAB20B0103449A711F48F979FA791E4C13465B0013449B002344DB889BB21B0A9BB2DAB20B01C9
:402280000344DA711648F979FA79164C13465B0013449B002344DB889BB2DAB20B0103441A710F48F979FA790E4C13465B0013449B002344DB889BB21B0A9BB2DAB20B0163
:4022C00003445A71FB790133FB71FB79082B87D9064BFF221A700837BD4690BC704700BF706000407483FF1FFC5F00400A60004080B58AB000AF0346FB7100237B8400232F
:4023000087F827304CE097F82720C44913465B0013449B000B4400221A7097F82720BF4913465B0013449B000B4400229A7097F82720BA4913465B0013449B000B44002228
:40234000DA7097F82720B54913465B0013449B000B44083300221A8097F82720AF4913465B0013449B000B44083300229A7097F82720AA4913465B0013449B000B44002249
:402380005A7097F82720A54913465B0013449B000B4400225A7197F82730013387F8273097F82730082BAED9FB79002B16D0002387F825300EE097F82530994A0021D154A6
:4023C00097F82530974A0021D15497F82530013387F8253097F82530012BECD9924B1B78DBB2002B00F049810023FB768E4B1B78DBB2013BDBB2184600F062FA78617B6972
:402400005B683B613B6907331B7803F04003002B08D0864B1B78DBB243F00103DAB2834B1A7007E0814B1B78DBB223F00103DAB27E4B1A707B6908337B617B691B7887F8CD
:402440002730012387F82530B3E07B695B68FB61002387F82630A0E097F82520FB699B7803F07F039A4240F0908097F825206B4913465B0013449B000B4408331B889AB27C
:40248000FB699B889A420CD297F82520FB699888624913465B0013449B000B44083302461A80FB691B781A465D4B9B5CDAB2FB695B789A4269D197F82520FB69987857490F
:4024C00013465B0013449B000B4402461A7197F82520FB69D878514913465B0013449B000B4402461A70FB69DB7803F00303FB73FB699B78DBB25BB2002B1ADA97F8252009
:40250000FB7B012B01D1072000E00D20434913465B0013449B000B4402465A7197F825203E4913465B0013449B000B4401225A7019E097F82520FB7B012B01D1052000E0DC
:402540000920364913465B0013449B000B4402465A7197F82520314913465B0013449B000B4400225A70FB699B790A2B03D0FB699B79022B09D197F82520FB7EF869114678
:402580001A46FEF789FF0346FB76FB690833FB6197F82630013387F8263097F8262097F827309A42FFF458AF97F82530013387F8253097F82530082B7FF647AF7B695B68F5
:4025C000FB61002387F8253016E0FB699B7803F07F02FB691878114913465B0013449B000B44083302469A70FB690833FB6197F82530013387F8253097F8252097F8273036
:402600009A42E2D300F098F90246094B1A6000237B84012387F8273029E000BF7483FF1FE083FF1F5483FF1F6F83FF1F7183FF1F6883FF1F97F82720114913465B0013449D
:402640009B000B447A8CDA8097F827200C4913465B0013449B000B4408331B889AB27B8C13447B8497F82730013387F8273097F82730082BDED9FFF7ADFD2837BD4680BD6A
:402680007483FF1F90B585B000AF874B1B78DBB2002B00F00681844B1B78DBB2013BDBB2184600F00DF978607B6808337B607B681B78FB707B685B68BB607C4B1B78BB7044
:4026C0000023FB73E8E0BB681B78BA789A4240F0DD80BB78764AD35CDAB2BB685B789A4240F0D480BB689B7803F07F037B70BB68DB7803F003033B707A786E4913465B001F
:4027000013449B000B440022DA707A78BB689878684913465B0013449B000B4402461A717A78BB68D878634913465B0013449B000B4402461A707A78BB6898885D49134642
:402740005B0013449B000B44083302461A80BB689B78DBB25BB2002B18DA7A783B78012B01D1072000E00D20524913465B0013449B000B4402465A717A784E4913465B00FC
:4027800013449B000B4401225A7017E07A783B78012B01D1052000E00920464913465B0013449B000B4402465A717A78414913465B0013449B000B4400225A703E4A7B78B4
:4027C0001B01134401229A703B4879787A78394C13465B0013449B00234408331B889BB21B0A9BB2DAB20B0103441A70324879787A78304C13465B0013449B00234408331A
:402800001B889BB2DAB20B0103445A702B4879787A78284C13465B0013449B002344DB889BB2DAB20B0103449A71244879787A78204C13465B0013449B002344DB889BB216
:402840001B0A9BB2DAB20B010344DA711B4879787A78184C13465B0013449B002344DB889BB2DAB20B0103441A71144879787A78104C13465B0013449B002344DB889BB293
:402880001B0A9BB2DAB20B0103445A71BB680833BB60FB7B0133FB73FA7BFB789A42FFF412AF1437BD4690BD6F83FF1F6483FF1FE083FF1F7483FF1FFC5F00407060004002
:4028C00080B485B000AF0346FB71104B1B78DBB20F4ADB0013445B68FB60FB681033FB60FB681B78FA799A4202D30023FB6005E0FB79DB00FA6813445B68FB60FB68184682
:402900001437BD465DF8047B704700BF4D83FF1F244B000080B400AF054B1B78DBB2054ADB0013445B681846BD465DF8047B70474D83FF1F244B000080B584B000AF104B4F
:402940001B78DBB2013BDBB21846FFF7B9FFB860BB68002B0DD0BB685B681B79FB71FB790233DB00BA681344BB60BB685B68FB6001E00023FB60FB6818461037BD4680BD39
:402980006F83FF1F80B582B000AF0023FB71314B1B79DBB203F07F03BB71BB79002B53D0BB79082B50D8BA79B9792B480B465B000B449B0003449B78DBB243F00103D8B2FD
:4029C000254913465B0013449B000B4402469A70BA79214913465B0013449B000B440022DA70BA79B9791C480B465B000B449B0003445B78DBB243F00203D8B216491346A4
:402A00005B0013449B000B4402465A70BA79124913465B0013449B000B441B79DBB2DBB25BB2002B06DA0D4ABB791B0113448D229A7005E0094ABB791B01134489229A7054
:402A4000FFF70AF80346FB71FB7918460837BD4680BD00BF006000407483FF1FFC5F004080B582B000AF0023FB71464B1B79DBB203F07F03BB71BB79002B7DD0BB79082B3E
:402A80007AD8BA79B97940480B465B000B449B0003449B78DBB223F00103D8B23A4913465B0013449B000B4402469A70BA79364913465B0013449B000B440022DA70334A5F
:402AC000BB791B0113447F221A70BA79B9792E480B465B000B449B0003445B78DBB223F00203D8B2284913465B0013449B000B4402465A70BA79244913465B0013449B008C
:402B00000B441B79DBB2DBB25BB2002B18DABA791D4913465B0013449B000B445B78DBB2012B06D1194ABB791B0113440C229A701EE0164ABB791B0113440D229A7017E006
:402B4000BA79114913465B0013449B000B445B78DBB2012B06D10D4ABB791B01134408229A7005E0094ABB791B01134409229A70FEF772FF0346FB71FB7918460837BD46FB
:402B800080BD00BF006000407483FF1FFC5F004080B584B000AF0023FB73154B1B79BB73144B1B78DBB2013BDBB21846FFF788FEB860BB685B681B79FB71BA7BFB799A4259
:402BC00002D9BB7B022B0ED8BB7BBA7B0A498A5CD1B20A4AD154BB7B054A9278D1B2064AD1540123FB73FB7B18461037BD4680BD006000406F83FF1FE083FF1F5483FF1F77
:402C000080B582B000AF0023FB710F4B1B78DBB2DBB25BB2002B12DA0B4B5B78DBB2012B00D00CE0094B0A4A5A60094B1B789AB2064B1A80FEF7F4FD0346FB7100BFFB79D8
:402C400018460837BD4680BD006000405883FF1F404B000080B400AF054B1B78DBB203F040039B09DBB21846BD465DF8047B70478F450040000000000230800803D000BF4D
:402C800001380046FCD17047EFF3108072B6704780F31088704700BF80B483B000AF0346FB7101BE0C37BD465DF8047B704700BF80B582B000AF0346FB80FB88044A1278F0
:402CC00002FB03F31846FFF7D7FF0837BD4680BD7881FF1F80B584B000AF03463960FB710F4B1B68FB60FB791F2B02D90020FFF7D3FFFB7903F01F0310339B00FA681344E2
:402D00001B68BB60FB7903F01F0310339B00FA6813443A681A60BB6818461037BD4680BD08ED00E080B582B000AF03460A46FB711346BB71BB79072B02D90020FFF7ACFF3A
:402D4000FB791F2B02D90020FFF7A6FFFB7903F01F0303F1604303F56443BA795201D2B21A700837BD4680BD80B483B000AF7860264B1B78DBB21A467B681A60244B1B78EF
:402D8000DBB21B027A6812681A437B681A60214B1B78DBB21B047A6812681A437B681A601D4B1B78DBB21B067A6812681A437B681A607B680433194A1278D2B21A60184B6B
:402DC0001B78DBB21A027B6804337968043109680A431A60134B1B78DBB21A047B6804337968043109680A431A600F4B1B78DBB21A067B6804337968043109680A431A6029
:402E00000C37BD465DF8047B704700BF0301004904010049EC460040020100490101004900010049050100490601004980B500AF054B1B78002B04D100F008F8024B01224E
:402E40001A7000F061F880BD3082FF1F80B582B000AF284A274B1B78DBB243F00203DBB21370254B1B78DBB223F07003FB71224AFB7943F01003DBB21370204A1F4B1B78F1
:402E8000DBB223F03003DBB213701C4A1B4B1B78DBB243F03003DBB21370184A174B1B78DBB223F00F03DBB21370144A134B1B78DBB243F00F03DBB21370642000F048F8CF
:402EC000002000F055F8002000F062F80C4A0C4B1B78DBB243F00103DBB21370094A094B1B78DBB243F00103DBB213700837BD4680BD00BF004F0040024F00400B4F0040F1
:402F0000A3430040014F004080B400AF0D4A0D4B1B78DBB243F00103DBB213700A4A0A4B1B78DBB243F00103DBB21370074A074B1B78DBB243F00103DBB21370BD465DF870
:402F4000047B7047A3430040B3430040004F004080B483B000AF0346FB71044BFA7992B21A800C37BD465DF8047B7047044F004080B483B000AF0346FB71044BFA7992B290
:402F80001A800C37BD465DF8047B7047064F004080B483B000AF0346FB71044AFB7913700C37BD465DF8047B704700BF034F004080B582B000AF786000F03CF8786800F0FD
:402FC00009F8072000F018F800F028F80837BD4680BD00BF80B485B000AF7860054B1B68FB60FB6864337A681A601437BD465DF8047B704708ED00E080B483B000AF0346DA
:40300000FB71054AFB795B01DBB213700C37BD465DF8047B704700BF09E400E080B400AF034B4FF400721A60BD465DF8047B704700E100E080B400AF034B4FF400721A6089
:40304000BD465DF8047B704780E100E080B500AF054B1B78002B04D100F008F8024B01221A7000F061F880BD3182FF1F80B582B000AF284A274B1B78DBB243F00203DBB29A
:403080001370254B1B78DBB223F07003FB71224AFB7943F01003DBB21370204A1F4B1B78DBB223F03003DBB213701C4A1B4B1B78DBB243F03003DBB21370184A174B1B78D2
:4030C000DBB223F00F03DBB21370144A134B1B78DBB243F00F03DBB21370642000F048F8002000F055F8002000F062F80C4A0C4B1B78DBB243F00203DBB21370094A094BA6
:403100001B78DBB243F00103DBB213700837BD4680BD00BF0C4F00400E4F0040174F0040A34300400D4F004080B400AF0D4A0D4B1B78DBB243F00203DBB213700A4A0A4BA7
:403140001B78DBB243F00203DBB21370074A074B1B78DBB243F00103DBB21370BD465DF8047B7047A3430040B34300400C4F004080B483B000AF0346FB71044BFA7992B287
:403180001A800C37BD465DF8047B7047104F004080B483B000AF0346FB71044BFA7992B21A800C37BD465DF8047B7047124F004080B483B000AF0346FB71044AFB79137018
:4031C0000C37BD465DF8047B704700BF0F4F004080B400AFBD465DF8047B704780B582B000AF0F2000F06AF800F058F8FFF74CFD0346FB71074A074B1B78DBB243F010035C
:40320000DBB21370FB791846FFF742FD0837BD4680BD00BF9464004080B500AF00F034F94FF4004000F05CF9054B1B78002B04D1FFF7CEFF024B01221A70FFF7CFFF80BD97
:403240003282FF1F80B582B000AF00F059F90346FB80FB88A3F500439BB2BB80BB881BB218460837BD4680BD80B584B000AF0346FB80B7F90630002B04DBFB88A3F5004363
:40328000FB8103E0FB88A3F50043FB81FB89184600F026F91037BD4680BD00BF80B400AF054B1B78DBB203F00F03DBB21846BD465DF8047B704700BF6464004080B483B09F
:4032C00000AF0346FB71044AFB7913700C37BD465DF8047B704700BF8464004080B400AFBD465DF8047B704780B582B000AF0F2000F06AF800F058F8FFF7C6FC0346FB71B8
:40330000074A074B1B78DBB243F01003DBB21370FB791846FFF7BCFC0837BD4680BD00BF9364004080B500AF00F084F94FF4004000F0ACF9054B1B78002B04D1FFF7CEFF70
:40334000024B01221A70FFF7CFFF80BD3382FF1F80B582B000AF00F0A9F90346FB80FB88A3F500439BB2BB80BB881BB218460837BD4680BD80B584B000AF0346FB80B7F9B4
:403380000630002B04DBFB88A3F50043FB8103E0FB88A3F50043FB81FB89184600F076F91037BD4680BD00BF80B400AF054B1B78DBB203F00F03DBB21846BD465DF8047B95
:4033C000704700BF6364004080B483B000AF0346FB71044AFB7913700C37BD465DF8047B704700BF8364004080B582B000AF1C4B1B78DBB223F00703FB71194AFB79137009
:40340000174B1B78DBB223F00303FB71144AFB79137000F0B1F84FF4004000F08DF84FF4004000F05DF8002000F03EF800F04CF84FF4004000F090F8FFF726FC0346BB71D5
:40344000084A084B1B78DBB243F01003DBB21370BB791846FFF71CFC0837BD4680BD00BF756400409765004080B400AF054A054B1B78DBB263F07F03DBB21370BD465DF81F
:40348000047B70477564004080B500AF054B1B78002B04D1FFF7A8FF024B01221A70FFF7E3FF80BD3482FF1F80B483B000AF0346FB71044AFB7913700C37BD465DF8047B4C
:4034C000704700BF8765004080B400AF034B1B78DBB21846BD465DF8047B70476765004080B483B000AF0346FB80044AFB8813800C37BD465DF8047B704700BF0C6A00405D
:4035000080B400AF044B1B78044B1B889BB21846BD465DF8047B7047066500408C6A004080B400AF034B1B889BB21846BD465DF8047B70478C6A004080B483B000AF034618
:40354000FB80044AFB8813800C37BD465DF8047B704700BF4C6A004080B483B000AF0346FB80044AFB8813800C37BD465DF8047B704700BF6C6A004080B500AF01E0FFF747
:40358000CFFFFFF7A1FF034603F04003002BF6D180BD00BF80B582B000AF1C4B1B78DBB223F00703FB71194AFB791370174B1B78DBB223F00303FB71144AFB79137000F06E
:4035C000B1F84FF4004000F08DF84FF4004000F05DF8002000F03EF800F04CF84FF4004000F090F8FFF750FB0346BB71084A084B1B78DBB243F01003DBB21370BB7918468A
:40360000FFF746FB0837BD4680BD00BF746400409064004080B400AF054A054B1B78DBB263F07F03DBB21370BD465DF8047B70477464004080B500AF054B1B78002B04D1D5
:40364000FFF7A8FF024B01221A70FFF7E3FF80BD3582FF1F80B483B000AF0346FB71044AFB7913700C37BD465DF8047B704700BF8064004080B400AF034B1B78DBB2184656
:40368000BD465DF8047B70476064004080B483B000AF0346FB80044AFB8813800C37BD465DF8047B704700BF0668004080B400AF044B1B78044B1B889BB21846BD465DF842
:4036C000047B7047036400408668004080B400AF034B1B889BB21846BD465DF8047B70478668004080B483B000AF0346FB80044AFB8813800C37BD465DF8047B704700BFB6
:403700004668004080B483B000AF0346FB80044AFB8813800C37BD465DF8047B704700BF6668004080B500AF01E0FFF7CFFFFFF7A1FF034603F04003002BF6D180BD00BF33
:4037400080B483B000AF0346FB71044AFB7913700C37BD465DF8047B704700BF7965004080B582B000AF786000F03CF8786800F009F8072000F018F800F028F80837BD462F
:4037800080BD00BF80B485B000AF7860054B1B68FB60FB6868337A681A601437BD465DF8047B704708ED00E080B483B000AF0346FB71054AFB795B01DBB213700C37BD46A7
:4037C0005DF8047B704700BF0AE400E080B400AF034B4FF480621A60BD465DF8047B704700E100E080B400AF034B4FF480621A60BD465DF8047B704780E100E080B582B08C
:4038000000AF42F2273000F05BF842F2273000F073F8FFF739FA0346FB710A4A094B1B78DBB243F01003DBB21370FB791846FFF72FFA00F071F8012000F026F80837BD466E
:4038400080BD00BF9764004080B400AF054A054B1B78DBB263F07F03DBB21370BD465DF8047B70477664004080B500AF054B1B78002B04D1FFF7C2FF024B01221A70FFF774
:40388000E3FF80BD3682FF1F80B483B000AF0346FB71044AFB7913700C37BD465DF8047B704700BF8764004080B400AF034B1B78DBB21846BD465DF8047B70476764004000
:4038C00080B483B000AF0346FB80044AFB8813800C37BD465DF8047B704700BF4C68004080B400AF034B1B889BB21846BD465DF8047B70478C68004080B483B000AF034666
:40390000FB80044AFB8813800C37BD465DF8047B704700BF0C68004080B500AF01E0FFF7DFFFFFF7C1FF034603F00803002BF6D180BD00BF80B483B000AF0346FB71094BC1
:40394000084A1278D2B2D1B2FA7922F00702D2B20A43D2B2D2B21A700C37BD465DF8047B704700BF8A40004080B582B000AF786000F03CF8786800F009F8072000F018F8CF
:4039800000F028F80837BD4680BD00BF80B485B000AF7860054B1B68FB60FB6858337A681A601437BD465DF8047B704708ED00E080B483B000AF0346FB71054AFB795B01B9
:4039C000DBB213700C37BD465DF8047B704700BF06E400E080B400AF034B40221A60BD465DF8047B704700BF00E100E080B400AF034B40221A60BD465DF8047B704700BFE8
:403A000080E100E080B582B000AF786000F03CF8786800F009F8072000F018F800F028F80837BD4680BD00BF80B485B000AF7860054B1B68FB60FB6860337A681A60143732
:403A4000BD465DF8047B704708ED00E080B483B000AF0346FB71054AFB795B01DBB213700C37BD465DF8047B704700BF08E400E080B400AF034B4FF480721A60BD465DF855
:403A8000047B704700E100E080B400AF034B4FF480721A60BD465DF8047B704780E100E080B582B000AF1A4B1B78DBB203F00303012B02D0022B04D012E0154B1B79BB71BB
:403AC00011E0134B1B79DBB203F07F02114913465B0013449B000B4408339B78BB7102E00023BB7100BF0C4B1A68BB7913441B78022B04D1FDF790FB0346FB7102E00023F7
:403B0000FB7100BFFB7918460837BD4680BD00BF006000407483FF1F6883FF1F80F0004002E000BF81F0004142001FBF5FEA410392EA030F7FEA226C7FEA236C6AD04FEAEC
:403B40001262D2EB1363C1BFD218414048404140B8BF5B42192B88BF704710F0004F40F4000020F07F4018BF404211F0004F41F4000121F07F4118BF494292EA030F3FD053
:403B8000A2F1010241FA03FC10EB0C00C3F1200301FA03F100F0004302D5494260EB4000B0F5000F13D3B0F1807F06D340084FEA310102F10102FE2A51D2B1F1004F40EB25
:403BC000C25008BF20F0010040EA03007047490040EB000010F4000FA2F10102EDD1B0FA80FCACF1080CB2EB0C0200FA0CF0AABF00EBC25052421843BCBFD04018437047B2
:403C000092F0000F81F4000106BF80F400000132013BB5E74FEA41037FEA226C18BF7FEA236C21D092EA030F04D092F0000F08BF0846704790EA010F1CBF0020704712F008
:403C40007F4F04D1400028BF40F00040704712F100723CBF00F50000704700F0004343F0FE4040F4000070477FEA226216BF08467FEA23630146420206BF5FEA412390EA32
:403C8000010F40F4800070474FF0000304E000BF10F0004348BF40425FEA000C08BF704743F0964301464FF000001CE050EA010208BF70474FF000030AE000BF50EA010294
:403CC00008BF704711F0004302D5404261EB41015FEA010C02BF84460146002043F0B64308BFA3F18053A3F50003BCFA8CF2083AA3EBC25310DB01FA02FC634400FA02FC42
:403D0000C2F12002BCF1004F20FA02F243EB020008BF20F00100704702F1200201FA02FCC2F1200250EA4C0021FA02F243EB020008BF20EADC7070474FF0FF0C1CEAD052F7
:403D40001EBF1CEAD15392EA0C0F93EA0C0F6FD01A4480EA010C400218BF5FEA41211ED04FF0006343EA501043EA5111A0FB01310CF00040B1F5000F3EBF490041EAD37116
:403D80005B0040EA010062F17F02FD2A1DD8B3F1004F40EBC25008BF20F00100704790F0000F0CF0004C08BF49024CEA502040EA51207F3AC2BFD2F1FF0340EAC2507047B2
:403DC00040F400004FF00003013A5DDC12F1190FDCBF00F000407047C2F10002410021FA02F1C2F1200200FA02FC5FEA310040F1000053EA4C0308BF20EADC70704792F0CE
:403E0000000F00F0004C02BF400010F4000F013AF9D040EA0C0093F0000F01F0004C02BF490011F4000F013BF9D041EA0C018FE70CEAD15392EA0C0F18BF93EA0C0F0AD04F
:403E400030F0004C18BF31F0004CD8D180EA010000F00040704790F0000F17BF90F0004F084691F0000F91F0004F14D092EA0C0F01D142020FD193EA0C0F03D14B0218BFB4
:403E8000084608D180EA010000F0004040F0FE4040F40000704740F0FE4040F4400070474FF0FF0C1CEAD0521EBF1CEAD15392EA0C0F93EA0C0F69D0A2EB030280EA010C64
:403EC00049024FEA402037D04FF0805343EA111143EA10130CF000408B4238BF5B0042F17D024FF4000C8B4224BF5B1A40EA0C00B3EB510F24BFA3EB510340EA5C00B3EB88
:403F0000910F24BFA3EB910340EA9C00B3EBD10F24BFA3EBD10340EADC001B0118BF5FEA1C1CE0D1FD2A3FF650AF8B4240EBC25008BF20F0010070470CF0004C4CEA502046
:403F40007F32C2BFD2F1FF0340EAC250704740F400004FF00003013A37E792F0000F00F0004C02BF400010F4000F013AF9D040EA0C0093F0000F01F0004C02BF490011F48F
:403F8000000F013BF9D041EA0C0195E70CEAD15392EA0C0F08D142027FF47DAF93EA0C0F7FF470AF084676E793EA0C0F04D14B023FF44CAF08466EE730F0004C18BF31F008
:403FC000004CCAD130F000427FF45CAF31F000437FF43CAF5FE700BF4FEA4002B2F1FE4F0FD34FF09E03B3EB12620DD94FEA002343F0004310F0004F23FA02F018BF404285
:4040000070474FF00000704712F1610F01D1420205D110F0004008BF6FF0004070474FF000007047014B1868704700BFE081FF1F0E4B70B51E460E4C0025E41AA410A54266
:4040400004D056F8253098470135F8E700F0A8FD084B094C1E46E41AA4100025A54204D056F8253098470135F8E770BDAC4B0000AC4B0000AC4B0000B44B000010B5431ED4
:404080000A44914204D011F8014B03F8014FF8E710BD03460244934202D003F8011BFAE7704700000EB400B54FF402719CB0ADF814106FF00041049107914FF6FF711DAB4E
:4040C000ADF81610084953F8042B02900690086802A9019300F06CF8029B00221A701CB05DF804EB03B07047E081FF1F034613F8012B002AFBD1181A013870472DE9F047D8
:404100008E688246B3420C469046994640D38A8912F4906F3AD02568096902236F1A656905EB450595FBF3F57B1C4B449D4238BF1D4653050FD5294600F030FB064698B1A9
:4041400021693A46FFF79AFFA38923F4906343F08003A38113E02A4600F076FB064670B95046216900F0D6FA0C23CAF80030A3894FF0FF3043F04003A381BDE8F087266185
:404180003E4426604E466561ED1BA560B14500D24E4632462068414600F0A0FAA36800209B1BA36023681E442660BDE8F08700002DE9F0439DB003938B8906461C060D46AF
:4041C00090460CD50B6953B9402100F0E7FA2860286110B90C233360CCE040236B610023099320238DF8293030238DF82A3043461C4613F8012B1AB9B4EB08090FD002E067
:40420000252AF5D1F8E73046294642464B46FFF775FF013000F0A980099B4B4409932378002B00F0A28000234FF0FF3204930793059206938DF853301A9304F10108444600
:40424000DFF8489121784846052200F039FA08F10108049B30B1C9EB00000122824013430493ECE7D80644BF20228DF85320190744BF2B228DF8532022782A2A02D007995F
:4042800023460EE0039A0134111D12680391002ABBBF524243F0020307920792B8BF04930AE01C4622780133303A092A03D80A2000FB0121F5E7079123782E2B1AD16378E2
:4042C0002A2B0AD1039B02341A1D1B680392002BB8BF4FF0FF3305930CE0611C00220C4623780131303B092B03D80A2000FB0232F5E70592DFF8988021784046032200F0AD
:40430000DFF938B1049AC8EB00004023834013430493013421781A48062204F101088DF8281000F0CDF988B1164B33B9039B073323F007030833039313E003AB0093304699
:4043400004A92A46104BAFF3008007E003AB0093304604A92A460C4B00F092F8421C074603D0099B3B44099341E7AB895B0601D4099801E04FF0FF301DB0BDE8F08300BFB4
:40438000744B000000000000FD4000006A4B0000704B00002DE9F84391461F468A680B6906469342B8BF1346C9F8003091F843200C46DDF8208012B10133C9F80030236896
:4043C000990642BFD9F800300233C9F80030256815F006051CD094F843302268003318BF012392061FD5E118302081F843005A1C94F845102244023382F8431013E03046FD
:40440000394604F119020123C047013007D00135E368D9F800209B1A9D42F0DBDBE74FF0FF30BDE8F8833046394604F14302C0470130F4D02268D9F80050E36802F006027E
:40444000042A08BF5D1B2269A3680CBF25EAE57500259342C4BF9B1AED184FF00009A9450ADA3046394604F11A020123C0470130D5D009F10109F2E70020BDE8F883000090
:404480002DE9FF410C461746227E98466E2A06460A9B01F1430100F0B08012D8632A23D00AD8002A00F0BD80582A40F0CC8084F84520DFF804E257E0642A1ED0692A1CD029
:4044C000C1E0732A00F0B18009D86F2A2ED0702A40F0B980226842F0200222603FE0752A24D0782A3BD0AEE01A6804F14205111D1960136884F84230A9E020681A6810F034
:40450000800F02D0101D186008E010F0400F02F10400186002D0B2F9003000E01368002B3EDA2D225B4284F8432039E020681A6810F0800F02D0101D186007E010F0400F5A
:4045400002F10400186001D0138800E01368227EDFF864E16F2A0CBF08220A221CE07822DFF858E184F845202268186812F0800F00F104051D6003D1550601D5038800E086
:404580000368D00744BF42F0200222601BB9226822F0200222601022002084F8430002E0DFF814E10A226568002DA8BF2068A560A4BF20F00400206003B965B10D46B3FB29
:4045C000F2F002FB10331EF8033005F8013D03460028F4D100E00D46082A0BD12368DA0708D5236962689A42DEBF302305F8013C05F1FF35491B21612EE025681A6815F0C7
:40460000800F606903D0151D1D60136808E015F0400F02F104051D60136801D0188000E01860002323610D4616E01A68111D1960156800212846626800F042F808B1401B07
:404640006060636804E004F1420584F8422001232361002384F84330CDF800803046214603AA3B46FFF796FE013002D14FF0FF301FE0304639462A462369C0470130F5D0BE
:4046800023689B0705D4E068039B9842B8BF18460FE00025E368039A9B1A9D42F3DA3046394604F119020123C0470130DED00135F0E704B0BDE8F0817B4B00008C4B00007F
:4046C00010B5C9B202449042034605D01C7801308C42F8D1184610BD002010BD814210B501EB020301D3421E0BE09842FBD28118D21AD34204D013F8014D01F8014DF8E7A4
:4047000010BD994204D011F8014B02F8014FF8E710BD000030B500293CD051F8042C0B1F1D49002AB8BF9B180A680C4612B95A600B6030BD93420DD219685818904201BF63
:404740005A5852181A60426823605A6030BD994203D80A4651680029F9D1146815199D420AD11B682344D0188842136012D10868034413604B680CE002D90C23036030BDA4
:404780001C681819884201BF08684968001918605960536030BD00BF3C82FF1F70B5CC1C24F0030408340C2C38BF0C24002C064603DA0C233360002070BD8C42F9D3204AE9
:4047C000136810461946A1B10A68121B0ED40B2A03D90A608B188C501FE08B420BBF5A684A6802605A6018BF0B4616E00B464968E9E7144D2B681BB9304600F04BF82860AD
:404800003046214600F046F8421C0346D1D0C51C25F0030585420AD11C6003F10B001A1D20F00700821A0AD05142995070BD3046E91A00F02FF80130BBD02B46ECE770BDE0
:404840003C82FF1F3882FF1FF8B5074615460E4621B91146BDE8F840FFF7A0BF1AB9FFF759FF2846F8BD00F025F8A8420ED238462946FFF793FF044650B131462A46FFF7C0
:40488000FDFB38463146FFF745FF01E03046F8BD2046F8BD38B5064C0023054608462360FBF738FE431C02D1236803B12B6038BD0C84FF1F51F8040C0028BEBF091851F8FD
:4048C000043CC01804387047000000007175616420636F756E7420312069733A2025640A0D0000007175616420636F756E7420322069733A2025640A0D00000052696768AC
:404900007420776865656C20746F6F20666173742120536C6F77696E6720646F776E200D0A000000526967687420776865656C2064757479206379636C65206973206E6F19
:40494000773A25640D0A0000526967687420776865656C20746F6F20736C6F772C207370656564696E6720757021200D0A0000004261747465727920566F6C746167653A5D
:404980002025646D760A0D00004F0040240010510040100040510040300000000140001000140140000800400140000A004C014000020050014020003031323334353637DA
:4049C0003839414243444546000000001201000202000008B40432F2010001028001000009024300020101C032090400000102020103052400100104240202052406000141
:404A000005240100010705810308000A09040100020A000004070582024000000705030240000000040309042C0343007900700072006500730073002000530065006D00F9
:404A4000690063006F006E0064007500630074006F007200100355005300420055004100520054003803430044004300200043006F006D006D0075006E0069006300610002
:404A8000740069006F006E00200049006E007400650072006600610063006500260343004400430020004400610074006100200049006E00740065007200660061006300B2
:404AC000650000000203000000008103080002000100820240000A000100030240000A00020A000001000000E049000003000000C84A000000000000000000000000000054
:404B00000000000000000000E04A000001000000CC490000000000000000000001000000E44A0000010000000C4B000012034D0053004600540031003000300001000000CD
:404B4000280000000001040001000000000000000001435955534200000030303030310000000000000000004300232D302B2000686C4C0065666745464700303132333463
:404B80003536373839414243444546003031323334353637383961626364656600000000F8B500BFF8BC08BC9E4670474D000000FD050000F8B500BFF8BC08BC9E4670479E
:404BC00029000000D84B00000881FF1FE00000002802000000000000000000000A010000435333303120323031360A00000000000000000000000000000000000000000090
:404C000000000000000000000000000000000000000000000000000000000000000000001084FF1F00C2010000000800C201000000080000A1200000000002000000000069
:404C40000087930360EA00003C000000000030750000000000000000000000000000000000000000000000000000000000000000684B000000000000000000000000000039
:404C80000000000000000000000000000000000000000000000000000000000000000000000000000000000000000000000000008081FF1F000000000000000000000000D5
:404CC00000000000000000000000000000000000000000000000000000000000000000000000000000000000000000000000000000000000000000000000000000000000B4
:404D00000000000000000000000000000000000000000000000000000000000000000000000000000000000000000000000000000000000000000000000000000000000073
:404D40000000000000000000000000000000000000000000000000000000000000000000000000000000000000000000000000000000000000000000000000000000000033
:404D800000000000000000000000000000000000000000000000000000000000000000000000000000000000000000000000000000000000000000000000000000000000F3
:020000040003F7
:0200000480007A
:4000000001450040064F004003520040015B00400764004001650040430001403601014058020140470301405B040140470501405606014046070140550801404109014080
:40004000500A0140380B0140040D0140010F01404C1401404A15014066160140531701404E18014055190140021B01400B400140164101400B4201400C4301400A4501408F
:400080000646014006470140164801400E490140074C01400A4D01400D500140035101407E0201300A360D30163619502236192861147C402F84806F830F840F870D8838C7
:4000C000890F8B72876F0402050809030A020D060E04170819062406250528012C012F10300431083201330734023510380839083E113F01540F580459045B045C115D1044
:400100005F058404870F8C018DCF8E028F3092049407957399FD9A079B029C019D949E029F60A210A407A59EA760A930AA08ABC9AC20B220B3FFB40FB610BE04BF04D608A9
:40014000D804D904DB04DC01DD90DF0100980302058006200E080F521226142216801720181019201A401B041C081E0A1F08200422292310272028202B022E302F20332414
:400180003420358036983B543C083D803F40460447105A465B105C406104621066807A0883088721C0A7C2F0C4F7CA6ACC76CE5ED61FD816DE04E2080101030208080A1049
:4001C0001102130114101608180819011A111B021C081E1022022A042D012F063002321833043401360437033A083B805608580459045B045C115D905F01830185028801F0
:400200008B028C048D019002970499089D08A004A20AA404A801AB02AC01AD01B008B102B201B301B404B504B602B708B828B980BE54BF05C042C106C9FFCAFFCBFFCDA0BD
:40024000CF01D018D40FD804D904DA04DB04DC11DD11DF01E040E280E440E540E680E840EA80EC40ED20EE8001800204030405100A400E1A10A4120A1680171019081A412A
:400280001B101C021D101E101F0123A5268027122A402B042F0130A0330434083508371238443B113C02400841014401460248044B10580559205B805F406680861290041B
:4002C0009614970499209D049E149F04A004A209A304A440A540A692A720B442C043C2E8C45FCA1CCCAECE8FD005D204D61FD810E208E602E850017704FD05B706020740B3
:40030000089E09C00A600B240C940E600F08110113F21584171018301AC9220F28CF29C12A302B122C732F0730FF33F0370F3E0140424106454E46C04732483B49FF4AFF4A
:400340004BFF4DAF4E074F0150185280540F580459045A045B045C105D115F016040628064406540668068406A806C406D206E80830887018A018D08910493029708990244
:400380009B049D029E029F04A501A902AB04AF01B001B108B301B402B706BB80BF05D280D804D904DB04DC11DD10DF01002401200301059006010A080E02124113121880C1
:4003C0001E8823122504274129202A402E802F1432043301340435103640370138843A013B103C403E083F0140084101484449044A024B80521659015B68734076808004E8
:400400008101840486409211930194409502960498089B209D849E54A004A289A310A4E0A540A616A720AF40C047C282C40BCA7CCCF3CEDFD005D204D60F13011A041E0138
:400440002A022F013001310132043402404549FF4AFF4BFF4F0150185280580459085A085B0B5C915D995F016040624064406540668068806A806C806E80800283028402F5
:400480008A048E018F04910292089504960298089C02A201A301A610A802AB04B001B104B206B408B501B610B702BE11BF41C045C5ECC720C823C9FFCAFFCBFFCD83CE03B8
:4004C000CF01D018D401D804D904DA0BDB0BDC11DD99DF01E040E240E440E540E680E880EA80EC80EE800282032409400A100B840F0910201240132016081A461B041C40A8
:400500001D0A1F10210122402304274028402B042C402E802F40310A361237203B414280468049094A024E02520259095A4076C078017C027F01921193D094449502960C53
:4005400097289B039D909E08A104A288A310A4B0A540A610A720AD80AF08C00FC2CFC44ECA15CC83CE09D081D218D60BDE91E204EA040103031404390606070808070A3895
:400580000E1913181411180619031A391B0C1F0520042402251A270428062C3F3020320E3407351C36103703380239803A283B203F404001470449FF4A074BFF4C404D206C
:4005C0004EF04F05500854185604580459045A045B045C445D445F01604061A86240632081048401872289308B408D118F2293309530978099049D08A704ABC0AF11B10C6C
:40060000B201B3F0B703B902BB08BE04D401D604D804D904DB04DC40DD40DF01021004540E040F201602172919041C141E421F1821412202231025502620280229202B20F1
:400640002F2032A0330636A2382039413B043D093E01454049204B104E80550C580159845B105E026101678A810190229104920593029580960297A498109A039B2D9C0A56
:400680009F42A480A622A738A804B296C0E4C260C4F0CA4ECCBFCECFD010D68FD8B1040A06040E0816051B011C031E0C20032204240326043501360F3A80580459045C047C
:4006C0005F018067821084668501860988798A068C048F049219947F984099019D029E60A020A240A402A501A806A901AC20AF04B007B301B47EB502B704BA28BF54C025F3
:40070000C103C204C406C60CC7E0C824C9FFCAFFCBFFCC62CDA0CEF0CF41D00CD602D712D804D904DA04DB04DC04DD44DF01E640E702E910EA30EB10ED10EE10EF1202022B
:40074000032006A8070108080A010D400E200F44108012201402172A1A011D0A1E241F0220042408254026042E282F1A3210361037403E043F80450A46084E014F60560189
:4007800057405E086C116D046F0477297D807F018004922097809810B010C0F5C2F5C4FCCA70CC34CE50D0E0D230D640E4018E109780E208E6028740028003200425050CAB
:4007C00007020808090C0A100B010C20110813011426170F18101A281C081E10200821072210250B2640270428262B102C03306031203280330F34183607371038803A207E
:400800005608580459045B045C115D905F01880C89858A028B1A8C0C8DCC8E018F23940B95779604980799BF9B40A008A201A5CAA610A715AA0FAD03AFFCB210B40FB50FE3
:40084000B7F0D608D804D904DB04DC11DD90DF010004028003090510070209080A0A0E28122113111480151016A019801A881B4C1D101F242020210C2201230125402610EF
:4008800027022A052B442E802F2032043301361C39083B113D905B405D405F20628064026620814082488F4090049110931095409608970898809A049B219C029D809E08C2
:4008C000A228A410A540A610A760AB20AC10AE20C0CFC267C47FCA57CC63CE37D638D838E010EC20070109960B680DA30F5C157F19FE1B011D0E1FF025C5273A2A01340138
:4009000035FF3F104036410449FF4AFF4BFF4DA04F0150185608580459045A045B045C015D915F016040628064406540668068406A806C406D206E80840F85FE8701880AE0
:4009400089A38A058B5C8C07910E93F0940C95969603976898059A0A9C10A610A701A9C5AB3AAC03AD7FAE0CB210B40FB5FFBE04BF10C023C104C543C6C2C70EC81FC9FF04
:40098000CAFFCBFFCDAFCE07CF01D018D40FD804D904DA04DB04DC01DD11DF05E040E280E440E540E680E840EA80EC40ED20EE80002401800A0A0B100D040F2010201202D1
:4009C0001404180419081D102220270429802A282C042F24320633013480369838043A043B103D903E103F08400841064506470248204B014F2050805108521059085A8168
:400A00005B105D4061086210640167027B407C087D08808083109293931094049608970B9B039C039D909E089F04A104A288A314A4B0A540A610A720AB40C007C207C4459B
:400A4000CA4ECC73CE76D0C7D220D61FD816DE01E220E628EE020010041005100801090C0A0E0B111109122013101608180C19141A031C011E061F032110220C230C2410E5
:400A8000251C27022A032E203010311F3220340F3A203E04580459045B045C445F018210840F880F8C038ECC9004924196209A109C10A210A408A682A810AC45AE8AB00F3A
:400AC000B4E0B610B808BE54C012C106C50BC6ECC80DC9FFCAFFCBFFCEF0CF44D00CD608D804DA04DB04DC04DD94DF01E6C0EA40EB0201040280031604020604071008029C
:400B00000A050B100D080E4510801160120C1304140815021601170419801B1A1C401D021E041F2427402E012F2031023201362237403D28400842014A28508052105810C4
:400B40005A806002630469406B026D806E20824089408B089002910692419310944095409602970C98189A019B049C029D809E109F42A11CA282A480A732B009B290B4805F
:400B8000B710C07FC2FFC4FFCAC0CCB0CE60D00CD204D60CD80CE220E629EE02B210EC2031403302340236403A2080808620CCF0CE10E210E6800008052831203208348078
:400BC000350138806C4075408402870298809C029D68A640A702B528C0B0CCF0CE10E210E6401208324053089D41A520A648AC04C440CC10D420EC401B041F088120968029
:400C00009D40A520A640A708A901C630E220EA2000400B205220848085048C40C002C208D404E202822095089C80A620B310EA0408800B400D0495089C80C20E012007806C
:400C400025022808641069046D048540881089048A029D40A304AA40AE40C060C880CA10D880DAC0E610EEC05202630880088D2098089920A202A304AB80B102D480D8403F
:400C8000E420E8801F20340182208720AF40C601CC0112207B01A301A620B001B301C408DC01E801EC0400130101080209010A020B010C11101211011A021B011C101D0175
:400CC00000AB01FF023F00000B00000000002400401C1C00140000004000060000000000C00000000800140A0A00080000000000007B7B00280000000000000000000000F1
:400D000000000000000000000000000000000000000000000000000000000000000000000000000000000000000000000000000000000000000000000000000000000000B3
:400D40000000000000000000000000000000000000000000000000000000000000000000000000000000000000000000000000000000000000000000000000000000000073
:400D80000000000000000000000000000000000000000000000000000000000000000000000000000000000000000000000000000000000000000000000000000000000033
:400DC00000000000000000000000000000000000000000000000000000000000000000000000000000000000000000000000000000000000000000000000000000000000F3
:0200000490006A
:0400000000004005B7
:0200000490105A
:04000000BC90ACAF55
:0200000490303A
:02000000F39378
:0200000490402A
:4000000000000000000000000000000000000000000000000000000000000000000000000000000000000000000000000000000000000000000000000000000000000000C0
:400040000000000000000000000000000000000000000000000000000000000000000000000000000000000000000000000000000000000000000000000000000000000080
:400080000000000000000000000000000000000000000000000000000000000000000000000000000000000000000000000000000000000000000000000000000000000040
:4000C0000000000000000000000000000000000000000000000000000000000000000000000000000000000000000000000000000000000000000000000000000000000000
:0200000490501A
:0C00000000012E16106900012E3703FCD1
:00000001FF